{
  "_format": "hh-sol-artifact-1",
  "contractName": "EContract",
  "sourceName": "contracts/EContract.sol",
  "abi": [
    {
      "inputs": [
        {
          "internalType": "address",
          "name": "_landRegistryAddress",
          "type": "address"
        }
      ],
      "stateMutability": "nonpayable",
      "type": "constructor"
    },
    {
      "anonymous": false,
      "inputs": [
        {
          "indexed": true,
          "internalType": "uint256",
          "name": "contractId",
          "type": "uint256"
        },
        {
          "indexed": true,
          "internalType": "uint256",
          "name": "tokenId",
          "type": "uint256"
        },
        {
          "indexed": true,
          "internalType": "address",
          "name": "seller",
          "type": "address"
        },
        {
          "indexed": false,
          "internalType": "address",
          "name": "buyer",
          "type": "address"
        },
        {
          "indexed": false,
          "internalType": "address",
          "name": "certifier",
          "type": "address"
        },
        {
          "indexed": false,
          "internalType": "uint256",
          "name": "price",
          "type": "uint256"
        }
      ],
      "name": "ContractCreated",
      "type": "event"
    },
    {
      "anonymous": false,
      "inputs": [
        {
          "indexed": true,
          "internalType": "uint256",
          "name": "contractId",
          "type": "uint256"
        },
        {
          "indexed": true,
          "internalType": "address",
          "name": "signer",
          "type": "address"
        },
        {
          "indexed": false,
          "internalType": "string",
          "name": "role",
          "type": "string"
        }
      ],
      "name": "ContractSigned",
      "type": "event"
    },
    {
      "anonymous": false,
      "inputs": [
        {
          "indexed": true,
          "internalType": "uint256",
          "name": "contractId",
          "type": "uint256"
        },
        {
          "indexed": false,
          "internalType": "enum EContract.ContractStatus",
          "name": "newStatus",
          "type": "uint8"
        }
      ],
      "name": "ContractStatusChanged",
      "type": "event"
    },
    {
      "anonymous": false,
      "inputs": [
        {
          "indexed": true,
          "internalType": "address",
          "name": "previousOwner",
          "type": "address"
        },
        {
          "indexed": true,
          "internalType": "address",
          "name": "newOwner",
          "type": "address"
        }
      ],
      "name": "OwnershipTransferred",
      "type": "event"
    },
    {
      "inputs": [
        {
          "internalType": "uint256",
          "name": "",
          "type": "uint256"
        }
      ],
      "name": "activeContractByToken",
      "outputs": [
        {
          "internalType": "uint256",
          "name": "",
          "type": "uint256"
        }
      ],
      "stateMutability": "view",
      "type": "function"
    },
    {
      "inputs": [
        {
          "internalType": "uint256",
          "name": "_contractId",
          "type": "uint256"
        }
      ],
      "name": "cancelContract",
      "outputs": [],
      "stateMutability": "nonpayable",
      "type": "function"
    },
    {
      "inputs": [],
      "name": "contractCount",
      "outputs": [
        {
          "internalType": "uint256",
          "name": "",
          "type": "uint256"
        }
      ],
      "stateMutability": "view",
      "type": "function"
    },
    {
      "inputs": [
        {
          "internalType": "uint256",
          "name": "",
          "type": "uint256"
        }
      ],
      "name": "contracts",
      "outputs": [
        {
          "internalType": "uint256",
          "name": "contractId",
          "type": "uint256"
        },
        {
          "internalType": "uint256",
          "name": "tokenId",
          "type": "uint256"
        },
        {
          "internalType": "address",
          "name": "seller",
          "type": "address"
        },
        {
          "internalType": "address",
          "name": "buyer",
          "type": "address"
        },
        {
          "internalType": "address",
          "name": "certifier",
          "type": "address"
        },
        {
          "internalType": "uint256",
          "name": "price",
          "type": "uint256"
        },
        {
          "internalType": "bool",
          "name": "sellerSigned",
          "type": "bool"
        },
        {
          "internalType": "bool",
          "name": "buyerSigned",
          "type": "bool"
        },
        {
          "internalType": "bool",
          "name": "certifierSigned",
          "type": "bool"
        },
        {
          "internalType": "enum EContract.ContractStatus",
          "name": "status",
          "type": "uint8"
        },
        {
          "internalType": "uint256",
          "name": "createdAt",
          "type": "uint256"
        },
        {
          "internalType": "uint256",
          "name": "updatedAt",
          "type": "uint256"
        }
      ],
      "stateMutability": "view",
      "type": "function"
    },
    {
      "inputs": [
        {
          "internalType": "uint256",
          "name": "_tokenId",
          "type": "uint256"
        },
        {
          "internalType": "address",
          "name": "_seller",
          "type": "address"
        },
        {
          "internalType": "address",
          "name": "_buyer",
          "type": "address"
        },
        {
          "internalType": "address",
          "name": "_certifier",
          "type": "address"
        },
        {
          "internalType": "uint256",
          "name": "_price",
          "type": "uint256"
        }
      ],
      "name": "createContract",
      "outputs": [
        {
          "internalType": "uint256",
          "name": "",
          "type": "uint256"
        }
      ],
      "stateMutability": "nonpayable",
      "type": "function"
    },
    {
      "inputs": [
        {
          "internalType": "uint256",
          "name": "_contractId",
          "type": "uint256"
        }
      ],
      "name": "getContract",
      "outputs": [
        {
          "components": [
            {
              "internalType": "uint256",
              "name": "contractId",
              "type": "uint256"
            },
            {
              "internalType": "uint256",
              "name": "tokenId",
              "type": "uint256"
            },
            {
              "internalType": "address",
              "name": "seller",
              "type": "address"
            },
            {
              "internalType": "address",
              "name": "buyer",
              "type": "address"
            },
            {
              "internalType": "address",
              "name": "certifier",
              "type": "address"
            },
            {
              "internalType": "uint256",
              "name": "price",
              "type": "uint256"
            },
            {
              "internalType": "bool",
              "name": "sellerSigned",
              "type": "bool"
            },
            {
              "internalType": "bool",
              "name": "buyerSigned",
              "type": "bool"
            },
            {
              "internalType": "bool",
              "name": "certifierSigned",
              "type": "bool"
            },
            {
              "internalType": "enum EContract.ContractStatus",
              "name": "status",
              "type": "uint8"
            },
            {
              "internalType": "uint256",
              "name": "createdAt",
              "type": "uint256"
            },
            {
              "internalType": "uint256",
              "name": "updatedAt",
              "type": "uint256"
            }
          ],
          "internalType": "struct EContract.PurchaseContract",
          "name": "",
          "type": "tuple"
        }
      ],
      "stateMutability": "view",
      "type": "function"
    },
    {
      "inputs": [],
      "name": "landRegistryContract",
      "outputs": [
        {
          "internalType": "contract LandRegistry",
          "name": "",
          "type": "address"
        }
      ],
      "stateMutability": "view",
      "type": "function"
    },
    {
      "inputs": [],
      "name": "owner",
      "outputs": [
        {
          "internalType": "address",
          "name": "",
          "type": "address"
        }
      ],
      "stateMutability": "view",
      "type": "function"
    },
    {
      "inputs": [],
      "name": "renounceOwnership",
      "outputs": [],
      "stateMutability": "nonpayable",
      "type": "function"
    },
    {
      "inputs": [
        {
          "internalType": "uint256",
          "name": "_contractId",
          "type": "uint256"
        }
      ],
      "name": "signContract",
      "outputs": [],
      "stateMutability": "nonpayable",
      "type": "function"
    },
    {
      "inputs": [
        {
          "internalType": "address",
          "name": "newOwner",
          "type": "address"
        }
      ],
      "name": "transferOwnership",
      "outputs": [],
      "stateMutability": "nonpayable",
      "type": "function"
    }
  ],
  "bytecode": "0x608060405234801561001057600080fd5b5060405161159338038061159383398101604081905261002f91610107565b610038336100b7565b6001600160a01b0381166100925760405162461bcd60e51b815260206004820152601c60248201527f496e76616c6964204c616e645265676973747279206164647265737300000000604482015260640160405180910390fd5b600180546001600160a01b0319166001600160a01b0392909216919091179055610137565b600080546001600160a01b038381166001600160a01b0319831681178455604051919092169283917f8be0079c531659141344cd1fd0a4f28419497f9722a3daafe3b4186f6b6457e09190a35050565b60006020828403121561011957600080fd5b81516001600160a01b038116811461013057600080fd5b9392505050565b61144d806101466000396000f3fe608060405234801561001057600080fd5b50600436106100a95760003560e01c80638736381a116100715780638736381a146101c15780638da5cb5b146101d85780639537e8d1146101e9578063d4a0e03d146101fc578063f2fde38b1461021c578063f9972fc81461022f57600080fd5b806328047450146100ae578063474da79a146100c3578063611557751461016e5780636ebc8c8614610199578063715018a6146101b9575b600080fd5b6100c16100bc3660046110e2565b610242565b005b61014d6100d13660046110e2565b6003602081905260009182526040909120805460018201546002830154938301546004840154600585015460068601546007870154600890970154959794966001600160a01b03958616969486169590931693919260ff808316936101008404821693620100008104831693630100000090910490921691908c565b6040516101659c9b9a99989796959493929190611133565b60405180910390f35b600154610181906001600160a01b031681565b6040516001600160a01b039091168152602001610165565b6101ac6101a73660046110e2565b6103dc565b60405161016591906111ab565b6100c1610555565b6101ca60025481565b604051908152602001610165565b6000546001600160a01b0316610181565b6100c16101f73660046110e2565b610569565b6101ca61020a3660046110e2565b60046020526000908152604090205481565b6100c161022a366004611299565b610925565b6101ca61023d3660046112bd565b61099e565b6000818152600360205260408120805490910361027a5760405162461bcd60e51b815260040161027190611318565b60405180910390fd5b600060068201546301000000900460ff16600281111561029c5761029c6110fb565b146102e35760405162461bcd60e51b8152602060048201526017602482015276436f6e7472616374206973206e6f742070656e64696e6760481b6044820152606401610271565b60028101546001600160a01b031633148061030a575060038101546001600160a01b031633145b80610321575060048101546001600160a01b031633145b8061033657506000546001600160a01b031633145b6103825760405162461bcd60e51b815260206004820152601860248201527f4e6f7420617574686f72697a656420746f2063616e63656c00000000000000006044820152606401610271565b60068101805463ff0000001916630200000017905542600882015560405182907fdcba20243cece5ee0f3fd42c582f8201538d034183adfefbc2e6bf21de8fd376906103d09060029061134f565b60405180910390a25050565b6104426040805161018081018252600080825260208201819052918101829052606081018290526080810182905260a0810182905260c0810182905260e08101829052610100810182905290610120820190815260200160008152602001600081525090565b600082815260036020526040812054900361046f5760405162461bcd60e51b815260040161027190611318565b600082815260036020818152604092839020835161018081018552815481526001820154928101929092526002808201546001600160a01b0390811695840195909552928101548416606083015260048101549093166080820152600583015460a0820152600683015460ff808216151560c08401526101008083048216151560e08501526201000083048216151590840152919392610120850192630100000090920490911690811115610526576105266110fb565b6002811115610537576105376110fb565b81526007820154602082015260089091015460409091015292915050565b61055d611038565b6105676000611092565b565b600081815260036020526040812080549091036105985760405162461bcd60e51b815260040161027190611318565b600060068201546301000000900460ff1660028111156105ba576105ba6110fb565b146106015760405162461bcd60e51b8152602060048201526017602482015276436f6e7472616374206973206e6f742070656e64696e6760481b6044820152606401610271565b6040805160208101909152600080825260028301549091906001600160a01b031633036106ac57600683015460ff16156106755760405162461bcd60e51b815260206004820152601560248201527414d95b1b195c88185b1c9958591e481cda59db9959605a1b6044820152606401610271565b50506006808201805460ff19166001908117909155604080518082019091529182526539b2b63632b960d11b6020830152906107f0565b60038301546001600160a01b03163303610748576006830154610100900460ff16156107115760405162461bcd60e51b8152602060048201526014602482015273109d5e595c88185b1c9958591e481cda59db995960621b6044820152606401610271565b505060068101805461ff001916610100179055604080518082019091526005815264313abcb2b960d91b60208201526001906107f0565b60048301546001600160a01b031633036107f057600683015462010000900460ff16156107b75760405162461bcd60e51b815260206004820152601860248201527f43657274696669657220616c7265616479207369676e656400000000000000006044820152606401610271565b505060068101805462ff000019166201000017905560408051808201909152600981526831b2b93a34b334b2b960b91b60208201526001905b816108545760405162461bcd60e51b815260206004820152602e60248201527f53656e646572206973206e6f7420617574686f72697a656420746f207369676e60448201526d081d1a1a5cc818dbdb9d1c9858dd60921b6064820152608401610271565b426008840155604051339085907f52ea4f03466ecb6e478b756f8a6e63e9a06048eec55443b64fbef66048d2e9bf9061088e908590611363565b60405180910390a3600683015460ff1680156108b357506006830154610100900460ff165b80156108c95750600683015462010000900460ff165b1561091f5760068301805463ff0000001916630100000017905560405184907fdcba20243cece5ee0f3fd42c582f8201538d034183adfefbc2e6bf21de8fd376906109169060019061134f565b60405180910390a25b50505050565b61092d611038565b6001600160a01b0381166109925760405162461bcd60e51b815260206004820152602660248201527f4f776e61626c653a206e6577206f776e657220697320746865207a65726f206160448201526564647265737360d01b6064820152608401610271565b61099b81611092565b50565b60006001600160a01b0385166109ef5760405162461bcd60e51b8152602060048201526016602482015275496e76616c69642073656c6c6572206164647265737360501b6044820152606401610271565b6001600160a01b038416610a3d5760405162461bcd60e51b8152602060048201526015602482015274496e76616c6964206275796572206164647265737360581b6044820152606401610271565b6001600160a01b038316610a935760405162461bcd60e51b815260206004820152601960248201527f496e76616c6964206365727469666965722061646472657373000000000000006044820152606401610271565b836001600160a01b0316856001600160a01b031603610aff5760405162461bcd60e51b815260206004820152602260248201527f53656c6c657220616e64206275796572206d75737420626520646966666572656044820152611b9d60f21b6064820152608401610271565b60008211610b4f5760405162461bcd60e51b815260206004820152601f60248201527f5072696365206d7573742062652067726561746572207468616e207a65726f006044820152606401610271565b600154604051630241aa1360e11b8152600481018890526000916001600160a01b031690630483542690602401602060405180830381865afa158015610b99573d6000803e3d6000fd5b505050506040513d601f19601f82011682018060405250810190610bbd91906113b2565b90506004816007811115610bd357610bd36110fb565b14610c2c5760405162461bcd60e51b8152602060048201526024808201527f4c616e64206d75737420626520696e2044414e475f4749414f5f4449434820736044820152637461746560e01b6064820152608401610271565b60015460408051632b359bc560e01b815290516000926001600160a01b031691632b359bc59160048083019260209291908290030181865afa158015610c76573d6000803e3d6000fd5b505050506040513d601f19601f82011682018060405250810190610c9a91906113d3565b6040516331a9108f60e11b8152600481018a90529091506000906001600160a01b03831690636352211e90602401602060405180830381865afa158015610ce5573d6000803e3d6000fd5b505050506040513d601f19601f82011682018060405250810190610d0991906113d3565b9050876001600160a01b0316816001600160a01b031614610d7f5760405162461bcd60e51b815260206004820152602a60248201527f53656c6c6572206973206e6f7420746865206f776e6572206f662074686973206044820152693630b732103a37b5b2b760b11b6064820152608401610271565b6000898152600460205260409020548015610e2557600080828152600360205260409020600601546301000000900460ff166002811115610dc257610dc26110fb565b03610e255760405162461bcd60e51b815260206004820152602d60248201527f41637469766520636f6e747261637420616c726561647920657869737473206660448201526c37b9103a3434b9903a37b5b2b760991b6064820152608401610271565b60028054906000610e35836113f0565b90915550506002546040805161018081018252828152602081018d90526001600160a01b03808d16928201929092528a82166060820152908916608082015260a08101889052600060c0820181905260e082018190526101008201819052610120820190815242602080830182905260409283019190915260008481526003808352908390208451815591840151600183015591830151600280830180546001600160a01b039384166001600160a01b0319918216179091556060860151948401805495841695821695909517909455608085015160048401805491909316941693909317905560a0830151600582015560c083015160068201805460e0860151610100808801511515620100000262ff00001992151590910261ff00199515159590951661ffff199093169290921793909317928316811782556101208601519394919263ff0000001990911663ffff00001990911617906301000000908490811115610fa557610fa56110fb565b021790555061014082015160078201556101609091015160089091015560008b81526004602090815260409182902083905581516001600160a01b038c811682528b8116928201929092529182018990528b16908c9083907fe0d69f9b24a1349fe7690358d89dff6378b886159621baf2438886e329f099189060600160405180910390a49a9950505050505050505050565b6000546001600160a01b031633146105675760405162461bcd60e51b815260206004820181905260248201527f4f776e61626c653a2063616c6c6572206973206e6f7420746865206f776e65726044820152606401610271565b600080546001600160a01b038381166001600160a01b0319831681178455604051919092169283917f8be0079c531659141344cd1fd0a4f28419497f9722a3daafe3b4186f6b6457e09190a35050565b6000602082840312156110f457600080fd5b5035919050565b634e487b7160e01b600052602160045260246000fd5b6003811061112f57634e487b7160e01b600052602160045260246000fd5b9052565b8c8152602081018c90526001600160a01b038b811660408301528a811660608301528916608082015260a0810188905286151560c082015285151560e0820152841515610100820152610180810161118f610120830186611111565b61014082019390935261016001529a9950505050505050505050565b600061018082019050825182526020830151602083015260408301516111dc60408401826001600160a01b03169052565b5060608301516111f760608401826001600160a01b03169052565b50608083015161121260808401826001600160a01b03169052565b5060a083015160a083015260c083015161123060c084018215159052565b5060e083015161124460e084018215159052565b50610100838101511515908301526101208084015161126582850182611111565b5050610140838101519083015261016092830151929091019190915290565b6001600160a01b038116811461099b57600080fd5b6000602082840312156112ab57600080fd5b81356112b681611284565b9392505050565b600080600080600060a086880312156112d557600080fd5b8535945060208601356112e781611284565b935060408601356112f781611284565b9250606086013561130781611284565b949793965091946080013592915050565b60208082526017908201527f436f6e747261637420646f6573206e6f74206578697374000000000000000000604082015260600190565b6020810161135d8284611111565b92915050565b60006020808352835180602085015260005b8181101561139157858101830151858201604001528201611375565b506000604082860101526040601f19601f8301168501019250505092915050565b6000602082840312156113c457600080fd5b8151600881106112b657600080fd5b6000602082840312156113e557600080fd5b81516112b681611284565b60006001820161141057634e487b7160e01b600052601160045260246000fd5b506001019056fea2646970667358221220d29279812448c4cf1d2ce2d4a2911edb1e496088419c8bf97444b538250e32e064736f6c63430008180033",
  "linkReferences": {},
  "deployedLinkReferences": {}
}