{
  "_format": "hh-sol-artifact-1",
  "contractName": "EContract",
  "sourceName": "contracts/EContract.sol",
  "abi": [
    {
      "inputs": [
        {
          "internalType": "address",
          "name": "_landRegistryAddress",
          "type": "address"
        }
      ],
      "stateMutability": "nonpayable",
      "type": "constructor"
    },
    {
      "anonymous": false,
      "inputs": [
        {
          "indexed": true,
          "internalType": "uint256",
          "name": "contractId",
          "type": "uint256"
        },
        {
          "indexed": true,
          "internalType": "uint256",
          "name": "tokenId",
          "type": "uint256"
        },
        {
          "indexed": true,
          "internalType": "address",
          "name": "seller",
          "type": "address"
        },
        {
          "indexed": false,
          "internalType": "address",
          "name": "buyer",
          "type": "address"
        },
        {
          "indexed": false,
          "internalType": "address",
          "name": "certifier",
          "type": "address"
        },
        {
          "indexed": false,
          "internalType": "uint256",
          "name": "price",
          "type": "uint256"
        }
      ],
      "name": "ContractCreated",
      "type": "event"
    },
    {
      "anonymous": false,
      "inputs": [
        {
          "indexed": true,
          "internalType": "uint256",
          "name": "contractId",
          "type": "uint256"
        },
        {
          "indexed": true,
          "internalType": "address",
          "name": "signer",
          "type": "address"
        },
        {
          "indexed": false,
          "internalType": "string",
          "name": "role",
          "type": "string"
        }
      ],
      "name": "ContractSigned",
      "type": "event"
    },
    {
      "anonymous": false,
      "inputs": [
        {
          "indexed": true,
          "internalType": "uint256",
          "name": "contractId",
          "type": "uint256"
        },
        {
          "indexed": false,
          "internalType": "enum EContract.ContractStatus",
          "name": "newStatus",
          "type": "uint8"
        }
      ],
      "name": "ContractStatusChanged",
      "type": "event"
    },
    {
      "anonymous": false,
      "inputs": [
        {
          "indexed": true,
          "internalType": "address",
          "name": "previousOwner",
          "type": "address"
        },
        {
          "indexed": true,
          "internalType": "address",
          "name": "newOwner",
          "type": "address"
        }
      ],
      "name": "OwnershipTransferred",
      "type": "event"
    },
    {
      "anonymous": false,
      "inputs": [
        {
          "indexed": true,
          "internalType": "uint256",
          "name": "contractId",
          "type": "uint256"
        },
        {
          "indexed": false,
          "internalType": "uint256",
          "name": "taxTNCN",
          "type": "uint256"
        },
        {
          "indexed": false,
          "internalType": "uint256",
          "name": "feePreBa",
          "type": "uint256"
        }
      ],
      "name": "TaxPaid",
      "type": "event"
    },
    {
      "anonymous": false,
      "inputs": [
        {
          "indexed": false,
          "internalType": "uint256",
          "name": "newTaxRateTNCN",
          "type": "uint256"
        },
        {
          "indexed": false,
          "internalType": "uint256",
          "name": "newFeeRatePreBa",
          "type": "uint256"
        }
      ],
      "name": "TaxRatesUpdated",
      "type": "event"
    },
    {
      "inputs": [
        {
          "internalType": "uint256",
          "name": "",
          "type": "uint256"
        }
      ],
      "name": "activeContractByToken",
      "outputs": [
        {
          "internalType": "uint256",
          "name": "",
          "type": "uint256"
        }
      ],
      "stateMutability": "view",
      "type": "function"
    },
    {
      "inputs": [
        {
          "internalType": "uint256",
          "name": "_contractId",
          "type": "uint256"
        }
      ],
      "name": "cancelContract",
      "outputs": [],
      "stateMutability": "nonpayable",
      "type": "function"
    },
    {
      "inputs": [],
      "name": "contractCount",
      "outputs": [
        {
          "internalType": "uint256",
          "name": "",
          "type": "uint256"
        }
      ],
      "stateMutability": "view",
      "type": "function"
    },
    {
      "inputs": [
        {
          "internalType": "uint256",
          "name": "",
          "type": "uint256"
        }
      ],
      "name": "contracts",
      "outputs": [
        {
          "internalType": "uint256",
          "name": "contractId",
          "type": "uint256"
        },
        {
          "internalType": "uint256",
          "name": "tokenId",
          "type": "uint256"
        },
        {
          "internalType": "address",
          "name": "seller",
          "type": "address"
        },
        {
          "internalType": "address",
          "name": "buyer",
          "type": "address"
        },
        {
          "internalType": "address",
          "name": "certifier",
          "type": "address"
        },
        {
          "internalType": "uint256",
          "name": "price",
          "type": "uint256"
        },
        {
          "internalType": "bool",
          "name": "sellerSigned",
          "type": "bool"
        },
        {
          "internalType": "bool",
          "name": "buyerSigned",
          "type": "bool"
        },
        {
          "internalType": "bool",
          "name": "certifierSigned",
          "type": "bool"
        },
        {
          "internalType": "enum EContract.ContractStatus",
          "name": "status",
          "type": "uint8"
        },
        {
          "internalType": "uint256",
          "name": "createdAt",
          "type": "uint256"
        },
        {
          "internalType": "uint256",
          "name": "updatedAt",
          "type": "uint256"
        },
        {
          "internalType": "uint256",
          "name": "taxTNCN",
          "type": "uint256"
        },
        {
          "internalType": "uint256",
          "name": "feePreBa",
          "type": "uint256"
        },
        {
          "internalType": "bool",
          "name": "isTaxPaid",
          "type": "bool"
        }
      ],
      "stateMutability": "view",
      "type": "function"
    },
    {
      "inputs": [
        {
          "internalType": "uint256",
          "name": "_tokenId",
          "type": "uint256"
        },
        {
          "internalType": "address",
          "name": "_seller",
          "type": "address"
        },
        {
          "internalType": "address",
          "name": "_buyer",
          "type": "address"
        },
        {
          "internalType": "address",
          "name": "_certifier",
          "type": "address"
        },
        {
          "internalType": "uint256",
          "name": "_price",
          "type": "uint256"
        }
      ],
      "name": "createContract",
      "outputs": [
        {
          "internalType": "uint256",
          "name": "",
          "type": "uint256"
        }
      ],
      "stateMutability": "nonpayable",
      "type": "function"
    },
    {
      "inputs": [],
      "name": "feeRatePreBa",
      "outputs": [
        {
          "internalType": "uint256",
          "name": "",
          "type": "uint256"
        }
      ],
      "stateMutability": "view",
      "type": "function"
    },
    {
      "inputs": [
        {
          "internalType": "uint256",
          "name": "_contractId",
          "type": "uint256"
        }
      ],
      "name": "getContract",
      "outputs": [
        {
          "components": [
            {
              "internalType": "uint256",
              "name": "contractId",
              "type": "uint256"
            },
            {
              "internalType": "uint256",
              "name": "tokenId",
              "type": "uint256"
            },
            {
              "internalType": "address",
              "name": "seller",
              "type": "address"
            },
            {
              "internalType": "address",
              "name": "buyer",
              "type": "address"
            },
            {
              "internalType": "address",
              "name": "certifier",
              "type": "address"
            },
            {
              "internalType": "uint256",
              "name": "price",
              "type": "uint256"
            },
            {
              "internalType": "bool",
              "name": "sellerSigned",
              "type": "bool"
            },
            {
              "internalType": "bool",
              "name": "buyerSigned",
              "type": "bool"
            },
            {
              "internalType": "bool",
              "name": "certifierSigned",
              "type": "bool"
            },
            {
              "internalType": "enum EContract.ContractStatus",
              "name": "status",
              "type": "uint8"
            },
            {
              "internalType": "uint256",
              "name": "createdAt",
              "type": "uint256"
            },
            {
              "internalType": "uint256",
              "name": "updatedAt",
              "type": "uint256"
            },
            {
              "internalType": "uint256",
              "name": "taxTNCN",
              "type": "uint256"
            },
            {
              "internalType": "uint256",
              "name": "feePreBa",
              "type": "uint256"
            },
            {
              "internalType": "bool",
              "name": "isTaxPaid",
              "type": "bool"
            }
          ],
          "internalType": "struct EContract.PurchaseContract",
          "name": "",
          "type": "tuple"
        }
      ],
      "stateMutability": "view",
      "type": "function"
    },
    {
      "inputs": [],
      "name": "landRegistryContract",
      "outputs": [
        {
          "internalType": "contract LandRegistry",
          "name": "",
          "type": "address"
        }
      ],
      "stateMutability": "view",
      "type": "function"
    },
    {
      "inputs": [],
      "name": "owner",
      "outputs": [
        {
          "internalType": "address",
          "name": "",
          "type": "address"
        }
      ],
      "stateMutability": "view",
      "type": "function"
    },
    {
      "inputs": [
        {
          "internalType": "uint256",
          "name": "_contractId",
          "type": "uint256"
        }
      ],
      "name": "payTax",
      "outputs": [],
      "stateMutability": "nonpayable",
      "type": "function"
    },
    {
      "inputs": [],
      "name": "renounceOwnership",
      "outputs": [],
      "stateMutability": "nonpayable",
      "type": "function"
    },
    {
      "inputs": [
        {
          "internalType": "uint256",
          "name": "_taxRateTNCN",
          "type": "uint256"
        },
        {
          "internalType": "uint256",
          "name": "_feeRatePreBa",
          "type": "uint256"
        }
      ],
      "name": "setTaxRates",
      "outputs": [],
      "stateMutability": "nonpayable",
      "type": "function"
    },
    {
      "inputs": [
        {
          "internalType": "uint256",
          "name": "_contractId",
          "type": "uint256"
        }
      ],
      "name": "signContract",
      "outputs": [],
      "stateMutability": "nonpayable",
      "type": "function"
    },
    {
      "inputs": [],
      "name": "taxRateTNCN",
      "outputs": [
        {
          "internalType": "uint256",
          "name": "",
          "type": "uint256"
        }
      ],
      "stateMutability": "view",
      "type": "function"
    },
    {
      "inputs": [
        {
          "internalType": "address",
          "name": "newOwner",
          "type": "address"
        }
      ],
      "name": "transferOwnership",
      "outputs": [],
      "stateMutability": "nonpayable",
      "type": "function"
    }
  ],
  "bytecode": "0x6080346100fd57601f61165f38819003918201601f19168301916001600160401b03831184841017610102578084926020946040528339810103126100fd57516001600160a01b03808216918290036100fd576000549060018060a01b0319913383821617600055604051913391167f8be0079c531659141344cd1fd0a4f28419497f9722a3daafe3b4186f6b6457e0600080a360c8600355603260045582156100bb5750600154161760015560405161154690816101198239f35b62461bcd60e51b815260206004820152601c60248201527f496e76616c6964204c616e6452656769737472792061646472657373000000006044820152606490fd5b600080fd5b634e487b7160e01b600052604160045260246000fdfe6080604052600436101561001257600080fd5b60003560e01c80632804745014611271578063474da79a1461117f5780635cb23e12146111285780635ffb0c2c1461110a57806361155775146110e15780636ebc8c8614610e95578063715018a614610e3c5780638736381a14610e1e57806389bb320b14610e005780638da5cb5b14610dd75780639537e8d114610a43578063a05aaf5014610922578063d4a0e03d146108f6578063f2fde38b1461082b5763f9972fc8146100c157600080fd5b346105ee5760a03660031901126105ee576024356001600160a01b03811681036105ee57604435906001600160a01b03821682036105ee57606435916001600160a01b03831683036105ee576001600160a01b038216156107ed576001600160a01b038116156107b0576001600160a01b0383161561076b576001600160a01b038281169082161461071b57608435156106d657600154604051630241aa1360e11b815260048035908201526001600160a01b0390911690602081602481855afa9081156105fb5760009161069b575b5060088110156104aa5760040361064a57602060049160405192838092632b359bc560e01b82525afa9081156105fb57600091610607575b506040516331a9108f60e11b8152600480359082015290602090829060249082906001600160a01b03165afa9081156105fb576000916105b4575b506001600160a01b0383811691160361055c576004356000526006602052604060002054806104d6575b506002549160001983146104c0576001830160025561271093846102566003546084356114a5565b04946102666004546084356114a5565b04604051956102748761144a565b600186018752600435602088015260018060a01b038416604088015260018060a01b038516606088015260018060a01b038316608088015260843560a0880152600060c0880152600060e08801526000610100880152600061012088015242610140880152426101608801526101808701526101a086015260006101c086015260018401600052600560205260406000209480518655602081015160018701556002860160018060a01b03604083015116906bffffffffffffffffffffffff60a01b91828254161790556003870160018060a01b0360608401511682825416179055600487019060018060a01b036080840151169082541617905560a0810151600587015561039860c08201511515600688019060ff801983541691151516179055565b60e0810151151595600681015462ff0000610100840151151560101b16926101208101519060038210156104aa5760209961043895600b9461ff0063ff0000006101c09660181b169360081b169063ffffff00191617171760068501556101408101516007850155610160810151600885015561018081015160098501556101a0810151600a8501550151151591019060ff801983541691151516179055565b600435600081815260068752604090819020600187019081905581516001600160a01b0396871681529386168489015260843591840191909152929093169291907fe0d69f9b24a1349fe7690358d89dff6378b886159621baf2438886e329f0991890606090a4600160405191018152f35b634e487b7160e01b600052602160045260246000fd5b634e487b7160e01b600052601160045260246000fd5b600052600560205260ff60066040600020015460181c1660038110156104aa5715610501573861022e565b60405162461bcd60e51b815260206004820152602d60248201527f41637469766520636f6e747261637420616c726561647920657869737473206660448201526c37b9103a3434b9903a37b5b2b760991b6064820152608490fd5b60405162461bcd60e51b815260206004820152602a60248201527f53656c6c6572206973206e6f7420746865206f776e6572206f662074686973206044820152693630b732103a37b5b2b760b11b6064820152608490fd5b90506020813d6020116105f3575b816105cf60209383611483565b810103126105ee57516001600160a01b03811681036105ee5738610204565b600080fd5b3d91506105c2565b6040513d6000823e3d90fd5b90506020813d602011610642575b8161062260209383611483565b810103126105ee57516001600160a01b03811681036105ee5760206101c9565b3d9150610615565b60405162461bcd60e51b8152602060048201526024808201527f4c616e64206d75737420626520696e2044414e475f4749414f5f4449434820736044820152637461746560e01b6064820152608490fd5b90506020813d6020116106ce575b816106b660209383611483565b810103126105ee575160088110156105ee5738610191565b3d91506106a9565b60405162461bcd60e51b815260206004820152601f60248201527f5072696365206d7573742062652067726561746572207468616e207a65726f006044820152606490fd5b60405162461bcd60e51b815260206004820152602260248201527f53656c6c657220616e64206275796572206d75737420626520646966666572656044820152611b9d60f21b6064820152608490fd5b60405162461bcd60e51b815260206004820152601960248201527f496e76616c6964206365727469666965722061646472657373000000000000006044820152606490fd5b60405162461bcd60e51b8152602060048201526015602482015274496e76616c6964206275796572206164647265737360581b6044820152606490fd5b60405162461bcd60e51b8152602060048201526016602482015275496e76616c69642073656c6c6572206164647265737360501b6044820152606490fd5b346105ee5760203660031901126105ee576004356001600160a01b03818116918290036105ee5761085a6114b8565b81156108a257600054826bffffffffffffffffffffffff60a01b821617600055167f8be0079c531659141344cd1fd0a4f28419497f9722a3daafe3b4186f6b6457e0600080a3005b60405162461bcd60e51b815260206004820152602660248201527f4f776e61626c653a206e6577206f776e657220697320746865207a65726f206160448201526564647265737360d01b6064820152608490fd5b346105ee5760203660031901126105ee5760043560005260066020526020604060002054604051908152f35b346105ee5760203660031901126105ee5760043561093e6114b8565b8060005260056020526040600020610958815415156113b2565b60ff600682015460181c1660038110156104aa57600214610a0657600b81019081549060ff82166109ce577f83a4fab6e20b39884c2ca65858ce98aac9fb88a8d6a9b7578a895dda1d2bc3f692600160409360ff1916179055426008820155600a600982015491015482519182526020820152a2005b60405162461bcd60e51b815260206004820152601060248201526f15185e08185b1c9958591e481c185a5960821b6044820152606490fd5b60405162461bcd60e51b815260206004820152601560248201527410dbdb9d1c9858dd081a5cc818d85b98d95b1b1959605a1b6044820152606490fd5b346105ee576020806003193601126105ee57600435908160005260058152604060002090610a73825415156113b2565b60068201805460ff93848260181c1660038110156104aa57610a9590156113fe565b600060405185810181811067ffffffffffffffff821117610dc1576040526000815260028301549093906001600160a01b03903390821603610c925750505090508154848116610c555760019060ff1916178255600190604051610af881611467565b600681526539b2b63632b960d11b85820152915b15610bf9576008429101558460405184815282519283868301528560005b858110610be1575050508060006040857f52ea4f03466ecb6e478b756f8a6e63e9a06048eec55443b64fbef66048d2e9bf940101526040813395601f80199101168101030190a38054928084169081610bd3575b81610bc6575b50610b8b57005b63010000007fdcba20243cece5ee0f3fd42c582f8201538d034183adfefbc2e6bf21de8fd3769363ff000000191617905560405160018152a2005b90508360101c1685610b84565b8091508460081c1690610b7e565b82810182015184820160400152899450879101610b2a565b60405162461bcd60e51b815260048101859052602e60248201527f53656e646572206973206e6f7420617574686f72697a656420746f207369676e60448201526d081d1a1a5cc818dbdb9d1c9858dd60921b6064820152608490fd5b60405162461bcd60e51b815260048101859052601560248201527414d95b1b195c88185b1c9958591e481cda59db9959605a1b6044820152606490fd5b806003850154163314600014610d215750505090508154848160081c16610ce55761ff00191661010017825560405160019190610cce81611467565b6005815264313abcb2b960d91b8582015291610b0c565b60405162461bcd60e51b8152600481018590526014602482015273109d5e595c88185b1c9958591e481cda59db995960621b6044820152606490fd5b6004840154163314610d34575b50610b0c565b8092935086915060101c16610d7c5762ff000019166201000017825560405160019190610d6081611467565b600981526831b2b93a34b334b2b960b91b858201529187610d2e565b60405162461bcd60e51b815260048101859052601860248201527f43657274696669657220616c7265616479207369676e656400000000000000006044820152606490fd5b634e487b7160e01b600052604160045260246000fd5b346105ee5760003660031901126105ee576000546040516001600160a01b039091168152602090f35b346105ee5760003660031901126105ee576020600354604051908152f35b346105ee5760003660031901126105ee576020600254604051908152f35b346105ee5760003660031901126105ee57610e556114b8565b600080546001600160a01b0319811682556001600160a01b03167f8be0079c531659141344cd1fd0a4f28419497f9722a3daafe3b4186f6b6457e08280a3005b346105ee5760203660031901126105ee5760043560006101c0604051610eba8161144a565b8281528260208201528260408201528260608201528260808201528260a08201528260c08201528260e08201528261010082015282610120820152826101408201528261016082015282610180820152826101a08201520152806000526005602052610f2c60406000205415156113b2565b60005260056020526040600020604051610f458161144a565b815481526001820154602082015260028201546001600160a01b0390811660408301526003808401548216606084015260048401549091166080830152600583015460a0830152600683015460ff808216151560c0850152600882901c8116151560e0850152601082901c81161515610100850152909391601885901c90911610156104aa57600b60ff91826101e09560181c16610120850152600781015461014085015260088101546101608501526009810154610180850152600a8101546101a085015201541615156101c08201526101c060405191805183526020810151602084015260018060a01b03604082015116604084015260018060a01b03606082015116606084015260018060a01b03608082015116608084015260a081015160a084015260c0810151151560c084015260e0810151151560e084015261010081015115156101008401526110a56101208201516101208501906113a5565b6101408101516101408401526101608101516101608401526101808101516101808401526101a08101516101a0840152015115156101c0820152f35b346105ee5760003660031901126105ee576001546040516001600160a01b039091168152602090f35b346105ee5760003660031901126105ee576020600454604051908152f35b346105ee5760403660031901126105ee577f8af72bce83e770654b24f833792771b0c5ecd95a31e17a43d11475b9f0c96aba604060043560243561116a6114b8565b816003558060045582519182526020820152a1005b346105ee5760203660031901126105ee5760043560005260056020526101e0604060002080549060018101549060018060a01b038060028301541690806003840154169060048401541661124f600585015460068601549060078701549360088801549560098901549760ff600b600a8c01549b0154169a6040519c8d5260208d015260408c015260608b015260808a015260a089015260ff8116151560c089015260ff8160081c16151560e089015260ff8160101c16151561010089015260ff61012089019160181c166113a5565b6101408601526101608501526101808401526101a083015215156101c0820152f35b346105ee5760203660031901126105ee57600435806000526005602052604060002061129f815415156113b2565b60068101805460ff8160181c1660038110156104aa576112bf90156113fe565b6002830154336001600160a01b0391821614908115611394575b8115611383575b8115611375575b50156113305763020000009063ff00000019161790556008429101557fdcba20243cece5ee0f3fd42c582f8201538d034183adfefbc2e6bf21de8fd376602060405160028152a2005b60405162461bcd60e51b815260206004820152601860248201527f4e6f7420617574686f72697a656420746f2063616e63656c00000000000000006044820152606490fd5b9050600054163314856112e7565b8091506004850154163314906112e0565b8091506003850154163314906112d9565b9060038210156104aa5752565b156113b957565b60405162461bcd60e51b815260206004820152601760248201527f436f6e747261637420646f6573206e6f742065786973740000000000000000006044820152606490fd5b1561140557565b60405162461bcd60e51b815260206004820152601760248201527f436f6e7472616374206973206e6f742070656e64696e670000000000000000006044820152606490fd5b6101e0810190811067ffffffffffffffff821117610dc157604052565b6040810190811067ffffffffffffffff821117610dc157604052565b90601f8019910116810190811067ffffffffffffffff821117610dc157604052565b818102929181159184041417156104c057565b6000546001600160a01b031633036114cc57565b606460405162461bcd60e51b815260206004820152602060248201527f4f776e61626c653a2063616c6c6572206973206e6f7420746865206f776e65726044820152fdfea26469706673582212200efb9653e85db5abc6f9efdd264c3666d63fc63473355b6fa399cfcd7999d7be64736f6c63430008180033",
  "linkReferences": {},
  "deployedLinkReferences": {}
}