{
  "_format": "hh-sol-artifact-1",
  "contractName": "PlanningRegistry",
  "sourceName": "contracts/PlanningRegistry.sol",
  "abi": [
    {
      "anonymous": false,
      "inputs": [
        {
          "indexed": true,
          "internalType": "address",
          "name": "previousOwner",
          "type": "address"
        },
        {
          "indexed": true,
          "internalType": "address",
          "name": "newOwner",
          "type": "address"
        }
      ],
      "name": "OwnershipTransferred",
      "type": "event"
    },
    {
      "anonymous": false,
      "inputs": [
        {
          "indexed": true,
          "internalType": "uint256",
          "name": "tokenId",
          "type": "uint256"
        },
        {
          "indexed": true,
          "internalType": "uint256",
          "name": "zoneId",
          "type": "uint256"
        }
      ],
      "name": "TokenAssignedToZone",
      "type": "event"
    },
    {
      "anonymous": false,
      "inputs": [
        {
          "indexed": true,
          "internalType": "uint256",
          "name": "zoneId",
          "type": "uint256"
        },
        {
          "indexed": false,
          "internalType": "string",
          "name": "name",
          "type": "string"
        },
        {
          "indexed": false,
          "internalType": "enum PlanningRegistry.ZoneStatus",
          "name": "status",
          "type": "uint8"
        }
      ],
      "name": "ZoneAdded",
      "type": "event"
    },
    {
      "anonymous": false,
      "inputs": [
        {
          "indexed": true,
          "internalType": "uint256",
          "name": "zoneId",
          "type": "uint256"
        },
        {
          "indexed": false,
          "internalType": "enum PlanningRegistry.ZoneStatus",
          "name": "oldStatus",
          "type": "uint8"
        },
        {
          "indexed": false,
          "internalType": "enum PlanningRegistry.ZoneStatus",
          "name": "newStatus",
          "type": "uint8"
        }
      ],
      "name": "ZoneStatusChanged",
      "type": "event"
    },
    {
      "inputs": [
        {
          "internalType": "uint256",
          "name": "zoneId",
          "type": "uint256"
        },
        {
          "internalType": "string",
          "name": "name",
          "type": "string"
        },
        {
          "internalType": "enum PlanningRegistry.ZoneStatus",
          "name": "status",
          "type": "uint8"
        }
      ],
      "name": "addZone",
      "outputs": [],
      "stateMutability": "nonpayable",
      "type": "function"
    },
    {
      "inputs": [
        {
          "internalType": "uint256",
          "name": "tokenId",
          "type": "uint256"
        },
        {
          "internalType": "uint256",
          "name": "zoneId",
          "type": "uint256"
        }
      ],
      "name": "assignTokenToZone",
      "outputs": [],
      "stateMutability": "nonpayable",
      "type": "function"
    },
    {
      "inputs": [
        {
          "internalType": "uint256",
          "name": "tokenId",
          "type": "uint256"
        }
      ],
      "name": "getTokenZone",
      "outputs": [
        {
          "internalType": "uint256",
          "name": "",
          "type": "uint256"
        }
      ],
      "stateMutability": "view",
      "type": "function"
    },
    {
      "inputs": [
        {
          "internalType": "uint256",
          "name": "tokenId",
          "type": "uint256"
        }
      ],
      "name": "isTokenInDanger",
      "outputs": [
        {
          "internalType": "bool",
          "name": "",
          "type": "bool"
        }
      ],
      "stateMutability": "view",
      "type": "function"
    },
    {
      "inputs": [],
      "name": "owner",
      "outputs": [
        {
          "internalType": "address",
          "name": "",
          "type": "address"
        }
      ],
      "stateMutability": "view",
      "type": "function"
    },
    {
      "inputs": [],
      "name": "renounceOwnership",
      "outputs": [],
      "stateMutability": "nonpayable",
      "type": "function"
    },
    {
      "inputs": [
        {
          "internalType": "uint256",
          "name": "zoneId",
          "type": "uint256"
        },
        {
          "internalType": "enum PlanningRegistry.ZoneStatus",
          "name": "status",
          "type": "uint8"
        }
      ],
      "name": "setZoneStatus",
      "outputs": [],
      "stateMutability": "nonpayable",
      "type": "function"
    },
    {
      "inputs": [
        {
          "internalType": "uint256",
          "name": "",
          "type": "uint256"
        }
      ],
      "name": "tokenZone",
      "outputs": [
        {
          "internalType": "uint256",
          "name": "",
          "type": "uint256"
        }
      ],
      "stateMutability": "view",
      "type": "function"
    },
    {
      "inputs": [
        {
          "internalType": "address",
          "name": "newOwner",
          "type": "address"
        }
      ],
      "name": "transferOwnership",
      "outputs": [],
      "stateMutability": "nonpayable",
      "type": "function"
    },
    {
      "inputs": [
        {
          "internalType": "uint256",
          "name": "",
          "type": "uint256"
        }
      ],
      "name": "zones",
      "outputs": [
        {
          "internalType": "uint256",
          "name": "id",
          "type": "uint256"
        },
        {
          "internalType": "string",
          "name": "name",
          "type": "string"
        },
        {
          "internalType": "enum PlanningRegistry.ZoneStatus",
          "name": "status",
          "type": "uint8"
        },
        {
          "internalType": "uint256",
          "name": "createdAt",
          "type": "uint256"
        }
      ],
      "stateMutability": "view",
      "type": "function"
    }
  ],
  "bytecode": "0x6080806040523461005b5760008054336001600160a01b0319821681178355916001600160a01b03909116907f8be0079c531659141344cd1fd0a4f28419497f9722a3daafe3b4186f6b6457e09080a361096890816100618239f35b600080fdfe6080604052600436101561001257600080fd5b60003560e01c80630a87ef6714610778578063133396321461063457806335820fc4146105af578063715018a6146105db5780637db9b901146105af57806388cd777d146105405780638da5cb5b14610517578063a5f4bb65146101fa578063e5fce68d1461015a5763f2fde38b1461008a57600080fd5b34610155576020366003190112610155576004356001600160a01b0381811691829003610155576100b96108da565b811561010157600054826bffffffffffffffffffffffff60a01b821617600055167f8be0079c531659141344cd1fd0a4f28419497f9722a3daafe3b4186f6b6457e0600080a3005b60405162461bcd60e51b815260206004820152602660248201527f4f776e61626c653a206e6577206f776e657220697320746865207a65726f206160448201526564647265737360d01b6064820152608490fd5b600080fd5b346101555760403660031901126101555760043560243560038110156101555760407f04d9604f7869b647300aa2a25d1f49fa7c10997f4cf961b9c562bc0fd20fd674916101a66108da565b8360005260016020526101be82600020541515610885565b8360005260016020526101f760028360002001916101e18160ff855416946108c2565b6101ed84518094610812565b6020830190610812565ba2005b34610155576060366003190112610155576024803567ffffffffffffffff91828211610155573660238301121561015557828260040135116101555736818360040135840101116101555760036044351015610155576102586108da565b60043560005260016020526040600020546104dd576040519260808401848110828211176104c8576040526004358452604051906102a46020601f19601f8760040135011601836107da565b60048401358083528385016020840137600060208560040135840101526020850191825260443560408601524260608601526004356000526001602052604060002091855183555180519182116104b357819061030460018501546107a0565b601f8111610460575b50602090601f83116001146103f3576000926103e8575b50508160011b916000199060031b1c19161760018201555b604084015160038110156103d35760607f95ff4ebdc8430525866f3e639277a48bd3df8c3ed0b3c728ec6000247a109aa4949561037e600393600286016108c2565b01519101556040805181815260048501359181018290529184016060830137600060608460040135830101526103b960208201604435610812565b60048035930135601f01601f1916810181900360600190a2005b82634e487b7160e01b60005260216004526000fd5b015190508680610324565b600185016000908152602081209350601f198516905b818110610448575090846001959493921061042f575b505050811b01600182015561033c565b015160001960f88460031b161c1916905586808061041f565b92936020600181928786015181550195019301610409565b909150600184016000526020600020601f840160051c8101602085106104ac575b90849392915b601f830160051c8201811061049d57505061030d565b60008155859450600101610487565b5080610481565b83634e487b7160e01b60005260416004526000fd5b82634e487b7160e01b60005260416004526000fd5b60649060136040519162461bcd60e51b835260206004840152820152725a6f6e6520616c72656164792065786973747360681b6044820152fd5b34610155576000366003190112610155576000546040516001600160a01b039091168152602090f35b346101555760403660031901126101555760243560043561055f6108da565b8160005260016020526105786040600020541515610885565b806000526002602052816040600020557f33081169d910cb7bfa1f36a4f75ea18be15e7360a245824c389fa46be99feda9600080a3005b346101555760203660031901126101555760043560005260026020526020604060002054604051908152f35b34610155576000366003190112610155576105f46108da565b600080546001600160a01b0319811682556001600160a01b03167f8be0079c531659141344cd1fd0a4f28419497f9722a3daafe3b4186f6b6457e08280a3005b3461015557602080600319360112610155576004356000526001808252604060002091825492600181016040518094600090835493610672856107a0565b9485855287600182169182600014610756575050600114610717575b50506106a092509593929503846107da565b600360ff60028601541694015460405194859384526080838501528451928360808601526000955b8487106106fe57505060a094506106eb9060008685870101526040850190610812565b6060830152601f01601f19168101030190f35b86810182015188880160a00152958101958795506106c8565b86925060005281600020906000915b85831061073e5750506106a09350820101878061068e565b8054838a018501528894508793909201918101610726565b92509350506106a094915060ff191682840152151560051b820101878061068e565b34610155576020366003190112610155576020610796600435610835565b6040519015158152f35b90600182811c921680156107d0575b60208310146107ba57565b634e487b7160e01b600052602260045260246000fd5b91607f16916107af565b90601f8019910116810190811067ffffffffffffffff8211176107fc57604052565b634e487b7160e01b600052604160045260246000fd5b90600382101561081f5752565b634e487b7160e01b600052602160045260246000fd5b6000908152600260205260408120548015610881578152600160205260ff60026040832001541690600382101561086d575060021490565b634e487b7160e01b81526021600452602490fd5b5090565b1561088c57565b60405162461bcd60e51b815260206004820152600e60248201526d169bdb99481b9bdd08199bdd5b9960921b6044820152606490fd5b90600381101561081f5760ff80198354169116179055565b6000546001600160a01b031633036108ee57565b606460405162461bcd60e51b815260206004820152602060248201527f4f776e61626c653a2063616c6c6572206973206e6f7420746865206f776e65726044820152fdfea26469706673582212206f329d79a7b2d2d392fcfbb99a63c9a10746bc2f742c1daf85be043737093fca64736f6c63430008180033",
  "linkReferences": {},
  "deployedLinkReferences": {}
}