{
  "_format": "hh-sol-artifact-1",
  "contractName": "LandRegistry",
  "sourceName": "contracts/LandRegistry.sol",
  "abi": [
    {
      "inputs": [
        {
          "internalType": "address",
          "name": "_landNFTAddress",
          "type": "address"
        }
      ],
      "stateMutability": "nonpayable",
      "type": "constructor"
    },
    {
      "anonymous": false,
      "inputs": [
        {
          "indexed": true,
          "internalType": "uint256",
          "name": "tokenId",
          "type": "uint256"
        },
        {
          "indexed": true,
          "internalType": "address",
          "name": "owner",
          "type": "address"
        },
        {
          "indexed": false,
          "internalType": "string",
          "name": "tokenURI",
          "type": "string"
        }
      ],
      "name": "LandCreated",
      "type": "event"
    },
    {
      "anonymous": false,
      "inputs": [
        {
          "indexed": true,
          "internalType": "uint256",
          "name": "tokenId",
          "type": "uint256"
        },
        {
          "indexed": false,
          "internalType": "enum LandRegistry.LandStatus",
          "name": "oldStatus",
          "type": "uint8"
        },
        {
          "indexed": false,
          "internalType": "enum LandRegistry.LandStatus",
          "name": "newStatus",
          "type": "uint8"
        }
      ],
      "name": "LandStatusChanged",
      "type": "event"
    },
    {
      "anonymous": false,
      "inputs": [
        {
          "indexed": true,
          "internalType": "address",
          "name": "previousOwner",
          "type": "address"
        },
        {
          "indexed": true,
          "internalType": "address",
          "name": "newOwner",
          "type": "address"
        }
      ],
      "name": "OwnershipTransferred",
      "type": "event"
    },
    {
      "anonymous": false,
      "inputs": [
        {
          "indexed": false,
          "internalType": "address",
          "name": "account",
          "type": "address"
        }
      ],
      "name": "Paused",
      "type": "event"
    },
    {
      "anonymous": false,
      "inputs": [
        {
          "indexed": false,
          "internalType": "address",
          "name": "account",
          "type": "address"
        }
      ],
      "name": "Unpaused",
      "type": "event"
    },
    {
      "inputs": [
        {
          "internalType": "uint256",
          "name": "tokenId",
          "type": "uint256"
        }
      ],
      "name": "approveLand",
      "outputs": [],
      "stateMutability": "nonpayable",
      "type": "function"
    },
    {
      "inputs": [
        {
          "internalType": "uint256",
          "name": "tokenId",
          "type": "uint256"
        }
      ],
      "name": "canTransact",
      "outputs": [
        {
          "internalType": "bool",
          "name": "",
          "type": "bool"
        }
      ],
      "stateMutability": "view",
      "type": "function"
    },
    {
      "inputs": [
        {
          "internalType": "uint256",
          "name": "tokenId",
          "type": "uint256"
        }
      ],
      "name": "cancelTransaction",
      "outputs": [],
      "stateMutability": "nonpayable",
      "type": "function"
    },
    {
      "inputs": [
        {
          "internalType": "uint256",
          "name": "tokenId",
          "type": "uint256"
        }
      ],
      "name": "completeTransfer",
      "outputs": [],
      "stateMutability": "nonpayable",
      "type": "function"
    },
    {
      "inputs": [
        {
          "internalType": "address",
          "name": "to",
          "type": "address"
        },
        {
          "internalType": "string",
          "name": "tokenURI",
          "type": "string"
        }
      ],
      "name": "createLandRecord",
      "outputs": [
        {
          "internalType": "uint256",
          "name": "",
          "type": "uint256"
        }
      ],
      "stateMutability": "nonpayable",
      "type": "function"
    },
    {
      "inputs": [
        {
          "internalType": "uint256",
          "name": "tokenId",
          "type": "uint256"
        }
      ],
      "name": "getLandMetadata",
      "outputs": [
        {
          "internalType": "string",
          "name": "",
          "type": "string"
        }
      ],
      "stateMutability": "view",
      "type": "function"
    },
    {
      "inputs": [
        {
          "internalType": "uint256",
          "name": "tokenId",
          "type": "uint256"
        }
      ],
      "name": "getLandStatus",
      "outputs": [
        {
          "internalType": "enum LandRegistry.LandStatus",
          "name": "",
          "type": "uint8"
        }
      ],
      "stateMutability": "view",
      "type": "function"
    },
    {
      "inputs": [
        {
          "internalType": "uint256",
          "name": "tokenId",
          "type": "uint256"
        }
      ],
      "name": "isBlocked",
      "outputs": [
        {
          "internalType": "bool",
          "name": "",
          "type": "bool"
        }
      ],
      "stateMutability": "view",
      "type": "function"
    },
    {
      "inputs": [],
      "name": "landNFTContract",
      "outputs": [
        {
          "internalType": "contract LandNFT",
          "name": "",
          "type": "address"
        }
      ],
      "stateMutability": "view",
      "type": "function"
    },
    {
      "inputs": [
        {
          "internalType": "uint256",
          "name": "",
          "type": "uint256"
        }
      ],
      "name": "lands",
      "outputs": [
        {
          "internalType": "uint256",
          "name": "tokenId",
          "type": "uint256"
        },
        {
          "internalType": "enum LandRegistry.LandStatus",
          "name": "status",
          "type": "uint8"
        },
        {
          "internalType": "string",
          "name": "rejectReason",
          "type": "string"
        },
        {
          "internalType": "string",
          "name": "metadataUri",
          "type": "string"
        },
        {
          "internalType": "uint256",
          "name": "createdAt",
          "type": "uint256"
        },
        {
          "internalType": "uint256",
          "name": "updatedAt",
          "type": "uint256"
        }
      ],
      "stateMutability": "view",
      "type": "function"
    },
    {
      "inputs": [
        {
          "internalType": "uint256",
          "name": "tokenId",
          "type": "uint256"
        }
      ],
      "name": "mortgage",
      "outputs": [],
      "stateMutability": "nonpayable",
      "type": "function"
    },
    {
      "inputs": [],
      "name": "owner",
      "outputs": [
        {
          "internalType": "address",
          "name": "",
          "type": "address"
        }
      ],
      "stateMutability": "view",
      "type": "function"
    },
    {
      "inputs": [],
      "name": "pause",
      "outputs": [],
      "stateMutability": "nonpayable",
      "type": "function"
    },
    {
      "inputs": [],
      "name": "paused",
      "outputs": [
        {
          "internalType": "bool",
          "name": "",
          "type": "bool"
        }
      ],
      "stateMutability": "view",
      "type": "function"
    },
    {
      "inputs": [
        {
          "internalType": "uint256",
          "name": "tokenId",
          "type": "uint256"
        }
      ],
      "name": "raiseDispute",
      "outputs": [],
      "stateMutability": "nonpayable",
      "type": "function"
    },
    {
      "inputs": [
        {
          "internalType": "uint256",
          "name": "tokenId",
          "type": "uint256"
        },
        {
          "internalType": "string",
          "name": "reason",
          "type": "string"
        }
      ],
      "name": "rejectLand",
      "outputs": [],
      "stateMutability": "nonpayable",
      "type": "function"
    },
    {
      "inputs": [
        {
          "internalType": "uint256",
          "name": "tokenId",
          "type": "uint256"
        }
      ],
      "name": "releaseMortgage",
      "outputs": [],
      "stateMutability": "nonpayable",
      "type": "function"
    },
    {
      "inputs": [],
      "name": "renounceOwnership",
      "outputs": [],
      "stateMutability": "nonpayable",
      "type": "function"
    },
    {
      "inputs": [
        {
          "internalType": "uint256",
          "name": "tokenId",
          "type": "uint256"
        }
      ],
      "name": "resolveDispute",
      "outputs": [],
      "stateMutability": "nonpayable",
      "type": "function"
    },
    {
      "inputs": [
        {
          "internalType": "uint256",
          "name": "tokenId",
          "type": "uint256"
        }
      ],
      "name": "startTransaction",
      "outputs": [],
      "stateMutability": "nonpayable",
      "type": "function"
    },
    {
      "inputs": [
        {
          "internalType": "uint256",
          "name": "tokenId",
          "type": "uint256"
        }
      ],
      "name": "submitForApproval",
      "outputs": [],
      "stateMutability": "nonpayable",
      "type": "function"
    },
    {
      "inputs": [
        {
          "internalType": "address",
          "name": "newOwner",
          "type": "address"
        }
      ],
      "name": "transferOwnership",
      "outputs": [],
      "stateMutability": "nonpayable",
      "type": "function"
    },
    {
      "inputs": [],
      "name": "unpause",
      "outputs": [],
      "stateMutability": "nonpayable",
      "type": "function"
    }
  ],
  "bytecode": "0x6080346100b957601f61168038819003918201601f19168301916001600160401b038311848410176100be578084926020946040528339810103126100b957516001600160a01b0390818116908190036100b95760005460405192339082167f8be0079c531659141344cd1fd0a4f28419497f9722a3daafe3b4186f6b6457e0600080a36001600160a81b0319163360ff60a01b191617600055600180546001600160a01b0319169190911790556115ab90816100d58239f35b600080fd5b634e487b7160e01b600052604160045260246000fdfe6080604052600436101561001257600080fd5b60003560e01c806304835426146111215780631be3175e1461107b5780632b359bc5146110525780632cb0aa3114610f6f5780633380c0d814610f1457806338c887b214610eb45780633f4ba83a14610e185780634b45ca8f14610d785780635912239314610b985780635c975abb14610b72578063619c83ed14610acc57806367bdb2a114610a845780636c2a4ed214610a34578063715018a6146109db5780638456cb59146109795780638da5cb5b14610950578063a5c1674e146108aa578063ab5d24751461043c578063b0aa98c7146103dd578063c2b7b8681461033b578063e261f1e5146102a3578063f2fde38b146101da5763f6f845081461011957600080fd5b346101d55760203660031901126101d557600435610135611467565b61013d6114bf565b61014681611417565b80600052600260205260ff6001604060002001541660088110156101bf57600261017091146112dd565b806000526002602052600080516020611556833981519152604060ff6101b5826000206001810190815491600485198416179055600542910155835192839116611163565b60046020820152a2005b634e487b7160e01b600052602160045260246000fd5b600080fd5b346101d55760203660031901126101d5576101f36111b0565b6101fb611467565b6001600160a01b0390811690811561024f57600054826bffffffffffffffffffffffff60a01b821617600055167f8be0079c531659141344cd1fd0a4f28419497f9722a3daafe3b4186f6b6457e0600080a3005b60405162461bcd60e51b815260206004820152602660248201527f4f776e61626c653a206e6577206f776e657220697320746865207a65726f206160448201526564647265737360d01b6064820152608490fd5b346101d55760203660031901126101d55760043560005260026020526040600020805460ff600183015416916102db60028201611238565b61032c6102ea60038401611238565b61031e600560048601549501549361030d60405198899889526020890190611163565b60c0604088015260c0870190611170565b908582036060870152611170565b91608084015260a08301520390f35b346101d55760203660031901126101d557600435610357611467565b61035f6114bf565b61036881611417565b80600052600260205260ff6001604060002001541660088110156101bf576007036103985761039690611506565b005b60405162461bcd60e51b815260206004820152601b60248201527f4d75737420626520696e205452414e485f4348415020737461746500000000006044820152606490fd5b346101d55760203660031901126101d5576004356103fa81611417565b600052600260205260ff6001604060002001541660088110156101bf5780600760209214908115610431575b506040519015158152f35b600691501482610426565b346101d55760403660031901126101d5576104556111b0565b602490813567ffffffffffffffff81116101d557366023820112156101d557806004013567ffffffffffffffff811161089557604051916104a0601f8301601f1916602001846111c6565b818352368583830101116101d55781600092866020930183860137830101526104c7611467565b6104cf6114bf565b60018060a01b03928360015416926020604051809563c233557b60e01b825287841660048301526040858301528160008161050d604482018a611170565b03925af193841561088957600094610855575b506040519160c0830183811067ffffffffffffffff821117610840576040528483526020830190600082526040516020810181811067ffffffffffffffff8211176108165760405260008152604085019081528560608601524260808601524260a086015286600052600260205260406000209285518455600184019051600881101561082b5760ff801983541691161790555180519067ffffffffffffffff8211610816576105e0826105d760028701546111fe565b600287016113c1565b602090601f83116001146107a457610611929160009183610799575b50508160011b916000199060031b1c19161790565b60028301555b606084015180519167ffffffffffffffff8311610785575091816020989361065189969461064860038601546111fe565b600386016113c1565b8990601f83116001146106ea57966106a88360059460a0947faf3b58634809a189c48e8dc732039c10ddc6022ea3b353f0317bbb7adcb308ed9a9b6000926106df5750508160011b916000199060031b1c19161790565b60038501555b6080810151600485015501519101556106d4604051928392898452169588830190611170565b0390a3604051908152f35b015190508e806105fc565b60038498939298016000528a6000209060005b601f198416811061076b575082600594927faf3b58634809a189c48e8dc732039c10ddc6022ea3b353f0317bbb7adcb308ed999a60019360a096601f19811610610752575b505050811b0160038501556106ae565b015160001960f88460031b161c191690558d8080610742565b818a01518355988c01988b98506001909201918c016106fd565b634e487b7160e01b60009081526041600452fd5b015190508a806105fc565b9190600285016000526020600020906000935b601f19841685106107fb576001945083601f198116106107e2575b505050811b016002830155610617565b015160001960f88460031b161c191690558980806107d2565b818101518355602094850194600190930192909101906107b7565b82634e487b7160e01b60005260416004526000fd5b83634e487b7160e01b60005260216004526000fd5b50634e487b7160e01b60009081526041600452fd5b9093506020813d602011610881575b81610871602093836111c6565b810103126101d557519285610520565b3d9150610864565b6040513d6000823e3d90fd5b83634e487b7160e01b60005260416004526000fd5b346101d55760203660031901126101d5576004356108c6611467565b6108ce6114bf565b6108d781611417565b80600052600260205260ff6001604060002001541660088110156101bf57600261090191146112dd565b806000526002602052600080516020611556833981519152604060ff610946826000206001810190815491600785198416179055600542910155835192839116611163565b60076020820152a2005b346101d55760003660031901126101d5576000546040516001600160a01b039091168152602090f35b346101d55760003660031901126101d557610992611467565b61099a6114bf565b6000805460ff60a01b1916600160a01b1790556040513381527f62e78cea01bee320cd4e420270b5ea74000d11b0c9f74754ebdbfc544b05a25890602090a1005b346101d55760003660031901126101d5576109f4611467565b600080546001600160a01b0319811682556001600160a01b03167f8be0079c531659141344cd1fd0a4f28419497f9722a3daafe3b4186f6b6457e08280a3005b346101d55760203660031901126101d557600435610a5181611417565b6000526002602052610a80610a6c6003604060002001611238565b604051918291602083526020830190611170565b0390f35b346101d55760203660031901126101d557600435610aa181611417565b600052600260205260ff6001604060002001541660088110156101bf57602090600260405191148152f35b346101d55760203660031901126101d557600435610ae8611467565b610af06114bf565b610af981611417565b80600052600260205260ff6001604060002001541660088110156101bf576004610b239114611329565b806000526002602052600080516020611556833981519152604060ff610b68826000206001810190815491600585198416179055600542910155835192839116611163565b60056020820152a2005b346101d55760003660031901126101d557602060ff60005460a01c166040519015158152f35b346101d55760403660031901126101d55760043567ffffffffffffffff602480358281116101d557366023820112156101d55780600401359283116101d557368284830101116101d557610bea611467565b610bf26114bf565b610bfb84611417565b836000526020926002845260019260ff8460406000200154166008811015610d635784610c289114611375565b8560005260028552600260406000200192610c4d83610c4786546111fe565b866113c1565b600090601f8411600114610cde579460ff94610c9c856003966000805160206115568339815191529a96610ccb9660409b600093610cd1575b5050508160011b916000199060031b1c19161790565b90555b876000526002835285600020908101908154918587198416179055600542910155855194859116611163565b820152a2005b01013590508c8080610c86565b9091601f1984169285600052876000209360005b818110610d4c575096856000805160206115568339815191529995610ccb95839560ff9a9560039a60409d10610d31575b50505050811b019055610c9f565b60001960f8868d1b161c19920101351690558b808080610d23565b848301840135865594880194918901918901610cf2565b50634e487b7160e01b60009081526021600452fd5b346101d55760203660031901126101d557600435610d94611467565b610d9c6114bf565b610da581611417565b80600052600260205260ff6001604060002001541660088110156101bf57600603610dd35761039690611506565b60405162461bcd60e51b815260206004820152601960248201527f4d75737420626520696e205448455f43484150207374617465000000000000006044820152606490fd5b346101d55760003660031901126101d557610e31611467565b60005460ff8160a01c1615610e785760ff60a01b19166000556040513381527f5db9ee0a495bf2e6ff9c91a7834c1ba4fdd244a5e8aa4e537bd38aeae4b073aa90602090a1005b60405162461bcd60e51b815260206004820152601460248201527314185d5cd8589b194e881b9bdd081c185d5cd95960621b6044820152606490fd5b346101d55760203660031901126101d557600435610ed0611467565b610ed86114bf565b610ee181611417565b80600052600260205260ff600160406000200154169060088210156101bf57610f0f60016103969314611375565b611506565b346101d55760203660031901126101d557600435610f30611467565b610f386114bf565b610f4181611417565b80600052600260205260ff600160406000200154169060088210156101bf57610f0f60046103969314611329565b346101d55760203660031901126101d557600435610f8b611467565b610f936114bf565b610f9c81611417565b80600052600260205260ff6001604060002001541660088110156101bf5761100d57806000526002602052600080516020611556833981519152604060ff611003826000206001810190815491600185198416179055600542910155835192839116611163565b60016020820152a2005b60405162461bcd60e51b815260206004820152601960248201527f4d75737420626520696e204b484f495f54414f207374617465000000000000006044820152606490fd5b346101d55760003660031901126101d5576001546040516001600160a01b039091168152602090f35b346101d55760203660031901126101d557600435611097611467565b61109f6114bf565b6110a881611417565b80600052600260205260ff6001604060002001541660088110156101bf5760026110d291146112dd565b806000526002602052600080516020611556833981519152604060ff611117826000206001810190815491600685198416179055600542910155835192839116611163565b60066020820152a2005b346101d55760203660031901126101d55760043561113e81611417565b6000526002602052602060ff600160406000200154166111616040518092611163565bf35b9060088210156101bf5752565b919082519283825260005b84811061119c575050826000602080949584010152601f8019910116010190565b60208183018101518483018201520161117b565b600435906001600160a01b03821682036101d557565b90601f8019910116810190811067ffffffffffffffff8211176111e857604052565b634e487b7160e01b600052604160045260246000fd5b90600182811c9216801561122e575b602083101461121857565b634e487b7160e01b600052602260045260246000fd5b91607f169161120d565b9060405191826000825461124b816111fe565b908184526020946001916001811690816000146112bb575060011461127c575b50505061127a925003836111c6565b565b600090815285812095935091905b8183106112a357505061127a935082010138808061126b565b8554888401850152948501948794509183019161128a565b9250505061127a94925060ff191682840152151560051b82010138808061126b565b156112e457565b60405162461bcd60e51b815260206004820152601a60248201527f4d75737420626520696e2044415f4341505f534f2073746174650000000000006044820152606490fd5b1561133057565b60405162461bcd60e51b815260206004820152601f60248201527f4d75737420626520696e2044414e475f4749414f5f44494348207374617465006044820152606490fd5b1561137c57565b60405162461bcd60e51b815260206004820152601a60248201527f4d75737420626520696e2043484f5f44555945542073746174650000000000006044820152606490fd5b90601f81116113cf57505050565b6000916000526020600020906020601f850160051c8301941061140d575b601f0160051c01915b82811061140257505050565b8181556001016113f6565b90925082906113ed565b60005260026020526040600020541561142c57565b60405162461bcd60e51b815260206004820152601360248201527213185b99081b9bdd081c9959da5cdd195c9959606a1b6044820152606490fd5b6000546001600160a01b0316330361147b57565b606460405162461bcd60e51b815260206004820152602060248201527f4f776e61626c653a2063616c6c6572206973206e6f7420746865206f776e65726044820152fd5b60ff60005460a01c166114ce57565b60405162461bcd60e51b815260206004820152601060248201526f14185d5cd8589b194e881c185d5cd95960821b6044820152606490fd5b806000526002602052600080516020611556833981519152604060ff61154b826000206001810190815491600285198416179055600542910155835192839116611163565b60026020820152a256fe7bae5b3937f1c50ff50f2ff21b403739914664ee08b38898777aee11eba3ea1fa264697066735822122041791081ebefe2aeffee382ca9efd2380c7fff43bb0d36bd015ac5395ac399e764736f6c63430008180033",
  "linkReferences": {},
  "deployedLinkReferences": {}
}