{
  "_format": "hh-sol-artifact-1",
  "contractName": "LandRegistry",
  "sourceName": "contracts/LandRegistry.sol",
  "abi": [
    {
      "inputs": [
        {
          "internalType": "address",
          "name": "_landNFTAddress",
          "type": "address"
        }
      ],
      "stateMutability": "nonpayable",
      "type": "constructor"
    },
    {
      "anonymous": false,
      "inputs": [
        {
          "indexed": true,
          "internalType": "uint256",
          "name": "tokenId",
          "type": "uint256"
        },
        {
          "indexed": true,
          "internalType": "address",
          "name": "owner",
          "type": "address"
        },
        {
          "indexed": false,
          "internalType": "string",
          "name": "tokenURI",
          "type": "string"
        }
      ],
      "name": "LandCreated",
      "type": "event"
    },
    {
      "anonymous": false,
      "inputs": [
        {
          "indexed": true,
          "internalType": "uint256",
          "name": "tokenId",
          "type": "uint256"
        },
        {
          "indexed": false,
          "internalType": "enum LandRegistry.LandStatus",
          "name": "oldStatus",
          "type": "uint8"
        },
        {
          "indexed": false,
          "internalType": "enum LandRegistry.LandStatus",
          "name": "newStatus",
          "type": "uint8"
        }
      ],
      "name": "LandStatusChanged",
      "type": "event"
    },
    {
      "anonymous": false,
      "inputs": [
        {
          "indexed": true,
          "internalType": "address",
          "name": "previousOwner",
          "type": "address"
        },
        {
          "indexed": true,
          "internalType": "address",
          "name": "newOwner",
          "type": "address"
        }
      ],
      "name": "OwnershipTransferred",
      "type": "event"
    },
    {
      "inputs": [
        {
          "internalType": "uint256",
          "name": "tokenId",
          "type": "uint256"
        }
      ],
      "name": "approveLand",
      "outputs": [],
      "stateMutability": "nonpayable",
      "type": "function"
    },
    {
      "inputs": [
        {
          "internalType": "uint256",
          "name": "tokenId",
          "type": "uint256"
        }
      ],
      "name": "canTransact",
      "outputs": [
        {
          "internalType": "bool",
          "name": "",
          "type": "bool"
        }
      ],
      "stateMutability": "view",
      "type": "function"
    },
    {
      "inputs": [
        {
          "internalType": "uint256",
          "name": "tokenId",
          "type": "uint256"
        }
      ],
      "name": "cancelTransaction",
      "outputs": [],
      "stateMutability": "nonpayable",
      "type": "function"
    },
    {
      "inputs": [
        {
          "internalType": "uint256",
          "name": "tokenId",
          "type": "uint256"
        }
      ],
      "name": "completeTransfer",
      "outputs": [],
      "stateMutability": "nonpayable",
      "type": "function"
    },
    {
      "inputs": [
        {
          "internalType": "address",
          "name": "to",
          "type": "address"
        },
        {
          "internalType": "string",
          "name": "tokenURI",
          "type": "string"
        }
      ],
      "name": "createLandRecord",
      "outputs": [
        {
          "internalType": "uint256",
          "name": "",
          "type": "uint256"
        }
      ],
      "stateMutability": "nonpayable",
      "type": "function"
    },
    {
      "inputs": [
        {
          "internalType": "uint256",
          "name": "tokenId",
          "type": "uint256"
        }
      ],
      "name": "getLandStatus",
      "outputs": [
        {
          "internalType": "enum LandRegistry.LandStatus",
          "name": "",
          "type": "uint8"
        }
      ],
      "stateMutability": "view",
      "type": "function"
    },
    {
      "inputs": [
        {
          "internalType": "uint256",
          "name": "tokenId",
          "type": "uint256"
        }
      ],
      "name": "isBlocked",
      "outputs": [
        {
          "internalType": "bool",
          "name": "",
          "type": "bool"
        }
      ],
      "stateMutability": "view",
      "type": "function"
    },
    {
      "inputs": [],
      "name": "landNFTContract",
      "outputs": [
        {
          "internalType": "contract LandNFT",
          "name": "",
          "type": "address"
        }
      ],
      "stateMutability": "view",
      "type": "function"
    },
    {
      "inputs": [
        {
          "internalType": "uint256",
          "name": "",
          "type": "uint256"
        }
      ],
      "name": "lands",
      "outputs": [
        {
          "internalType": "uint256",
          "name": "tokenId",
          "type": "uint256"
        },
        {
          "internalType": "enum LandRegistry.LandStatus",
          "name": "status",
          "type": "uint8"
        },
        {
          "internalType": "string",
          "name": "rejectReason",
          "type": "string"
        },
        {
          "internalType": "uint256",
          "name": "createdAt",
          "type": "uint256"
        },
        {
          "internalType": "uint256",
          "name": "updatedAt",
          "type": "uint256"
        }
      ],
      "stateMutability": "view",
      "type": "function"
    },
    {
      "inputs": [
        {
          "internalType": "uint256",
          "name": "tokenId",
          "type": "uint256"
        }
      ],
      "name": "mortgage",
      "outputs": [],
      "stateMutability": "nonpayable",
      "type": "function"
    },
    {
      "inputs": [],
      "name": "owner",
      "outputs": [
        {
          "internalType": "address",
          "name": "",
          "type": "address"
        }
      ],
      "stateMutability": "view",
      "type": "function"
    },
    {
      "inputs": [
        {
          "internalType": "uint256",
          "name": "tokenId",
          "type": "uint256"
        }
      ],
      "name": "raiseDispute",
      "outputs": [],
      "stateMutability": "nonpayable",
      "type": "function"
    },
    {
      "inputs": [
        {
          "internalType": "uint256",
          "name": "tokenId",
          "type": "uint256"
        },
        {
          "internalType": "string",
          "name": "reason",
          "type": "string"
        }
      ],
      "name": "rejectLand",
      "outputs": [],
      "stateMutability": "nonpayable",
      "type": "function"
    },
    {
      "inputs": [
        {
          "internalType": "uint256",
          "name": "tokenId",
          "type": "uint256"
        }
      ],
      "name": "releaseMortgage",
      "outputs": [],
      "stateMutability": "nonpayable",
      "type": "function"
    },
    {
      "inputs": [],
      "name": "renounceOwnership",
      "outputs": [],
      "stateMutability": "nonpayable",
      "type": "function"
    },
    {
      "inputs": [
        {
          "internalType": "uint256",
          "name": "tokenId",
          "type": "uint256"
        }
      ],
      "name": "resolveDispute",
      "outputs": [],
      "stateMutability": "nonpayable",
      "type": "function"
    },
    {
      "inputs": [
        {
          "internalType": "uint256",
          "name": "tokenId",
          "type": "uint256"
        }
      ],
      "name": "startTransaction",
      "outputs": [],
      "stateMutability": "nonpayable",
      "type": "function"
    },
    {
      "inputs": [
        {
          "internalType": "uint256",
          "name": "tokenId",
          "type": "uint256"
        }
      ],
      "name": "submitForApproval",
      "outputs": [],
      "stateMutability": "nonpayable",
      "type": "function"
    },
    {
      "inputs": [
        {
          "internalType": "address",
          "name": "newOwner",
          "type": "address"
        }
      ],
      "name": "transferOwnership",
      "outputs": [],
      "stateMutability": "nonpayable",
      "type": "function"
    }
  ],
  "bytecode": "0x608060405234801561001057600080fd5b5060405161133538038061133583398101604081905261002f916100ad565b6100383361005d565b600180546001600160a01b0319166001600160a01b03929092169190911790556100dd565b600080546001600160a01b038381166001600160a01b0319831681178455604051919092169283917f8be0079c531659141344cd1fd0a4f28419497f9722a3daafe3b4186f6b6457e09190a35050565b6000602082840312156100bf57600080fd5b81516001600160a01b03811681146100d657600080fd5b9392505050565b611249806100ec6000396000f3fe608060405234801561001057600080fd5b50600436106101215760003560e01c806367bdb2a1116100ad578063b0aa98c711610071578063b0aa98c714610271578063c2b7b86814610284578063e261f1e514610297578063f2fde38b146102bb578063f6f84508146102ce57600080fd5b806367bdb2a114610201578063715018a6146102245780638da5cb5b1461022c578063a5c1674e1461023d578063ab5d24751461025057600080fd5b80633380c0d8116100f45780633380c0d8146101a257806338c887b2146101b55780634b45ca8f146101c857806359122393146101db578063619c83ed146101ee57600080fd5b806304835426146101265780631be3175e1461014f5780632b359bc5146101645780632cb0aa311461018f575b600080fd5b610139610134366004610cf4565b6102e1565b6040516101469190610d45565b60405180910390f35b61016261015d366004610cf4565b610305565b005b600154610177906001600160a01b031681565b6040516001600160a01b039091168152602001610146565b61016261019d366004610cf4565b610372565b6101626101b0366004610cf4565b610401565b6101626101c3366004610cf4565b610492565b6101626101d6366004610cf4565b610518565b6101626101e9366004610d53565b61059e565b6101626101fc366004610cf4565b610652565b61021461020f366004610cf4565b6106e3565b6040519015158152602001610146565b61016261071d565b6000546001600160a01b0316610177565b61016261024b366004610cf4565b610731565b61026361025e366004610e01565b610792565b604051908152602001610146565b61021461027f366004610cf4565b6108f7565b610162610292366004610cf4565b61094f565b6102aa6102a5366004610cf4565b6109d5565b604051610146959493929190610f09565b6101626102c9366004610f43565b610a91565b6101626102dc366004610cf4565b610b07565b60006102ec82610b68565b5060009081526002602052604090206001015460ff1690565b61030d610bbb565b61031681610b68565b600260008281526002602052604090206001015460ff16600781111561033e5761033e610d0d565b146103645760405162461bcd60e51b815260040161035b90610f5e565b60405180910390fd5b61036f816006610c15565b50565b61037a610bbb565b61038381610b68565b60008181526002602052604081206001015460ff1660078111156103a9576103a9610d0d565b146103f65760405162461bcd60e51b815260206004820152601960248201527f4d75737420626520696e204b484f495f54414f20737461746500000000000000604482015260640161035b565b61036f816001610c15565b610409610bbb565b61041281610b68565b600460008281526002602052604090206001015460ff16600781111561043a5761043a610d0d565b146104875760405162461bcd60e51b815260206004820152601f60248201527f4d75737420626520696e2044414e475f4749414f5f4449434820737461746500604482015260640161035b565b61036f816002610c15565b61049a610bbb565b6104a381610b68565b600160008281526002602052604090206001015460ff1660078111156104cb576104cb610d0d565b146104875760405162461bcd60e51b815260206004820152601a60248201527f4d75737420626520696e2043484f5f4455594554207374617465000000000000604482015260640161035b565b610520610bbb565b61052981610b68565b600660008281526002602052604090206001015460ff16600781111561055157610551610d0d565b146104875760405162461bcd60e51b815260206004820152601960248201527f4d75737420626520696e205448455f4348415020737461746500000000000000604482015260640161035b565b6105a6610bbb565b6105af83610b68565b600160008481526002602052604090206001015460ff1660078111156105d7576105d7610d0d565b146106245760405162461bcd60e51b815260206004820152601a60248201527f4d75737420626520696e2043484f5f4455594554207374617465000000000000604482015260640161035b565b60008381526002602081905260409091200161064182848361101f565b5061064d836003610c15565b505050565b61065a610bbb565b61066381610b68565b600460008281526002602052604090206001015460ff16600781111561068b5761068b610d0d565b146106d85760405162461bcd60e51b815260206004820152601f60248201527f4d75737420626520696e2044414e475f4749414f5f4449434820737461746500604482015260640161035b565b61036f816005610c15565b60006106ee82610b68565b600260008381526002602052604090206001015460ff16600781111561071657610716610d0d565b1492915050565b610725610bbb565b61072f6000610ca4565b565b610739610bbb565b61074281610b68565b600260008281526002602052604090206001015460ff16600781111561076a5761076a610d0d565b146107875760405162461bcd60e51b815260040161035b90610f5e565b61036f816007610c15565b600061079c610bbb565b60015460405163c233557b60e01b81526000916001600160a01b03169063c233557b906107cf90879087906004016110e0565b6020604051808303816000875af11580156107ee573d6000803e3d6000fd5b505050506040513d601f19601f82011682018060405250810190610812919061110c565b6040805160a08101825282815260006020808301828152845180830186528381528486015242606085018190526080850152858352600290915292902081518155915160018084018054959650929491929160ff19169083600781111561087b5761087b610d0d565b0217905550604082015160028201906108949082611125565b506060820151816003015560808201518160040155905050836001600160a01b0316817faf3b58634809a189c48e8dc732039c10ddc6022ea3b353f0317bbb7adcb308ed856040516108e691906111e5565b60405180910390a390505b92915050565b600061090282610b68565b60008281526002602052604090206001015460ff16600781600781111561092b5761092b610d0d565b14806109485750600681600781111561094657610946610d0d565b145b9392505050565b610957610bbb565b61096081610b68565b600760008281526002602052604090206001015460ff16600781111561098857610988610d0d565b146104875760405162461bcd60e51b815260206004820152601b60248201527f4d75737420626520696e205452414e485f434841502073746174650000000000604482015260640161035b565b6002602081905260009182526040909120805460018201549282018054919360ff169291610a0290610f95565b80601f0160208091040260200160405190810160405280929190818152602001828054610a2e90610f95565b8015610a7b5780601f10610a5057610100808354040283529160200191610a7b565b820191906000526020600020905b815481529060010190602001808311610a5e57829003601f168201915b5050505050908060030154908060040154905085565b610a99610bbb565b6001600160a01b038116610afe5760405162461bcd60e51b815260206004820152602660248201527f4f776e61626c653a206e6577206f776e657220697320746865207a65726f206160448201526564647265737360d01b606482015260840161035b565b61036f81610ca4565b610b0f610bbb565b610b1881610b68565b600260008281526002602052604090206001015460ff166007811115610b4057610b40610d0d565b14610b5d5760405162461bcd60e51b815260040161035b90610f5e565b61036f816004610c15565b600081815260026020526040812054900361036f5760405162461bcd60e51b815260206004820152601360248201527213185b99081b9bdd081c9959da5cdd195c9959606a1b604482015260640161035b565b6000546001600160a01b0316331461072f5760405162461bcd60e51b815260206004820181905260248201527f4f776e61626c653a2063616c6c6572206973206e6f7420746865206f776e6572604482015260640161035b565b60008281526002602052604090206001908101805460ff81169284929160ff191690836007811115610c4957610c49610d0d565b021790555060008381526002602052604090819020426004909101555183907f7bae5b3937f1c50ff50f2ff21b403739914664ee08b38898777aee11eba3ea1f90610c9790849086906111f8565b60405180910390a2505050565b600080546001600160a01b038381166001600160a01b0319831681178455604051919092169283917f8be0079c531659141344cd1fd0a4f28419497f9722a3daafe3b4186f6b6457e09190a35050565b600060208284031215610d0657600080fd5b5035919050565b634e487b7160e01b600052602160045260246000fd5b60088110610d4157634e487b7160e01b600052602160045260246000fd5b9052565b602081016108f18284610d23565b600080600060408486031215610d6857600080fd5b83359250602084013567ffffffffffffffff80821115610d8757600080fd5b818601915086601f830112610d9b57600080fd5b813581811115610daa57600080fd5b876020828501011115610dbc57600080fd5b6020830194508093505050509250925092565b80356001600160a01b0381168114610de657600080fd5b919050565b634e487b7160e01b600052604160045260246000fd5b60008060408385031215610e1457600080fd5b610e1d83610dcf565b9150602083013567ffffffffffffffff80821115610e3a57600080fd5b818501915085601f830112610e4e57600080fd5b813581811115610e6057610e60610deb565b604051601f8201601f19908116603f01168101908382118183101715610e8857610e88610deb565b81604052828152886020848701011115610ea157600080fd5b8260208601602083013760006020848301015280955050505050509250929050565b6000815180845260005b81811015610ee957602081850181015186830182015201610ecd565b506000602082860101526020601f19601f83011685010191505092915050565b858152610f196020820186610d23565b60a060408201526000610f2f60a0830186610ec3565b606083019490945250608001529392505050565b600060208284031215610f5557600080fd5b61094882610dcf565b6020808252601a908201527f4d75737420626520696e2044415f4341505f534f207374617465000000000000604082015260600190565b600181811c90821680610fa957607f821691505b602082108103610fc957634e487b7160e01b600052602260045260246000fd5b50919050565b601f82111561064d576000816000526020600020601f850160051c81016020861015610ff85750805b601f850160051c820191505b8181101561101757828155600101611004565b505050505050565b67ffffffffffffffff83111561103757611037610deb565b61104b836110458354610f95565b83610fcf565b6000601f84116001811461107f57600085156110675750838201355b600019600387901b1c1916600186901b1783556110d9565b600083815260209020601f19861690835b828110156110b05786850135825560209485019460019092019101611090565b50868210156110cd5760001960f88860031b161c19848701351681555b505060018560011b0183555b5050505050565b6001600160a01b038316815260406020820181905260009061110490830184610ec3565b949350505050565b60006020828403121561111e57600080fd5b5051919050565b815167ffffffffffffffff81111561113f5761113f610deb565b6111538161114d8454610f95565b84610fcf565b602080601f83116001811461118857600084156111705750858301515b600019600386901b1c1916600185901b178555611017565b600085815260208120601f198616915b828110156111b757888601518255948401946001909101908401611198565b50858210156111d55787850151600019600388901b60f8161c191681555b5050505050600190811b01905550565b6020815260006109486020830184610ec3565b604081016112068285610d23565b6109486020830184610d2356fea26469706673582212204d6ba46179b7813a6df37d524bbc19640209481e2bc5b30a2d404ebd095fe19e64736f6c63430008180033",
  "linkReferences": {},
  "deployedLinkReferences": {}
}