{
  "_format": "hh-sol-artifact-1",
  "contractName": "LandRegistry",
  "sourceName": "contracts/LandRegistry.sol",
  "abi": [
    {
      "inputs": [
        {
          "internalType": "address",
          "name": "_landNFTAddress",
          "type": "address"
        }
      ],
      "stateMutability": "nonpayable",
      "type": "constructor"
    },
    {
      "anonymous": false,
      "inputs": [
        {
          "indexed": true,
          "internalType": "uint256",
          "name": "tokenId",
          "type": "uint256"
        },
        {
          "indexed": true,
          "internalType": "address",
          "name": "owner",
          "type": "address"
        },
        {
          "indexed": false,
          "internalType": "string",
          "name": "tokenURI",
          "type": "string"
        }
      ],
      "name": "LandCreated",
      "type": "event"
    },
    {
      "anonymous": false,
      "inputs": [
        {
          "indexed": true,
          "internalType": "uint256",
          "name": "tokenId",
          "type": "uint256"
        },
        {
          "indexed": false,
          "internalType": "enum LandRegistry.LandStatus",
          "name": "oldStatus",
          "type": "uint8"
        },
        {
          "indexed": false,
          "internalType": "enum LandRegistry.LandStatus",
          "name": "newStatus",
          "type": "uint8"
        }
      ],
      "name": "LandStatusChanged",
      "type": "event"
    },
    {
      "anonymous": false,
      "inputs": [
        {
          "indexed": true,
          "internalType": "address",
          "name": "previousOwner",
          "type": "address"
        },
        {
          "indexed": true,
          "internalType": "address",
          "name": "newOwner",
          "type": "address"
        }
      ],
      "name": "OwnershipTransferred",
      "type": "event"
    },
    {
      "anonymous": false,
      "inputs": [
        {
          "indexed": false,
          "internalType": "address",
          "name": "account",
          "type": "address"
        }
      ],
      "name": "Paused",
      "type": "event"
    },
    {
      "anonymous": false,
      "inputs": [
        {
          "indexed": false,
          "internalType": "address",
          "name": "account",
          "type": "address"
        }
      ],
      "name": "Unpaused",
      "type": "event"
    },
    {
      "inputs": [
        {
          "internalType": "uint256",
          "name": "tokenId",
          "type": "uint256"
        }
      ],
      "name": "approveLand",
      "outputs": [],
      "stateMutability": "nonpayable",
      "type": "function"
    },
    {
      "inputs": [
        {
          "internalType": "uint256",
          "name": "tokenId",
          "type": "uint256"
        }
      ],
      "name": "canTransact",
      "outputs": [
        {
          "internalType": "bool",
          "name": "",
          "type": "bool"
        }
      ],
      "stateMutability": "view",
      "type": "function"
    },
    {
      "inputs": [
        {
          "internalType": "uint256",
          "name": "tokenId",
          "type": "uint256"
        }
      ],
      "name": "cancelTransaction",
      "outputs": [],
      "stateMutability": "nonpayable",
      "type": "function"
    },
    {
      "inputs": [
        {
          "internalType": "uint256",
          "name": "tokenId",
          "type": "uint256"
        }
      ],
      "name": "completeTransfer",
      "outputs": [],
      "stateMutability": "nonpayable",
      "type": "function"
    },
    {
      "inputs": [
        {
          "internalType": "address",
          "name": "to",
          "type": "address"
        },
        {
          "internalType": "string",
          "name": "tokenURI",
          "type": "string"
        }
      ],
      "name": "createLandRecord",
      "outputs": [
        {
          "internalType": "uint256",
          "name": "",
          "type": "uint256"
        }
      ],
      "stateMutability": "nonpayable",
      "type": "function"
    },
    {
      "inputs": [
        {
          "internalType": "uint256",
          "name": "tokenId",
          "type": "uint256"
        }
      ],
      "name": "getLandStatus",
      "outputs": [
        {
          "internalType": "enum LandRegistry.LandStatus",
          "name": "",
          "type": "uint8"
        }
      ],
      "stateMutability": "view",
      "type": "function"
    },
    {
      "inputs": [
        {
          "internalType": "uint256",
          "name": "tokenId",
          "type": "uint256"
        }
      ],
      "name": "isBlocked",
      "outputs": [
        {
          "internalType": "bool",
          "name": "",
          "type": "bool"
        }
      ],
      "stateMutability": "view",
      "type": "function"
    },
    {
      "inputs": [],
      "name": "landNFTContract",
      "outputs": [
        {
          "internalType": "contract LandNFT",
          "name": "",
          "type": "address"
        }
      ],
      "stateMutability": "view",
      "type": "function"
    },
    {
      "inputs": [
        {
          "internalType": "uint256",
          "name": "",
          "type": "uint256"
        }
      ],
      "name": "lands",
      "outputs": [
        {
          "internalType": "uint256",
          "name": "tokenId",
          "type": "uint256"
        },
        {
          "internalType": "enum LandRegistry.LandStatus",
          "name": "status",
          "type": "uint8"
        },
        {
          "internalType": "string",
          "name": "rejectReason",
          "type": "string"
        },
        {
          "internalType": "uint256",
          "name": "createdAt",
          "type": "uint256"
        },
        {
          "internalType": "uint256",
          "name": "updatedAt",
          "type": "uint256"
        }
      ],
      "stateMutability": "view",
      "type": "function"
    },
    {
      "inputs": [
        {
          "internalType": "uint256",
          "name": "tokenId",
          "type": "uint256"
        }
      ],
      "name": "mortgage",
      "outputs": [],
      "stateMutability": "nonpayable",
      "type": "function"
    },
    {
      "inputs": [],
      "name": "owner",
      "outputs": [
        {
          "internalType": "address",
          "name": "",
          "type": "address"
        }
      ],
      "stateMutability": "view",
      "type": "function"
    },
    {
      "inputs": [],
      "name": "pause",
      "outputs": [],
      "stateMutability": "nonpayable",
      "type": "function"
    },
    {
      "inputs": [],
      "name": "paused",
      "outputs": [
        {
          "internalType": "bool",
          "name": "",
          "type": "bool"
        }
      ],
      "stateMutability": "view",
      "type": "function"
    },
    {
      "inputs": [
        {
          "internalType": "uint256",
          "name": "tokenId",
          "type": "uint256"
        }
      ],
      "name": "raiseDispute",
      "outputs": [],
      "stateMutability": "nonpayable",
      "type": "function"
    },
    {
      "inputs": [
        {
          "internalType": "uint256",
          "name": "tokenId",
          "type": "uint256"
        },
        {
          "internalType": "string",
          "name": "reason",
          "type": "string"
        }
      ],
      "name": "rejectLand",
      "outputs": [],
      "stateMutability": "nonpayable",
      "type": "function"
    },
    {
      "inputs": [
        {
          "internalType": "uint256",
          "name": "tokenId",
          "type": "uint256"
        }
      ],
      "name": "releaseMortgage",
      "outputs": [],
      "stateMutability": "nonpayable",
      "type": "function"
    },
    {
      "inputs": [],
      "name": "renounceOwnership",
      "outputs": [],
      "stateMutability": "nonpayable",
      "type": "function"
    },
    {
      "inputs": [
        {
          "internalType": "uint256",
          "name": "tokenId",
          "type": "uint256"
        }
      ],
      "name": "resolveDispute",
      "outputs": [],
      "stateMutability": "nonpayable",
      "type": "function"
    },
    {
      "inputs": [
        {
          "internalType": "uint256",
          "name": "tokenId",
          "type": "uint256"
        }
      ],
      "name": "startTransaction",
      "outputs": [],
      "stateMutability": "nonpayable",
      "type": "function"
    },
    {
      "inputs": [
        {
          "internalType": "uint256",
          "name": "tokenId",
          "type": "uint256"
        }
      ],
      "name": "submitForApproval",
      "outputs": [],
      "stateMutability": "nonpayable",
      "type": "function"
    },
    {
      "inputs": [
        {
          "internalType": "address",
          "name": "newOwner",
          "type": "address"
        }
      ],
      "name": "transferOwnership",
      "outputs": [],
      "stateMutability": "nonpayable",
      "type": "function"
    },
    {
      "inputs": [],
      "name": "unpause",
      "outputs": [],
      "stateMutability": "nonpayable",
      "type": "function"
    }
  ],
  "bytecode": "0x6080346100b957601f61151c38819003918201601f19168301916001600160401b038311848410176100be578084926020946040528339810103126100b957516001600160a01b0390818116908190036100b95760005460405192339082167f8be0079c531659141344cd1fd0a4f28419497f9722a3daafe3b4186f6b6457e0600080a36001600160a81b0319163360ff60a01b191617600055600180546001600160a01b03191691909117905561144790816100d58239f35b600080fd5b634e487b7160e01b600052604160045260246000fdfe6040608081526004908136101561001557600080fd5b600090813560e01c8063048354261461104b5780631be3175e14610faa5780632b359bc514610f825780632cb0aa3114610e925780633380c0d814610e2857806338c887b214610db65780633f4ba83a14610d1c5780634b45ca8f14610c7e5780635912239314610aa85780635c975abb14610a84578063619c83ed146109e457806367bdb2a11461098a578063715018a6146109305780638456cb59146108d25780638da5cb5b146108ab578063a5c1674e1461080a578063ab5d2475146104bd578063b0aa98c71461044f578063c2b7b8681461039b578063e261f1e51461028f578063f2fde38b146101c85763f6f845081461011357600080fd5b346101c45760203660031901126101c45782359061012f611303565b61013761135b565b610140826112b3565b818352600260205260ff600182852001541660088110156101b1579060ff8561017a60026000805160206113f28339815191529514611179565b84865260026020526101a8838720600181019081549184861984161790558342910155845193849116611089565b6020820152a280f35b634e487b7160e01b845260218552602484fd5b5080fd5b50823461028b57602036600319011261028b576101e36110ac565b906101ec611303565b6001600160a01b0391821692831561023957505082546001600160a01b0319811683178455167f8be0079c531659141344cd1fd0a4f28419497f9722a3daafe3b4186f6b6457e08380a380f35b906020608492519162461bcd60e51b8352820152602660248201527f4f776e61626c653a206e6577206f776e657220697320746865207a65726f206160448201526564647265737360d01b6064820152fd5b8280fd5b50823461028b57602092836003193601126103985781358152600284528281209182549360019160ff600186015416938760028701845195838254926102d4846110ff565b808a529360018116908115610374575060011461033c575b50505050509161032060a0926103088661032d979603866110c7565b6003880154970154958251998a998a52890190611089565b86015260a0850190611139565b91606084015260808301520390f35b9080949550528383205b8284106103615750505084010187826103088661032d6102ec565b8054888501860152928401928101610346565b60ff1916868b015250505050151560051b850101905087826103088661032d6102ec565b80fd5b50823461028b57602036600319011261028b578035916103b9611303565b6103c161135b565b6103ca836112b3565b828452600260205260ff6001828620015416600881101561043c576007036103f957836103f6846113a2565b80f35b906020606492519162461bcd60e51b8352820152601b60248201527f4d75737420626520696e205452414e485f4348415020737461746500000000006044820152fd5b634e487b7160e01b855260218352602485fd5b50346101c45760203660031901126101c457823561046c816112b3565b8252600260205260ff60018284200154169160088310156104aa576020600784148385821561049f575b50519015158152f35b600614915083610496565b634e487b7160e01b815260218452602490fd5b5091346101c457826003193601126101c4576104d76110ac565b92602493843567ffffffffffffffff9384821161080657366023830112156108065781810135908582116107f457602096601f19928651946105208a86601f85011601876110c7565b818652368b838301011161028b578183928c8c93018389013786010152610545611303565b61054d61135b565b60018060a01b0396888860015416968851998a9163c233557b60e01b835216978886830152898d830152818581610587604482018c611139565b03925af19788156107ea5782986107bb575b5086519360a08501858110838211176107a9578852888552898501928084528851938b85018581108582111761079757918b9593918d95938c528185528b8901948552600260608a019642885260808b0198428a528452528b82209851895560018901905160088110156107855760ff80198354169116179055600288019351908151938411610773578d9e508c9d610640859d9e9c9d61063a88546110ff565b8861125d565b8093601f86116001146106ce57505092806106ba9997959361069c937faf3b58634809a189c48e8dc732039c10ddc6022ea3b353f0317bbb7adcb308ed9c9a9896926106c3575b50508160011b916000199060031b1c19161790565b90555b51600384015551910155855191829189835289830190611139565b0390a351908152f35b015190503880610687565b868352818320949392908616915b8282106107435750509260019285927faf3b58634809a189c48e8dc732039c10ddc6022ea3b353f0317bbb7adcb308ed9c9a98966106ba9c9a98961061072a575b505050811b01905561069f565b015160001960f88460031b161c1916905538808061071d565b84969798999a9b9c9d5060018193949596829397870151815501960194018f9c9b9a9998979695949392916106dc565b634e487b7160e01b8152604188528e90fd5b634e487b7160e01b8352602189528f83fd5b634e487b7160e01b8352604187528d83fd5b634e487b7160e01b8452604185528b84fd5b9097508881813d83116107e3575b6107d381836110c7565b810103126101c457519638610599565b503d6107c9565b87513d84823e3d90fd5b634e487b7160e01b8752604190528686fd5b8580fd5b50346101c45760203660031901126101c457823590610827611303565b61082f61135b565b610838826112b3565b818352600260205260ff600182852001541660088110156101b1579060ff6108a08661087560026000805160206113f28339815191529614611179565b8587526002602052838720600181019182549260078619851617905542910155835192839116611089565b60076020820152a280f35b50346101c457816003193601126101c457905490516001600160a01b039091168152602090f35b50346101c457816003193601126101c45760207f62e78cea01bee320cd4e420270b5ea74000d11b0c9f74754ebdbfc544b05a2589161090f611303565b61091761135b565b835460ff60a01b1916600160a01b17845551338152a180f35b8234610398578060031936011261039857610949611303565b80546001600160a01b03198116825581906001600160a01b03167f8be0079c531659141344cd1fd0a4f28419497f9722a3daafe3b4186f6b6457e08280a380f35b509190346103985760203660031901126103985781356109a9816112b3565b8152600260205260ff60018483200154169160088310156109d1576020836002865191148152f35b634e487b7160e01b825260219052602490fd5b50346101c45760203660031901126101c457823590610a01611303565b610a0961135b565b610a12826112b3565b818352600260205260ff600182852001541660088110156101b1579060ff610a7986610a4e816000805160206113f283398151915296146111c5565b8587526002602052838720600181019182549260058619851617905542910155835192839116611089565b60056020820152a280f35b50346101c457816003193601126101c45760ff6020925460a01c1690519015158152f35b5082903461028b578060031936011261028b5781359167ffffffffffffffff9060248035838111610c7a5736602382011215610c7a5780830135938411610c7a5736828583010111610c7a57610afc611303565b610b0461135b565b610b0d866112b3565b8587526020936002855260019260ff84888b200154166008811015610c685784610b379114611211565b878952600286526002878a200192610b5983610b5386546110ff565b8661125d565b89908a601f8511600114610be65784610bd29560ff9995600399956000805160206113f28339815191529d9c9995610ba79593610bd9575b5050508160011b916000199060031b1c19161790565b90555b888a5260028452868a2090810191825492868819851617905542910155855194859116611089565b820152a280f35b01013590508e8080610b91565b50848b52878b20929091601f1985168c5b818110610c5157509460ff989488946000805160206113f28339815191529c9b989460039a9484610bd29a10610c36575b50505050811b019055610baa565b60001960f8868e1b161c19920101351690558d808080610c28565b848301840135865594880194918a01918a01610bf7565b50634e487b7160e01b89526021855288fd5b8680fd5b50823461028b57602036600319011261028b57803591610c9c611303565b610ca461135b565b610cad836112b3565b828452600260205260ff6001828620015416600881101561043c57600603610cd957836103f6846113a2565b906020606492519162461bcd60e51b8352820152601960248201527f4d75737420626520696e205448455f43484150207374617465000000000000006044820152fd5b50823461028b578260031936011261028b57610d36611303565b82549060ff8260a01c1615610d7c575060ff60a01b19168255513381527f5db9ee0a495bf2e6ff9c91a7834c1ba4fdd244a5e8aa4e537bd38aeae4b073aa90602090a180f35b606490602084519162461bcd60e51b8352820152601460248201527314185d5cd8589b194e881b9bdd081c185d5cd95960621b6044820152fd5b50346101c45760203660031901126101c45760ff6001843592610dd7611303565b610ddf61135b565b610de8846112b3565b83855260026020528420015416926008841015610e155750610e1060016103f6939414611211565b6113a2565b634e487b7160e01b835260219052602482fd5b50346101c45760203660031901126101c45760ff6001843592610e49611303565b610e5161135b565b610e5a846112b3565b838552600260205284200154166008811015610e7f576103f69293610e1091146111c5565b634e487b7160e01b835260218452602483fd5b5082903461028b57602036600319011261028b57813591610eb1611303565b610eb961135b565b610ec2836112b3565b828452600260205260ff60018386200154166008811015610f6f57610f2d579060ff610f226000805160206113f2833981519152938587526002602052838720600181019182549260018619851617905542910155835192839116611089565b60016020820152a280f35b6020606492519162461bcd60e51b8352820152601960248201527f4d75737420626520696e204b484f495f54414f207374617465000000000000006044820152fd5b634e487b7160e01b855260218252602485fd5b50346101c457816003193601126101c45760015490516001600160a01b039091168152602090f35b50346101c45760203660031901126101c457823590610fc7611303565b610fcf61135b565b610fd8826112b3565b818352600260205260ff600182852001541660088110156101b1579060ff6110408661101560026000805160206113f28339815191529614611179565b8587526002602052838720600181019182549260068619851617905542910155835192839116611089565b60066020820152a280f35b50823461028b57602036600319011261028b5760ff6001836020956110879435611074816112b3565b8152600287522001541691518092611089565bf35b9060088210156110965752565b634e487b7160e01b600052602160045260246000fd5b600435906001600160a01b03821682036110c257565b600080fd5b90601f8019910116810190811067ffffffffffffffff8211176110e957604052565b634e487b7160e01b600052604160045260246000fd5b90600182811c9216801561112f575b602083101461111957565b634e487b7160e01b600052602260045260246000fd5b91607f169161110e565b919082519283825260005b848110611165575050826000602080949584010152601f8019910116010190565b602081830181015184830182015201611144565b1561118057565b60405162461bcd60e51b815260206004820152601a60248201527f4d75737420626520696e2044415f4341505f534f2073746174650000000000006044820152606490fd5b156111cc57565b60405162461bcd60e51b815260206004820152601f60248201527f4d75737420626520696e2044414e475f4749414f5f44494348207374617465006044820152606490fd5b1561121857565b60405162461bcd60e51b815260206004820152601a60248201527f4d75737420626520696e2043484f5f44555945542073746174650000000000006044820152606490fd5b90601f811161126b57505050565b6000916000526020600020906020601f850160051c830194106112a9575b601f0160051c01915b82811061129e57505050565b818155600101611292565b9092508290611289565b6000526002602052604060002054156112c857565b60405162461bcd60e51b815260206004820152601360248201527213185b99081b9bdd081c9959da5cdd195c9959606a1b6044820152606490fd5b6000546001600160a01b0316330361131757565b606460405162461bcd60e51b815260206004820152602060248201527f4f776e61626c653a2063616c6c6572206973206e6f7420746865206f776e65726044820152fd5b60ff60005460a01c1661136a57565b60405162461bcd60e51b815260206004820152601060248201526f14185d5cd8589b194e881c185d5cd95960821b6044820152606490fd5b8060005260026020526000805160206113f2833981519152604060ff6113e7826000206001810190815491600285198416179055600442910155835192839116611089565b60026020820152a256fe7bae5b3937f1c50ff50f2ff21b403739914664ee08b38898777aee11eba3ea1fa264697066735822122017d751e77f13e294e6a9ca708c95c1be3511488b52a36df130eabec1ef5c6eb764736f6c63430008180033",
  "linkReferences": {},
  "deployedLinkReferences": {}
}