{
  "_format": "hh-sol-artifact-1",
  "contractName": "LandRegistry",
  "sourceName": "contracts/LandRegistry.sol",
  "abi": [
    {
      "anonymous": false,
      "inputs": [
        {
          "indexed": true,
          "internalType": "uint256",
          "name": "landId",
          "type": "uint256"
        },
        {
          "indexed": true,
          "internalType": "address",
          "name": "owner",
          "type": "address"
        }
      ],
      "name": "LandRegistered",
      "type": "event"
    },
    {
      "inputs": [
        {
          "internalType": "uint256",
          "name": "",
          "type": "uint256"
        }
      ],
      "name": "landOwners",
      "outputs": [
        {
          "internalType": "address",
          "name": "",
          "type": "address"
        }
      ],
      "stateMutability": "view",
      "type": "function"
    },
    {
      "inputs": [
        {
          "internalType": "uint256",
          "name": "landId",
          "type": "uint256"
        }
      ],
      "name": "registerLand",
      "outputs": [],
      "stateMutability": "nonpayable",
      "type": "function"
    }
  ],
  "bytecode": "0x608060405234801561001057600080fd5b5061019c806100206000396000f3fe608060405234801561001057600080fd5b50600436106100365760003560e01c80631a0f76b11461003b578063baadce9014610080575b600080fd5b61006461004936600461014d565b6000602081905290815260409020546001600160a01b031681565b6040516001600160a01b03909116815260200160405180910390f35b61009361008e36600461014d565b610095565b005b6000818152602081905260409020546001600160a01b0316156100fe5760405162461bcd60e51b815260206004820152601760248201527f4c616e6420616c72656164792072656769737465726564000000000000000000604482015260640160405180910390fd5b60008181526020819052604080822080546001600160a01b031916339081179091559051909183917fcb4990052f95f6057496d19524f6c3163f50af9f33f2c15b092928e03414323e9190a350565b60006020828403121561015f57600080fd5b503591905056fea26469706673582212204d90f305c2f57b7107f94eb078e64f519ae64092abcb2e0194d04de9b75cd6a164736f6c63430008180033",
  "linkReferences": {},
  "deployedLinkReferences": {}
}