{
  "_format": "hh-sol-artifact-1",
  "contractName": "LandRegistry",
  "sourceName": "contracts/LandRegistry.sol",
  "abi": [
    {
      "inputs": [
        {
          "internalType": "address",
          "name": "_landNFTAddress",
          "type": "address"
        }
      ],
      "stateMutability": "nonpayable",
      "type": "constructor"
    },
    {
      "anonymous": false,
      "inputs": [
        {
          "indexed": true,
          "internalType": "uint256",
          "name": "tokenId",
          "type": "uint256"
        },
        {
          "indexed": true,
          "internalType": "address",
          "name": "owner",
          "type": "address"
        },
        {
          "indexed": false,
          "internalType": "string",
          "name": "tokenURI",
          "type": "string"
        }
      ],
      "name": "LandRegistered",
      "type": "event"
    },
    {
      "anonymous": false,
      "inputs": [
        {
          "indexed": true,
          "internalType": "uint256",
          "name": "tokenId",
          "type": "uint256"
        },
        {
          "indexed": false,
          "internalType": "string",
          "name": "statusType",
          "type": "string"
        },
        {
          "indexed": false,
          "internalType": "bool",
          "name": "value",
          "type": "bool"
        }
      ],
      "name": "LandStatusUpdated",
      "type": "event"
    },
    {
      "anonymous": false,
      "inputs": [
        {
          "indexed": true,
          "internalType": "address",
          "name": "previousOwner",
          "type": "address"
        },
        {
          "indexed": true,
          "internalType": "address",
          "name": "newOwner",
          "type": "address"
        }
      ],
      "name": "OwnershipTransferred",
      "type": "event"
    },
    {
      "inputs": [
        {
          "internalType": "uint256",
          "name": "tokenId",
          "type": "uint256"
        }
      ],
      "name": "canTransact",
      "outputs": [
        {
          "internalType": "bool",
          "name": "",
          "type": "bool"
        }
      ],
      "stateMutability": "view",
      "type": "function"
    },
    {
      "inputs": [],
      "name": "landNFTContract",
      "outputs": [
        {
          "internalType": "contract LandNFT",
          "name": "",
          "type": "address"
        }
      ],
      "stateMutability": "view",
      "type": "function"
    },
    {
      "inputs": [
        {
          "internalType": "uint256",
          "name": "",
          "type": "uint256"
        }
      ],
      "name": "lands",
      "outputs": [
        {
          "internalType": "bool",
          "name": "isRegistered",
          "type": "bool"
        },
        {
          "internalType": "bool",
          "name": "isDisputed",
          "type": "bool"
        },
        {
          "internalType": "bool",
          "name": "isMortgaged",
          "type": "bool"
        }
      ],
      "stateMutability": "view",
      "type": "function"
    },
    {
      "inputs": [],
      "name": "owner",
      "outputs": [
        {
          "internalType": "address",
          "name": "",
          "type": "address"
        }
      ],
      "stateMutability": "view",
      "type": "function"
    },
    {
      "inputs": [
        {
          "internalType": "address",
          "name": "to",
          "type": "address"
        },
        {
          "internalType": "string",
          "name": "tokenURI",
          "type": "string"
        }
      ],
      "name": "registerLand",
      "outputs": [
        {
          "internalType": "uint256",
          "name": "",
          "type": "uint256"
        }
      ],
      "stateMutability": "nonpayable",
      "type": "function"
    },
    {
      "inputs": [],
      "name": "renounceOwnership",
      "outputs": [],
      "stateMutability": "nonpayable",
      "type": "function"
    },
    {
      "inputs": [
        {
          "internalType": "uint256",
          "name": "tokenId",
          "type": "uint256"
        },
        {
          "internalType": "bool",
          "name": "status",
          "type": "bool"
        }
      ],
      "name": "setDisputeStatus",
      "outputs": [],
      "stateMutability": "nonpayable",
      "type": "function"
    },
    {
      "inputs": [
        {
          "internalType": "uint256",
          "name": "tokenId",
          "type": "uint256"
        },
        {
          "internalType": "bool",
          "name": "status",
          "type": "bool"
        }
      ],
      "name": "setMortgageStatus",
      "outputs": [],
      "stateMutability": "nonpayable",
      "type": "function"
    },
    {
      "inputs": [
        {
          "internalType": "address",
          "name": "newOwner",
          "type": "address"
        }
      ],
      "name": "transferOwnership",
      "outputs": [],
      "stateMutability": "nonpayable",
      "type": "function"
    }
  ],
  "bytecode": "0x608060405234801561001057600080fd5b5060405161094938038061094983398101604081905261002f916100ad565b6100383361005d565b600180546001600160a01b0319166001600160a01b03929092169190911790556100dd565b600080546001600160a01b038381166001600160a01b0319831681178455604051919092169283917f8be0079c531659141344cd1fd0a4f28419497f9722a3daafe3b4186f6b6457e09190a35050565b6000602082840312156100bf57600080fd5b81516001600160a01b03811681146100d657600080fd5b9392505050565b61085d806100ec6000396000f3fe608060405234801561001057600080fd5b50600436106100935760003560e01c8063796daaf511610066578063796daaf5146101085780638da5cb5b1461011b578063d02352371461012c578063e261f1e51461014d578063f2fde38b146101a257600080fd5b80632b359bc5146100985780635b93f20d146100c857806367bdb2a1146100dd578063715018a614610100575b600080fd5b6001546100ab906001600160a01b031681565b6040516001600160a01b0390911681526020015b60405180910390f35b6100db6100d63660046105f8565b6101b5565b005b6100f06100eb36600461062d565b610277565b60405190151581526020016100bf565b6100db6102e4565b6100db6101163660046105f8565b6102f8565b6000546001600160a01b03166100ab565b61013f61013a366004610678565b6103a8565b6040519081526020016100bf565b61018361015b36600461062d565b60026020526000908152604090205460ff808216916101008104821691620100009091041683565b60408051931515845291151560208401521515908201526060016100bf565b6100db6101b036600461073a565b6104d5565b6101bd61054e565b60008281526002602052604090205460ff166101f45760405162461bcd60e51b81526004016101eb9061075c565b60405180910390fd5b6000828152600260205260409081902080548315156101000261ff00199091161790555182907f789fa050ad9f220ab6dedd8d420d591839605d46d8903e3ae4d9cbf50c0e45dd9061026b9084906040808252600790820152664469737075746560c81b6060820152901515602082015260800190565b60405180910390a25050565b60008181526002602052604081205460ff166102a55760405162461bcd60e51b81526004016101eb9061075c565b600082815260026020526040902054610100900460ff161580156102de575060008281526002602052604090205462010000900460ff16155b92915050565b6102ec61054e565b6102f660006105a8565b565b61030061054e565b60008281526002602052604090205460ff1661032e5760405162461bcd60e51b81526004016101eb9061075c565b600082815260026020526040908190208054831515620100000262ff0000199091161790555182907f789fa050ad9f220ab6dedd8d420d591839605d46d8903e3ae4d9cbf50c0e45dd9061026b9084906040808252600890820152674d6f72746761676560c01b6060820152901515602082015260800190565b60006103b261054e565b60015460405163c233557b60e01b81526000916001600160a01b03169063c233557b906103e590879087906004016107cf565b6020604051808303816000875af1158015610404573d6000803e3d6000fd5b505050506040513d601f19601f8201168201806040525081019061042891906107fb565b60408051606081018252600181526000602080830182815283850183815286845260029092529184902092518354925191511515620100000262ff0000199215156101000261ff00199215159290921661ffff19909416939093171716179055519091506001600160a01b0385169082907f9c4ad74928fec1ee86181680df0e76bf575b79ea2a0347f7ed270884bdd26ad7906104c6908790610814565b60405180910390a39392505050565b6104dd61054e565b6001600160a01b0381166105425760405162461bcd60e51b815260206004820152602660248201527f4f776e61626c653a206e6577206f776e657220697320746865207a65726f206160448201526564647265737360d01b60648201526084016101eb565b61054b816105a8565b50565b6000546001600160a01b031633146102f65760405162461bcd60e51b815260206004820181905260248201527f4f776e61626c653a2063616c6c6572206973206e6f7420746865206f776e657260448201526064016101eb565b600080546001600160a01b038381166001600160a01b0319831681178455604051919092169283917f8be0079c531659141344cd1fd0a4f28419497f9722a3daafe3b4186f6b6457e09190a35050565b6000806040838503121561060b57600080fd5b823591506020830135801515811461062257600080fd5b809150509250929050565b60006020828403121561063f57600080fd5b5035919050565b80356001600160a01b038116811461065d57600080fd5b919050565b634e487b7160e01b600052604160045260246000fd5b6000806040838503121561068b57600080fd5b61069483610646565b9150602083013567ffffffffffffffff808211156106b157600080fd5b818501915085601f8301126106c557600080fd5b8135818111156106d7576106d7610662565b604051601f8201601f19908116603f011681019083821181831017156106ff576106ff610662565b8160405282815288602084870101111561071857600080fd5b8260208601602083013760006020848301015280955050505050509250929050565b60006020828403121561074c57600080fd5b61075582610646565b9392505050565b60208082526013908201527213185b99081b9bdd081c9959da5cdd195c9959606a1b604082015260600190565b6000815180845260005b818110156107af57602081850181015186830182015201610793565b506000602082860101526020601f19601f83011685010191505092915050565b6001600160a01b03831681526040602082018190526000906107f390830184610789565b949350505050565b60006020828403121561080d57600080fd5b5051919050565b602081526000610755602083018461078956fea26469706673582212208e5cf7cc4d72fa3aefd81b2e6e883cec357333d83758c5add715080647d4e3f564736f6c63430008180033",
  "linkReferences": {},
  "deployedLinkReferences": {}
}