{
  "_format": "hh-sol-artifact-1",
  "contractName": "LandRegistry",
  "sourceName": "contracts/LandRegistry.sol",
  "abi": [
    {
      "inputs": [
        {
          "internalType": "address",
          "name": "_landNFTAddress",
          "type": "address"
        }
      ],
      "stateMutability": "nonpayable",
      "type": "constructor"
    },
    {
      "anonymous": false,
      "inputs": [
        {
          "indexed": true,
          "internalType": "uint256",
          "name": "tokenId",
          "type": "uint256"
        },
        {
          "indexed": true,
          "internalType": "address",
          "name": "owner",
          "type": "address"
        },
        {
          "indexed": false,
          "internalType": "string",
          "name": "tokenURI",
          "type": "string"
        }
      ],
      "name": "LandCreated",
      "type": "event"
    },
    {
      "anonymous": false,
      "inputs": [
        {
          "indexed": true,
          "internalType": "uint256",
          "name": "tokenId",
          "type": "uint256"
        },
        {
          "indexed": false,
          "internalType": "enum LandRegistry.LandStatus",
          "name": "oldStatus",
          "type": "uint8"
        },
        {
          "indexed": false,
          "internalType": "enum LandRegistry.LandStatus",
          "name": "newStatus",
          "type": "uint8"
        }
      ],
      "name": "LandStatusChanged",
      "type": "event"
    },
    {
      "anonymous": false,
      "inputs": [
        {
          "indexed": true,
          "internalType": "address",
          "name": "previousOwner",
          "type": "address"
        },
        {
          "indexed": true,
          "internalType": "address",
          "name": "newOwner",
          "type": "address"
        }
      ],
      "name": "OwnershipTransferred",
      "type": "event"
    },
    {
      "anonymous": false,
      "inputs": [
        {
          "indexed": false,
          "internalType": "address",
          "name": "account",
          "type": "address"
        }
      ],
      "name": "Paused",
      "type": "event"
    },
    {
      "anonymous": false,
      "inputs": [
        {
          "indexed": false,
          "internalType": "address",
          "name": "account",
          "type": "address"
        }
      ],
      "name": "Unpaused",
      "type": "event"
    },
    {
      "inputs": [
        {
          "internalType": "uint256",
          "name": "tokenId",
          "type": "uint256"
        }
      ],
      "name": "approveLand",
      "outputs": [],
      "stateMutability": "nonpayable",
      "type": "function"
    },
    {
      "inputs": [
        {
          "internalType": "uint256",
          "name": "tokenId",
          "type": "uint256"
        }
      ],
      "name": "canTransact",
      "outputs": [
        {
          "internalType": "bool",
          "name": "",
          "type": "bool"
        }
      ],
      "stateMutability": "view",
      "type": "function"
    },
    {
      "inputs": [
        {
          "internalType": "uint256",
          "name": "tokenId",
          "type": "uint256"
        }
      ],
      "name": "cancelTransaction",
      "outputs": [],
      "stateMutability": "nonpayable",
      "type": "function"
    },
    {
      "inputs": [
        {
          "internalType": "uint256",
          "name": "tokenId",
          "type": "uint256"
        }
      ],
      "name": "completeTransfer",
      "outputs": [],
      "stateMutability": "nonpayable",
      "type": "function"
    },
    {
      "inputs": [
        {
          "internalType": "address",
          "name": "to",
          "type": "address"
        },
        {
          "internalType": "string",
          "name": "tokenURI",
          "type": "string"
        }
      ],
      "name": "createLandRecord",
      "outputs": [
        {
          "internalType": "uint256",
          "name": "",
          "type": "uint256"
        }
      ],
      "stateMutability": "nonpayable",
      "type": "function"
    },
    {
      "inputs": [
        {
          "internalType": "uint256",
          "name": "tokenId",
          "type": "uint256"
        }
      ],
      "name": "getLandMetadata",
      "outputs": [
        {
          "internalType": "string",
          "name": "",
          "type": "string"
        }
      ],
      "stateMutability": "view",
      "type": "function"
    },
    {
      "inputs": [
        {
          "internalType": "uint256",
          "name": "tokenId",
          "type": "uint256"
        }
      ],
      "name": "getLandStatus",
      "outputs": [
        {
          "internalType": "enum LandRegistry.LandStatus",
          "name": "",
          "type": "uint8"
        }
      ],
      "stateMutability": "view",
      "type": "function"
    },
    {
      "inputs": [
        {
          "internalType": "uint256",
          "name": "tokenId",
          "type": "uint256"
        }
      ],
      "name": "isBlocked",
      "outputs": [
        {
          "internalType": "bool",
          "name": "",
          "type": "bool"
        }
      ],
      "stateMutability": "view",
      "type": "function"
    },
    {
      "inputs": [],
      "name": "landNFTContract",
      "outputs": [
        {
          "internalType": "contract LandNFT",
          "name": "",
          "type": "address"
        }
      ],
      "stateMutability": "view",
      "type": "function"
    },
    {
      "inputs": [
        {
          "internalType": "uint256",
          "name": "",
          "type": "uint256"
        }
      ],
      "name": "lands",
      "outputs": [
        {
          "internalType": "uint256",
          "name": "tokenId",
          "type": "uint256"
        },
        {
          "internalType": "enum LandRegistry.LandStatus",
          "name": "status",
          "type": "uint8"
        },
        {
          "internalType": "string",
          "name": "rejectReason",
          "type": "string"
        },
        {
          "internalType": "string",
          "name": "metadataUri",
          "type": "string"
        },
        {
          "internalType": "uint256",
          "name": "createdAt",
          "type": "uint256"
        },
        {
          "internalType": "uint256",
          "name": "updatedAt",
          "type": "uint256"
        }
      ],
      "stateMutability": "view",
      "type": "function"
    },
    {
      "inputs": [
        {
          "internalType": "uint256",
          "name": "tokenId",
          "type": "uint256"
        }
      ],
      "name": "mortgage",
      "outputs": [],
      "stateMutability": "nonpayable",
      "type": "function"
    },
    {
      "inputs": [],
      "name": "owner",
      "outputs": [
        {
          "internalType": "address",
          "name": "",
          "type": "address"
        }
      ],
      "stateMutability": "view",
      "type": "function"
    },
    {
      "inputs": [],
      "name": "pause",
      "outputs": [],
      "stateMutability": "nonpayable",
      "type": "function"
    },
    {
      "inputs": [],
      "name": "paused",
      "outputs": [
        {
          "internalType": "bool",
          "name": "",
          "type": "bool"
        }
      ],
      "stateMutability": "view",
      "type": "function"
    },
    {
      "inputs": [
        {
          "internalType": "address",
          "name": "from",
          "type": "address"
        },
        {
          "internalType": "address",
          "name": "to",
          "type": "address"
        },
        {
          "internalType": "uint256",
          "name": "tokenId",
          "type": "uint256"
        }
      ],
      "name": "proxyAdminTransfer",
      "outputs": [],
      "stateMutability": "nonpayable",
      "type": "function"
    },
    {
      "inputs": [
        {
          "internalType": "uint256",
          "name": "tokenId",
          "type": "uint256"
        }
      ],
      "name": "raiseDispute",
      "outputs": [],
      "stateMutability": "nonpayable",
      "type": "function"
    },
    {
      "inputs": [
        {
          "internalType": "uint256",
          "name": "tokenId",
          "type": "uint256"
        },
        {
          "internalType": "string",
          "name": "reason",
          "type": "string"
        }
      ],
      "name": "rejectLand",
      "outputs": [],
      "stateMutability": "nonpayable",
      "type": "function"
    },
    {
      "inputs": [
        {
          "internalType": "uint256",
          "name": "tokenId",
          "type": "uint256"
        }
      ],
      "name": "releaseMortgage",
      "outputs": [],
      "stateMutability": "nonpayable",
      "type": "function"
    },
    {
      "inputs": [],
      "name": "renounceOwnership",
      "outputs": [],
      "stateMutability": "nonpayable",
      "type": "function"
    },
    {
      "inputs": [
        {
          "internalType": "uint256",
          "name": "tokenId",
          "type": "uint256"
        }
      ],
      "name": "resolveDispute",
      "outputs": [],
      "stateMutability": "nonpayable",
      "type": "function"
    },
    {
      "inputs": [
        {
          "internalType": "uint256",
          "name": "tokenId",
          "type": "uint256"
        }
      ],
      "name": "startTransaction",
      "outputs": [],
      "stateMutability": "nonpayable",
      "type": "function"
    },
    {
      "inputs": [
        {
          "internalType": "uint256",
          "name": "tokenId",
          "type": "uint256"
        }
      ],
      "name": "submitForApproval",
      "outputs": [],
      "stateMutability": "nonpayable",
      "type": "function"
    },
    {
      "inputs": [
        {
          "internalType": "address",
          "name": "newOwner",
          "type": "address"
        }
      ],
      "name": "transferOwnership",
      "outputs": [],
      "stateMutability": "nonpayable",
      "type": "function"
    },
    {
      "inputs": [],
      "name": "unpause",
      "outputs": [],
      "stateMutability": "nonpayable",
      "type": "function"
    }
  ],
  "bytecode": "0x6080346100b957601f61174d38819003918201601f19168301916001600160401b038311848410176100be578084926020946040528339810103126100b957516001600160a01b0390818116908190036100b95760005460405192339082167f8be0079c531659141344cd1fd0a4f28419497f9722a3daafe3b4186f6b6457e0600080a36001600160a81b0319163360ff60a01b191617600055600180546001600160a01b03191691909117905561167890816100d58239f35b600080fd5b634e487b7160e01b600052604160045260246000fdfe6080604052600436101561001257600080fd5b6000803560e01c806304835426146111d55780631be3175e146111315780632b359bc5146111085780632cb0aa31146110275780633380c0d814610fcd57806338c887b214610f6e5780633f4ba83a14610ed35780634b45ca8f14610e34578063562b22dd14610d745780635912239314610b9c5780635c975abb14610b77578063619c83ed14610ad157806367bdb2a114610a895780636c2a4ed214610a3a578063715018a6146109e05780638456cb591461097f5780638da5cb5b14610958578063a5c1674e146108b2578063ab5d247514610457578063b0aa98c7146103e5578063c2b7b86814610343578063e261f1e5146102ac578063f2fde38b146101e15763f6f845081461012557600080fd5b346101de5760203660031901126101de57600435610141611534565b61014961158c565b610152816114e4565b808252600260205260ff60016040842001541660088110156101ca57600261017a91146113aa565b806000526002602052600080516020611623833981519152604060ff6101bf826000206001810190815491600485198416179055600542910155835192839116611215565b60046020820152a280f35b634e487b7160e01b83526021600452602483fd5b80fd5b50346101de5760203660031901126101de576101fb611238565b610203611534565b6001600160a01b0390811690811561025857600054826bffffffffffffffffffffffff60a01b821617600055167f8be0079c531659141344cd1fd0a4f28419497f9722a3daafe3b4186f6b6457e0600080a380f35b60405162461bcd60e51b815260206004820152602660248201527f4f776e61626c653a206e6577206f776e657220697320746865207a65726f206160448201526564647265737360d01b6064820152608490fd5b50346101de5760203660031901126101de576040906004358152600260205220805460ff600183015416916102e360028201611305565b6103346102f260038401611305565b610326600560048601549501549361031560405198899889526020890190611215565b60c0604088015260c0870190611253565b908582036060870152611253565b91608084015260a08301520390f35b50346101de5760203660031901126101de57600435610360611534565b61036861158c565b610371816114e4565b808252600260205260ff60016040842001541660088110156101ca576007036103a05761039d906115d3565b80f35b60405162461bcd60e51b815260206004820152601b60248201527f4d75737420626520696e205452414e485f4348415020737461746500000000006044820152606490fd5b50346101de5760203660031901126101de57600435610403816114e4565b8152600260205260ff60016040832001541690600882101561044357602060078314838115610438575b506040519015158152f35b60069150148261042d565b634e487b7160e01b81526021600452602490fd5b50346101de5760403660031901126101de57610471611238565b90602480359067ffffffffffffffff82116108ae57366023830112156108ae57816004013567ffffffffffffffff811161085457604051926104bd601f8301601f191660200185611293565b8184523683838301011161089557818592846020930183870137840101526104e3611534565b6104eb61158c565b60018060a01b03938460015416936020604051809663c233557b60e01b82528885166004830152604086830152818481610528604482018b611253565b03925af19485156108a1578195610869575b506040519260c0840184811067ffffffffffffffff8211176108545760405285845260208401918083526040516020810181811067ffffffffffffffff82111761083f57604052818152604086019081528660608701524260808701524260a08701528782526002602052604082209386518555600185019051600881101561082b5760ff801983541691161790555180519067ffffffffffffffff8211610818576105f6826105ed60028801546112cb565b6002880161148e565b602090601f83116001146107a95761062692918491836106f4575b50508160011b916000199060031b1c19161790565b60028401555b606085015180519267ffffffffffffffff841161079757509183918895936106678361065e600360209e9901546112cb565b6003870161148e565b8a91601f84116001146106ff578360059460a0947faf3b58634809a189c48e8dc732039c10ddc6022ea3b353f0317bbb7adcb308ed9a9b946106bd94926106f45750508160011b916000199060031b1c19161790565b60038501555b6080810151600485015501519101556106e9604051928392898452169588830190611253565b0390a3604051908152f35b015190503880610611565b90600385999493990182528b8220915b601f198416811061077d575082600594927faf3b58634809a189c48e8dc732039c10ddc6022ea3b353f0317bbb7adcb308ed999a60019360a096601f19811610610764575b505050811b0160038501556106c3565b015160001960f88460031b161c19169055388080610754565b818a01518355988c01988b98506001909201918c0161070f565b634e487b7160e01b8352604160045282fd5b9190600286018452602084209084935b601f19841685106107fd576001945083601f198116106107e4575b505050811b01600284015561062c565b015160001960f88460031b161c191690553880806107d4565b818101518355602094850194600190930192909101906107b9565b5050634e487b7160e01b81526041600452fd5b5050634e487b7160e01b8252506021600452fd5b83634e487b7160e01b60005260416004526000fd5b50634e487b7160e01b60009081526041600452fd5b9094506020813d602011610899575b8161088560209383611293565b810103126108955751933861053a565b8480fd5b3d9150610878565b50604051903d90823e3d90fd5b8280fd5b50346101de5760203660031901126101de576004356108cf611534565b6108d761158c565b6108e0816114e4565b808252600260205260ff60016040842001541660088110156101ca57600261090891146113aa565b806000526002602052600080516020611623833981519152604060ff61094d826000206001810190815491600785198416179055600542910155835192839116611215565b60076020820152a280f35b50346101de57806003193601126101de57546040516001600160a01b039091168152602090f35b50346101de57806003193601126101de57610998611534565b6109a061158c565b805460ff60a01b1916600160a01b1781556040513381527f62e78cea01bee320cd4e420270b5ea74000d11b0c9f74754ebdbfc544b05a25890602090a180f35b50346101de57806003193601126101de576109f9611534565b600080546001600160a01b0319811682556001600160a01b03167f8be0079c531659141344cd1fd0a4f28419497f9722a3daafe3b4186f6b6457e08280a380f35b50346101de5760203660031901126101de57610a7160036040610a8593600435610a63816114e4565b815260026020522001611305565b604051918291602083526020830190611253565b0390f35b50346101de5760203660031901126101de57600435610aa7816114e4565b8152600260205260ff60016040832001541690600882101561044357602082600260405191148152f35b50346101de5760203660031901126101de57600435610aee611534565b610af661158c565b610aff816114e4565b808252600260205260ff60016040842001541660088110156101ca576004610b2791146113f6565b806000526002602052600080516020611623833981519152604060ff610b6c826000206001810190815491600585198416179055600542910155835192839116611215565b60056020820152a280f35b50346101de57806003193601126101de5760ff6020915460a01c166040519015158152f35b50346101de5760403660031901126101de5760043567ffffffffffffffff602480358281116108955736602382011215610895578060040135928311610895573682848301011161089557610bef611534565b610bf761158c565b610c00846114e4565b8385526020926002845260019260ff84604089200154166008811015610d615784610c2b9114611442565b858752600285526002604088200192610c4e83610c4886546112cb565b8661148e565b879088601f8511600114610cdf5794610c9c856003966000805160206116238339815191529a96610ccb9660409b9660ff9b93610cd2575b5050508160011b916000199060031b1c19161790565b90555b876000526002835285600020908101908154918587198416179055600542910155855194859116611215565b820152a280f35b0101359050388080610c86565b50848952868920929091601f1985168a5b818110610d4a575096856000805160206116238339815191529995610ccb95839560ff9a9560039a60409d10610d2f575b50505050811b019055610c9f565b60001960f8868d1b161c199201013516905538808080610d21565b848301840135865594880194918901918901610cf0565b50634e487b7160e01b8752602160045286fd5b50346101de5760603660031901126101de57610d8e611238565b6024356001600160a01b038181169284928490036108ae57610dae611534565b610db661158c565b816001541690813b15610e3057836064926040519687958694631b4e583d60e31b8652166004850152602484015260443560448401525af18015610e2557610dfc575080f35b67ffffffffffffffff8111610e115760405280f35b634e487b7160e01b82526041600452602482fd5b6040513d84823e3d90fd5b8380fd5b50346101de5760203660031901126101de57600435610e51611534565b610e5961158c565b610e62816114e4565b808252600260205260ff60016040842001541660088110156101ca57600603610e8e5761039d906115d3565b60405162461bcd60e51b815260206004820152601960248201527f4d75737420626520696e205448455f43484150207374617465000000000000006044820152606490fd5b50346101de57806003193601126101de57610eec611534565b805460ff8160a01c1615610f325760ff60a01b191681556040513381527f5db9ee0a495bf2e6ff9c91a7834c1ba4fdd244a5e8aa4e537bd38aeae4b073aa90602090a180f35b60405162461bcd60e51b815260206004820152601460248201527314185d5cd8589b194e881b9bdd081c185d5cd95960621b6044820152606490fd5b50346101de5760203660031901126101de57600435610f8b611534565b610f9361158c565b610f9c816114e4565b808252600260205260ff60016040842001541660088110156101ca5790610fc8600161039d9314611442565b6115d3565b50346101de5760203660031901126101de57600435610fea611534565b610ff261158c565b610ffb816114e4565b808252600260205260ff60016040842001541660088110156101ca5790610fc8600461039d93146113f6565b50346101de5760203660031901126101de57600435611044611534565b61104c61158c565b611055816114e4565b808252600260205260ff60016040842001541660088110156101ca576110c3578082526002602052600080516020611623833981519152604060ff6110b88286206001810190815491600185198416179055600542910155835192839116611215565b60016020820152a280f35b60405162461bcd60e51b815260206004820152601960248201527f4d75737420626520696e204b484f495f54414f207374617465000000000000006044820152606490fd5b50346101de57806003193601126101de576001546040516001600160a01b039091168152602090f35b50346101de5760203660031901126101de5760043561114e611534565b61115661158c565b61115f816114e4565b808252600260205260ff60016040842001541660088110156101ca57600261118791146113aa565b8082526002602052600080516020611623833981519152604060ff6111ca8286206001810190815491600685198416179055600542910155835192839116611215565b60066020820152a280f35b50346101de5760203660031901126101de5760ff600160406020936004356111fc816114e4565b815260028552200154166112136040518092611215565bf35b9060088210156112225752565b634e487b7160e01b600052602160045260246000fd5b600435906001600160a01b038216820361124e57565b600080fd5b919082519283825260005b84811061127f575050826000602080949584010152601f8019910116010190565b60208183018101518483018201520161125e565b90601f8019910116810190811067ffffffffffffffff8211176112b557604052565b634e487b7160e01b600052604160045260246000fd5b90600182811c921680156112fb575b60208310146112e557565b634e487b7160e01b600052602260045260246000fd5b91607f16916112da565b90604051918260008254611318816112cb565b908184526020946001916001811690816000146113885750600114611349575b50505061134792500383611293565b565b600090815285812095935091905b8183106113705750506113479350820101388080611338565b85548884018501529485019487945091830191611357565b9250505061134794925060ff191682840152151560051b820101388080611338565b156113b157565b60405162461bcd60e51b815260206004820152601a60248201527f4d75737420626520696e2044415f4341505f534f2073746174650000000000006044820152606490fd5b156113fd57565b60405162461bcd60e51b815260206004820152601f60248201527f4d75737420626520696e2044414e475f4749414f5f44494348207374617465006044820152606490fd5b1561144957565b60405162461bcd60e51b815260206004820152601a60248201527f4d75737420626520696e2043484f5f44555945542073746174650000000000006044820152606490fd5b90601f811161149c57505050565b6000916000526020600020906020601f850160051c830194106114da575b601f0160051c01915b8281106114cf57505050565b8181556001016114c3565b90925082906114ba565b6000526002602052604060002054156114f957565b60405162461bcd60e51b815260206004820152601360248201527213185b99081b9bdd081c9959da5cdd195c9959606a1b6044820152606490fd5b6000546001600160a01b0316330361154857565b606460405162461bcd60e51b815260206004820152602060248201527f4f776e61626c653a2063616c6c6572206973206e6f7420746865206f776e65726044820152fd5b60ff60005460a01c1661159b57565b60405162461bcd60e51b815260206004820152601060248201526f14185d5cd8589b194e881c185d5cd95960821b6044820152606490fd5b806000526002602052600080516020611623833981519152604060ff611618826000206001810190815491600285198416179055600542910155835192839116611215565b60026020820152a256fe7bae5b3937f1c50ff50f2ff21b403739914664ee08b38898777aee11eba3ea1fa264697066735822122048b8e84436076f48c3c55e33b3fb9fe38551d2694b02fb3607f1e8883395dfc664736f6c63430008180033",
  "linkReferences": {},
  "deployedLinkReferences": {}
}