{"contracts/MultiSigWorkflow.sol":{"MultiSigWorkflow":{"abi":[{"inputs":[],"stateMutability":"nonpayable","type":"constructor"},{"anonymous":false,"inputs":[{"indexed":true,"internalType":"uint256","name":"transactionId","type":"uint256"},{"indexed":false,"internalType":"string","name":"documentCID","type":"string"},{"indexed":true,"internalType":"address","name":"creator","type":"address"}],"name":"TransactionCreated","type":"event"},{"anonymous":false,"inputs":[{"indexed":true,"internalType":"uint256","name":"transactionId","type":"uint256"},{"indexed":true,"internalType":"address","name":"signer","type":"address"},{"indexed":false,"internalType":"enum MultiSigWorkflow.SignerRole","name":"role","type":"uint8"},{"indexed":false,"internalType":"bool","name":"isApproved","type":"bool"}],"name":"TransactionSigned","type":"event"},{"anonymous":false,"inputs":[{"indexed":true,"internalType":"uint256","name":"transactionId","type":"uint256"},{"indexed":false,"internalType":"enum MultiSigWorkflow.TransactionStatus","name":"newStatus","type":"uint8"}],"name":"TransactionStatusChanged","type":"event"},{"inputs":[],"name":"REQUIRED_CB_SIGS","outputs":[{"internalType":"uint8","name":"","type":"uint8"}],"stateMutability":"view","type":"function"},{"inputs":[],"name":"REQUIRED_LD_SIGS","outputs":[{"internalType":"uint8","name":"","type":"uint8"}],"stateMutability":"view","type":"function"},{"inputs":[],"name":"admin","outputs":[{"internalType":"address","name":"","type":"address"}],"stateMutability":"view","type":"function"},{"inputs":[{"internalType":"string","name":"_documentCID","type":"string"}],"name":"createTransaction","outputs":[{"internalType":"uint256","name":"","type":"uint256"}],"stateMutability":"nonpayable","type":"function"},{"inputs":[{"internalType":"uint256","name":"_txId","type":"uint256"}],"name":"getTransactionSigners","outputs":[{"internalType":"address[]","name":"","type":"address[]"}],"stateMutability":"view","type":"function"},{"inputs":[{"internalType":"address","name":"_user","type":"address"},{"internalType":"enum MultiSigWorkflow.SignerRole","name":"_role","type":"uint8"}],"name":"setUserRole","outputs":[],"stateMutability":"nonpayable","type":"function"},{"inputs":[{"internalType":"uint256","name":"_txId","type":"uint256"},{"internalType":"bool","name":"_isApproved","type":"bool"},{"internalType":"string","name":"_reason","type":"string"}],"name":"signTransaction","outputs":[],"stateMutability":"nonpayable","type":"function"},{"inputs":[],"name":"transactionCount","outputs":[{"internalType":"uint256","name":"","type":"uint256"}],"stateMutability":"view","type":"function"},{"inputs":[{"internalType":"uint256","name":"","type":"uint256"},{"internalType":"address","name":"","type":"address"}],"name":"transactionSignatures","outputs":[{"internalType":"address","name":"signer","type":"address"},{"internalType":"enum MultiSigWorkflow.SignerRole","name":"role","type":"uint8"},{"internalType":"uint256","name":"timestamp","type":"uint256"},{"internalType":"bool","name":"isApproved","type":"bool"},{"internalType":"string","name":"reason","type":"string"}],"stateMutability":"view","type":"function"},{"inputs":[{"internalType":"uint256","name":"","type":"uint256"},{"internalType":"uint256","name":"","type":"uint256"}],"name":"transactionSigners","outputs":[{"internalType":"address","name":"","type":"address"}],"stateMutability":"view","type":"function"},{"inputs":[{"internalType":"uint256","name":"","type":"uint256"}],"name":"transactions","outputs":[{"internalType":"uint256","name":"transactionId","type":"uint256"},{"internalType":"string","name":"documentCID","type":"string"},{"internalType":"address","name":"creator","type":"address"},{"internalType":"uint8","name":"cbSignaturesCount","type":"uint8"},{"internalType":"uint8","name":"ldSignaturesCount","type":"uint8"},{"internalType":"enum MultiSigWorkflow.TransactionStatus","name":"status","type":"uint8"}],"stateMutability":"view","type":"function"},{"inputs":[{"internalType":"address","name":"","type":"address"}],"name":"userRoles","outputs":[{"internalType":"enum MultiSigWorkflow.SignerRole","name":"","type":"uint8"}],"stateMutability":"view","type":"function"}],"evm":{"bytecode":{"linkReferences":{},"object":"608060405234801561001057600080fd5b50600580546001600160a01b03191633179055611053806100326000396000f3fe608060405234801561001057600080fd5b50600436106100b45760003560e01c806374d5e1001161007157806374d5e1001461016c5780639ace38c21461019c578063a9836205146101c1578063b5cea019146101e5578063b77bf600146101ed578063f851a440146101f657600080fd5b806303a69611146100b957806312255d09146100ce5780633ecc1721146100ed5780634985e4891461010d5780634a5f11c8146101205780634d9e78d41461014b575b600080fd5b6100cc6100c7366004610ad3565b610209565b005b6100d6600181565b60405160ff90911681526020015b60405180910390f35b6101006100fb366004610b0e565b610292565b6040516100e49190610b27565b6100cc61011b366004610c17565b6102fe565b61013361012e366004610c75565b610793565b6040516001600160a01b0390911681526020016100e4565b61015e610159366004610c97565b6107cb565b6040519081526020016100e4565b61018f61017a366004610cd4565b60046020526000908152604090205460ff1681565b6040516100e49190610d20565b6101af6101aa366004610b0e565b61090f565b6040516100e496959493929190610d8a565b6101d46101cf366004610ddd565b6109e3565b6040516100e4959493929190610e09565b6100d6600281565b61015e60005481565b600554610133906001600160a01b031681565b6005546001600160a01b031633146102545760405162461bcd60e51b81526020600482015260096024820152682737ba1030b236b4b760b91b60448201526064015b60405180910390fd5b6001600160a01b0382166000908152600460205260409020805482919060ff1916600183600281111561028957610289610cf6565b02179055505050565b6000818152600360209081526040918290208054835181840281018401909452808452606093928301828280156102f257602002820191906000526020600020905b81546001600160a01b031681526001909101906020018083116102d4575b50505050509050919050565b6000838152600160205260408120805490910361035d5760405162461bcd60e51b815260206004820152601a60248201527f5472616e73616374696f6e20646f6573206e6f74206578697374000000000000604482015260640161024b565b60006002820154600160b01b900460ff16600381111561037f5761037f610cf6565b146103cc5760405162461bcd60e51b815260206004820152601a60248201527f5472616e73616374696f6e206973206e6f742070656e64696e67000000000000604482015260640161024b565b6000848152600260209081526040808320338452909152902060010154156104275760405162461bcd60e51b815260206004820152600e60248201526d105b1c9958591e481cda59db995960921b604482015260640161024b565b3360009081526004602052604090205460ff16600181600281111561044e5761044e610cf6565b148061046b5750600281600281111561046957610469610cf6565b145b6104ab5760405162461bcd60e51b8152602060048201526011602482015270556e617574686f72697a656420726f6c6560781b604482015260640161024b565b6040518060a00160405280336001600160a01b031681526020018260028111156104d7576104d7610cf6565b8152426020808301919091528615156040808401919091526060909201869052600088815260028083528382203383528352929020835181546001600160a01b03919091166001600160a01b0319821681178355928501519193919284926001600160a81b03199092161790600160a01b90849081111561055a5761055a610cf6565b021790555060408201516001820155606082015160028201805460ff1916911515919091179055608082015160038201906105959082610ed1565b50505060008581526003602090815260408220805460018101825590835291200180546001600160a01b0319163317905583156106f65760018160028111156105e0576105e0610cf6565b0361061f57600282018054600160a01b900460ff1690601461060183610fa7565b91906101000a81548160ff021916908360ff1602179055505061066e565b600281600281111561063357610633610cf6565b0361066e57600282018054600160a81b900460ff1690601561065483610fa7565b91906101000a81548160ff021916908360ff160217905550505b600282810154600160a01b900460ff161080159061069c575060028201546001600160a81b90910460ff1610155b156106f15760028201805460ff60b01b1916600160b01b17905560405185907e3013893708bd175bc8eeedd6ea1e367024bbc9bc7b110e7ed37bc77aceac57906106e890600190610fc6565b60405180910390a25b610748565b6002828101805460ff60b01b1916600160b01b830217905550847e3013893708bd175bc8eeedd6ea1e367024bbc9bc7b110e7ed37bc77aceac57600260405161073f9190610fc6565b60405180910390a25b336001600160a01b0316857f9d9bea5c4781935c57fd5f2a2f437cb750e3fb646da05e8aa40a122acbcdbd318387604051610784929190610fd4565b60405180910390a35050505050565b600360205281600052604060002081815481106107af57600080fd5b6000918252602090912001546001600160a01b03169150829050565b6000805481806107da83610ff1565b9091555050600080546040805160c08101825282815260208082018781523383850152606083018690526080830186905260a083018690528486526001918290529290942081518155915192939092908201906108379082610ed1565b5060408201516002820180546060850151608086015160ff908116600160a81b0260ff60a81b1991909216600160a01b026001600160a81b03199093166001600160a01b0390951694909417919091179283168117825560a08501519260ff60b01b1990911661ffff60a81b1990911617600160b01b8360038111156108bf576108bf610cf6565b0217905550905050336001600160a01b0316817f6b788bd9be8b568189b1598944788128be6dc1ad3c711fdc84fa4fa1fa21ea1885604051610901919061100a565b60405180910390a392915050565b60016020819052600091825260409091208054918101805461093090610e46565b80601f016020809104026020016040519081016040528092919081815260200182805461095c90610e46565b80156109a95780601f1061097e576101008083540402835291602001916109a9565b820191906000526020600020905b81548152906001019060200180831161098c57829003601f168201915b505050600290930154919250506001600160a01b0381169060ff600160a01b8204811691600160a81b8104821691600160b01b9091041686565b6002602081815260009384526040808520909152918352912080546001820154928201546003830180546001600160a01b03841695600160a01b90940460ff908116959316929190610a3490610e46565b80601f0160208091040260200160405190810160405280929190818152602001828054610a6090610e46565b8015610aad5780601f10610a8257610100808354040283529160200191610aad565b820191906000526020600020905b815481529060010190602001808311610a9057829003601f168201915b5050505050905085565b80356001600160a01b0381168114610ace57600080fd5b919050565b60008060408385031215610ae657600080fd5b610aef83610ab7565b9150602083013560038110610b0357600080fd5b809150509250929050565b600060208284031215610b2057600080fd5b5035919050565b6020808252825182820181905260009190848201906040850190845b81811015610b685783516001600160a01b031683529284019291840191600101610b43565b50909695505050505050565b634e487b7160e01b600052604160045260246000fd5b600082601f830112610b9b57600080fd5b813567ffffffffffffffff80821115610bb657610bb6610b74565b604051601f8301601f19908116603f01168101908282118183101715610bde57610bde610b74565b81604052838152866020858801011115610bf757600080fd5b836020870160208301376000602085830101528094505050505092915050565b600080600060608486031215610c2c57600080fd5b8335925060208401358015158114610c4357600080fd5b9150604084013567ffffffffffffffff811115610c5f57600080fd5b610c6b86828701610b8a565b9150509250925092565b60008060408385031215610c8857600080fd5b50508035926020909101359150565b600060208284031215610ca957600080fd5b813567ffffffffffffffff811115610cc057600080fd5b610ccc84828501610b8a565b949350505050565b600060208284031215610ce657600080fd5b610cef82610ab7565b9392505050565b634e487b7160e01b600052602160045260246000fd5b60038110610d1c57610d1c610cf6565b9052565b60208101610d2e8284610d0c565b92915050565b6000815180845260005b81811015610d5a57602081850181015186830182015201610d3e565b506000602082860101526020601f19601f83011685010191505092915050565b60048110610d1c57610d1c610cf6565b86815260c060208201526000610da360c0830188610d34565b6001600160a01b038716604084015260ff8681166060850152851660808401529050610dd260a0830184610d7a565b979650505050505050565b60008060408385031215610df057600080fd5b82359150610e0060208401610ab7565b90509250929050565b6001600160a01b0386168152610e226020820186610d0c565b836040820152821515606082015260a060808201526000610dd260a0830184610d34565b600181811c90821680610e5a57607f821691505b602082108103610e7a57634e487b7160e01b600052602260045260246000fd5b50919050565b601f821115610ecc576000816000526020600020601f850160051c81016020861015610ea95750805b601f850160051c820191505b81811015610ec857828155600101610eb5565b5050505b505050565b815167ffffffffffffffff811115610eeb57610eeb610b74565b610eff81610ef98454610e46565b84610e80565b602080601f831160018114610f345760008415610f1c5750858301515b600019600386901b1c1916600185901b178555610ec8565b600085815260208120601f198616915b82811015610f6357888601518255948401946001909101908401610f44565b5085821015610f815787850151600019600388901b60f8161c191681555b5050505050600190811b01905550565b634e487b7160e01b600052601160045260246000fd5b600060ff821660ff8103610fbd57610fbd610f91565b60010192915050565b60208101610d2e8284610d7a565b60408101610fe28285610d0c565b82151560208301529392505050565b60006001820161100357611003610f91565b5060010190565b602081526000610cef6020830184610d3456fea26469706673582212208d39dec94cc62a86434d85c26a1eda2ad8ca137a066a4582632ebe1f3e604daf64736f6c63430008180033","opcodes":"PUSH1 0x80 PUSH1 0x40 MSTORE CALLVALUE DUP1 ISZERO PUSH2 0x10 JUMPI PUSH1 0x0 DUP1 REVERT JUMPDEST POP PUSH1 0x5 DUP1 SLOAD PUSH1 0x1 PUSH1 0x1 PUSH1 0xA0 SHL SUB NOT AND CALLER OR SWAP1 SSTORE PUSH2 0x1053 DUP1 PUSH2 0x32 PUSH1 0x0 CODECOPY PUSH1 0x0 RETURN INVALID PUSH1 0x80 PUSH1 0x40 MSTORE CALLVALUE DUP1 ISZERO PUSH2 0x10 JUMPI PUSH1 0x0 DUP1 REVERT JUMPDEST POP PUSH1 0x4 CALLDATASIZE LT PUSH2 0xB4 JUMPI PUSH1 0x0 CALLDATALOAD PUSH1 0xE0 SHR DUP1 PUSH4 0x74D5E100 GT PUSH2 0x71 JUMPI DUP1 PUSH4 0x74D5E100 EQ PUSH2 0x16C JUMPI DUP1 PUSH4 0x9ACE38C2 EQ PUSH2 0x19C JUMPI DUP1 PUSH4 0xA9836205 EQ PUSH2 0x1C1 JUMPI DUP1 PUSH4 0xB5CEA019 EQ PUSH2 0x1E5 JUMPI DUP1 PUSH4 0xB77BF600 EQ PUSH2 0x1ED JUMPI DUP1 PUSH4 0xF851A440 EQ PUSH2 0x1F6 JUMPI PUSH1 0x0 DUP1 REVERT JUMPDEST DUP1 PUSH4 0x3A69611 EQ PUSH2 0xB9 JUMPI DUP1 PUSH4 0x12255D09 EQ PUSH2 0xCE JUMPI DUP1 PUSH4 0x3ECC1721 EQ PUSH2 0xED JUMPI DUP1 PUSH4 0x4985E489 EQ PUSH2 0x10D JUMPI DUP1 PUSH4 0x4A5F11C8 EQ PUSH2 0x120 JUMPI DUP1 PUSH4 0x4D9E78D4 EQ PUSH2 0x14B JUMPI JUMPDEST PUSH1 0x0 DUP1 REVERT JUMPDEST PUSH2 0xCC PUSH2 0xC7 CALLDATASIZE PUSH1 0x4 PUSH2 0xAD3 JUMP JUMPDEST PUSH2 0x209 JUMP JUMPDEST STOP JUMPDEST PUSH2 0xD6 PUSH1 0x1 DUP2 JUMP JUMPDEST PUSH1 0x40 MLOAD PUSH1 0xFF SWAP1 SWAP2 AND DUP2 MSTORE PUSH1 0x20 ADD JUMPDEST PUSH1 0x40 MLOAD DUP1 SWAP2 SUB SWAP1 RETURN JUMPDEST PUSH2 0x100 PUSH2 0xFB CALLDATASIZE PUSH1 0x4 PUSH2 0xB0E JUMP JUMPDEST PUSH2 0x292 JUMP JUMPDEST PUSH1 0x40 MLOAD PUSH2 0xE4 SWAP2 SWAP1 PUSH2 0xB27 JUMP JUMPDEST PUSH2 0xCC PUSH2 0x11B CALLDATASIZE PUSH1 0x4 PUSH2 0xC17 JUMP JUMPDEST PUSH2 0x2FE JUMP JUMPDEST PUSH2 0x133 PUSH2 0x12E CALLDATASIZE PUSH1 0x4 PUSH2 0xC75 JUMP JUMPDEST PUSH2 0x793 JUMP JUMPDEST PUSH1 0x40 MLOAD PUSH1 0x1 PUSH1 0x1 PUSH1 0xA0 SHL SUB SWAP1 SWAP2 AND DUP2 MSTORE PUSH1 0x20 ADD PUSH2 0xE4 JUMP JUMPDEST PUSH2 0x15E PUSH2 0x159 CALLDATASIZE PUSH1 0x4 PUSH2 0xC97 JUMP JUMPDEST PUSH2 0x7CB JUMP JUMPDEST PUSH1 0x40 MLOAD SWAP1 DUP2 MSTORE PUSH1 0x20 ADD PUSH2 0xE4 JUMP JUMPDEST PUSH2 0x18F PUSH2 0x17A CALLDATASIZE PUSH1 0x4 PUSH2 0xCD4 JUMP JUMPDEST PUSH1 0x4 PUSH1 0x20 MSTORE PUSH1 0x0 SWAP1 DUP2 MSTORE PUSH1 0x40 SWAP1 KECCAK256 SLOAD PUSH1 0xFF AND DUP2 JUMP JUMPDEST PUSH1 0x40 MLOAD PUSH2 0xE4 SWAP2 SWAP1 PUSH2 0xD20 JUMP JUMPDEST PUSH2 0x1AF PUSH2 0x1AA CALLDATASIZE PUSH1 0x4 PUSH2 0xB0E JUMP JUMPDEST PUSH2 0x90F JUMP JUMPDEST PUSH1 0x40 MLOAD PUSH2 0xE4 SWAP7 SWAP6 SWAP5 SWAP4 SWAP3 SWAP2 SWAP1 PUSH2 0xD8A JUMP JUMPDEST PUSH2 0x1D4 PUSH2 0x1CF CALLDATASIZE PUSH1 0x4 PUSH2 0xDDD JUMP JUMPDEST PUSH2 0x9E3 JUMP JUMPDEST PUSH1 0x40 MLOAD PUSH2 0xE4 SWAP6 SWAP5 SWAP4 SWAP3 SWAP2 SWAP1 PUSH2 0xE09 JUMP JUMPDEST PUSH2 0xD6 PUSH1 0x2 DUP2 JUMP JUMPDEST PUSH2 0x15E PUSH1 0x0 SLOAD DUP2 JUMP JUMPDEST PUSH1 0x5 SLOAD PUSH2 0x133 SWAP1 PUSH1 0x1 PUSH1 0x1 PUSH1 0xA0 SHL SUB AND DUP2 JUMP JUMPDEST PUSH1 0x5 SLOAD PUSH1 0x1 PUSH1 0x1 PUSH1 0xA0 SHL SUB AND CALLER EQ PUSH2 0x254 JUMPI PUSH1 0x40 MLOAD PUSH3 0x461BCD PUSH1 0xE5 SHL DUP2 MSTORE PUSH1 0x20 PUSH1 0x4 DUP3 ADD MSTORE PUSH1 0x9 PUSH1 0x24 DUP3 ADD MSTORE PUSH9 0x2737BA1030B236B4B7 PUSH1 0xB9 SHL PUSH1 0x44 DUP3 ADD MSTORE PUSH1 0x64 ADD JUMPDEST PUSH1 0x40 MLOAD DUP1 SWAP2 SUB SWAP1 REVERT JUMPDEST PUSH1 0x1 PUSH1 0x1 PUSH1 0xA0 SHL SUB DUP3 AND PUSH1 0x0 SWAP1 DUP2 MSTORE PUSH1 0x4 PUSH1 0x20 MSTORE PUSH1 0x40 SWAP1 KECCAK256 DUP1 SLOAD DUP3 SWAP2 SWAP1 PUSH1 0xFF NOT AND PUSH1 0x1 DUP4 PUSH1 0x2 DUP2 GT ISZERO PUSH2 0x289 JUMPI PUSH2 0x289 PUSH2 0xCF6 JUMP JUMPDEST MUL OR SWAP1 SSTORE POP POP POP JUMP JUMPDEST PUSH1 0x0 DUP2 DUP2 MSTORE PUSH1 0x3 PUSH1 0x20 SWAP1 DUP2 MSTORE PUSH1 0x40 SWAP2 DUP3 SWAP1 KECCAK256 DUP1 SLOAD DUP4 MLOAD DUP2 DUP5 MUL DUP2 ADD DUP5 ADD SWAP1 SWAP5 MSTORE DUP1 DUP5 MSTORE PUSH1 0x60 SWAP4 SWAP3 DUP4 ADD DUP3 DUP3 DUP1 ISZERO PUSH2 0x2F2 JUMPI PUSH1 0x20 MUL DUP3 ADD SWAP2 SWAP1 PUSH1 0x0 MSTORE PUSH1 0x20 PUSH1 0x0 KECCAK256 SWAP1 JUMPDEST DUP2 SLOAD PUSH1 0x1 PUSH1 0x1 PUSH1 0xA0 SHL SUB AND DUP2 MSTORE PUSH1 0x1 SWAP1 SWAP2 ADD SWAP1 PUSH1 0x20 ADD DUP1 DUP4 GT PUSH2 0x2D4 JUMPI JUMPDEST POP POP POP POP POP SWAP1 POP SWAP2 SWAP1 POP JUMP JUMPDEST PUSH1 0x0 DUP4 DUP2 MSTORE PUSH1 0x1 PUSH1 0x20 MSTORE PUSH1 0x40 DUP2 KECCAK256 DUP1 SLOAD SWAP1 SWAP2 SUB PUSH2 0x35D JUMPI PUSH1 0x40 MLOAD PUSH3 0x461BCD PUSH1 0xE5 SHL DUP2 MSTORE PUSH1 0x20 PUSH1 0x4 DUP3 ADD MSTORE PUSH1 0x1A PUSH1 0x24 DUP3 ADD MSTORE PUSH32 0x5472616E73616374696F6E20646F6573206E6F74206578697374000000000000 PUSH1 0x44 DUP3 ADD MSTORE PUSH1 0x64 ADD PUSH2 0x24B JUMP JUMPDEST PUSH1 0x0 PUSH1 0x2 DUP3 ADD SLOAD PUSH1 0x1 PUSH1 0xB0 SHL SWAP1 DIV PUSH1 0xFF AND PUSH1 0x3 DUP2 GT ISZERO PUSH2 0x37F JUMPI PUSH2 0x37F PUSH2 0xCF6 JUMP JUMPDEST EQ PUSH2 0x3CC JUMPI PUSH1 0x40 MLOAD PUSH3 0x461BCD PUSH1 0xE5 SHL DUP2 MSTORE PUSH1 0x20 PUSH1 0x4 DUP3 ADD MSTORE PUSH1 0x1A PUSH1 0x24 DUP3 ADD MSTORE PUSH32 0x5472616E73616374696F6E206973206E6F742070656E64696E67000000000000 PUSH1 0x44 DUP3 ADD MSTORE PUSH1 0x64 ADD PUSH2 0x24B JUMP JUMPDEST PUSH1 0x0 DUP5 DUP2 MSTORE PUSH1 0x2 PUSH1 0x20 SWAP1 DUP2 MSTORE PUSH1 0x40 DUP1 DUP4 KECCAK256 CALLER DUP5 MSTORE SWAP1 SWAP2 MSTORE SWAP1 KECCAK256 PUSH1 0x1 ADD SLOAD ISZERO PUSH2 0x427 JUMPI PUSH1 0x40 MLOAD PUSH3 0x461BCD PUSH1 0xE5 SHL DUP2 MSTORE PUSH1 0x20 PUSH1 0x4 DUP3 ADD MSTORE PUSH1 0xE PUSH1 0x24 DUP3 ADD MSTORE PUSH14 0x105B1C9958591E481CDA59DB9959 PUSH1 0x92 SHL PUSH1 0x44 DUP3 ADD MSTORE PUSH1 0x64 ADD PUSH2 0x24B JUMP JUMPDEST CALLER PUSH1 0x0 SWAP1 DUP2 MSTORE PUSH1 0x4 PUSH1 0x20 MSTORE PUSH1 0x40 SWAP1 KECCAK256 SLOAD PUSH1 0xFF AND PUSH1 0x1 DUP2 PUSH1 0x2 DUP2 GT ISZERO PUSH2 0x44E JUMPI PUSH2 0x44E PUSH2 0xCF6 JUMP JUMPDEST EQ DUP1 PUSH2 0x46B JUMPI POP PUSH1 0x2 DUP2 PUSH1 0x2 DUP2 GT ISZERO PUSH2 0x469 JUMPI PUSH2 0x469 PUSH2 0xCF6 JUMP JUMPDEST EQ JUMPDEST PUSH2 0x4AB JUMPI PUSH1 0x40 MLOAD PUSH3 0x461BCD PUSH1 0xE5 SHL DUP2 MSTORE PUSH1 0x20 PUSH1 0x4 DUP3 ADD MSTORE PUSH1 0x11 PUSH1 0x24 DUP3 ADD MSTORE PUSH17 0x556E617574686F72697A656420726F6C65 PUSH1 0x78 SHL PUSH1 0x44 DUP3 ADD MSTORE PUSH1 0x64 ADD PUSH2 0x24B JUMP JUMPDEST PUSH1 0x40 MLOAD DUP1 PUSH1 0xA0 ADD PUSH1 0x40 MSTORE DUP1 CALLER PUSH1 0x1 PUSH1 0x1 PUSH1 0xA0 SHL SUB AND DUP2 MSTORE PUSH1 0x20 ADD DUP3 PUSH1 0x2 DUP2 GT ISZERO PUSH2 0x4D7 JUMPI PUSH2 0x4D7 PUSH2 0xCF6 JUMP JUMPDEST DUP2 MSTORE TIMESTAMP PUSH1 0x20 DUP1 DUP4 ADD SWAP2 SWAP1 SWAP2 MSTORE DUP7 ISZERO ISZERO PUSH1 0x40 DUP1 DUP5 ADD SWAP2 SWAP1 SWAP2 MSTORE PUSH1 0x60 SWAP1 SWAP3 ADD DUP7 SWAP1 MSTORE PUSH1 0x0 DUP9 DUP2 MSTORE PUSH1 0x2 DUP1 DUP4 MSTORE DUP4 DUP3 KECCAK256 CALLER DUP4 MSTORE DUP4 MSTORE SWAP3 SWAP1 KECCAK256 DUP4 MLOAD DUP2 SLOAD PUSH1 0x1 PUSH1 0x1 PUSH1 0xA0 SHL SUB SWAP2 SWAP1 SWAP2 AND PUSH1 0x1 PUSH1 0x1 PUSH1 0xA0 SHL SUB NOT DUP3 AND DUP2 OR DUP4 SSTORE SWAP3 DUP6 ADD MLOAD SWAP2 SWAP4 SWAP2 SWAP3 DUP5 SWAP3 PUSH1 0x1 PUSH1 0x1 PUSH1 0xA8 SHL SUB NOT SWAP1 SWAP3 AND OR SWAP1 PUSH1 0x1 PUSH1 0xA0 SHL SWAP1 DUP5 SWAP1 DUP2 GT ISZERO PUSH2 0x55A JUMPI PUSH2 0x55A PUSH2 0xCF6 JUMP JUMPDEST MUL OR SWAP1 SSTORE POP PUSH1 0x40 DUP3 ADD MLOAD PUSH1 0x1 DUP3 ADD SSTORE PUSH1 0x60 DUP3 ADD MLOAD PUSH1 0x2 DUP3 ADD DUP1 SLOAD PUSH1 0xFF NOT AND SWAP2 ISZERO ISZERO SWAP2 SWAP1 SWAP2 OR SWAP1 SSTORE PUSH1 0x80 DUP3 ADD MLOAD PUSH1 0x3 DUP3 ADD SWAP1 PUSH2 0x595 SWAP1 DUP3 PUSH2 0xED1 JUMP JUMPDEST POP POP POP PUSH1 0x0 DUP6 DUP2 MSTORE PUSH1 0x3 PUSH1 0x20 SWAP1 DUP2 MSTORE PUSH1 0x40 DUP3 KECCAK256 DUP1 SLOAD PUSH1 0x1 DUP2 ADD DUP3 SSTORE SWAP1 DUP4 MSTORE SWAP2 KECCAK256 ADD DUP1 SLOAD PUSH1 0x1 PUSH1 0x1 PUSH1 0xA0 SHL SUB NOT AND CALLER OR SWAP1 SSTORE DUP4 ISZERO PUSH2 0x6F6 JUMPI PUSH1 0x1 DUP2 PUSH1 0x2 DUP2 GT ISZERO PUSH2 0x5E0 JUMPI PUSH2 0x5E0 PUSH2 0xCF6 JUMP JUMPDEST SUB PUSH2 0x61F JUMPI PUSH1 0x2 DUP3 ADD DUP1 SLOAD PUSH1 0x1 PUSH1 0xA0 SHL SWAP1 DIV PUSH1 0xFF AND SWAP1 PUSH1 0x14 PUSH2 0x601 DUP4 PUSH2 0xFA7 JUMP JUMPDEST SWAP2 SWAP1 PUSH2 0x100 EXP DUP2 SLOAD DUP2 PUSH1 0xFF MUL NOT AND SWAP1 DUP4 PUSH1 0xFF AND MUL OR SWAP1 SSTORE POP POP PUSH2 0x66E JUMP JUMPDEST PUSH1 0x2 DUP2 PUSH1 0x2 DUP2 GT ISZERO PUSH2 0x633 JUMPI PUSH2 0x633 PUSH2 0xCF6 JUMP JUMPDEST SUB PUSH2 0x66E JUMPI PUSH1 0x2 DUP3 ADD DUP1 SLOAD PUSH1 0x1 PUSH1 0xA8 SHL SWAP1 DIV PUSH1 0xFF AND SWAP1 PUSH1 0x15 PUSH2 0x654 DUP4 PUSH2 0xFA7 JUMP JUMPDEST SWAP2 SWAP1 PUSH2 0x100 EXP DUP2 SLOAD DUP2 PUSH1 0xFF MUL NOT AND SWAP1 DUP4 PUSH1 0xFF AND MUL OR SWAP1 SSTORE POP POP JUMPDEST PUSH1 0x2 DUP3 DUP2 ADD SLOAD PUSH1 0x1 PUSH1 0xA0 SHL SWAP1 DIV PUSH1 0xFF AND LT DUP1 ISZERO SWAP1 PUSH2 0x69C JUMPI POP PUSH1 0x2 DUP3 ADD SLOAD PUSH1 0x1 PUSH1 0x1 PUSH1 0xA8 SHL SWAP1 SWAP2 DIV PUSH1 0xFF AND LT ISZERO JUMPDEST ISZERO PUSH2 0x6F1 JUMPI PUSH1 0x2 DUP3 ADD DUP1 SLOAD PUSH1 0xFF PUSH1 0xB0 SHL NOT AND PUSH1 0x1 PUSH1 0xB0 SHL OR SWAP1 SSTORE PUSH1 0x40 MLOAD DUP6 SWAP1 PUSH31 0x3013893708BD175BC8EEEDD6EA1E367024BBC9BC7B110E7ED37BC77ACEAC57 SWAP1 PUSH2 0x6E8 SWAP1 PUSH1 0x1 SWAP1 PUSH2 0xFC6 JUMP JUMPDEST PUSH1 0x40 MLOAD DUP1 SWAP2 SUB SWAP1 LOG2 JUMPDEST PUSH2 0x748 JUMP JUMPDEST PUSH1 0x2 DUP3 DUP2 ADD DUP1 SLOAD PUSH1 0xFF PUSH1 0xB0 SHL NOT AND PUSH1 0x1 PUSH1 0xB0 SHL DUP4 MUL OR SWAP1 SSTORE POP DUP5 PUSH31 0x3013893708BD175BC8EEEDD6EA1E367024BBC9BC7B110E7ED37BC77ACEAC57 PUSH1 0x2 PUSH1 0x40 MLOAD PUSH2 0x73F SWAP2 SWAP1 PUSH2 0xFC6 JUMP JUMPDEST PUSH1 0x40 MLOAD DUP1 SWAP2 SUB SWAP1 LOG2 JUMPDEST CALLER PUSH1 0x1 PUSH1 0x1 PUSH1 0xA0 SHL SUB AND DUP6 PUSH32 0x9D9BEA5C4781935C57FD5F2A2F437CB750E3FB646DA05E8AA40A122ACBCDBD31 DUP4 DUP8 PUSH1 0x40 MLOAD PUSH2 0x784 SWAP3 SWAP2 SWAP1 PUSH2 0xFD4 JUMP JUMPDEST PUSH1 0x40 MLOAD DUP1 SWAP2 SUB SWAP1 LOG3 POP POP POP POP POP JUMP JUMPDEST PUSH1 0x3 PUSH1 0x20 MSTORE DUP2 PUSH1 0x0 MSTORE PUSH1 0x40 PUSH1 0x0 KECCAK256 DUP2 DUP2 SLOAD DUP2 LT PUSH2 0x7AF JUMPI PUSH1 0x0 DUP1 REVERT JUMPDEST PUSH1 0x0 SWAP2 DUP3 MSTORE PUSH1 0x20 SWAP1 SWAP2 KECCAK256 ADD SLOAD PUSH1 0x1 PUSH1 0x1 PUSH1 0xA0 SHL SUB AND SWAP2 POP DUP3 SWAP1 POP JUMP JUMPDEST PUSH1 0x0 DUP1 SLOAD DUP2 DUP1 PUSH2 0x7DA DUP4 PUSH2 0xFF1 JUMP JUMPDEST SWAP1 SWAP2 SSTORE POP POP PUSH1 0x0 DUP1 SLOAD PUSH1 0x40 DUP1 MLOAD PUSH1 0xC0 DUP2 ADD DUP3 MSTORE DUP3 DUP2 MSTORE PUSH1 0x20 DUP1 DUP3 ADD DUP8 DUP2 MSTORE CALLER DUP4 DUP6 ADD MSTORE PUSH1 0x60 DUP4 ADD DUP7 SWAP1 MSTORE PUSH1 0x80 DUP4 ADD DUP7 SWAP1 MSTORE PUSH1 0xA0 DUP4 ADD DUP7 SWAP1 MSTORE DUP5 DUP7 MSTORE PUSH1 0x1 SWAP2 DUP3 SWAP1 MSTORE SWAP3 SWAP1 SWAP5 KECCAK256 DUP2 MLOAD DUP2 SSTORE SWAP2 MLOAD SWAP3 SWAP4 SWAP1 SWAP3 SWAP1 DUP3 ADD SWAP1 PUSH2 0x837 SWAP1 DUP3 PUSH2 0xED1 JUMP JUMPDEST POP PUSH1 0x40 DUP3 ADD MLOAD PUSH1 0x2 DUP3 ADD DUP1 SLOAD PUSH1 0x60 DUP6 ADD MLOAD PUSH1 0x80 DUP7 ADD MLOAD PUSH1 0xFF SWAP1 DUP2 AND PUSH1 0x1 PUSH1 0xA8 SHL MUL PUSH1 0xFF PUSH1 0xA8 SHL NOT SWAP2 SWAP1 SWAP3 AND PUSH1 0x1 PUSH1 0xA0 SHL MUL PUSH1 0x1 PUSH1 0x1 PUSH1 0xA8 SHL SUB NOT SWAP1 SWAP4 AND PUSH1 0x1 PUSH1 0x1 PUSH1 0xA0 SHL SUB SWAP1 SWAP6 AND SWAP5 SWAP1 SWAP5 OR SWAP2 SWAP1 SWAP2 OR SWAP3 DUP4 AND DUP2 OR DUP3 SSTORE PUSH1 0xA0 DUP6 ADD MLOAD SWAP3 PUSH1 0xFF PUSH1 0xB0 SHL NOT SWAP1 SWAP2 AND PUSH2 0xFFFF PUSH1 0xA8 SHL NOT SWAP1 SWAP2 AND OR PUSH1 0x1 PUSH1 0xB0 SHL DUP4 PUSH1 0x3 DUP2 GT ISZERO PUSH2 0x8BF JUMPI PUSH2 0x8BF PUSH2 0xCF6 JUMP JUMPDEST MUL OR SWAP1 SSTORE POP SWAP1 POP POP CALLER PUSH1 0x1 PUSH1 0x1 PUSH1 0xA0 SHL SUB AND DUP2 PUSH32 0x6B788BD9BE8B568189B1598944788128BE6DC1AD3C711FDC84FA4FA1FA21EA18 DUP6 PUSH1 0x40 MLOAD PUSH2 0x901 SWAP2 SWAP1 PUSH2 0x100A JUMP JUMPDEST PUSH1 0x40 MLOAD DUP1 SWAP2 SUB SWAP1 LOG3 SWAP3 SWAP2 POP POP JUMP JUMPDEST PUSH1 0x1 PUSH1 0x20 DUP2 SWAP1 MSTORE PUSH1 0x0 SWAP2 DUP3 MSTORE PUSH1 0x40 SWAP1 SWAP2 KECCAK256 DUP1 SLOAD SWAP2 DUP2 ADD DUP1 SLOAD PUSH2 0x930 SWAP1 PUSH2 0xE46 JUMP JUMPDEST DUP1 PUSH1 0x1F ADD PUSH1 0x20 DUP1 SWAP2 DIV MUL PUSH1 0x20 ADD PUSH1 0x40 MLOAD SWAP1 DUP2 ADD PUSH1 0x40 MSTORE DUP1 SWAP3 SWAP2 SWAP1 DUP2 DUP2 MSTORE PUSH1 0x20 ADD DUP3 DUP1 SLOAD PUSH2 0x95C SWAP1 PUSH2 0xE46 JUMP JUMPDEST DUP1 ISZERO PUSH2 0x9A9 JUMPI DUP1 PUSH1 0x1F LT PUSH2 0x97E JUMPI PUSH2 0x100 DUP1 DUP4 SLOAD DIV MUL DUP4 MSTORE SWAP2 PUSH1 0x20 ADD SWAP2 PUSH2 0x9A9 JUMP JUMPDEST DUP3 ADD SWAP2 SWAP1 PUSH1 0x0 MSTORE PUSH1 0x20 PUSH1 0x0 KECCAK256 SWAP1 JUMPDEST DUP2 SLOAD DUP2 MSTORE SWAP1 PUSH1 0x1 ADD SWAP1 PUSH1 0x20 ADD DUP1 DUP4 GT PUSH2 0x98C JUMPI DUP3 SWAP1 SUB PUSH1 0x1F AND DUP3 ADD SWAP2 JUMPDEST POP POP POP PUSH1 0x2 SWAP1 SWAP4 ADD SLOAD SWAP2 SWAP3 POP POP PUSH1 0x1 PUSH1 0x1 PUSH1 0xA0 SHL SUB DUP2 AND SWAP1 PUSH1 0xFF PUSH1 0x1 PUSH1 0xA0 SHL DUP3 DIV DUP2 AND SWAP2 PUSH1 0x1 PUSH1 0xA8 SHL DUP2 DIV DUP3 AND SWAP2 PUSH1 0x1 PUSH1 0xB0 SHL SWAP1 SWAP2 DIV AND DUP7 JUMP JUMPDEST PUSH1 0x2 PUSH1 0x20 DUP2 DUP2 MSTORE PUSH1 0x0 SWAP4 DUP5 MSTORE PUSH1 0x40 DUP1 DUP6 KECCAK256 SWAP1 SWAP2 MSTORE SWAP2 DUP4 MSTORE SWAP2 KECCAK256 DUP1 SLOAD PUSH1 0x1 DUP3 ADD SLOAD SWAP3 DUP3 ADD SLOAD PUSH1 0x3 DUP4 ADD DUP1 SLOAD PUSH1 0x1 PUSH1 0x1 PUSH1 0xA0 SHL SUB DUP5 AND SWAP6 PUSH1 0x1 PUSH1 0xA0 SHL SWAP1 SWAP5 DIV PUSH1 0xFF SWAP1 DUP2 AND SWAP6 SWAP4 AND SWAP3 SWAP2 SWAP1 PUSH2 0xA34 SWAP1 PUSH2 0xE46 JUMP JUMPDEST DUP1 PUSH1 0x1F ADD PUSH1 0x20 DUP1 SWAP2 DIV MUL PUSH1 0x20 ADD PUSH1 0x40 MLOAD SWAP1 DUP2 ADD PUSH1 0x40 MSTORE DUP1 SWAP3 SWAP2 SWAP1 DUP2 DUP2 MSTORE PUSH1 0x20 ADD DUP3 DUP1 SLOAD PUSH2 0xA60 SWAP1 PUSH2 0xE46 JUMP JUMPDEST DUP1 ISZERO PUSH2 0xAAD JUMPI DUP1 PUSH1 0x1F LT PUSH2 0xA82 JUMPI PUSH2 0x100 DUP1 DUP4 SLOAD DIV MUL DUP4 MSTORE SWAP2 PUSH1 0x20 ADD SWAP2 PUSH2 0xAAD JUMP JUMPDEST DUP3 ADD SWAP2 SWAP1 PUSH1 0x0 MSTORE PUSH1 0x20 PUSH1 0x0 KECCAK256 SWAP1 JUMPDEST DUP2 SLOAD DUP2 MSTORE SWAP1 PUSH1 0x1 ADD SWAP1 PUSH1 0x20 ADD DUP1 DUP4 GT PUSH2 0xA90 JUMPI DUP3 SWAP1 SUB PUSH1 0x1F AND DUP3 ADD SWAP2 JUMPDEST POP POP POP POP POP SWAP1 POP DUP6 JUMP JUMPDEST DUP1 CALLDATALOAD PUSH1 0x1 PUSH1 0x1 PUSH1 0xA0 SHL SUB DUP2 AND DUP2 EQ PUSH2 0xACE JUMPI PUSH1 0x0 DUP1 REVERT JUMPDEST SWAP2 SWAP1 POP JUMP JUMPDEST PUSH1 0x0 DUP1 PUSH1 0x40 DUP4 DUP6 SUB SLT ISZERO PUSH2 0xAE6 JUMPI PUSH1 0x0 DUP1 REVERT JUMPDEST PUSH2 0xAEF DUP4 PUSH2 0xAB7 JUMP JUMPDEST SWAP2 POP PUSH1 0x20 DUP4 ADD CALLDATALOAD PUSH1 0x3 DUP2 LT PUSH2 0xB03 JUMPI PUSH1 0x0 DUP1 REVERT JUMPDEST DUP1 SWAP2 POP POP SWAP3 POP SWAP3 SWAP1 POP JUMP JUMPDEST PUSH1 0x0 PUSH1 0x20 DUP3 DUP5 SUB SLT ISZERO PUSH2 0xB20 JUMPI PUSH1 0x0 DUP1 REVERT JUMPDEST POP CALLDATALOAD SWAP2 SWAP1 POP JUMP JUMPDEST PUSH1 0x20 DUP1 DUP3 MSTORE DUP3 MLOAD DUP3 DUP3 ADD DUP2 SWAP1 MSTORE PUSH1 0x0 SWAP2 SWAP1 DUP5 DUP3 ADD SWAP1 PUSH1 0x40 DUP6 ADD SWAP1 DUP5 JUMPDEST DUP2 DUP2 LT ISZERO PUSH2 0xB68 JUMPI DUP4 MLOAD PUSH1 0x1 PUSH1 0x1 PUSH1 0xA0 SHL SUB AND DUP4 MSTORE SWAP3 DUP5 ADD SWAP3 SWAP2 DUP5 ADD SWAP2 PUSH1 0x1 ADD PUSH2 0xB43 JUMP JUMPDEST POP SWAP1 SWAP7 SWAP6 POP POP POP POP POP POP JUMP JUMPDEST PUSH4 0x4E487B71 PUSH1 0xE0 SHL PUSH1 0x0 MSTORE PUSH1 0x41 PUSH1 0x4 MSTORE PUSH1 0x24 PUSH1 0x0 REVERT JUMPDEST PUSH1 0x0 DUP3 PUSH1 0x1F DUP4 ADD SLT PUSH2 0xB9B JUMPI PUSH1 0x0 DUP1 REVERT JUMPDEST DUP2 CALLDATALOAD PUSH8 0xFFFFFFFFFFFFFFFF DUP1 DUP3 GT ISZERO PUSH2 0xBB6 JUMPI PUSH2 0xBB6 PUSH2 0xB74 JUMP JUMPDEST PUSH1 0x40 MLOAD PUSH1 0x1F DUP4 ADD PUSH1 0x1F NOT SWAP1 DUP2 AND PUSH1 0x3F ADD AND DUP2 ADD SWAP1 DUP3 DUP3 GT DUP2 DUP4 LT OR ISZERO PUSH2 0xBDE JUMPI PUSH2 0xBDE PUSH2 0xB74 JUMP JUMPDEST DUP2 PUSH1 0x40 MSTORE DUP4 DUP2 MSTORE DUP7 PUSH1 0x20 DUP6 DUP9 ADD ADD GT ISZERO PUSH2 0xBF7 JUMPI PUSH1 0x0 DUP1 REVERT JUMPDEST DUP4 PUSH1 0x20 DUP8 ADD PUSH1 0x20 DUP4 ADD CALLDATACOPY PUSH1 0x0 PUSH1 0x20 DUP6 DUP4 ADD ADD MSTORE DUP1 SWAP5 POP POP POP POP POP SWAP3 SWAP2 POP POP JUMP JUMPDEST PUSH1 0x0 DUP1 PUSH1 0x0 PUSH1 0x60 DUP5 DUP7 SUB SLT ISZERO PUSH2 0xC2C JUMPI PUSH1 0x0 DUP1 REVERT JUMPDEST DUP4 CALLDATALOAD SWAP3 POP PUSH1 0x20 DUP5 ADD CALLDATALOAD DUP1 ISZERO ISZERO DUP2 EQ PUSH2 0xC43 JUMPI PUSH1 0x0 DUP1 REVERT JUMPDEST SWAP2 POP PUSH1 0x40 DUP5 ADD CALLDATALOAD PUSH8 0xFFFFFFFFFFFFFFFF DUP2 GT ISZERO PUSH2 0xC5F JUMPI PUSH1 0x0 DUP1 REVERT JUMPDEST PUSH2 0xC6B DUP7 DUP3 DUP8 ADD PUSH2 0xB8A JUMP JUMPDEST SWAP2 POP POP SWAP3 POP SWAP3 POP SWAP3 JUMP JUMPDEST PUSH1 0x0 DUP1 PUSH1 0x40 DUP4 DUP6 SUB SLT ISZERO PUSH2 0xC88 JUMPI PUSH1 0x0 DUP1 REVERT JUMPDEST POP POP DUP1 CALLDATALOAD SWAP3 PUSH1 0x20 SWAP1 SWAP2 ADD CALLDATALOAD SWAP2 POP JUMP JUMPDEST PUSH1 0x0 PUSH1 0x20 DUP3 DUP5 SUB SLT ISZERO PUSH2 0xCA9 JUMPI PUSH1 0x0 DUP1 REVERT JUMPDEST DUP2 CALLDATALOAD PUSH8 0xFFFFFFFFFFFFFFFF DUP2 GT ISZERO PUSH2 0xCC0 JUMPI PUSH1 0x0 DUP1 REVERT JUMPDEST PUSH2 0xCCC DUP5 DUP3 DUP6 ADD PUSH2 0xB8A JUMP JUMPDEST SWAP5 SWAP4 POP POP POP POP JUMP JUMPDEST PUSH1 0x0 PUSH1 0x20 DUP3 DUP5 SUB SLT ISZERO PUSH2 0xCE6 JUMPI PUSH1 0x0 DUP1 REVERT JUMPDEST PUSH2 0xCEF DUP3 PUSH2 0xAB7 JUMP JUMPDEST SWAP4 SWAP3 POP POP POP JUMP JUMPDEST PUSH4 0x4E487B71 PUSH1 0xE0 SHL PUSH1 0x0 MSTORE PUSH1 0x21 PUSH1 0x4 MSTORE PUSH1 0x24 PUSH1 0x0 REVERT JUMPDEST PUSH1 0x3 DUP2 LT PUSH2 0xD1C JUMPI PUSH2 0xD1C PUSH2 0xCF6 JUMP JUMPDEST SWAP1 MSTORE JUMP JUMPDEST PUSH1 0x20 DUP2 ADD PUSH2 0xD2E DUP3 DUP5 PUSH2 0xD0C JUMP JUMPDEST SWAP3 SWAP2 POP POP JUMP JUMPDEST PUSH1 0x0 DUP2 MLOAD DUP1 DUP5 MSTORE PUSH1 0x0 JUMPDEST DUP2 DUP2 LT ISZERO PUSH2 0xD5A JUMPI PUSH1 0x20 DUP2 DUP6 ADD DUP2 ADD MLOAD DUP7 DUP4 ADD DUP3 ADD MSTORE ADD PUSH2 0xD3E JUMP JUMPDEST POP PUSH1 0x0 PUSH1 0x20 DUP3 DUP7 ADD ADD MSTORE PUSH1 0x20 PUSH1 0x1F NOT PUSH1 0x1F DUP4 ADD AND DUP6 ADD ADD SWAP2 POP POP SWAP3 SWAP2 POP POP JUMP JUMPDEST PUSH1 0x4 DUP2 LT PUSH2 0xD1C JUMPI PUSH2 0xD1C PUSH2 0xCF6 JUMP JUMPDEST DUP7 DUP2 MSTORE PUSH1 0xC0 PUSH1 0x20 DUP3 ADD MSTORE PUSH1 0x0 PUSH2 0xDA3 PUSH1 0xC0 DUP4 ADD DUP9 PUSH2 0xD34 JUMP JUMPDEST PUSH1 0x1 PUSH1 0x1 PUSH1 0xA0 SHL SUB DUP8 AND PUSH1 0x40 DUP5 ADD MSTORE PUSH1 0xFF DUP7 DUP2 AND PUSH1 0x60 DUP6 ADD MSTORE DUP6 AND PUSH1 0x80 DUP5 ADD MSTORE SWAP1 POP PUSH2 0xDD2 PUSH1 0xA0 DUP4 ADD DUP5 PUSH2 0xD7A JUMP JUMPDEST SWAP8 SWAP7 POP POP POP POP POP POP POP JUMP JUMPDEST PUSH1 0x0 DUP1 PUSH1 0x40 DUP4 DUP6 SUB SLT ISZERO PUSH2 0xDF0 JUMPI PUSH1 0x0 DUP1 REVERT JUMPDEST DUP3 CALLDATALOAD SWAP2 POP PUSH2 0xE00 PUSH1 0x20 DUP5 ADD PUSH2 0xAB7 JUMP JUMPDEST SWAP1 POP SWAP3 POP SWAP3 SWAP1 POP JUMP JUMPDEST PUSH1 0x1 PUSH1 0x1 PUSH1 0xA0 SHL SUB DUP7 AND DUP2 MSTORE PUSH2 0xE22 PUSH1 0x20 DUP3 ADD DUP7 PUSH2 0xD0C JUMP JUMPDEST DUP4 PUSH1 0x40 DUP3 ADD MSTORE DUP3 ISZERO ISZERO PUSH1 0x60 DUP3 ADD MSTORE PUSH1 0xA0 PUSH1 0x80 DUP3 ADD MSTORE PUSH1 0x0 PUSH2 0xDD2 PUSH1 0xA0 DUP4 ADD DUP5 PUSH2 0xD34 JUMP JUMPDEST PUSH1 0x1 DUP2 DUP2 SHR SWAP1 DUP3 AND DUP1 PUSH2 0xE5A JUMPI PUSH1 0x7F DUP3 AND SWAP2 POP JUMPDEST PUSH1 0x20 DUP3 LT DUP2 SUB PUSH2 0xE7A JUMPI PUSH4 0x4E487B71 PUSH1 0xE0 SHL PUSH1 0x0 MSTORE PUSH1 0x22 PUSH1 0x4 MSTORE PUSH1 0x24 PUSH1 0x0 REVERT JUMPDEST POP SWAP2 SWAP1 POP JUMP JUMPDEST PUSH1 0x1F DUP3 GT ISZERO PUSH2 0xECC JUMPI PUSH1 0x0 DUP2 PUSH1 0x0 MSTORE PUSH1 0x20 PUSH1 0x0 KECCAK256 PUSH1 0x1F DUP6 ADD PUSH1 0x5 SHR DUP2 ADD PUSH1 0x20 DUP7 LT ISZERO PUSH2 0xEA9 JUMPI POP DUP1 JUMPDEST PUSH1 0x1F DUP6 ADD PUSH1 0x5 SHR DUP3 ADD SWAP2 POP JUMPDEST DUP2 DUP2 LT ISZERO PUSH2 0xEC8 JUMPI DUP3 DUP2 SSTORE PUSH1 0x1 ADD PUSH2 0xEB5 JUMP JUMPDEST POP POP POP JUMPDEST POP POP POP JUMP JUMPDEST DUP2 MLOAD PUSH8 0xFFFFFFFFFFFFFFFF DUP2 GT ISZERO PUSH2 0xEEB JUMPI PUSH2 0xEEB PUSH2 0xB74 JUMP JUMPDEST PUSH2 0xEFF DUP2 PUSH2 0xEF9 DUP5 SLOAD PUSH2 0xE46 JUMP JUMPDEST DUP5 PUSH2 0xE80 JUMP JUMPDEST PUSH1 0x20 DUP1 PUSH1 0x1F DUP4 GT PUSH1 0x1 DUP2 EQ PUSH2 0xF34 JUMPI PUSH1 0x0 DUP5 ISZERO PUSH2 0xF1C JUMPI POP DUP6 DUP4 ADD MLOAD JUMPDEST PUSH1 0x0 NOT PUSH1 0x3 DUP7 SWAP1 SHL SHR NOT AND PUSH1 0x1 DUP6 SWAP1 SHL OR DUP6 SSTORE PUSH2 0xEC8 JUMP JUMPDEST PUSH1 0x0 DUP6 DUP2 MSTORE PUSH1 0x20 DUP2 KECCAK256 PUSH1 0x1F NOT DUP7 AND SWAP2 JUMPDEST DUP3 DUP2 LT ISZERO PUSH2 0xF63 JUMPI DUP9 DUP7 ADD MLOAD DUP3 SSTORE SWAP5 DUP5 ADD SWAP5 PUSH1 0x1 SWAP1 SWAP2 ADD SWAP1 DUP5 ADD PUSH2 0xF44 JUMP JUMPDEST POP DUP6 DUP3 LT ISZERO PUSH2 0xF81 JUMPI DUP8 DUP6 ADD MLOAD PUSH1 0x0 NOT PUSH1 0x3 DUP9 SWAP1 SHL PUSH1 0xF8 AND SHR NOT AND DUP2 SSTORE JUMPDEST POP POP POP POP POP PUSH1 0x1 SWAP1 DUP2 SHL ADD SWAP1 SSTORE POP JUMP JUMPDEST PUSH4 0x4E487B71 PUSH1 0xE0 SHL PUSH1 0x0 MSTORE PUSH1 0x11 PUSH1 0x4 MSTORE PUSH1 0x24 PUSH1 0x0 REVERT JUMPDEST PUSH1 0x0 PUSH1 0xFF DUP3 AND PUSH1 0xFF DUP2 SUB PUSH2 0xFBD JUMPI PUSH2 0xFBD PUSH2 0xF91 JUMP JUMPDEST PUSH1 0x1 ADD SWAP3 SWAP2 POP POP JUMP JUMPDEST PUSH1 0x20 DUP2 ADD PUSH2 0xD2E DUP3 DUP5 PUSH2 0xD7A JUMP JUMPDEST PUSH1 0x40 DUP2 ADD PUSH2 0xFE2 DUP3 DUP6 PUSH2 0xD0C JUMP JUMPDEST DUP3 ISZERO ISZERO PUSH1 0x20 DUP4 ADD MSTORE SWAP4 SWAP3 POP POP POP JUMP JUMPDEST PUSH1 0x0 PUSH1 0x1 DUP3 ADD PUSH2 0x1003 JUMPI PUSH2 0x1003 PUSH2 0xF91 JUMP JUMPDEST POP PUSH1 0x1 ADD SWAP1 JUMP JUMPDEST PUSH1 0x20 DUP2 MSTORE PUSH1 0x0 PUSH2 0xCEF PUSH1 0x20 DUP4 ADD DUP5 PUSH2 0xD34 JUMP INVALID LOG2 PUSH5 0x6970667358 0x22 SLT KECCAK256 DUP14 CODECOPY 0xDE 0xC9 0x4C 0xC6 0x2A DUP7 NUMBER 0x4D DUP6 0xC2 PUSH11 0x1EDA2AD8CA137A066A4582 PUSH4 0x2EBE1F3E PUSH1 0x4D 0xAF PUSH5 0x736F6C6343 STOP ADDMOD XOR STOP CALLER "},"methodIdentifiers":{"REQUIRED_CB_SIGS()":"b5cea019","REQUIRED_LD_SIGS()":"12255d09","admin()":"f851a440","createTransaction(string)":"4d9e78d4","getTransactionSigners(uint256)":"3ecc1721","setUserRole(address,uint8)":"03a69611","signTransaction(uint256,bool,string)":"4985e489","transactionCount()":"b77bf600","transactionSignatures(uint256,address)":"a9836205","transactionSigners(uint256,uint256)":"4a5f11c8","transactions(uint256)":"9ace38c2","userRoles(address)":"74d5e100"}}}}}