{"contracts/EContract.sol":{"EContract":{"abi":[{"inputs":[{"internalType":"address","name":"_landRegistryAddress","type":"address"}],"stateMutability":"nonpayable","type":"constructor"},{"anonymous":false,"inputs":[{"indexed":true,"internalType":"uint256","name":"contractId","type":"uint256"},{"indexed":true,"internalType":"uint256","name":"tokenId","type":"uint256"},{"indexed":true,"internalType":"address","name":"seller","type":"address"},{"indexed":false,"internalType":"address","name":"buyer","type":"address"},{"indexed":false,"internalType":"address","name":"certifier","type":"address"},{"indexed":false,"internalType":"uint256","name":"price","type":"uint256"}],"name":"ContractCreated","type":"event"},{"anonymous":false,"inputs":[{"indexed":true,"internalType":"uint256","name":"contractId","type":"uint256"},{"indexed":true,"internalType":"address","name":"signer","type":"address"},{"indexed":false,"internalType":"string","name":"role","type":"string"}],"name":"ContractSigned","type":"event"},{"anonymous":false,"inputs":[{"indexed":true,"internalType":"uint256","name":"contractId","type":"uint256"},{"indexed":false,"internalType":"enum EContract.ContractStatus","name":"newStatus","type":"uint8"}],"name":"ContractStatusChanged","type":"event"},{"anonymous":false,"inputs":[{"indexed":true,"internalType":"address","name":"previousOwner","type":"address"},{"indexed":true,"internalType":"address","name":"newOwner","type":"address"}],"name":"OwnershipTransferred","type":"event"},{"anonymous":false,"inputs":[{"indexed":true,"internalType":"uint256","name":"contractId","type":"uint256"},{"indexed":false,"internalType":"uint256","name":"taxTNCN","type":"uint256"},{"indexed":false,"internalType":"uint256","name":"feePreBa","type":"uint256"}],"name":"TaxPaid","type":"event"},{"anonymous":false,"inputs":[{"indexed":false,"internalType":"uint256","name":"newTaxRateTNCN","type":"uint256"},{"indexed":false,"internalType":"uint256","name":"newFeeRatePreBa","type":"uint256"}],"name":"TaxRatesUpdated","type":"event"},{"inputs":[{"internalType":"uint256","name":"","type":"uint256"}],"name":"activeContractByToken","outputs":[{"internalType":"uint256","name":"","type":"uint256"}],"stateMutability":"view","type":"function"},{"inputs":[{"internalType":"uint256","name":"_contractId","type":"uint256"}],"name":"cancelContract","outputs":[],"stateMutability":"nonpayable","type":"function"},{"inputs":[],"name":"contractCount","outputs":[{"internalType":"uint256","name":"","type":"uint256"}],"stateMutability":"view","type":"function"},{"inputs":[{"internalType":"uint256","name":"","type":"uint256"}],"name":"contracts","outputs":[{"internalType":"uint256","name":"contractId","type":"uint256"},{"internalType":"uint256","name":"tokenId","type":"uint256"},{"internalType":"address","name":"seller","type":"address"},{"internalType":"address","name":"buyer","type":"address"},{"internalType":"address","name":"certifier","type":"address"},{"internalType":"uint256","name":"price","type":"uint256"},{"internalType":"bool","name":"sellerSigned","type":"bool"},{"internalType":"bool","name":"buyerSigned","type":"bool"},{"internalType":"bool","name":"certifierSigned","type":"bool"},{"internalType":"enum EContract.ContractStatus","name":"status","type":"uint8"},{"internalType":"uint256","name":"createdAt","type":"uint256"},{"internalType":"uint256","name":"updatedAt","type":"uint256"},{"internalType":"uint256","name":"taxTNCN","type":"uint256"},{"internalType":"uint256","name":"feePreBa","type":"uint256"},{"internalType":"bool","name":"isTaxPaid","type":"bool"}],"stateMutability":"view","type":"function"},{"inputs":[{"internalType":"uint256","name":"_tokenId","type":"uint256"},{"internalType":"address","name":"_seller","type":"address"},{"internalType":"address","name":"_buyer","type":"address"},{"internalType":"address","name":"_certifier","type":"address"},{"internalType":"uint256","name":"_price","type":"uint256"}],"name":"createContract","outputs":[{"internalType":"uint256","name":"","type":"uint256"}],"stateMutability":"nonpayable","type":"function"},{"inputs":[],"name":"feeRatePreBa","outputs":[{"internalType":"uint256","name":"","type":"uint256"}],"stateMutability":"view","type":"function"},{"inputs":[{"internalType":"uint256","name":"_contractId","type":"uint256"}],"name":"getContract","outputs":[{"components":[{"internalType":"uint256","name":"contractId","type":"uint256"},{"internalType":"uint256","name":"tokenId","type":"uint256"},{"internalType":"address","name":"seller","type":"address"},{"internalType":"address","name":"buyer","type":"address"},{"internalType":"address","name":"certifier","type":"address"},{"internalType":"uint256","name":"price","type":"uint256"},{"internalType":"bool","name":"sellerSigned","type":"bool"},{"internalType":"bool","name":"buyerSigned","type":"bool"},{"internalType":"bool","name":"certifierSigned","type":"bool"},{"internalType":"enum EContract.ContractStatus","name":"status","type":"uint8"},{"internalType":"uint256","name":"createdAt","type":"uint256"},{"internalType":"uint256","name":"updatedAt","type":"uint256"},{"internalType":"uint256","name":"taxTNCN","type":"uint256"},{"internalType":"uint256","name":"feePreBa","type":"uint256"},{"internalType":"bool","name":"isTaxPaid","type":"bool"}],"internalType":"struct EContract.PurchaseContract","name":"","type":"tuple"}],"stateMutability":"view","type":"function"},{"inputs":[],"name":"landRegistryContract","outputs":[{"internalType":"contract LandRegistry","name":"","type":"address"}],"stateMutability":"view","type":"function"},{"inputs":[],"name":"owner","outputs":[{"internalType":"address","name":"","type":"address"}],"stateMutability":"view","type":"function"},{"inputs":[{"internalType":"uint256","name":"_contractId","type":"uint256"}],"name":"payTax","outputs":[],"stateMutability":"nonpayable","type":"function"},{"inputs":[],"name":"renounceOwnership","outputs":[],"stateMutability":"nonpayable","type":"function"},{"inputs":[{"internalType":"uint256","name":"_taxRateTNCN","type":"uint256"},{"internalType":"uint256","name":"_feeRatePreBa","type":"uint256"}],"name":"setTaxRates","outputs":[],"stateMutability":"nonpayable","type":"function"},{"inputs":[{"internalType":"uint256","name":"_contractId","type":"uint256"}],"name":"signContract","outputs":[],"stateMutability":"nonpayable","type":"function"},{"inputs":[],"name":"taxRateTNCN","outputs":[{"internalType":"uint256","name":"","type":"uint256"}],"stateMutability":"view","type":"function"},{"inputs":[{"internalType":"address","name":"newOwner","type":"address"}],"name":"transferOwnership","outputs":[],"stateMutability":"nonpayable","type":"function"}],"evm":{"bytecode":{"linkReferences":{},"object":"6080346100fd57601f61165f38819003918201601f19168301916001600160401b03831184841017610102578084926020946040528339810103126100fd57516001600160a01b03808216918290036100fd576000549060018060a01b0319913383821617600055604051913391167f8be0079c531659141344cd1fd0a4f28419497f9722a3daafe3b4186f6b6457e0600080a360c8600355603260045582156100bb5750600154161760015560405161154690816101198239f35b62461bcd60e51b815260206004820152601c60248201527f496e76616c6964204c616e6452656769737472792061646472657373000000006044820152606490fd5b600080fd5b634e487b7160e01b600052604160045260246000fdfe6080604052600436101561001257600080fd5b60003560e01c80632804745014611271578063474da79a1461117f5780635cb23e12146111285780635ffb0c2c1461110a57806361155775146110e15780636ebc8c8614610e95578063715018a614610e3c5780638736381a14610e1e57806389bb320b14610e005780638da5cb5b14610dd75780639537e8d114610a43578063a05aaf5014610922578063d4a0e03d146108f6578063f2fde38b1461082b5763f9972fc8146100c157600080fd5b346105ee5760a03660031901126105ee576024356001600160a01b03811681036105ee57604435906001600160a01b03821682036105ee57606435916001600160a01b03831683036105ee576001600160a01b038216156107ed576001600160a01b038116156107b0576001600160a01b0383161561076b576001600160a01b038281169082161461071b57608435156106d657600154604051630241aa1360e11b815260048035908201526001600160a01b0390911690602081602481855afa9081156105fb5760009161069b575b5060088110156104aa5760040361064a57602060049160405192838092632b359bc560e01b82525afa9081156105fb57600091610607575b506040516331a9108f60e11b8152600480359082015290602090829060249082906001600160a01b03165afa9081156105fb576000916105b4575b506001600160a01b0383811691160361055c576004356000526006602052604060002054806104d6575b506002549160001983146104c0576001830160025561271093846102566003546084356114a5565b04946102666004546084356114a5565b04604051956102748761144a565b600186018752600435602088015260018060a01b038416604088015260018060a01b038516606088015260018060a01b038316608088015260843560a0880152600060c0880152600060e08801526000610100880152600061012088015242610140880152426101608801526101808701526101a086015260006101c086015260018401600052600560205260406000209480518655602081015160018701556002860160018060a01b03604083015116906bffffffffffffffffffffffff60a01b91828254161790556003870160018060a01b0360608401511682825416179055600487019060018060a01b036080840151169082541617905560a0810151600587015561039860c08201511515600688019060ff801983541691151516179055565b60e0810151151595600681015462ff0000610100840151151560101b16926101208101519060038210156104aa5760209961043895600b9461ff0063ff0000006101c09660181b169360081b169063ffffff00191617171760068501556101408101516007850155610160810151600885015561018081015160098501556101a0810151600a8501550151151591019060ff801983541691151516179055565b600435600081815260068752604090819020600187019081905581516001600160a01b0396871681529386168489015260843591840191909152929093169291907fe0d69f9b24a1349fe7690358d89dff6378b886159621baf2438886e329f0991890606090a4600160405191018152f35b634e487b7160e01b600052602160045260246000fd5b634e487b7160e01b600052601160045260246000fd5b600052600560205260ff60066040600020015460181c1660038110156104aa5715610501573861022e565b60405162461bcd60e51b815260206004820152602d60248201527f41637469766520636f6e747261637420616c726561647920657869737473206660448201526c37b9103a3434b9903a37b5b2b760991b6064820152608490fd5b60405162461bcd60e51b815260206004820152602a60248201527f53656c6c6572206973206e6f7420746865206f776e6572206f662074686973206044820152693630b732103a37b5b2b760b11b6064820152608490fd5b90506020813d6020116105f3575b816105cf60209383611483565b810103126105ee57516001600160a01b03811681036105ee5738610204565b600080fd5b3d91506105c2565b6040513d6000823e3d90fd5b90506020813d602011610642575b8161062260209383611483565b810103126105ee57516001600160a01b03811681036105ee5760206101c9565b3d9150610615565b60405162461bcd60e51b8152602060048201526024808201527f4c616e64206d75737420626520696e2044414e475f4749414f5f4449434820736044820152637461746560e01b6064820152608490fd5b90506020813d6020116106ce575b816106b660209383611483565b810103126105ee575160088110156105ee5738610191565b3d91506106a9565b60405162461bcd60e51b815260206004820152601f60248201527f5072696365206d7573742062652067726561746572207468616e207a65726f006044820152606490fd5b60405162461bcd60e51b815260206004820152602260248201527f53656c6c657220616e64206275796572206d75737420626520646966666572656044820152611b9d60f21b6064820152608490fd5b60405162461bcd60e51b815260206004820152601960248201527f496e76616c6964206365727469666965722061646472657373000000000000006044820152606490fd5b60405162461bcd60e51b8152602060048201526015602482015274496e76616c6964206275796572206164647265737360581b6044820152606490fd5b60405162461bcd60e51b8152602060048201526016602482015275496e76616c69642073656c6c6572206164647265737360501b6044820152606490fd5b346105ee5760203660031901126105ee576004356001600160a01b03818116918290036105ee5761085a6114b8565b81156108a257600054826bffffffffffffffffffffffff60a01b821617600055167f8be0079c531659141344cd1fd0a4f28419497f9722a3daafe3b4186f6b6457e0600080a3005b60405162461bcd60e51b815260206004820152602660248201527f4f776e61626c653a206e6577206f776e657220697320746865207a65726f206160448201526564647265737360d01b6064820152608490fd5b346105ee5760203660031901126105ee5760043560005260066020526020604060002054604051908152f35b346105ee5760203660031901126105ee5760043561093e6114b8565b8060005260056020526040600020610958815415156113b2565b60ff600682015460181c1660038110156104aa57600214610a0657600b81019081549060ff82166109ce577f83a4fab6e20b39884c2ca65858ce98aac9fb88a8d6a9b7578a895dda1d2bc3f692600160409360ff1916179055426008820155600a600982015491015482519182526020820152a2005b60405162461bcd60e51b815260206004820152601060248201526f15185e08185b1c9958591e481c185a5960821b6044820152606490fd5b60405162461bcd60e51b815260206004820152601560248201527410dbdb9d1c9858dd081a5cc818d85b98d95b1b1959605a1b6044820152606490fd5b346105ee576020806003193601126105ee57600435908160005260058152604060002090610a73825415156113b2565b60068201805460ff93848260181c1660038110156104aa57610a9590156113fe565b600060405185810181811067ffffffffffffffff821117610dc1576040526000815260028301549093906001600160a01b03903390821603610c925750505090508154848116610c555760019060ff1916178255600190604051610af881611467565b600681526539b2b63632b960d11b85820152915b15610bf9576008429101558460405184815282519283868301528560005b858110610be1575050508060006040857f52ea4f03466ecb6e478b756f8a6e63e9a06048eec55443b64fbef66048d2e9bf940101526040813395601f80199101168101030190a38054928084169081610bd3575b81610bc6575b50610b8b57005b63010000007fdcba20243cece5ee0f3fd42c582f8201538d034183adfefbc2e6bf21de8fd3769363ff000000191617905560405160018152a2005b90508360101c1685610b84565b8091508460081c1690610b7e565b82810182015184820160400152899450879101610b2a565b60405162461bcd60e51b815260048101859052602e60248201527f53656e646572206973206e6f7420617574686f72697a656420746f207369676e60448201526d081d1a1a5cc818dbdb9d1c9858dd60921b6064820152608490fd5b60405162461bcd60e51b815260048101859052601560248201527414d95b1b195c88185b1c9958591e481cda59db9959605a1b6044820152606490fd5b806003850154163314600014610d215750505090508154848160081c16610ce55761ff00191661010017825560405160019190610cce81611467565b6005815264313abcb2b960d91b8582015291610b0c565b60405162461bcd60e51b8152600481018590526014602482015273109d5e595c88185b1c9958591e481cda59db995960621b6044820152606490fd5b6004840154163314610d34575b50610b0c565b8092935086915060101c16610d7c5762ff000019166201000017825560405160019190610d6081611467565b600981526831b2b93a34b334b2b960b91b858201529187610d2e565b60405162461bcd60e51b815260048101859052601860248201527f43657274696669657220616c7265616479207369676e656400000000000000006044820152606490fd5b634e487b7160e01b600052604160045260246000fd5b346105ee5760003660031901126105ee576000546040516001600160a01b039091168152602090f35b346105ee5760003660031901126105ee576020600354604051908152f35b346105ee5760003660031901126105ee576020600254604051908152f35b346105ee5760003660031901126105ee57610e556114b8565b600080546001600160a01b0319811682556001600160a01b03167f8be0079c531659141344cd1fd0a4f28419497f9722a3daafe3b4186f6b6457e08280a3005b346105ee5760203660031901126105ee5760043560006101c0604051610eba8161144a565b8281528260208201528260408201528260608201528260808201528260a08201528260c08201528260e08201528261010082015282610120820152826101408201528261016082015282610180820152826101a08201520152806000526005602052610f2c60406000205415156113b2565b60005260056020526040600020604051610f458161144a565b815481526001820154602082015260028201546001600160a01b0390811660408301526003808401548216606084015260048401549091166080830152600583015460a0830152600683015460ff808216151560c0850152600882901c8116151560e0850152601082901c81161515610100850152909391601885901c90911610156104aa57600b60ff91826101e09560181c16610120850152600781015461014085015260088101546101608501526009810154610180850152600a8101546101a085015201541615156101c08201526101c060405191805183526020810151602084015260018060a01b03604082015116604084015260018060a01b03606082015116606084015260018060a01b03608082015116608084015260a081015160a084015260c0810151151560c084015260e0810151151560e084015261010081015115156101008401526110a56101208201516101208501906113a5565b6101408101516101408401526101608101516101608401526101808101516101808401526101a08101516101a0840152015115156101c0820152f35b346105ee5760003660031901126105ee576001546040516001600160a01b039091168152602090f35b346105ee5760003660031901126105ee576020600454604051908152f35b346105ee5760403660031901126105ee577f8af72bce83e770654b24f833792771b0c5ecd95a31e17a43d11475b9f0c96aba604060043560243561116a6114b8565b816003558060045582519182526020820152a1005b346105ee5760203660031901126105ee5760043560005260056020526101e0604060002080549060018101549060018060a01b038060028301541690806003840154169060048401541661124f600585015460068601549060078701549360088801549560098901549760ff600b600a8c01549b0154169a6040519c8d5260208d015260408c015260608b015260808a015260a089015260ff8116151560c089015260ff8160081c16151560e089015260ff8160101c16151561010089015260ff61012089019160181c166113a5565b6101408601526101608501526101808401526101a083015215156101c0820152f35b346105ee5760203660031901126105ee57600435806000526005602052604060002061129f815415156113b2565b60068101805460ff8160181c1660038110156104aa576112bf90156113fe565b6002830154336001600160a01b0391821614908115611394575b8115611383575b8115611375575b50156113305763020000009063ff00000019161790556008429101557fdcba20243cece5ee0f3fd42c582f8201538d034183adfefbc2e6bf21de8fd376602060405160028152a2005b60405162461bcd60e51b815260206004820152601860248201527f4e6f7420617574686f72697a656420746f2063616e63656c00000000000000006044820152606490fd5b9050600054163314856112e7565b8091506004850154163314906112e0565b8091506003850154163314906112d9565b9060038210156104aa5752565b156113b957565b60405162461bcd60e51b815260206004820152601760248201527f436f6e747261637420646f6573206e6f742065786973740000000000000000006044820152606490fd5b1561140557565b60405162461bcd60e51b815260206004820152601760248201527f436f6e7472616374206973206e6f742070656e64696e670000000000000000006044820152606490fd5b6101e0810190811067ffffffffffffffff821117610dc157604052565b6040810190811067ffffffffffffffff821117610dc157604052565b90601f8019910116810190811067ffffffffffffffff821117610dc157604052565b818102929181159184041417156104c057565b6000546001600160a01b031633036114cc57565b606460405162461bcd60e51b815260206004820152602060248201527f4f776e61626c653a2063616c6c6572206973206e6f7420746865206f776e65726044820152fdfea2646970667358221220a3b3f91a2ab67d2acfd90a68b6609f5653cd9a0bdc9614d16520a435f886d02f64736f6c63430008180033","opcodes":"PUSH1 0x80 CALLVALUE PUSH2 0xFD JUMPI PUSH1 0x1F PUSH2 0x165F CODESIZE DUP2 SWAP1 SUB SWAP2 DUP3 ADD PUSH1 0x1F NOT AND DUP4 ADD SWAP2 PUSH1 0x1 PUSH1 0x1 PUSH1 0x40 SHL SUB DUP4 GT DUP5 DUP5 LT OR PUSH2 0x102 JUMPI DUP1 DUP5 SWAP3 PUSH1 0x20 SWAP5 PUSH1 0x40 MSTORE DUP4 CODECOPY DUP2 ADD SUB SLT PUSH2 0xFD JUMPI MLOAD PUSH1 0x1 PUSH1 0x1 PUSH1 0xA0 SHL SUB DUP1 DUP3 AND SWAP2 DUP3 SWAP1 SUB PUSH2 0xFD JUMPI PUSH1 0x0 SLOAD SWAP1 PUSH1 0x1 DUP1 PUSH1 0xA0 SHL SUB NOT SWAP2 CALLER DUP4 DUP3 AND OR PUSH1 0x0 SSTORE PUSH1 0x40 MLOAD SWAP2 CALLER SWAP2 AND PUSH32 0x8BE0079C531659141344CD1FD0A4F28419497F9722A3DAAFE3B4186F6B6457E0 PUSH1 0x0 DUP1 LOG3 PUSH1 0xC8 PUSH1 0x3 SSTORE PUSH1 0x32 PUSH1 0x4 SSTORE DUP3 ISZERO PUSH2 0xBB JUMPI POP PUSH1 0x1 SLOAD AND OR PUSH1 0x1 SSTORE PUSH1 0x40 MLOAD PUSH2 0x1546 SWAP1 DUP2 PUSH2 0x119 DUP3 CODECOPY RETURN JUMPDEST PUSH3 0x461BCD PUSH1 0xE5 SHL DUP2 MSTORE PUSH1 0x20 PUSH1 0x4 DUP3 ADD MSTORE PUSH1 0x1C PUSH1 0x24 DUP3 ADD MSTORE PUSH32 0x496E76616C6964204C616E645265676973747279206164647265737300000000 PUSH1 0x44 DUP3 ADD MSTORE PUSH1 0x64 SWAP1 REVERT JUMPDEST PUSH1 0x0 DUP1 REVERT JUMPDEST PUSH4 0x4E487B71 PUSH1 0xE0 SHL PUSH1 0x0 MSTORE PUSH1 0x41 PUSH1 0x4 MSTORE PUSH1 0x24 PUSH1 0x0 REVERT INVALID PUSH1 0x80 PUSH1 0x40 MSTORE PUSH1 0x4 CALLDATASIZE LT ISZERO PUSH2 0x12 JUMPI PUSH1 0x0 DUP1 REVERT JUMPDEST PUSH1 0x0 CALLDATALOAD PUSH1 0xE0 SHR DUP1 PUSH4 0x28047450 EQ PUSH2 0x1271 JUMPI DUP1 PUSH4 0x474DA79A EQ PUSH2 0x117F JUMPI DUP1 PUSH4 0x5CB23E12 EQ PUSH2 0x1128 JUMPI DUP1 PUSH4 0x5FFB0C2C EQ PUSH2 0x110A JUMPI DUP1 PUSH4 0x61155775 EQ PUSH2 0x10E1 JUMPI DUP1 PUSH4 0x6EBC8C86 EQ PUSH2 0xE95 JUMPI DUP1 PUSH4 0x715018A6 EQ PUSH2 0xE3C JUMPI DUP1 PUSH4 0x8736381A EQ PUSH2 0xE1E JUMPI DUP1 PUSH4 0x89BB320B EQ PUSH2 0xE00 JUMPI DUP1 PUSH4 0x8DA5CB5B EQ PUSH2 0xDD7 JUMPI DUP1 PUSH4 0x9537E8D1 EQ PUSH2 0xA43 JUMPI DUP1 PUSH4 0xA05AAF50 EQ PUSH2 0x922 JUMPI DUP1 PUSH4 0xD4A0E03D EQ PUSH2 0x8F6 JUMPI DUP1 PUSH4 0xF2FDE38B EQ PUSH2 0x82B JUMPI PUSH4 0xF9972FC8 EQ PUSH2 0xC1 JUMPI PUSH1 0x0 DUP1 REVERT JUMPDEST CALLVALUE PUSH2 0x5EE JUMPI PUSH1 0xA0 CALLDATASIZE PUSH1 0x3 NOT ADD SLT PUSH2 0x5EE JUMPI PUSH1 0x24 CALLDATALOAD PUSH1 0x1 PUSH1 0x1 PUSH1 0xA0 SHL SUB DUP2 AND DUP2 SUB PUSH2 0x5EE JUMPI PUSH1 0x44 CALLDATALOAD SWAP1 PUSH1 0x1 PUSH1 0x1 PUSH1 0xA0 SHL SUB DUP3 AND DUP3 SUB PUSH2 0x5EE JUMPI PUSH1 0x64 CALLDATALOAD SWAP2 PUSH1 0x1 PUSH1 0x1 PUSH1 0xA0 SHL SUB DUP4 AND DUP4 SUB PUSH2 0x5EE JUMPI PUSH1 0x1 PUSH1 0x1 PUSH1 0xA0 SHL SUB DUP3 AND ISZERO PUSH2 0x7ED JUMPI PUSH1 0x1 PUSH1 0x1 PUSH1 0xA0 SHL SUB DUP2 AND ISZERO PUSH2 0x7B0 JUMPI PUSH1 0x1 PUSH1 0x1 PUSH1 0xA0 SHL SUB DUP4 AND ISZERO PUSH2 0x76B JUMPI PUSH1 0x1 PUSH1 0x1 PUSH1 0xA0 SHL SUB DUP3 DUP2 AND SWAP1 DUP3 AND EQ PUSH2 0x71B JUMPI PUSH1 0x84 CALLDATALOAD ISZERO PUSH2 0x6D6 JUMPI PUSH1 0x1 SLOAD PUSH1 0x40 MLOAD PUSH4 0x241AA13 PUSH1 0xE1 SHL DUP2 MSTORE PUSH1 0x4 DUP1 CALLDATALOAD SWAP1 DUP3 ADD MSTORE PUSH1 0x1 PUSH1 0x1 PUSH1 0xA0 SHL SUB SWAP1 SWAP2 AND SWAP1 PUSH1 0x20 DUP2 PUSH1 0x24 DUP2 DUP6 GAS STATICCALL SWAP1 DUP2 ISZERO PUSH2 0x5FB JUMPI PUSH1 0x0 SWAP2 PUSH2 0x69B JUMPI JUMPDEST POP PUSH1 0x8 DUP2 LT ISZERO PUSH2 0x4AA JUMPI PUSH1 0x4 SUB PUSH2 0x64A JUMPI PUSH1 0x20 PUSH1 0x4 SWAP2 PUSH1 0x40 MLOAD SWAP3 DUP4 DUP1 SWAP3 PUSH4 0x2B359BC5 PUSH1 0xE0 SHL DUP3 MSTORE GAS STATICCALL SWAP1 DUP2 ISZERO PUSH2 0x5FB JUMPI PUSH1 0x0 SWAP2 PUSH2 0x607 JUMPI JUMPDEST POP PUSH1 0x40 MLOAD PUSH4 0x31A9108F PUSH1 0xE1 SHL DUP2 MSTORE PUSH1 0x4 DUP1 CALLDATALOAD SWAP1 DUP3 ADD MSTORE SWAP1 PUSH1 0x20 SWAP1 DUP3 SWAP1 PUSH1 0x24 SWAP1 DUP3 SWAP1 PUSH1 0x1 PUSH1 0x1 PUSH1 0xA0 SHL SUB AND GAS STATICCALL SWAP1 DUP2 ISZERO PUSH2 0x5FB JUMPI PUSH1 0x0 SWAP2 PUSH2 0x5B4 JUMPI JUMPDEST POP PUSH1 0x1 PUSH1 0x1 PUSH1 0xA0 SHL SUB DUP4 DUP2 AND SWAP2 AND SUB PUSH2 0x55C JUMPI PUSH1 0x4 CALLDATALOAD PUSH1 0x0 MSTORE PUSH1 0x6 PUSH1 0x20 MSTORE PUSH1 0x40 PUSH1 0x0 KECCAK256 SLOAD DUP1 PUSH2 0x4D6 JUMPI JUMPDEST POP PUSH1 0x2 SLOAD SWAP2 PUSH1 0x0 NOT DUP4 EQ PUSH2 0x4C0 JUMPI PUSH1 0x1 DUP4 ADD PUSH1 0x2 SSTORE PUSH2 0x2710 SWAP4 DUP5 PUSH2 0x256 PUSH1 0x3 SLOAD PUSH1 0x84 CALLDATALOAD PUSH2 0x14A5 JUMP JUMPDEST DIV SWAP5 PUSH2 0x266 PUSH1 0x4 SLOAD PUSH1 0x84 CALLDATALOAD PUSH2 0x14A5 JUMP JUMPDEST DIV PUSH1 0x40 MLOAD SWAP6 PUSH2 0x274 DUP8 PUSH2 0x144A JUMP JUMPDEST PUSH1 0x1 DUP7 ADD DUP8 MSTORE PUSH1 0x4 CALLDATALOAD PUSH1 0x20 DUP9 ADD MSTORE PUSH1 0x1 DUP1 PUSH1 0xA0 SHL SUB DUP5 AND PUSH1 0x40 DUP9 ADD MSTORE PUSH1 0x1 DUP1 PUSH1 0xA0 SHL SUB DUP6 AND PUSH1 0x60 DUP9 ADD MSTORE PUSH1 0x1 DUP1 PUSH1 0xA0 SHL SUB DUP4 AND PUSH1 0x80 DUP9 ADD MSTORE PUSH1 0x84 CALLDATALOAD PUSH1 0xA0 DUP9 ADD MSTORE PUSH1 0x0 PUSH1 0xC0 DUP9 ADD MSTORE PUSH1 0x0 PUSH1 0xE0 DUP9 ADD MSTORE PUSH1 0x0 PUSH2 0x100 DUP9 ADD MSTORE PUSH1 0x0 PUSH2 0x120 DUP9 ADD MSTORE TIMESTAMP PUSH2 0x140 DUP9 ADD MSTORE TIMESTAMP PUSH2 0x160 DUP9 ADD MSTORE PUSH2 0x180 DUP8 ADD MSTORE PUSH2 0x1A0 DUP7 ADD MSTORE PUSH1 0x0 PUSH2 0x1C0 DUP7 ADD MSTORE PUSH1 0x1 DUP5 ADD PUSH1 0x0 MSTORE PUSH1 0x5 PUSH1 0x20 MSTORE PUSH1 0x40 PUSH1 0x0 KECCAK256 SWAP5 DUP1 MLOAD DUP7 SSTORE PUSH1 0x20 DUP2 ADD MLOAD PUSH1 0x1 DUP8 ADD SSTORE PUSH1 0x2 DUP7 ADD PUSH1 0x1 DUP1 PUSH1 0xA0 SHL SUB PUSH1 0x40 DUP4 ADD MLOAD AND SWAP1 PUSH12 0xFFFFFFFFFFFFFFFFFFFFFFFF PUSH1 0xA0 SHL SWAP2 DUP3 DUP3 SLOAD AND OR SWAP1 SSTORE PUSH1 0x3 DUP8 ADD PUSH1 0x1 DUP1 PUSH1 0xA0 SHL SUB PUSH1 0x60 DUP5 ADD MLOAD AND DUP3 DUP3 SLOAD AND OR SWAP1 SSTORE PUSH1 0x4 DUP8 ADD SWAP1 PUSH1 0x1 DUP1 PUSH1 0xA0 SHL SUB PUSH1 0x80 DUP5 ADD MLOAD AND SWAP1 DUP3 SLOAD AND OR SWAP1 SSTORE PUSH1 0xA0 DUP2 ADD MLOAD PUSH1 0x5 DUP8 ADD SSTORE PUSH2 0x398 PUSH1 0xC0 DUP3 ADD MLOAD ISZERO ISZERO PUSH1 0x6 DUP9 ADD SWAP1 PUSH1 0xFF DUP1 NOT DUP4 SLOAD AND SWAP2 ISZERO ISZERO AND OR SWAP1 SSTORE JUMP JUMPDEST PUSH1 0xE0 DUP2 ADD MLOAD ISZERO ISZERO SWAP6 PUSH1 0x6 DUP2 ADD SLOAD PUSH3 0xFF0000 PUSH2 0x100 DUP5 ADD MLOAD ISZERO ISZERO PUSH1 0x10 SHL AND SWAP3 PUSH2 0x120 DUP2 ADD MLOAD SWAP1 PUSH1 0x3 DUP3 LT ISZERO PUSH2 0x4AA JUMPI PUSH1 0x20 SWAP10 PUSH2 0x438 SWAP6 PUSH1 0xB SWAP5 PUSH2 0xFF00 PUSH4 0xFF000000 PUSH2 0x1C0 SWAP7 PUSH1 0x18 SHL AND SWAP4 PUSH1 0x8 SHL AND SWAP1 PUSH4 0xFFFFFF00 NOT AND OR OR OR PUSH1 0x6 DUP6 ADD SSTORE PUSH2 0x140 DUP2 ADD MLOAD PUSH1 0x7 DUP6 ADD SSTORE PUSH2 0x160 DUP2 ADD MLOAD PUSH1 0x8 DUP6 ADD SSTORE PUSH2 0x180 DUP2 ADD MLOAD PUSH1 0x9 DUP6 ADD SSTORE PUSH2 0x1A0 DUP2 ADD MLOAD PUSH1 0xA DUP6 ADD SSTORE ADD MLOAD ISZERO ISZERO SWAP2 ADD SWAP1 PUSH1 0xFF DUP1 NOT DUP4 SLOAD AND SWAP2 ISZERO ISZERO AND OR SWAP1 SSTORE JUMP JUMPDEST PUSH1 0x4 CALLDATALOAD PUSH1 0x0 DUP2 DUP2 MSTORE PUSH1 0x6 DUP8 MSTORE PUSH1 0x40 SWAP1 DUP2 SWAP1 KECCAK256 PUSH1 0x1 DUP8 ADD SWAP1 DUP2 SWAP1 SSTORE DUP2 MLOAD PUSH1 0x1 PUSH1 0x1 PUSH1 0xA0 SHL SUB SWAP7 DUP8 AND DUP2 MSTORE SWAP4 DUP7 AND DUP5 DUP10 ADD MSTORE PUSH1 0x84 CALLDATALOAD SWAP2 DUP5 ADD SWAP2 SWAP1 SWAP2 MSTORE SWAP3 SWAP1 SWAP4 AND SWAP3 SWAP2 SWAP1 PUSH32 0xE0D69F9B24A1349FE7690358D89DFF6378B886159621BAF2438886E329F09918 SWAP1 PUSH1 0x60 SWAP1 LOG4 PUSH1 0x1 PUSH1 0x40 MLOAD SWAP2 ADD DUP2 MSTORE RETURN JUMPDEST PUSH4 0x4E487B71 PUSH1 0xE0 SHL PUSH1 0x0 MSTORE PUSH1 0x21 PUSH1 0x4 MSTORE PUSH1 0x24 PUSH1 0x0 REVERT JUMPDEST PUSH4 0x4E487B71 PUSH1 0xE0 SHL PUSH1 0x0 MSTORE PUSH1 0x11 PUSH1 0x4 MSTORE PUSH1 0x24 PUSH1 0x0 REVERT JUMPDEST PUSH1 0x0 MSTORE PUSH1 0x5 PUSH1 0x20 MSTORE PUSH1 0xFF PUSH1 0x6 PUSH1 0x40 PUSH1 0x0 KECCAK256 ADD SLOAD PUSH1 0x18 SHR AND PUSH1 0x3 DUP2 LT ISZERO PUSH2 0x4AA JUMPI ISZERO PUSH2 0x501 JUMPI CODESIZE PUSH2 0x22E JUMP JUMPDEST PUSH1 0x40 MLOAD PUSH3 0x461BCD PUSH1 0xE5 SHL DUP2 MSTORE PUSH1 0x20 PUSH1 0x4 DUP3 ADD MSTORE PUSH1 0x2D PUSH1 0x24 DUP3 ADD MSTORE PUSH32 0x41637469766520636F6E747261637420616C7265616479206578697374732066 PUSH1 0x44 DUP3 ADD MSTORE PUSH13 0x37B9103A3434B9903A37B5B2B7 PUSH1 0x99 SHL PUSH1 0x64 DUP3 ADD MSTORE PUSH1 0x84 SWAP1 REVERT JUMPDEST PUSH1 0x40 MLOAD PUSH3 0x461BCD PUSH1 0xE5 SHL DUP2 MSTORE PUSH1 0x20 PUSH1 0x4 DUP3 ADD MSTORE PUSH1 0x2A PUSH1 0x24 DUP3 ADD MSTORE PUSH32 0x53656C6C6572206973206E6F7420746865206F776E6572206F66207468697320 PUSH1 0x44 DUP3 ADD MSTORE PUSH10 0x3630B732103A37B5B2B7 PUSH1 0xB1 SHL PUSH1 0x64 DUP3 ADD MSTORE PUSH1 0x84 SWAP1 REVERT JUMPDEST SWAP1 POP PUSH1 0x20 DUP2 RETURNDATASIZE PUSH1 0x20 GT PUSH2 0x5F3 JUMPI JUMPDEST DUP2 PUSH2 0x5CF PUSH1 0x20 SWAP4 DUP4 PUSH2 0x1483 JUMP JUMPDEST DUP2 ADD SUB SLT PUSH2 0x5EE JUMPI MLOAD PUSH1 0x1 PUSH1 0x1 PUSH1 0xA0 SHL SUB DUP2 AND DUP2 SUB PUSH2 0x5EE JUMPI CODESIZE PUSH2 0x204 JUMP JUMPDEST PUSH1 0x0 DUP1 REVERT JUMPDEST RETURNDATASIZE SWAP2 POP PUSH2 0x5C2 JUMP JUMPDEST PUSH1 0x40 MLOAD RETURNDATASIZE PUSH1 0x0 DUP3 RETURNDATACOPY RETURNDATASIZE SWAP1 REVERT JUMPDEST SWAP1 POP PUSH1 0x20 DUP2 RETURNDATASIZE PUSH1 0x20 GT PUSH2 0x642 JUMPI JUMPDEST DUP2 PUSH2 0x622 PUSH1 0x20 SWAP4 DUP4 PUSH2 0x1483 JUMP JUMPDEST DUP2 ADD SUB SLT PUSH2 0x5EE JUMPI MLOAD PUSH1 0x1 PUSH1 0x1 PUSH1 0xA0 SHL SUB DUP2 AND DUP2 SUB PUSH2 0x5EE JUMPI PUSH1 0x20 PUSH2 0x1C9 JUMP JUMPDEST RETURNDATASIZE SWAP2 POP PUSH2 0x615 JUMP JUMPDEST PUSH1 0x40 MLOAD PUSH3 0x461BCD PUSH1 0xE5 SHL DUP2 MSTORE PUSH1 0x20 PUSH1 0x4 DUP3 ADD MSTORE PUSH1 0x24 DUP1 DUP3 ADD MSTORE PUSH32 0x4C616E64206D75737420626520696E2044414E475F4749414F5F444943482073 PUSH1 0x44 DUP3 ADD MSTORE PUSH4 0x74617465 PUSH1 0xE0 SHL PUSH1 0x64 DUP3 ADD MSTORE PUSH1 0x84 SWAP1 REVERT JUMPDEST SWAP1 POP PUSH1 0x20 DUP2 RETURNDATASIZE PUSH1 0x20 GT PUSH2 0x6CE JUMPI JUMPDEST DUP2 PUSH2 0x6B6 PUSH1 0x20 SWAP4 DUP4 PUSH2 0x1483 JUMP JUMPDEST DUP2 ADD SUB SLT PUSH2 0x5EE JUMPI MLOAD PUSH1 0x8 DUP2 LT ISZERO PUSH2 0x5EE JUMPI CODESIZE PUSH2 0x191 JUMP JUMPDEST RETURNDATASIZE SWAP2 POP PUSH2 0x6A9 JUMP JUMPDEST PUSH1 0x40 MLOAD PUSH3 0x461BCD PUSH1 0xE5 SHL DUP2 MSTORE PUSH1 0x20 PUSH1 0x4 DUP3 ADD MSTORE PUSH1 0x1F PUSH1 0x24 DUP3 ADD MSTORE PUSH32 0x5072696365206D7573742062652067726561746572207468616E207A65726F00 PUSH1 0x44 DUP3 ADD MSTORE PUSH1 0x64 SWAP1 REVERT JUMPDEST PUSH1 0x40 MLOAD PUSH3 0x461BCD PUSH1 0xE5 SHL DUP2 MSTORE PUSH1 0x20 PUSH1 0x4 DUP3 ADD MSTORE PUSH1 0x22 PUSH1 0x24 DUP3 ADD MSTORE PUSH32 0x53656C6C657220616E64206275796572206D7573742062652064696666657265 PUSH1 0x44 DUP3 ADD MSTORE PUSH2 0x1B9D PUSH1 0xF2 SHL PUSH1 0x64 DUP3 ADD MSTORE PUSH1 0x84 SWAP1 REVERT JUMPDEST PUSH1 0x40 MLOAD PUSH3 0x461BCD PUSH1 0xE5 SHL DUP2 MSTORE PUSH1 0x20 PUSH1 0x4 DUP3 ADD MSTORE PUSH1 0x19 PUSH1 0x24 DUP3 ADD MSTORE PUSH32 0x496E76616C696420636572746966696572206164647265737300000000000000 PUSH1 0x44 DUP3 ADD MSTORE PUSH1 0x64 SWAP1 REVERT JUMPDEST PUSH1 0x40 MLOAD PUSH3 0x461BCD PUSH1 0xE5 SHL DUP2 MSTORE PUSH1 0x20 PUSH1 0x4 DUP3 ADD MSTORE PUSH1 0x15 PUSH1 0x24 DUP3 ADD MSTORE PUSH21 0x496E76616C69642062757965722061646472657373 PUSH1 0x58 SHL PUSH1 0x44 DUP3 ADD MSTORE PUSH1 0x64 SWAP1 REVERT JUMPDEST PUSH1 0x40 MLOAD PUSH3 0x461BCD PUSH1 0xE5 SHL DUP2 MSTORE PUSH1 0x20 PUSH1 0x4 DUP3 ADD MSTORE PUSH1 0x16 PUSH1 0x24 DUP3 ADD MSTORE PUSH22 0x496E76616C69642073656C6C65722061646472657373 PUSH1 0x50 SHL PUSH1 0x44 DUP3 ADD MSTORE PUSH1 0x64 SWAP1 REVERT JUMPDEST CALLVALUE PUSH2 0x5EE JUMPI PUSH1 0x20 CALLDATASIZE PUSH1 0x3 NOT ADD SLT PUSH2 0x5EE JUMPI PUSH1 0x4 CALLDATALOAD PUSH1 0x1 PUSH1 0x1 PUSH1 0xA0 SHL SUB DUP2 DUP2 AND SWAP2 DUP3 SWAP1 SUB PUSH2 0x5EE JUMPI PUSH2 0x85A PUSH2 0x14B8 JUMP JUMPDEST DUP2 ISZERO PUSH2 0x8A2 JUMPI PUSH1 0x0 SLOAD DUP3 PUSH12 0xFFFFFFFFFFFFFFFFFFFFFFFF PUSH1 0xA0 SHL DUP3 AND OR PUSH1 0x0 SSTORE AND PUSH32 0x8BE0079C531659141344CD1FD0A4F28419497F9722A3DAAFE3B4186F6B6457E0 PUSH1 0x0 DUP1 LOG3 STOP JUMPDEST PUSH1 0x40 MLOAD PUSH3 0x461BCD PUSH1 0xE5 SHL DUP2 MSTORE PUSH1 0x20 PUSH1 0x4 DUP3 ADD MSTORE PUSH1 0x26 PUSH1 0x24 DUP3 ADD MSTORE PUSH32 0x4F776E61626C653A206E6577206F776E657220697320746865207A65726F2061 PUSH1 0x44 DUP3 ADD MSTORE PUSH6 0x646472657373 PUSH1 0xD0 SHL PUSH1 0x64 DUP3 ADD MSTORE PUSH1 0x84 SWAP1 REVERT JUMPDEST CALLVALUE PUSH2 0x5EE JUMPI PUSH1 0x20 CALLDATASIZE PUSH1 0x3 NOT ADD SLT PUSH2 0x5EE JUMPI PUSH1 0x4 CALLDATALOAD PUSH1 0x0 MSTORE PUSH1 0x6 PUSH1 0x20 MSTORE PUSH1 0x20 PUSH1 0x40 PUSH1 0x0 KECCAK256 SLOAD PUSH1 0x40 MLOAD SWAP1 DUP2 MSTORE RETURN JUMPDEST CALLVALUE PUSH2 0x5EE JUMPI PUSH1 0x20 CALLDATASIZE PUSH1 0x3 NOT ADD SLT PUSH2 0x5EE JUMPI PUSH1 0x4 CALLDATALOAD PUSH2 0x93E PUSH2 0x14B8 JUMP JUMPDEST DUP1 PUSH1 0x0 MSTORE PUSH1 0x5 PUSH1 0x20 MSTORE PUSH1 0x40 PUSH1 0x0 KECCAK256 PUSH2 0x958 DUP2 SLOAD ISZERO ISZERO PUSH2 0x13B2 JUMP JUMPDEST PUSH1 0xFF PUSH1 0x6 DUP3 ADD SLOAD PUSH1 0x18 SHR AND PUSH1 0x3 DUP2 LT ISZERO PUSH2 0x4AA JUMPI PUSH1 0x2 EQ PUSH2 0xA06 JUMPI PUSH1 0xB DUP2 ADD SWAP1 DUP2 SLOAD SWAP1 PUSH1 0xFF DUP3 AND PUSH2 0x9CE JUMPI PUSH32 0x83A4FAB6E20B39884C2CA65858CE98AAC9FB88A8D6A9B7578A895DDA1D2BC3F6 SWAP3 PUSH1 0x1 PUSH1 0x40 SWAP4 PUSH1 0xFF NOT AND OR SWAP1 SSTORE TIMESTAMP PUSH1 0x8 DUP3 ADD SSTORE PUSH1 0xA PUSH1 0x9 DUP3 ADD SLOAD SWAP2 ADD SLOAD DUP3 MLOAD SWAP2 DUP3 MSTORE PUSH1 0x20 DUP3 ADD MSTORE LOG2 STOP JUMPDEST PUSH1 0x40 MLOAD PUSH3 0x461BCD PUSH1 0xE5 SHL DUP2 MSTORE PUSH1 0x20 PUSH1 0x4 DUP3 ADD MSTORE PUSH1 0x10 PUSH1 0x24 DUP3 ADD MSTORE PUSH16 0x15185E08185B1C9958591E481C185A59 PUSH1 0x82 SHL PUSH1 0x44 DUP3 ADD MSTORE PUSH1 0x64 SWAP1 REVERT JUMPDEST PUSH1 0x40 MLOAD PUSH3 0x461BCD PUSH1 0xE5 SHL DUP2 MSTORE PUSH1 0x20 PUSH1 0x4 DUP3 ADD MSTORE PUSH1 0x15 PUSH1 0x24 DUP3 ADD MSTORE PUSH21 0x10DBDB9D1C9858DD081A5CC818D85B98D95B1B1959 PUSH1 0x5A SHL PUSH1 0x44 DUP3 ADD MSTORE PUSH1 0x64 SWAP1 REVERT JUMPDEST CALLVALUE PUSH2 0x5EE JUMPI PUSH1 0x20 DUP1 PUSH1 0x3 NOT CALLDATASIZE ADD SLT PUSH2 0x5EE JUMPI PUSH1 0x4 CALLDATALOAD SWAP1 DUP2 PUSH1 0x0 MSTORE PUSH1 0x5 DUP2 MSTORE PUSH1 0x40 PUSH1 0x0 KECCAK256 SWAP1 PUSH2 0xA73 DUP3 SLOAD ISZERO ISZERO PUSH2 0x13B2 JUMP JUMPDEST PUSH1 0x6 DUP3 ADD DUP1 SLOAD PUSH1 0xFF SWAP4 DUP5 DUP3 PUSH1 0x18 SHR AND PUSH1 0x3 DUP2 LT ISZERO PUSH2 0x4AA JUMPI PUSH2 0xA95 SWAP1 ISZERO PUSH2 0x13FE JUMP JUMPDEST PUSH1 0x0 PUSH1 0x40 MLOAD DUP6 DUP2 ADD DUP2 DUP2 LT PUSH8 0xFFFFFFFFFFFFFFFF DUP3 GT OR PUSH2 0xDC1 JUMPI PUSH1 0x40 MSTORE PUSH1 0x0 DUP2 MSTORE PUSH1 0x2 DUP4 ADD SLOAD SWAP1 SWAP4 SWAP1 PUSH1 0x1 PUSH1 0x1 PUSH1 0xA0 SHL SUB SWAP1 CALLER SWAP1 DUP3 AND SUB PUSH2 0xC92 JUMPI POP POP POP SWAP1 POP DUP2 SLOAD DUP5 DUP2 AND PUSH2 0xC55 JUMPI PUSH1 0x1 SWAP1 PUSH1 0xFF NOT AND OR DUP3 SSTORE PUSH1 0x1 SWAP1 PUSH1 0x40 MLOAD PUSH2 0xAF8 DUP2 PUSH2 0x1467 JUMP JUMPDEST PUSH1 0x6 DUP2 MSTORE PUSH6 0x39B2B63632B9 PUSH1 0xD1 SHL DUP6 DUP3 ADD MSTORE SWAP2 JUMPDEST ISZERO PUSH2 0xBF9 JUMPI PUSH1 0x8 TIMESTAMP SWAP2 ADD SSTORE DUP5 PUSH1 0x40 MLOAD DUP5 DUP2 MSTORE DUP3 MLOAD SWAP3 DUP4 DUP7 DUP4 ADD MSTORE DUP6 PUSH1 0x0 JUMPDEST DUP6 DUP2 LT PUSH2 0xBE1 JUMPI POP POP POP DUP1 PUSH1 0x0 PUSH1 0x40 DUP6 PUSH32 0x52EA4F03466ECB6E478B756F8A6E63E9A06048EEC55443B64FBEF66048D2E9BF SWAP5 ADD ADD MSTORE PUSH1 0x40 DUP2 CALLER SWAP6 PUSH1 0x1F DUP1 NOT SWAP2 ADD AND DUP2 ADD SUB ADD SWAP1 LOG3 DUP1 SLOAD SWAP3 DUP1 DUP5 AND SWAP1 DUP2 PUSH2 0xBD3 JUMPI JUMPDEST DUP2 PUSH2 0xBC6 JUMPI JUMPDEST POP PUSH2 0xB8B JUMPI STOP JUMPDEST PUSH4 0x1000000 PUSH32 0xDCBA20243CECE5EE0F3FD42C582F8201538D034183ADFEFBC2E6BF21DE8FD376 SWAP4 PUSH4 0xFF000000 NOT AND OR SWAP1 SSTORE PUSH1 0x40 MLOAD PUSH1 0x1 DUP2 MSTORE LOG2 STOP JUMPDEST SWAP1 POP DUP4 PUSH1 0x10 SHR AND DUP6 PUSH2 0xB84 JUMP JUMPDEST DUP1 SWAP2 POP DUP5 PUSH1 0x8 SHR AND SWAP1 PUSH2 0xB7E JUMP JUMPDEST DUP3 DUP2 ADD DUP3 ADD MLOAD DUP5 DUP3 ADD PUSH1 0x40 ADD MSTORE DUP10 SWAP5 POP DUP8 SWAP2 ADD PUSH2 0xB2A JUMP JUMPDEST PUSH1 0x40 MLOAD PUSH3 0x461BCD PUSH1 0xE5 SHL DUP2 MSTORE PUSH1 0x4 DUP2 ADD DUP6 SWAP1 MSTORE PUSH1 0x2E PUSH1 0x24 DUP3 ADD MSTORE PUSH32 0x53656E646572206973206E6F7420617574686F72697A656420746F207369676E PUSH1 0x44 DUP3 ADD MSTORE PUSH14 0x81D1A1A5CC818DBDB9D1C9858DD PUSH1 0x92 SHL PUSH1 0x64 DUP3 ADD MSTORE PUSH1 0x84 SWAP1 REVERT JUMPDEST PUSH1 0x40 MLOAD PUSH3 0x461BCD PUSH1 0xE5 SHL DUP2 MSTORE PUSH1 0x4 DUP2 ADD DUP6 SWAP1 MSTORE PUSH1 0x15 PUSH1 0x24 DUP3 ADD MSTORE PUSH21 0x14D95B1B195C88185B1C9958591E481CDA59DB9959 PUSH1 0x5A SHL PUSH1 0x44 DUP3 ADD MSTORE PUSH1 0x64 SWAP1 REVERT JUMPDEST DUP1 PUSH1 0x3 DUP6 ADD SLOAD AND CALLER EQ PUSH1 0x0 EQ PUSH2 0xD21 JUMPI POP POP POP SWAP1 POP DUP2 SLOAD DUP5 DUP2 PUSH1 0x8 SHR AND PUSH2 0xCE5 JUMPI PUSH2 0xFF00 NOT AND PUSH2 0x100 OR DUP3 SSTORE PUSH1 0x40 MLOAD PUSH1 0x1 SWAP2 SWAP1 PUSH2 0xCCE DUP2 PUSH2 0x1467 JUMP JUMPDEST PUSH1 0x5 DUP2 MSTORE PUSH5 0x313ABCB2B9 PUSH1 0xD9 SHL DUP6 DUP3 ADD MSTORE SWAP2 PUSH2 0xB0C JUMP JUMPDEST PUSH1 0x40 MLOAD PUSH3 0x461BCD PUSH1 0xE5 SHL DUP2 MSTORE PUSH1 0x4 DUP2 ADD DUP6 SWAP1 MSTORE PUSH1 0x14 PUSH1 0x24 DUP3 ADD MSTORE PUSH20 0x109D5E595C88185B1C9958591E481CDA59DB9959 PUSH1 0x62 SHL PUSH1 0x44 DUP3 ADD MSTORE PUSH1 0x64 SWAP1 REVERT JUMPDEST PUSH1 0x4 DUP5 ADD SLOAD AND CALLER EQ PUSH2 0xD34 JUMPI JUMPDEST POP PUSH2 0xB0C JUMP JUMPDEST DUP1 SWAP3 SWAP4 POP DUP7 SWAP2 POP PUSH1 0x10 SHR AND PUSH2 0xD7C JUMPI PUSH3 0xFF0000 NOT AND PUSH3 0x10000 OR DUP3 SSTORE PUSH1 0x40 MLOAD PUSH1 0x1 SWAP2 SWAP1 PUSH2 0xD60 DUP2 PUSH2 0x1467 JUMP JUMPDEST PUSH1 0x9 DUP2 MSTORE PUSH9 0x31B2B93A34B334B2B9 PUSH1 0xB9 SHL DUP6 DUP3 ADD MSTORE SWAP2 DUP8 PUSH2 0xD2E JUMP JUMPDEST PUSH1 0x40 MLOAD PUSH3 0x461BCD PUSH1 0xE5 SHL DUP2 MSTORE PUSH1 0x4 DUP2 ADD DUP6 SWAP1 MSTORE PUSH1 0x18 PUSH1 0x24 DUP3 ADD MSTORE PUSH32 0x43657274696669657220616C7265616479207369676E65640000000000000000 PUSH1 0x44 DUP3 ADD MSTORE PUSH1 0x64 SWAP1 REVERT JUMPDEST PUSH4 0x4E487B71 PUSH1 0xE0 SHL PUSH1 0x0 MSTORE PUSH1 0x41 PUSH1 0x4 MSTORE PUSH1 0x24 PUSH1 0x0 REVERT JUMPDEST CALLVALUE PUSH2 0x5EE JUMPI PUSH1 0x0 CALLDATASIZE PUSH1 0x3 NOT ADD SLT PUSH2 0x5EE JUMPI PUSH1 0x0 SLOAD PUSH1 0x40 MLOAD PUSH1 0x1 PUSH1 0x1 PUSH1 0xA0 SHL SUB SWAP1 SWAP2 AND DUP2 MSTORE PUSH1 0x20 SWAP1 RETURN JUMPDEST CALLVALUE PUSH2 0x5EE JUMPI PUSH1 0x0 CALLDATASIZE PUSH1 0x3 NOT ADD SLT PUSH2 0x5EE JUMPI PUSH1 0x20 PUSH1 0x3 SLOAD PUSH1 0x40 MLOAD SWAP1 DUP2 MSTORE RETURN JUMPDEST CALLVALUE PUSH2 0x5EE JUMPI PUSH1 0x0 CALLDATASIZE PUSH1 0x3 NOT ADD SLT PUSH2 0x5EE JUMPI PUSH1 0x20 PUSH1 0x2 SLOAD PUSH1 0x40 MLOAD SWAP1 DUP2 MSTORE RETURN JUMPDEST CALLVALUE PUSH2 0x5EE JUMPI PUSH1 0x0 CALLDATASIZE PUSH1 0x3 NOT ADD SLT PUSH2 0x5EE JUMPI PUSH2 0xE55 PUSH2 0x14B8 JUMP JUMPDEST PUSH1 0x0 DUP1 SLOAD PUSH1 0x1 PUSH1 0x1 PUSH1 0xA0 SHL SUB NOT DUP2 AND DUP3 SSTORE PUSH1 0x1 PUSH1 0x1 PUSH1 0xA0 SHL SUB AND PUSH32 0x8BE0079C531659141344CD1FD0A4F28419497F9722A3DAAFE3B4186F6B6457E0 DUP3 DUP1 LOG3 STOP JUMPDEST CALLVALUE PUSH2 0x5EE JUMPI PUSH1 0x20 CALLDATASIZE PUSH1 0x3 NOT ADD SLT PUSH2 0x5EE JUMPI PUSH1 0x4 CALLDATALOAD PUSH1 0x0 PUSH2 0x1C0 PUSH1 0x40 MLOAD PUSH2 0xEBA DUP2 PUSH2 0x144A JUMP JUMPDEST DUP3 DUP2 MSTORE DUP3 PUSH1 0x20 DUP3 ADD MSTORE DUP3 PUSH1 0x40 DUP3 ADD MSTORE DUP3 PUSH1 0x60 DUP3 ADD MSTORE DUP3 PUSH1 0x80 DUP3 ADD MSTORE DUP3 PUSH1 0xA0 DUP3 ADD MSTORE DUP3 PUSH1 0xC0 DUP3 ADD MSTORE DUP3 PUSH1 0xE0 DUP3 ADD MSTORE DUP3 PUSH2 0x100 DUP3 ADD MSTORE DUP3 PUSH2 0x120 DUP3 ADD MSTORE DUP3 PUSH2 0x140 DUP3 ADD MSTORE DUP3 PUSH2 0x160 DUP3 ADD MSTORE DUP3 PUSH2 0x180 DUP3 ADD MSTORE DUP3 PUSH2 0x1A0 DUP3 ADD MSTORE ADD MSTORE DUP1 PUSH1 0x0 MSTORE PUSH1 0x5 PUSH1 0x20 MSTORE PUSH2 0xF2C PUSH1 0x40 PUSH1 0x0 KECCAK256 SLOAD ISZERO ISZERO PUSH2 0x13B2 JUMP JUMPDEST PUSH1 0x0 MSTORE PUSH1 0x5 PUSH1 0x20 MSTORE PUSH1 0x40 PUSH1 0x0 KECCAK256 PUSH1 0x40 MLOAD PUSH2 0xF45 DUP2 PUSH2 0x144A JUMP JUMPDEST DUP2 SLOAD DUP2 MSTORE PUSH1 0x1 DUP3 ADD SLOAD PUSH1 0x20 DUP3 ADD MSTORE PUSH1 0x2 DUP3 ADD SLOAD PUSH1 0x1 PUSH1 0x1 PUSH1 0xA0 SHL SUB SWAP1 DUP2 AND PUSH1 0x40 DUP4 ADD MSTORE PUSH1 0x3 DUP1 DUP5 ADD SLOAD DUP3 AND PUSH1 0x60 DUP5 ADD MSTORE PUSH1 0x4 DUP5 ADD SLOAD SWAP1 SWAP2 AND PUSH1 0x80 DUP4 ADD MSTORE PUSH1 0x5 DUP4 ADD SLOAD PUSH1 0xA0 DUP4 ADD MSTORE PUSH1 0x6 DUP4 ADD SLOAD PUSH1 0xFF DUP1 DUP3 AND ISZERO ISZERO PUSH1 0xC0 DUP6 ADD MSTORE PUSH1 0x8 DUP3 SWAP1 SHR DUP2 AND ISZERO ISZERO PUSH1 0xE0 DUP6 ADD MSTORE PUSH1 0x10 DUP3 SWAP1 SHR DUP2 AND ISZERO ISZERO PUSH2 0x100 DUP6 ADD MSTORE SWAP1 SWAP4 SWAP2 PUSH1 0x18 DUP6 SWAP1 SHR SWAP1 SWAP2 AND LT ISZERO PUSH2 0x4AA JUMPI PUSH1 0xB PUSH1 0xFF SWAP2 DUP3 PUSH2 0x1E0 SWAP6 PUSH1 0x18 SHR AND PUSH2 0x120 DUP6 ADD MSTORE PUSH1 0x7 DUP2 ADD SLOAD PUSH2 0x140 DUP6 ADD MSTORE PUSH1 0x8 DUP2 ADD SLOAD PUSH2 0x160 DUP6 ADD MSTORE PUSH1 0x9 DUP2 ADD SLOAD PUSH2 0x180 DUP6 ADD MSTORE PUSH1 0xA DUP2 ADD SLOAD PUSH2 0x1A0 DUP6 ADD MSTORE ADD SLOAD AND ISZERO ISZERO PUSH2 0x1C0 DUP3 ADD MSTORE PUSH2 0x1C0 PUSH1 0x40 MLOAD SWAP2 DUP1 MLOAD DUP4 MSTORE PUSH1 0x20 DUP2 ADD MLOAD PUSH1 0x20 DUP5 ADD MSTORE PUSH1 0x1 DUP1 PUSH1 0xA0 SHL SUB PUSH1 0x40 DUP3 ADD MLOAD AND PUSH1 0x40 DUP5 ADD MSTORE PUSH1 0x1 DUP1 PUSH1 0xA0 SHL SUB PUSH1 0x60 DUP3 ADD MLOAD AND PUSH1 0x60 DUP5 ADD MSTORE PUSH1 0x1 DUP1 PUSH1 0xA0 SHL SUB PUSH1 0x80 DUP3 ADD MLOAD AND PUSH1 0x80 DUP5 ADD MSTORE PUSH1 0xA0 DUP2 ADD MLOAD PUSH1 0xA0 DUP5 ADD MSTORE PUSH1 0xC0 DUP2 ADD MLOAD ISZERO ISZERO PUSH1 0xC0 DUP5 ADD MSTORE PUSH1 0xE0 DUP2 ADD MLOAD ISZERO ISZERO PUSH1 0xE0 DUP5 ADD MSTORE PUSH2 0x100 DUP2 ADD MLOAD ISZERO ISZERO PUSH2 0x100 DUP5 ADD MSTORE PUSH2 0x10A5 PUSH2 0x120 DUP3 ADD MLOAD PUSH2 0x120 DUP6 ADD SWAP1 PUSH2 0x13A5 JUMP JUMPDEST PUSH2 0x140 DUP2 ADD MLOAD PUSH2 0x140 DUP5 ADD MSTORE PUSH2 0x160 DUP2 ADD MLOAD PUSH2 0x160 DUP5 ADD MSTORE PUSH2 0x180 DUP2 ADD MLOAD PUSH2 0x180 DUP5 ADD MSTORE PUSH2 0x1A0 DUP2 ADD MLOAD PUSH2 0x1A0 DUP5 ADD MSTORE ADD MLOAD ISZERO ISZERO PUSH2 0x1C0 DUP3 ADD MSTORE RETURN JUMPDEST CALLVALUE PUSH2 0x5EE JUMPI PUSH1 0x0 CALLDATASIZE PUSH1 0x3 NOT ADD SLT PUSH2 0x5EE JUMPI PUSH1 0x1 SLOAD PUSH1 0x40 MLOAD PUSH1 0x1 PUSH1 0x1 PUSH1 0xA0 SHL SUB SWAP1 SWAP2 AND DUP2 MSTORE PUSH1 0x20 SWAP1 RETURN JUMPDEST CALLVALUE PUSH2 0x5EE JUMPI PUSH1 0x0 CALLDATASIZE PUSH1 0x3 NOT ADD SLT PUSH2 0x5EE JUMPI PUSH1 0x20 PUSH1 0x4 SLOAD PUSH1 0x40 MLOAD SWAP1 DUP2 MSTORE RETURN JUMPDEST CALLVALUE PUSH2 0x5EE JUMPI PUSH1 0x40 CALLDATASIZE PUSH1 0x3 NOT ADD SLT PUSH2 0x5EE JUMPI PUSH32 0x8AF72BCE83E770654B24F833792771B0C5ECD95A31E17A43D11475B9F0C96ABA PUSH1 0x40 PUSH1 0x4 CALLDATALOAD PUSH1 0x24 CALLDATALOAD PUSH2 0x116A PUSH2 0x14B8 JUMP JUMPDEST DUP2 PUSH1 0x3 SSTORE DUP1 PUSH1 0x4 SSTORE DUP3 MLOAD SWAP2 DUP3 MSTORE PUSH1 0x20 DUP3 ADD MSTORE LOG1 STOP JUMPDEST CALLVALUE PUSH2 0x5EE JUMPI PUSH1 0x20 CALLDATASIZE PUSH1 0x3 NOT ADD SLT PUSH2 0x5EE JUMPI PUSH1 0x4 CALLDATALOAD PUSH1 0x0 MSTORE PUSH1 0x5 PUSH1 0x20 MSTORE PUSH2 0x1E0 PUSH1 0x40 PUSH1 0x0 KECCAK256 DUP1 SLOAD SWAP1 PUSH1 0x1 DUP2 ADD SLOAD SWAP1 PUSH1 0x1 DUP1 PUSH1 0xA0 SHL SUB DUP1 PUSH1 0x2 DUP4 ADD SLOAD AND SWAP1 DUP1 PUSH1 0x3 DUP5 ADD SLOAD AND SWAP1 PUSH1 0x4 DUP5 ADD SLOAD AND PUSH2 0x124F PUSH1 0x5 DUP6 ADD SLOAD PUSH1 0x6 DUP7 ADD SLOAD SWAP1 PUSH1 0x7 DUP8 ADD SLOAD SWAP4 PUSH1 0x8 DUP9 ADD SLOAD SWAP6 PUSH1 0x9 DUP10 ADD SLOAD SWAP8 PUSH1 0xFF PUSH1 0xB PUSH1 0xA DUP13 ADD SLOAD SWAP12 ADD SLOAD AND SWAP11 PUSH1 0x40 MLOAD SWAP13 DUP14 MSTORE PUSH1 0x20 DUP14 ADD MSTORE PUSH1 0x40 DUP13 ADD MSTORE PUSH1 0x60 DUP12 ADD MSTORE PUSH1 0x80 DUP11 ADD MSTORE PUSH1 0xA0 DUP10 ADD MSTORE PUSH1 0xFF DUP2 AND ISZERO ISZERO PUSH1 0xC0 DUP10 ADD MSTORE PUSH1 0xFF DUP2 PUSH1 0x8 SHR AND ISZERO ISZERO PUSH1 0xE0 DUP10 ADD MSTORE PUSH1 0xFF DUP2 PUSH1 0x10 SHR AND ISZERO ISZERO PUSH2 0x100 DUP10 ADD MSTORE PUSH1 0xFF PUSH2 0x120 DUP10 ADD SWAP2 PUSH1 0x18 SHR AND PUSH2 0x13A5 JUMP JUMPDEST PUSH2 0x140 DUP7 ADD MSTORE PUSH2 0x160 DUP6 ADD MSTORE PUSH2 0x180 DUP5 ADD MSTORE PUSH2 0x1A0 DUP4 ADD MSTORE ISZERO ISZERO PUSH2 0x1C0 DUP3 ADD MSTORE RETURN JUMPDEST CALLVALUE PUSH2 0x5EE JUMPI PUSH1 0x20 CALLDATASIZE PUSH1 0x3 NOT ADD SLT PUSH2 0x5EE JUMPI PUSH1 0x4 CALLDATALOAD DUP1 PUSH1 0x0 MSTORE PUSH1 0x5 PUSH1 0x20 MSTORE PUSH1 0x40 PUSH1 0x0 KECCAK256 PUSH2 0x129F DUP2 SLOAD ISZERO ISZERO PUSH2 0x13B2 JUMP JUMPDEST PUSH1 0x6 DUP2 ADD DUP1 SLOAD PUSH1 0xFF DUP2 PUSH1 0x18 SHR AND PUSH1 0x3 DUP2 LT ISZERO PUSH2 0x4AA JUMPI PUSH2 0x12BF SWAP1 ISZERO PUSH2 0x13FE JUMP JUMPDEST PUSH1 0x2 DUP4 ADD SLOAD CALLER PUSH1 0x1 PUSH1 0x1 PUSH1 0xA0 SHL SUB SWAP2 DUP3 AND EQ SWAP1 DUP2 ISZERO PUSH2 0x1394 JUMPI JUMPDEST DUP2 ISZERO PUSH2 0x1383 JUMPI JUMPDEST DUP2 ISZERO PUSH2 0x1375 JUMPI JUMPDEST POP ISZERO PUSH2 0x1330 JUMPI PUSH4 0x2000000 SWAP1 PUSH4 0xFF000000 NOT AND OR SWAP1 SSTORE PUSH1 0x8 TIMESTAMP SWAP2 ADD SSTORE PUSH32 0xDCBA20243CECE5EE0F3FD42C582F8201538D034183ADFEFBC2E6BF21DE8FD376 PUSH1 0x20 PUSH1 0x40 MLOAD PUSH1 0x2 DUP2 MSTORE LOG2 STOP JUMPDEST PUSH1 0x40 MLOAD PUSH3 0x461BCD PUSH1 0xE5 SHL DUP2 MSTORE PUSH1 0x20 PUSH1 0x4 DUP3 ADD MSTORE PUSH1 0x18 PUSH1 0x24 DUP3 ADD MSTORE PUSH32 0x4E6F7420617574686F72697A656420746F2063616E63656C0000000000000000 PUSH1 0x44 DUP3 ADD MSTORE PUSH1 0x64 SWAP1 REVERT JUMPDEST SWAP1 POP PUSH1 0x0 SLOAD AND CALLER EQ DUP6 PUSH2 0x12E7 JUMP JUMPDEST DUP1 SWAP2 POP PUSH1 0x4 DUP6 ADD SLOAD AND CALLER EQ SWAP1 PUSH2 0x12E0 JUMP JUMPDEST DUP1 SWAP2 POP PUSH1 0x3 DUP6 ADD SLOAD AND CALLER EQ SWAP1 PUSH2 0x12D9 JUMP JUMPDEST SWAP1 PUSH1 0x3 DUP3 LT ISZERO PUSH2 0x4AA JUMPI MSTORE JUMP JUMPDEST ISZERO PUSH2 0x13B9 JUMPI JUMP JUMPDEST PUSH1 0x40 MLOAD PUSH3 0x461BCD PUSH1 0xE5 SHL DUP2 MSTORE PUSH1 0x20 PUSH1 0x4 DUP3 ADD MSTORE PUSH1 0x17 PUSH1 0x24 DUP3 ADD MSTORE PUSH32 0x436F6E747261637420646F6573206E6F74206578697374000000000000000000 PUSH1 0x44 DUP3 ADD MSTORE PUSH1 0x64 SWAP1 REVERT JUMPDEST ISZERO PUSH2 0x1405 JUMPI JUMP JUMPDEST PUSH1 0x40 MLOAD PUSH3 0x461BCD PUSH1 0xE5 SHL DUP2 MSTORE PUSH1 0x20 PUSH1 0x4 DUP3 ADD MSTORE PUSH1 0x17 PUSH1 0x24 DUP3 ADD MSTORE PUSH32 0x436F6E7472616374206973206E6F742070656E64696E67000000000000000000 PUSH1 0x44 DUP3 ADD MSTORE PUSH1 0x64 SWAP1 REVERT JUMPDEST PUSH2 0x1E0 DUP2 ADD SWAP1 DUP2 LT PUSH8 0xFFFFFFFFFFFFFFFF DUP3 GT OR PUSH2 0xDC1 JUMPI PUSH1 0x40 MSTORE JUMP JUMPDEST PUSH1 0x40 DUP2 ADD SWAP1 DUP2 LT PUSH8 0xFFFFFFFFFFFFFFFF DUP3 GT OR PUSH2 0xDC1 JUMPI PUSH1 0x40 MSTORE JUMP JUMPDEST SWAP1 PUSH1 0x1F DUP1 NOT SWAP2 ADD AND DUP2 ADD SWAP1 DUP2 LT PUSH8 0xFFFFFFFFFFFFFFFF DUP3 GT OR PUSH2 0xDC1 JUMPI PUSH1 0x40 MSTORE JUMP JUMPDEST DUP2 DUP2 MUL SWAP3 SWAP2 DUP2 ISZERO SWAP2 DUP5 DIV EQ OR ISZERO PUSH2 0x4C0 JUMPI JUMP JUMPDEST PUSH1 0x0 SLOAD PUSH1 0x1 PUSH1 0x1 PUSH1 0xA0 SHL SUB AND CALLER SUB PUSH2 0x14CC JUMPI JUMP JUMPDEST PUSH1 0x64 PUSH1 0x40 MLOAD PUSH3 0x461BCD PUSH1 0xE5 SHL DUP2 MSTORE PUSH1 0x20 PUSH1 0x4 DUP3 ADD MSTORE PUSH1 0x20 PUSH1 0x24 DUP3 ADD MSTORE PUSH32 0x4F776E61626C653A2063616C6C6572206973206E6F7420746865206F776E6572 PUSH1 0x44 DUP3 ADD MSTORE REVERT INVALID LOG2 PUSH5 0x6970667358 0x22 SLT KECCAK256 LOG3 0xB3 0xF9 BYTE 0x2A 0xB6 PUSH30 0x2ACFD90A68B6609F5653CD9A0BDC9614D16520A435F886D02F64736F6C63 NUMBER STOP ADDMOD XOR STOP CALLER "},"methodIdentifiers":{"activeContractByToken(uint256)":"d4a0e03d","cancelContract(uint256)":"28047450","contractCount()":"8736381a","contracts(uint256)":"474da79a","createContract(uint256,address,address,address,uint256)":"f9972fc8","feeRatePreBa()":"5ffb0c2c","getContract(uint256)":"6ebc8c86","landRegistryContract()":"61155775","owner()":"8da5cb5b","payTax(uint256)":"a05aaf50","renounceOwnership()":"715018a6","setTaxRates(uint256,uint256)":"5cb23e12","signContract(uint256)":"9537e8d1","taxRateTNCN()":"89bb320b","transferOwnership(address)":"f2fde38b"}}}}}