{"contracts/LandRegistry.sol":{"LandRegistry":{"abi":[{"inputs":[{"internalType":"address","name":"_landNFTAddress","type":"address"}],"stateMutability":"nonpayable","type":"constructor"},{"anonymous":false,"inputs":[{"indexed":true,"internalType":"uint256","name":"tokenId","type":"uint256"},{"indexed":true,"internalType":"address","name":"owner","type":"address"},{"indexed":false,"internalType":"string","name":"tokenURI","type":"string"}],"name":"LandCreated","type":"event"},{"anonymous":false,"inputs":[{"indexed":true,"internalType":"uint256","name":"tokenId","type":"uint256"},{"indexed":false,"internalType":"enum LandRegistry.LandStatus","name":"oldStatus","type":"uint8"},{"indexed":false,"internalType":"enum LandRegistry.LandStatus","name":"newStatus","type":"uint8"}],"name":"LandStatusChanged","type":"event"},{"anonymous":false,"inputs":[{"indexed":true,"internalType":"address","name":"previousOwner","type":"address"},{"indexed":true,"internalType":"address","name":"newOwner","type":"address"}],"name":"OwnershipTransferred","type":"event"},{"anonymous":false,"inputs":[{"indexed":false,"internalType":"address","name":"account","type":"address"}],"name":"Paused","type":"event"},{"anonymous":false,"inputs":[{"indexed":false,"internalType":"address","name":"account","type":"address"}],"name":"Unpaused","type":"event"},{"inputs":[{"internalType":"uint256","name":"tokenId","type":"uint256"}],"name":"approveLand","outputs":[],"stateMutability":"nonpayable","type":"function"},{"inputs":[{"internalType":"uint256","name":"tokenId","type":"uint256"}],"name":"canTransact","outputs":[{"internalType":"bool","name":"","type":"bool"}],"stateMutability":"view","type":"function"},{"inputs":[{"internalType":"uint256","name":"tokenId","type":"uint256"}],"name":"cancelTransaction","outputs":[],"stateMutability":"nonpayable","type":"function"},{"inputs":[{"internalType":"uint256","name":"tokenId","type":"uint256"}],"name":"completeTransfer","outputs":[],"stateMutability":"nonpayable","type":"function"},{"inputs":[{"internalType":"address","name":"to","type":"address"},{"internalType":"string","name":"tokenURI","type":"string"}],"name":"createLandRecord","outputs":[{"internalType":"uint256","name":"","type":"uint256"}],"stateMutability":"nonpayable","type":"function"},{"inputs":[{"internalType":"uint256","name":"tokenId","type":"uint256"}],"name":"getLandMetadata","outputs":[{"internalType":"string","name":"","type":"string"}],"stateMutability":"view","type":"function"},{"inputs":[{"internalType":"uint256","name":"tokenId","type":"uint256"}],"name":"getLandStatus","outputs":[{"internalType":"enum LandRegistry.LandStatus","name":"","type":"uint8"}],"stateMutability":"view","type":"function"},{"inputs":[{"internalType":"uint256","name":"tokenId","type":"uint256"}],"name":"isBlocked","outputs":[{"internalType":"bool","name":"","type":"bool"}],"stateMutability":"view","type":"function"},{"inputs":[],"name":"landNFTContract","outputs":[{"internalType":"contract LandNFT","name":"","type":"address"}],"stateMutability":"view","type":"function"},{"inputs":[{"internalType":"uint256","name":"","type":"uint256"}],"name":"lands","outputs":[{"internalType":"uint256","name":"tokenId","type":"uint256"},{"internalType":"enum LandRegistry.LandStatus","name":"status","type":"uint8"},{"internalType":"string","name":"rejectReason","type":"string"},{"internalType":"string","name":"metadataUri","type":"string"},{"internalType":"uint256","name":"createdAt","type":"uint256"},{"internalType":"uint256","name":"updatedAt","type":"uint256"}],"stateMutability":"view","type":"function"},{"inputs":[{"internalType":"uint256","name":"tokenId","type":"uint256"}],"name":"mortgage","outputs":[],"stateMutability":"nonpayable","type":"function"},{"inputs":[],"name":"owner","outputs":[{"internalType":"address","name":"","type":"address"}],"stateMutability":"view","type":"function"},{"inputs":[],"name":"pause","outputs":[],"stateMutability":"nonpayable","type":"function"},{"inputs":[],"name":"paused","outputs":[{"internalType":"bool","name":"","type":"bool"}],"stateMutability":"view","type":"function"},{"inputs":[{"internalType":"address","name":"from","type":"address"},{"internalType":"address","name":"to","type":"address"},{"internalType":"uint256","name":"tokenId","type":"uint256"}],"name":"proxyAdminTransfer","outputs":[],"stateMutability":"nonpayable","type":"function"},{"inputs":[{"internalType":"uint256","name":"tokenId","type":"uint256"}],"name":"raiseDispute","outputs":[],"stateMutability":"nonpayable","type":"function"},{"inputs":[{"internalType":"uint256","name":"tokenId","type":"uint256"},{"internalType":"string","name":"reason","type":"string"}],"name":"rejectLand","outputs":[],"stateMutability":"nonpayable","type":"function"},{"inputs":[{"internalType":"uint256","name":"tokenId","type":"uint256"}],"name":"releaseMortgage","outputs":[],"stateMutability":"nonpayable","type":"function"},{"inputs":[],"name":"renounceOwnership","outputs":[],"stateMutability":"nonpayable","type":"function"},{"inputs":[{"internalType":"uint256","name":"tokenId","type":"uint256"}],"name":"resolveDispute","outputs":[],"stateMutability":"nonpayable","type":"function"},{"inputs":[{"internalType":"uint256","name":"tokenId","type":"uint256"}],"name":"startTransaction","outputs":[],"stateMutability":"nonpayable","type":"function"},{"inputs":[{"internalType":"uint256","name":"tokenId","type":"uint256"}],"name":"submitForApproval","outputs":[],"stateMutability":"nonpayable","type":"function"},{"inputs":[{"internalType":"address","name":"newOwner","type":"address"}],"name":"transferOwnership","outputs":[],"stateMutability":"nonpayable","type":"function"},{"inputs":[],"name":"unpause","outputs":[],"stateMutability":"nonpayable","type":"function"}],"evm":{"bytecode":{"linkReferences":{},"object":"6080346100b957601f61174d38819003918201601f19168301916001600160401b038311848410176100be578084926020946040528339810103126100b957516001600160a01b0390818116908190036100b95760005460405192339082167f8be0079c531659141344cd1fd0a4f28419497f9722a3daafe3b4186f6b6457e0600080a36001600160a81b0319163360ff60a01b191617600055600180546001600160a01b03191691909117905561167890816100d58239f35b600080fd5b634e487b7160e01b600052604160045260246000fdfe6080604052600436101561001257600080fd5b6000803560e01c806304835426146111d55780631be3175e146111315780632b359bc5146111085780632cb0aa31146110275780633380c0d814610fcd57806338c887b214610f6e5780633f4ba83a14610ed35780634b45ca8f14610e34578063562b22dd14610d745780635912239314610b9c5780635c975abb14610b77578063619c83ed14610ad157806367bdb2a114610a895780636c2a4ed214610a3a578063715018a6146109e05780638456cb591461097f5780638da5cb5b14610958578063a5c1674e146108b2578063ab5d247514610457578063b0aa98c7146103e5578063c2b7b86814610343578063e261f1e5146102ac578063f2fde38b146101e15763f6f845081461012557600080fd5b346101de5760203660031901126101de57600435610141611534565b61014961158c565b610152816114e4565b808252600260205260ff60016040842001541660088110156101ca57600261017a91146113aa565b806000526002602052600080516020611623833981519152604060ff6101bf826000206001810190815491600485198416179055600542910155835192839116611215565b60046020820152a280f35b634e487b7160e01b83526021600452602483fd5b80fd5b50346101de5760203660031901126101de576101fb611238565b610203611534565b6001600160a01b0390811690811561025857600054826bffffffffffffffffffffffff60a01b821617600055167f8be0079c531659141344cd1fd0a4f28419497f9722a3daafe3b4186f6b6457e0600080a380f35b60405162461bcd60e51b815260206004820152602660248201527f4f776e61626c653a206e6577206f776e657220697320746865207a65726f206160448201526564647265737360d01b6064820152608490fd5b50346101de5760203660031901126101de576040906004358152600260205220805460ff600183015416916102e360028201611305565b6103346102f260038401611305565b610326600560048601549501549361031560405198899889526020890190611215565b60c0604088015260c0870190611253565b908582036060870152611253565b91608084015260a08301520390f35b50346101de5760203660031901126101de57600435610360611534565b61036861158c565b610371816114e4565b808252600260205260ff60016040842001541660088110156101ca576007036103a05761039d906115d3565b80f35b60405162461bcd60e51b815260206004820152601b60248201527f4d75737420626520696e205452414e485f4348415020737461746500000000006044820152606490fd5b50346101de5760203660031901126101de57600435610403816114e4565b8152600260205260ff60016040832001541690600882101561044357602060078314838115610438575b506040519015158152f35b60069150148261042d565b634e487b7160e01b81526021600452602490fd5b50346101de5760403660031901126101de57610471611238565b90602480359067ffffffffffffffff82116108ae57366023830112156108ae57816004013567ffffffffffffffff811161085457604051926104bd601f8301601f191660200185611293565b8184523683838301011161089557818592846020930183870137840101526104e3611534565b6104eb61158c565b60018060a01b03938460015416936020604051809663c233557b60e01b82528885166004830152604086830152818481610528604482018b611253565b03925af19485156108a1578195610869575b506040519260c0840184811067ffffffffffffffff8211176108545760405285845260208401918083526040516020810181811067ffffffffffffffff82111761083f57604052818152604086019081528660608701524260808701524260a08701528782526002602052604082209386518555600185019051600881101561082b5760ff801983541691161790555180519067ffffffffffffffff8211610818576105f6826105ed60028801546112cb565b6002880161148e565b602090601f83116001146107a95761062692918491836106f4575b50508160011b916000199060031b1c19161790565b60028401555b606085015180519267ffffffffffffffff841161079757509183918895936106678361065e600360209e9901546112cb565b6003870161148e565b8a91601f84116001146106ff578360059460a0947faf3b58634809a189c48e8dc732039c10ddc6022ea3b353f0317bbb7adcb308ed9a9b946106bd94926106f45750508160011b916000199060031b1c19161790565b60038501555b6080810151600485015501519101556106e9604051928392898452169588830190611253565b0390a3604051908152f35b015190503880610611565b90600385999493990182528b8220915b601f198416811061077d575082600594927faf3b58634809a189c48e8dc732039c10ddc6022ea3b353f0317bbb7adcb308ed999a60019360a096601f19811610610764575b505050811b0160038501556106c3565b015160001960f88460031b161c19169055388080610754565b818a01518355988c01988b98506001909201918c0161070f565b634e487b7160e01b8352604160045282fd5b9190600286018452602084209084935b601f19841685106107fd576001945083601f198116106107e4575b505050811b01600284015561062c565b015160001960f88460031b161c191690553880806107d4565b818101518355602094850194600190930192909101906107b9565b5050634e487b7160e01b81526041600452fd5b5050634e487b7160e01b8252506021600452fd5b83634e487b7160e01b60005260416004526000fd5b50634e487b7160e01b60009081526041600452fd5b9094506020813d602011610899575b8161088560209383611293565b810103126108955751933861053a565b8480fd5b3d9150610878565b50604051903d90823e3d90fd5b8280fd5b50346101de5760203660031901126101de576004356108cf611534565b6108d761158c565b6108e0816114e4565b808252600260205260ff60016040842001541660088110156101ca57600261090891146113aa565b806000526002602052600080516020611623833981519152604060ff61094d826000206001810190815491600785198416179055600542910155835192839116611215565b60076020820152a280f35b50346101de57806003193601126101de57546040516001600160a01b039091168152602090f35b50346101de57806003193601126101de57610998611534565b6109a061158c565b805460ff60a01b1916600160a01b1781556040513381527f62e78cea01bee320cd4e420270b5ea74000d11b0c9f74754ebdbfc544b05a25890602090a180f35b50346101de57806003193601126101de576109f9611534565b600080546001600160a01b0319811682556001600160a01b03167f8be0079c531659141344cd1fd0a4f28419497f9722a3daafe3b4186f6b6457e08280a380f35b50346101de5760203660031901126101de57610a7160036040610a8593600435610a63816114e4565b815260026020522001611305565b604051918291602083526020830190611253565b0390f35b50346101de5760203660031901126101de57600435610aa7816114e4565b8152600260205260ff60016040832001541690600882101561044357602082600260405191148152f35b50346101de5760203660031901126101de57600435610aee611534565b610af661158c565b610aff816114e4565b808252600260205260ff60016040842001541660088110156101ca576004610b2791146113f6565b806000526002602052600080516020611623833981519152604060ff610b6c826000206001810190815491600585198416179055600542910155835192839116611215565b60056020820152a280f35b50346101de57806003193601126101de5760ff6020915460a01c166040519015158152f35b50346101de5760403660031901126101de5760043567ffffffffffffffff602480358281116108955736602382011215610895578060040135928311610895573682848301011161089557610bef611534565b610bf761158c565b610c00846114e4565b8385526020926002845260019260ff84604089200154166008811015610d615784610c2b9114611442565b858752600285526002604088200192610c4e83610c4886546112cb565b8661148e565b879088601f8511600114610cdf5794610c9c856003966000805160206116238339815191529a96610ccb9660409b9660ff9b93610cd2575b5050508160011b916000199060031b1c19161790565b90555b876000526002835285600020908101908154918587198416179055600542910155855194859116611215565b820152a280f35b0101359050388080610c86565b50848952868920929091601f1985168a5b818110610d4a575096856000805160206116238339815191529995610ccb95839560ff9a9560039a60409d10610d2f575b50505050811b019055610c9f565b60001960f8868d1b161c199201013516905538808080610d21565b848301840135865594880194918901918901610cf0565b50634e487b7160e01b8752602160045286fd5b50346101de5760603660031901126101de57610d8e611238565b6024356001600160a01b038181169284928490036108ae57610dae611534565b610db661158c565b816001541690813b15610e3057836064926040519687958694631b4e583d60e31b8652166004850152602484015260443560448401525af18015610e2557610dfc575080f35b67ffffffffffffffff8111610e115760405280f35b634e487b7160e01b82526041600452602482fd5b6040513d84823e3d90fd5b8380fd5b50346101de5760203660031901126101de57600435610e51611534565b610e5961158c565b610e62816114e4565b808252600260205260ff60016040842001541660088110156101ca57600603610e8e5761039d906115d3565b60405162461bcd60e51b815260206004820152601960248201527f4d75737420626520696e205448455f43484150207374617465000000000000006044820152606490fd5b50346101de57806003193601126101de57610eec611534565b805460ff8160a01c1615610f325760ff60a01b191681556040513381527f5db9ee0a495bf2e6ff9c91a7834c1ba4fdd244a5e8aa4e537bd38aeae4b073aa90602090a180f35b60405162461bcd60e51b815260206004820152601460248201527314185d5cd8589b194e881b9bdd081c185d5cd95960621b6044820152606490fd5b50346101de5760203660031901126101de57600435610f8b611534565b610f9361158c565b610f9c816114e4565b808252600260205260ff60016040842001541660088110156101ca5790610fc8600161039d9314611442565b6115d3565b50346101de5760203660031901126101de57600435610fea611534565b610ff261158c565b610ffb816114e4565b808252600260205260ff60016040842001541660088110156101ca5790610fc8600461039d93146113f6565b50346101de5760203660031901126101de57600435611044611534565b61104c61158c565b611055816114e4565b808252600260205260ff60016040842001541660088110156101ca576110c3578082526002602052600080516020611623833981519152604060ff6110b88286206001810190815491600185198416179055600542910155835192839116611215565b60016020820152a280f35b60405162461bcd60e51b815260206004820152601960248201527f4d75737420626520696e204b484f495f54414f207374617465000000000000006044820152606490fd5b50346101de57806003193601126101de576001546040516001600160a01b039091168152602090f35b50346101de5760203660031901126101de5760043561114e611534565b61115661158c565b61115f816114e4565b808252600260205260ff60016040842001541660088110156101ca57600261118791146113aa565b8082526002602052600080516020611623833981519152604060ff6111ca8286206001810190815491600685198416179055600542910155835192839116611215565b60066020820152a280f35b50346101de5760203660031901126101de5760ff600160406020936004356111fc816114e4565b815260028552200154166112136040518092611215565bf35b9060088210156112225752565b634e487b7160e01b600052602160045260246000fd5b600435906001600160a01b038216820361124e57565b600080fd5b919082519283825260005b84811061127f575050826000602080949584010152601f8019910116010190565b60208183018101518483018201520161125e565b90601f8019910116810190811067ffffffffffffffff8211176112b557604052565b634e487b7160e01b600052604160045260246000fd5b90600182811c921680156112fb575b60208310146112e557565b634e487b7160e01b600052602260045260246000fd5b91607f16916112da565b90604051918260008254611318816112cb565b908184526020946001916001811690816000146113885750600114611349575b50505061134792500383611293565b565b600090815285812095935091905b8183106113705750506113479350820101388080611338565b85548884018501529485019487945091830191611357565b9250505061134794925060ff191682840152151560051b820101388080611338565b156113b157565b60405162461bcd60e51b815260206004820152601a60248201527f4d75737420626520696e2044415f4341505f534f2073746174650000000000006044820152606490fd5b156113fd57565b60405162461bcd60e51b815260206004820152601f60248201527f4d75737420626520696e2044414e475f4749414f5f44494348207374617465006044820152606490fd5b1561144957565b60405162461bcd60e51b815260206004820152601a60248201527f4d75737420626520696e2043484f5f44555945542073746174650000000000006044820152606490fd5b90601f811161149c57505050565b6000916000526020600020906020601f850160051c830194106114da575b601f0160051c01915b8281106114cf57505050565b8181556001016114c3565b90925082906114ba565b6000526002602052604060002054156114f957565b60405162461bcd60e51b815260206004820152601360248201527213185b99081b9bdd081c9959da5cdd195c9959606a1b6044820152606490fd5b6000546001600160a01b0316330361154857565b606460405162461bcd60e51b815260206004820152602060248201527f4f776e61626c653a2063616c6c6572206973206e6f7420746865206f776e65726044820152fd5b60ff60005460a01c1661159b57565b60405162461bcd60e51b815260206004820152601060248201526f14185d5cd8589b194e881c185d5cd95960821b6044820152606490fd5b806000526002602052600080516020611623833981519152604060ff611618826000206001810190815491600285198416179055600542910155835192839116611215565b60026020820152a256fe7bae5b3937f1c50ff50f2ff21b403739914664ee08b38898777aee11eba3ea1fa264697066735822122048b8e84436076f48c3c55e33b3fb9fe38551d2694b02fb3607f1e8883395dfc664736f6c63430008180033","opcodes":"PUSH1 0x80 CALLVALUE PUSH2 0xB9 JUMPI PUSH1 0x1F PUSH2 0x174D CODESIZE DUP2 SWAP1 SUB SWAP2 DUP3 ADD PUSH1 0x1F NOT AND DUP4 ADD SWAP2 PUSH1 0x1 PUSH1 0x1 PUSH1 0x40 SHL SUB DUP4 GT DUP5 DUP5 LT OR PUSH2 0xBE JUMPI DUP1 DUP5 SWAP3 PUSH1 0x20 SWAP5 PUSH1 0x40 MSTORE DUP4 CODECOPY DUP2 ADD SUB SLT PUSH2 0xB9 JUMPI MLOAD PUSH1 0x1 PUSH1 0x1 PUSH1 0xA0 SHL SUB SWAP1 DUP2 DUP2 AND SWAP1 DUP2 SWAP1 SUB PUSH2 0xB9 JUMPI PUSH1 0x0 SLOAD PUSH1 0x40 MLOAD SWAP3 CALLER SWAP1 DUP3 AND PUSH32 0x8BE0079C531659141344CD1FD0A4F28419497F9722A3DAAFE3B4186F6B6457E0 PUSH1 0x0 DUP1 LOG3 PUSH1 0x1 PUSH1 0x1 PUSH1 0xA8 SHL SUB NOT AND CALLER PUSH1 0xFF PUSH1 0xA0 SHL NOT AND OR PUSH1 0x0 SSTORE PUSH1 0x1 DUP1 SLOAD PUSH1 0x1 PUSH1 0x1 PUSH1 0xA0 SHL SUB NOT AND SWAP2 SWAP1 SWAP2 OR SWAP1 SSTORE PUSH2 0x1678 SWAP1 DUP2 PUSH2 0xD5 DUP3 CODECOPY RETURN JUMPDEST PUSH1 0x0 DUP1 REVERT JUMPDEST PUSH4 0x4E487B71 PUSH1 0xE0 SHL PUSH1 0x0 MSTORE PUSH1 0x41 PUSH1 0x4 MSTORE PUSH1 0x24 PUSH1 0x0 REVERT INVALID PUSH1 0x80 PUSH1 0x40 MSTORE PUSH1 0x4 CALLDATASIZE LT ISZERO PUSH2 0x12 JUMPI PUSH1 0x0 DUP1 REVERT JUMPDEST PUSH1 0x0 DUP1 CALLDATALOAD PUSH1 0xE0 SHR DUP1 PUSH4 0x4835426 EQ PUSH2 0x11D5 JUMPI DUP1 PUSH4 0x1BE3175E EQ PUSH2 0x1131 JUMPI DUP1 PUSH4 0x2B359BC5 EQ PUSH2 0x1108 JUMPI DUP1 PUSH4 0x2CB0AA31 EQ PUSH2 0x1027 JUMPI DUP1 PUSH4 0x3380C0D8 EQ PUSH2 0xFCD JUMPI DUP1 PUSH4 0x38C887B2 EQ PUSH2 0xF6E JUMPI DUP1 PUSH4 0x3F4BA83A EQ PUSH2 0xED3 JUMPI DUP1 PUSH4 0x4B45CA8F EQ PUSH2 0xE34 JUMPI DUP1 PUSH4 0x562B22DD EQ PUSH2 0xD74 JUMPI DUP1 PUSH4 0x59122393 EQ PUSH2 0xB9C JUMPI DUP1 PUSH4 0x5C975ABB EQ PUSH2 0xB77 JUMPI DUP1 PUSH4 0x619C83ED EQ PUSH2 0xAD1 JUMPI DUP1 PUSH4 0x67BDB2A1 EQ PUSH2 0xA89 JUMPI DUP1 PUSH4 0x6C2A4ED2 EQ PUSH2 0xA3A JUMPI DUP1 PUSH4 0x715018A6 EQ PUSH2 0x9E0 JUMPI DUP1 PUSH4 0x8456CB59 EQ PUSH2 0x97F JUMPI DUP1 PUSH4 0x8DA5CB5B EQ PUSH2 0x958 JUMPI DUP1 PUSH4 0xA5C1674E EQ PUSH2 0x8B2 JUMPI DUP1 PUSH4 0xAB5D2475 EQ PUSH2 0x457 JUMPI DUP1 PUSH4 0xB0AA98C7 EQ PUSH2 0x3E5 JUMPI DUP1 PUSH4 0xC2B7B868 EQ PUSH2 0x343 JUMPI DUP1 PUSH4 0xE261F1E5 EQ PUSH2 0x2AC JUMPI DUP1 PUSH4 0xF2FDE38B EQ PUSH2 0x1E1 JUMPI PUSH4 0xF6F84508 EQ PUSH2 0x125 JUMPI PUSH1 0x0 DUP1 REVERT JUMPDEST CALLVALUE PUSH2 0x1DE JUMPI PUSH1 0x20 CALLDATASIZE PUSH1 0x3 NOT ADD SLT PUSH2 0x1DE JUMPI PUSH1 0x4 CALLDATALOAD PUSH2 0x141 PUSH2 0x1534 JUMP JUMPDEST PUSH2 0x149 PUSH2 0x158C JUMP JUMPDEST PUSH2 0x152 DUP2 PUSH2 0x14E4 JUMP JUMPDEST DUP1 DUP3 MSTORE PUSH1 0x2 PUSH1 0x20 MSTORE PUSH1 0xFF PUSH1 0x1 PUSH1 0x40 DUP5 KECCAK256 ADD SLOAD AND PUSH1 0x8 DUP2 LT ISZERO PUSH2 0x1CA JUMPI PUSH1 0x2 PUSH2 0x17A SWAP2 EQ PUSH2 0x13AA JUMP JUMPDEST DUP1 PUSH1 0x0 MSTORE PUSH1 0x2 PUSH1 0x20 MSTORE PUSH1 0x0 DUP1 MLOAD PUSH1 0x20 PUSH2 0x1623 DUP4 CODECOPY DUP2 MLOAD SWAP2 MSTORE PUSH1 0x40 PUSH1 0xFF PUSH2 0x1BF DUP3 PUSH1 0x0 KECCAK256 PUSH1 0x1 DUP2 ADD SWAP1 DUP2 SLOAD SWAP2 PUSH1 0x4 DUP6 NOT DUP5 AND OR SWAP1 SSTORE PUSH1 0x5 TIMESTAMP SWAP2 ADD SSTORE DUP4 MLOAD SWAP3 DUP4 SWAP2 AND PUSH2 0x1215 JUMP JUMPDEST PUSH1 0x4 PUSH1 0x20 DUP3 ADD MSTORE LOG2 DUP1 RETURN JUMPDEST PUSH4 0x4E487B71 PUSH1 0xE0 SHL DUP4 MSTORE PUSH1 0x21 PUSH1 0x4 MSTORE PUSH1 0x24 DUP4 REVERT JUMPDEST DUP1 REVERT JUMPDEST POP CALLVALUE PUSH2 0x1DE JUMPI PUSH1 0x20 CALLDATASIZE PUSH1 0x3 NOT ADD SLT PUSH2 0x1DE JUMPI PUSH2 0x1FB PUSH2 0x1238 JUMP JUMPDEST PUSH2 0x203 PUSH2 0x1534 JUMP JUMPDEST PUSH1 0x1 PUSH1 0x1 PUSH1 0xA0 SHL SUB SWAP1 DUP2 AND SWAP1 DUP2 ISZERO PUSH2 0x258 JUMPI PUSH1 0x0 SLOAD DUP3 PUSH12 0xFFFFFFFFFFFFFFFFFFFFFFFF PUSH1 0xA0 SHL DUP3 AND OR PUSH1 0x0 SSTORE AND PUSH32 0x8BE0079C531659141344CD1FD0A4F28419497F9722A3DAAFE3B4186F6B6457E0 PUSH1 0x0 DUP1 LOG3 DUP1 RETURN JUMPDEST PUSH1 0x40 MLOAD PUSH3 0x461BCD PUSH1 0xE5 SHL DUP2 MSTORE PUSH1 0x20 PUSH1 0x4 DUP3 ADD MSTORE PUSH1 0x26 PUSH1 0x24 DUP3 ADD MSTORE PUSH32 0x4F776E61626C653A206E6577206F776E657220697320746865207A65726F2061 PUSH1 0x44 DUP3 ADD MSTORE PUSH6 0x646472657373 PUSH1 0xD0 SHL PUSH1 0x64 DUP3 ADD MSTORE PUSH1 0x84 SWAP1 REVERT JUMPDEST POP CALLVALUE PUSH2 0x1DE JUMPI PUSH1 0x20 CALLDATASIZE PUSH1 0x3 NOT ADD SLT PUSH2 0x1DE JUMPI PUSH1 0x40 SWAP1 PUSH1 0x4 CALLDATALOAD DUP2 MSTORE PUSH1 0x2 PUSH1 0x20 MSTORE KECCAK256 DUP1 SLOAD PUSH1 0xFF PUSH1 0x1 DUP4 ADD SLOAD AND SWAP2 PUSH2 0x2E3 PUSH1 0x2 DUP3 ADD PUSH2 0x1305 JUMP JUMPDEST PUSH2 0x334 PUSH2 0x2F2 PUSH1 0x3 DUP5 ADD PUSH2 0x1305 JUMP JUMPDEST PUSH2 0x326 PUSH1 0x5 PUSH1 0x4 DUP7 ADD SLOAD SWAP6 ADD SLOAD SWAP4 PUSH2 0x315 PUSH1 0x40 MLOAD SWAP9 DUP10 SWAP9 DUP10 MSTORE PUSH1 0x20 DUP10 ADD SWAP1 PUSH2 0x1215 JUMP JUMPDEST PUSH1 0xC0 PUSH1 0x40 DUP9 ADD MSTORE PUSH1 0xC0 DUP8 ADD SWAP1 PUSH2 0x1253 JUMP JUMPDEST SWAP1 DUP6 DUP3 SUB PUSH1 0x60 DUP8 ADD MSTORE PUSH2 0x1253 JUMP JUMPDEST SWAP2 PUSH1 0x80 DUP5 ADD MSTORE PUSH1 0xA0 DUP4 ADD MSTORE SUB SWAP1 RETURN JUMPDEST POP CALLVALUE PUSH2 0x1DE JUMPI PUSH1 0x20 CALLDATASIZE PUSH1 0x3 NOT ADD SLT PUSH2 0x1DE JUMPI PUSH1 0x4 CALLDATALOAD PUSH2 0x360 PUSH2 0x1534 JUMP JUMPDEST PUSH2 0x368 PUSH2 0x158C JUMP JUMPDEST PUSH2 0x371 DUP2 PUSH2 0x14E4 JUMP JUMPDEST DUP1 DUP3 MSTORE PUSH1 0x2 PUSH1 0x20 MSTORE PUSH1 0xFF PUSH1 0x1 PUSH1 0x40 DUP5 KECCAK256 ADD SLOAD AND PUSH1 0x8 DUP2 LT ISZERO PUSH2 0x1CA JUMPI PUSH1 0x7 SUB PUSH2 0x3A0 JUMPI PUSH2 0x39D SWAP1 PUSH2 0x15D3 JUMP JUMPDEST DUP1 RETURN JUMPDEST PUSH1 0x40 MLOAD PUSH3 0x461BCD PUSH1 0xE5 SHL DUP2 MSTORE PUSH1 0x20 PUSH1 0x4 DUP3 ADD MSTORE PUSH1 0x1B PUSH1 0x24 DUP3 ADD MSTORE PUSH32 0x4D75737420626520696E205452414E485F434841502073746174650000000000 PUSH1 0x44 DUP3 ADD MSTORE PUSH1 0x64 SWAP1 REVERT JUMPDEST POP CALLVALUE PUSH2 0x1DE JUMPI PUSH1 0x20 CALLDATASIZE PUSH1 0x3 NOT ADD SLT PUSH2 0x1DE JUMPI PUSH1 0x4 CALLDATALOAD PUSH2 0x403 DUP2 PUSH2 0x14E4 JUMP JUMPDEST DUP2 MSTORE PUSH1 0x2 PUSH1 0x20 MSTORE PUSH1 0xFF PUSH1 0x1 PUSH1 0x40 DUP4 KECCAK256 ADD SLOAD AND SWAP1 PUSH1 0x8 DUP3 LT ISZERO PUSH2 0x443 JUMPI PUSH1 0x20 PUSH1 0x7 DUP4 EQ DUP4 DUP2 ISZERO PUSH2 0x438 JUMPI JUMPDEST POP PUSH1 0x40 MLOAD SWAP1 ISZERO ISZERO DUP2 MSTORE RETURN JUMPDEST PUSH1 0x6 SWAP2 POP EQ DUP3 PUSH2 0x42D JUMP JUMPDEST PUSH4 0x4E487B71 PUSH1 0xE0 SHL DUP2 MSTORE PUSH1 0x21 PUSH1 0x4 MSTORE PUSH1 0x24 SWAP1 REVERT JUMPDEST POP CALLVALUE PUSH2 0x1DE JUMPI PUSH1 0x40 CALLDATASIZE PUSH1 0x3 NOT ADD SLT PUSH2 0x1DE JUMPI PUSH2 0x471 PUSH2 0x1238 JUMP JUMPDEST SWAP1 PUSH1 0x24 DUP1 CALLDATALOAD SWAP1 PUSH8 0xFFFFFFFFFFFFFFFF DUP3 GT PUSH2 0x8AE JUMPI CALLDATASIZE PUSH1 0x23 DUP4 ADD SLT ISZERO PUSH2 0x8AE JUMPI DUP2 PUSH1 0x4 ADD CALLDATALOAD PUSH8 0xFFFFFFFFFFFFFFFF DUP2 GT PUSH2 0x854 JUMPI PUSH1 0x40 MLOAD SWAP3 PUSH2 0x4BD PUSH1 0x1F DUP4 ADD PUSH1 0x1F NOT AND PUSH1 0x20 ADD DUP6 PUSH2 0x1293 JUMP JUMPDEST DUP2 DUP5 MSTORE CALLDATASIZE DUP4 DUP4 DUP4 ADD ADD GT PUSH2 0x895 JUMPI DUP2 DUP6 SWAP3 DUP5 PUSH1 0x20 SWAP4 ADD DUP4 DUP8 ADD CALLDATACOPY DUP5 ADD ADD MSTORE PUSH2 0x4E3 PUSH2 0x1534 JUMP JUMPDEST PUSH2 0x4EB PUSH2 0x158C JUMP JUMPDEST PUSH1 0x1 DUP1 PUSH1 0xA0 SHL SUB SWAP4 DUP5 PUSH1 0x1 SLOAD AND SWAP4 PUSH1 0x20 PUSH1 0x40 MLOAD DUP1 SWAP7 PUSH4 0xC233557B PUSH1 0xE0 SHL DUP3 MSTORE DUP9 DUP6 AND PUSH1 0x4 DUP4 ADD MSTORE PUSH1 0x40 DUP7 DUP4 ADD MSTORE DUP2 DUP5 DUP2 PUSH2 0x528 PUSH1 0x44 DUP3 ADD DUP12 PUSH2 0x1253 JUMP JUMPDEST SUB SWAP3 GAS CALL SWAP5 DUP6 ISZERO PUSH2 0x8A1 JUMPI DUP2 SWAP6 PUSH2 0x869 JUMPI JUMPDEST POP PUSH1 0x40 MLOAD SWAP3 PUSH1 0xC0 DUP5 ADD DUP5 DUP2 LT PUSH8 0xFFFFFFFFFFFFFFFF DUP3 GT OR PUSH2 0x854 JUMPI PUSH1 0x40 MSTORE DUP6 DUP5 MSTORE PUSH1 0x20 DUP5 ADD SWAP2 DUP1 DUP4 MSTORE PUSH1 0x40 MLOAD PUSH1 0x20 DUP2 ADD DUP2 DUP2 LT PUSH8 0xFFFFFFFFFFFFFFFF DUP3 GT OR PUSH2 0x83F JUMPI PUSH1 0x40 MSTORE DUP2 DUP2 MSTORE PUSH1 0x40 DUP7 ADD SWAP1 DUP2 MSTORE DUP7 PUSH1 0x60 DUP8 ADD MSTORE TIMESTAMP PUSH1 0x80 DUP8 ADD MSTORE TIMESTAMP PUSH1 0xA0 DUP8 ADD MSTORE DUP8 DUP3 MSTORE PUSH1 0x2 PUSH1 0x20 MSTORE PUSH1 0x40 DUP3 KECCAK256 SWAP4 DUP7 MLOAD DUP6 SSTORE PUSH1 0x1 DUP6 ADD SWAP1 MLOAD PUSH1 0x8 DUP2 LT ISZERO PUSH2 0x82B JUMPI PUSH1 0xFF DUP1 NOT DUP4 SLOAD AND SWAP2 AND OR SWAP1 SSTORE MLOAD DUP1 MLOAD SWAP1 PUSH8 0xFFFFFFFFFFFFFFFF DUP3 GT PUSH2 0x818 JUMPI PUSH2 0x5F6 DUP3 PUSH2 0x5ED PUSH1 0x2 DUP9 ADD SLOAD PUSH2 0x12CB JUMP JUMPDEST PUSH1 0x2 DUP9 ADD PUSH2 0x148E JUMP JUMPDEST PUSH1 0x20 SWAP1 PUSH1 0x1F DUP4 GT PUSH1 0x1 EQ PUSH2 0x7A9 JUMPI PUSH2 0x626 SWAP3 SWAP2 DUP5 SWAP2 DUP4 PUSH2 0x6F4 JUMPI JUMPDEST POP POP DUP2 PUSH1 0x1 SHL SWAP2 PUSH1 0x0 NOT SWAP1 PUSH1 0x3 SHL SHR NOT AND OR SWAP1 JUMP JUMPDEST PUSH1 0x2 DUP5 ADD SSTORE JUMPDEST PUSH1 0x60 DUP6 ADD MLOAD DUP1 MLOAD SWAP3 PUSH8 0xFFFFFFFFFFFFFFFF DUP5 GT PUSH2 0x797 JUMPI POP SWAP2 DUP4 SWAP2 DUP9 SWAP6 SWAP4 PUSH2 0x667 DUP4 PUSH2 0x65E PUSH1 0x3 PUSH1 0x20 SWAP15 SWAP10 ADD SLOAD PUSH2 0x12CB JUMP JUMPDEST PUSH1 0x3 DUP8 ADD PUSH2 0x148E JUMP JUMPDEST DUP11 SWAP2 PUSH1 0x1F DUP5 GT PUSH1 0x1 EQ PUSH2 0x6FF JUMPI DUP4 PUSH1 0x5 SWAP5 PUSH1 0xA0 SWAP5 PUSH32 0xAF3B58634809A189C48E8DC732039C10DDC6022EA3B353F0317BBB7ADCB308ED SWAP11 SWAP12 SWAP5 PUSH2 0x6BD SWAP5 SWAP3 PUSH2 0x6F4 JUMPI POP POP DUP2 PUSH1 0x1 SHL SWAP2 PUSH1 0x0 NOT SWAP1 PUSH1 0x3 SHL SHR NOT AND OR SWAP1 JUMP JUMPDEST PUSH1 0x3 DUP6 ADD SSTORE JUMPDEST PUSH1 0x80 DUP2 ADD MLOAD PUSH1 0x4 DUP6 ADD SSTORE ADD MLOAD SWAP2 ADD SSTORE PUSH2 0x6E9 PUSH1 0x40 MLOAD SWAP3 DUP4 SWAP3 DUP10 DUP5 MSTORE AND SWAP6 DUP9 DUP4 ADD SWAP1 PUSH2 0x1253 JUMP JUMPDEST SUB SWAP1 LOG3 PUSH1 0x40 MLOAD SWAP1 DUP2 MSTORE RETURN JUMPDEST ADD MLOAD SWAP1 POP CODESIZE DUP1 PUSH2 0x611 JUMP JUMPDEST SWAP1 PUSH1 0x3 DUP6 SWAP10 SWAP5 SWAP4 SWAP10 ADD DUP3 MSTORE DUP12 DUP3 KECCAK256 SWAP2 JUMPDEST PUSH1 0x1F NOT DUP5 AND DUP2 LT PUSH2 0x77D JUMPI POP DUP3 PUSH1 0x5 SWAP5 SWAP3 PUSH32 0xAF3B58634809A189C48E8DC732039C10DDC6022EA3B353F0317BBB7ADCB308ED SWAP10 SWAP11 PUSH1 0x1 SWAP4 PUSH1 0xA0 SWAP7 PUSH1 0x1F NOT DUP2 AND LT PUSH2 0x764 JUMPI JUMPDEST POP POP POP DUP2 SHL ADD PUSH1 0x3 DUP6 ADD SSTORE PUSH2 0x6C3 JUMP JUMPDEST ADD MLOAD PUSH1 0x0 NOT PUSH1 0xF8 DUP5 PUSH1 0x3 SHL AND SHR NOT AND SWAP1 SSTORE CODESIZE DUP1 DUP1 PUSH2 0x754 JUMP JUMPDEST DUP2 DUP11 ADD MLOAD DUP4 SSTORE SWAP9 DUP13 ADD SWAP9 DUP12 SWAP9 POP PUSH1 0x1 SWAP1 SWAP3 ADD SWAP2 DUP13 ADD PUSH2 0x70F JUMP JUMPDEST PUSH4 0x4E487B71 PUSH1 0xE0 SHL DUP4 MSTORE PUSH1 0x41 PUSH1 0x4 MSTORE DUP3 REVERT JUMPDEST SWAP2 SWAP1 PUSH1 0x2 DUP7 ADD DUP5 MSTORE PUSH1 0x20 DUP5 KECCAK256 SWAP1 DUP5 SWAP4 JUMPDEST PUSH1 0x1F NOT DUP5 AND DUP6 LT PUSH2 0x7FD JUMPI PUSH1 0x1 SWAP5 POP DUP4 PUSH1 0x1F NOT DUP2 AND LT PUSH2 0x7E4 JUMPI JUMPDEST POP POP POP DUP2 SHL ADD PUSH1 0x2 DUP5 ADD SSTORE PUSH2 0x62C JUMP JUMPDEST ADD MLOAD PUSH1 0x0 NOT PUSH1 0xF8 DUP5 PUSH1 0x3 SHL AND SHR NOT AND SWAP1 SSTORE CODESIZE DUP1 DUP1 PUSH2 0x7D4 JUMP JUMPDEST DUP2 DUP2 ADD MLOAD DUP4 SSTORE PUSH1 0x20 SWAP5 DUP6 ADD SWAP5 PUSH1 0x1 SWAP1 SWAP4 ADD SWAP3 SWAP1 SWAP2 ADD SWAP1 PUSH2 0x7B9 JUMP JUMPDEST POP POP PUSH4 0x4E487B71 PUSH1 0xE0 SHL DUP2 MSTORE PUSH1 0x41 PUSH1 0x4 MSTORE REVERT JUMPDEST POP POP PUSH4 0x4E487B71 PUSH1 0xE0 SHL DUP3 MSTORE POP PUSH1 0x21 PUSH1 0x4 MSTORE REVERT JUMPDEST DUP4 PUSH4 0x4E487B71 PUSH1 0xE0 SHL PUSH1 0x0 MSTORE PUSH1 0x41 PUSH1 0x4 MSTORE PUSH1 0x0 REVERT JUMPDEST POP PUSH4 0x4E487B71 PUSH1 0xE0 SHL PUSH1 0x0 SWAP1 DUP2 MSTORE PUSH1 0x41 PUSH1 0x4 MSTORE REVERT JUMPDEST SWAP1 SWAP5 POP PUSH1 0x20 DUP2 RETURNDATASIZE PUSH1 0x20 GT PUSH2 0x899 JUMPI JUMPDEST DUP2 PUSH2 0x885 PUSH1 0x20 SWAP4 DUP4 PUSH2 0x1293 JUMP JUMPDEST DUP2 ADD SUB SLT PUSH2 0x895 JUMPI MLOAD SWAP4 CODESIZE PUSH2 0x53A JUMP JUMPDEST DUP5 DUP1 REVERT JUMPDEST RETURNDATASIZE SWAP2 POP PUSH2 0x878 JUMP JUMPDEST POP PUSH1 0x40 MLOAD SWAP1 RETURNDATASIZE SWAP1 DUP3 RETURNDATACOPY RETURNDATASIZE SWAP1 REVERT JUMPDEST DUP3 DUP1 REVERT JUMPDEST POP CALLVALUE PUSH2 0x1DE JUMPI PUSH1 0x20 CALLDATASIZE PUSH1 0x3 NOT ADD SLT PUSH2 0x1DE JUMPI PUSH1 0x4 CALLDATALOAD PUSH2 0x8CF PUSH2 0x1534 JUMP JUMPDEST PUSH2 0x8D7 PUSH2 0x158C JUMP JUMPDEST PUSH2 0x8E0 DUP2 PUSH2 0x14E4 JUMP JUMPDEST DUP1 DUP3 MSTORE PUSH1 0x2 PUSH1 0x20 MSTORE PUSH1 0xFF PUSH1 0x1 PUSH1 0x40 DUP5 KECCAK256 ADD SLOAD AND PUSH1 0x8 DUP2 LT ISZERO PUSH2 0x1CA JUMPI PUSH1 0x2 PUSH2 0x908 SWAP2 EQ PUSH2 0x13AA JUMP JUMPDEST DUP1 PUSH1 0x0 MSTORE PUSH1 0x2 PUSH1 0x20 MSTORE PUSH1 0x0 DUP1 MLOAD PUSH1 0x20 PUSH2 0x1623 DUP4 CODECOPY DUP2 MLOAD SWAP2 MSTORE PUSH1 0x40 PUSH1 0xFF PUSH2 0x94D DUP3 PUSH1 0x0 KECCAK256 PUSH1 0x1 DUP2 ADD SWAP1 DUP2 SLOAD SWAP2 PUSH1 0x7 DUP6 NOT DUP5 AND OR SWAP1 SSTORE PUSH1 0x5 TIMESTAMP SWAP2 ADD SSTORE DUP4 MLOAD SWAP3 DUP4 SWAP2 AND PUSH2 0x1215 JUMP JUMPDEST PUSH1 0x7 PUSH1 0x20 DUP3 ADD MSTORE LOG2 DUP1 RETURN JUMPDEST POP CALLVALUE PUSH2 0x1DE JUMPI DUP1 PUSH1 0x3 NOT CALLDATASIZE ADD SLT PUSH2 0x1DE JUMPI SLOAD PUSH1 0x40 MLOAD PUSH1 0x1 PUSH1 0x1 PUSH1 0xA0 SHL SUB SWAP1 SWAP2 AND DUP2 MSTORE PUSH1 0x20 SWAP1 RETURN JUMPDEST POP CALLVALUE PUSH2 0x1DE JUMPI DUP1 PUSH1 0x3 NOT CALLDATASIZE ADD SLT PUSH2 0x1DE JUMPI PUSH2 0x998 PUSH2 0x1534 JUMP JUMPDEST PUSH2 0x9A0 PUSH2 0x158C JUMP JUMPDEST DUP1 SLOAD PUSH1 0xFF PUSH1 0xA0 SHL NOT AND PUSH1 0x1 PUSH1 0xA0 SHL OR DUP2 SSTORE PUSH1 0x40 MLOAD CALLER DUP2 MSTORE PUSH32 0x62E78CEA01BEE320CD4E420270B5EA74000D11B0C9F74754EBDBFC544B05A258 SWAP1 PUSH1 0x20 SWAP1 LOG1 DUP1 RETURN JUMPDEST POP CALLVALUE PUSH2 0x1DE JUMPI DUP1 PUSH1 0x3 NOT CALLDATASIZE ADD SLT PUSH2 0x1DE JUMPI PUSH2 0x9F9 PUSH2 0x1534 JUMP JUMPDEST PUSH1 0x0 DUP1 SLOAD PUSH1 0x1 PUSH1 0x1 PUSH1 0xA0 SHL SUB NOT DUP2 AND DUP3 SSTORE PUSH1 0x1 PUSH1 0x1 PUSH1 0xA0 SHL SUB AND PUSH32 0x8BE0079C531659141344CD1FD0A4F28419497F9722A3DAAFE3B4186F6B6457E0 DUP3 DUP1 LOG3 DUP1 RETURN JUMPDEST POP CALLVALUE PUSH2 0x1DE JUMPI PUSH1 0x20 CALLDATASIZE PUSH1 0x3 NOT ADD SLT PUSH2 0x1DE JUMPI PUSH2 0xA71 PUSH1 0x3 PUSH1 0x40 PUSH2 0xA85 SWAP4 PUSH1 0x4 CALLDATALOAD PUSH2 0xA63 DUP2 PUSH2 0x14E4 JUMP JUMPDEST DUP2 MSTORE PUSH1 0x2 PUSH1 0x20 MSTORE KECCAK256 ADD PUSH2 0x1305 JUMP JUMPDEST PUSH1 0x40 MLOAD SWAP2 DUP3 SWAP2 PUSH1 0x20 DUP4 MSTORE PUSH1 0x20 DUP4 ADD SWAP1 PUSH2 0x1253 JUMP JUMPDEST SUB SWAP1 RETURN JUMPDEST POP CALLVALUE PUSH2 0x1DE JUMPI PUSH1 0x20 CALLDATASIZE PUSH1 0x3 NOT ADD SLT PUSH2 0x1DE JUMPI PUSH1 0x4 CALLDATALOAD PUSH2 0xAA7 DUP2 PUSH2 0x14E4 JUMP JUMPDEST DUP2 MSTORE PUSH1 0x2 PUSH1 0x20 MSTORE PUSH1 0xFF PUSH1 0x1 PUSH1 0x40 DUP4 KECCAK256 ADD SLOAD AND SWAP1 PUSH1 0x8 DUP3 LT ISZERO PUSH2 0x443 JUMPI PUSH1 0x20 DUP3 PUSH1 0x2 PUSH1 0x40 MLOAD SWAP2 EQ DUP2 MSTORE RETURN JUMPDEST POP CALLVALUE PUSH2 0x1DE JUMPI PUSH1 0x20 CALLDATASIZE PUSH1 0x3 NOT ADD SLT PUSH2 0x1DE JUMPI PUSH1 0x4 CALLDATALOAD PUSH2 0xAEE PUSH2 0x1534 JUMP JUMPDEST PUSH2 0xAF6 PUSH2 0x158C JUMP JUMPDEST PUSH2 0xAFF DUP2 PUSH2 0x14E4 JUMP JUMPDEST DUP1 DUP3 MSTORE PUSH1 0x2 PUSH1 0x20 MSTORE PUSH1 0xFF PUSH1 0x1 PUSH1 0x40 DUP5 KECCAK256 ADD SLOAD AND PUSH1 0x8 DUP2 LT ISZERO PUSH2 0x1CA JUMPI PUSH1 0x4 PUSH2 0xB27 SWAP2 EQ PUSH2 0x13F6 JUMP JUMPDEST DUP1 PUSH1 0x0 MSTORE PUSH1 0x2 PUSH1 0x20 MSTORE PUSH1 0x0 DUP1 MLOAD PUSH1 0x20 PUSH2 0x1623 DUP4 CODECOPY DUP2 MLOAD SWAP2 MSTORE PUSH1 0x40 PUSH1 0xFF PUSH2 0xB6C DUP3 PUSH1 0x0 KECCAK256 PUSH1 0x1 DUP2 ADD SWAP1 DUP2 SLOAD SWAP2 PUSH1 0x5 DUP6 NOT DUP5 AND OR SWAP1 SSTORE PUSH1 0x5 TIMESTAMP SWAP2 ADD SSTORE DUP4 MLOAD SWAP3 DUP4 SWAP2 AND PUSH2 0x1215 JUMP JUMPDEST PUSH1 0x5 PUSH1 0x20 DUP3 ADD MSTORE LOG2 DUP1 RETURN JUMPDEST POP CALLVALUE PUSH2 0x1DE JUMPI DUP1 PUSH1 0x3 NOT CALLDATASIZE ADD SLT PUSH2 0x1DE JUMPI PUSH1 0xFF PUSH1 0x20 SWAP2 SLOAD PUSH1 0xA0 SHR AND PUSH1 0x40 MLOAD SWAP1 ISZERO ISZERO DUP2 MSTORE RETURN JUMPDEST POP CALLVALUE PUSH2 0x1DE JUMPI PUSH1 0x40 CALLDATASIZE PUSH1 0x3 NOT ADD SLT PUSH2 0x1DE JUMPI PUSH1 0x4 CALLDATALOAD PUSH8 0xFFFFFFFFFFFFFFFF PUSH1 0x24 DUP1 CALLDATALOAD DUP3 DUP2 GT PUSH2 0x895 JUMPI CALLDATASIZE PUSH1 0x23 DUP3 ADD SLT ISZERO PUSH2 0x895 JUMPI DUP1 PUSH1 0x4 ADD CALLDATALOAD SWAP3 DUP4 GT PUSH2 0x895 JUMPI CALLDATASIZE DUP3 DUP5 DUP4 ADD ADD GT PUSH2 0x895 JUMPI PUSH2 0xBEF PUSH2 0x1534 JUMP JUMPDEST PUSH2 0xBF7 PUSH2 0x158C JUMP JUMPDEST PUSH2 0xC00 DUP5 PUSH2 0x14E4 JUMP JUMPDEST DUP4 DUP6 MSTORE PUSH1 0x20 SWAP3 PUSH1 0x2 DUP5 MSTORE PUSH1 0x1 SWAP3 PUSH1 0xFF DUP5 PUSH1 0x40 DUP10 KECCAK256 ADD SLOAD AND PUSH1 0x8 DUP2 LT ISZERO PUSH2 0xD61 JUMPI DUP5 PUSH2 0xC2B SWAP2 EQ PUSH2 0x1442 JUMP JUMPDEST DUP6 DUP8 MSTORE PUSH1 0x2 DUP6 MSTORE PUSH1 0x2 PUSH1 0x40 DUP9 KECCAK256 ADD SWAP3 PUSH2 0xC4E DUP4 PUSH2 0xC48 DUP7 SLOAD PUSH2 0x12CB JUMP JUMPDEST DUP7 PUSH2 0x148E JUMP JUMPDEST DUP8 SWAP1 DUP9 PUSH1 0x1F DUP6 GT PUSH1 0x1 EQ PUSH2 0xCDF JUMPI SWAP5 PUSH2 0xC9C DUP6 PUSH1 0x3 SWAP7 PUSH1 0x0 DUP1 MLOAD PUSH1 0x20 PUSH2 0x1623 DUP4 CODECOPY DUP2 MLOAD SWAP2 MSTORE SWAP11 SWAP7 PUSH2 0xCCB SWAP7 PUSH1 0x40 SWAP12 SWAP7 PUSH1 0xFF SWAP12 SWAP4 PUSH2 0xCD2 JUMPI JUMPDEST POP POP POP DUP2 PUSH1 0x1 SHL SWAP2 PUSH1 0x0 NOT SWAP1 PUSH1 0x3 SHL SHR NOT AND OR SWAP1 JUMP JUMPDEST SWAP1 SSTORE JUMPDEST DUP8 PUSH1 0x0 MSTORE PUSH1 0x2 DUP4 MSTORE DUP6 PUSH1 0x0 KECCAK256 SWAP1 DUP2 ADD SWAP1 DUP2 SLOAD SWAP2 DUP6 DUP8 NOT DUP5 AND OR SWAP1 SSTORE PUSH1 0x5 TIMESTAMP SWAP2 ADD SSTORE DUP6 MLOAD SWAP5 DUP6 SWAP2 AND PUSH2 0x1215 JUMP JUMPDEST DUP3 ADD MSTORE LOG2 DUP1 RETURN JUMPDEST ADD ADD CALLDATALOAD SWAP1 POP CODESIZE DUP1 DUP1 PUSH2 0xC86 JUMP JUMPDEST POP DUP5 DUP10 MSTORE DUP7 DUP10 KECCAK256 SWAP3 SWAP1 SWAP2 PUSH1 0x1F NOT DUP6 AND DUP11 JUMPDEST DUP2 DUP2 LT PUSH2 0xD4A JUMPI POP SWAP7 DUP6 PUSH1 0x0 DUP1 MLOAD PUSH1 0x20 PUSH2 0x1623 DUP4 CODECOPY DUP2 MLOAD SWAP2 MSTORE SWAP10 SWAP6 PUSH2 0xCCB SWAP6 DUP4 SWAP6 PUSH1 0xFF SWAP11 SWAP6 PUSH1 0x3 SWAP11 PUSH1 0x40 SWAP14 LT PUSH2 0xD2F JUMPI JUMPDEST POP POP POP POP DUP2 SHL ADD SWAP1 SSTORE PUSH2 0xC9F JUMP JUMPDEST PUSH1 0x0 NOT PUSH1 0xF8 DUP7 DUP14 SHL AND SHR NOT SWAP3 ADD ADD CALLDATALOAD AND SWAP1 SSTORE CODESIZE DUP1 DUP1 DUP1 PUSH2 0xD21 JUMP JUMPDEST DUP5 DUP4 ADD DUP5 ADD CALLDATALOAD DUP7 SSTORE SWAP5 DUP9 ADD SWAP5 SWAP2 DUP10 ADD SWAP2 DUP10 ADD PUSH2 0xCF0 JUMP JUMPDEST POP PUSH4 0x4E487B71 PUSH1 0xE0 SHL DUP8 MSTORE PUSH1 0x21 PUSH1 0x4 MSTORE DUP7 REVERT JUMPDEST POP CALLVALUE PUSH2 0x1DE JUMPI PUSH1 0x60 CALLDATASIZE PUSH1 0x3 NOT ADD SLT PUSH2 0x1DE JUMPI PUSH2 0xD8E PUSH2 0x1238 JUMP JUMPDEST PUSH1 0x24 CALLDATALOAD PUSH1 0x1 PUSH1 0x1 PUSH1 0xA0 SHL SUB DUP2 DUP2 AND SWAP3 DUP5 SWAP3 DUP5 SWAP1 SUB PUSH2 0x8AE JUMPI PUSH2 0xDAE PUSH2 0x1534 JUMP JUMPDEST PUSH2 0xDB6 PUSH2 0x158C JUMP JUMPDEST DUP2 PUSH1 0x1 SLOAD AND SWAP1 DUP2 EXTCODESIZE ISZERO PUSH2 0xE30 JUMPI DUP4 PUSH1 0x64 SWAP3 PUSH1 0x40 MLOAD SWAP7 DUP8 SWAP6 DUP7 SWAP5 PUSH4 0x1B4E583D PUSH1 0xE3 SHL DUP7 MSTORE AND PUSH1 0x4 DUP6 ADD MSTORE PUSH1 0x24 DUP5 ADD MSTORE PUSH1 0x44 CALLDATALOAD PUSH1 0x44 DUP5 ADD MSTORE GAS CALL DUP1 ISZERO PUSH2 0xE25 JUMPI PUSH2 0xDFC JUMPI POP DUP1 RETURN JUMPDEST PUSH8 0xFFFFFFFFFFFFFFFF DUP2 GT PUSH2 0xE11 JUMPI PUSH1 0x40 MSTORE DUP1 RETURN JUMPDEST PUSH4 0x4E487B71 PUSH1 0xE0 SHL DUP3 MSTORE PUSH1 0x41 PUSH1 0x4 MSTORE PUSH1 0x24 DUP3 REVERT JUMPDEST PUSH1 0x40 MLOAD RETURNDATASIZE DUP5 DUP3 RETURNDATACOPY RETURNDATASIZE SWAP1 REVERT JUMPDEST DUP4 DUP1 REVERT JUMPDEST POP CALLVALUE PUSH2 0x1DE JUMPI PUSH1 0x20 CALLDATASIZE PUSH1 0x3 NOT ADD SLT PUSH2 0x1DE JUMPI PUSH1 0x4 CALLDATALOAD PUSH2 0xE51 PUSH2 0x1534 JUMP JUMPDEST PUSH2 0xE59 PUSH2 0x158C JUMP JUMPDEST PUSH2 0xE62 DUP2 PUSH2 0x14E4 JUMP JUMPDEST DUP1 DUP3 MSTORE PUSH1 0x2 PUSH1 0x20 MSTORE PUSH1 0xFF PUSH1 0x1 PUSH1 0x40 DUP5 KECCAK256 ADD SLOAD AND PUSH1 0x8 DUP2 LT ISZERO PUSH2 0x1CA JUMPI PUSH1 0x6 SUB PUSH2 0xE8E JUMPI PUSH2 0x39D SWAP1 PUSH2 0x15D3 JUMP JUMPDEST PUSH1 0x40 MLOAD PUSH3 0x461BCD PUSH1 0xE5 SHL DUP2 MSTORE PUSH1 0x20 PUSH1 0x4 DUP3 ADD MSTORE PUSH1 0x19 PUSH1 0x24 DUP3 ADD MSTORE PUSH32 0x4D75737420626520696E205448455F4348415020737461746500000000000000 PUSH1 0x44 DUP3 ADD MSTORE PUSH1 0x64 SWAP1 REVERT JUMPDEST POP CALLVALUE PUSH2 0x1DE JUMPI DUP1 PUSH1 0x3 NOT CALLDATASIZE ADD SLT PUSH2 0x1DE JUMPI PUSH2 0xEEC PUSH2 0x1534 JUMP JUMPDEST DUP1 SLOAD PUSH1 0xFF DUP2 PUSH1 0xA0 SHR AND ISZERO PUSH2 0xF32 JUMPI PUSH1 0xFF PUSH1 0xA0 SHL NOT AND DUP2 SSTORE PUSH1 0x40 MLOAD CALLER DUP2 MSTORE PUSH32 0x5DB9EE0A495BF2E6FF9C91A7834C1BA4FDD244A5E8AA4E537BD38AEAE4B073AA SWAP1 PUSH1 0x20 SWAP1 LOG1 DUP1 RETURN JUMPDEST PUSH1 0x40 MLOAD PUSH3 0x461BCD PUSH1 0xE5 SHL DUP2 MSTORE PUSH1 0x20 PUSH1 0x4 DUP3 ADD MSTORE PUSH1 0x14 PUSH1 0x24 DUP3 ADD MSTORE PUSH20 0x14185D5CD8589B194E881B9BDD081C185D5CD959 PUSH1 0x62 SHL PUSH1 0x44 DUP3 ADD MSTORE PUSH1 0x64 SWAP1 REVERT JUMPDEST POP CALLVALUE PUSH2 0x1DE JUMPI PUSH1 0x20 CALLDATASIZE PUSH1 0x3 NOT ADD SLT PUSH2 0x1DE JUMPI PUSH1 0x4 CALLDATALOAD PUSH2 0xF8B PUSH2 0x1534 JUMP JUMPDEST PUSH2 0xF93 PUSH2 0x158C JUMP JUMPDEST PUSH2 0xF9C DUP2 PUSH2 0x14E4 JUMP JUMPDEST DUP1 DUP3 MSTORE PUSH1 0x2 PUSH1 0x20 MSTORE PUSH1 0xFF PUSH1 0x1 PUSH1 0x40 DUP5 KECCAK256 ADD SLOAD AND PUSH1 0x8 DUP2 LT ISZERO PUSH2 0x1CA JUMPI SWAP1 PUSH2 0xFC8 PUSH1 0x1 PUSH2 0x39D SWAP4 EQ PUSH2 0x1442 JUMP JUMPDEST PUSH2 0x15D3 JUMP JUMPDEST POP CALLVALUE PUSH2 0x1DE JUMPI PUSH1 0x20 CALLDATASIZE PUSH1 0x3 NOT ADD SLT PUSH2 0x1DE JUMPI PUSH1 0x4 CALLDATALOAD PUSH2 0xFEA PUSH2 0x1534 JUMP JUMPDEST PUSH2 0xFF2 PUSH2 0x158C JUMP JUMPDEST PUSH2 0xFFB DUP2 PUSH2 0x14E4 JUMP JUMPDEST DUP1 DUP3 MSTORE PUSH1 0x2 PUSH1 0x20 MSTORE PUSH1 0xFF PUSH1 0x1 PUSH1 0x40 DUP5 KECCAK256 ADD SLOAD AND PUSH1 0x8 DUP2 LT ISZERO PUSH2 0x1CA JUMPI SWAP1 PUSH2 0xFC8 PUSH1 0x4 PUSH2 0x39D SWAP4 EQ PUSH2 0x13F6 JUMP JUMPDEST POP CALLVALUE PUSH2 0x1DE JUMPI PUSH1 0x20 CALLDATASIZE PUSH1 0x3 NOT ADD SLT PUSH2 0x1DE JUMPI PUSH1 0x4 CALLDATALOAD PUSH2 0x1044 PUSH2 0x1534 JUMP JUMPDEST PUSH2 0x104C PUSH2 0x158C JUMP JUMPDEST PUSH2 0x1055 DUP2 PUSH2 0x14E4 JUMP JUMPDEST DUP1 DUP3 MSTORE PUSH1 0x2 PUSH1 0x20 MSTORE PUSH1 0xFF PUSH1 0x1 PUSH1 0x40 DUP5 KECCAK256 ADD SLOAD AND PUSH1 0x8 DUP2 LT ISZERO PUSH2 0x1CA JUMPI PUSH2 0x10C3 JUMPI DUP1 DUP3 MSTORE PUSH1 0x2 PUSH1 0x20 MSTORE PUSH1 0x0 DUP1 MLOAD PUSH1 0x20 PUSH2 0x1623 DUP4 CODECOPY DUP2 MLOAD SWAP2 MSTORE PUSH1 0x40 PUSH1 0xFF PUSH2 0x10B8 DUP3 DUP7 KECCAK256 PUSH1 0x1 DUP2 ADD SWAP1 DUP2 SLOAD SWAP2 PUSH1 0x1 DUP6 NOT DUP5 AND OR SWAP1 SSTORE PUSH1 0x5 TIMESTAMP SWAP2 ADD SSTORE DUP4 MLOAD SWAP3 DUP4 SWAP2 AND PUSH2 0x1215 JUMP JUMPDEST PUSH1 0x1 PUSH1 0x20 DUP3 ADD MSTORE LOG2 DUP1 RETURN JUMPDEST PUSH1 0x40 MLOAD PUSH3 0x461BCD PUSH1 0xE5 SHL DUP2 MSTORE PUSH1 0x20 PUSH1 0x4 DUP3 ADD MSTORE PUSH1 0x19 PUSH1 0x24 DUP3 ADD MSTORE PUSH32 0x4D75737420626520696E204B484F495F54414F20737461746500000000000000 PUSH1 0x44 DUP3 ADD MSTORE PUSH1 0x64 SWAP1 REVERT JUMPDEST POP CALLVALUE PUSH2 0x1DE JUMPI DUP1 PUSH1 0x3 NOT CALLDATASIZE ADD SLT PUSH2 0x1DE JUMPI PUSH1 0x1 SLOAD PUSH1 0x40 MLOAD PUSH1 0x1 PUSH1 0x1 PUSH1 0xA0 SHL SUB SWAP1 SWAP2 AND DUP2 MSTORE PUSH1 0x20 SWAP1 RETURN JUMPDEST POP CALLVALUE PUSH2 0x1DE JUMPI PUSH1 0x20 CALLDATASIZE PUSH1 0x3 NOT ADD SLT PUSH2 0x1DE JUMPI PUSH1 0x4 CALLDATALOAD PUSH2 0x114E PUSH2 0x1534 JUMP JUMPDEST PUSH2 0x1156 PUSH2 0x158C JUMP JUMPDEST PUSH2 0x115F DUP2 PUSH2 0x14E4 JUMP JUMPDEST DUP1 DUP3 MSTORE PUSH1 0x2 PUSH1 0x20 MSTORE PUSH1 0xFF PUSH1 0x1 PUSH1 0x40 DUP5 KECCAK256 ADD SLOAD AND PUSH1 0x8 DUP2 LT ISZERO PUSH2 0x1CA JUMPI PUSH1 0x2 PUSH2 0x1187 SWAP2 EQ PUSH2 0x13AA JUMP JUMPDEST DUP1 DUP3 MSTORE PUSH1 0x2 PUSH1 0x20 MSTORE PUSH1 0x0 DUP1 MLOAD PUSH1 0x20 PUSH2 0x1623 DUP4 CODECOPY DUP2 MLOAD SWAP2 MSTORE PUSH1 0x40 PUSH1 0xFF PUSH2 0x11CA DUP3 DUP7 KECCAK256 PUSH1 0x1 DUP2 ADD SWAP1 DUP2 SLOAD SWAP2 PUSH1 0x6 DUP6 NOT DUP5 AND OR SWAP1 SSTORE PUSH1 0x5 TIMESTAMP SWAP2 ADD SSTORE DUP4 MLOAD SWAP3 DUP4 SWAP2 AND PUSH2 0x1215 JUMP JUMPDEST PUSH1 0x6 PUSH1 0x20 DUP3 ADD MSTORE LOG2 DUP1 RETURN JUMPDEST POP CALLVALUE PUSH2 0x1DE JUMPI PUSH1 0x20 CALLDATASIZE PUSH1 0x3 NOT ADD SLT PUSH2 0x1DE JUMPI PUSH1 0xFF PUSH1 0x1 PUSH1 0x40 PUSH1 0x20 SWAP4 PUSH1 0x4 CALLDATALOAD PUSH2 0x11FC DUP2 PUSH2 0x14E4 JUMP JUMPDEST DUP2 MSTORE PUSH1 0x2 DUP6 MSTORE KECCAK256 ADD SLOAD AND PUSH2 0x1213 PUSH1 0x40 MLOAD DUP1 SWAP3 PUSH2 0x1215 JUMP JUMPDEST RETURN JUMPDEST SWAP1 PUSH1 0x8 DUP3 LT ISZERO PUSH2 0x1222 JUMPI MSTORE JUMP JUMPDEST PUSH4 0x4E487B71 PUSH1 0xE0 SHL PUSH1 0x0 MSTORE PUSH1 0x21 PUSH1 0x4 MSTORE PUSH1 0x24 PUSH1 0x0 REVERT JUMPDEST PUSH1 0x4 CALLDATALOAD SWAP1 PUSH1 0x1 PUSH1 0x1 PUSH1 0xA0 SHL SUB DUP3 AND DUP3 SUB PUSH2 0x124E JUMPI JUMP JUMPDEST PUSH1 0x0 DUP1 REVERT JUMPDEST SWAP2 SWAP1 DUP3 MLOAD SWAP3 DUP4 DUP3 MSTORE PUSH1 0x0 JUMPDEST DUP5 DUP2 LT PUSH2 0x127F JUMPI POP POP DUP3 PUSH1 0x0 PUSH1 0x20 DUP1 SWAP5 SWAP6 DUP5 ADD ADD MSTORE PUSH1 0x1F DUP1 NOT SWAP2 ADD AND ADD ADD SWAP1 JUMP JUMPDEST PUSH1 0x20 DUP2 DUP4 ADD DUP2 ADD MLOAD DUP5 DUP4 ADD DUP3 ADD MSTORE ADD PUSH2 0x125E JUMP JUMPDEST SWAP1 PUSH1 0x1F DUP1 NOT SWAP2 ADD AND DUP2 ADD SWAP1 DUP2 LT PUSH8 0xFFFFFFFFFFFFFFFF DUP3 GT OR PUSH2 0x12B5 JUMPI PUSH1 0x40 MSTORE JUMP JUMPDEST PUSH4 0x4E487B71 PUSH1 0xE0 SHL PUSH1 0x0 MSTORE PUSH1 0x41 PUSH1 0x4 MSTORE PUSH1 0x24 PUSH1 0x0 REVERT JUMPDEST SWAP1 PUSH1 0x1 DUP3 DUP2 SHR SWAP3 AND DUP1 ISZERO PUSH2 0x12FB JUMPI JUMPDEST PUSH1 0x20 DUP4 LT EQ PUSH2 0x12E5 JUMPI JUMP JUMPDEST PUSH4 0x4E487B71 PUSH1 0xE0 SHL PUSH1 0x0 MSTORE PUSH1 0x22 PUSH1 0x4 MSTORE PUSH1 0x24 PUSH1 0x0 REVERT JUMPDEST SWAP2 PUSH1 0x7F AND SWAP2 PUSH2 0x12DA JUMP JUMPDEST SWAP1 PUSH1 0x40 MLOAD SWAP2 DUP3 PUSH1 0x0 DUP3 SLOAD PUSH2 0x1318 DUP2 PUSH2 0x12CB JUMP JUMPDEST SWAP1 DUP2 DUP5 MSTORE PUSH1 0x20 SWAP5 PUSH1 0x1 SWAP2 PUSH1 0x1 DUP2 AND SWAP1 DUP2 PUSH1 0x0 EQ PUSH2 0x1388 JUMPI POP PUSH1 0x1 EQ PUSH2 0x1349 JUMPI JUMPDEST POP POP POP PUSH2 0x1347 SWAP3 POP SUB DUP4 PUSH2 0x1293 JUMP JUMPDEST JUMP JUMPDEST PUSH1 0x0 SWAP1 DUP2 MSTORE DUP6 DUP2 KECCAK256 SWAP6 SWAP4 POP SWAP2 SWAP1 JUMPDEST DUP2 DUP4 LT PUSH2 0x1370 JUMPI POP POP PUSH2 0x1347 SWAP4 POP DUP3 ADD ADD CODESIZE DUP1 DUP1 PUSH2 0x1338 JUMP JUMPDEST DUP6 SLOAD DUP9 DUP5 ADD DUP6 ADD MSTORE SWAP5 DUP6 ADD SWAP5 DUP8 SWAP5 POP SWAP2 DUP4 ADD SWAP2 PUSH2 0x1357 JUMP JUMPDEST SWAP3 POP POP POP PUSH2 0x1347 SWAP5 SWAP3 POP PUSH1 0xFF NOT AND DUP3 DUP5 ADD MSTORE ISZERO ISZERO PUSH1 0x5 SHL DUP3 ADD ADD CODESIZE DUP1 DUP1 PUSH2 0x1338 JUMP JUMPDEST ISZERO PUSH2 0x13B1 JUMPI JUMP JUMPDEST PUSH1 0x40 MLOAD PUSH3 0x461BCD PUSH1 0xE5 SHL DUP2 MSTORE PUSH1 0x20 PUSH1 0x4 DUP3 ADD MSTORE PUSH1 0x1A PUSH1 0x24 DUP3 ADD MSTORE PUSH32 0x4D75737420626520696E2044415F4341505F534F207374617465000000000000 PUSH1 0x44 DUP3 ADD MSTORE PUSH1 0x64 SWAP1 REVERT JUMPDEST ISZERO PUSH2 0x13FD JUMPI JUMP JUMPDEST PUSH1 0x40 MLOAD PUSH3 0x461BCD PUSH1 0xE5 SHL DUP2 MSTORE PUSH1 0x20 PUSH1 0x4 DUP3 ADD MSTORE PUSH1 0x1F PUSH1 0x24 DUP3 ADD MSTORE PUSH32 0x4D75737420626520696E2044414E475F4749414F5F4449434820737461746500 PUSH1 0x44 DUP3 ADD MSTORE PUSH1 0x64 SWAP1 REVERT JUMPDEST ISZERO PUSH2 0x1449 JUMPI JUMP JUMPDEST PUSH1 0x40 MLOAD PUSH3 0x461BCD PUSH1 0xE5 SHL DUP2 MSTORE PUSH1 0x20 PUSH1 0x4 DUP3 ADD MSTORE PUSH1 0x1A PUSH1 0x24 DUP3 ADD MSTORE PUSH32 0x4D75737420626520696E2043484F5F4455594554207374617465000000000000 PUSH1 0x44 DUP3 ADD MSTORE PUSH1 0x64 SWAP1 REVERT JUMPDEST SWAP1 PUSH1 0x1F DUP2 GT PUSH2 0x149C JUMPI POP POP POP JUMP JUMPDEST PUSH1 0x0 SWAP2 PUSH1 0x0 MSTORE PUSH1 0x20 PUSH1 0x0 KECCAK256 SWAP1 PUSH1 0x20 PUSH1 0x1F DUP6 ADD PUSH1 0x5 SHR DUP4 ADD SWAP5 LT PUSH2 0x14DA JUMPI JUMPDEST PUSH1 0x1F ADD PUSH1 0x5 SHR ADD SWAP2 JUMPDEST DUP3 DUP2 LT PUSH2 0x14CF JUMPI POP POP POP JUMP JUMPDEST DUP2 DUP2 SSTORE PUSH1 0x1 ADD PUSH2 0x14C3 JUMP JUMPDEST SWAP1 SWAP3 POP DUP3 SWAP1 PUSH2 0x14BA JUMP JUMPDEST PUSH1 0x0 MSTORE PUSH1 0x2 PUSH1 0x20 MSTORE PUSH1 0x40 PUSH1 0x0 KECCAK256 SLOAD ISZERO PUSH2 0x14F9 JUMPI JUMP JUMPDEST PUSH1 0x40 MLOAD PUSH3 0x461BCD PUSH1 0xE5 SHL DUP2 MSTORE PUSH1 0x20 PUSH1 0x4 DUP3 ADD MSTORE PUSH1 0x13 PUSH1 0x24 DUP3 ADD MSTORE PUSH19 0x13185B99081B9BDD081C9959DA5CDD195C9959 PUSH1 0x6A SHL PUSH1 0x44 DUP3 ADD MSTORE PUSH1 0x64 SWAP1 REVERT JUMPDEST PUSH1 0x0 SLOAD PUSH1 0x1 PUSH1 0x1 PUSH1 0xA0 SHL SUB AND CALLER SUB PUSH2 0x1548 JUMPI JUMP JUMPDEST PUSH1 0x64 PUSH1 0x40 MLOAD PUSH3 0x461BCD PUSH1 0xE5 SHL DUP2 MSTORE PUSH1 0x20 PUSH1 0x4 DUP3 ADD MSTORE PUSH1 0x20 PUSH1 0x24 DUP3 ADD MSTORE PUSH32 0x4F776E61626C653A2063616C6C6572206973206E6F7420746865206F776E6572 PUSH1 0x44 DUP3 ADD MSTORE REVERT JUMPDEST PUSH1 0xFF PUSH1 0x0 SLOAD PUSH1 0xA0 SHR AND PUSH2 0x159B JUMPI JUMP JUMPDEST PUSH1 0x40 MLOAD PUSH3 0x461BCD PUSH1 0xE5 SHL DUP2 MSTORE PUSH1 0x20 PUSH1 0x4 DUP3 ADD MSTORE PUSH1 0x10 PUSH1 0x24 DUP3 ADD MSTORE PUSH16 0x14185D5CD8589B194E881C185D5CD959 PUSH1 0x82 SHL PUSH1 0x44 DUP3 ADD MSTORE PUSH1 0x64 SWAP1 REVERT JUMPDEST DUP1 PUSH1 0x0 MSTORE PUSH1 0x2 PUSH1 0x20 MSTORE PUSH1 0x0 DUP1 MLOAD PUSH1 0x20 PUSH2 0x1623 DUP4 CODECOPY DUP2 MLOAD SWAP2 MSTORE PUSH1 0x40 PUSH1 0xFF PUSH2 0x1618 DUP3 PUSH1 0x0 KECCAK256 PUSH1 0x1 DUP2 ADD SWAP1 DUP2 SLOAD SWAP2 PUSH1 0x2 DUP6 NOT DUP5 AND OR SWAP1 SSTORE PUSH1 0x5 TIMESTAMP SWAP2 ADD SSTORE DUP4 MLOAD SWAP3 DUP4 SWAP2 AND PUSH2 0x1215 JUMP JUMPDEST PUSH1 0x2 PUSH1 0x20 DUP3 ADD MSTORE LOG2 JUMP INVALID PUSH28 0xAE5B3937F1C50FF50F2FF21B403739914664EE08B38898777AEE11EB LOG3 0xEA 0x1F LOG2 PUSH5 0x6970667358 0x22 SLT KECCAK256 BASEFEE 0xB8 0xE8 PREVRANDAO CALLDATASIZE SMOD PUSH16 0x48C3C55E33B3FB9FE38551D2694B02FB CALLDATASIZE SMOD CALL 0xE8 DUP9 CALLER SWAP6 0xDF 0xC6 PUSH5 0x736F6C6343 STOP ADDMOD XOR STOP CALLER "},"methodIdentifiers":{"approveLand(uint256)":"38c887b2","canTransact(uint256)":"67bdb2a1","cancelTransaction(uint256)":"3380c0d8","completeTransfer(uint256)":"619c83ed","createLandRecord(address,string)":"ab5d2475","getLandMetadata(uint256)":"6c2a4ed2","getLandStatus(uint256)":"04835426","isBlocked(uint256)":"b0aa98c7","landNFTContract()":"2b359bc5","lands(uint256)":"e261f1e5","mortgage(uint256)":"1be3175e","owner()":"8da5cb5b","pause()":"8456cb59","paused()":"5c975abb","proxyAdminTransfer(address,address,uint256)":"562b22dd","raiseDispute(uint256)":"a5c1674e","rejectLand(uint256,string)":"59122393","releaseMortgage(uint256)":"4b45ca8f","renounceOwnership()":"715018a6","resolveDispute(uint256)":"c2b7b868","startTransaction(uint256)":"f6f84508","submitForApproval(uint256)":"2cb0aa31","transferOwnership(address)":"f2fde38b","unpause()":"3f4ba83a"}}}}}