{"contracts/AuditLog.sol":{"AuditLog":{"abi":[{"anonymous":false,"inputs":[{"indexed":true,"internalType":"bytes32","name":"logHash","type":"bytes32"},{"indexed":false,"internalType":"uint256","name":"timestamp","type":"uint256"},{"indexed":true,"internalType":"address","name":"recorder","type":"address"}],"name":"LogHashRecorded","type":"event"},{"anonymous":false,"inputs":[{"indexed":true,"internalType":"address","name":"previousOwner","type":"address"},{"indexed":true,"internalType":"address","name":"newOwner","type":"address"}],"name":"OwnershipTransferred","type":"event"},{"inputs":[{"internalType":"bytes32[]","name":"_logHashes","type":"bytes32[]"}],"name":"batchRecordLogHashes","outputs":[],"stateMutability":"nonpayable","type":"function"},{"inputs":[{"internalType":"bytes32","name":"","type":"bytes32"}],"name":"logHashes","outputs":[{"internalType":"uint256","name":"","type":"uint256"}],"stateMutability":"view","type":"function"},{"inputs":[],"name":"owner","outputs":[{"internalType":"address","name":"","type":"address"}],"stateMutability":"view","type":"function"},{"inputs":[{"internalType":"bytes32","name":"logHash","type":"bytes32"}],"name":"recordLogHash","outputs":[],"stateMutability":"nonpayable","type":"function"},{"inputs":[],"name":"renounceOwnership","outputs":[],"stateMutability":"nonpayable","type":"function"},{"inputs":[{"internalType":"address","name":"newOwner","type":"address"}],"name":"transferOwnership","outputs":[],"stateMutability":"nonpayable","type":"function"},{"inputs":[{"internalType":"bytes32","name":"logHash","type":"bytes32"}],"name":"verifyLogHash","outputs":[{"internalType":"uint256","name":"","type":"uint256"}],"stateMutability":"view","type":"function"}],"evm":{"bytecode":{"linkReferences":{},"object":"6080806040523461005b5760008054336001600160a01b0319821681178355916001600160a01b03909116907f8be0079c531659141344cd1fd0a4f28419497f9722a3daafe3b4186f6b6457e09080a361042f90816100618239f35b600080fdfe60406080815260048036101561001457600080fd5b600091823560e01c80636da6bb4614610295578063715018a614610238578063788daa17146101395780638da5cb5b1461020c5780639f28d20214610161578063e7a72438146101395763f2fde38b1461006d57600080fd5b34610135576020366003190112610135576001600160a01b038235818116939192908490036101315761009e6103a1565b83156100df57505082546001600160a01b0319811683178455167f8be0079c531659141344cd1fd0a4f28419497f9722a3daafe3b4186f6b6457e08380a380f35b906020608492519162461bcd60e51b8352820152602660248201527f4f776e61626c653a206e6577206f776e657220697320746865207a65726f206160448201526564647265737360d01b6064820152fd5b8480fd5b8280fd5b5090346101355760203660031901126101355760209282913581526001845220549051908152f35b50346101355760203660031901126101355781359161017e6103a1565b8284526001602052818420546101ca57508183526001602052428184205551904282527f34bee6156bd6ca32b4ab42c01e0814f83dee1f05943bacda3540629ea899189c60203393a380f35b6020606492519162461bcd60e51b8352820152601960248201527f4c6f67206861736820616c7265616479207265636f72646564000000000000006044820152fd5b838234610234578160031936011261023457905490516001600160a01b039091168152602090f35b5080fd5b83346102925780600319360112610292576102516103a1565b80546001600160a01b03198116825581906001600160a01b03167f8be0079c531659141344cd1fd0a4f28419497f9722a3daafe3b4186f6b6457e08280a380f35b80fd5b503461013557602090602060031936011261037757823567ffffffffffffffff93848211610373573660238301121561037357810135938411610131576024810190602436918660051b010111610131576102ee6103a1565b845b8481106102fb578580f35b80610309600192878561037b565b358752818086528488205415610321575b50016102f0565b61032c82888661037b565b3588528552428488205561034181878561037b565b358451904282527f34bee6156bd6ca32b4ab42c01e0814f83dee1f05943bacda3540629ea899189c873393a33861031a565b8580fd5b8380fd5b919081101561038b5760051b0190565b634e487b7160e01b600052603260045260246000fd5b6000546001600160a01b031633036103b557565b606460405162461bcd60e51b815260206004820152602060248201527f4f776e61626c653a2063616c6c6572206973206e6f7420746865206f776e65726044820152fdfea264697066735822122051fc1b6181f5c513dcec750a3a470153991d33776aa2259de93f026dd7b6dfa064736f6c63430008180033","opcodes":"PUSH1 0x80 DUP1 PUSH1 0x40 MSTORE CALLVALUE PUSH2 0x5B JUMPI PUSH1 0x0 DUP1 SLOAD CALLER PUSH1 0x1 PUSH1 0x1 PUSH1 0xA0 SHL SUB NOT DUP3 AND DUP2 OR DUP4 SSTORE SWAP2 PUSH1 0x1 PUSH1 0x1 PUSH1 0xA0 SHL SUB SWAP1 SWAP2 AND SWAP1 PUSH32 0x8BE0079C531659141344CD1FD0A4F28419497F9722A3DAAFE3B4186F6B6457E0 SWAP1 DUP1 LOG3 PUSH2 0x42F SWAP1 DUP2 PUSH2 0x61 DUP3 CODECOPY RETURN JUMPDEST PUSH1 0x0 DUP1 REVERT INVALID PUSH1 0x40 PUSH1 0x80 DUP2 MSTORE PUSH1 0x4 DUP1 CALLDATASIZE LT ISZERO PUSH2 0x14 JUMPI PUSH1 0x0 DUP1 REVERT JUMPDEST PUSH1 0x0 SWAP2 DUP3 CALLDATALOAD PUSH1 0xE0 SHR DUP1 PUSH4 0x6DA6BB46 EQ PUSH2 0x295 JUMPI DUP1 PUSH4 0x715018A6 EQ PUSH2 0x238 JUMPI DUP1 PUSH4 0x788DAA17 EQ PUSH2 0x139 JUMPI DUP1 PUSH4 0x8DA5CB5B EQ PUSH2 0x20C JUMPI DUP1 PUSH4 0x9F28D202 EQ PUSH2 0x161 JUMPI DUP1 PUSH4 0xE7A72438 EQ PUSH2 0x139 JUMPI PUSH4 0xF2FDE38B EQ PUSH2 0x6D JUMPI PUSH1 0x0 DUP1 REVERT JUMPDEST CALLVALUE PUSH2 0x135 JUMPI PUSH1 0x20 CALLDATASIZE PUSH1 0x3 NOT ADD SLT PUSH2 0x135 JUMPI PUSH1 0x1 PUSH1 0x1 PUSH1 0xA0 SHL SUB DUP3 CALLDATALOAD DUP2 DUP2 AND SWAP4 SWAP2 SWAP3 SWAP1 DUP5 SWAP1 SUB PUSH2 0x131 JUMPI PUSH2 0x9E PUSH2 0x3A1 JUMP JUMPDEST DUP4 ISZERO PUSH2 0xDF JUMPI POP POP DUP3 SLOAD PUSH1 0x1 PUSH1 0x1 PUSH1 0xA0 SHL SUB NOT DUP2 AND DUP4 OR DUP5 SSTORE AND PUSH32 0x8BE0079C531659141344CD1FD0A4F28419497F9722A3DAAFE3B4186F6B6457E0 DUP4 DUP1 LOG3 DUP1 RETURN JUMPDEST SWAP1 PUSH1 0x20 PUSH1 0x84 SWAP3 MLOAD SWAP2 PUSH3 0x461BCD PUSH1 0xE5 SHL DUP4 MSTORE DUP3 ADD MSTORE PUSH1 0x26 PUSH1 0x24 DUP3 ADD MSTORE PUSH32 0x4F776E61626C653A206E6577206F776E657220697320746865207A65726F2061 PUSH1 0x44 DUP3 ADD MSTORE PUSH6 0x646472657373 PUSH1 0xD0 SHL PUSH1 0x64 DUP3 ADD MSTORE REVERT JUMPDEST DUP5 DUP1 REVERT JUMPDEST DUP3 DUP1 REVERT JUMPDEST POP SWAP1 CALLVALUE PUSH2 0x135 JUMPI PUSH1 0x20 CALLDATASIZE PUSH1 0x3 NOT ADD SLT PUSH2 0x135 JUMPI PUSH1 0x20 SWAP3 DUP3 SWAP2 CALLDATALOAD DUP2 MSTORE PUSH1 0x1 DUP5 MSTORE KECCAK256 SLOAD SWAP1 MLOAD SWAP1 DUP2 MSTORE RETURN JUMPDEST POP CALLVALUE PUSH2 0x135 JUMPI PUSH1 0x20 CALLDATASIZE PUSH1 0x3 NOT ADD SLT PUSH2 0x135 JUMPI DUP2 CALLDATALOAD SWAP2 PUSH2 0x17E PUSH2 0x3A1 JUMP JUMPDEST DUP3 DUP5 MSTORE PUSH1 0x1 PUSH1 0x20 MSTORE DUP2 DUP5 KECCAK256 SLOAD PUSH2 0x1CA JUMPI POP DUP2 DUP4 MSTORE PUSH1 0x1 PUSH1 0x20 MSTORE TIMESTAMP DUP2 DUP5 KECCAK256 SSTORE MLOAD SWAP1 TIMESTAMP DUP3 MSTORE PUSH32 0x34BEE6156BD6CA32B4AB42C01E0814F83DEE1F05943BACDA3540629EA899189C PUSH1 0x20 CALLER SWAP4 LOG3 DUP1 RETURN JUMPDEST PUSH1 0x20 PUSH1 0x64 SWAP3 MLOAD SWAP2 PUSH3 0x461BCD PUSH1 0xE5 SHL DUP4 MSTORE DUP3 ADD MSTORE PUSH1 0x19 PUSH1 0x24 DUP3 ADD MSTORE PUSH32 0x4C6F67206861736820616C7265616479207265636F7264656400000000000000 PUSH1 0x44 DUP3 ADD MSTORE REVERT JUMPDEST DUP4 DUP3 CALLVALUE PUSH2 0x234 JUMPI DUP2 PUSH1 0x3 NOT CALLDATASIZE ADD SLT PUSH2 0x234 JUMPI SWAP1 SLOAD SWAP1 MLOAD PUSH1 0x1 PUSH1 0x1 PUSH1 0xA0 SHL SUB SWAP1 SWAP2 AND DUP2 MSTORE PUSH1 0x20 SWAP1 RETURN JUMPDEST POP DUP1 REVERT JUMPDEST DUP4 CALLVALUE PUSH2 0x292 JUMPI DUP1 PUSH1 0x3 NOT CALLDATASIZE ADD SLT PUSH2 0x292 JUMPI PUSH2 0x251 PUSH2 0x3A1 JUMP JUMPDEST DUP1 SLOAD PUSH1 0x1 PUSH1 0x1 PUSH1 0xA0 SHL SUB NOT DUP2 AND DUP3 SSTORE DUP2 SWAP1 PUSH1 0x1 PUSH1 0x1 PUSH1 0xA0 SHL SUB AND PUSH32 0x8BE0079C531659141344CD1FD0A4F28419497F9722A3DAAFE3B4186F6B6457E0 DUP3 DUP1 LOG3 DUP1 RETURN JUMPDEST DUP1 REVERT JUMPDEST POP CALLVALUE PUSH2 0x135 JUMPI PUSH1 0x20 SWAP1 PUSH1 0x20 PUSH1 0x3 NOT CALLDATASIZE ADD SLT PUSH2 0x377 JUMPI DUP3 CALLDATALOAD PUSH8 0xFFFFFFFFFFFFFFFF SWAP4 DUP5 DUP3 GT PUSH2 0x373 JUMPI CALLDATASIZE PUSH1 0x23 DUP4 ADD SLT ISZERO PUSH2 0x373 JUMPI DUP2 ADD CALLDATALOAD SWAP4 DUP5 GT PUSH2 0x131 JUMPI PUSH1 0x24 DUP2 ADD SWAP1 PUSH1 0x24 CALLDATASIZE SWAP2 DUP7 PUSH1 0x5 SHL ADD ADD GT PUSH2 0x131 JUMPI PUSH2 0x2EE PUSH2 0x3A1 JUMP JUMPDEST DUP5 JUMPDEST DUP5 DUP2 LT PUSH2 0x2FB JUMPI DUP6 DUP1 RETURN JUMPDEST DUP1 PUSH2 0x309 PUSH1 0x1 SWAP3 DUP8 DUP6 PUSH2 0x37B JUMP JUMPDEST CALLDATALOAD DUP8 MSTORE DUP2 DUP1 DUP7 MSTORE DUP5 DUP9 KECCAK256 SLOAD ISZERO PUSH2 0x321 JUMPI JUMPDEST POP ADD PUSH2 0x2F0 JUMP JUMPDEST PUSH2 0x32C DUP3 DUP9 DUP7 PUSH2 0x37B JUMP JUMPDEST CALLDATALOAD DUP9 MSTORE DUP6 MSTORE TIMESTAMP DUP5 DUP9 KECCAK256 SSTORE PUSH2 0x341 DUP2 DUP8 DUP6 PUSH2 0x37B JUMP JUMPDEST CALLDATALOAD DUP5 MLOAD SWAP1 TIMESTAMP DUP3 MSTORE PUSH32 0x34BEE6156BD6CA32B4AB42C01E0814F83DEE1F05943BACDA3540629EA899189C DUP8 CALLER SWAP4 LOG3 CODESIZE PUSH2 0x31A JUMP JUMPDEST DUP6 DUP1 REVERT JUMPDEST DUP4 DUP1 REVERT JUMPDEST SWAP2 SWAP1 DUP2 LT ISZERO PUSH2 0x38B JUMPI PUSH1 0x5 SHL ADD SWAP1 JUMP JUMPDEST PUSH4 0x4E487B71 PUSH1 0xE0 SHL PUSH1 0x0 MSTORE PUSH1 0x32 PUSH1 0x4 MSTORE PUSH1 0x24 PUSH1 0x0 REVERT JUMPDEST PUSH1 0x0 SLOAD PUSH1 0x1 PUSH1 0x1 PUSH1 0xA0 SHL SUB AND CALLER SUB PUSH2 0x3B5 JUMPI JUMP JUMPDEST PUSH1 0x64 PUSH1 0x40 MLOAD PUSH3 0x461BCD PUSH1 0xE5 SHL DUP2 MSTORE PUSH1 0x20 PUSH1 0x4 DUP3 ADD MSTORE PUSH1 0x20 PUSH1 0x24 DUP3 ADD MSTORE PUSH32 0x4F776E61626C653A2063616C6C6572206973206E6F7420746865206F776E6572 PUSH1 0x44 DUP3 ADD MSTORE REVERT INVALID LOG2 PUSH5 0x6970667358 0x22 SLT KECCAK256 MLOAD 0xFC SHL PUSH2 0x81F5 0xC5 SGT 0xDC 0xEC PUSH22 0xA3A470153991D33776AA2259DE93F026DD7B6DFA064 PUSH20 0x6F6C634300081800330000000000000000000000 "},"methodIdentifiers":{"batchRecordLogHashes(bytes32[])":"6da6bb46","logHashes(bytes32)":"788daa17","owner()":"8da5cb5b","recordLogHash(bytes32)":"9f28d202","renounceOwnership()":"715018a6","transferOwnership(address)":"f2fde38b","verifyLogHash(bytes32)":"e7a72438"}}}}}