{"contracts/WalletOverride.sol":{"WalletOverride":{"abi":[{"inputs":[{"internalType":"address","name":"_landNFTAddress","type":"address"}],"stateMutability":"nonpayable","type":"constructor"},{"anonymous":false,"inputs":[{"indexed":true,"internalType":"address","name":"previousOwner","type":"address"},{"indexed":true,"internalType":"address","name":"newOwner","type":"address"}],"name":"OwnershipTransferred","type":"event"},{"anonymous":false,"inputs":[{"indexed":true,"internalType":"uint256","name":"requestId","type":"uint256"},{"indexed":false,"internalType":"address","name":"oldWallet","type":"address"},{"indexed":false,"internalType":"address","name":"newWallet","type":"address"},{"indexed":false,"internalType":"uint256[]","name":"transferredTokenIds","type":"uint256[]"}],"name":"RecoveryApproved","type":"event"},{"anonymous":false,"inputs":[{"indexed":true,"internalType":"uint256","name":"requestId","type":"uint256"},{"indexed":false,"internalType":"string","name":"reason","type":"string"}],"name":"RecoveryRejected","type":"event"},{"anonymous":false,"inputs":[{"indexed":true,"internalType":"uint256","name":"requestId","type":"uint256"},{"indexed":true,"internalType":"bytes32","name":"citizenIdHash","type":"bytes32"},{"indexed":false,"internalType":"address","name":"oldWallet","type":"address"},{"indexed":false,"internalType":"address","name":"newWallet","type":"address"}],"name":"RecoveryRequested","type":"event"},{"inputs":[{"internalType":"uint256","name":"requestId","type":"uint256"},{"internalType":"uint256[]","name":"tokenIds","type":"uint256[]"}],"name":"approveWalletOverride","outputs":[],"stateMutability":"nonpayable","type":"function"},{"inputs":[{"internalType":"bytes32","name":"","type":"bytes32"}],"name":"citizenWallet","outputs":[{"internalType":"address","name":"","type":"address"}],"stateMutability":"view","type":"function"},{"inputs":[{"internalType":"bytes32","name":"citizenIdHash","type":"bytes32"}],"name":"getWalletByCitizenId","outputs":[{"internalType":"address","name":"","type":"address"}],"stateMutability":"view","type":"function"},{"inputs":[],"name":"landNFTContract","outputs":[{"internalType":"contract LandNFT","name":"","type":"address"}],"stateMutability":"view","type":"function"},{"inputs":[],"name":"owner","outputs":[{"internalType":"address","name":"","type":"address"}],"stateMutability":"view","type":"function"},{"inputs":[{"internalType":"uint256","name":"","type":"uint256"}],"name":"recoveryRequests","outputs":[{"internalType":"uint256","name":"requestId","type":"uint256"},{"internalType":"bytes32","name":"citizenIdHash","type":"bytes32"},{"internalType":"address","name":"oldWallet","type":"address"},{"internalType":"address","name":"newWallet","type":"address"},{"internalType":"enum WalletOverride.RecoveryStatus","name":"status","type":"uint8"},{"internalType":"uint256","name":"createdAt","type":"uint256"},{"internalType":"uint256","name":"resolvedAt","type":"uint256"}],"stateMutability":"view","type":"function"},{"inputs":[{"internalType":"bytes32","name":"citizenIdHash","type":"bytes32"},{"internalType":"address","name":"wallet","type":"address"}],"name":"registerCitizenWallet","outputs":[],"stateMutability":"nonpayable","type":"function"},{"inputs":[{"internalType":"uint256","name":"requestId","type":"uint256"},{"internalType":"string","name":"reason","type":"string"}],"name":"rejectWalletOverride","outputs":[],"stateMutability":"nonpayable","type":"function"},{"inputs":[],"name":"renounceOwnership","outputs":[],"stateMutability":"nonpayable","type":"function"},{"inputs":[],"name":"requestCount","outputs":[{"internalType":"uint256","name":"","type":"uint256"}],"stateMutability":"view","type":"function"},{"inputs":[{"internalType":"bytes32","name":"citizenIdHash","type":"bytes32"},{"internalType":"address","name":"newWallet","type":"address"}],"name":"requestWalletOverride","outputs":[{"internalType":"uint256","name":"","type":"uint256"}],"stateMutability":"nonpayable","type":"function"},{"inputs":[{"internalType":"address","name":"newOwner","type":"address"}],"name":"transferOwnership","outputs":[],"stateMutability":"nonpayable","type":"function"}],"evm":{"bytecode":{"linkReferences":{},"object":"6080346100a757601f610c3e38819003918201601f19168301916001600160401b038311848410176100ac578084926020946040528339810103126100a757516001600160a01b0390818116908190036100a75760005460018060a01b0319903382821617600055604051933391167f8be0079c531659141344cd1fd0a4f28419497f9722a3daafe3b4186f6b6457e0600080a36001541617600155610b7b90816100c38239f35b600080fd5b634e487b7160e01b600052604160045260246000fdfe6080604052600436101561001257600080fd5b60003560e01c80624417c81461094b57806304802c9a146108c85780632b359bc51461089f5780635badbe4c14610881578063715018a614610828578063744696de146105ba5780638da5cb5b14610591578063c597367414610497578063de8ac413146101a3578063e75cb56c1461009f578063f2fde38b146100d85763f34093a61461009f57600080fd5b346100d35760203660031901126100d3576004356000526004602052602060018060a01b0360406000205416604051908152f35b600080fd5b346100d35760203660031901126100d3576004356001600160a01b03818116918290036100d357610107610aed565b811561014f57600054826bffffffffffffffffffffffff60a01b821617600055167f8be0079c531659141344cd1fd0a4f28419497f9722a3daafe3b4186f6b6457e0600080a3005b60405162461bcd60e51b815260206004820152602660248201527f4f776e61626c653a206e6577206f776e657220697320746865207a65726f206160448201526564647265737360d01b6064820152608490fd5b346100d35760403660031901126100d35767ffffffffffffffff602435116100d3573660236024350112156100d35767ffffffffffffffff60243560040135116100d35736602480356004013560051b81350101116100d357610204610aed565b6004356000526003602052604060002061022081541515610a63565b600381015460ff8160a01c1660038110156104815761023f9015610aa8565b60ff60a01b198116600160a01b1760038301554260058301556001820154600090815260046020526040812080546001600160a01b0319166001600160a01b03909316929092179091555b60243560040135811061032d57506002810154600390910154604080516001600160a01b0393841681529290911660208301526060908201819052602435600401359082018190526001600160fb1b03106100d3576024356004013560051b602480350160808301377feeddc0a974937b8384907b125065534d7b8bbc8465beb6cb4d7736cbe769d8fb600435916080816024356004013560051b8101030190a2005b60018060a01b0360015416906040516331a9108f60e11b815260248260051b81350101356004820152602081602481865afa90811561041d57600091610429575b5060028401546001600160a01b0390811691168114610393575b50600191500161028a565b60038401546001600160a01b0316833b156100d3576064600092836040519687948593631b4e583d60e31b85526004850152602484015260248760051b813501013560448401525af1801561041d576103ed575b81610388565b67ffffffffffffffff8211610407576001916040526103e7565b634e487b7160e01b600052604160045260246000fd5b6040513d6000823e3d90fd5b905060203d60201161047a575b601f8101601f1916820167ffffffffffffffff811183821017610407576020918391604052810103126100d357516001600160a01b03811681036100d3578461036e565b503d610436565b634e487b7160e01b600052602160045260246000fd5b346100d35760403660031901126100d35760043560243567ffffffffffffffff8082116100d357366023830112156100d35781600401359081116100d35736602482840101116100d3576104e9610aed565b826000526003602052604060002061050381541515610a63565b600381019283549260ff8460a01c16926003841015610481577ff275e073ed2854ef6b9c54611440cd420de0cf58a9629f3e7d4ae791c8c3de699560249561054d60409615610aa8565b60ff60a01b1916600160a11b1790554260059190910155825160208082528101829052938492829101838501376000828201840152601f01601f19168101030190a2005b346100d35760003660031901126100d3576000546040516001600160a01b039091168152602090f35b346100d35760403660031901126100d3576004356105d6610a4d565b6105de610aed565b816000526020916004835260018060a01b039182604060002054169081156107d55783169283156107905781841461073c5760025460001981146107265760010193846002556040519260e0840184811067ffffffffffffffff82111761040757604052858452868401918583526040850194828652606081019582875260808201956000875260a083019142835260c0840196600088528b60005260038d5260406000209451855551600185015581600285019151166bffffffffffffffffffffffff60a01b825416179055600383019751169487549651916003831015610481578a987f3df36af048cf28b5ebf59a66fbd041235a7237a8c2153ba91bf69bb6f20e1f049860409860059560ff60a01b9060a01b16916affffffffffffffffffffff60a81b161717905551600484015551910155825191825287820152a3604051908152f35b634e487b7160e01b600052601160045260246000fd5b60405162461bcd60e51b815260048101869052602660248201527f4e65772077616c6c6574206d757374206469666665722066726f6d206f6c64206044820152651dd85b1b195d60d21b6064820152608490fd5b60405162461bcd60e51b815260048101869052601a60248201527f496e76616c6964206e65772077616c6c657420616464726573730000000000006044820152606490fd5b60405162461bcd60e51b815260048101869052602560248201527f4e6f2077616c6c6574207265676973746572656420666f7220746869732063696044820152643a34bd32b760d91b6064820152608490fd5b346100d35760003660031901126100d357610841610aed565b600080546001600160a01b0319811682556001600160a01b03167f8be0079c531659141344cd1fd0a4f28419497f9722a3daafe3b4186f6b6457e08280a3005b346100d35760003660031901126100d3576020600254604051908152f35b346100d35760003660031901126100d3576001546040516001600160a01b039091168152602090f35b346100d35760203660031901126100d357600435600052600360205260406000208054600182015460018060a01b03928360028201541693600382015460ff8160a01c169560056004850154940154946040519687526020870152604086015216606084015260038410156104815760e093608084015260a083015260c0820152f35b346100d35760403660031901126100d357600435610967610a4d565b61096f610aed565b6000828152600460205260409020546001600160a01b03919082166109f557169081156109b757600090815260046020526040902080546001600160a01b0319169091179055005b60405162461bcd60e51b8152602060048201526016602482015275496e76616c69642077616c6c6574206164647265737360501b6044820152606490fd5b60405162461bcd60e51b815260206004820152602a60248201527f57616c6c657420616c7265616479207265676973746572656420666f7220746860448201526934b99031b4ba34bd32b760b11b6064820152608490fd5b602435906001600160a01b03821682036100d357565b15610a6a57565b60405162461bcd60e51b815260206004820152601660248201527514995c5d595cdd08191bd95cc81b9bdd08195e1a5cdd60521b6044820152606490fd5b15610aaf57565b60405162461bcd60e51b815260206004820152601660248201527552657175657374206973206e6f742070656e64696e6760501b6044820152606490fd5b6000546001600160a01b03163303610b0157565b606460405162461bcd60e51b815260206004820152602060248201527f4f776e61626c653a2063616c6c6572206973206e6f7420746865206f776e65726044820152fdfea2646970667358221220d3a5de1965425430a97cda0007880f6681a75698b2bba571cd7003fef3faefcb64736f6c63430008180033","opcodes":"PUSH1 0x80 CALLVALUE PUSH2 0xA7 JUMPI PUSH1 0x1F PUSH2 0xC3E CODESIZE DUP2 SWAP1 SUB SWAP2 DUP3 ADD PUSH1 0x1F NOT AND DUP4 ADD SWAP2 PUSH1 0x1 PUSH1 0x1 PUSH1 0x40 SHL SUB DUP4 GT DUP5 DUP5 LT OR PUSH2 0xAC JUMPI DUP1 DUP5 SWAP3 PUSH1 0x20 SWAP5 PUSH1 0x40 MSTORE DUP4 CODECOPY DUP2 ADD SUB SLT PUSH2 0xA7 JUMPI MLOAD PUSH1 0x1 PUSH1 0x1 PUSH1 0xA0 SHL SUB SWAP1 DUP2 DUP2 AND SWAP1 DUP2 SWAP1 SUB PUSH2 0xA7 JUMPI PUSH1 0x0 SLOAD PUSH1 0x1 DUP1 PUSH1 0xA0 SHL SUB NOT SWAP1 CALLER DUP3 DUP3 AND OR PUSH1 0x0 SSTORE PUSH1 0x40 MLOAD SWAP4 CALLER SWAP2 AND PUSH32 0x8BE0079C531659141344CD1FD0A4F28419497F9722A3DAAFE3B4186F6B6457E0 PUSH1 0x0 DUP1 LOG3 PUSH1 0x1 SLOAD AND OR PUSH1 0x1 SSTORE PUSH2 0xB7B SWAP1 DUP2 PUSH2 0xC3 DUP3 CODECOPY RETURN JUMPDEST PUSH1 0x0 DUP1 REVERT JUMPDEST PUSH4 0x4E487B71 PUSH1 0xE0 SHL PUSH1 0x0 MSTORE PUSH1 0x41 PUSH1 0x4 MSTORE PUSH1 0x24 PUSH1 0x0 REVERT INVALID PUSH1 0x80 PUSH1 0x40 MSTORE PUSH1 0x4 CALLDATASIZE LT ISZERO PUSH2 0x12 JUMPI PUSH1 0x0 DUP1 REVERT JUMPDEST PUSH1 0x0 CALLDATALOAD PUSH1 0xE0 SHR DUP1 PUSH3 0x4417C8 EQ PUSH2 0x94B JUMPI DUP1 PUSH4 0x4802C9A EQ PUSH2 0x8C8 JUMPI DUP1 PUSH4 0x2B359BC5 EQ PUSH2 0x89F JUMPI DUP1 PUSH4 0x5BADBE4C EQ PUSH2 0x881 JUMPI DUP1 PUSH4 0x715018A6 EQ PUSH2 0x828 JUMPI DUP1 PUSH4 0x744696DE EQ PUSH2 0x5BA JUMPI DUP1 PUSH4 0x8DA5CB5B EQ PUSH2 0x591 JUMPI DUP1 PUSH4 0xC5973674 EQ PUSH2 0x497 JUMPI DUP1 PUSH4 0xDE8AC413 EQ PUSH2 0x1A3 JUMPI DUP1 PUSH4 0xE75CB56C EQ PUSH2 0x9F JUMPI DUP1 PUSH4 0xF2FDE38B EQ PUSH2 0xD8 JUMPI PUSH4 0xF34093A6 EQ PUSH2 0x9F JUMPI PUSH1 0x0 DUP1 REVERT JUMPDEST CALLVALUE PUSH2 0xD3 JUMPI PUSH1 0x20 CALLDATASIZE PUSH1 0x3 NOT ADD SLT PUSH2 0xD3 JUMPI PUSH1 0x4 CALLDATALOAD PUSH1 0x0 MSTORE PUSH1 0x4 PUSH1 0x20 MSTORE PUSH1 0x20 PUSH1 0x1 DUP1 PUSH1 0xA0 SHL SUB PUSH1 0x40 PUSH1 0x0 KECCAK256 SLOAD AND PUSH1 0x40 MLOAD SWAP1 DUP2 MSTORE RETURN JUMPDEST PUSH1 0x0 DUP1 REVERT JUMPDEST CALLVALUE PUSH2 0xD3 JUMPI PUSH1 0x20 CALLDATASIZE PUSH1 0x3 NOT ADD SLT PUSH2 0xD3 JUMPI PUSH1 0x4 CALLDATALOAD PUSH1 0x1 PUSH1 0x1 PUSH1 0xA0 SHL SUB DUP2 DUP2 AND SWAP2 DUP3 SWAP1 SUB PUSH2 0xD3 JUMPI PUSH2 0x107 PUSH2 0xAED JUMP JUMPDEST DUP2 ISZERO PUSH2 0x14F JUMPI PUSH1 0x0 SLOAD DUP3 PUSH12 0xFFFFFFFFFFFFFFFFFFFFFFFF PUSH1 0xA0 SHL DUP3 AND OR PUSH1 0x0 SSTORE AND PUSH32 0x8BE0079C531659141344CD1FD0A4F28419497F9722A3DAAFE3B4186F6B6457E0 PUSH1 0x0 DUP1 LOG3 STOP JUMPDEST PUSH1 0x40 MLOAD PUSH3 0x461BCD PUSH1 0xE5 SHL DUP2 MSTORE PUSH1 0x20 PUSH1 0x4 DUP3 ADD MSTORE PUSH1 0x26 PUSH1 0x24 DUP3 ADD MSTORE PUSH32 0x4F776E61626C653A206E6577206F776E657220697320746865207A65726F2061 PUSH1 0x44 DUP3 ADD MSTORE PUSH6 0x646472657373 PUSH1 0xD0 SHL PUSH1 0x64 DUP3 ADD MSTORE PUSH1 0x84 SWAP1 REVERT JUMPDEST CALLVALUE PUSH2 0xD3 JUMPI PUSH1 0x40 CALLDATASIZE PUSH1 0x3 NOT ADD SLT PUSH2 0xD3 JUMPI PUSH8 0xFFFFFFFFFFFFFFFF PUSH1 0x24 CALLDATALOAD GT PUSH2 0xD3 JUMPI CALLDATASIZE PUSH1 0x23 PUSH1 0x24 CALLDATALOAD ADD SLT ISZERO PUSH2 0xD3 JUMPI PUSH8 0xFFFFFFFFFFFFFFFF PUSH1 0x24 CALLDATALOAD PUSH1 0x4 ADD CALLDATALOAD GT PUSH2 0xD3 JUMPI CALLDATASIZE PUSH1 0x24 DUP1 CALLDATALOAD PUSH1 0x4 ADD CALLDATALOAD PUSH1 0x5 SHL DUP2 CALLDATALOAD ADD ADD GT PUSH2 0xD3 JUMPI PUSH2 0x204 PUSH2 0xAED JUMP JUMPDEST PUSH1 0x4 CALLDATALOAD PUSH1 0x0 MSTORE PUSH1 0x3 PUSH1 0x20 MSTORE PUSH1 0x40 PUSH1 0x0 KECCAK256 PUSH2 0x220 DUP2 SLOAD ISZERO ISZERO PUSH2 0xA63 JUMP JUMPDEST PUSH1 0x3 DUP2 ADD SLOAD PUSH1 0xFF DUP2 PUSH1 0xA0 SHR AND PUSH1 0x3 DUP2 LT ISZERO PUSH2 0x481 JUMPI PUSH2 0x23F SWAP1 ISZERO PUSH2 0xAA8 JUMP JUMPDEST PUSH1 0xFF PUSH1 0xA0 SHL NOT DUP2 AND PUSH1 0x1 PUSH1 0xA0 SHL OR PUSH1 0x3 DUP4 ADD SSTORE TIMESTAMP PUSH1 0x5 DUP4 ADD SSTORE PUSH1 0x1 DUP3 ADD SLOAD PUSH1 0x0 SWAP1 DUP2 MSTORE PUSH1 0x4 PUSH1 0x20 MSTORE PUSH1 0x40 DUP2 KECCAK256 DUP1 SLOAD PUSH1 0x1 PUSH1 0x1 PUSH1 0xA0 SHL SUB NOT AND PUSH1 0x1 PUSH1 0x1 PUSH1 0xA0 SHL SUB SWAP1 SWAP4 AND SWAP3 SWAP1 SWAP3 OR SWAP1 SWAP2 SSTORE JUMPDEST PUSH1 0x24 CALLDATALOAD PUSH1 0x4 ADD CALLDATALOAD DUP2 LT PUSH2 0x32D JUMPI POP PUSH1 0x2 DUP2 ADD SLOAD PUSH1 0x3 SWAP1 SWAP2 ADD SLOAD PUSH1 0x40 DUP1 MLOAD PUSH1 0x1 PUSH1 0x1 PUSH1 0xA0 SHL SUB SWAP4 DUP5 AND DUP2 MSTORE SWAP3 SWAP1 SWAP2 AND PUSH1 0x20 DUP4 ADD MSTORE PUSH1 0x60 SWAP1 DUP3 ADD DUP2 SWAP1 MSTORE PUSH1 0x24 CALLDATALOAD PUSH1 0x4 ADD CALLDATALOAD SWAP1 DUP3 ADD DUP2 SWAP1 MSTORE PUSH1 0x1 PUSH1 0x1 PUSH1 0xFB SHL SUB LT PUSH2 0xD3 JUMPI PUSH1 0x24 CALLDATALOAD PUSH1 0x4 ADD CALLDATALOAD PUSH1 0x5 SHL PUSH1 0x24 DUP1 CALLDATALOAD ADD PUSH1 0x80 DUP4 ADD CALLDATACOPY PUSH32 0xEEDDC0A974937B8384907B125065534D7B8BBC8465BEB6CB4D7736CBE769D8FB PUSH1 0x4 CALLDATALOAD SWAP2 PUSH1 0x80 DUP2 PUSH1 0x24 CALLDATALOAD PUSH1 0x4 ADD CALLDATALOAD PUSH1 0x5 SHL DUP2 ADD SUB ADD SWAP1 LOG2 STOP JUMPDEST PUSH1 0x1 DUP1 PUSH1 0xA0 SHL SUB PUSH1 0x1 SLOAD AND SWAP1 PUSH1 0x40 MLOAD PUSH4 0x31A9108F PUSH1 0xE1 SHL DUP2 MSTORE PUSH1 0x24 DUP3 PUSH1 0x5 SHL DUP2 CALLDATALOAD ADD ADD CALLDATALOAD PUSH1 0x4 DUP3 ADD MSTORE PUSH1 0x20 DUP2 PUSH1 0x24 DUP2 DUP7 GAS STATICCALL SWAP1 DUP2 ISZERO PUSH2 0x41D JUMPI PUSH1 0x0 SWAP2 PUSH2 0x429 JUMPI JUMPDEST POP PUSH1 0x2 DUP5 ADD SLOAD PUSH1 0x1 PUSH1 0x1 PUSH1 0xA0 SHL SUB SWAP1 DUP2 AND SWAP2 AND DUP2 EQ PUSH2 0x393 JUMPI JUMPDEST POP PUSH1 0x1 SWAP2 POP ADD PUSH2 0x28A JUMP JUMPDEST PUSH1 0x3 DUP5 ADD SLOAD PUSH1 0x1 PUSH1 0x1 PUSH1 0xA0 SHL SUB AND DUP4 EXTCODESIZE ISZERO PUSH2 0xD3 JUMPI PUSH1 0x64 PUSH1 0x0 SWAP3 DUP4 PUSH1 0x40 MLOAD SWAP7 DUP8 SWAP5 DUP6 SWAP4 PUSH4 0x1B4E583D PUSH1 0xE3 SHL DUP6 MSTORE PUSH1 0x4 DUP6 ADD MSTORE PUSH1 0x24 DUP5 ADD MSTORE PUSH1 0x24 DUP8 PUSH1 0x5 SHL DUP2 CALLDATALOAD ADD ADD CALLDATALOAD PUSH1 0x44 DUP5 ADD MSTORE GAS CALL DUP1 ISZERO PUSH2 0x41D JUMPI PUSH2 0x3ED JUMPI JUMPDEST DUP2 PUSH2 0x388 JUMP JUMPDEST PUSH8 0xFFFFFFFFFFFFFFFF DUP3 GT PUSH2 0x407 JUMPI PUSH1 0x1 SWAP2 PUSH1 0x40 MSTORE PUSH2 0x3E7 JUMP JUMPDEST PUSH4 0x4E487B71 PUSH1 0xE0 SHL PUSH1 0x0 MSTORE PUSH1 0x41 PUSH1 0x4 MSTORE PUSH1 0x24 PUSH1 0x0 REVERT JUMPDEST PUSH1 0x40 MLOAD RETURNDATASIZE PUSH1 0x0 DUP3 RETURNDATACOPY RETURNDATASIZE SWAP1 REVERT JUMPDEST SWAP1 POP PUSH1 0x20 RETURNDATASIZE PUSH1 0x20 GT PUSH2 0x47A JUMPI JUMPDEST PUSH1 0x1F DUP2 ADD PUSH1 0x1F NOT AND DUP3 ADD PUSH8 0xFFFFFFFFFFFFFFFF DUP2 GT DUP4 DUP3 LT OR PUSH2 0x407 JUMPI PUSH1 0x20 SWAP2 DUP4 SWAP2 PUSH1 0x40 MSTORE DUP2 ADD SUB SLT PUSH2 0xD3 JUMPI MLOAD PUSH1 0x1 PUSH1 0x1 PUSH1 0xA0 SHL SUB DUP2 AND DUP2 SUB PUSH2 0xD3 JUMPI DUP5 PUSH2 0x36E JUMP JUMPDEST POP RETURNDATASIZE PUSH2 0x436 JUMP JUMPDEST PUSH4 0x4E487B71 PUSH1 0xE0 SHL PUSH1 0x0 MSTORE PUSH1 0x21 PUSH1 0x4 MSTORE PUSH1 0x24 PUSH1 0x0 REVERT JUMPDEST CALLVALUE PUSH2 0xD3 JUMPI PUSH1 0x40 CALLDATASIZE PUSH1 0x3 NOT ADD SLT PUSH2 0xD3 JUMPI PUSH1 0x4 CALLDATALOAD PUSH1 0x24 CALLDATALOAD PUSH8 0xFFFFFFFFFFFFFFFF DUP1 DUP3 GT PUSH2 0xD3 JUMPI CALLDATASIZE PUSH1 0x23 DUP4 ADD SLT ISZERO PUSH2 0xD3 JUMPI DUP2 PUSH1 0x4 ADD CALLDATALOAD SWAP1 DUP2 GT PUSH2 0xD3 JUMPI CALLDATASIZE PUSH1 0x24 DUP3 DUP5 ADD ADD GT PUSH2 0xD3 JUMPI PUSH2 0x4E9 PUSH2 0xAED JUMP JUMPDEST DUP3 PUSH1 0x0 MSTORE PUSH1 0x3 PUSH1 0x20 MSTORE PUSH1 0x40 PUSH1 0x0 KECCAK256 PUSH2 0x503 DUP2 SLOAD ISZERO ISZERO PUSH2 0xA63 JUMP JUMPDEST PUSH1 0x3 DUP2 ADD SWAP3 DUP4 SLOAD SWAP3 PUSH1 0xFF DUP5 PUSH1 0xA0 SHR AND SWAP3 PUSH1 0x3 DUP5 LT ISZERO PUSH2 0x481 JUMPI PUSH32 0xF275E073ED2854EF6B9C54611440CD420DE0CF58A9629F3E7D4AE791C8C3DE69 SWAP6 PUSH1 0x24 SWAP6 PUSH2 0x54D PUSH1 0x40 SWAP7 ISZERO PUSH2 0xAA8 JUMP JUMPDEST PUSH1 0xFF PUSH1 0xA0 SHL NOT AND PUSH1 0x1 PUSH1 0xA1 SHL OR SWAP1 SSTORE TIMESTAMP PUSH1 0x5 SWAP2 SWAP1 SWAP2 ADD SSTORE DUP3 MLOAD PUSH1 0x20 DUP1 DUP3 MSTORE DUP2 ADD DUP3 SWAP1 MSTORE SWAP4 DUP5 SWAP3 DUP3 SWAP2 ADD DUP4 DUP6 ADD CALLDATACOPY PUSH1 0x0 DUP3 DUP3 ADD DUP5 ADD MSTORE PUSH1 0x1F ADD PUSH1 0x1F NOT AND DUP2 ADD SUB ADD SWAP1 LOG2 STOP JUMPDEST CALLVALUE PUSH2 0xD3 JUMPI PUSH1 0x0 CALLDATASIZE PUSH1 0x3 NOT ADD SLT PUSH2 0xD3 JUMPI PUSH1 0x0 SLOAD PUSH1 0x40 MLOAD PUSH1 0x1 PUSH1 0x1 PUSH1 0xA0 SHL SUB SWAP1 SWAP2 AND DUP2 MSTORE PUSH1 0x20 SWAP1 RETURN JUMPDEST CALLVALUE PUSH2 0xD3 JUMPI PUSH1 0x40 CALLDATASIZE PUSH1 0x3 NOT ADD SLT PUSH2 0xD3 JUMPI PUSH1 0x4 CALLDATALOAD PUSH2 0x5D6 PUSH2 0xA4D JUMP JUMPDEST PUSH2 0x5DE PUSH2 0xAED JUMP JUMPDEST DUP2 PUSH1 0x0 MSTORE PUSH1 0x20 SWAP2 PUSH1 0x4 DUP4 MSTORE PUSH1 0x1 DUP1 PUSH1 0xA0 SHL SUB SWAP2 DUP3 PUSH1 0x40 PUSH1 0x0 KECCAK256 SLOAD AND SWAP1 DUP2 ISZERO PUSH2 0x7D5 JUMPI DUP4 AND SWAP3 DUP4 ISZERO PUSH2 0x790 JUMPI DUP2 DUP5 EQ PUSH2 0x73C JUMPI PUSH1 0x2 SLOAD PUSH1 0x0 NOT DUP2 EQ PUSH2 0x726 JUMPI PUSH1 0x1 ADD SWAP4 DUP5 PUSH1 0x2 SSTORE PUSH1 0x40 MLOAD SWAP3 PUSH1 0xE0 DUP5 ADD DUP5 DUP2 LT PUSH8 0xFFFFFFFFFFFFFFFF DUP3 GT OR PUSH2 0x407 JUMPI PUSH1 0x40 MSTORE DUP6 DUP5 MSTORE DUP7 DUP5 ADD SWAP2 DUP6 DUP4 MSTORE PUSH1 0x40 DUP6 ADD SWAP5 DUP3 DUP7 MSTORE PUSH1 0x60 DUP2 ADD SWAP6 DUP3 DUP8 MSTORE PUSH1 0x80 DUP3 ADD SWAP6 PUSH1 0x0 DUP8 MSTORE PUSH1 0xA0 DUP4 ADD SWAP2 TIMESTAMP DUP4 MSTORE PUSH1 0xC0 DUP5 ADD SWAP7 PUSH1 0x0 DUP9 MSTORE DUP12 PUSH1 0x0 MSTORE PUSH1 0x3 DUP14 MSTORE PUSH1 0x40 PUSH1 0x0 KECCAK256 SWAP5 MLOAD DUP6 SSTORE MLOAD PUSH1 0x1 DUP6 ADD SSTORE DUP2 PUSH1 0x2 DUP6 ADD SWAP2 MLOAD AND PUSH12 0xFFFFFFFFFFFFFFFFFFFFFFFF PUSH1 0xA0 SHL DUP3 SLOAD AND OR SWAP1 SSTORE PUSH1 0x3 DUP4 ADD SWAP8 MLOAD AND SWAP5 DUP8 SLOAD SWAP7 MLOAD SWAP2 PUSH1 0x3 DUP4 LT ISZERO PUSH2 0x481 JUMPI DUP11 SWAP9 PUSH32 0x3DF36AF048CF28B5EBF59A66FBD041235A7237A8C2153BA91BF69BB6F20E1F04 SWAP9 PUSH1 0x40 SWAP9 PUSH1 0x5 SWAP6 PUSH1 0xFF PUSH1 0xA0 SHL SWAP1 PUSH1 0xA0 SHL AND SWAP2 PUSH11 0xFFFFFFFFFFFFFFFFFFFFFF PUSH1 0xA8 SHL AND OR OR SWAP1 SSTORE MLOAD PUSH1 0x4 DUP5 ADD SSTORE MLOAD SWAP2 ADD SSTORE DUP3 MLOAD SWAP2 DUP3 MSTORE DUP8 DUP3 ADD MSTORE LOG3 PUSH1 0x40 MLOAD SWAP1 DUP2 MSTORE RETURN JUMPDEST PUSH4 0x4E487B71 PUSH1 0xE0 SHL PUSH1 0x0 MSTORE PUSH1 0x11 PUSH1 0x4 MSTORE PUSH1 0x24 PUSH1 0x0 REVERT JUMPDEST PUSH1 0x40 MLOAD PUSH3 0x461BCD PUSH1 0xE5 SHL DUP2 MSTORE PUSH1 0x4 DUP2 ADD DUP7 SWAP1 MSTORE PUSH1 0x26 PUSH1 0x24 DUP3 ADD MSTORE PUSH32 0x4E65772077616C6C6574206D757374206469666665722066726F6D206F6C6420 PUSH1 0x44 DUP3 ADD MSTORE PUSH6 0x1DD85B1B195D PUSH1 0xD2 SHL PUSH1 0x64 DUP3 ADD MSTORE PUSH1 0x84 SWAP1 REVERT JUMPDEST PUSH1 0x40 MLOAD PUSH3 0x461BCD PUSH1 0xE5 SHL DUP2 MSTORE PUSH1 0x4 DUP2 ADD DUP7 SWAP1 MSTORE PUSH1 0x1A PUSH1 0x24 DUP3 ADD MSTORE PUSH32 0x496E76616C6964206E65772077616C6C65742061646472657373000000000000 PUSH1 0x44 DUP3 ADD MSTORE PUSH1 0x64 SWAP1 REVERT JUMPDEST PUSH1 0x40 MLOAD PUSH3 0x461BCD PUSH1 0xE5 SHL DUP2 MSTORE PUSH1 0x4 DUP2 ADD DUP7 SWAP1 MSTORE PUSH1 0x25 PUSH1 0x24 DUP3 ADD MSTORE PUSH32 0x4E6F2077616C6C6574207265676973746572656420666F722074686973206369 PUSH1 0x44 DUP3 ADD MSTORE PUSH5 0x3A34BD32B7 PUSH1 0xD9 SHL PUSH1 0x64 DUP3 ADD MSTORE PUSH1 0x84 SWAP1 REVERT JUMPDEST CALLVALUE PUSH2 0xD3 JUMPI PUSH1 0x0 CALLDATASIZE PUSH1 0x3 NOT ADD SLT PUSH2 0xD3 JUMPI PUSH2 0x841 PUSH2 0xAED JUMP JUMPDEST PUSH1 0x0 DUP1 SLOAD PUSH1 0x1 PUSH1 0x1 PUSH1 0xA0 SHL SUB NOT DUP2 AND DUP3 SSTORE PUSH1 0x1 PUSH1 0x1 PUSH1 0xA0 SHL SUB AND PUSH32 0x8BE0079C531659141344CD1FD0A4F28419497F9722A3DAAFE3B4186F6B6457E0 DUP3 DUP1 LOG3 STOP JUMPDEST CALLVALUE PUSH2 0xD3 JUMPI PUSH1 0x0 CALLDATASIZE PUSH1 0x3 NOT ADD SLT PUSH2 0xD3 JUMPI PUSH1 0x20 PUSH1 0x2 SLOAD PUSH1 0x40 MLOAD SWAP1 DUP2 MSTORE RETURN JUMPDEST CALLVALUE PUSH2 0xD3 JUMPI PUSH1 0x0 CALLDATASIZE PUSH1 0x3 NOT ADD SLT PUSH2 0xD3 JUMPI PUSH1 0x1 SLOAD PUSH1 0x40 MLOAD PUSH1 0x1 PUSH1 0x1 PUSH1 0xA0 SHL SUB SWAP1 SWAP2 AND DUP2 MSTORE PUSH1 0x20 SWAP1 RETURN JUMPDEST CALLVALUE PUSH2 0xD3 JUMPI PUSH1 0x20 CALLDATASIZE PUSH1 0x3 NOT ADD SLT PUSH2 0xD3 JUMPI PUSH1 0x4 CALLDATALOAD PUSH1 0x0 MSTORE PUSH1 0x3 PUSH1 0x20 MSTORE PUSH1 0x40 PUSH1 0x0 KECCAK256 DUP1 SLOAD PUSH1 0x1 DUP3 ADD SLOAD PUSH1 0x1 DUP1 PUSH1 0xA0 SHL SUB SWAP3 DUP4 PUSH1 0x2 DUP3 ADD SLOAD AND SWAP4 PUSH1 0x3 DUP3 ADD SLOAD PUSH1 0xFF DUP2 PUSH1 0xA0 SHR AND SWAP6 PUSH1 0x5 PUSH1 0x4 DUP6 ADD SLOAD SWAP5 ADD SLOAD SWAP5 PUSH1 0x40 MLOAD SWAP7 DUP8 MSTORE PUSH1 0x20 DUP8 ADD MSTORE PUSH1 0x40 DUP7 ADD MSTORE AND PUSH1 0x60 DUP5 ADD MSTORE PUSH1 0x3 DUP5 LT ISZERO PUSH2 0x481 JUMPI PUSH1 0xE0 SWAP4 PUSH1 0x80 DUP5 ADD MSTORE PUSH1 0xA0 DUP4 ADD MSTORE PUSH1 0xC0 DUP3 ADD MSTORE RETURN JUMPDEST CALLVALUE PUSH2 0xD3 JUMPI PUSH1 0x40 CALLDATASIZE PUSH1 0x3 NOT ADD SLT PUSH2 0xD3 JUMPI PUSH1 0x4 CALLDATALOAD PUSH2 0x967 PUSH2 0xA4D JUMP JUMPDEST PUSH2 0x96F PUSH2 0xAED JUMP JUMPDEST PUSH1 0x0 DUP3 DUP2 MSTORE PUSH1 0x4 PUSH1 0x20 MSTORE PUSH1 0x40 SWAP1 KECCAK256 SLOAD PUSH1 0x1 PUSH1 0x1 PUSH1 0xA0 SHL SUB SWAP2 SWAP1 DUP3 AND PUSH2 0x9F5 JUMPI AND SWAP1 DUP2 ISZERO PUSH2 0x9B7 JUMPI PUSH1 0x0 SWAP1 DUP2 MSTORE PUSH1 0x4 PUSH1 0x20 MSTORE PUSH1 0x40 SWAP1 KECCAK256 DUP1 SLOAD PUSH1 0x1 PUSH1 0x1 PUSH1 0xA0 SHL SUB NOT AND SWAP1 SWAP2 OR SWAP1 SSTORE STOP JUMPDEST PUSH1 0x40 MLOAD PUSH3 0x461BCD PUSH1 0xE5 SHL DUP2 MSTORE PUSH1 0x20 PUSH1 0x4 DUP3 ADD MSTORE PUSH1 0x16 PUSH1 0x24 DUP3 ADD MSTORE PUSH22 0x496E76616C69642077616C6C65742061646472657373 PUSH1 0x50 SHL PUSH1 0x44 DUP3 ADD MSTORE PUSH1 0x64 SWAP1 REVERT JUMPDEST PUSH1 0x40 MLOAD PUSH3 0x461BCD PUSH1 0xE5 SHL DUP2 MSTORE PUSH1 0x20 PUSH1 0x4 DUP3 ADD MSTORE PUSH1 0x2A PUSH1 0x24 DUP3 ADD MSTORE PUSH32 0x57616C6C657420616C7265616479207265676973746572656420666F72207468 PUSH1 0x44 DUP3 ADD MSTORE PUSH10 0x34B99031B4BA34BD32B7 PUSH1 0xB1 SHL PUSH1 0x64 DUP3 ADD MSTORE PUSH1 0x84 SWAP1 REVERT JUMPDEST PUSH1 0x24 CALLDATALOAD SWAP1 PUSH1 0x1 PUSH1 0x1 PUSH1 0xA0 SHL SUB DUP3 AND DUP3 SUB PUSH2 0xD3 JUMPI JUMP JUMPDEST ISZERO PUSH2 0xA6A JUMPI JUMP JUMPDEST PUSH1 0x40 MLOAD PUSH3 0x461BCD PUSH1 0xE5 SHL DUP2 MSTORE PUSH1 0x20 PUSH1 0x4 DUP3 ADD MSTORE PUSH1 0x16 PUSH1 0x24 DUP3 ADD MSTORE PUSH22 0x14995C5D595CDD08191BD95CC81B9BDD08195E1A5CDD PUSH1 0x52 SHL PUSH1 0x44 DUP3 ADD MSTORE PUSH1 0x64 SWAP1 REVERT JUMPDEST ISZERO PUSH2 0xAAF JUMPI JUMP JUMPDEST PUSH1 0x40 MLOAD PUSH3 0x461BCD PUSH1 0xE5 SHL DUP2 MSTORE PUSH1 0x20 PUSH1 0x4 DUP3 ADD MSTORE PUSH1 0x16 PUSH1 0x24 DUP3 ADD MSTORE PUSH22 0x52657175657374206973206E6F742070656E64696E67 PUSH1 0x50 SHL PUSH1 0x44 DUP3 ADD MSTORE PUSH1 0x64 SWAP1 REVERT JUMPDEST PUSH1 0x0 SLOAD PUSH1 0x1 PUSH1 0x1 PUSH1 0xA0 SHL SUB AND CALLER SUB PUSH2 0xB01 JUMPI JUMP JUMPDEST PUSH1 0x64 PUSH1 0x40 MLOAD PUSH3 0x461BCD PUSH1 0xE5 SHL DUP2 MSTORE PUSH1 0x20 PUSH1 0x4 DUP3 ADD MSTORE PUSH1 0x20 PUSH1 0x24 DUP3 ADD MSTORE PUSH32 0x4F776E61626C653A2063616C6C6572206973206E6F7420746865206F776E6572 PUSH1 0x44 DUP3 ADD MSTORE REVERT INVALID LOG2 PUSH5 0x6970667358 0x22 SLT KECCAK256 0xD3 0xA5 0xDE NOT PUSH6 0x425430A97CDA STOP SMOD DUP9 0xF PUSH7 0x81A75698B2BBA5 PUSH18 0xCD7003FEF3FAEFCB64736F6C634300081800 CALLER "},"methodIdentifiers":{"approveWalletOverride(uint256,uint256[])":"de8ac413","citizenWallet(bytes32)":"e75cb56c","getWalletByCitizenId(bytes32)":"f34093a6","landNFTContract()":"2b359bc5","owner()":"8da5cb5b","recoveryRequests(uint256)":"04802c9a","registerCitizenWallet(bytes32,address)":"004417c8","rejectWalletOverride(uint256,string)":"c5973674","renounceOwnership()":"715018a6","requestCount()":"5badbe4c","requestWalletOverride(bytes32,address)":"744696de","transferOwnership(address)":"f2fde38b"}}}}}