{"contracts/LandNFT.sol":{"LandNFT":{"abi":[{"inputs":[],"stateMutability":"nonpayable","type":"constructor"},{"anonymous":false,"inputs":[{"indexed":true,"internalType":"address","name":"owner","type":"address"},{"indexed":true,"internalType":"address","name":"approved","type":"address"},{"indexed":true,"internalType":"uint256","name":"tokenId","type":"uint256"}],"name":"Approval","type":"event"},{"anonymous":false,"inputs":[{"indexed":true,"internalType":"address","name":"owner","type":"address"},{"indexed":true,"internalType":"address","name":"operator","type":"address"},{"indexed":false,"internalType":"bool","name":"approved","type":"bool"}],"name":"ApprovalForAll","type":"event"},{"anonymous":false,"inputs":[{"indexed":false,"internalType":"uint256","name":"_fromTokenId","type":"uint256"},{"indexed":false,"internalType":"uint256","name":"_toTokenId","type":"uint256"}],"name":"BatchMetadataUpdate","type":"event"},{"anonymous":false,"inputs":[{"indexed":true,"internalType":"uint256","name":"tokenId","type":"uint256"},{"indexed":true,"internalType":"address","name":"to","type":"address"},{"indexed":false,"internalType":"string","name":"tokenURI","type":"string"}],"name":"LandNFTMinted","type":"event"},{"anonymous":false,"inputs":[{"indexed":false,"internalType":"uint256","name":"_tokenId","type":"uint256"}],"name":"MetadataUpdate","type":"event"},{"anonymous":false,"inputs":[{"indexed":true,"internalType":"address","name":"previousOwner","type":"address"},{"indexed":true,"internalType":"address","name":"newOwner","type":"address"}],"name":"OwnershipTransferred","type":"event"},{"anonymous":false,"inputs":[{"indexed":false,"internalType":"address","name":"account","type":"address"}],"name":"Paused","type":"event"},{"anonymous":false,"inputs":[{"indexed":true,"internalType":"address","name":"from","type":"address"},{"indexed":true,"internalType":"address","name":"to","type":"address"},{"indexed":true,"internalType":"uint256","name":"tokenId","type":"uint256"}],"name":"Transfer","type":"event"},{"anonymous":false,"inputs":[{"indexed":false,"internalType":"address","name":"account","type":"address"}],"name":"Unpaused","type":"event"},{"inputs":[{"internalType":"address","name":"from","type":"address"},{"internalType":"address","name":"to","type":"address"},{"internalType":"uint256","name":"tokenId","type":"uint256"}],"name":"adminTransfer","outputs":[],"stateMutability":"nonpayable","type":"function"},{"inputs":[{"internalType":"address","name":"to","type":"address"},{"internalType":"uint256","name":"tokenId","type":"uint256"}],"name":"approve","outputs":[],"stateMutability":"nonpayable","type":"function"},{"inputs":[{"internalType":"address","name":"owner","type":"address"}],"name":"balanceOf","outputs":[{"internalType":"uint256","name":"","type":"uint256"}],"stateMutability":"view","type":"function"},{"inputs":[{"internalType":"uint256","name":"tokenId","type":"uint256"}],"name":"getApproved","outputs":[{"internalType":"address","name":"","type":"address"}],"stateMutability":"view","type":"function"},{"inputs":[],"name":"getTotalSupply","outputs":[{"internalType":"uint256","name":"","type":"uint256"}],"stateMutability":"view","type":"function"},{"inputs":[{"internalType":"address","name":"owner","type":"address"},{"internalType":"address","name":"operator","type":"address"}],"name":"isApprovedForAll","outputs":[{"internalType":"bool","name":"","type":"bool"}],"stateMutability":"view","type":"function"},{"inputs":[{"internalType":"address","name":"to","type":"address"},{"internalType":"string","name":"uri","type":"string"}],"name":"mintLandNFT","outputs":[{"internalType":"uint256","name":"","type":"uint256"}],"stateMutability":"nonpayable","type":"function"},{"inputs":[],"name":"name","outputs":[{"internalType":"string","name":"","type":"string"}],"stateMutability":"view","type":"function"},{"inputs":[],"name":"owner","outputs":[{"internalType":"address","name":"","type":"address"}],"stateMutability":"view","type":"function"},{"inputs":[{"internalType":"uint256","name":"tokenId","type":"uint256"}],"name":"ownerOf","outputs":[{"internalType":"address","name":"","type":"address"}],"stateMutability":"view","type":"function"},{"inputs":[],"name":"pause","outputs":[],"stateMutability":"nonpayable","type":"function"},{"inputs":[],"name":"paused","outputs":[{"internalType":"bool","name":"","type":"bool"}],"stateMutability":"view","type":"function"},{"inputs":[],"name":"renounceOwnership","outputs":[],"stateMutability":"nonpayable","type":"function"},{"inputs":[{"internalType":"address","name":"from","type":"address"},{"internalType":"address","name":"to","type":"address"},{"internalType":"uint256","name":"tokenId","type":"uint256"}],"name":"safeTransferFrom","outputs":[],"stateMutability":"nonpayable","type":"function"},{"inputs":[{"internalType":"address","name":"from","type":"address"},{"internalType":"address","name":"to","type":"address"},{"internalType":"uint256","name":"tokenId","type":"uint256"},{"internalType":"bytes","name":"data","type":"bytes"}],"name":"safeTransferFrom","outputs":[],"stateMutability":"nonpayable","type":"function"},{"inputs":[{"internalType":"address","name":"operator","type":"address"},{"internalType":"bool","name":"approved","type":"bool"}],"name":"setApprovalForAll","outputs":[],"stateMutability":"nonpayable","type":"function"},{"inputs":[{"internalType":"bytes4","name":"interfaceId","type":"bytes4"}],"name":"supportsInterface","outputs":[{"internalType":"bool","name":"","type":"bool"}],"stateMutability":"view","type":"function"},{"inputs":[],"name":"symbol","outputs":[{"internalType":"string","name":"","type":"string"}],"stateMutability":"view","type":"function"},{"inputs":[{"internalType":"uint256","name":"tokenId","type":"uint256"}],"name":"tokenURI","outputs":[{"internalType":"string","name":"","type":"string"}],"stateMutability":"view","type":"function"},{"inputs":[{"internalType":"address","name":"from","type":"address"},{"internalType":"address","name":"to","type":"address"},{"internalType":"uint256","name":"tokenId","type":"uint256"}],"name":"transferFrom","outputs":[],"stateMutability":"nonpayable","type":"function"},{"inputs":[{"internalType":"address","name":"newOwner","type":"address"}],"name":"transferOwnership","outputs":[],"stateMutability":"nonpayable","type":"function"},{"inputs":[],"name":"unpause","outputs":[],"stateMutability":"nonpayable","type":"function"}],"evm":{"bytecode":{"linkReferences":{},"object":"6080346200036f576001600160401b039060408181018381118382101762000359578152601382526020917f4c616e6420526567697374727920546f6b656e00000000000000000000000000838201528151938285018581108282111762000359578352600385526213149560ea1b84860152815181811162000359576000948554916001948584811c941680156200034e575b838510146200033a578190601f94858111620002e7575b5083908583116001146200028357899262000277575b5050600019600383901b1c191690851b1786555b8651928311620002635783548481811c9116801562000258575b828210146200024457828111620001fc575b50809183116001146200019557508495829394959262000189575b5050600019600383901b1c191690821b1790555b60075490519133906001600160a01b038316907f8be0079c531659141344cd1fd0a4f28419497f9722a3daafe3b4186f6b6457e09080a36001600160a81b0319163360ff60a01b1916176007556116c99081620003758239f35b0151905038806200011b565b90601f198316968487528287209287905b898210620001e4575050838596979810620001ca575b505050811b0190556200012f565b015160001960f88460031b161c19169055388080620001bc565b808785968294968601518155019501930190620001a6565b8487528187208380860160051c8201928487106200023a575b0160051c019085905b8281106200022e57505062000100565b8881550185906200021e565b9250819262000215565b634e487b7160e01b87526022600452602487fd5b90607f1690620000ee565b634e487b7160e01b86526041600452602486fd5b015190503880620000c0565b898052848a208894509190601f1984168b5b87828210620002d05750508411620002b6575b505050811b018655620000d4565b015160001960f88460031b161c19169055388080620002a8565b8385015186558b9790950194938401930162000295565b9091508880528389208580850160051c82019286861062000330575b918991869594930160051c01915b82811062000321575050620000aa565b8b815585945089910162000311565b9250819262000303565b634e487b7160e01b88526022600452602488fd5b93607f169362000093565b634e487b7160e01b600052604160045260246000fd5b600080fdfe6080604081815260048036101561001557600080fd5b600092833560e01c90816301ffc9a714610ee95750806306fdde0314610e38578063081812fc14610e18578063095ea7b314610cab57806323b872dd14610c815780633f4ba83a14610be657806342842e0e14610bbd5780635c975abb14610b965780636352211e14610b6557806370a0823114610acf578063715018a614610a725780638456cb5914610a115780638da5cb5b146109e857806395d89b41146108fa578063a22cb4651461082f578063b88d4fde146107ce578063c233557b1461043e578063c4e41b221461041f578063c87b56dd14610310578063da72c1e814610235578063e985e9c5146101e35763f2fde38b1461011557600080fd5b346101df5760203660031901126101df5761012e610faf565b90610137611436565b6001600160a01b0391821692831561018d575050600754826bffffffffffffffffffffffff60a01b821617600755167f8be0079c531659141344cd1fd0a4f28419497f9722a3daafe3b4186f6b6457e08380a380f35b906020608492519162461bcd60e51b8352820152602660248201527f4f776e61626c653a206e6577206f776e657220697320746865207a65726f206160448201526564647265737360d01b6064820152fd5b8280fd5b50503461023157806003193601126102315760ff81602093610203610faf565b61020b610fca565b6001600160a01b0391821683526005875283832091168252855220549151911615158152f35b5080fd5b508290346102315761024636610fe0565b92610252929192611436565b61025b846111e2565b6001600160a01b0390838216908216036102c1578316156102855750610282939450611318565b80f35b606490602087519162461bcd60e51b83528201526016602482015275496e76616c696420746172676574206164647265737360501b6044820152fd5b865162461bcd60e51b81526020818401526024808201527f546f6b656e206e6f74206f776e656420627920737065636966696564206164646044820152637265737360e01b6064820152608490fd5b5090346101df576020918260031936011261041b5735600081815260026020526040902054610349906001600160a01b03161515611196565b835260068252808320928151809482908054610364816110bc565b91828552600191886001821691826000146103f45750506001146103b6575b5050506103b2939291610397910386611047565b81516103a281611015565b5251928284938452830190610f6f565b0390f35b8552868520879350859291905b8284106103dc57505050820101816103976103b2610383565b8054848b0186015289955088949093019281016103c3565b60ff19168782015293151560051b8601909301935084925061039791506103b29050610383565b8380fd5b5050346102315781600319360112610231576020906008549051908152f35b50919034610231578060031936011261023157610459610faf565b9067ffffffffffffffff6024358181116107ca57366023820112156107ca5761048b9036906024818901359101611085565b610493611436565b6001948560085401948560085560018060a01b0316928315610787576000868152600260205260409020546104d4906001600160a01b031615155b156114e1565b6104dc61152d565b6000868152600260205260409020546104ff906001600160a01b031615156104ce565b838252600360209081528583208054890190558683526002815285832080546001600160a01b03191686179055968685847fddf252ad1be2c89b69c2b068fc378daa952ba7f163c4a11628f55a4df523b3ef8180a46000878152600260205260409020546001600160a01b03161561072d578683526006885285832092845192831161071a5790839291610595899695546110bc565b601f81116106c5575b508990601f841160011461063c579280610628959381937f4ad3aa0dd2b472e5877900dcfd0688f724898d486d41682e9c3f05f23d08a934989693610631575b501b916000199060031b1c19161790555b7ff8e1a15aba9398e019f0b49df1a4fde98ee17ae345cb5f6b5e2c27f5033e8ce7888751868152a1855191829189835289830190610f6f565b0390a351908152f35b86015192508d6105de565b90601f9392931983168583528b8320925b8c8282106106ae57505091839161062896947f4ad3aa0dd2b472e5877900dcfd0688f724898d486d41682e9c3f05f23d08a93498969410610695575b5050811b0190556105ef565b85015160001960f88460031b161c191690558b80610689565b8884015185558c995093860193928301920161064d565b90919293809596508252898220601f850160051c8101918b8610610710575b90601f8b989796959493920160051c01905b818110610703575061059e565b8281558a975083016106f6565b90915081906106e4565b634e487b7160e01b815260418a52602490fd5b855162461bcd60e51b8152808a01899052602e60248201527f45524337323155524953746f726167653a2055524920736574206f66206e6f6e60448201526d32bc34b9ba32b73a103a37b5b2b760911b6064820152608490fd5b845162461bcd60e51b81526020818a0181905260248201527f4552433732313a206d696e7420746f20746865207a65726f20616464726573736044820152606490fd5b8480fd5b838234610231576080366003190112610231576107e9610faf565b6107f1610fca565b9060643567ffffffffffffffff81116107ca57366023820112156107ca576102829381602461082593369301359101611085565b9160443591611208565b5090346101df57806003193601126101df57610849610faf565b90602435918215158093036107ca576001600160a01b0316923384146108b85750338452600560205280842083855260205280842060ff1981541660ff8416179055519081527f17307eab39ab6107e8899845ad3d59bd9653f200f220920489ca2b5937696c3160203392a380f35b6020606492519162461bcd60e51b8352820152601960248201527f4552433732313a20617070726f766520746f2063616c6c6572000000000000006044820152fd5b8284346109e557806003193601126109e557815191828260019360015494610921866110bc565b91828552602096876001821691826000146109be575050600114610962575b5050506103b29291610953910385611047565b51928284938452830190610f6f565b9190869350600183527fb10e2d527612073b26eecdfd717e6a320cf44b4afac2b0732d9fcbe2b7fa0cf65b8284106109a657505050820101816109536103b2610940565b8054848a01860152889550879490930192810161098d565b60ff19168782015293151560051b8601909301935084925061095391506103b29050610940565b80fd5b50503461023157816003193601126102315760075490516001600160a01b039091168152602090f35b50503461023157816003193601126102315760207f62e78cea01bee320cd4e420270b5ea74000d11b0c9f74754ebdbfc544b05a25891610a4f611436565b610a5761152d565b6007805460ff60a01b1916600160a01b17905551338152a180f35b83346109e557806003193601126109e557610a8b611436565b600780546001600160a01b0319811690915581906001600160a01b03167f8be0079c531659141344cd1fd0a4f28419497f9722a3daafe3b4186f6b6457e08280a380f35b50829034610231576020366003190112610231576001600160a01b03610af3610faf565b16908115610b105760208480858581526003845220549051908152f35b608490602085519162461bcd60e51b8352820152602960248201527f4552433732313a2061646472657373207a65726f206973206e6f7420612076616044820152683634b21037bbb732b960b91b6064820152fd5b5091346109e55760203660031901126109e55750610b85602092356111e2565b90516001600160a01b039091168152f35b50503461023157816003193601126102315760209060ff60075460a01c1690519015158152f35b5050346102315761028290610bd136610fe0565b91925192610bde84611015565b858452611208565b50346101df57826003193601126101df57610bff611436565b6007549060ff8260a01c1615610c47575060ff60a01b1916600755513381527f5db9ee0a495bf2e6ff9c91a7834c1ba4fdd244a5e8aa4e537bd38aeae4b073aa90602090a180f35b606490602084519162461bcd60e51b8352820152601460248201527314185d5cd8589b194e881b9bdd081c185d5cd95960621b6044820152fd5b83346109e557610282610c9336610fe0565b91610ca6610ca18433611250565b611134565b611318565b50346101df57816003193601126101df57610cc4610faf565b6024359290916001600160a01b0391908280610cdf876111e2565b16941693808514610dcb57803314908115610dac575b5015610d4457848652602052842080546001600160a01b03191683179055610d1c836111e2565b167f8c5be1e5ebec7d5bd14f71427d1e84f3dd0314c0f7b2291e5b200ac8c7c3b9258480a480f35b6020608492519162461bcd60e51b8352820152603d60248201527f4552433732313a20617070726f76652063616c6c6572206973206e6f7420746f60448201527f6b656e206f776e6572206f7220617070726f76656420666f7220616c6c0000006064820152fd5b90508652600560205281862033875260205260ff828720541638610cf5565b506020608492519162461bcd60e51b8352820152602160248201527f4552433732313a20617070726f76616c20746f2063757272656e74206f776e656044820152603960f91b6064820152fd5b5091346109e55760203660031901126109e55750610b85602092356110f6565b8284346109e557806003193601126109e55781519182828354610e5a816110bc565b90818452602095600191876001821691826000146109be575050600114610e8e575050506103b29291610953910385611047565b91908693508280527f290decd9548b62a8d60345a988386fc84ba6bc95484008f6362f93160ef3e5635b828410610ed157505050820101816109536103b2610940565b8054848a018601528895508794909301928101610eb8565b925050346101df5760203660031901126101df573563ffffffff60e01b81168091036101df5760209250632483248360e11b8114908115610f2c575b5015158152f35b6380ac58cd60e01b811491508115610f5e575b8115610f4d575b5038610f25565b6301ffc9a760e01b14905038610f46565b635b5e139f60e01b81149150610f3f565b919082519283825260005b848110610f9b575050826000602080949584010152601f8019910116010190565b602081830181015184830182015201610f7a565b600435906001600160a01b0382168203610fc557565b600080fd5b602435906001600160a01b0382168203610fc557565b6060906003190112610fc5576001600160a01b03906004358281168103610fc557916024359081168103610fc5579060443590565b6020810190811067ffffffffffffffff82111761103157604052565b634e487b7160e01b600052604160045260246000fd5b90601f8019910116810190811067ffffffffffffffff82111761103157604052565b67ffffffffffffffff811161103157601f01601f191660200190565b92919261109182611069565b9161109f6040519384611047565b829481845281830111610fc5578281602093846000960137010152565b90600182811c921680156110ec575b60208310146110d657565b634e487b7160e01b600052602260045260246000fd5b91607f16916110cb565b600081815260026020526040902054611119906001600160a01b03161515611196565b6000908152600460205260409020546001600160a01b031690565b1561113b57565b60405162461bcd60e51b815260206004820152602d60248201527f4552433732313a2063616c6c6572206973206e6f7420746f6b656e206f776e6560448201526c1c881bdc88185c1c1c9bdd9959609a1b6064820152608490fd5b1561119d57565b60405162461bcd60e51b815260206004820152601860248201527f4552433732313a20696e76616c696420746f6b656e20494400000000000000006044820152606490fd5b6000908152600260205260409020546001600160a01b0316611205811515611196565b90565b9061122c93929161121c610ca18433611250565b611227838383611318565b611574565b1561123357565b60405162461bcd60e51b81528061124c6004820161148e565b0390fd5b906001600160a01b038080611264846111e2565b16931691838314938415611297575b508315611281575b50505090565b61128d919293506110f6565b161438808061127b565b909350600052600560205260406000208260005260205260ff604060002054169238611273565b156112c557565b60405162461bcd60e51b815260206004820152602560248201527f4552433732313a207472616e736665722066726f6d20696e636f72726563742060448201526437bbb732b960d91b6064820152608490fd5b9061134091611326846111e2565b6001600160a01b03939184169284929091831684146112be565b169182156113e557816113659161135561152d565b61135e866111e2565b16146112be565b7fddf252ad1be2c89b69c2b068fc378daa952ba7f163c4a11628f55a4df523b3ef60008481526004602052604081206bffffffffffffffffffffffff60a01b9081815416905583825260036020526040822060001981540190558482526040822060018154019055858252600260205284604083209182541617905580a4565b60405162461bcd60e51b8152602060048201526024808201527f4552433732313a207472616e7366657220746f20746865207a65726f206164646044820152637265737360e01b6064820152608490fd5b6007546001600160a01b0316330361144a57565b606460405162461bcd60e51b815260206004820152602060248201527f4f776e61626c653a2063616c6c6572206973206e6f7420746865206f776e65726044820152fd5b60809060208152603260208201527f4552433732313a207472616e7366657220746f206e6f6e20455243373231526560408201527131b2b4bb32b91034b6b83632b6b2b73a32b960711b60608201520190565b156114e857565b60405162461bcd60e51b815260206004820152601c60248201527f4552433732313a20746f6b656e20616c7265616479206d696e746564000000006044820152606490fd5b60ff60075460a01c1661153c57565b60405162461bcd60e51b815260206004820152601060248201526f14185d5cd8589b194e881c185d5cd95960821b6044820152606490fd5b9293919290803b15611689576115c89460018060a01b039460405192839187630a85bd0160e11b9687855233600486015216602484015260448301526080606483015281806020998a956084830190610f6f565b03916000988991165af1849181611649575b50611638575050503d600014611630573d6115f481611069565b906116026040519283611047565b81528091833d92013e5b8051918261162d5760405162461bcd60e51b81528061124c6004820161148e565b01fd5b50606061160c565b6001600160e01b0319161492509050565b9091508581813d8311611682575b6116618183611047565b810103126107ca57516001600160e01b0319811681036107ca5790386115da565b503d611657565b505091505060019056fea26469706673582212209af83651ad3bf9be17e26f32cb1c88501e0ce40dea44fc1df08288a58555fcf864736f6c63430008180033","opcodes":"PUSH1 0x80 CALLVALUE PUSH3 0x36F JUMPI PUSH1 0x1 PUSH1 0x1 PUSH1 0x40 SHL SUB SWAP1 PUSH1 0x40 DUP2 DUP2 ADD DUP4 DUP2 GT DUP4 DUP3 LT OR PUSH3 0x359 JUMPI DUP2 MSTORE PUSH1 0x13 DUP3 MSTORE PUSH1 0x20 SWAP2 PUSH32 0x4C616E6420526567697374727920546F6B656E00000000000000000000000000 DUP4 DUP3 ADD MSTORE DUP2 MLOAD SWAP4 DUP3 DUP6 ADD DUP6 DUP2 LT DUP3 DUP3 GT OR PUSH3 0x359 JUMPI DUP4 MSTORE PUSH1 0x3 DUP6 MSTORE PUSH3 0x131495 PUSH1 0xEA SHL DUP5 DUP7 ADD MSTORE DUP2 MLOAD DUP2 DUP2 GT PUSH3 0x359 JUMPI PUSH1 0x0 SWAP5 DUP6 SLOAD SWAP2 PUSH1 0x1 SWAP5 DUP6 DUP5 DUP2 SHR SWAP5 AND DUP1 ISZERO PUSH3 0x34E JUMPI JUMPDEST DUP4 DUP6 LT EQ PUSH3 0x33A JUMPI DUP2 SWAP1 PUSH1 0x1F SWAP5 DUP6 DUP2 GT PUSH3 0x2E7 JUMPI JUMPDEST POP DUP4 SWAP1 DUP6 DUP4 GT PUSH1 0x1 EQ PUSH3 0x283 JUMPI DUP10 SWAP3 PUSH3 0x277 JUMPI JUMPDEST POP POP PUSH1 0x0 NOT PUSH1 0x3 DUP4 SWAP1 SHL SHR NOT AND SWAP1 DUP6 SHL OR DUP7 SSTORE JUMPDEST DUP7 MLOAD SWAP3 DUP4 GT PUSH3 0x263 JUMPI DUP4 SLOAD DUP5 DUP2 DUP2 SHR SWAP2 AND DUP1 ISZERO PUSH3 0x258 JUMPI JUMPDEST DUP3 DUP3 LT EQ PUSH3 0x244 JUMPI DUP3 DUP2 GT PUSH3 0x1FC JUMPI JUMPDEST POP DUP1 SWAP2 DUP4 GT PUSH1 0x1 EQ PUSH3 0x195 JUMPI POP DUP5 SWAP6 DUP3 SWAP4 SWAP5 SWAP6 SWAP3 PUSH3 0x189 JUMPI JUMPDEST POP POP PUSH1 0x0 NOT PUSH1 0x3 DUP4 SWAP1 SHL SHR NOT AND SWAP1 DUP3 SHL OR SWAP1 SSTORE JUMPDEST PUSH1 0x7 SLOAD SWAP1 MLOAD SWAP2 CALLER SWAP1 PUSH1 0x1 PUSH1 0x1 PUSH1 0xA0 SHL SUB DUP4 AND SWAP1 PUSH32 0x8BE0079C531659141344CD1FD0A4F28419497F9722A3DAAFE3B4186F6B6457E0 SWAP1 DUP1 LOG3 PUSH1 0x1 PUSH1 0x1 PUSH1 0xA8 SHL SUB NOT AND CALLER PUSH1 0xFF PUSH1 0xA0 SHL NOT AND OR PUSH1 0x7 SSTORE PUSH2 0x16C9 SWAP1 DUP2 PUSH3 0x375 DUP3 CODECOPY RETURN JUMPDEST ADD MLOAD SWAP1 POP CODESIZE DUP1 PUSH3 0x11B JUMP JUMPDEST SWAP1 PUSH1 0x1F NOT DUP4 AND SWAP7 DUP5 DUP8 MSTORE DUP3 DUP8 KECCAK256 SWAP3 DUP8 SWAP1 JUMPDEST DUP10 DUP3 LT PUSH3 0x1E4 JUMPI POP POP DUP4 DUP6 SWAP7 SWAP8 SWAP9 LT PUSH3 0x1CA JUMPI JUMPDEST POP POP POP DUP2 SHL ADD SWAP1 SSTORE PUSH3 0x12F JUMP JUMPDEST ADD MLOAD PUSH1 0x0 NOT PUSH1 0xF8 DUP5 PUSH1 0x3 SHL AND SHR NOT AND SWAP1 SSTORE CODESIZE DUP1 DUP1 PUSH3 0x1BC JUMP JUMPDEST DUP1 DUP8 DUP6 SWAP7 DUP3 SWAP5 SWAP7 DUP7 ADD MLOAD DUP2 SSTORE ADD SWAP6 ADD SWAP4 ADD SWAP1 PUSH3 0x1A6 JUMP JUMPDEST DUP5 DUP8 MSTORE DUP2 DUP8 KECCAK256 DUP4 DUP1 DUP7 ADD PUSH1 0x5 SHR DUP3 ADD SWAP3 DUP5 DUP8 LT PUSH3 0x23A JUMPI JUMPDEST ADD PUSH1 0x5 SHR ADD SWAP1 DUP6 SWAP1 JUMPDEST DUP3 DUP2 LT PUSH3 0x22E JUMPI POP POP PUSH3 0x100 JUMP JUMPDEST DUP9 DUP2 SSTORE ADD DUP6 SWAP1 PUSH3 0x21E JUMP JUMPDEST SWAP3 POP DUP2 SWAP3 PUSH3 0x215 JUMP JUMPDEST PUSH4 0x4E487B71 PUSH1 0xE0 SHL DUP8 MSTORE PUSH1 0x22 PUSH1 0x4 MSTORE PUSH1 0x24 DUP8 REVERT JUMPDEST SWAP1 PUSH1 0x7F AND SWAP1 PUSH3 0xEE JUMP JUMPDEST PUSH4 0x4E487B71 PUSH1 0xE0 SHL DUP7 MSTORE PUSH1 0x41 PUSH1 0x4 MSTORE PUSH1 0x24 DUP7 REVERT JUMPDEST ADD MLOAD SWAP1 POP CODESIZE DUP1 PUSH3 0xC0 JUMP JUMPDEST DUP10 DUP1 MSTORE DUP5 DUP11 KECCAK256 DUP9 SWAP5 POP SWAP2 SWAP1 PUSH1 0x1F NOT DUP5 AND DUP12 JUMPDEST DUP8 DUP3 DUP3 LT PUSH3 0x2D0 JUMPI POP POP DUP5 GT PUSH3 0x2B6 JUMPI JUMPDEST POP POP POP DUP2 SHL ADD DUP7 SSTORE PUSH3 0xD4 JUMP JUMPDEST ADD MLOAD PUSH1 0x0 NOT PUSH1 0xF8 DUP5 PUSH1 0x3 SHL AND SHR NOT AND SWAP1 SSTORE CODESIZE DUP1 DUP1 PUSH3 0x2A8 JUMP JUMPDEST DUP4 DUP6 ADD MLOAD DUP7 SSTORE DUP12 SWAP8 SWAP1 SWAP6 ADD SWAP5 SWAP4 DUP5 ADD SWAP4 ADD PUSH3 0x295 JUMP JUMPDEST SWAP1 SWAP2 POP DUP9 DUP1 MSTORE DUP4 DUP10 KECCAK256 DUP6 DUP1 DUP6 ADD PUSH1 0x5 SHR DUP3 ADD SWAP3 DUP7 DUP7 LT PUSH3 0x330 JUMPI JUMPDEST SWAP2 DUP10 SWAP2 DUP7 SWAP6 SWAP5 SWAP4 ADD PUSH1 0x5 SHR ADD SWAP2 JUMPDEST DUP3 DUP2 LT PUSH3 0x321 JUMPI POP POP PUSH3 0xAA JUMP JUMPDEST DUP12 DUP2 SSTORE DUP6 SWAP5 POP DUP10 SWAP2 ADD PUSH3 0x311 JUMP JUMPDEST SWAP3 POP DUP2 SWAP3 PUSH3 0x303 JUMP JUMPDEST PUSH4 0x4E487B71 PUSH1 0xE0 SHL DUP9 MSTORE PUSH1 0x22 PUSH1 0x4 MSTORE PUSH1 0x24 DUP9 REVERT JUMPDEST SWAP4 PUSH1 0x7F AND SWAP4 PUSH3 0x93 JUMP JUMPDEST PUSH4 0x4E487B71 PUSH1 0xE0 SHL PUSH1 0x0 MSTORE PUSH1 0x41 PUSH1 0x4 MSTORE PUSH1 0x24 PUSH1 0x0 REVERT JUMPDEST PUSH1 0x0 DUP1 REVERT INVALID PUSH1 0x80 PUSH1 0x40 DUP2 DUP2 MSTORE PUSH1 0x4 DUP1 CALLDATASIZE LT ISZERO PUSH2 0x15 JUMPI PUSH1 0x0 DUP1 REVERT JUMPDEST PUSH1 0x0 SWAP3 DUP4 CALLDATALOAD PUSH1 0xE0 SHR SWAP1 DUP2 PUSH4 0x1FFC9A7 EQ PUSH2 0xEE9 JUMPI POP DUP1 PUSH4 0x6FDDE03 EQ PUSH2 0xE38 JUMPI DUP1 PUSH4 0x81812FC EQ PUSH2 0xE18 JUMPI DUP1 PUSH4 0x95EA7B3 EQ PUSH2 0xCAB JUMPI DUP1 PUSH4 0x23B872DD EQ PUSH2 0xC81 JUMPI DUP1 PUSH4 0x3F4BA83A EQ PUSH2 0xBE6 JUMPI DUP1 PUSH4 0x42842E0E EQ PUSH2 0xBBD JUMPI DUP1 PUSH4 0x5C975ABB EQ PUSH2 0xB96 JUMPI DUP1 PUSH4 0x6352211E EQ PUSH2 0xB65 JUMPI DUP1 PUSH4 0x70A08231 EQ PUSH2 0xACF JUMPI DUP1 PUSH4 0x715018A6 EQ PUSH2 0xA72 JUMPI DUP1 PUSH4 0x8456CB59 EQ PUSH2 0xA11 JUMPI DUP1 PUSH4 0x8DA5CB5B EQ PUSH2 0x9E8 JUMPI DUP1 PUSH4 0x95D89B41 EQ PUSH2 0x8FA JUMPI DUP1 PUSH4 0xA22CB465 EQ PUSH2 0x82F JUMPI DUP1 PUSH4 0xB88D4FDE EQ PUSH2 0x7CE JUMPI DUP1 PUSH4 0xC233557B EQ PUSH2 0x43E JUMPI DUP1 PUSH4 0xC4E41B22 EQ PUSH2 0x41F JUMPI DUP1 PUSH4 0xC87B56DD EQ PUSH2 0x310 JUMPI DUP1 PUSH4 0xDA72C1E8 EQ PUSH2 0x235 JUMPI DUP1 PUSH4 0xE985E9C5 EQ PUSH2 0x1E3 JUMPI PUSH4 0xF2FDE38B EQ PUSH2 0x115 JUMPI PUSH1 0x0 DUP1 REVERT JUMPDEST CALLVALUE PUSH2 0x1DF JUMPI PUSH1 0x20 CALLDATASIZE PUSH1 0x3 NOT ADD SLT PUSH2 0x1DF JUMPI PUSH2 0x12E PUSH2 0xFAF JUMP JUMPDEST SWAP1 PUSH2 0x137 PUSH2 0x1436 JUMP JUMPDEST PUSH1 0x1 PUSH1 0x1 PUSH1 0xA0 SHL SUB SWAP2 DUP3 AND SWAP3 DUP4 ISZERO PUSH2 0x18D JUMPI POP POP PUSH1 0x7 SLOAD DUP3 PUSH12 0xFFFFFFFFFFFFFFFFFFFFFFFF PUSH1 0xA0 SHL DUP3 AND OR PUSH1 0x7 SSTORE AND PUSH32 0x8BE0079C531659141344CD1FD0A4F28419497F9722A3DAAFE3B4186F6B6457E0 DUP4 DUP1 LOG3 DUP1 RETURN JUMPDEST SWAP1 PUSH1 0x20 PUSH1 0x84 SWAP3 MLOAD SWAP2 PUSH3 0x461BCD PUSH1 0xE5 SHL DUP4 MSTORE DUP3 ADD MSTORE PUSH1 0x26 PUSH1 0x24 DUP3 ADD MSTORE PUSH32 0x4F776E61626C653A206E6577206F776E657220697320746865207A65726F2061 PUSH1 0x44 DUP3 ADD MSTORE PUSH6 0x646472657373 PUSH1 0xD0 SHL PUSH1 0x64 DUP3 ADD MSTORE REVERT JUMPDEST DUP3 DUP1 REVERT JUMPDEST POP POP CALLVALUE PUSH2 0x231 JUMPI DUP1 PUSH1 0x3 NOT CALLDATASIZE ADD SLT PUSH2 0x231 JUMPI PUSH1 0xFF DUP2 PUSH1 0x20 SWAP4 PUSH2 0x203 PUSH2 0xFAF JUMP JUMPDEST PUSH2 0x20B PUSH2 0xFCA JUMP JUMPDEST PUSH1 0x1 PUSH1 0x1 PUSH1 0xA0 SHL SUB SWAP2 DUP3 AND DUP4 MSTORE PUSH1 0x5 DUP8 MSTORE DUP4 DUP4 KECCAK256 SWAP2 AND DUP3 MSTORE DUP6 MSTORE KECCAK256 SLOAD SWAP2 MLOAD SWAP2 AND ISZERO ISZERO DUP2 MSTORE RETURN JUMPDEST POP DUP1 REVERT JUMPDEST POP DUP3 SWAP1 CALLVALUE PUSH2 0x231 JUMPI PUSH2 0x246 CALLDATASIZE PUSH2 0xFE0 JUMP JUMPDEST SWAP3 PUSH2 0x252 SWAP3 SWAP2 SWAP3 PUSH2 0x1436 JUMP JUMPDEST PUSH2 0x25B DUP5 PUSH2 0x11E2 JUMP JUMPDEST PUSH1 0x1 PUSH1 0x1 PUSH1 0xA0 SHL SUB SWAP1 DUP4 DUP3 AND SWAP1 DUP3 AND SUB PUSH2 0x2C1 JUMPI DUP4 AND ISZERO PUSH2 0x285 JUMPI POP PUSH2 0x282 SWAP4 SWAP5 POP PUSH2 0x1318 JUMP JUMPDEST DUP1 RETURN JUMPDEST PUSH1 0x64 SWAP1 PUSH1 0x20 DUP8 MLOAD SWAP2 PUSH3 0x461BCD PUSH1 0xE5 SHL DUP4 MSTORE DUP3 ADD MSTORE PUSH1 0x16 PUSH1 0x24 DUP3 ADD MSTORE PUSH22 0x496E76616C6964207461726765742061646472657373 PUSH1 0x50 SHL PUSH1 0x44 DUP3 ADD MSTORE REVERT JUMPDEST DUP7 MLOAD PUSH3 0x461BCD PUSH1 0xE5 SHL DUP2 MSTORE PUSH1 0x20 DUP2 DUP5 ADD MSTORE PUSH1 0x24 DUP1 DUP3 ADD MSTORE PUSH32 0x546F6B656E206E6F74206F776E65642062792073706563696669656420616464 PUSH1 0x44 DUP3 ADD MSTORE PUSH4 0x72657373 PUSH1 0xE0 SHL PUSH1 0x64 DUP3 ADD MSTORE PUSH1 0x84 SWAP1 REVERT JUMPDEST POP SWAP1 CALLVALUE PUSH2 0x1DF JUMPI PUSH1 0x20 SWAP2 DUP3 PUSH1 0x3 NOT CALLDATASIZE ADD SLT PUSH2 0x41B JUMPI CALLDATALOAD PUSH1 0x0 DUP2 DUP2 MSTORE PUSH1 0x2 PUSH1 0x20 MSTORE PUSH1 0x40 SWAP1 KECCAK256 SLOAD PUSH2 0x349 SWAP1 PUSH1 0x1 PUSH1 0x1 PUSH1 0xA0 SHL SUB AND ISZERO ISZERO PUSH2 0x1196 JUMP JUMPDEST DUP4 MSTORE PUSH1 0x6 DUP3 MSTORE DUP1 DUP4 KECCAK256 SWAP3 DUP2 MLOAD DUP1 SWAP5 DUP3 SWAP1 DUP1 SLOAD PUSH2 0x364 DUP2 PUSH2 0x10BC JUMP JUMPDEST SWAP2 DUP3 DUP6 MSTORE PUSH1 0x1 SWAP2 DUP9 PUSH1 0x1 DUP3 AND SWAP2 DUP3 PUSH1 0x0 EQ PUSH2 0x3F4 JUMPI POP POP PUSH1 0x1 EQ PUSH2 0x3B6 JUMPI JUMPDEST POP POP POP PUSH2 0x3B2 SWAP4 SWAP3 SWAP2 PUSH2 0x397 SWAP2 SUB DUP7 PUSH2 0x1047 JUMP JUMPDEST DUP2 MLOAD PUSH2 0x3A2 DUP2 PUSH2 0x1015 JUMP JUMPDEST MSTORE MLOAD SWAP3 DUP3 DUP5 SWAP4 DUP5 MSTORE DUP4 ADD SWAP1 PUSH2 0xF6F JUMP JUMPDEST SUB SWAP1 RETURN JUMPDEST DUP6 MSTORE DUP7 DUP6 KECCAK256 DUP8 SWAP4 POP DUP6 SWAP3 SWAP2 SWAP1 JUMPDEST DUP3 DUP5 LT PUSH2 0x3DC JUMPI POP POP POP DUP3 ADD ADD DUP2 PUSH2 0x397 PUSH2 0x3B2 PUSH2 0x383 JUMP JUMPDEST DUP1 SLOAD DUP5 DUP12 ADD DUP7 ADD MSTORE DUP10 SWAP6 POP DUP9 SWAP5 SWAP1 SWAP4 ADD SWAP3 DUP2 ADD PUSH2 0x3C3 JUMP JUMPDEST PUSH1 0xFF NOT AND DUP8 DUP3 ADD MSTORE SWAP4 ISZERO ISZERO PUSH1 0x5 SHL DUP7 ADD SWAP1 SWAP4 ADD SWAP4 POP DUP5 SWAP3 POP PUSH2 0x397 SWAP2 POP PUSH2 0x3B2 SWAP1 POP PUSH2 0x383 JUMP JUMPDEST DUP4 DUP1 REVERT JUMPDEST POP POP CALLVALUE PUSH2 0x231 JUMPI DUP2 PUSH1 0x3 NOT CALLDATASIZE ADD SLT PUSH2 0x231 JUMPI PUSH1 0x20 SWAP1 PUSH1 0x8 SLOAD SWAP1 MLOAD SWAP1 DUP2 MSTORE RETURN JUMPDEST POP SWAP2 SWAP1 CALLVALUE PUSH2 0x231 JUMPI DUP1 PUSH1 0x3 NOT CALLDATASIZE ADD SLT PUSH2 0x231 JUMPI PUSH2 0x459 PUSH2 0xFAF JUMP JUMPDEST SWAP1 PUSH8 0xFFFFFFFFFFFFFFFF PUSH1 0x24 CALLDATALOAD DUP2 DUP2 GT PUSH2 0x7CA JUMPI CALLDATASIZE PUSH1 0x23 DUP3 ADD SLT ISZERO PUSH2 0x7CA JUMPI PUSH2 0x48B SWAP1 CALLDATASIZE SWAP1 PUSH1 0x24 DUP2 DUP10 ADD CALLDATALOAD SWAP2 ADD PUSH2 0x1085 JUMP JUMPDEST PUSH2 0x493 PUSH2 0x1436 JUMP JUMPDEST PUSH1 0x1 SWAP5 DUP6 PUSH1 0x8 SLOAD ADD SWAP5 DUP6 PUSH1 0x8 SSTORE PUSH1 0x1 DUP1 PUSH1 0xA0 SHL SUB AND SWAP3 DUP4 ISZERO PUSH2 0x787 JUMPI PUSH1 0x0 DUP7 DUP2 MSTORE PUSH1 0x2 PUSH1 0x20 MSTORE PUSH1 0x40 SWAP1 KECCAK256 SLOAD PUSH2 0x4D4 SWAP1 PUSH1 0x1 PUSH1 0x1 PUSH1 0xA0 SHL SUB AND ISZERO ISZERO JUMPDEST ISZERO PUSH2 0x14E1 JUMP JUMPDEST PUSH2 0x4DC PUSH2 0x152D JUMP JUMPDEST PUSH1 0x0 DUP7 DUP2 MSTORE PUSH1 0x2 PUSH1 0x20 MSTORE PUSH1 0x40 SWAP1 KECCAK256 SLOAD PUSH2 0x4FF SWAP1 PUSH1 0x1 PUSH1 0x1 PUSH1 0xA0 SHL SUB AND ISZERO ISZERO PUSH2 0x4CE JUMP JUMPDEST DUP4 DUP3 MSTORE PUSH1 0x3 PUSH1 0x20 SWAP1 DUP2 MSTORE DUP6 DUP4 KECCAK256 DUP1 SLOAD DUP10 ADD SWAP1 SSTORE DUP7 DUP4 MSTORE PUSH1 0x2 DUP2 MSTORE DUP6 DUP4 KECCAK256 DUP1 SLOAD PUSH1 0x1 PUSH1 0x1 PUSH1 0xA0 SHL SUB NOT AND DUP7 OR SWAP1 SSTORE SWAP7 DUP7 DUP6 DUP5 PUSH32 0xDDF252AD1BE2C89B69C2B068FC378DAA952BA7F163C4A11628F55A4DF523B3EF DUP2 DUP1 LOG4 PUSH1 0x0 DUP8 DUP2 MSTORE PUSH1 0x2 PUSH1 0x20 MSTORE PUSH1 0x40 SWAP1 KECCAK256 SLOAD PUSH1 0x1 PUSH1 0x1 PUSH1 0xA0 SHL SUB AND ISZERO PUSH2 0x72D JUMPI DUP7 DUP4 MSTORE PUSH1 0x6 DUP9 MSTORE DUP6 DUP4 KECCAK256 SWAP3 DUP5 MLOAD SWAP3 DUP4 GT PUSH2 0x71A JUMPI SWAP1 DUP4 SWAP3 SWAP2 PUSH2 0x595 DUP10 SWAP7 SWAP6 SLOAD PUSH2 0x10BC JUMP JUMPDEST PUSH1 0x1F DUP2 GT PUSH2 0x6C5 JUMPI JUMPDEST POP DUP10 SWAP1 PUSH1 0x1F DUP5 GT PUSH1 0x1 EQ PUSH2 0x63C JUMPI SWAP3 DUP1 PUSH2 0x628 SWAP6 SWAP4 DUP2 SWAP4 PUSH32 0x4AD3AA0DD2B472E5877900DCFD0688F724898D486D41682E9C3F05F23D08A934 SWAP9 SWAP7 SWAP4 PUSH2 0x631 JUMPI JUMPDEST POP SHL SWAP2 PUSH1 0x0 NOT SWAP1 PUSH1 0x3 SHL SHR NOT AND OR SWAP1 SSTORE JUMPDEST PUSH32 0xF8E1A15ABA9398E019F0B49DF1A4FDE98EE17AE345CB5F6B5E2C27F5033E8CE7 DUP9 DUP8 MLOAD DUP7 DUP2 MSTORE LOG1 DUP6 MLOAD SWAP2 DUP3 SWAP2 DUP10 DUP4 MSTORE DUP10 DUP4 ADD SWAP1 PUSH2 0xF6F JUMP JUMPDEST SUB SWAP1 LOG3 MLOAD SWAP1 DUP2 MSTORE RETURN JUMPDEST DUP7 ADD MLOAD SWAP3 POP DUP14 PUSH2 0x5DE JUMP JUMPDEST SWAP1 PUSH1 0x1F SWAP4 SWAP3 SWAP4 NOT DUP4 AND DUP6 DUP4 MSTORE DUP12 DUP4 KECCAK256 SWAP3 JUMPDEST DUP13 DUP3 DUP3 LT PUSH2 0x6AE JUMPI POP POP SWAP2 DUP4 SWAP2 PUSH2 0x628 SWAP7 SWAP5 PUSH32 0x4AD3AA0DD2B472E5877900DCFD0688F724898D486D41682E9C3F05F23D08A934 SWAP9 SWAP7 SWAP5 LT PUSH2 0x695 JUMPI JUMPDEST POP POP DUP2 SHL ADD SWAP1 SSTORE PUSH2 0x5EF JUMP JUMPDEST DUP6 ADD MLOAD PUSH1 0x0 NOT PUSH1 0xF8 DUP5 PUSH1 0x3 SHL AND SHR NOT AND SWAP1 SSTORE DUP12 DUP1 PUSH2 0x689 JUMP JUMPDEST DUP9 DUP5 ADD MLOAD DUP6 SSTORE DUP13 SWAP10 POP SWAP4 DUP7 ADD SWAP4 SWAP3 DUP4 ADD SWAP3 ADD PUSH2 0x64D JUMP JUMPDEST SWAP1 SWAP2 SWAP3 SWAP4 DUP1 SWAP6 SWAP7 POP DUP3 MSTORE DUP10 DUP3 KECCAK256 PUSH1 0x1F DUP6 ADD PUSH1 0x5 SHR DUP2 ADD SWAP2 DUP12 DUP7 LT PUSH2 0x710 JUMPI JUMPDEST SWAP1 PUSH1 0x1F DUP12 SWAP9 SWAP8 SWAP7 SWAP6 SWAP5 SWAP4 SWAP3 ADD PUSH1 0x5 SHR ADD SWAP1 JUMPDEST DUP2 DUP2 LT PUSH2 0x703 JUMPI POP PUSH2 0x59E JUMP JUMPDEST DUP3 DUP2 SSTORE DUP11 SWAP8 POP DUP4 ADD PUSH2 0x6F6 JUMP JUMPDEST SWAP1 SWAP2 POP DUP2 SWAP1 PUSH2 0x6E4 JUMP JUMPDEST PUSH4 0x4E487B71 PUSH1 0xE0 SHL DUP2 MSTORE PUSH1 0x41 DUP11 MSTORE PUSH1 0x24 SWAP1 REVERT JUMPDEST DUP6 MLOAD PUSH3 0x461BCD PUSH1 0xE5 SHL DUP2 MSTORE DUP1 DUP11 ADD DUP10 SWAP1 MSTORE PUSH1 0x2E PUSH1 0x24 DUP3 ADD MSTORE PUSH32 0x45524337323155524953746F726167653A2055524920736574206F66206E6F6E PUSH1 0x44 DUP3 ADD MSTORE PUSH14 0x32BC34B9BA32B73A103A37B5B2B7 PUSH1 0x91 SHL PUSH1 0x64 DUP3 ADD MSTORE PUSH1 0x84 SWAP1 REVERT JUMPDEST DUP5 MLOAD PUSH3 0x461BCD PUSH1 0xE5 SHL DUP2 MSTORE PUSH1 0x20 DUP2 DUP11 ADD DUP2 SWAP1 MSTORE PUSH1 0x24 DUP3 ADD MSTORE PUSH32 0x4552433732313A206D696E7420746F20746865207A65726F2061646472657373 PUSH1 0x44 DUP3 ADD MSTORE PUSH1 0x64 SWAP1 REVERT JUMPDEST DUP5 DUP1 REVERT JUMPDEST DUP4 DUP3 CALLVALUE PUSH2 0x231 JUMPI PUSH1 0x80 CALLDATASIZE PUSH1 0x3 NOT ADD SLT PUSH2 0x231 JUMPI PUSH2 0x7E9 PUSH2 0xFAF JUMP JUMPDEST PUSH2 0x7F1 PUSH2 0xFCA JUMP JUMPDEST SWAP1 PUSH1 0x64 CALLDATALOAD PUSH8 0xFFFFFFFFFFFFFFFF DUP2 GT PUSH2 0x7CA JUMPI CALLDATASIZE PUSH1 0x23 DUP3 ADD SLT ISZERO PUSH2 0x7CA JUMPI PUSH2 0x282 SWAP4 DUP2 PUSH1 0x24 PUSH2 0x825 SWAP4 CALLDATASIZE SWAP4 ADD CALLDATALOAD SWAP2 ADD PUSH2 0x1085 JUMP JUMPDEST SWAP2 PUSH1 0x44 CALLDATALOAD SWAP2 PUSH2 0x1208 JUMP JUMPDEST POP SWAP1 CALLVALUE PUSH2 0x1DF JUMPI DUP1 PUSH1 0x3 NOT CALLDATASIZE ADD SLT PUSH2 0x1DF JUMPI PUSH2 0x849 PUSH2 0xFAF JUMP JUMPDEST SWAP1 PUSH1 0x24 CALLDATALOAD SWAP2 DUP3 ISZERO ISZERO DUP1 SWAP4 SUB PUSH2 0x7CA JUMPI PUSH1 0x1 PUSH1 0x1 PUSH1 0xA0 SHL SUB AND SWAP3 CALLER DUP5 EQ PUSH2 0x8B8 JUMPI POP CALLER DUP5 MSTORE PUSH1 0x5 PUSH1 0x20 MSTORE DUP1 DUP5 KECCAK256 DUP4 DUP6 MSTORE PUSH1 0x20 MSTORE DUP1 DUP5 KECCAK256 PUSH1 0xFF NOT DUP2 SLOAD AND PUSH1 0xFF DUP5 AND OR SWAP1 SSTORE MLOAD SWAP1 DUP2 MSTORE PUSH32 0x17307EAB39AB6107E8899845AD3D59BD9653F200F220920489CA2B5937696C31 PUSH1 0x20 CALLER SWAP3 LOG3 DUP1 RETURN JUMPDEST PUSH1 0x20 PUSH1 0x64 SWAP3 MLOAD SWAP2 PUSH3 0x461BCD PUSH1 0xE5 SHL DUP4 MSTORE DUP3 ADD MSTORE PUSH1 0x19 PUSH1 0x24 DUP3 ADD MSTORE PUSH32 0x4552433732313A20617070726F766520746F2063616C6C657200000000000000 PUSH1 0x44 DUP3 ADD MSTORE REVERT JUMPDEST DUP3 DUP5 CALLVALUE PUSH2 0x9E5 JUMPI DUP1 PUSH1 0x3 NOT CALLDATASIZE ADD SLT PUSH2 0x9E5 JUMPI DUP2 MLOAD SWAP2 DUP3 DUP3 PUSH1 0x1 SWAP4 PUSH1 0x1 SLOAD SWAP5 PUSH2 0x921 DUP7 PUSH2 0x10BC JUMP JUMPDEST SWAP2 DUP3 DUP6 MSTORE PUSH1 0x20 SWAP7 DUP8 PUSH1 0x1 DUP3 AND SWAP2 DUP3 PUSH1 0x0 EQ PUSH2 0x9BE JUMPI POP POP PUSH1 0x1 EQ PUSH2 0x962 JUMPI JUMPDEST POP POP POP PUSH2 0x3B2 SWAP3 SWAP2 PUSH2 0x953 SWAP2 SUB DUP6 PUSH2 0x1047 JUMP JUMPDEST MLOAD SWAP3 DUP3 DUP5 SWAP4 DUP5 MSTORE DUP4 ADD SWAP1 PUSH2 0xF6F JUMP JUMPDEST SWAP2 SWAP1 DUP7 SWAP4 POP PUSH1 0x1 DUP4 MSTORE PUSH32 0xB10E2D527612073B26EECDFD717E6A320CF44B4AFAC2B0732D9FCBE2B7FA0CF6 JUMPDEST DUP3 DUP5 LT PUSH2 0x9A6 JUMPI POP POP POP DUP3 ADD ADD DUP2 PUSH2 0x953 PUSH2 0x3B2 PUSH2 0x940 JUMP JUMPDEST DUP1 SLOAD DUP5 DUP11 ADD DUP7 ADD MSTORE DUP9 SWAP6 POP DUP8 SWAP5 SWAP1 SWAP4 ADD SWAP3 DUP2 ADD PUSH2 0x98D JUMP JUMPDEST PUSH1 0xFF NOT AND DUP8 DUP3 ADD MSTORE SWAP4 ISZERO ISZERO PUSH1 0x5 SHL DUP7 ADD SWAP1 SWAP4 ADD SWAP4 POP DUP5 SWAP3 POP PUSH2 0x953 SWAP2 POP PUSH2 0x3B2 SWAP1 POP PUSH2 0x940 JUMP JUMPDEST DUP1 REVERT JUMPDEST POP POP CALLVALUE PUSH2 0x231 JUMPI DUP2 PUSH1 0x3 NOT CALLDATASIZE ADD SLT PUSH2 0x231 JUMPI PUSH1 0x7 SLOAD SWAP1 MLOAD PUSH1 0x1 PUSH1 0x1 PUSH1 0xA0 SHL SUB SWAP1 SWAP2 AND DUP2 MSTORE PUSH1 0x20 SWAP1 RETURN JUMPDEST POP POP CALLVALUE PUSH2 0x231 JUMPI DUP2 PUSH1 0x3 NOT CALLDATASIZE ADD SLT PUSH2 0x231 JUMPI PUSH1 0x20 PUSH32 0x62E78CEA01BEE320CD4E420270B5EA74000D11B0C9F74754EBDBFC544B05A258 SWAP2 PUSH2 0xA4F PUSH2 0x1436 JUMP JUMPDEST PUSH2 0xA57 PUSH2 0x152D JUMP JUMPDEST PUSH1 0x7 DUP1 SLOAD PUSH1 0xFF PUSH1 0xA0 SHL NOT AND PUSH1 0x1 PUSH1 0xA0 SHL OR SWAP1 SSTORE MLOAD CALLER DUP2 MSTORE LOG1 DUP1 RETURN JUMPDEST DUP4 CALLVALUE PUSH2 0x9E5 JUMPI DUP1 PUSH1 0x3 NOT CALLDATASIZE ADD SLT PUSH2 0x9E5 JUMPI PUSH2 0xA8B PUSH2 0x1436 JUMP JUMPDEST PUSH1 0x7 DUP1 SLOAD PUSH1 0x1 PUSH1 0x1 PUSH1 0xA0 SHL SUB NOT DUP2 AND SWAP1 SWAP2 SSTORE DUP2 SWAP1 PUSH1 0x1 PUSH1 0x1 PUSH1 0xA0 SHL SUB AND PUSH32 0x8BE0079C531659141344CD1FD0A4F28419497F9722A3DAAFE3B4186F6B6457E0 DUP3 DUP1 LOG3 DUP1 RETURN JUMPDEST POP DUP3 SWAP1 CALLVALUE PUSH2 0x231 JUMPI PUSH1 0x20 CALLDATASIZE PUSH1 0x3 NOT ADD SLT PUSH2 0x231 JUMPI PUSH1 0x1 PUSH1 0x1 PUSH1 0xA0 SHL SUB PUSH2 0xAF3 PUSH2 0xFAF JUMP JUMPDEST AND SWAP1 DUP2 ISZERO PUSH2 0xB10 JUMPI PUSH1 0x20 DUP5 DUP1 DUP6 DUP6 DUP2 MSTORE PUSH1 0x3 DUP5 MSTORE KECCAK256 SLOAD SWAP1 MLOAD SWAP1 DUP2 MSTORE RETURN JUMPDEST PUSH1 0x84 SWAP1 PUSH1 0x20 DUP6 MLOAD SWAP2 PUSH3 0x461BCD PUSH1 0xE5 SHL DUP4 MSTORE DUP3 ADD MSTORE PUSH1 0x29 PUSH1 0x24 DUP3 ADD MSTORE PUSH32 0x4552433732313A2061646472657373207A65726F206973206E6F742061207661 PUSH1 0x44 DUP3 ADD MSTORE PUSH9 0x3634B21037BBB732B9 PUSH1 0xB9 SHL PUSH1 0x64 DUP3 ADD MSTORE REVERT JUMPDEST POP SWAP2 CALLVALUE PUSH2 0x9E5 JUMPI PUSH1 0x20 CALLDATASIZE PUSH1 0x3 NOT ADD SLT PUSH2 0x9E5 JUMPI POP PUSH2 0xB85 PUSH1 0x20 SWAP3 CALLDATALOAD PUSH2 0x11E2 JUMP JUMPDEST SWAP1 MLOAD PUSH1 0x1 PUSH1 0x1 PUSH1 0xA0 SHL SUB SWAP1 SWAP2 AND DUP2 MSTORE RETURN JUMPDEST POP POP CALLVALUE PUSH2 0x231 JUMPI DUP2 PUSH1 0x3 NOT CALLDATASIZE ADD SLT PUSH2 0x231 JUMPI PUSH1 0x20 SWAP1 PUSH1 0xFF PUSH1 0x7 SLOAD PUSH1 0xA0 SHR AND SWAP1 MLOAD SWAP1 ISZERO ISZERO DUP2 MSTORE RETURN JUMPDEST POP POP CALLVALUE PUSH2 0x231 JUMPI PUSH2 0x282 SWAP1 PUSH2 0xBD1 CALLDATASIZE PUSH2 0xFE0 JUMP JUMPDEST SWAP2 SWAP3 MLOAD SWAP3 PUSH2 0xBDE DUP5 PUSH2 0x1015 JUMP JUMPDEST DUP6 DUP5 MSTORE PUSH2 0x1208 JUMP JUMPDEST POP CALLVALUE PUSH2 0x1DF JUMPI DUP3 PUSH1 0x3 NOT CALLDATASIZE ADD SLT PUSH2 0x1DF JUMPI PUSH2 0xBFF PUSH2 0x1436 JUMP JUMPDEST PUSH1 0x7 SLOAD SWAP1 PUSH1 0xFF DUP3 PUSH1 0xA0 SHR AND ISZERO PUSH2 0xC47 JUMPI POP PUSH1 0xFF PUSH1 0xA0 SHL NOT AND PUSH1 0x7 SSTORE MLOAD CALLER DUP2 MSTORE PUSH32 0x5DB9EE0A495BF2E6FF9C91A7834C1BA4FDD244A5E8AA4E537BD38AEAE4B073AA SWAP1 PUSH1 0x20 SWAP1 LOG1 DUP1 RETURN JUMPDEST PUSH1 0x64 SWAP1 PUSH1 0x20 DUP5 MLOAD SWAP2 PUSH3 0x461BCD PUSH1 0xE5 SHL DUP4 MSTORE DUP3 ADD MSTORE PUSH1 0x14 PUSH1 0x24 DUP3 ADD MSTORE PUSH20 0x14185D5CD8589B194E881B9BDD081C185D5CD959 PUSH1 0x62 SHL PUSH1 0x44 DUP3 ADD MSTORE REVERT JUMPDEST DUP4 CALLVALUE PUSH2 0x9E5 JUMPI PUSH2 0x282 PUSH2 0xC93 CALLDATASIZE PUSH2 0xFE0 JUMP JUMPDEST SWAP2 PUSH2 0xCA6 PUSH2 0xCA1 DUP5 CALLER PUSH2 0x1250 JUMP JUMPDEST PUSH2 0x1134 JUMP JUMPDEST PUSH2 0x1318 JUMP JUMPDEST POP CALLVALUE PUSH2 0x1DF JUMPI DUP2 PUSH1 0x3 NOT CALLDATASIZE ADD SLT PUSH2 0x1DF JUMPI PUSH2 0xCC4 PUSH2 0xFAF JUMP JUMPDEST PUSH1 0x24 CALLDATALOAD SWAP3 SWAP1 SWAP2 PUSH1 0x1 PUSH1 0x1 PUSH1 0xA0 SHL SUB SWAP2 SWAP1 DUP3 DUP1 PUSH2 0xCDF DUP8 PUSH2 0x11E2 JUMP JUMPDEST AND SWAP5 AND SWAP4 DUP1 DUP6 EQ PUSH2 0xDCB JUMPI DUP1 CALLER EQ SWAP1 DUP2 ISZERO PUSH2 0xDAC JUMPI JUMPDEST POP ISZERO PUSH2 0xD44 JUMPI DUP5 DUP7 MSTORE PUSH1 0x20 MSTORE DUP5 KECCAK256 DUP1 SLOAD PUSH1 0x1 PUSH1 0x1 PUSH1 0xA0 SHL SUB NOT AND DUP4 OR SWAP1 SSTORE PUSH2 0xD1C DUP4 PUSH2 0x11E2 JUMP JUMPDEST AND PUSH32 0x8C5BE1E5EBEC7D5BD14F71427D1E84F3DD0314C0F7B2291E5B200AC8C7C3B925 DUP5 DUP1 LOG4 DUP1 RETURN JUMPDEST PUSH1 0x20 PUSH1 0x84 SWAP3 MLOAD SWAP2 PUSH3 0x461BCD PUSH1 0xE5 SHL DUP4 MSTORE DUP3 ADD MSTORE PUSH1 0x3D PUSH1 0x24 DUP3 ADD MSTORE PUSH32 0x4552433732313A20617070726F76652063616C6C6572206973206E6F7420746F PUSH1 0x44 DUP3 ADD MSTORE PUSH32 0x6B656E206F776E6572206F7220617070726F76656420666F7220616C6C000000 PUSH1 0x64 DUP3 ADD MSTORE REVERT JUMPDEST SWAP1 POP DUP7 MSTORE PUSH1 0x5 PUSH1 0x20 MSTORE DUP2 DUP7 KECCAK256 CALLER DUP8 MSTORE PUSH1 0x20 MSTORE PUSH1 0xFF DUP3 DUP8 KECCAK256 SLOAD AND CODESIZE PUSH2 0xCF5 JUMP JUMPDEST POP PUSH1 0x20 PUSH1 0x84 SWAP3 MLOAD SWAP2 PUSH3 0x461BCD PUSH1 0xE5 SHL DUP4 MSTORE DUP3 ADD MSTORE PUSH1 0x21 PUSH1 0x24 DUP3 ADD MSTORE PUSH32 0x4552433732313A20617070726F76616C20746F2063757272656E74206F776E65 PUSH1 0x44 DUP3 ADD MSTORE PUSH1 0x39 PUSH1 0xF9 SHL PUSH1 0x64 DUP3 ADD MSTORE REVERT JUMPDEST POP SWAP2 CALLVALUE PUSH2 0x9E5 JUMPI PUSH1 0x20 CALLDATASIZE PUSH1 0x3 NOT ADD SLT PUSH2 0x9E5 JUMPI POP PUSH2 0xB85 PUSH1 0x20 SWAP3 CALLDATALOAD PUSH2 0x10F6 JUMP JUMPDEST DUP3 DUP5 CALLVALUE PUSH2 0x9E5 JUMPI DUP1 PUSH1 0x3 NOT CALLDATASIZE ADD SLT PUSH2 0x9E5 JUMPI DUP2 MLOAD SWAP2 DUP3 DUP3 DUP4 SLOAD PUSH2 0xE5A DUP2 PUSH2 0x10BC JUMP JUMPDEST SWAP1 DUP2 DUP5 MSTORE PUSH1 0x20 SWAP6 PUSH1 0x1 SWAP2 DUP8 PUSH1 0x1 DUP3 AND SWAP2 DUP3 PUSH1 0x0 EQ PUSH2 0x9BE JUMPI POP POP PUSH1 0x1 EQ PUSH2 0xE8E JUMPI POP POP POP PUSH2 0x3B2 SWAP3 SWAP2 PUSH2 0x953 SWAP2 SUB DUP6 PUSH2 0x1047 JUMP JUMPDEST SWAP2 SWAP1 DUP7 SWAP4 POP DUP3 DUP1 MSTORE PUSH32 0x290DECD9548B62A8D60345A988386FC84BA6BC95484008F6362F93160EF3E563 JUMPDEST DUP3 DUP5 LT PUSH2 0xED1 JUMPI POP POP POP DUP3 ADD ADD DUP2 PUSH2 0x953 PUSH2 0x3B2 PUSH2 0x940 JUMP JUMPDEST DUP1 SLOAD DUP5 DUP11 ADD DUP7 ADD MSTORE DUP9 SWAP6 POP DUP8 SWAP5 SWAP1 SWAP4 ADD SWAP3 DUP2 ADD PUSH2 0xEB8 JUMP JUMPDEST SWAP3 POP POP CALLVALUE PUSH2 0x1DF JUMPI PUSH1 0x20 CALLDATASIZE PUSH1 0x3 NOT ADD SLT PUSH2 0x1DF JUMPI CALLDATALOAD PUSH4 0xFFFFFFFF PUSH1 0xE0 SHL DUP2 AND DUP1 SWAP2 SUB PUSH2 0x1DF JUMPI PUSH1 0x20 SWAP3 POP PUSH4 0x24832483 PUSH1 0xE1 SHL DUP2 EQ SWAP1 DUP2 ISZERO PUSH2 0xF2C JUMPI JUMPDEST POP ISZERO ISZERO DUP2 MSTORE RETURN JUMPDEST PUSH4 0x80AC58CD PUSH1 0xE0 SHL DUP2 EQ SWAP2 POP DUP2 ISZERO PUSH2 0xF5E JUMPI JUMPDEST DUP2 ISZERO PUSH2 0xF4D JUMPI JUMPDEST POP CODESIZE PUSH2 0xF25 JUMP JUMPDEST PUSH4 0x1FFC9A7 PUSH1 0xE0 SHL EQ SWAP1 POP CODESIZE PUSH2 0xF46 JUMP JUMPDEST PUSH4 0x5B5E139F PUSH1 0xE0 SHL DUP2 EQ SWAP2 POP PUSH2 0xF3F JUMP JUMPDEST SWAP2 SWAP1 DUP3 MLOAD SWAP3 DUP4 DUP3 MSTORE PUSH1 0x0 JUMPDEST DUP5 DUP2 LT PUSH2 0xF9B JUMPI POP POP DUP3 PUSH1 0x0 PUSH1 0x20 DUP1 SWAP5 SWAP6 DUP5 ADD ADD MSTORE PUSH1 0x1F DUP1 NOT SWAP2 ADD AND ADD ADD SWAP1 JUMP JUMPDEST PUSH1 0x20 DUP2 DUP4 ADD DUP2 ADD MLOAD DUP5 DUP4 ADD DUP3 ADD MSTORE ADD PUSH2 0xF7A JUMP JUMPDEST PUSH1 0x4 CALLDATALOAD SWAP1 PUSH1 0x1 PUSH1 0x1 PUSH1 0xA0 SHL SUB DUP3 AND DUP3 SUB PUSH2 0xFC5 JUMPI JUMP JUMPDEST PUSH1 0x0 DUP1 REVERT JUMPDEST PUSH1 0x24 CALLDATALOAD SWAP1 PUSH1 0x1 PUSH1 0x1 PUSH1 0xA0 SHL SUB DUP3 AND DUP3 SUB PUSH2 0xFC5 JUMPI JUMP JUMPDEST PUSH1 0x60 SWAP1 PUSH1 0x3 NOT ADD SLT PUSH2 0xFC5 JUMPI PUSH1 0x1 PUSH1 0x1 PUSH1 0xA0 SHL SUB SWAP1 PUSH1 0x4 CALLDATALOAD DUP3 DUP2 AND DUP2 SUB PUSH2 0xFC5 JUMPI SWAP2 PUSH1 0x24 CALLDATALOAD SWAP1 DUP2 AND DUP2 SUB PUSH2 0xFC5 JUMPI SWAP1 PUSH1 0x44 CALLDATALOAD SWAP1 JUMP JUMPDEST PUSH1 0x20 DUP2 ADD SWAP1 DUP2 LT PUSH8 0xFFFFFFFFFFFFFFFF DUP3 GT OR PUSH2 0x1031 JUMPI PUSH1 0x40 MSTORE JUMP JUMPDEST PUSH4 0x4E487B71 PUSH1 0xE0 SHL PUSH1 0x0 MSTORE PUSH1 0x41 PUSH1 0x4 MSTORE PUSH1 0x24 PUSH1 0x0 REVERT JUMPDEST SWAP1 PUSH1 0x1F DUP1 NOT SWAP2 ADD AND DUP2 ADD SWAP1 DUP2 LT PUSH8 0xFFFFFFFFFFFFFFFF DUP3 GT OR PUSH2 0x1031 JUMPI PUSH1 0x40 MSTORE JUMP JUMPDEST PUSH8 0xFFFFFFFFFFFFFFFF DUP2 GT PUSH2 0x1031 JUMPI PUSH1 0x1F ADD PUSH1 0x1F NOT AND PUSH1 0x20 ADD SWAP1 JUMP JUMPDEST SWAP3 SWAP2 SWAP3 PUSH2 0x1091 DUP3 PUSH2 0x1069 JUMP JUMPDEST SWAP2 PUSH2 0x109F PUSH1 0x40 MLOAD SWAP4 DUP5 PUSH2 0x1047 JUMP JUMPDEST DUP3 SWAP5 DUP2 DUP5 MSTORE DUP2 DUP4 ADD GT PUSH2 0xFC5 JUMPI DUP3 DUP2 PUSH1 0x20 SWAP4 DUP5 PUSH1 0x0 SWAP7 ADD CALLDATACOPY ADD ADD MSTORE JUMP JUMPDEST SWAP1 PUSH1 0x1 DUP3 DUP2 SHR SWAP3 AND DUP1 ISZERO PUSH2 0x10EC JUMPI JUMPDEST PUSH1 0x20 DUP4 LT EQ PUSH2 0x10D6 JUMPI JUMP JUMPDEST PUSH4 0x4E487B71 PUSH1 0xE0 SHL PUSH1 0x0 MSTORE PUSH1 0x22 PUSH1 0x4 MSTORE PUSH1 0x24 PUSH1 0x0 REVERT JUMPDEST SWAP2 PUSH1 0x7F AND SWAP2 PUSH2 0x10CB JUMP JUMPDEST PUSH1 0x0 DUP2 DUP2 MSTORE PUSH1 0x2 PUSH1 0x20 MSTORE PUSH1 0x40 SWAP1 KECCAK256 SLOAD PUSH2 0x1119 SWAP1 PUSH1 0x1 PUSH1 0x1 PUSH1 0xA0 SHL SUB AND ISZERO ISZERO PUSH2 0x1196 JUMP JUMPDEST PUSH1 0x0 SWAP1 DUP2 MSTORE PUSH1 0x4 PUSH1 0x20 MSTORE PUSH1 0x40 SWAP1 KECCAK256 SLOAD PUSH1 0x1 PUSH1 0x1 PUSH1 0xA0 SHL SUB AND SWAP1 JUMP JUMPDEST ISZERO PUSH2 0x113B JUMPI JUMP JUMPDEST PUSH1 0x40 MLOAD PUSH3 0x461BCD PUSH1 0xE5 SHL DUP2 MSTORE PUSH1 0x20 PUSH1 0x4 DUP3 ADD MSTORE PUSH1 0x2D PUSH1 0x24 DUP3 ADD MSTORE PUSH32 0x4552433732313A2063616C6C6572206973206E6F7420746F6B656E206F776E65 PUSH1 0x44 DUP3 ADD MSTORE PUSH13 0x1C881BDC88185C1C1C9BDD9959 PUSH1 0x9A SHL PUSH1 0x64 DUP3 ADD MSTORE PUSH1 0x84 SWAP1 REVERT JUMPDEST ISZERO PUSH2 0x119D JUMPI JUMP JUMPDEST PUSH1 0x40 MLOAD PUSH3 0x461BCD PUSH1 0xE5 SHL DUP2 MSTORE PUSH1 0x20 PUSH1 0x4 DUP3 ADD MSTORE PUSH1 0x18 PUSH1 0x24 DUP3 ADD MSTORE PUSH32 0x4552433732313A20696E76616C696420746F6B656E2049440000000000000000 PUSH1 0x44 DUP3 ADD MSTORE PUSH1 0x64 SWAP1 REVERT JUMPDEST PUSH1 0x0 SWAP1 DUP2 MSTORE PUSH1 0x2 PUSH1 0x20 MSTORE PUSH1 0x40 SWAP1 KECCAK256 SLOAD PUSH1 0x1 PUSH1 0x1 PUSH1 0xA0 SHL SUB AND PUSH2 0x1205 DUP2 ISZERO ISZERO PUSH2 0x1196 JUMP JUMPDEST SWAP1 JUMP JUMPDEST SWAP1 PUSH2 0x122C SWAP4 SWAP3 SWAP2 PUSH2 0x121C PUSH2 0xCA1 DUP5 CALLER PUSH2 0x1250 JUMP JUMPDEST PUSH2 0x1227 DUP4 DUP4 DUP4 PUSH2 0x1318 JUMP JUMPDEST PUSH2 0x1574 JUMP JUMPDEST ISZERO PUSH2 0x1233 JUMPI JUMP JUMPDEST PUSH1 0x40 MLOAD PUSH3 0x461BCD PUSH1 0xE5 SHL DUP2 MSTORE DUP1 PUSH2 0x124C PUSH1 0x4 DUP3 ADD PUSH2 0x148E JUMP JUMPDEST SUB SWAP1 REVERT JUMPDEST SWAP1 PUSH1 0x1 PUSH1 0x1 PUSH1 0xA0 SHL SUB DUP1 DUP1 PUSH2 0x1264 DUP5 PUSH2 0x11E2 JUMP JUMPDEST AND SWAP4 AND SWAP2 DUP4 DUP4 EQ SWAP4 DUP5 ISZERO PUSH2 0x1297 JUMPI JUMPDEST POP DUP4 ISZERO PUSH2 0x1281 JUMPI JUMPDEST POP POP POP SWAP1 JUMP JUMPDEST PUSH2 0x128D SWAP2 SWAP3 SWAP4 POP PUSH2 0x10F6 JUMP JUMPDEST AND EQ CODESIZE DUP1 DUP1 PUSH2 0x127B JUMP JUMPDEST SWAP1 SWAP4 POP PUSH1 0x0 MSTORE PUSH1 0x5 PUSH1 0x20 MSTORE PUSH1 0x40 PUSH1 0x0 KECCAK256 DUP3 PUSH1 0x0 MSTORE PUSH1 0x20 MSTORE PUSH1 0xFF PUSH1 0x40 PUSH1 0x0 KECCAK256 SLOAD AND SWAP3 CODESIZE PUSH2 0x1273 JUMP JUMPDEST ISZERO PUSH2 0x12C5 JUMPI JUMP JUMPDEST PUSH1 0x40 MLOAD PUSH3 0x461BCD PUSH1 0xE5 SHL DUP2 MSTORE PUSH1 0x20 PUSH1 0x4 DUP3 ADD MSTORE PUSH1 0x25 PUSH1 0x24 DUP3 ADD MSTORE PUSH32 0x4552433732313A207472616E736665722066726F6D20696E636F727265637420 PUSH1 0x44 DUP3 ADD MSTORE PUSH5 0x37BBB732B9 PUSH1 0xD9 SHL PUSH1 0x64 DUP3 ADD MSTORE PUSH1 0x84 SWAP1 REVERT JUMPDEST SWAP1 PUSH2 0x1340 SWAP2 PUSH2 0x1326 DUP5 PUSH2 0x11E2 JUMP JUMPDEST PUSH1 0x1 PUSH1 0x1 PUSH1 0xA0 SHL SUB SWAP4 SWAP2 DUP5 AND SWAP3 DUP5 SWAP3 SWAP1 SWAP2 DUP4 AND DUP5 EQ PUSH2 0x12BE JUMP JUMPDEST AND SWAP2 DUP3 ISZERO PUSH2 0x13E5 JUMPI DUP2 PUSH2 0x1365 SWAP2 PUSH2 0x1355 PUSH2 0x152D JUMP JUMPDEST PUSH2 0x135E DUP7 PUSH2 0x11E2 JUMP JUMPDEST AND EQ PUSH2 0x12BE JUMP JUMPDEST PUSH32 0xDDF252AD1BE2C89B69C2B068FC378DAA952BA7F163C4A11628F55A4DF523B3EF PUSH1 0x0 DUP5 DUP2 MSTORE PUSH1 0x4 PUSH1 0x20 MSTORE PUSH1 0x40 DUP2 KECCAK256 PUSH12 0xFFFFFFFFFFFFFFFFFFFFFFFF PUSH1 0xA0 SHL SWAP1 DUP2 DUP2 SLOAD AND SWAP1 SSTORE DUP4 DUP3 MSTORE PUSH1 0x3 PUSH1 0x20 MSTORE PUSH1 0x40 DUP3 KECCAK256 PUSH1 0x0 NOT DUP2 SLOAD ADD SWAP1 SSTORE DUP5 DUP3 MSTORE PUSH1 0x40 DUP3 KECCAK256 PUSH1 0x1 DUP2 SLOAD ADD SWAP1 SSTORE DUP6 DUP3 MSTORE PUSH1 0x2 PUSH1 0x20 MSTORE DUP5 PUSH1 0x40 DUP4 KECCAK256 SWAP2 DUP3 SLOAD AND OR SWAP1 SSTORE DUP1 LOG4 JUMP JUMPDEST PUSH1 0x40 MLOAD PUSH3 0x461BCD PUSH1 0xE5 SHL DUP2 MSTORE PUSH1 0x20 PUSH1 0x4 DUP3 ADD MSTORE PUSH1 0x24 DUP1 DUP3 ADD MSTORE PUSH32 0x4552433732313A207472616E7366657220746F20746865207A65726F20616464 PUSH1 0x44 DUP3 ADD MSTORE PUSH4 0x72657373 PUSH1 0xE0 SHL PUSH1 0x64 DUP3 ADD MSTORE PUSH1 0x84 SWAP1 REVERT JUMPDEST PUSH1 0x7 SLOAD PUSH1 0x1 PUSH1 0x1 PUSH1 0xA0 SHL SUB AND CALLER SUB PUSH2 0x144A JUMPI JUMP JUMPDEST PUSH1 0x64 PUSH1 0x40 MLOAD PUSH3 0x461BCD PUSH1 0xE5 SHL DUP2 MSTORE PUSH1 0x20 PUSH1 0x4 DUP3 ADD MSTORE PUSH1 0x20 PUSH1 0x24 DUP3 ADD MSTORE PUSH32 0x4F776E61626C653A2063616C6C6572206973206E6F7420746865206F776E6572 PUSH1 0x44 DUP3 ADD MSTORE REVERT JUMPDEST PUSH1 0x80 SWAP1 PUSH1 0x20 DUP2 MSTORE PUSH1 0x32 PUSH1 0x20 DUP3 ADD MSTORE PUSH32 0x4552433732313A207472616E7366657220746F206E6F6E204552433732315265 PUSH1 0x40 DUP3 ADD MSTORE PUSH18 0x31B2B4BB32B91034B6B83632B6B2B73A32B9 PUSH1 0x71 SHL PUSH1 0x60 DUP3 ADD MSTORE ADD SWAP1 JUMP JUMPDEST ISZERO PUSH2 0x14E8 JUMPI JUMP JUMPDEST PUSH1 0x40 MLOAD PUSH3 0x461BCD PUSH1 0xE5 SHL DUP2 MSTORE PUSH1 0x20 PUSH1 0x4 DUP3 ADD MSTORE PUSH1 0x1C PUSH1 0x24 DUP3 ADD MSTORE PUSH32 0x4552433732313A20746F6B656E20616C7265616479206D696E74656400000000 PUSH1 0x44 DUP3 ADD MSTORE PUSH1 0x64 SWAP1 REVERT JUMPDEST PUSH1 0xFF PUSH1 0x7 SLOAD PUSH1 0xA0 SHR AND PUSH2 0x153C JUMPI JUMP JUMPDEST PUSH1 0x40 MLOAD PUSH3 0x461BCD PUSH1 0xE5 SHL DUP2 MSTORE PUSH1 0x20 PUSH1 0x4 DUP3 ADD MSTORE PUSH1 0x10 PUSH1 0x24 DUP3 ADD MSTORE PUSH16 0x14185D5CD8589B194E881C185D5CD959 PUSH1 0x82 SHL PUSH1 0x44 DUP3 ADD MSTORE PUSH1 0x64 SWAP1 REVERT JUMPDEST SWAP3 SWAP4 SWAP2 SWAP3 SWAP1 DUP1 EXTCODESIZE ISZERO PUSH2 0x1689 JUMPI PUSH2 0x15C8 SWAP5 PUSH1 0x1 DUP1 PUSH1 0xA0 SHL SUB SWAP5 PUSH1 0x40 MLOAD SWAP3 DUP4 SWAP2 DUP8 PUSH4 0xA85BD01 PUSH1 0xE1 SHL SWAP7 DUP8 DUP6 MSTORE CALLER PUSH1 0x4 DUP7 ADD MSTORE AND PUSH1 0x24 DUP5 ADD MSTORE PUSH1 0x44 DUP4 ADD MSTORE PUSH1 0x80 PUSH1 0x64 DUP4 ADD MSTORE DUP2 DUP1 PUSH1 0x20 SWAP10 DUP11 SWAP6 PUSH1 0x84 DUP4 ADD SWAP1 PUSH2 0xF6F JUMP JUMPDEST SUB SWAP2 PUSH1 0x0 SWAP9 DUP10 SWAP2 AND GAS CALL DUP5 SWAP2 DUP2 PUSH2 0x1649 JUMPI JUMPDEST POP PUSH2 0x1638 JUMPI POP POP POP RETURNDATASIZE PUSH1 0x0 EQ PUSH2 0x1630 JUMPI RETURNDATASIZE PUSH2 0x15F4 DUP2 PUSH2 0x1069 JUMP JUMPDEST SWAP1 PUSH2 0x1602 PUSH1 0x40 MLOAD SWAP3 DUP4 PUSH2 0x1047 JUMP JUMPDEST DUP2 MSTORE DUP1 SWAP2 DUP4 RETURNDATASIZE SWAP3 ADD RETURNDATACOPY JUMPDEST DUP1 MLOAD SWAP2 DUP3 PUSH2 0x162D JUMPI PUSH1 0x40 MLOAD PUSH3 0x461BCD PUSH1 0xE5 SHL DUP2 MSTORE DUP1 PUSH2 0x124C PUSH1 0x4 DUP3 ADD PUSH2 0x148E JUMP JUMPDEST ADD REVERT JUMPDEST POP PUSH1 0x60 PUSH2 0x160C JUMP JUMPDEST PUSH1 0x1 PUSH1 0x1 PUSH1 0xE0 SHL SUB NOT AND EQ SWAP3 POP SWAP1 POP JUMP JUMPDEST SWAP1 SWAP2 POP DUP6 DUP2 DUP2 RETURNDATASIZE DUP4 GT PUSH2 0x1682 JUMPI JUMPDEST PUSH2 0x1661 DUP2 DUP4 PUSH2 0x1047 JUMP JUMPDEST DUP2 ADD SUB SLT PUSH2 0x7CA JUMPI MLOAD PUSH1 0x1 PUSH1 0x1 PUSH1 0xE0 SHL SUB NOT DUP2 AND DUP2 SUB PUSH2 0x7CA JUMPI SWAP1 CODESIZE PUSH2 0x15DA JUMP JUMPDEST POP RETURNDATASIZE PUSH2 0x1657 JUMP JUMPDEST POP POP SWAP2 POP POP PUSH1 0x1 SWAP1 JUMP INVALID LOG2 PUSH5 0x6970667358 0x22 SLT KECCAK256 SWAP11 0xF8 CALLDATASIZE MLOAD 0xAD EXTCODESIZE 0xF9 0xBE OR 0xE2 PUSH16 0x32CB1C88501E0CE40DEA44FC1DF08288 0xA5 DUP6 SSTORE 0xFC 0xF8 PUSH5 0x736F6C6343 STOP ADDMOD XOR STOP CALLER "},"methodIdentifiers":{"adminTransfer(address,address,uint256)":"da72c1e8","approve(address,uint256)":"095ea7b3","balanceOf(address)":"70a08231","getApproved(uint256)":"081812fc","getTotalSupply()":"c4e41b22","isApprovedForAll(address,address)":"e985e9c5","mintLandNFT(address,string)":"c233557b","name()":"06fdde03","owner()":"8da5cb5b","ownerOf(uint256)":"6352211e","pause()":"8456cb59","paused()":"5c975abb","renounceOwnership()":"715018a6","safeTransferFrom(address,address,uint256)":"42842e0e","safeTransferFrom(address,address,uint256,bytes)":"b88d4fde","setApprovalForAll(address,bool)":"a22cb465","supportsInterface(bytes4)":"01ffc9a7","symbol()":"95d89b41","tokenURI(uint256)":"c87b56dd","transferFrom(address,address,uint256)":"23b872dd","transferOwnership(address)":"f2fde38b","unpause()":"3f4ba83a"}}}}}