{"contracts/MultiSigWorkflow.sol":{"MultiSigWorkflow":{"abi":[{"inputs":[],"stateMutability":"nonpayable","type":"constructor"},{"anonymous":false,"inputs":[{"indexed":true,"internalType":"uint256","name":"transactionId","type":"uint256"},{"indexed":false,"internalType":"string","name":"reason","type":"string"}],"name":"BatchSignError","type":"event"},{"anonymous":false,"inputs":[{"indexed":true,"internalType":"uint256","name":"transactionId","type":"uint256"},{"indexed":true,"internalType":"address","name":"signer","type":"address"}],"name":"SignatureRevoked","type":"event"},{"anonymous":false,"inputs":[{"indexed":true,"internalType":"uint256","name":"transactionId","type":"uint256"},{"indexed":false,"internalType":"string","name":"documentCID","type":"string"},{"indexed":true,"internalType":"address","name":"creator","type":"address"}],"name":"TransactionCreated","type":"event"},{"anonymous":false,"inputs":[{"indexed":true,"internalType":"uint256","name":"transactionId","type":"uint256"},{"indexed":true,"internalType":"address","name":"by","type":"address"}],"name":"TransactionRevertedToPending","type":"event"},{"anonymous":false,"inputs":[{"indexed":true,"internalType":"uint256","name":"transactionId","type":"uint256"},{"indexed":true,"internalType":"address","name":"signer","type":"address"},{"indexed":false,"internalType":"enum MultiSigWorkflow.SignerRole","name":"role","type":"uint8"},{"indexed":false,"internalType":"bool","name":"isApproved","type":"bool"}],"name":"TransactionSigned","type":"event"},{"anonymous":false,"inputs":[{"indexed":true,"internalType":"uint256","name":"transactionId","type":"uint256"},{"indexed":false,"internalType":"enum MultiSigWorkflow.TransactionStatus","name":"newStatus","type":"uint8"}],"name":"TransactionStatusChanged","type":"event"},{"inputs":[],"name":"REQUIRED_CB_SIGS","outputs":[{"internalType":"uint8","name":"","type":"uint8"}],"stateMutability":"view","type":"function"},{"inputs":[],"name":"REQUIRED_LD_SIGS","outputs":[{"internalType":"uint8","name":"","type":"uint8"}],"stateMutability":"view","type":"function"},{"inputs":[],"name":"admin","outputs":[{"internalType":"address","name":"","type":"address"}],"stateMutability":"view","type":"function"},{"inputs":[{"internalType":"uint256","name":"_txId","type":"uint256"}],"name":"adminRevertTransaction","outputs":[],"stateMutability":"nonpayable","type":"function"},{"inputs":[{"internalType":"uint256[]","name":"_txIds","type":"uint256[]"},{"internalType":"bool[]","name":"_isApproved","type":"bool[]"},{"internalType":"string[]","name":"_reasons","type":"string[]"}],"name":"batchSignTransactions","outputs":[],"stateMutability":"nonpayable","type":"function"},{"inputs":[{"internalType":"string","name":"_documentCID","type":"string"}],"name":"createTransaction","outputs":[{"internalType":"uint256","name":"","type":"uint256"}],"stateMutability":"nonpayable","type":"function"},{"inputs":[{"internalType":"uint256","name":"_txId","type":"uint256"}],"name":"getTransactionSigners","outputs":[{"internalType":"address[]","name":"","type":"address[]"}],"stateMutability":"view","type":"function"},{"inputs":[{"internalType":"uint256","name":"_txId","type":"uint256"}],"name":"revokeMySignature","outputs":[],"stateMutability":"nonpayable","type":"function"},{"inputs":[{"internalType":"address","name":"_user","type":"address"},{"internalType":"enum MultiSigWorkflow.SignerRole","name":"_role","type":"uint8"}],"name":"setUserRole","outputs":[],"stateMutability":"nonpayable","type":"function"},{"inputs":[{"internalType":"uint256","name":"_txId","type":"uint256"},{"internalType":"bool","name":"_isApproved","type":"bool"},{"internalType":"string","name":"_reason","type":"string"}],"name":"signTransaction","outputs":[],"stateMutability":"nonpayable","type":"function"},{"inputs":[],"name":"transactionCount","outputs":[{"internalType":"uint256","name":"","type":"uint256"}],"stateMutability":"view","type":"function"},{"inputs":[{"internalType":"uint256","name":"","type":"uint256"},{"internalType":"address","name":"","type":"address"}],"name":"transactionSignatures","outputs":[{"internalType":"address","name":"signer","type":"address"},{"internalType":"enum MultiSigWorkflow.SignerRole","name":"role","type":"uint8"},{"internalType":"uint256","name":"timestamp","type":"uint256"},{"internalType":"bool","name":"isApproved","type":"bool"},{"internalType":"string","name":"reason","type":"string"}],"stateMutability":"view","type":"function"},{"inputs":[{"internalType":"uint256","name":"","type":"uint256"},{"internalType":"uint256","name":"","type":"uint256"}],"name":"transactionSigners","outputs":[{"internalType":"address","name":"","type":"address"}],"stateMutability":"view","type":"function"},{"inputs":[{"internalType":"uint256","name":"","type":"uint256"}],"name":"transactions","outputs":[{"internalType":"uint256","name":"transactionId","type":"uint256"},{"internalType":"string","name":"documentCID","type":"string"},{"internalType":"address","name":"creator","type":"address"},{"internalType":"uint8","name":"cbSignaturesCount","type":"uint8"},{"internalType":"uint8","name":"ldSignaturesCount","type":"uint8"},{"internalType":"enum MultiSigWorkflow.TransactionStatus","name":"status","type":"uint8"}],"stateMutability":"view","type":"function"},{"inputs":[{"internalType":"address","name":"","type":"address"}],"name":"userRoles","outputs":[{"internalType":"enum MultiSigWorkflow.SignerRole","name":"","type":"uint8"}],"stateMutability":"view","type":"function"}],"evm":{"bytecode":{"linkReferences":{},"object":"6080806040523461002857600580546001600160a01b03191633179055611aef908161002e8239f35b600080fdfe6080604052600436101561001257600080fd5b60003560e01c806303a696111461162f57806312255d09146116135780633ecc17211461155b5780634985e4891461111a5780634a5f11c8146110c85780634d9e78d414610e3a57806374d5e10014610df65780639ace38c214610d63578063a983620514610cc0578063b5cea01914610ca4578063b77bf60014610c86578063be87f7a9146109f7578063d319fd9914610354578063e5071a6f146100ef5763f851a440146100c157600080fd5b346100ea5760003660031901126100ea576005546040516001600160a01b039091168152602090f35b600080fd5b346100ea576020806003193601126100ea5760043590816000526001815260406000209061011f825415156118f5565b60028092019182549160ff92838160b01c1660048110156102025760031461030f5785600052828252604060002033600052825260406000206001810154156102d1578085858193015416610218575b5050508460005281815260406000209033600052526101916040600020611a20565b33847fd9292c3253f843573046012bbe3c0f0afb9eb06db8b9eee90bea5a74ae02b379600080a38254918260b01c16600481101561020257146101d057005b60ff60b01b1916905533907fe7f36f6e5a5a477a86cc0e5574a2d2a38bcc76884ae424d0cab7147411cdb198600080a3005b634e487b7160e01b600052602160045260246000fd5b5460a01c169060038210156102025783826001879414806102c3575b156102705750505061024e61026891865460a01c16611a10565b855460ff60a01b191660a09190911b60ff60a01b16178555565b85838161016f565b14806102b5575b610283575b5050610268565b6102ae916102949160a81c16611a10565b855460ff60a81b191660a89190911b60ff60a81b16178555565b828661027c565b50818160a81c161515610277565b50838360a01c161515610234565b60405162461bcd60e51b81526004810184905260166024820152754e6f207369676e617475726520746f207265766f6b6560501b6044820152606490fd5b60405162461bcd60e51b815260048101839052601d60248201527f43616e6e6f74207265766f6b6520616674657220657865637574696f6e0000006044820152606490fd5b346100ea5760603660031901126100ea5760043567ffffffffffffffff81116100ea5761038590369060040161188c565b9060243567ffffffffffffffff81116100ea576103a690369060040161188c565b60443567ffffffffffffffff81116100ea576103c690369060040161188c565b949091808214806109ee575b156109b05733600052600460205260ff60406000205416936003851015806102025760018614938480156109a2575b61040d90929192611941565b6000915b80831061041a57005b61042583828b611a7c565b359283600052600160205260406000209384541561093b5760ff600286015460b01c166004811015610202576108d4578060005260026020526040600020336000526020526001604060002001546108745761048a610485838989611a7c565b611a8c565b8c83101561085e578260051b8a0135601e198b3603018112156100ea5767ffffffffffffffff818c0135116100ea57808b013536036020828d0101136100ea576105098c91604051936104dc856116a5565b3385526104ed602086019485611981565b4260408601521515606085015236908d018035906020016116e3565b608083015282600052600260205260406000203360005260205260406000209160018060a01b0381511691835490519260038410156102025760809360ff60a01b9060a01b16916affffffffffffffffffffff60a81b161717835560408101516001840155600283016060820151151560ff80198354169116179055015180519067ffffffffffffffff8211610848576105a6600384015461176d565b90601f9182811161080b575b50602091831160011461079c5791806105e592600394600092610791575b50508160011b916000199060031b1c19161790565b9101555b8060005260036020526106003360406000206119a4565b8961060f610485848a8a611a7c565b15610757575083610202578990881561070b578561065e61063d60ff6002600198999a015460a01c166119e4565b60028301805460ff60a01b191660a09290921b60ff60a01b16919091179055565b6002810154600260ff8260a01c161015806106fb575b6106c8575b50505b7f9d9bea5c4781935c57fd5f2a2f437cb750e3fb646da05e8aa40a122acbcdbd316106bc6106ae610485868c8c611a7c565b6040519182913396836119f5565b0390a35b019190610411565b6002908660b01b9060ff60b01b19161791015580600080516020611a9a8339815191526020604051878152a28d80610679565b508560ff8260a81c161015610674565b60019394506000956002830361065e5761075261073160ff600284015460a81c166119e4565b60028301805460ff60a81b191660a89290921b60ff60a81b16919091179055565b61065e565b90600193949560028560b11b60ff60b01b1982840154161791015580600080516020611a9a833981519152602060405160028152a261067c565b0151905038806105d0565b906003840160005260206000209160005b601f19851681106107f35750918391600193600395601f198116106107db575b505050811b019101556105e9565b015160001983861b60f8161c191690553880806107cd565b919260206001819286850151815501940192016107ad565b610839906003860160005260206000208480870160051c8201926020881061083f575b0160051c019061198d565b386105b2565b9250819261082e565b634e487b7160e01b600052604160045260246000fd5b634e487b7160e01b600052603260045260246000fd5b6001929394507f1488ac69826eac1379d94b07633874a0e8e2b3ecf326c12525873610ce027a8e604051806108cc8160609060208152600e60208201526d105b1c9958591e481cda59db995960921b60408201520190565b0390a26106c0565b6001929394507f1488ac69826eac1379d94b07633874a0e8e2b3ecf326c12525873610ce027a8e604051806108cc8160609060208152601a60208201527f5472616e73616374696f6e206973206e6f742070656e64696e6700000000000060408201520190565b6001929394507f1488ac69826eac1379d94b07633874a0e8e2b3ecf326c12525873610ce027a8e604051806108cc8160609060208152601a60208201527f5472616e73616374696f6e20646f6573206e6f7420657869737400000000000060408201520190565b506000915060028714610401565b60405162461bcd60e51b8152602060048201526016602482015275082e4e4c2f240d8cadccee8d0e640dad2e6dac2e8c6d60531b6044820152606490fd5b508582146103d2565b346100ea5760203660031901126100ea57610a1d60018060a01b036005541633146118bd565b60043560005260016020526040600020610a39815415156118f5565b60ff600282015460b01c16906004821015610202576003809214610c4157600435600052600360205260406000209060005b8254811015610bcc57610a7e8184611748565b60018060a01b03915490861b1c1690600435600052600260205260406000208260005260205260406000206001810154610abe575b506001915001610a6b565b60ff600282015416610af9575b506001916004356000526002602052604060002090600052602052610af36040600020611a20565b85610ab3565b549160ff60a093841c1692868410156102025783600180951480610bba575b15610b5b5750610b3460ff610b55926002880154901c16611a10565b60028601805460ff60a01b191660a09290921b60ff60a01b16919091179055565b91610acb565b600291501480610ba7575b15610b5557610ba2610b8160ff600287015460a81c16611a10565b60028601805460ff60a81b191660a89290921b60ff60a81b16919091179055565b610b55565b5060ff600285015460a81c161515610b66565b5060ff6002870154831c161515610b18565b506004356000526003602052604060002080546000825580610c25575b60028301805462ffffff60a01b19169055336004357fe7f36f6e5a5a477a86cc0e5574a2d2a38bcc76884ae424d0cab7147411cdb198600080a3005b610c3a9160005260206000209081019061198d565b8180610be9565b60405162461bcd60e51b815260206004820152601d60248201527f43616e6e6f742072657665727420616674657220657865637574696f6e0000006044820152606490fd5b346100ea5760003660031901126100ea576020600054604051908152f35b346100ea5760003660031901126100ea57602060405160028152f35b346100ea5760403660031901126100ea576001600160a01b03602435818116908190036100ea576004356000526002602052604060002090600052602052604060002090610d5f825492600181015490610d24600360ff60028401541692016117a7565b91610d426040519687968116875260ff602088019160a01c16611760565b60408501521515606084015260a0608084015260a083019061184c565b0390f35b346100ea5760203660031901126100ea57600435600052600160205260406000208054906002610d95600183016117a7565b91015460ff610dbb818360b01c169360405195865260c0602087015260c086019061184c565b6001600160a01b038316604086015260a083901c8216606086015260a89290921c166080840152600482101561020257829160a08301520390f35b346100ea5760203660031901126100ea576001600160a01b03610e1761168f565b166000526004602052602060ff60406000205416610e386040518092611760565bf35b346100ea576020806003193601126100ea5767ffffffffffffffff6004358181116100ea57610e6d90369060040161172a565b60005460001992908381146110b257600180910193846000556040519260c08401848110828211176108485760405285845286840193858552604081019433865260608201926000845260808301946000865260a0840196600088528a600052808c52604060002094518555808501935190815193841161084857610ef2855461176d565b8d601f8211611076575b50508c8093601f8611600114610ffb57505050610f939694610f7994610f428560ff9995968a976002966000926107915750508160011b916000199060031b1c19161790565b90555b98519801805491516001600160a81b03199092166001600160a01b039990991698909817911660a01b60ff60a01b16178655565b51845460ff60a81b1916911660a81b60ff60a81b16178355565b51600481101561020257815460ff60b01b191660b09190911b60ff60b01b16179055604051838152339183917f6b788bd9be8b568189b1598944788128be6dc1ad3c711fdc84fa4fa1fa21ea18918190610ff0908883019061184c565b0390a3604051908152f35b9194939092601f1985168760005284600020946000905b82821061105f57505094600294610f939b9994610f79999460ff9c9894848e9b9610611047575b50505050811b019055610f45565b01519060f88460031b161c1916905538808080611039565b808986988294978701518155019701940190611012565b6110a191876000528160002090601f880160051c82019288106110a8575b601f0160051c019061198d565b8d8d610efc565b9091508190611094565b634e487b7160e01b600052601160045260246000fd5b346100ea5760403660031901126100ea576024356004356000526003602052604060002080548210156100ea5760209161110191611748565b905460405160039290921b1c6001600160a01b03168152f35b346100ea5760603660031901126100ea57602435151580602435036100ea5767ffffffffffffffff6044358181116100ea5761115a90369060040161172a565b6004356000526001602052604060002091611177835415156118f5565b60ff600284015460b01c166004811015610202576115165760043560005260026020526040600020336000526020526001604060002001546114e05733600052600460205260ff6040600020541693600385101591826102025760018614938480156114d2575b6111e790611941565b604051926111f4846116a5565b338452602084016112058982611981565b60408501904282526060860192835260808601938452600435600052600260205260406000203360005260205260406000209560018060a01b039051168654915160038110156102025760ff60a01b9060a01b16916affffffffffffffffffffff60a81b1617178555516001850155600284019051151560ff801983541691161790555180519182116108485761129f600384015461176d565b601f811161149d575b50602090601f83116001146114305791806112dc926003946000926114255750508160011b916000199060031b1c19161790565b9101555b60043560005260036020526112f93360406000206119a4565b602435156113ea5761020257156113c75761132061063d60ff600284015460a01c166119e4565b6002810154600260ff8260a01c161015806113b6575b61137c575b50505b604051907f9d9bea5c4781935c57fd5f2a2f437cb750e3fb646da05e8aa40a122acbcdbd313392806113776004359460243590836119f5565b0390a3005b60ff60b01b1916600160b01b17600291909101556040516001815260043590600080516020611a9a83398151915290602090a2818061133b565b50600160ff8260a81c161015611336565b60028203611320576113e561073160ff600284015460a81c166119e4565b611320565b50506002908101805460ff60b01b1916600160b11b17905560405190815260043590600080516020611a9a83398151915290602090a261133e565b0151905089806105d0565b90601f198316916003850160005260206000209260005b8181106114855750916001939185600396941061146d575b505050811b019101556112e0565b015160001983861b60f8161c1916905588808061145f565b92936020600181928786015181550195019301611447565b6114cc90600385016000526020600020601f850160051c810191602086106110a857601f0160051c019061198d565b876112a8565b5060009350600287146111de565b60405162461bcd60e51b815260206004820152600e60248201526d105b1c9958591e481cda59db995960921b6044820152606490fd5b60405162461bcd60e51b815260206004820152601a60248201527f5472616e73616374696f6e206973206e6f742070656e64696e670000000000006044820152606490fd5b346100ea576020806003193601126100ea5760043560005260038152604060002060405190818382549182815201908192600052846000209060005b868282106115f65786866115ad828803836116c1565b604051928392818401908285525180915260408401929160005b8281106115d657505050500390f35b83516001600160a01b0316855286955093810193928101926001016115c7565b83546001600160a01b031685529093019260019283019201611597565b346100ea5760003660031901126100ea57602060405160018152f35b346100ea5760403660031901126100ea5761164861168f565b6024359060038210156100ea576005546001600160a01b03919061166f90831633146118bd565b16600052600460205260406000209060ff80198354169116179055600080f35b600435906001600160a01b03821682036100ea57565b60a0810190811067ffffffffffffffff82111761084857604052565b90601f8019910116810190811067ffffffffffffffff82111761084857604052565b92919267ffffffffffffffff8211610848576040519161170d601f8201601f1916602001846116c1565b8294818452818301116100ea578281602093846000960137010152565b9080601f830112156100ea57816020611745933591016116e3565b90565b805482101561085e5760005260206000200190600090565b9060038210156102025752565b90600182811c9216801561179d575b602083101461178757565b634e487b7160e01b600052602260045260246000fd5b91607f169161177c565b906040519182600082546117ba8161176d565b9081845260209460019160018116908160001461182a57506001146117eb575b5050506117e9925003836116c1565b565b600090815285812095935091905b8183106118125750506117e993508201013880806117da565b855488840185015294850194879450918301916117f9565b925050506117e994925060ff191682840152151560051b8201013880806117da565b919082519283825260005b848110611878575050826000602080949584010152601f8019910116010190565b602081830181015184830182015201611857565b9181601f840112156100ea5782359167ffffffffffffffff83116100ea576020808501948460051b0101116100ea57565b156118c457565b60405162461bcd60e51b81526020600482015260096024820152682737ba1030b236b4b760b91b6044820152606490fd5b156118fc57565b60405162461bcd60e51b815260206004820152601a60248201527f5472616e73616374696f6e20646f6573206e6f742065786973740000000000006044820152606490fd5b1561194857565b60405162461bcd60e51b8152602060048201526011602482015270556e617574686f72697a656420726f6c6560781b6044820152606490fd5b60038210156102025752565b818110611998575050565b6000815560010161198d565b805468010000000000000000811015610848576119c691600182018155611748565b60018060a09493941b038084549260031b9316831b921b1916179055565b60ff1660ff81146110b25760010190565b909291602090611a09836040810196611760565b1515910152565b60ff1680156110b2576000190190565b600360009182815582600182015582600282015501611a3f815461176d565b80611a4957505050565b82601f8211600114611a5a57505055565b9091808252611a78601f60208420940160051c84016001850161198d565b5555565b919081101561085e5760051b0190565b3580151581036100ea579056fe003013893708bd175bc8eeedd6ea1e367024bbc9bc7b110e7ed37bc77aceac57a2646970667358221220fa98f32064339cba8b1519c8eb5e89a2e730199d3aef82bfc0ff4d9f502bf4d364736f6c63430008180033","opcodes":"PUSH1 0x80 DUP1 PUSH1 0x40 MSTORE CALLVALUE PUSH2 0x28 JUMPI PUSH1 0x5 DUP1 SLOAD PUSH1 0x1 PUSH1 0x1 PUSH1 0xA0 SHL SUB NOT AND CALLER OR SWAP1 SSTORE PUSH2 0x1AEF SWAP1 DUP2 PUSH2 0x2E DUP3 CODECOPY RETURN JUMPDEST PUSH1 0x0 DUP1 REVERT INVALID PUSH1 0x80 PUSH1 0x40 MSTORE PUSH1 0x4 CALLDATASIZE LT ISZERO PUSH2 0x12 JUMPI PUSH1 0x0 DUP1 REVERT JUMPDEST PUSH1 0x0 CALLDATALOAD PUSH1 0xE0 SHR DUP1 PUSH4 0x3A69611 EQ PUSH2 0x162F JUMPI DUP1 PUSH4 0x12255D09 EQ PUSH2 0x1613 JUMPI DUP1 PUSH4 0x3ECC1721 EQ PUSH2 0x155B JUMPI DUP1 PUSH4 0x4985E489 EQ PUSH2 0x111A JUMPI DUP1 PUSH4 0x4A5F11C8 EQ PUSH2 0x10C8 JUMPI DUP1 PUSH4 0x4D9E78D4 EQ PUSH2 0xE3A JUMPI DUP1 PUSH4 0x74D5E100 EQ PUSH2 0xDF6 JUMPI DUP1 PUSH4 0x9ACE38C2 EQ PUSH2 0xD63 JUMPI DUP1 PUSH4 0xA9836205 EQ PUSH2 0xCC0 JUMPI DUP1 PUSH4 0xB5CEA019 EQ PUSH2 0xCA4 JUMPI DUP1 PUSH4 0xB77BF600 EQ PUSH2 0xC86 JUMPI DUP1 PUSH4 0xBE87F7A9 EQ PUSH2 0x9F7 JUMPI DUP1 PUSH4 0xD319FD99 EQ PUSH2 0x354 JUMPI DUP1 PUSH4 0xE5071A6F EQ PUSH2 0xEF JUMPI PUSH4 0xF851A440 EQ PUSH2 0xC1 JUMPI PUSH1 0x0 DUP1 REVERT JUMPDEST CALLVALUE PUSH2 0xEA JUMPI PUSH1 0x0 CALLDATASIZE PUSH1 0x3 NOT ADD SLT PUSH2 0xEA JUMPI PUSH1 0x5 SLOAD PUSH1 0x40 MLOAD PUSH1 0x1 PUSH1 0x1 PUSH1 0xA0 SHL SUB SWAP1 SWAP2 AND DUP2 MSTORE PUSH1 0x20 SWAP1 RETURN JUMPDEST PUSH1 0x0 DUP1 REVERT JUMPDEST CALLVALUE PUSH2 0xEA JUMPI PUSH1 0x20 DUP1 PUSH1 0x3 NOT CALLDATASIZE ADD SLT PUSH2 0xEA JUMPI PUSH1 0x4 CALLDATALOAD SWAP1 DUP2 PUSH1 0x0 MSTORE PUSH1 0x1 DUP2 MSTORE PUSH1 0x40 PUSH1 0x0 KECCAK256 SWAP1 PUSH2 0x11F DUP3 SLOAD ISZERO ISZERO PUSH2 0x18F5 JUMP JUMPDEST PUSH1 0x2 DUP1 SWAP3 ADD SWAP2 DUP3 SLOAD SWAP2 PUSH1 0xFF SWAP3 DUP4 DUP2 PUSH1 0xB0 SHR AND PUSH1 0x4 DUP2 LT ISZERO PUSH2 0x202 JUMPI PUSH1 0x3 EQ PUSH2 0x30F JUMPI DUP6 PUSH1 0x0 MSTORE DUP3 DUP3 MSTORE PUSH1 0x40 PUSH1 0x0 KECCAK256 CALLER PUSH1 0x0 MSTORE DUP3 MSTORE PUSH1 0x40 PUSH1 0x0 KECCAK256 PUSH1 0x1 DUP2 ADD SLOAD ISZERO PUSH2 0x2D1 JUMPI DUP1 DUP6 DUP6 DUP2 SWAP4 ADD SLOAD AND PUSH2 0x218 JUMPI JUMPDEST POP POP POP DUP5 PUSH1 0x0 MSTORE DUP2 DUP2 MSTORE PUSH1 0x40 PUSH1 0x0 KECCAK256 SWAP1 CALLER PUSH1 0x0 MSTORE MSTORE PUSH2 0x191 PUSH1 0x40 PUSH1 0x0 KECCAK256 PUSH2 0x1A20 JUMP JUMPDEST CALLER DUP5 PUSH32 0xD9292C3253F843573046012BBE3C0F0AFB9EB06DB8B9EEE90BEA5A74AE02B379 PUSH1 0x0 DUP1 LOG3 DUP3 SLOAD SWAP2 DUP3 PUSH1 0xB0 SHR AND PUSH1 0x4 DUP2 LT ISZERO PUSH2 0x202 JUMPI EQ PUSH2 0x1D0 JUMPI STOP JUMPDEST PUSH1 0xFF PUSH1 0xB0 SHL NOT AND SWAP1 SSTORE CALLER SWAP1 PUSH32 0xE7F36F6E5A5A477A86CC0E5574A2D2A38BCC76884AE424D0CAB7147411CDB198 PUSH1 0x0 DUP1 LOG3 STOP JUMPDEST PUSH4 0x4E487B71 PUSH1 0xE0 SHL PUSH1 0x0 MSTORE PUSH1 0x21 PUSH1 0x4 MSTORE PUSH1 0x24 PUSH1 0x0 REVERT JUMPDEST SLOAD PUSH1 0xA0 SHR AND SWAP1 PUSH1 0x3 DUP3 LT ISZERO PUSH2 0x202 JUMPI DUP4 DUP3 PUSH1 0x1 DUP8 SWAP5 EQ DUP1 PUSH2 0x2C3 JUMPI JUMPDEST ISZERO PUSH2 0x270 JUMPI POP POP POP PUSH2 0x24E PUSH2 0x268 SWAP2 DUP7 SLOAD PUSH1 0xA0 SHR AND PUSH2 0x1A10 JUMP JUMPDEST DUP6 SLOAD PUSH1 0xFF PUSH1 0xA0 SHL NOT AND PUSH1 0xA0 SWAP2 SWAP1 SWAP2 SHL PUSH1 0xFF PUSH1 0xA0 SHL AND OR DUP6 SSTORE JUMP JUMPDEST DUP6 DUP4 DUP2 PUSH2 0x16F JUMP JUMPDEST EQ DUP1 PUSH2 0x2B5 JUMPI JUMPDEST PUSH2 0x283 JUMPI JUMPDEST POP POP PUSH2 0x268 JUMP JUMPDEST PUSH2 0x2AE SWAP2 PUSH2 0x294 SWAP2 PUSH1 0xA8 SHR AND PUSH2 0x1A10 JUMP JUMPDEST DUP6 SLOAD PUSH1 0xFF PUSH1 0xA8 SHL NOT AND PUSH1 0xA8 SWAP2 SWAP1 SWAP2 SHL PUSH1 0xFF PUSH1 0xA8 SHL AND OR DUP6 SSTORE JUMP JUMPDEST DUP3 DUP7 PUSH2 0x27C JUMP JUMPDEST POP DUP2 DUP2 PUSH1 0xA8 SHR AND ISZERO ISZERO PUSH2 0x277 JUMP JUMPDEST POP DUP4 DUP4 PUSH1 0xA0 SHR AND ISZERO ISZERO PUSH2 0x234 JUMP JUMPDEST PUSH1 0x40 MLOAD PUSH3 0x461BCD PUSH1 0xE5 SHL DUP2 MSTORE PUSH1 0x4 DUP2 ADD DUP5 SWAP1 MSTORE PUSH1 0x16 PUSH1 0x24 DUP3 ADD MSTORE PUSH22 0x4E6F207369676E617475726520746F207265766F6B65 PUSH1 0x50 SHL PUSH1 0x44 DUP3 ADD MSTORE PUSH1 0x64 SWAP1 REVERT JUMPDEST PUSH1 0x40 MLOAD PUSH3 0x461BCD PUSH1 0xE5 SHL DUP2 MSTORE PUSH1 0x4 DUP2 ADD DUP4 SWAP1 MSTORE PUSH1 0x1D PUSH1 0x24 DUP3 ADD MSTORE PUSH32 0x43616E6E6F74207265766F6B6520616674657220657865637574696F6E000000 PUSH1 0x44 DUP3 ADD MSTORE PUSH1 0x64 SWAP1 REVERT JUMPDEST CALLVALUE PUSH2 0xEA JUMPI PUSH1 0x60 CALLDATASIZE PUSH1 0x3 NOT ADD SLT PUSH2 0xEA JUMPI PUSH1 0x4 CALLDATALOAD PUSH8 0xFFFFFFFFFFFFFFFF DUP2 GT PUSH2 0xEA JUMPI PUSH2 0x385 SWAP1 CALLDATASIZE SWAP1 PUSH1 0x4 ADD PUSH2 0x188C JUMP JUMPDEST SWAP1 PUSH1 0x24 CALLDATALOAD PUSH8 0xFFFFFFFFFFFFFFFF DUP2 GT PUSH2 0xEA JUMPI PUSH2 0x3A6 SWAP1 CALLDATASIZE SWAP1 PUSH1 0x4 ADD PUSH2 0x188C JUMP JUMPDEST PUSH1 0x44 CALLDATALOAD PUSH8 0xFFFFFFFFFFFFFFFF DUP2 GT PUSH2 0xEA JUMPI PUSH2 0x3C6 SWAP1 CALLDATASIZE SWAP1 PUSH1 0x4 ADD PUSH2 0x188C JUMP JUMPDEST SWAP5 SWAP1 SWAP2 DUP1 DUP3 EQ DUP1 PUSH2 0x9EE JUMPI JUMPDEST ISZERO PUSH2 0x9B0 JUMPI CALLER PUSH1 0x0 MSTORE PUSH1 0x4 PUSH1 0x20 MSTORE PUSH1 0xFF PUSH1 0x40 PUSH1 0x0 KECCAK256 SLOAD AND SWAP4 PUSH1 0x3 DUP6 LT ISZERO DUP1 PUSH2 0x202 JUMPI PUSH1 0x1 DUP7 EQ SWAP4 DUP5 DUP1 ISZERO PUSH2 0x9A2 JUMPI JUMPDEST PUSH2 0x40D SWAP1 SWAP3 SWAP2 SWAP3 PUSH2 0x1941 JUMP JUMPDEST PUSH1 0x0 SWAP2 JUMPDEST DUP1 DUP4 LT PUSH2 0x41A JUMPI STOP JUMPDEST PUSH2 0x425 DUP4 DUP3 DUP12 PUSH2 0x1A7C JUMP JUMPDEST CALLDATALOAD SWAP3 DUP4 PUSH1 0x0 MSTORE PUSH1 0x1 PUSH1 0x20 MSTORE PUSH1 0x40 PUSH1 0x0 KECCAK256 SWAP4 DUP5 SLOAD ISZERO PUSH2 0x93B JUMPI PUSH1 0xFF PUSH1 0x2 DUP7 ADD SLOAD PUSH1 0xB0 SHR AND PUSH1 0x4 DUP2 LT ISZERO PUSH2 0x202 JUMPI PUSH2 0x8D4 JUMPI DUP1 PUSH1 0x0 MSTORE PUSH1 0x2 PUSH1 0x20 MSTORE PUSH1 0x40 PUSH1 0x0 KECCAK256 CALLER PUSH1 0x0 MSTORE PUSH1 0x20 MSTORE PUSH1 0x1 PUSH1 0x40 PUSH1 0x0 KECCAK256 ADD SLOAD PUSH2 0x874 JUMPI PUSH2 0x48A PUSH2 0x485 DUP4 DUP10 DUP10 PUSH2 0x1A7C JUMP JUMPDEST PUSH2 0x1A8C JUMP JUMPDEST DUP13 DUP4 LT ISZERO PUSH2 0x85E JUMPI DUP3 PUSH1 0x5 SHL DUP11 ADD CALLDATALOAD PUSH1 0x1E NOT DUP12 CALLDATASIZE SUB ADD DUP2 SLT ISZERO PUSH2 0xEA JUMPI PUSH8 0xFFFFFFFFFFFFFFFF DUP2 DUP13 ADD CALLDATALOAD GT PUSH2 0xEA JUMPI DUP1 DUP12 ADD CALLDATALOAD CALLDATASIZE SUB PUSH1 0x20 DUP3 DUP14 ADD ADD SGT PUSH2 0xEA JUMPI PUSH2 0x509 DUP13 SWAP2 PUSH1 0x40 MLOAD SWAP4 PUSH2 0x4DC DUP6 PUSH2 0x16A5 JUMP JUMPDEST CALLER DUP6 MSTORE PUSH2 0x4ED PUSH1 0x20 DUP7 ADD SWAP5 DUP6 PUSH2 0x1981 JUMP JUMPDEST TIMESTAMP PUSH1 0x40 DUP7 ADD MSTORE ISZERO ISZERO PUSH1 0x60 DUP6 ADD MSTORE CALLDATASIZE SWAP1 DUP14 ADD DUP1 CALLDATALOAD SWAP1 PUSH1 0x20 ADD PUSH2 0x16E3 JUMP JUMPDEST PUSH1 0x80 DUP4 ADD MSTORE DUP3 PUSH1 0x0 MSTORE PUSH1 0x2 PUSH1 0x20 MSTORE PUSH1 0x40 PUSH1 0x0 KECCAK256 CALLER PUSH1 0x0 MSTORE PUSH1 0x20 MSTORE PUSH1 0x40 PUSH1 0x0 KECCAK256 SWAP2 PUSH1 0x1 DUP1 PUSH1 0xA0 SHL SUB DUP2 MLOAD AND SWAP2 DUP4 SLOAD SWAP1 MLOAD SWAP3 PUSH1 0x3 DUP5 LT ISZERO PUSH2 0x202 JUMPI PUSH1 0x80 SWAP4 PUSH1 0xFF PUSH1 0xA0 SHL SWAP1 PUSH1 0xA0 SHL AND SWAP2 PUSH11 0xFFFFFFFFFFFFFFFFFFFFFF PUSH1 0xA8 SHL AND OR OR DUP4 SSTORE PUSH1 0x40 DUP2 ADD MLOAD PUSH1 0x1 DUP5 ADD SSTORE PUSH1 0x2 DUP4 ADD PUSH1 0x60 DUP3 ADD MLOAD ISZERO ISZERO PUSH1 0xFF DUP1 NOT DUP4 SLOAD AND SWAP2 AND OR SWAP1 SSTORE ADD MLOAD DUP1 MLOAD SWAP1 PUSH8 0xFFFFFFFFFFFFFFFF DUP3 GT PUSH2 0x848 JUMPI PUSH2 0x5A6 PUSH1 0x3 DUP5 ADD SLOAD PUSH2 0x176D JUMP JUMPDEST SWAP1 PUSH1 0x1F SWAP2 DUP3 DUP2 GT PUSH2 0x80B JUMPI JUMPDEST POP PUSH1 0x20 SWAP2 DUP4 GT PUSH1 0x1 EQ PUSH2 0x79C JUMPI SWAP2 DUP1 PUSH2 0x5E5 SWAP3 PUSH1 0x3 SWAP5 PUSH1 0x0 SWAP3 PUSH2 0x791 JUMPI JUMPDEST POP POP DUP2 PUSH1 0x1 SHL SWAP2 PUSH1 0x0 NOT SWAP1 PUSH1 0x3 SHL SHR NOT AND OR SWAP1 JUMP JUMPDEST SWAP2 ADD SSTORE JUMPDEST DUP1 PUSH1 0x0 MSTORE PUSH1 0x3 PUSH1 0x20 MSTORE PUSH2 0x600 CALLER PUSH1 0x40 PUSH1 0x0 KECCAK256 PUSH2 0x19A4 JUMP JUMPDEST DUP10 PUSH2 0x60F PUSH2 0x485 DUP5 DUP11 DUP11 PUSH2 0x1A7C JUMP JUMPDEST ISZERO PUSH2 0x757 JUMPI POP DUP4 PUSH2 0x202 JUMPI DUP10 SWAP1 DUP9 ISZERO PUSH2 0x70B JUMPI DUP6 PUSH2 0x65E PUSH2 0x63D PUSH1 0xFF PUSH1 0x2 PUSH1 0x1 SWAP9 SWAP10 SWAP11 ADD SLOAD PUSH1 0xA0 SHR AND PUSH2 0x19E4 JUMP JUMPDEST PUSH1 0x2 DUP4 ADD DUP1 SLOAD PUSH1 0xFF PUSH1 0xA0 SHL NOT AND PUSH1 0xA0 SWAP3 SWAP1 SWAP3 SHL PUSH1 0xFF PUSH1 0xA0 SHL AND SWAP2 SWAP1 SWAP2 OR SWAP1 SSTORE JUMP JUMPDEST PUSH1 0x2 DUP2 ADD SLOAD PUSH1 0x2 PUSH1 0xFF DUP3 PUSH1 0xA0 SHR AND LT ISZERO DUP1 PUSH2 0x6FB JUMPI JUMPDEST PUSH2 0x6C8 JUMPI JUMPDEST POP POP JUMPDEST PUSH32 0x9D9BEA5C4781935C57FD5F2A2F437CB750E3FB646DA05E8AA40A122ACBCDBD31 PUSH2 0x6BC PUSH2 0x6AE PUSH2 0x485 DUP7 DUP13 DUP13 PUSH2 0x1A7C JUMP JUMPDEST PUSH1 0x40 MLOAD SWAP2 DUP3 SWAP2 CALLER SWAP7 DUP4 PUSH2 0x19F5 JUMP JUMPDEST SUB SWAP1 LOG3 JUMPDEST ADD SWAP2 SWAP1 PUSH2 0x411 JUMP JUMPDEST PUSH1 0x2 SWAP1 DUP7 PUSH1 0xB0 SHL SWAP1 PUSH1 0xFF PUSH1 0xB0 SHL NOT AND OR SWAP2 ADD SSTORE DUP1 PUSH1 0x0 DUP1 MLOAD PUSH1 0x20 PUSH2 0x1A9A DUP4 CODECOPY DUP2 MLOAD SWAP2 MSTORE PUSH1 0x20 PUSH1 0x40 MLOAD DUP8 DUP2 MSTORE LOG2 DUP14 DUP1 PUSH2 0x679 JUMP JUMPDEST POP DUP6 PUSH1 0xFF DUP3 PUSH1 0xA8 SHR AND LT ISZERO PUSH2 0x674 JUMP JUMPDEST PUSH1 0x1 SWAP4 SWAP5 POP PUSH1 0x0 SWAP6 PUSH1 0x2 DUP4 SUB PUSH2 0x65E JUMPI PUSH2 0x752 PUSH2 0x731 PUSH1 0xFF PUSH1 0x2 DUP5 ADD SLOAD PUSH1 0xA8 SHR AND PUSH2 0x19E4 JUMP JUMPDEST PUSH1 0x2 DUP4 ADD DUP1 SLOAD PUSH1 0xFF PUSH1 0xA8 SHL NOT AND PUSH1 0xA8 SWAP3 SWAP1 SWAP3 SHL PUSH1 0xFF PUSH1 0xA8 SHL AND SWAP2 SWAP1 SWAP2 OR SWAP1 SSTORE JUMP JUMPDEST PUSH2 0x65E JUMP JUMPDEST SWAP1 PUSH1 0x1 SWAP4 SWAP5 SWAP6 PUSH1 0x2 DUP6 PUSH1 0xB1 SHL PUSH1 0xFF PUSH1 0xB0 SHL NOT DUP3 DUP5 ADD SLOAD AND OR SWAP2 ADD SSTORE DUP1 PUSH1 0x0 DUP1 MLOAD PUSH1 0x20 PUSH2 0x1A9A DUP4 CODECOPY DUP2 MLOAD SWAP2 MSTORE PUSH1 0x20 PUSH1 0x40 MLOAD PUSH1 0x2 DUP2 MSTORE LOG2 PUSH2 0x67C JUMP JUMPDEST ADD MLOAD SWAP1 POP CODESIZE DUP1 PUSH2 0x5D0 JUMP JUMPDEST SWAP1 PUSH1 0x3 DUP5 ADD PUSH1 0x0 MSTORE PUSH1 0x20 PUSH1 0x0 KECCAK256 SWAP2 PUSH1 0x0 JUMPDEST PUSH1 0x1F NOT DUP6 AND DUP2 LT PUSH2 0x7F3 JUMPI POP SWAP2 DUP4 SWAP2 PUSH1 0x1 SWAP4 PUSH1 0x3 SWAP6 PUSH1 0x1F NOT DUP2 AND LT PUSH2 0x7DB JUMPI JUMPDEST POP POP POP DUP2 SHL ADD SWAP2 ADD SSTORE PUSH2 0x5E9 JUMP JUMPDEST ADD MLOAD PUSH1 0x0 NOT DUP4 DUP7 SHL PUSH1 0xF8 AND SHR NOT AND SWAP1 SSTORE CODESIZE DUP1 DUP1 PUSH2 0x7CD JUMP JUMPDEST SWAP2 SWAP3 PUSH1 0x20 PUSH1 0x1 DUP2 SWAP3 DUP7 DUP6 ADD MLOAD DUP2 SSTORE ADD SWAP5 ADD SWAP3 ADD PUSH2 0x7AD JUMP JUMPDEST PUSH2 0x839 SWAP1 PUSH1 0x3 DUP7 ADD PUSH1 0x0 MSTORE PUSH1 0x20 PUSH1 0x0 KECCAK256 DUP5 DUP1 DUP8 ADD PUSH1 0x5 SHR DUP3 ADD SWAP3 PUSH1 0x20 DUP9 LT PUSH2 0x83F JUMPI JUMPDEST ADD PUSH1 0x5 SHR ADD SWAP1 PUSH2 0x198D JUMP JUMPDEST CODESIZE PUSH2 0x5B2 JUMP JUMPDEST SWAP3 POP DUP2 SWAP3 PUSH2 0x82E JUMP JUMPDEST PUSH4 0x4E487B71 PUSH1 0xE0 SHL PUSH1 0x0 MSTORE PUSH1 0x41 PUSH1 0x4 MSTORE PUSH1 0x24 PUSH1 0x0 REVERT JUMPDEST PUSH4 0x4E487B71 PUSH1 0xE0 SHL PUSH1 0x0 MSTORE PUSH1 0x32 PUSH1 0x4 MSTORE PUSH1 0x24 PUSH1 0x0 REVERT JUMPDEST PUSH1 0x1 SWAP3 SWAP4 SWAP5 POP PUSH32 0x1488AC69826EAC1379D94B07633874A0E8E2B3ECF326C12525873610CE027A8E PUSH1 0x40 MLOAD DUP1 PUSH2 0x8CC DUP2 PUSH1 0x60 SWAP1 PUSH1 0x20 DUP2 MSTORE PUSH1 0xE PUSH1 0x20 DUP3 ADD MSTORE PUSH14 0x105B1C9958591E481CDA59DB9959 PUSH1 0x92 SHL PUSH1 0x40 DUP3 ADD MSTORE ADD SWAP1 JUMP JUMPDEST SUB SWAP1 LOG2 PUSH2 0x6C0 JUMP JUMPDEST PUSH1 0x1 SWAP3 SWAP4 SWAP5 POP PUSH32 0x1488AC69826EAC1379D94B07633874A0E8E2B3ECF326C12525873610CE027A8E PUSH1 0x40 MLOAD DUP1 PUSH2 0x8CC DUP2 PUSH1 0x60 SWAP1 PUSH1 0x20 DUP2 MSTORE PUSH1 0x1A PUSH1 0x20 DUP3 ADD MSTORE PUSH32 0x5472616E73616374696F6E206973206E6F742070656E64696E67000000000000 PUSH1 0x40 DUP3 ADD MSTORE ADD SWAP1 JUMP JUMPDEST PUSH1 0x1 SWAP3 SWAP4 SWAP5 POP PUSH32 0x1488AC69826EAC1379D94B07633874A0E8E2B3ECF326C12525873610CE027A8E PUSH1 0x40 MLOAD DUP1 PUSH2 0x8CC DUP2 PUSH1 0x60 SWAP1 PUSH1 0x20 DUP2 MSTORE PUSH1 0x1A PUSH1 0x20 DUP3 ADD MSTORE PUSH32 0x5472616E73616374696F6E20646F6573206E6F74206578697374000000000000 PUSH1 0x40 DUP3 ADD MSTORE ADD SWAP1 JUMP JUMPDEST POP PUSH1 0x0 SWAP2 POP PUSH1 0x2 DUP8 EQ PUSH2 0x401 JUMP JUMPDEST PUSH1 0x40 MLOAD PUSH3 0x461BCD PUSH1 0xE5 SHL DUP2 MSTORE PUSH1 0x20 PUSH1 0x4 DUP3 ADD MSTORE PUSH1 0x16 PUSH1 0x24 DUP3 ADD MSTORE PUSH22 0x82E4E4C2F240D8CADCCEE8D0E640DAD2E6DAC2E8C6D PUSH1 0x53 SHL PUSH1 0x44 DUP3 ADD MSTORE PUSH1 0x64 SWAP1 REVERT JUMPDEST POP DUP6 DUP3 EQ PUSH2 0x3D2 JUMP JUMPDEST CALLVALUE PUSH2 0xEA JUMPI PUSH1 0x20 CALLDATASIZE PUSH1 0x3 NOT ADD SLT PUSH2 0xEA JUMPI PUSH2 0xA1D PUSH1 0x1 DUP1 PUSH1 0xA0 SHL SUB PUSH1 0x5 SLOAD AND CALLER EQ PUSH2 0x18BD JUMP JUMPDEST PUSH1 0x4 CALLDATALOAD PUSH1 0x0 MSTORE PUSH1 0x1 PUSH1 0x20 MSTORE PUSH1 0x40 PUSH1 0x0 KECCAK256 PUSH2 0xA39 DUP2 SLOAD ISZERO ISZERO PUSH2 0x18F5 JUMP JUMPDEST PUSH1 0xFF PUSH1 0x2 DUP3 ADD SLOAD PUSH1 0xB0 SHR AND SWAP1 PUSH1 0x4 DUP3 LT ISZERO PUSH2 0x202 JUMPI PUSH1 0x3 DUP1 SWAP3 EQ PUSH2 0xC41 JUMPI PUSH1 0x4 CALLDATALOAD PUSH1 0x0 MSTORE PUSH1 0x3 PUSH1 0x20 MSTORE PUSH1 0x40 PUSH1 0x0 KECCAK256 SWAP1 PUSH1 0x0 JUMPDEST DUP3 SLOAD DUP2 LT ISZERO PUSH2 0xBCC JUMPI PUSH2 0xA7E DUP2 DUP5 PUSH2 0x1748 JUMP JUMPDEST PUSH1 0x1 DUP1 PUSH1 0xA0 SHL SUB SWAP2 SLOAD SWAP1 DUP7 SHL SHR AND SWAP1 PUSH1 0x4 CALLDATALOAD PUSH1 0x0 MSTORE PUSH1 0x2 PUSH1 0x20 MSTORE PUSH1 0x40 PUSH1 0x0 KECCAK256 DUP3 PUSH1 0x0 MSTORE PUSH1 0x20 MSTORE PUSH1 0x40 PUSH1 0x0 KECCAK256 PUSH1 0x1 DUP2 ADD SLOAD PUSH2 0xABE JUMPI JUMPDEST POP PUSH1 0x1 SWAP2 POP ADD PUSH2 0xA6B JUMP JUMPDEST PUSH1 0xFF PUSH1 0x2 DUP3 ADD SLOAD AND PUSH2 0xAF9 JUMPI JUMPDEST POP PUSH1 0x1 SWAP2 PUSH1 0x4 CALLDATALOAD PUSH1 0x0 MSTORE PUSH1 0x2 PUSH1 0x20 MSTORE PUSH1 0x40 PUSH1 0x0 KECCAK256 SWAP1 PUSH1 0x0 MSTORE PUSH1 0x20 MSTORE PUSH2 0xAF3 PUSH1 0x40 PUSH1 0x0 KECCAK256 PUSH2 0x1A20 JUMP JUMPDEST DUP6 PUSH2 0xAB3 JUMP JUMPDEST SLOAD SWAP2 PUSH1 0xFF PUSH1 0xA0 SWAP4 DUP5 SHR AND SWAP3 DUP7 DUP5 LT ISZERO PUSH2 0x202 JUMPI DUP4 PUSH1 0x1 DUP1 SWAP6 EQ DUP1 PUSH2 0xBBA JUMPI JUMPDEST ISZERO PUSH2 0xB5B JUMPI POP PUSH2 0xB34 PUSH1 0xFF PUSH2 0xB55 SWAP3 PUSH1 0x2 DUP9 ADD SLOAD SWAP1 SHR AND PUSH2 0x1A10 JUMP JUMPDEST PUSH1 0x2 DUP7 ADD DUP1 SLOAD PUSH1 0xFF PUSH1 0xA0 SHL NOT AND PUSH1 0xA0 SWAP3 SWAP1 SWAP3 SHL PUSH1 0xFF PUSH1 0xA0 SHL AND SWAP2 SWAP1 SWAP2 OR SWAP1 SSTORE JUMP JUMPDEST SWAP2 PUSH2 0xACB JUMP JUMPDEST PUSH1 0x2 SWAP2 POP EQ DUP1 PUSH2 0xBA7 JUMPI JUMPDEST ISZERO PUSH2 0xB55 JUMPI PUSH2 0xBA2 PUSH2 0xB81 PUSH1 0xFF PUSH1 0x2 DUP8 ADD SLOAD PUSH1 0xA8 SHR AND PUSH2 0x1A10 JUMP JUMPDEST PUSH1 0x2 DUP7 ADD DUP1 SLOAD PUSH1 0xFF PUSH1 0xA8 SHL NOT AND PUSH1 0xA8 SWAP3 SWAP1 SWAP3 SHL PUSH1 0xFF PUSH1 0xA8 SHL AND SWAP2 SWAP1 SWAP2 OR SWAP1 SSTORE JUMP JUMPDEST PUSH2 0xB55 JUMP JUMPDEST POP PUSH1 0xFF PUSH1 0x2 DUP6 ADD SLOAD PUSH1 0xA8 SHR AND ISZERO ISZERO PUSH2 0xB66 JUMP JUMPDEST POP PUSH1 0xFF PUSH1 0x2 DUP8 ADD SLOAD DUP4 SHR AND ISZERO ISZERO PUSH2 0xB18 JUMP JUMPDEST POP PUSH1 0x4 CALLDATALOAD PUSH1 0x0 MSTORE PUSH1 0x3 PUSH1 0x20 MSTORE PUSH1 0x40 PUSH1 0x0 KECCAK256 DUP1 SLOAD PUSH1 0x0 DUP3 SSTORE DUP1 PUSH2 0xC25 JUMPI JUMPDEST PUSH1 0x2 DUP4 ADD DUP1 SLOAD PUSH3 0xFFFFFF PUSH1 0xA0 SHL NOT AND SWAP1 SSTORE CALLER PUSH1 0x4 CALLDATALOAD PUSH32 0xE7F36F6E5A5A477A86CC0E5574A2D2A38BCC76884AE424D0CAB7147411CDB198 PUSH1 0x0 DUP1 LOG3 STOP JUMPDEST PUSH2 0xC3A SWAP2 PUSH1 0x0 MSTORE PUSH1 0x20 PUSH1 0x0 KECCAK256 SWAP1 DUP2 ADD SWAP1 PUSH2 0x198D JUMP JUMPDEST DUP2 DUP1 PUSH2 0xBE9 JUMP JUMPDEST PUSH1 0x40 MLOAD PUSH3 0x461BCD PUSH1 0xE5 SHL DUP2 MSTORE PUSH1 0x20 PUSH1 0x4 DUP3 ADD MSTORE PUSH1 0x1D PUSH1 0x24 DUP3 ADD MSTORE PUSH32 0x43616E6E6F742072657665727420616674657220657865637574696F6E000000 PUSH1 0x44 DUP3 ADD MSTORE PUSH1 0x64 SWAP1 REVERT JUMPDEST CALLVALUE PUSH2 0xEA JUMPI PUSH1 0x0 CALLDATASIZE PUSH1 0x3 NOT ADD SLT PUSH2 0xEA JUMPI PUSH1 0x20 PUSH1 0x0 SLOAD PUSH1 0x40 MLOAD SWAP1 DUP2 MSTORE RETURN JUMPDEST CALLVALUE PUSH2 0xEA JUMPI PUSH1 0x0 CALLDATASIZE PUSH1 0x3 NOT ADD SLT PUSH2 0xEA JUMPI PUSH1 0x20 PUSH1 0x40 MLOAD PUSH1 0x2 DUP2 MSTORE RETURN JUMPDEST CALLVALUE PUSH2 0xEA JUMPI PUSH1 0x40 CALLDATASIZE PUSH1 0x3 NOT ADD SLT PUSH2 0xEA JUMPI PUSH1 0x1 PUSH1 0x1 PUSH1 0xA0 SHL SUB PUSH1 0x24 CALLDATALOAD DUP2 DUP2 AND SWAP1 DUP2 SWAP1 SUB PUSH2 0xEA JUMPI PUSH1 0x4 CALLDATALOAD PUSH1 0x0 MSTORE PUSH1 0x2 PUSH1 0x20 MSTORE PUSH1 0x40 PUSH1 0x0 KECCAK256 SWAP1 PUSH1 0x0 MSTORE PUSH1 0x20 MSTORE PUSH1 0x40 PUSH1 0x0 KECCAK256 SWAP1 PUSH2 0xD5F DUP3 SLOAD SWAP3 PUSH1 0x1 DUP2 ADD SLOAD SWAP1 PUSH2 0xD24 PUSH1 0x3 PUSH1 0xFF PUSH1 0x2 DUP5 ADD SLOAD AND SWAP3 ADD PUSH2 0x17A7 JUMP JUMPDEST SWAP2 PUSH2 0xD42 PUSH1 0x40 MLOAD SWAP7 DUP8 SWAP7 DUP2 AND DUP8 MSTORE PUSH1 0xFF PUSH1 0x20 DUP9 ADD SWAP2 PUSH1 0xA0 SHR AND PUSH2 0x1760 JUMP JUMPDEST PUSH1 0x40 DUP6 ADD MSTORE ISZERO ISZERO PUSH1 0x60 DUP5 ADD MSTORE PUSH1 0xA0 PUSH1 0x80 DUP5 ADD MSTORE PUSH1 0xA0 DUP4 ADD SWAP1 PUSH2 0x184C JUMP JUMPDEST SUB SWAP1 RETURN JUMPDEST CALLVALUE PUSH2 0xEA JUMPI PUSH1 0x20 CALLDATASIZE PUSH1 0x3 NOT ADD SLT PUSH2 0xEA JUMPI PUSH1 0x4 CALLDATALOAD PUSH1 0x0 MSTORE PUSH1 0x1 PUSH1 0x20 MSTORE PUSH1 0x40 PUSH1 0x0 KECCAK256 DUP1 SLOAD SWAP1 PUSH1 0x2 PUSH2 0xD95 PUSH1 0x1 DUP4 ADD PUSH2 0x17A7 JUMP JUMPDEST SWAP2 ADD SLOAD PUSH1 0xFF PUSH2 0xDBB DUP2 DUP4 PUSH1 0xB0 SHR AND SWAP4 PUSH1 0x40 MLOAD SWAP6 DUP7 MSTORE PUSH1 0xC0 PUSH1 0x20 DUP8 ADD MSTORE PUSH1 0xC0 DUP7 ADD SWAP1 PUSH2 0x184C JUMP JUMPDEST PUSH1 0x1 PUSH1 0x1 PUSH1 0xA0 SHL SUB DUP4 AND PUSH1 0x40 DUP7 ADD MSTORE PUSH1 0xA0 DUP4 SWAP1 SHR DUP3 AND PUSH1 0x60 DUP7 ADD MSTORE PUSH1 0xA8 SWAP3 SWAP1 SWAP3 SHR AND PUSH1 0x80 DUP5 ADD MSTORE PUSH1 0x4 DUP3 LT ISZERO PUSH2 0x202 JUMPI DUP3 SWAP2 PUSH1 0xA0 DUP4 ADD MSTORE SUB SWAP1 RETURN JUMPDEST CALLVALUE PUSH2 0xEA JUMPI PUSH1 0x20 CALLDATASIZE PUSH1 0x3 NOT ADD SLT PUSH2 0xEA JUMPI PUSH1 0x1 PUSH1 0x1 PUSH1 0xA0 SHL SUB PUSH2 0xE17 PUSH2 0x168F JUMP JUMPDEST AND PUSH1 0x0 MSTORE PUSH1 0x4 PUSH1 0x20 MSTORE PUSH1 0x20 PUSH1 0xFF PUSH1 0x40 PUSH1 0x0 KECCAK256 SLOAD AND PUSH2 0xE38 PUSH1 0x40 MLOAD DUP1 SWAP3 PUSH2 0x1760 JUMP JUMPDEST RETURN JUMPDEST CALLVALUE PUSH2 0xEA JUMPI PUSH1 0x20 DUP1 PUSH1 0x3 NOT CALLDATASIZE ADD SLT PUSH2 0xEA JUMPI PUSH8 0xFFFFFFFFFFFFFFFF PUSH1 0x4 CALLDATALOAD DUP2 DUP2 GT PUSH2 0xEA JUMPI PUSH2 0xE6D SWAP1 CALLDATASIZE SWAP1 PUSH1 0x4 ADD PUSH2 0x172A JUMP JUMPDEST PUSH1 0x0 SLOAD PUSH1 0x0 NOT SWAP3 SWAP1 DUP4 DUP2 EQ PUSH2 0x10B2 JUMPI PUSH1 0x1 DUP1 SWAP2 ADD SWAP4 DUP5 PUSH1 0x0 SSTORE PUSH1 0x40 MLOAD SWAP3 PUSH1 0xC0 DUP5 ADD DUP5 DUP2 LT DUP3 DUP3 GT OR PUSH2 0x848 JUMPI PUSH1 0x40 MSTORE DUP6 DUP5 MSTORE DUP7 DUP5 ADD SWAP4 DUP6 DUP6 MSTORE PUSH1 0x40 DUP2 ADD SWAP5 CALLER DUP7 MSTORE PUSH1 0x60 DUP3 ADD SWAP3 PUSH1 0x0 DUP5 MSTORE PUSH1 0x80 DUP4 ADD SWAP5 PUSH1 0x0 DUP7 MSTORE PUSH1 0xA0 DUP5 ADD SWAP7 PUSH1 0x0 DUP9 MSTORE DUP11 PUSH1 0x0 MSTORE DUP1 DUP13 MSTORE PUSH1 0x40 PUSH1 0x0 KECCAK256 SWAP5 MLOAD DUP6 SSTORE DUP1 DUP6 ADD SWAP4 MLOAD SWAP1 DUP2 MLOAD SWAP4 DUP5 GT PUSH2 0x848 JUMPI PUSH2 0xEF2 DUP6 SLOAD PUSH2 0x176D JUMP JUMPDEST DUP14 PUSH1 0x1F DUP3 GT PUSH2 0x1076 JUMPI JUMPDEST POP POP DUP13 DUP1 SWAP4 PUSH1 0x1F DUP7 GT PUSH1 0x1 EQ PUSH2 0xFFB JUMPI POP POP POP PUSH2 0xF93 SWAP7 SWAP5 PUSH2 0xF79 SWAP5 PUSH2 0xF42 DUP6 PUSH1 0xFF SWAP10 SWAP6 SWAP7 DUP11 SWAP8 PUSH1 0x2 SWAP7 PUSH1 0x0 SWAP3 PUSH2 0x791 JUMPI POP POP DUP2 PUSH1 0x1 SHL SWAP2 PUSH1 0x0 NOT SWAP1 PUSH1 0x3 SHL SHR NOT AND OR SWAP1 JUMP JUMPDEST SWAP1 SSTORE JUMPDEST SWAP9 MLOAD SWAP9 ADD DUP1 SLOAD SWAP2 MLOAD PUSH1 0x1 PUSH1 0x1 PUSH1 0xA8 SHL SUB NOT SWAP1 SWAP3 AND PUSH1 0x1 PUSH1 0x1 PUSH1 0xA0 SHL SUB SWAP10 SWAP1 SWAP10 AND SWAP9 SWAP1 SWAP9 OR SWAP2 AND PUSH1 0xA0 SHL PUSH1 0xFF PUSH1 0xA0 SHL AND OR DUP7 SSTORE JUMP JUMPDEST MLOAD DUP5 SLOAD PUSH1 0xFF PUSH1 0xA8 SHL NOT AND SWAP2 AND PUSH1 0xA8 SHL PUSH1 0xFF PUSH1 0xA8 SHL AND OR DUP4 SSTORE JUMP JUMPDEST MLOAD PUSH1 0x4 DUP2 LT ISZERO PUSH2 0x202 JUMPI DUP2 SLOAD PUSH1 0xFF PUSH1 0xB0 SHL NOT AND PUSH1 0xB0 SWAP2 SWAP1 SWAP2 SHL PUSH1 0xFF PUSH1 0xB0 SHL AND OR SWAP1 SSTORE PUSH1 0x40 MLOAD DUP4 DUP2 MSTORE CALLER SWAP2 DUP4 SWAP2 PUSH32 0x6B788BD9BE8B568189B1598944788128BE6DC1AD3C711FDC84FA4FA1FA21EA18 SWAP2 DUP2 SWAP1 PUSH2 0xFF0 SWAP1 DUP9 DUP4 ADD SWAP1 PUSH2 0x184C JUMP JUMPDEST SUB SWAP1 LOG3 PUSH1 0x40 MLOAD SWAP1 DUP2 MSTORE RETURN JUMPDEST SWAP2 SWAP5 SWAP4 SWAP1 SWAP3 PUSH1 0x1F NOT DUP6 AND DUP8 PUSH1 0x0 MSTORE DUP5 PUSH1 0x0 KECCAK256 SWAP5 PUSH1 0x0 SWAP1 JUMPDEST DUP3 DUP3 LT PUSH2 0x105F JUMPI POP POP SWAP5 PUSH1 0x2 SWAP5 PUSH2 0xF93 SWAP12 SWAP10 SWAP5 PUSH2 0xF79 SWAP10 SWAP5 PUSH1 0xFF SWAP13 SWAP9 SWAP5 DUP5 DUP15 SWAP12 SWAP7 LT PUSH2 0x1047 JUMPI JUMPDEST POP POP POP POP DUP2 SHL ADD SWAP1 SSTORE PUSH2 0xF45 JUMP JUMPDEST ADD MLOAD SWAP1 PUSH1 0xF8 DUP5 PUSH1 0x3 SHL AND SHR NOT AND SWAP1 SSTORE CODESIZE DUP1 DUP1 DUP1 PUSH2 0x1039 JUMP JUMPDEST DUP1 DUP10 DUP7 SWAP9 DUP3 SWAP5 SWAP8 DUP8 ADD MLOAD DUP2 SSTORE ADD SWAP8 ADD SWAP5 ADD SWAP1 PUSH2 0x1012 JUMP JUMPDEST PUSH2 0x10A1 SWAP2 DUP8 PUSH1 0x0 MSTORE DUP2 PUSH1 0x0 KECCAK256 SWAP1 PUSH1 0x1F DUP9 ADD PUSH1 0x5 SHR DUP3 ADD SWAP3 DUP9 LT PUSH2 0x10A8 JUMPI JUMPDEST PUSH1 0x1F ADD PUSH1 0x5 SHR ADD SWAP1 PUSH2 0x198D JUMP JUMPDEST DUP14 DUP14 PUSH2 0xEFC JUMP JUMPDEST SWAP1 SWAP2 POP DUP2 SWAP1 PUSH2 0x1094 JUMP JUMPDEST PUSH4 0x4E487B71 PUSH1 0xE0 SHL PUSH1 0x0 MSTORE PUSH1 0x11 PUSH1 0x4 MSTORE PUSH1 0x24 PUSH1 0x0 REVERT JUMPDEST CALLVALUE PUSH2 0xEA JUMPI PUSH1 0x40 CALLDATASIZE PUSH1 0x3 NOT ADD SLT PUSH2 0xEA JUMPI PUSH1 0x24 CALLDATALOAD PUSH1 0x4 CALLDATALOAD PUSH1 0x0 MSTORE PUSH1 0x3 PUSH1 0x20 MSTORE PUSH1 0x40 PUSH1 0x0 KECCAK256 DUP1 SLOAD DUP3 LT ISZERO PUSH2 0xEA JUMPI PUSH1 0x20 SWAP2 PUSH2 0x1101 SWAP2 PUSH2 0x1748 JUMP JUMPDEST SWAP1 SLOAD PUSH1 0x40 MLOAD PUSH1 0x3 SWAP3 SWAP1 SWAP3 SHL SHR PUSH1 0x1 PUSH1 0x1 PUSH1 0xA0 SHL SUB AND DUP2 MSTORE RETURN JUMPDEST CALLVALUE PUSH2 0xEA JUMPI PUSH1 0x60 CALLDATASIZE PUSH1 0x3 NOT ADD SLT PUSH2 0xEA JUMPI PUSH1 0x24 CALLDATALOAD ISZERO ISZERO DUP1 PUSH1 0x24 CALLDATALOAD SUB PUSH2 0xEA JUMPI PUSH8 0xFFFFFFFFFFFFFFFF PUSH1 0x44 CALLDATALOAD DUP2 DUP2 GT PUSH2 0xEA JUMPI PUSH2 0x115A SWAP1 CALLDATASIZE SWAP1 PUSH1 0x4 ADD PUSH2 0x172A JUMP JUMPDEST PUSH1 0x4 CALLDATALOAD PUSH1 0x0 MSTORE PUSH1 0x1 PUSH1 0x20 MSTORE PUSH1 0x40 PUSH1 0x0 KECCAK256 SWAP2 PUSH2 0x1177 DUP4 SLOAD ISZERO ISZERO PUSH2 0x18F5 JUMP JUMPDEST PUSH1 0xFF PUSH1 0x2 DUP5 ADD SLOAD PUSH1 0xB0 SHR AND PUSH1 0x4 DUP2 LT ISZERO PUSH2 0x202 JUMPI PUSH2 0x1516 JUMPI PUSH1 0x4 CALLDATALOAD PUSH1 0x0 MSTORE PUSH1 0x2 PUSH1 0x20 MSTORE PUSH1 0x40 PUSH1 0x0 KECCAK256 CALLER PUSH1 0x0 MSTORE PUSH1 0x20 MSTORE PUSH1 0x1 PUSH1 0x40 PUSH1 0x0 KECCAK256 ADD SLOAD PUSH2 0x14E0 JUMPI CALLER PUSH1 0x0 MSTORE PUSH1 0x4 PUSH1 0x20 MSTORE PUSH1 0xFF PUSH1 0x40 PUSH1 0x0 KECCAK256 SLOAD AND SWAP4 PUSH1 0x3 DUP6 LT ISZERO SWAP2 DUP3 PUSH2 0x202 JUMPI PUSH1 0x1 DUP7 EQ SWAP4 DUP5 DUP1 ISZERO PUSH2 0x14D2 JUMPI JUMPDEST PUSH2 0x11E7 SWAP1 PUSH2 0x1941 JUMP JUMPDEST PUSH1 0x40 MLOAD SWAP3 PUSH2 0x11F4 DUP5 PUSH2 0x16A5 JUMP JUMPDEST CALLER DUP5 MSTORE PUSH1 0x20 DUP5 ADD PUSH2 0x1205 DUP10 DUP3 PUSH2 0x1981 JUMP JUMPDEST PUSH1 0x40 DUP6 ADD SWAP1 TIMESTAMP DUP3 MSTORE PUSH1 0x60 DUP7 ADD SWAP3 DUP4 MSTORE PUSH1 0x80 DUP7 ADD SWAP4 DUP5 MSTORE PUSH1 0x4 CALLDATALOAD PUSH1 0x0 MSTORE PUSH1 0x2 PUSH1 0x20 MSTORE PUSH1 0x40 PUSH1 0x0 KECCAK256 CALLER PUSH1 0x0 MSTORE PUSH1 0x20 MSTORE PUSH1 0x40 PUSH1 0x0 KECCAK256 SWAP6 PUSH1 0x1 DUP1 PUSH1 0xA0 SHL SUB SWAP1 MLOAD AND DUP7 SLOAD SWAP2 MLOAD PUSH1 0x3 DUP2 LT ISZERO PUSH2 0x202 JUMPI PUSH1 0xFF PUSH1 0xA0 SHL SWAP1 PUSH1 0xA0 SHL AND SWAP2 PUSH11 0xFFFFFFFFFFFFFFFFFFFFFF PUSH1 0xA8 SHL AND OR OR DUP6 SSTORE MLOAD PUSH1 0x1 DUP6 ADD SSTORE PUSH1 0x2 DUP5 ADD SWAP1 MLOAD ISZERO ISZERO PUSH1 0xFF DUP1 NOT DUP4 SLOAD AND SWAP2 AND OR SWAP1 SSTORE MLOAD DUP1 MLOAD SWAP2 DUP3 GT PUSH2 0x848 JUMPI PUSH2 0x129F PUSH1 0x3 DUP5 ADD SLOAD PUSH2 0x176D JUMP JUMPDEST PUSH1 0x1F DUP2 GT PUSH2 0x149D JUMPI JUMPDEST POP PUSH1 0x20 SWAP1 PUSH1 0x1F DUP4 GT PUSH1 0x1 EQ PUSH2 0x1430 JUMPI SWAP2 DUP1 PUSH2 0x12DC SWAP3 PUSH1 0x3 SWAP5 PUSH1 0x0 SWAP3 PUSH2 0x1425 JUMPI POP POP DUP2 PUSH1 0x1 SHL SWAP2 PUSH1 0x0 NOT SWAP1 PUSH1 0x3 SHL SHR NOT AND OR SWAP1 JUMP JUMPDEST SWAP2 ADD SSTORE JUMPDEST PUSH1 0x4 CALLDATALOAD PUSH1 0x0 MSTORE PUSH1 0x3 PUSH1 0x20 MSTORE PUSH2 0x12F9 CALLER PUSH1 0x40 PUSH1 0x0 KECCAK256 PUSH2 0x19A4 JUMP JUMPDEST PUSH1 0x24 CALLDATALOAD ISZERO PUSH2 0x13EA JUMPI PUSH2 0x202 JUMPI ISZERO PUSH2 0x13C7 JUMPI PUSH2 0x1320 PUSH2 0x63D PUSH1 0xFF PUSH1 0x2 DUP5 ADD SLOAD PUSH1 0xA0 SHR AND PUSH2 0x19E4 JUMP JUMPDEST PUSH1 0x2 DUP2 ADD SLOAD PUSH1 0x2 PUSH1 0xFF DUP3 PUSH1 0xA0 SHR AND LT ISZERO DUP1 PUSH2 0x13B6 JUMPI JUMPDEST PUSH2 0x137C JUMPI JUMPDEST POP POP JUMPDEST PUSH1 0x40 MLOAD SWAP1 PUSH32 0x9D9BEA5C4781935C57FD5F2A2F437CB750E3FB646DA05E8AA40A122ACBCDBD31 CALLER SWAP3 DUP1 PUSH2 0x1377 PUSH1 0x4 CALLDATALOAD SWAP5 PUSH1 0x24 CALLDATALOAD SWAP1 DUP4 PUSH2 0x19F5 JUMP JUMPDEST SUB SWAP1 LOG3 STOP JUMPDEST PUSH1 0xFF PUSH1 0xB0 SHL NOT AND PUSH1 0x1 PUSH1 0xB0 SHL OR PUSH1 0x2 SWAP2 SWAP1 SWAP2 ADD SSTORE PUSH1 0x40 MLOAD PUSH1 0x1 DUP2 MSTORE PUSH1 0x4 CALLDATALOAD SWAP1 PUSH1 0x0 DUP1 MLOAD PUSH1 0x20 PUSH2 0x1A9A DUP4 CODECOPY DUP2 MLOAD SWAP2 MSTORE SWAP1 PUSH1 0x20 SWAP1 LOG2 DUP2 DUP1 PUSH2 0x133B JUMP JUMPDEST POP PUSH1 0x1 PUSH1 0xFF DUP3 PUSH1 0xA8 SHR AND LT ISZERO PUSH2 0x1336 JUMP JUMPDEST PUSH1 0x2 DUP3 SUB PUSH2 0x1320 JUMPI PUSH2 0x13E5 PUSH2 0x731 PUSH1 0xFF PUSH1 0x2 DUP5 ADD SLOAD PUSH1 0xA8 SHR AND PUSH2 0x19E4 JUMP JUMPDEST PUSH2 0x1320 JUMP JUMPDEST POP POP PUSH1 0x2 SWAP1 DUP2 ADD DUP1 SLOAD PUSH1 0xFF PUSH1 0xB0 SHL NOT AND PUSH1 0x1 PUSH1 0xB1 SHL OR SWAP1 SSTORE PUSH1 0x40 MLOAD SWAP1 DUP2 MSTORE PUSH1 0x4 CALLDATALOAD SWAP1 PUSH1 0x0 DUP1 MLOAD PUSH1 0x20 PUSH2 0x1A9A DUP4 CODECOPY DUP2 MLOAD SWAP2 MSTORE SWAP1 PUSH1 0x20 SWAP1 LOG2 PUSH2 0x133E JUMP JUMPDEST ADD MLOAD SWAP1 POP DUP10 DUP1 PUSH2 0x5D0 JUMP JUMPDEST SWAP1 PUSH1 0x1F NOT DUP4 AND SWAP2 PUSH1 0x3 DUP6 ADD PUSH1 0x0 MSTORE PUSH1 0x20 PUSH1 0x0 KECCAK256 SWAP3 PUSH1 0x0 JUMPDEST DUP2 DUP2 LT PUSH2 0x1485 JUMPI POP SWAP2 PUSH1 0x1 SWAP4 SWAP2 DUP6 PUSH1 0x3 SWAP7 SWAP5 LT PUSH2 0x146D JUMPI JUMPDEST POP POP POP DUP2 SHL ADD SWAP2 ADD SSTORE PUSH2 0x12E0 JUMP JUMPDEST ADD MLOAD PUSH1 0x0 NOT DUP4 DUP7 SHL PUSH1 0xF8 AND SHR NOT AND SWAP1 SSTORE DUP9 DUP1 DUP1 PUSH2 0x145F JUMP JUMPDEST SWAP3 SWAP4 PUSH1 0x20 PUSH1 0x1 DUP2 SWAP3 DUP8 DUP7 ADD MLOAD DUP2 SSTORE ADD SWAP6 ADD SWAP4 ADD PUSH2 0x1447 JUMP JUMPDEST PUSH2 0x14CC SWAP1 PUSH1 0x3 DUP6 ADD PUSH1 0x0 MSTORE PUSH1 0x20 PUSH1 0x0 KECCAK256 PUSH1 0x1F DUP6 ADD PUSH1 0x5 SHR DUP2 ADD SWAP2 PUSH1 0x20 DUP7 LT PUSH2 0x10A8 JUMPI PUSH1 0x1F ADD PUSH1 0x5 SHR ADD SWAP1 PUSH2 0x198D JUMP JUMPDEST DUP8 PUSH2 0x12A8 JUMP JUMPDEST POP PUSH1 0x0 SWAP4 POP PUSH1 0x2 DUP8 EQ PUSH2 0x11DE JUMP JUMPDEST PUSH1 0x40 MLOAD PUSH3 0x461BCD PUSH1 0xE5 SHL DUP2 MSTORE PUSH1 0x20 PUSH1 0x4 DUP3 ADD MSTORE PUSH1 0xE PUSH1 0x24 DUP3 ADD MSTORE PUSH14 0x105B1C9958591E481CDA59DB9959 PUSH1 0x92 SHL PUSH1 0x44 DUP3 ADD MSTORE PUSH1 0x64 SWAP1 REVERT JUMPDEST PUSH1 0x40 MLOAD PUSH3 0x461BCD PUSH1 0xE5 SHL DUP2 MSTORE PUSH1 0x20 PUSH1 0x4 DUP3 ADD MSTORE PUSH1 0x1A PUSH1 0x24 DUP3 ADD MSTORE PUSH32 0x5472616E73616374696F6E206973206E6F742070656E64696E67000000000000 PUSH1 0x44 DUP3 ADD MSTORE PUSH1 0x64 SWAP1 REVERT JUMPDEST CALLVALUE PUSH2 0xEA JUMPI PUSH1 0x20 DUP1 PUSH1 0x3 NOT CALLDATASIZE ADD SLT PUSH2 0xEA JUMPI PUSH1 0x4 CALLDATALOAD PUSH1 0x0 MSTORE PUSH1 0x3 DUP2 MSTORE PUSH1 0x40 PUSH1 0x0 KECCAK256 PUSH1 0x40 MLOAD SWAP1 DUP2 DUP4 DUP3 SLOAD SWAP2 DUP3 DUP2 MSTORE ADD SWAP1 DUP2 SWAP3 PUSH1 0x0 MSTORE DUP5 PUSH1 0x0 KECCAK256 SWAP1 PUSH1 0x0 JUMPDEST DUP7 DUP3 DUP3 LT PUSH2 0x15F6 JUMPI DUP7 DUP7 PUSH2 0x15AD DUP3 DUP9 SUB DUP4 PUSH2 0x16C1 JUMP JUMPDEST PUSH1 0x40 MLOAD SWAP3 DUP4 SWAP3 DUP2 DUP5 ADD SWAP1 DUP3 DUP6 MSTORE MLOAD DUP1 SWAP2 MSTORE PUSH1 0x40 DUP5 ADD SWAP3 SWAP2 PUSH1 0x0 JUMPDEST DUP3 DUP2 LT PUSH2 0x15D6 JUMPI POP POP POP POP SUB SWAP1 RETURN JUMPDEST DUP4 MLOAD PUSH1 0x1 PUSH1 0x1 PUSH1 0xA0 SHL SUB AND DUP6 MSTORE DUP7 SWAP6 POP SWAP4 DUP2 ADD SWAP4 SWAP3 DUP2 ADD SWAP3 PUSH1 0x1 ADD PUSH2 0x15C7 JUMP JUMPDEST DUP4 SLOAD PUSH1 0x1 PUSH1 0x1 PUSH1 0xA0 SHL SUB AND DUP6 MSTORE SWAP1 SWAP4 ADD SWAP3 PUSH1 0x1 SWAP3 DUP4 ADD SWAP3 ADD PUSH2 0x1597 JUMP JUMPDEST CALLVALUE PUSH2 0xEA JUMPI PUSH1 0x0 CALLDATASIZE PUSH1 0x3 NOT ADD SLT PUSH2 0xEA JUMPI PUSH1 0x20 PUSH1 0x40 MLOAD PUSH1 0x1 DUP2 MSTORE RETURN JUMPDEST CALLVALUE PUSH2 0xEA JUMPI PUSH1 0x40 CALLDATASIZE PUSH1 0x3 NOT ADD SLT PUSH2 0xEA JUMPI PUSH2 0x1648 PUSH2 0x168F JUMP JUMPDEST PUSH1 0x24 CALLDATALOAD SWAP1 PUSH1 0x3 DUP3 LT ISZERO PUSH2 0xEA JUMPI PUSH1 0x5 SLOAD PUSH1 0x1 PUSH1 0x1 PUSH1 0xA0 SHL SUB SWAP2 SWAP1 PUSH2 0x166F SWAP1 DUP4 AND CALLER EQ PUSH2 0x18BD JUMP JUMPDEST AND PUSH1 0x0 MSTORE PUSH1 0x4 PUSH1 0x20 MSTORE PUSH1 0x40 PUSH1 0x0 KECCAK256 SWAP1 PUSH1 0xFF DUP1 NOT DUP4 SLOAD AND SWAP2 AND OR SWAP1 SSTORE PUSH1 0x0 DUP1 RETURN JUMPDEST PUSH1 0x4 CALLDATALOAD SWAP1 PUSH1 0x1 PUSH1 0x1 PUSH1 0xA0 SHL SUB DUP3 AND DUP3 SUB PUSH2 0xEA JUMPI JUMP JUMPDEST PUSH1 0xA0 DUP2 ADD SWAP1 DUP2 LT PUSH8 0xFFFFFFFFFFFFFFFF DUP3 GT OR PUSH2 0x848 JUMPI PUSH1 0x40 MSTORE JUMP JUMPDEST SWAP1 PUSH1 0x1F DUP1 NOT SWAP2 ADD AND DUP2 ADD SWAP1 DUP2 LT PUSH8 0xFFFFFFFFFFFFFFFF DUP3 GT OR PUSH2 0x848 JUMPI PUSH1 0x40 MSTORE JUMP JUMPDEST SWAP3 SWAP2 SWAP3 PUSH8 0xFFFFFFFFFFFFFFFF DUP3 GT PUSH2 0x848 JUMPI PUSH1 0x40 MLOAD SWAP2 PUSH2 0x170D PUSH1 0x1F DUP3 ADD PUSH1 0x1F NOT AND PUSH1 0x20 ADD DUP5 PUSH2 0x16C1 JUMP JUMPDEST DUP3 SWAP5 DUP2 DUP5 MSTORE DUP2 DUP4 ADD GT PUSH2 0xEA JUMPI DUP3 DUP2 PUSH1 0x20 SWAP4 DUP5 PUSH1 0x0 SWAP7 ADD CALLDATACOPY ADD ADD MSTORE JUMP JUMPDEST SWAP1 DUP1 PUSH1 0x1F DUP4 ADD SLT ISZERO PUSH2 0xEA JUMPI DUP2 PUSH1 0x20 PUSH2 0x1745 SWAP4 CALLDATALOAD SWAP2 ADD PUSH2 0x16E3 JUMP JUMPDEST SWAP1 JUMP JUMPDEST DUP1 SLOAD DUP3 LT ISZERO PUSH2 0x85E JUMPI PUSH1 0x0 MSTORE PUSH1 0x20 PUSH1 0x0 KECCAK256 ADD SWAP1 PUSH1 0x0 SWAP1 JUMP JUMPDEST SWAP1 PUSH1 0x3 DUP3 LT ISZERO PUSH2 0x202 JUMPI MSTORE JUMP JUMPDEST SWAP1 PUSH1 0x1 DUP3 DUP2 SHR SWAP3 AND DUP1 ISZERO PUSH2 0x179D JUMPI JUMPDEST PUSH1 0x20 DUP4 LT EQ PUSH2 0x1787 JUMPI JUMP JUMPDEST PUSH4 0x4E487B71 PUSH1 0xE0 SHL PUSH1 0x0 MSTORE PUSH1 0x22 PUSH1 0x4 MSTORE PUSH1 0x24 PUSH1 0x0 REVERT JUMPDEST SWAP2 PUSH1 0x7F AND SWAP2 PUSH2 0x177C JUMP JUMPDEST SWAP1 PUSH1 0x40 MLOAD SWAP2 DUP3 PUSH1 0x0 DUP3 SLOAD PUSH2 0x17BA DUP2 PUSH2 0x176D JUMP JUMPDEST SWAP1 DUP2 DUP5 MSTORE PUSH1 0x20 SWAP5 PUSH1 0x1 SWAP2 PUSH1 0x1 DUP2 AND SWAP1 DUP2 PUSH1 0x0 EQ PUSH2 0x182A JUMPI POP PUSH1 0x1 EQ PUSH2 0x17EB JUMPI JUMPDEST POP POP POP PUSH2 0x17E9 SWAP3 POP SUB DUP4 PUSH2 0x16C1 JUMP JUMPDEST JUMP JUMPDEST PUSH1 0x0 SWAP1 DUP2 MSTORE DUP6 DUP2 KECCAK256 SWAP6 SWAP4 POP SWAP2 SWAP1 JUMPDEST DUP2 DUP4 LT PUSH2 0x1812 JUMPI POP POP PUSH2 0x17E9 SWAP4 POP DUP3 ADD ADD CODESIZE DUP1 DUP1 PUSH2 0x17DA JUMP JUMPDEST DUP6 SLOAD DUP9 DUP5 ADD DUP6 ADD MSTORE SWAP5 DUP6 ADD SWAP5 DUP8 SWAP5 POP SWAP2 DUP4 ADD SWAP2 PUSH2 0x17F9 JUMP JUMPDEST SWAP3 POP POP POP PUSH2 0x17E9 SWAP5 SWAP3 POP PUSH1 0xFF NOT AND DUP3 DUP5 ADD MSTORE ISZERO ISZERO PUSH1 0x5 SHL DUP3 ADD ADD CODESIZE DUP1 DUP1 PUSH2 0x17DA JUMP JUMPDEST SWAP2 SWAP1 DUP3 MLOAD SWAP3 DUP4 DUP3 MSTORE PUSH1 0x0 JUMPDEST DUP5 DUP2 LT PUSH2 0x1878 JUMPI POP POP DUP3 PUSH1 0x0 PUSH1 0x20 DUP1 SWAP5 SWAP6 DUP5 ADD ADD MSTORE PUSH1 0x1F DUP1 NOT SWAP2 ADD AND ADD ADD SWAP1 JUMP JUMPDEST PUSH1 0x20 DUP2 DUP4 ADD DUP2 ADD MLOAD DUP5 DUP4 ADD DUP3 ADD MSTORE ADD PUSH2 0x1857 JUMP JUMPDEST SWAP2 DUP2 PUSH1 0x1F DUP5 ADD SLT ISZERO PUSH2 0xEA JUMPI DUP3 CALLDATALOAD SWAP2 PUSH8 0xFFFFFFFFFFFFFFFF DUP4 GT PUSH2 0xEA JUMPI PUSH1 0x20 DUP1 DUP6 ADD SWAP5 DUP5 PUSH1 0x5 SHL ADD ADD GT PUSH2 0xEA JUMPI JUMP JUMPDEST ISZERO PUSH2 0x18C4 JUMPI JUMP JUMPDEST PUSH1 0x40 MLOAD PUSH3 0x461BCD PUSH1 0xE5 SHL DUP2 MSTORE PUSH1 0x20 PUSH1 0x4 DUP3 ADD MSTORE PUSH1 0x9 PUSH1 0x24 DUP3 ADD MSTORE PUSH9 0x2737BA1030B236B4B7 PUSH1 0xB9 SHL PUSH1 0x44 DUP3 ADD MSTORE PUSH1 0x64 SWAP1 REVERT JUMPDEST ISZERO PUSH2 0x18FC JUMPI JUMP JUMPDEST PUSH1 0x40 MLOAD PUSH3 0x461BCD PUSH1 0xE5 SHL DUP2 MSTORE PUSH1 0x20 PUSH1 0x4 DUP3 ADD MSTORE PUSH1 0x1A PUSH1 0x24 DUP3 ADD MSTORE PUSH32 0x5472616E73616374696F6E20646F6573206E6F74206578697374000000000000 PUSH1 0x44 DUP3 ADD MSTORE PUSH1 0x64 SWAP1 REVERT JUMPDEST ISZERO PUSH2 0x1948 JUMPI JUMP JUMPDEST PUSH1 0x40 MLOAD PUSH3 0x461BCD PUSH1 0xE5 SHL DUP2 MSTORE PUSH1 0x20 PUSH1 0x4 DUP3 ADD MSTORE PUSH1 0x11 PUSH1 0x24 DUP3 ADD MSTORE PUSH17 0x556E617574686F72697A656420726F6C65 PUSH1 0x78 SHL PUSH1 0x44 DUP3 ADD MSTORE PUSH1 0x64 SWAP1 REVERT JUMPDEST PUSH1 0x3 DUP3 LT ISZERO PUSH2 0x202 JUMPI MSTORE JUMP JUMPDEST DUP2 DUP2 LT PUSH2 0x1998 JUMPI POP POP JUMP JUMPDEST PUSH1 0x0 DUP2 SSTORE PUSH1 0x1 ADD PUSH2 0x198D JUMP JUMPDEST DUP1 SLOAD PUSH9 0x10000000000000000 DUP2 LT ISZERO PUSH2 0x848 JUMPI PUSH2 0x19C6 SWAP2 PUSH1 0x1 DUP3 ADD DUP2 SSTORE PUSH2 0x1748 JUMP JUMPDEST PUSH1 0x1 DUP1 PUSH1 0xA0 SWAP5 SWAP4 SWAP5 SHL SUB DUP1 DUP5 SLOAD SWAP3 PUSH1 0x3 SHL SWAP4 AND DUP4 SHL SWAP3 SHL NOT AND OR SWAP1 SSTORE JUMP JUMPDEST PUSH1 0xFF AND PUSH1 0xFF DUP2 EQ PUSH2 0x10B2 JUMPI PUSH1 0x1 ADD SWAP1 JUMP JUMPDEST SWAP1 SWAP3 SWAP2 PUSH1 0x20 SWAP1 PUSH2 0x1A09 DUP4 PUSH1 0x40 DUP2 ADD SWAP7 PUSH2 0x1760 JUMP JUMPDEST ISZERO ISZERO SWAP2 ADD MSTORE JUMP JUMPDEST PUSH1 0xFF AND DUP1 ISZERO PUSH2 0x10B2 JUMPI PUSH1 0x0 NOT ADD SWAP1 JUMP JUMPDEST PUSH1 0x3 PUSH1 0x0 SWAP2 DUP3 DUP2 SSTORE DUP3 PUSH1 0x1 DUP3 ADD SSTORE DUP3 PUSH1 0x2 DUP3 ADD SSTORE ADD PUSH2 0x1A3F DUP2 SLOAD PUSH2 0x176D JUMP JUMPDEST DUP1 PUSH2 0x1A49 JUMPI POP POP POP JUMP JUMPDEST DUP3 PUSH1 0x1F DUP3 GT PUSH1 0x1 EQ PUSH2 0x1A5A JUMPI POP POP SSTORE JUMP JUMPDEST SWAP1 SWAP2 DUP1 DUP3 MSTORE PUSH2 0x1A78 PUSH1 0x1F PUSH1 0x20 DUP5 KECCAK256 SWAP5 ADD PUSH1 0x5 SHR DUP5 ADD PUSH1 0x1 DUP6 ADD PUSH2 0x198D JUMP JUMPDEST SSTORE SSTORE JUMP JUMPDEST SWAP2 SWAP1 DUP2 LT ISZERO PUSH2 0x85E JUMPI PUSH1 0x5 SHL ADD SWAP1 JUMP JUMPDEST CALLDATALOAD DUP1 ISZERO ISZERO DUP2 SUB PUSH2 0xEA JUMPI SWAP1 JUMP INVALID STOP ADDRESS SGT DUP10 CALLDATACOPY ADDMOD 0xBD OR JUMPDEST 0xC8 0xEE 0xED 0xD6 0xEA 0x1E CALLDATASIZE PUSH17 0x24BBC9BC7B110E7ED37BC77ACEAC57A264 PUSH10 0x70667358221220FA98F3 KECCAK256 PUSH5 0x339CBA8B15 NOT 0xC8 0xEB MCOPY DUP10 LOG2 0xE7 ADDRESS NOT SWAP14 GASPRICE 0xEF DUP3 0xBF 0xC0 SELFDESTRUCT 0x4D SWAP16 POP 0x2B DELEGATECALL 0xD3 PUSH5 0x736F6C6343 STOP ADDMOD XOR STOP CALLER "},"methodIdentifiers":{"REQUIRED_CB_SIGS()":"b5cea019","REQUIRED_LD_SIGS()":"12255d09","admin()":"f851a440","adminRevertTransaction(uint256)":"be87f7a9","batchSignTransactions(uint256[],bool[],string[])":"d319fd99","createTransaction(string)":"4d9e78d4","getTransactionSigners(uint256)":"3ecc1721","revokeMySignature(uint256)":"e5071a6f","setUserRole(address,uint8)":"03a69611","signTransaction(uint256,bool,string)":"4985e489","transactionCount()":"b77bf600","transactionSignatures(uint256,address)":"a9836205","transactionSigners(uint256,uint256)":"4a5f11c8","transactions(uint256)":"9ace38c2","userRoles(address)":"74d5e100"}}}}}