{"contracts/PlanningRegistry.sol":{"PlanningRegistry":{"abi":[{"anonymous":false,"inputs":[{"indexed":true,"internalType":"address","name":"previousOwner","type":"address"},{"indexed":true,"internalType":"address","name":"newOwner","type":"address"}],"name":"OwnershipTransferred","type":"event"},{"anonymous":false,"inputs":[{"indexed":true,"internalType":"uint256","name":"tokenId","type":"uint256"},{"indexed":true,"internalType":"uint256","name":"zoneId","type":"uint256"}],"name":"TokenAssignedToZone","type":"event"},{"anonymous":false,"inputs":[{"indexed":true,"internalType":"uint256","name":"zoneId","type":"uint256"},{"indexed":false,"internalType":"string","name":"name","type":"string"},{"indexed":false,"internalType":"enum PlanningRegistry.ZoneStatus","name":"status","type":"uint8"}],"name":"ZoneAdded","type":"event"},{"anonymous":false,"inputs":[{"indexed":true,"internalType":"uint256","name":"zoneId","type":"uint256"},{"indexed":false,"internalType":"enum PlanningRegistry.ZoneStatus","name":"oldStatus","type":"uint8"},{"indexed":false,"internalType":"enum PlanningRegistry.ZoneStatus","name":"newStatus","type":"uint8"}],"name":"ZoneStatusChanged","type":"event"},{"inputs":[{"internalType":"uint256","name":"zoneId","type":"uint256"},{"internalType":"string","name":"name","type":"string"},{"internalType":"enum PlanningRegistry.ZoneStatus","name":"status","type":"uint8"}],"name":"addZone","outputs":[],"stateMutability":"nonpayable","type":"function"},{"inputs":[{"internalType":"uint256","name":"tokenId","type":"uint256"},{"internalType":"uint256","name":"zoneId","type":"uint256"}],"name":"assignTokenToZone","outputs":[],"stateMutability":"nonpayable","type":"function"},{"inputs":[{"internalType":"uint256","name":"tokenId","type":"uint256"}],"name":"getTokenZone","outputs":[{"internalType":"uint256","name":"","type":"uint256"}],"stateMutability":"view","type":"function"},{"inputs":[{"internalType":"uint256","name":"tokenId","type":"uint256"}],"name":"isTokenInDanger","outputs":[{"internalType":"bool","name":"","type":"bool"}],"stateMutability":"view","type":"function"},{"inputs":[],"name":"owner","outputs":[{"internalType":"address","name":"","type":"address"}],"stateMutability":"view","type":"function"},{"inputs":[],"name":"renounceOwnership","outputs":[],"stateMutability":"nonpayable","type":"function"},{"inputs":[{"internalType":"uint256","name":"zoneId","type":"uint256"},{"internalType":"enum PlanningRegistry.ZoneStatus","name":"status","type":"uint8"}],"name":"setZoneStatus","outputs":[],"stateMutability":"nonpayable","type":"function"},{"inputs":[{"internalType":"uint256","name":"","type":"uint256"}],"name":"tokenZone","outputs":[{"internalType":"uint256","name":"","type":"uint256"}],"stateMutability":"view","type":"function"},{"inputs":[{"internalType":"address","name":"newOwner","type":"address"}],"name":"transferOwnership","outputs":[],"stateMutability":"nonpayable","type":"function"},{"inputs":[{"internalType":"uint256","name":"","type":"uint256"}],"name":"zones","outputs":[{"internalType":"uint256","name":"id","type":"uint256"},{"internalType":"string","name":"name","type":"string"},{"internalType":"enum PlanningRegistry.ZoneStatus","name":"status","type":"uint8"},{"internalType":"uint256","name":"createdAt","type":"uint256"}],"stateMutability":"view","type":"function"}],"evm":{"bytecode":{"linkReferences":{},"object":"6080806040523461005b5760008054336001600160a01b0319821681178355916001600160a01b03909116907f8be0079c531659141344cd1fd0a4f28419497f9722a3daafe3b4186f6b6457e09080a361096890816100618239f35b600080fdfe6080604052600436101561001257600080fd5b60003560e01c80630a87ef6714610778578063133396321461063457806335820fc4146105af578063715018a6146105db5780637db9b901146105af57806388cd777d146105405780638da5cb5b14610517578063a5f4bb65146101fa578063e5fce68d1461015a5763f2fde38b1461008a57600080fd5b34610155576020366003190112610155576004356001600160a01b0381811691829003610155576100b96108da565b811561010157600054826bffffffffffffffffffffffff60a01b821617600055167f8be0079c531659141344cd1fd0a4f28419497f9722a3daafe3b4186f6b6457e0600080a3005b60405162461bcd60e51b815260206004820152602660248201527f4f776e61626c653a206e6577206f776e657220697320746865207a65726f206160448201526564647265737360d01b6064820152608490fd5b600080fd5b346101555760403660031901126101555760043560243560038110156101555760407f04d9604f7869b647300aa2a25d1f49fa7c10997f4cf961b9c562bc0fd20fd674916101a66108da565b8360005260016020526101be82600020541515610885565b8360005260016020526101f760028360002001916101e18160ff855416946108c2565b6101ed84518094610812565b6020830190610812565ba2005b34610155576060366003190112610155576024803567ffffffffffffffff91828211610155573660238301121561015557828260040135116101555736818360040135840101116101555760036044351015610155576102586108da565b60043560005260016020526040600020546104dd576040519260808401848110828211176104c8576040526004358452604051906102a46020601f19601f8760040135011601836107da565b60048401358083528385016020840137600060208560040135840101526020850191825260443560408601524260608601526004356000526001602052604060002091855183555180519182116104b357819061030460018501546107a0565b601f8111610460575b50602090601f83116001146103f3576000926103e8575b50508160011b916000199060031b1c19161760018201555b604084015160038110156103d35760607f95ff4ebdc8430525866f3e639277a48bd3df8c3ed0b3c728ec6000247a109aa4949561037e600393600286016108c2565b01519101556040805181815260048501359181018290529184016060830137600060608460040135830101526103b960208201604435610812565b60048035930135601f01601f1916810181900360600190a2005b82634e487b7160e01b60005260216004526000fd5b015190508680610324565b600185016000908152602081209350601f198516905b818110610448575090846001959493921061042f575b505050811b01600182015561033c565b015160001960f88460031b161c1916905586808061041f565b92936020600181928786015181550195019301610409565b909150600184016000526020600020601f840160051c8101602085106104ac575b90849392915b601f830160051c8201811061049d57505061030d565b60008155859450600101610487565b5080610481565b83634e487b7160e01b60005260416004526000fd5b82634e487b7160e01b60005260416004526000fd5b60649060136040519162461bcd60e51b835260206004840152820152725a6f6e6520616c72656164792065786973747360681b6044820152fd5b34610155576000366003190112610155576000546040516001600160a01b039091168152602090f35b346101555760403660031901126101555760243560043561055f6108da565b8160005260016020526105786040600020541515610885565b806000526002602052816040600020557f33081169d910cb7bfa1f36a4f75ea18be15e7360a245824c389fa46be99feda9600080a3005b346101555760203660031901126101555760043560005260026020526020604060002054604051908152f35b34610155576000366003190112610155576105f46108da565b600080546001600160a01b0319811682556001600160a01b03167f8be0079c531659141344cd1fd0a4f28419497f9722a3daafe3b4186f6b6457e08280a3005b3461015557602080600319360112610155576004356000526001808252604060002091825492600181016040518094600090835493610672856107a0565b9485855287600182169182600014610756575050600114610717575b50506106a092509593929503846107da565b600360ff60028601541694015460405194859384526080838501528451928360808601526000955b8487106106fe57505060a094506106eb9060008685870101526040850190610812565b6060830152601f01601f19168101030190f35b86810182015188880160a00152958101958795506106c8565b86925060005281600020906000915b85831061073e5750506106a09350820101878061068e565b8054838a018501528894508793909201918101610726565b92509350506106a094915060ff191682840152151560051b820101878061068e565b34610155576020366003190112610155576020610796600435610835565b6040519015158152f35b90600182811c921680156107d0575b60208310146107ba57565b634e487b7160e01b600052602260045260246000fd5b91607f16916107af565b90601f8019910116810190811067ffffffffffffffff8211176107fc57604052565b634e487b7160e01b600052604160045260246000fd5b90600382101561081f5752565b634e487b7160e01b600052602160045260246000fd5b6000908152600260205260408120548015610881578152600160205260ff60026040832001541690600382101561086d575060021490565b634e487b7160e01b81526021600452602490fd5b5090565b1561088c57565b60405162461bcd60e51b815260206004820152600e60248201526d169bdb99481b9bdd08199bdd5b9960921b6044820152606490fd5b90600381101561081f5760ff80198354169116179055565b6000546001600160a01b031633036108ee57565b606460405162461bcd60e51b815260206004820152602060248201527f4f776e61626c653a2063616c6c6572206973206e6f7420746865206f776e65726044820152fdfea26469706673582212203b8f5fe971c4d5ac63460396c8b1478fa63d9cd3e6169004f36316858a69ac1064736f6c63430008180033","opcodes":"PUSH1 0x80 DUP1 PUSH1 0x40 MSTORE CALLVALUE PUSH2 0x5B JUMPI PUSH1 0x0 DUP1 SLOAD CALLER PUSH1 0x1 PUSH1 0x1 PUSH1 0xA0 SHL SUB NOT DUP3 AND DUP2 OR DUP4 SSTORE SWAP2 PUSH1 0x1 PUSH1 0x1 PUSH1 0xA0 SHL SUB SWAP1 SWAP2 AND SWAP1 PUSH32 0x8BE0079C531659141344CD1FD0A4F28419497F9722A3DAAFE3B4186F6B6457E0 SWAP1 DUP1 LOG3 PUSH2 0x968 SWAP1 DUP2 PUSH2 0x61 DUP3 CODECOPY RETURN JUMPDEST PUSH1 0x0 DUP1 REVERT INVALID PUSH1 0x80 PUSH1 0x40 MSTORE PUSH1 0x4 CALLDATASIZE LT ISZERO PUSH2 0x12 JUMPI PUSH1 0x0 DUP1 REVERT JUMPDEST PUSH1 0x0 CALLDATALOAD PUSH1 0xE0 SHR DUP1 PUSH4 0xA87EF67 EQ PUSH2 0x778 JUMPI DUP1 PUSH4 0x13339632 EQ PUSH2 0x634 JUMPI DUP1 PUSH4 0x35820FC4 EQ PUSH2 0x5AF JUMPI DUP1 PUSH4 0x715018A6 EQ PUSH2 0x5DB JUMPI DUP1 PUSH4 0x7DB9B901 EQ PUSH2 0x5AF JUMPI DUP1 PUSH4 0x88CD777D EQ PUSH2 0x540 JUMPI DUP1 PUSH4 0x8DA5CB5B EQ PUSH2 0x517 JUMPI DUP1 PUSH4 0xA5F4BB65 EQ PUSH2 0x1FA JUMPI DUP1 PUSH4 0xE5FCE68D EQ PUSH2 0x15A JUMPI PUSH4 0xF2FDE38B EQ PUSH2 0x8A JUMPI PUSH1 0x0 DUP1 REVERT JUMPDEST CALLVALUE PUSH2 0x155 JUMPI PUSH1 0x20 CALLDATASIZE PUSH1 0x3 NOT ADD SLT PUSH2 0x155 JUMPI PUSH1 0x4 CALLDATALOAD PUSH1 0x1 PUSH1 0x1 PUSH1 0xA0 SHL SUB DUP2 DUP2 AND SWAP2 DUP3 SWAP1 SUB PUSH2 0x155 JUMPI PUSH2 0xB9 PUSH2 0x8DA JUMP JUMPDEST DUP2 ISZERO PUSH2 0x101 JUMPI PUSH1 0x0 SLOAD DUP3 PUSH12 0xFFFFFFFFFFFFFFFFFFFFFFFF PUSH1 0xA0 SHL DUP3 AND OR PUSH1 0x0 SSTORE AND PUSH32 0x8BE0079C531659141344CD1FD0A4F28419497F9722A3DAAFE3B4186F6B6457E0 PUSH1 0x0 DUP1 LOG3 STOP JUMPDEST PUSH1 0x40 MLOAD PUSH3 0x461BCD PUSH1 0xE5 SHL DUP2 MSTORE PUSH1 0x20 PUSH1 0x4 DUP3 ADD MSTORE PUSH1 0x26 PUSH1 0x24 DUP3 ADD MSTORE PUSH32 0x4F776E61626C653A206E6577206F776E657220697320746865207A65726F2061 PUSH1 0x44 DUP3 ADD MSTORE PUSH6 0x646472657373 PUSH1 0xD0 SHL PUSH1 0x64 DUP3 ADD MSTORE PUSH1 0x84 SWAP1 REVERT JUMPDEST PUSH1 0x0 DUP1 REVERT JUMPDEST CALLVALUE PUSH2 0x155 JUMPI PUSH1 0x40 CALLDATASIZE PUSH1 0x3 NOT ADD SLT PUSH2 0x155 JUMPI PUSH1 0x4 CALLDATALOAD PUSH1 0x24 CALLDATALOAD PUSH1 0x3 DUP2 LT ISZERO PUSH2 0x155 JUMPI PUSH1 0x40 PUSH32 0x4D9604F7869B647300AA2A25D1F49FA7C10997F4CF961B9C562BC0FD20FD674 SWAP2 PUSH2 0x1A6 PUSH2 0x8DA JUMP JUMPDEST DUP4 PUSH1 0x0 MSTORE PUSH1 0x1 PUSH1 0x20 MSTORE PUSH2 0x1BE DUP3 PUSH1 0x0 KECCAK256 SLOAD ISZERO ISZERO PUSH2 0x885 JUMP JUMPDEST DUP4 PUSH1 0x0 MSTORE PUSH1 0x1 PUSH1 0x20 MSTORE PUSH2 0x1F7 PUSH1 0x2 DUP4 PUSH1 0x0 KECCAK256 ADD SWAP2 PUSH2 0x1E1 DUP2 PUSH1 0xFF DUP6 SLOAD AND SWAP5 PUSH2 0x8C2 JUMP JUMPDEST PUSH2 0x1ED DUP5 MLOAD DUP1 SWAP5 PUSH2 0x812 JUMP JUMPDEST PUSH1 0x20 DUP4 ADD SWAP1 PUSH2 0x812 JUMP JUMPDEST LOG2 STOP JUMPDEST CALLVALUE PUSH2 0x155 JUMPI PUSH1 0x60 CALLDATASIZE PUSH1 0x3 NOT ADD SLT PUSH2 0x155 JUMPI PUSH1 0x24 DUP1 CALLDATALOAD PUSH8 0xFFFFFFFFFFFFFFFF SWAP2 DUP3 DUP3 GT PUSH2 0x155 JUMPI CALLDATASIZE PUSH1 0x23 DUP4 ADD SLT ISZERO PUSH2 0x155 JUMPI DUP3 DUP3 PUSH1 0x4 ADD CALLDATALOAD GT PUSH2 0x155 JUMPI CALLDATASIZE DUP2 DUP4 PUSH1 0x4 ADD CALLDATALOAD DUP5 ADD ADD GT PUSH2 0x155 JUMPI PUSH1 0x3 PUSH1 0x44 CALLDATALOAD LT ISZERO PUSH2 0x155 JUMPI PUSH2 0x258 PUSH2 0x8DA JUMP JUMPDEST PUSH1 0x4 CALLDATALOAD PUSH1 0x0 MSTORE PUSH1 0x1 PUSH1 0x20 MSTORE PUSH1 0x40 PUSH1 0x0 KECCAK256 SLOAD PUSH2 0x4DD JUMPI PUSH1 0x40 MLOAD SWAP3 PUSH1 0x80 DUP5 ADD DUP5 DUP2 LT DUP3 DUP3 GT OR PUSH2 0x4C8 JUMPI PUSH1 0x40 MSTORE PUSH1 0x4 CALLDATALOAD DUP5 MSTORE PUSH1 0x40 MLOAD SWAP1 PUSH2 0x2A4 PUSH1 0x20 PUSH1 0x1F NOT PUSH1 0x1F DUP8 PUSH1 0x4 ADD CALLDATALOAD ADD AND ADD DUP4 PUSH2 0x7DA JUMP JUMPDEST PUSH1 0x4 DUP5 ADD CALLDATALOAD DUP1 DUP4 MSTORE DUP4 DUP6 ADD PUSH1 0x20 DUP5 ADD CALLDATACOPY PUSH1 0x0 PUSH1 0x20 DUP6 PUSH1 0x4 ADD CALLDATALOAD DUP5 ADD ADD MSTORE PUSH1 0x20 DUP6 ADD SWAP2 DUP3 MSTORE PUSH1 0x44 CALLDATALOAD PUSH1 0x40 DUP7 ADD MSTORE TIMESTAMP PUSH1 0x60 DUP7 ADD MSTORE PUSH1 0x4 CALLDATALOAD PUSH1 0x0 MSTORE PUSH1 0x1 PUSH1 0x20 MSTORE PUSH1 0x40 PUSH1 0x0 KECCAK256 SWAP2 DUP6 MLOAD DUP4 SSTORE MLOAD DUP1 MLOAD SWAP2 DUP3 GT PUSH2 0x4B3 JUMPI DUP2 SWAP1 PUSH2 0x304 PUSH1 0x1 DUP6 ADD SLOAD PUSH2 0x7A0 JUMP JUMPDEST PUSH1 0x1F DUP2 GT PUSH2 0x460 JUMPI JUMPDEST POP PUSH1 0x20 SWAP1 PUSH1 0x1F DUP4 GT PUSH1 0x1 EQ PUSH2 0x3F3 JUMPI PUSH1 0x0 SWAP3 PUSH2 0x3E8 JUMPI JUMPDEST POP POP DUP2 PUSH1 0x1 SHL SWAP2 PUSH1 0x0 NOT SWAP1 PUSH1 0x3 SHL SHR NOT AND OR PUSH1 0x1 DUP3 ADD SSTORE JUMPDEST PUSH1 0x40 DUP5 ADD MLOAD PUSH1 0x3 DUP2 LT ISZERO PUSH2 0x3D3 JUMPI PUSH1 0x60 PUSH32 0x95FF4EBDC8430525866F3E639277A48BD3DF8C3ED0B3C728EC6000247A109AA4 SWAP5 SWAP6 PUSH2 0x37E PUSH1 0x3 SWAP4 PUSH1 0x2 DUP7 ADD PUSH2 0x8C2 JUMP JUMPDEST ADD MLOAD SWAP2 ADD SSTORE PUSH1 0x40 DUP1 MLOAD DUP2 DUP2 MSTORE PUSH1 0x4 DUP6 ADD CALLDATALOAD SWAP2 DUP2 ADD DUP3 SWAP1 MSTORE SWAP2 DUP5 ADD PUSH1 0x60 DUP4 ADD CALLDATACOPY PUSH1 0x0 PUSH1 0x60 DUP5 PUSH1 0x4 ADD CALLDATALOAD DUP4 ADD ADD MSTORE PUSH2 0x3B9 PUSH1 0x20 DUP3 ADD PUSH1 0x44 CALLDATALOAD PUSH2 0x812 JUMP JUMPDEST PUSH1 0x4 DUP1 CALLDATALOAD SWAP4 ADD CALLDATALOAD PUSH1 0x1F ADD PUSH1 0x1F NOT AND DUP2 ADD DUP2 SWAP1 SUB PUSH1 0x60 ADD SWAP1 LOG2 STOP JUMPDEST DUP3 PUSH4 0x4E487B71 PUSH1 0xE0 SHL PUSH1 0x0 MSTORE PUSH1 0x21 PUSH1 0x4 MSTORE PUSH1 0x0 REVERT JUMPDEST ADD MLOAD SWAP1 POP DUP7 DUP1 PUSH2 0x324 JUMP JUMPDEST PUSH1 0x1 DUP6 ADD PUSH1 0x0 SWAP1 DUP2 MSTORE PUSH1 0x20 DUP2 KECCAK256 SWAP4 POP PUSH1 0x1F NOT DUP6 AND SWAP1 JUMPDEST DUP2 DUP2 LT PUSH2 0x448 JUMPI POP SWAP1 DUP5 PUSH1 0x1 SWAP6 SWAP5 SWAP4 SWAP3 LT PUSH2 0x42F JUMPI JUMPDEST POP POP POP DUP2 SHL ADD PUSH1 0x1 DUP3 ADD SSTORE PUSH2 0x33C JUMP JUMPDEST ADD MLOAD PUSH1 0x0 NOT PUSH1 0xF8 DUP5 PUSH1 0x3 SHL AND SHR NOT AND SWAP1 SSTORE DUP7 DUP1 DUP1 PUSH2 0x41F JUMP JUMPDEST SWAP3 SWAP4 PUSH1 0x20 PUSH1 0x1 DUP2 SWAP3 DUP8 DUP7 ADD MLOAD DUP2 SSTORE ADD SWAP6 ADD SWAP4 ADD PUSH2 0x409 JUMP JUMPDEST SWAP1 SWAP2 POP PUSH1 0x1 DUP5 ADD PUSH1 0x0 MSTORE PUSH1 0x20 PUSH1 0x0 KECCAK256 PUSH1 0x1F DUP5 ADD PUSH1 0x5 SHR DUP2 ADD PUSH1 0x20 DUP6 LT PUSH2 0x4AC JUMPI JUMPDEST SWAP1 DUP5 SWAP4 SWAP3 SWAP2 JUMPDEST PUSH1 0x1F DUP4 ADD PUSH1 0x5 SHR DUP3 ADD DUP2 LT PUSH2 0x49D JUMPI POP POP PUSH2 0x30D JUMP JUMPDEST PUSH1 0x0 DUP2 SSTORE DUP6 SWAP5 POP PUSH1 0x1 ADD PUSH2 0x487 JUMP JUMPDEST POP DUP1 PUSH2 0x481 JUMP JUMPDEST DUP4 PUSH4 0x4E487B71 PUSH1 0xE0 SHL PUSH1 0x0 MSTORE PUSH1 0x41 PUSH1 0x4 MSTORE PUSH1 0x0 REVERT JUMPDEST DUP3 PUSH4 0x4E487B71 PUSH1 0xE0 SHL PUSH1 0x0 MSTORE PUSH1 0x41 PUSH1 0x4 MSTORE PUSH1 0x0 REVERT JUMPDEST PUSH1 0x64 SWAP1 PUSH1 0x13 PUSH1 0x40 MLOAD SWAP2 PUSH3 0x461BCD PUSH1 0xE5 SHL DUP4 MSTORE PUSH1 0x20 PUSH1 0x4 DUP5 ADD MSTORE DUP3 ADD MSTORE PUSH19 0x5A6F6E6520616C726561647920657869737473 PUSH1 0x68 SHL PUSH1 0x44 DUP3 ADD MSTORE REVERT JUMPDEST CALLVALUE PUSH2 0x155 JUMPI PUSH1 0x0 CALLDATASIZE PUSH1 0x3 NOT ADD SLT PUSH2 0x155 JUMPI PUSH1 0x0 SLOAD PUSH1 0x40 MLOAD PUSH1 0x1 PUSH1 0x1 PUSH1 0xA0 SHL SUB SWAP1 SWAP2 AND DUP2 MSTORE PUSH1 0x20 SWAP1 RETURN JUMPDEST CALLVALUE PUSH2 0x155 JUMPI PUSH1 0x40 CALLDATASIZE PUSH1 0x3 NOT ADD SLT PUSH2 0x155 JUMPI PUSH1 0x24 CALLDATALOAD PUSH1 0x4 CALLDATALOAD PUSH2 0x55F PUSH2 0x8DA JUMP JUMPDEST DUP2 PUSH1 0x0 MSTORE PUSH1 0x1 PUSH1 0x20 MSTORE PUSH2 0x578 PUSH1 0x40 PUSH1 0x0 KECCAK256 SLOAD ISZERO ISZERO PUSH2 0x885 JUMP JUMPDEST DUP1 PUSH1 0x0 MSTORE PUSH1 0x2 PUSH1 0x20 MSTORE DUP2 PUSH1 0x40 PUSH1 0x0 KECCAK256 SSTORE PUSH32 0x33081169D910CB7BFA1F36A4F75EA18BE15E7360A245824C389FA46BE99FEDA9 PUSH1 0x0 DUP1 LOG3 STOP JUMPDEST CALLVALUE PUSH2 0x155 JUMPI PUSH1 0x20 CALLDATASIZE PUSH1 0x3 NOT ADD SLT PUSH2 0x155 JUMPI PUSH1 0x4 CALLDATALOAD PUSH1 0x0 MSTORE PUSH1 0x2 PUSH1 0x20 MSTORE PUSH1 0x20 PUSH1 0x40 PUSH1 0x0 KECCAK256 SLOAD PUSH1 0x40 MLOAD SWAP1 DUP2 MSTORE RETURN JUMPDEST CALLVALUE PUSH2 0x155 JUMPI PUSH1 0x0 CALLDATASIZE PUSH1 0x3 NOT ADD SLT PUSH2 0x155 JUMPI PUSH2 0x5F4 PUSH2 0x8DA JUMP JUMPDEST PUSH1 0x0 DUP1 SLOAD PUSH1 0x1 PUSH1 0x1 PUSH1 0xA0 SHL SUB NOT DUP2 AND DUP3 SSTORE PUSH1 0x1 PUSH1 0x1 PUSH1 0xA0 SHL SUB AND PUSH32 0x8BE0079C531659141344CD1FD0A4F28419497F9722A3DAAFE3B4186F6B6457E0 DUP3 DUP1 LOG3 STOP JUMPDEST CALLVALUE PUSH2 0x155 JUMPI PUSH1 0x20 DUP1 PUSH1 0x3 NOT CALLDATASIZE ADD SLT PUSH2 0x155 JUMPI PUSH1 0x4 CALLDATALOAD PUSH1 0x0 MSTORE PUSH1 0x1 DUP1 DUP3 MSTORE PUSH1 0x40 PUSH1 0x0 KECCAK256 SWAP2 DUP3 SLOAD SWAP3 PUSH1 0x1 DUP2 ADD PUSH1 0x40 MLOAD DUP1 SWAP5 PUSH1 0x0 SWAP1 DUP4 SLOAD SWAP4 PUSH2 0x672 DUP6 PUSH2 0x7A0 JUMP JUMPDEST SWAP5 DUP6 DUP6 MSTORE DUP8 PUSH1 0x1 DUP3 AND SWAP2 DUP3 PUSH1 0x0 EQ PUSH2 0x756 JUMPI POP POP PUSH1 0x1 EQ PUSH2 0x717 JUMPI JUMPDEST POP POP PUSH2 0x6A0 SWAP3 POP SWAP6 SWAP4 SWAP3 SWAP6 SUB DUP5 PUSH2 0x7DA JUMP JUMPDEST PUSH1 0x3 PUSH1 0xFF PUSH1 0x2 DUP7 ADD SLOAD AND SWAP5 ADD SLOAD PUSH1 0x40 MLOAD SWAP5 DUP6 SWAP4 DUP5 MSTORE PUSH1 0x80 DUP4 DUP6 ADD MSTORE DUP5 MLOAD SWAP3 DUP4 PUSH1 0x80 DUP7 ADD MSTORE PUSH1 0x0 SWAP6 JUMPDEST DUP5 DUP8 LT PUSH2 0x6FE JUMPI POP POP PUSH1 0xA0 SWAP5 POP PUSH2 0x6EB SWAP1 PUSH1 0x0 DUP7 DUP6 DUP8 ADD ADD MSTORE PUSH1 0x40 DUP6 ADD SWAP1 PUSH2 0x812 JUMP JUMPDEST PUSH1 0x60 DUP4 ADD MSTORE PUSH1 0x1F ADD PUSH1 0x1F NOT AND DUP2 ADD SUB ADD SWAP1 RETURN JUMPDEST DUP7 DUP2 ADD DUP3 ADD MLOAD DUP9 DUP9 ADD PUSH1 0xA0 ADD MSTORE SWAP6 DUP2 ADD SWAP6 DUP8 SWAP6 POP PUSH2 0x6C8 JUMP JUMPDEST DUP7 SWAP3 POP PUSH1 0x0 MSTORE DUP2 PUSH1 0x0 KECCAK256 SWAP1 PUSH1 0x0 SWAP2 JUMPDEST DUP6 DUP4 LT PUSH2 0x73E JUMPI POP POP PUSH2 0x6A0 SWAP4 POP DUP3 ADD ADD DUP8 DUP1 PUSH2 0x68E JUMP JUMPDEST DUP1 SLOAD DUP4 DUP11 ADD DUP6 ADD MSTORE DUP9 SWAP5 POP DUP8 SWAP4 SWAP1 SWAP3 ADD SWAP2 DUP2 ADD PUSH2 0x726 JUMP JUMPDEST SWAP3 POP SWAP4 POP POP PUSH2 0x6A0 SWAP5 SWAP2 POP PUSH1 0xFF NOT AND DUP3 DUP5 ADD MSTORE ISZERO ISZERO PUSH1 0x5 SHL DUP3 ADD ADD DUP8 DUP1 PUSH2 0x68E JUMP JUMPDEST CALLVALUE PUSH2 0x155 JUMPI PUSH1 0x20 CALLDATASIZE PUSH1 0x3 NOT ADD SLT PUSH2 0x155 JUMPI PUSH1 0x20 PUSH2 0x796 PUSH1 0x4 CALLDATALOAD PUSH2 0x835 JUMP JUMPDEST PUSH1 0x40 MLOAD SWAP1 ISZERO ISZERO DUP2 MSTORE RETURN JUMPDEST SWAP1 PUSH1 0x1 DUP3 DUP2 SHR SWAP3 AND DUP1 ISZERO PUSH2 0x7D0 JUMPI JUMPDEST PUSH1 0x20 DUP4 LT EQ PUSH2 0x7BA JUMPI JUMP JUMPDEST PUSH4 0x4E487B71 PUSH1 0xE0 SHL PUSH1 0x0 MSTORE PUSH1 0x22 PUSH1 0x4 MSTORE PUSH1 0x24 PUSH1 0x0 REVERT JUMPDEST SWAP2 PUSH1 0x7F AND SWAP2 PUSH2 0x7AF JUMP JUMPDEST SWAP1 PUSH1 0x1F DUP1 NOT SWAP2 ADD AND DUP2 ADD SWAP1 DUP2 LT PUSH8 0xFFFFFFFFFFFFFFFF DUP3 GT OR PUSH2 0x7FC JUMPI PUSH1 0x40 MSTORE JUMP JUMPDEST PUSH4 0x4E487B71 PUSH1 0xE0 SHL PUSH1 0x0 MSTORE PUSH1 0x41 PUSH1 0x4 MSTORE PUSH1 0x24 PUSH1 0x0 REVERT JUMPDEST SWAP1 PUSH1 0x3 DUP3 LT ISZERO PUSH2 0x81F JUMPI MSTORE JUMP JUMPDEST PUSH4 0x4E487B71 PUSH1 0xE0 SHL PUSH1 0x0 MSTORE PUSH1 0x21 PUSH1 0x4 MSTORE PUSH1 0x24 PUSH1 0x0 REVERT JUMPDEST PUSH1 0x0 SWAP1 DUP2 MSTORE PUSH1 0x2 PUSH1 0x20 MSTORE PUSH1 0x40 DUP2 KECCAK256 SLOAD DUP1 ISZERO PUSH2 0x881 JUMPI DUP2 MSTORE PUSH1 0x1 PUSH1 0x20 MSTORE PUSH1 0xFF PUSH1 0x2 PUSH1 0x40 DUP4 KECCAK256 ADD SLOAD AND SWAP1 PUSH1 0x3 DUP3 LT ISZERO PUSH2 0x86D JUMPI POP PUSH1 0x2 EQ SWAP1 JUMP JUMPDEST PUSH4 0x4E487B71 PUSH1 0xE0 SHL DUP2 MSTORE PUSH1 0x21 PUSH1 0x4 MSTORE PUSH1 0x24 SWAP1 REVERT JUMPDEST POP SWAP1 JUMP JUMPDEST ISZERO PUSH2 0x88C JUMPI JUMP JUMPDEST PUSH1 0x40 MLOAD PUSH3 0x461BCD PUSH1 0xE5 SHL DUP2 MSTORE PUSH1 0x20 PUSH1 0x4 DUP3 ADD MSTORE PUSH1 0xE PUSH1 0x24 DUP3 ADD MSTORE PUSH14 0x169BDB99481B9BDD08199BDD5B99 PUSH1 0x92 SHL PUSH1 0x44 DUP3 ADD MSTORE PUSH1 0x64 SWAP1 REVERT JUMPDEST SWAP1 PUSH1 0x3 DUP2 LT ISZERO PUSH2 0x81F JUMPI PUSH1 0xFF DUP1 NOT DUP4 SLOAD AND SWAP2 AND OR SWAP1 SSTORE JUMP JUMPDEST PUSH1 0x0 SLOAD PUSH1 0x1 PUSH1 0x1 PUSH1 0xA0 SHL SUB AND CALLER SUB PUSH2 0x8EE JUMPI JUMP JUMPDEST PUSH1 0x64 PUSH1 0x40 MLOAD PUSH3 0x461BCD PUSH1 0xE5 SHL DUP2 MSTORE PUSH1 0x20 PUSH1 0x4 DUP3 ADD MSTORE PUSH1 0x20 PUSH1 0x24 DUP3 ADD MSTORE PUSH32 0x4F776E61626C653A2063616C6C6572206973206E6F7420746865206F776E6572 PUSH1 0x44 DUP3 ADD MSTORE REVERT INVALID LOG2 PUSH5 0x6970667358 0x22 SLT KECCAK256 EXTCODESIZE DUP16 PUSH0 0xE9 PUSH18 0xC4D5AC63460396C8B1478FA63D9CD3E61690 DIV RETURN PUSH4 0x16858A69 0xAC LT PUSH5 0x736F6C6343 STOP ADDMOD XOR STOP CALLER "},"methodIdentifiers":{"addZone(uint256,string,uint8)":"a5f4bb65","assignTokenToZone(uint256,uint256)":"88cd777d","getTokenZone(uint256)":"35820fc4","isTokenInDanger(uint256)":"0a87ef67","owner()":"8da5cb5b","renounceOwnership()":"715018a6","setZoneStatus(uint256,uint8)":"e5fce68d","tokenZone(uint256)":"7db9b901","transferOwnership(address)":"f2fde38b","zones(uint256)":"13339632"}}}}}