{"contracts/utils/AccessControl.sol":{"AccessControl":{"abi":[{"inputs":[],"stateMutability":"nonpayable","type":"constructor"},{"anonymous":false,"inputs":[{"indexed":true,"internalType":"bytes32","name":"role","type":"bytes32"},{"indexed":true,"internalType":"address","name":"account","type":"address"},{"indexed":true,"internalType":"address","name":"sender","type":"address"}],"name":"RoleGranted","type":"event"},{"anonymous":false,"inputs":[{"indexed":true,"internalType":"bytes32","name":"role","type":"bytes32"},{"indexed":true,"internalType":"address","name":"account","type":"address"},{"indexed":true,"internalType":"address","name":"sender","type":"address"}],"name":"RoleRevoked","type":"event"},{"inputs":[],"name":"ROLE_AD","outputs":[{"internalType":"bytes32","name":"","type":"bytes32"}],"stateMutability":"view","type":"function"},{"inputs":[],"name":"ROLE_CB","outputs":[{"internalType":"bytes32","name":"","type":"bytes32"}],"stateMutability":"view","type":"function"},{"inputs":[],"name":"ROLE_CS","outputs":[{"internalType":"bytes32","name":"","type":"bytes32"}],"stateMutability":"view","type":"function"},{"inputs":[],"name":"ROLE_LD","outputs":[{"internalType":"bytes32","name":"","type":"bytes32"}],"stateMutability":"view","type":"function"},{"inputs":[],"name":"ROLE_ND","outputs":[{"internalType":"bytes32","name":"","type":"bytes32"}],"stateMutability":"view","type":"function"},{"inputs":[{"internalType":"bytes32","name":"role","type":"bytes32"},{"internalType":"address","name":"account","type":"address"}],"name":"grantRole","outputs":[],"stateMutability":"nonpayable","type":"function"},{"inputs":[{"internalType":"bytes32","name":"role","type":"bytes32"},{"internalType":"address","name":"account","type":"address"}],"name":"hasRole","outputs":[{"internalType":"bool","name":"","type":"bool"}],"stateMutability":"view","type":"function"},{"inputs":[{"internalType":"bytes32","name":"role","type":"bytes32"}],"name":"renounceRole","outputs":[],"stateMutability":"nonpayable","type":"function"},{"inputs":[{"internalType":"bytes32","name":"role","type":"bytes32"},{"internalType":"address","name":"account","type":"address"}],"name":"revokeRole","outputs":[],"stateMutability":"nonpayable","type":"function"}],"evm":{"bytecode":{"linkReferences":{},"object":"608080604052346100bf573360009081527f3a15488f438acaa58f4d8175318f8db36356108ee580851e3b7cbaff3c0e9f3360205260408120547f24655a250d8b099f3ae151325f4c6e6cf9aa4773ecfbe7a485b2e8b7107261a5919060ff1615610071575b61044f83816100c58239f35b818152806020526040812033825260205260408120600160ff1982541617905533917f2f8788117e7eff1d82e926ec794901d17c78024a50270940304540a733656f0d339280a43880610065565b600080fdfe60806040818152600436101561001457600080fd5b600091823560e01c9081631cc9d63e146102e9575080632f2ff15d146102265780633bbc751c146101ec5780635754208c146101b25780638bb9c5bf146101915780638d2891941461015757806391d148541461011e578063d547741f146100c25763d71b50871461008557600080fd5b346100be57816003193601126100be57602090517fc5ea999077296caf134ec2c23d97400e30e312fa37c4ffd742b6ce5f1971af618152f35b5080fd5b50346100be5760ff61011b916101166100da36610323565b9390927f24655a250d8b099f3ae151325f4c6e6cf9aa4773ecfbe7a485b2e8b7107261a58752866020528087203388526020528620541661034e565b6103a5565b80f35b50346100be5760ff8160209361013336610323565b9082528186528282206001600160a01b039091168252855220549151911615158152f35b50346100be57816003193601126100be57602090517f24655a250d8b099f3ae151325f4c6e6cf9aa4773ecfbe7a485b2e8b7107261a58152f35b82346101af5760203660031901126101af5761011b336004356103a5565b80fd5b50346100be57816003193601126100be57602090517fb32b131279ac46e71cf98408ddf89c8abafc658831f2f25a783ce04b3f40d4ed8152f35b50346100be57816003193601126100be57602090517ff95006aa3663cc8e3bd582fbf39ac42bd1b3e00e434f5d3ba4fe374b8527d29c8152f35b50346100be5761023536610323565b90917f24655a250d8b099f3ae151325f4c6e6cf9aa4773ecfbe7a485b2e8b7107261a584526020848152818520338652815261027660ff838720541661034e565b8385528481528185206001600160a01b039093168086529281528185205460ff16156102a0578480f35b83855284815281852083865290528320805460ff1916600117905533917f2f8788117e7eff1d82e926ec794901d17c78024a50270940304540a733656f0d8480a4388080808480f35b8390346100be57816003193601126100be57807f896e9014b143fb785c2842af56d7917eed34cb89e0338e69310821d582d576c760209252f35b604090600319011261034957600435906024356001600160a01b03811681036103495790565b600080fd5b1561035557565b60405162461bcd60e51b815260206004820152602260248201527f416363657373436f6e74726f6c3a2063616c6c6572206973206e6f742061646d60448201526134b760f11b6064820152608490fd5b9060009180835282602052604083209160018060a01b03169182845260205260ff6040842054166103d557505050565b80835282602052604083208284526020526040832060ff1981541690557ff6391f5c32d9c69d2a47ea670b442974b53935d1edc7fd64eb21e047a839171b339380a456fea26469706673582212204b5a31fa3dc2abf5888c75c7cefe02ac94b55978e63901d2988829fd51eac8c064736f6c63430008180033","opcodes":"PUSH1 0x80 DUP1 PUSH1 0x40 MSTORE CALLVALUE PUSH2 0xBF JUMPI CALLER PUSH1 0x0 SWAP1 DUP2 MSTORE PUSH32 0x3A15488F438ACAA58F4D8175318F8DB36356108EE580851E3B7CBAFF3C0E9F33 PUSH1 0x20 MSTORE PUSH1 0x40 DUP2 KECCAK256 SLOAD PUSH32 0x24655A250D8B099F3AE151325F4C6E6CF9AA4773ECFBE7A485B2E8B7107261A5 SWAP2 SWAP1 PUSH1 0xFF AND ISZERO PUSH2 0x71 JUMPI JUMPDEST PUSH2 0x44F DUP4 DUP2 PUSH2 0xC5 DUP3 CODECOPY RETURN JUMPDEST DUP2 DUP2 MSTORE DUP1 PUSH1 0x20 MSTORE PUSH1 0x40 DUP2 KECCAK256 CALLER DUP3 MSTORE PUSH1 0x20 MSTORE PUSH1 0x40 DUP2 KECCAK256 PUSH1 0x1 PUSH1 0xFF NOT DUP3 SLOAD AND OR SWAP1 SSTORE CALLER SWAP2 PUSH32 0x2F8788117E7EFF1D82E926EC794901D17C78024A50270940304540A733656F0D CALLER SWAP3 DUP1 LOG4 CODESIZE DUP1 PUSH2 0x65 JUMP JUMPDEST PUSH1 0x0 DUP1 REVERT INVALID PUSH1 0x80 PUSH1 0x40 DUP2 DUP2 MSTORE PUSH1 0x4 CALLDATASIZE LT ISZERO PUSH2 0x14 JUMPI PUSH1 0x0 DUP1 REVERT JUMPDEST PUSH1 0x0 SWAP2 DUP3 CALLDATALOAD PUSH1 0xE0 SHR SWAP1 DUP2 PUSH4 0x1CC9D63E EQ PUSH2 0x2E9 JUMPI POP DUP1 PUSH4 0x2F2FF15D EQ PUSH2 0x226 JUMPI DUP1 PUSH4 0x3BBC751C EQ PUSH2 0x1EC JUMPI DUP1 PUSH4 0x5754208C EQ PUSH2 0x1B2 JUMPI DUP1 PUSH4 0x8BB9C5BF EQ PUSH2 0x191 JUMPI DUP1 PUSH4 0x8D289194 EQ PUSH2 0x157 JUMPI DUP1 PUSH4 0x91D14854 EQ PUSH2 0x11E JUMPI DUP1 PUSH4 0xD547741F EQ PUSH2 0xC2 JUMPI PUSH4 0xD71B5087 EQ PUSH2 0x85 JUMPI PUSH1 0x0 DUP1 REVERT JUMPDEST CALLVALUE PUSH2 0xBE JUMPI DUP2 PUSH1 0x3 NOT CALLDATASIZE ADD SLT PUSH2 0xBE JUMPI PUSH1 0x20 SWAP1 MLOAD PUSH32 0xC5EA999077296CAF134EC2C23D97400E30E312FA37C4FFD742B6CE5F1971AF61 DUP2 MSTORE RETURN JUMPDEST POP DUP1 REVERT JUMPDEST POP CALLVALUE PUSH2 0xBE JUMPI PUSH1 0xFF PUSH2 0x11B SWAP2 PUSH2 0x116 PUSH2 0xDA CALLDATASIZE PUSH2 0x323 JUMP JUMPDEST SWAP4 SWAP1 SWAP3 PUSH32 0x24655A250D8B099F3AE151325F4C6E6CF9AA4773ECFBE7A485B2E8B7107261A5 DUP8 MSTORE DUP7 PUSH1 0x20 MSTORE DUP1 DUP8 KECCAK256 CALLER DUP9 MSTORE PUSH1 0x20 MSTORE DUP7 KECCAK256 SLOAD AND PUSH2 0x34E JUMP JUMPDEST PUSH2 0x3A5 JUMP JUMPDEST DUP1 RETURN JUMPDEST POP CALLVALUE PUSH2 0xBE JUMPI PUSH1 0xFF DUP2 PUSH1 0x20 SWAP4 PUSH2 0x133 CALLDATASIZE PUSH2 0x323 JUMP JUMPDEST SWAP1 DUP3 MSTORE DUP2 DUP7 MSTORE DUP3 DUP3 KECCAK256 PUSH1 0x1 PUSH1 0x1 PUSH1 0xA0 SHL SUB SWAP1 SWAP2 AND DUP3 MSTORE DUP6 MSTORE KECCAK256 SLOAD SWAP2 MLOAD SWAP2 AND ISZERO ISZERO DUP2 MSTORE RETURN JUMPDEST POP CALLVALUE PUSH2 0xBE JUMPI DUP2 PUSH1 0x3 NOT CALLDATASIZE ADD SLT PUSH2 0xBE JUMPI PUSH1 0x20 SWAP1 MLOAD PUSH32 0x24655A250D8B099F3AE151325F4C6E6CF9AA4773ECFBE7A485B2E8B7107261A5 DUP2 MSTORE RETURN JUMPDEST DUP3 CALLVALUE PUSH2 0x1AF JUMPI PUSH1 0x20 CALLDATASIZE PUSH1 0x3 NOT ADD SLT PUSH2 0x1AF JUMPI PUSH2 0x11B CALLER PUSH1 0x4 CALLDATALOAD PUSH2 0x3A5 JUMP JUMPDEST DUP1 REVERT JUMPDEST POP CALLVALUE PUSH2 0xBE JUMPI DUP2 PUSH1 0x3 NOT CALLDATASIZE ADD SLT PUSH2 0xBE JUMPI PUSH1 0x20 SWAP1 MLOAD PUSH32 0xB32B131279AC46E71CF98408DDF89C8ABAFC658831F2F25A783CE04B3F40D4ED DUP2 MSTORE RETURN JUMPDEST POP CALLVALUE PUSH2 0xBE JUMPI DUP2 PUSH1 0x3 NOT CALLDATASIZE ADD SLT PUSH2 0xBE JUMPI PUSH1 0x20 SWAP1 MLOAD PUSH32 0xF95006AA3663CC8E3BD582FBF39AC42BD1B3E00E434F5D3BA4FE374B8527D29C DUP2 MSTORE RETURN JUMPDEST POP CALLVALUE PUSH2 0xBE JUMPI PUSH2 0x235 CALLDATASIZE PUSH2 0x323 JUMP JUMPDEST SWAP1 SWAP2 PUSH32 0x24655A250D8B099F3AE151325F4C6E6CF9AA4773ECFBE7A485B2E8B7107261A5 DUP5 MSTORE PUSH1 0x20 DUP5 DUP2 MSTORE DUP2 DUP6 KECCAK256 CALLER DUP7 MSTORE DUP2 MSTORE PUSH2 0x276 PUSH1 0xFF DUP4 DUP8 KECCAK256 SLOAD AND PUSH2 0x34E JUMP JUMPDEST DUP4 DUP6 MSTORE DUP5 DUP2 MSTORE DUP2 DUP6 KECCAK256 PUSH1 0x1 PUSH1 0x1 PUSH1 0xA0 SHL SUB SWAP1 SWAP4 AND DUP1 DUP7 MSTORE SWAP3 DUP2 MSTORE DUP2 DUP6 KECCAK256 SLOAD PUSH1 0xFF AND ISZERO PUSH2 0x2A0 JUMPI DUP5 DUP1 RETURN JUMPDEST DUP4 DUP6 MSTORE DUP5 DUP2 MSTORE DUP2 DUP6 KECCAK256 DUP4 DUP7 MSTORE SWAP1 MSTORE DUP4 KECCAK256 DUP1 SLOAD PUSH1 0xFF NOT AND PUSH1 0x1 OR SWAP1 SSTORE CALLER SWAP2 PUSH32 0x2F8788117E7EFF1D82E926EC794901D17C78024A50270940304540A733656F0D DUP5 DUP1 LOG4 CODESIZE DUP1 DUP1 DUP1 DUP5 DUP1 RETURN JUMPDEST DUP4 SWAP1 CALLVALUE PUSH2 0xBE JUMPI DUP2 PUSH1 0x3 NOT CALLDATASIZE ADD SLT PUSH2 0xBE JUMPI DUP1 PUSH32 0x896E9014B143FB785C2842AF56D7917EED34CB89E0338E69310821D582D576C7 PUSH1 0x20 SWAP3 MSTORE RETURN JUMPDEST PUSH1 0x40 SWAP1 PUSH1 0x3 NOT ADD SLT PUSH2 0x349 JUMPI PUSH1 0x4 CALLDATALOAD SWAP1 PUSH1 0x24 CALLDATALOAD PUSH1 0x1 PUSH1 0x1 PUSH1 0xA0 SHL SUB DUP2 AND DUP2 SUB PUSH2 0x349 JUMPI SWAP1 JUMP JUMPDEST PUSH1 0x0 DUP1 REVERT JUMPDEST ISZERO PUSH2 0x355 JUMPI JUMP JUMPDEST PUSH1 0x40 MLOAD PUSH3 0x461BCD PUSH1 0xE5 SHL DUP2 MSTORE PUSH1 0x20 PUSH1 0x4 DUP3 ADD MSTORE PUSH1 0x22 PUSH1 0x24 DUP3 ADD MSTORE PUSH32 0x416363657373436F6E74726F6C3A2063616C6C6572206973206E6F742061646D PUSH1 0x44 DUP3 ADD MSTORE PUSH2 0x34B7 PUSH1 0xF1 SHL PUSH1 0x64 DUP3 ADD MSTORE PUSH1 0x84 SWAP1 REVERT JUMPDEST SWAP1 PUSH1 0x0 SWAP2 DUP1 DUP4 MSTORE DUP3 PUSH1 0x20 MSTORE PUSH1 0x40 DUP4 KECCAK256 SWAP2 PUSH1 0x1 DUP1 PUSH1 0xA0 SHL SUB AND SWAP2 DUP3 DUP5 MSTORE PUSH1 0x20 MSTORE PUSH1 0xFF PUSH1 0x40 DUP5 KECCAK256 SLOAD AND PUSH2 0x3D5 JUMPI POP POP POP JUMP JUMPDEST DUP1 DUP4 MSTORE DUP3 PUSH1 0x20 MSTORE PUSH1 0x40 DUP4 KECCAK256 DUP3 DUP5 MSTORE PUSH1 0x20 MSTORE PUSH1 0x40 DUP4 KECCAK256 PUSH1 0xFF NOT DUP2 SLOAD AND SWAP1 SSTORE PUSH32 0xF6391F5C32D9C69D2A47EA670B442974B53935D1EDC7FD64EB21E047A839171B CALLER SWAP4 DUP1 LOG4 JUMP INVALID LOG2 PUSH5 0x6970667358 0x22 SLT KECCAK256 0x4B GAS BALANCE STATICCALL RETURNDATASIZE 0xC2 0xAB CREATE2 DUP9 DUP13 PUSH22 0xC7CEFE02AC94B55978E63901D2988829FD51EAC8C064 PUSH20 0x6F6C634300081800330000000000000000000000 "},"methodIdentifiers":{"ROLE_AD()":"8d289194","ROLE_CB()":"3bbc751c","ROLE_CS()":"d71b5087","ROLE_LD()":"5754208c","ROLE_ND()":"1cc9d63e","grantRole(bytes32,address)":"2f2ff15d","hasRole(bytes32,address)":"91d14854","renounceRole(bytes32)":"8bb9c5bf","revokeRole(bytes32,address)":"d547741f"}}}}}