{"contracts/LandRegistry.sol":{"LandRegistry":{"abi":[{"inputs":[{"internalType":"address","name":"_landNFTAddress","type":"address"}],"stateMutability":"nonpayable","type":"constructor"},{"anonymous":false,"inputs":[{"indexed":true,"internalType":"uint256","name":"tokenId","type":"uint256"},{"indexed":true,"internalType":"address","name":"owner","type":"address"},{"indexed":false,"internalType":"string","name":"tokenURI","type":"string"}],"name":"LandCreated","type":"event"},{"anonymous":false,"inputs":[{"indexed":true,"internalType":"uint256","name":"tokenId","type":"uint256"},{"indexed":false,"internalType":"enum LandRegistry.LandStatus","name":"oldStatus","type":"uint8"},{"indexed":false,"internalType":"enum LandRegistry.LandStatus","name":"newStatus","type":"uint8"}],"name":"LandStatusChanged","type":"event"},{"anonymous":false,"inputs":[{"indexed":true,"internalType":"address","name":"previousOwner","type":"address"},{"indexed":true,"internalType":"address","name":"newOwner","type":"address"}],"name":"OwnershipTransferred","type":"event"},{"anonymous":false,"inputs":[{"indexed":false,"internalType":"address","name":"account","type":"address"}],"name":"Paused","type":"event"},{"anonymous":false,"inputs":[{"indexed":false,"internalType":"address","name":"account","type":"address"}],"name":"Unpaused","type":"event"},{"inputs":[{"internalType":"uint256","name":"tokenId","type":"uint256"}],"name":"approveLand","outputs":[],"stateMutability":"nonpayable","type":"function"},{"inputs":[{"internalType":"uint256","name":"tokenId","type":"uint256"}],"name":"canTransact","outputs":[{"internalType":"bool","name":"","type":"bool"}],"stateMutability":"view","type":"function"},{"inputs":[{"internalType":"uint256","name":"tokenId","type":"uint256"}],"name":"cancelTransaction","outputs":[],"stateMutability":"nonpayable","type":"function"},{"inputs":[{"internalType":"uint256","name":"tokenId","type":"uint256"}],"name":"completeTransfer","outputs":[],"stateMutability":"nonpayable","type":"function"},{"inputs":[{"internalType":"address","name":"to","type":"address"},{"internalType":"string","name":"tokenURI","type":"string"}],"name":"createLandRecord","outputs":[{"internalType":"uint256","name":"","type":"uint256"}],"stateMutability":"nonpayable","type":"function"},{"inputs":[{"internalType":"uint256","name":"tokenId","type":"uint256"}],"name":"getLandMetadata","outputs":[{"internalType":"string","name":"","type":"string"}],"stateMutability":"view","type":"function"},{"inputs":[{"internalType":"uint256","name":"tokenId","type":"uint256"}],"name":"getLandStatus","outputs":[{"internalType":"enum LandRegistry.LandStatus","name":"","type":"uint8"}],"stateMutability":"view","type":"function"},{"inputs":[{"internalType":"uint256","name":"tokenId","type":"uint256"}],"name":"isBlocked","outputs":[{"internalType":"bool","name":"","type":"bool"}],"stateMutability":"view","type":"function"},{"inputs":[],"name":"landNFTContract","outputs":[{"internalType":"contract LandNFT","name":"","type":"address"}],"stateMutability":"view","type":"function"},{"inputs":[{"internalType":"uint256","name":"","type":"uint256"}],"name":"lands","outputs":[{"internalType":"uint256","name":"tokenId","type":"uint256"},{"internalType":"enum LandRegistry.LandStatus","name":"status","type":"uint8"},{"internalType":"string","name":"rejectReason","type":"string"},{"internalType":"string","name":"metadataUri","type":"string"},{"internalType":"uint256","name":"createdAt","type":"uint256"},{"internalType":"uint256","name":"updatedAt","type":"uint256"}],"stateMutability":"view","type":"function"},{"inputs":[{"internalType":"uint256","name":"tokenId","type":"uint256"}],"name":"mortgage","outputs":[],"stateMutability":"nonpayable","type":"function"},{"inputs":[],"name":"owner","outputs":[{"internalType":"address","name":"","type":"address"}],"stateMutability":"view","type":"function"},{"inputs":[],"name":"pause","outputs":[],"stateMutability":"nonpayable","type":"function"},{"inputs":[],"name":"paused","outputs":[{"internalType":"bool","name":"","type":"bool"}],"stateMutability":"view","type":"function"},{"inputs":[{"internalType":"uint256","name":"tokenId","type":"uint256"}],"name":"raiseDispute","outputs":[],"stateMutability":"nonpayable","type":"function"},{"inputs":[{"internalType":"uint256","name":"tokenId","type":"uint256"},{"internalType":"string","name":"reason","type":"string"}],"name":"rejectLand","outputs":[],"stateMutability":"nonpayable","type":"function"},{"inputs":[{"internalType":"uint256","name":"tokenId","type":"uint256"}],"name":"releaseMortgage","outputs":[],"stateMutability":"nonpayable","type":"function"},{"inputs":[],"name":"renounceOwnership","outputs":[],"stateMutability":"nonpayable","type":"function"},{"inputs":[{"internalType":"uint256","name":"tokenId","type":"uint256"}],"name":"resolveDispute","outputs":[],"stateMutability":"nonpayable","type":"function"},{"inputs":[{"internalType":"uint256","name":"tokenId","type":"uint256"}],"name":"startTransaction","outputs":[],"stateMutability":"nonpayable","type":"function"},{"inputs":[{"internalType":"uint256","name":"tokenId","type":"uint256"}],"name":"submitForApproval","outputs":[],"stateMutability":"nonpayable","type":"function"},{"inputs":[{"internalType":"address","name":"newOwner","type":"address"}],"name":"transferOwnership","outputs":[],"stateMutability":"nonpayable","type":"function"},{"inputs":[],"name":"unpause","outputs":[],"stateMutability":"nonpayable","type":"function"}],"evm":{"bytecode":{"linkReferences":{},"object":"6080346100b957601f61168038819003918201601f19168301916001600160401b038311848410176100be578084926020946040528339810103126100b957516001600160a01b0390818116908190036100b95760005460405192339082167f8be0079c531659141344cd1fd0a4f28419497f9722a3daafe3b4186f6b6457e0600080a36001600160a81b0319163360ff60a01b191617600055600180546001600160a01b0319169190911790556115ab90816100d58239f35b600080fd5b634e487b7160e01b600052604160045260246000fdfe6080604052600436101561001257600080fd5b60003560e01c806304835426146111215780631be3175e1461107b5780632b359bc5146110525780632cb0aa3114610f6f5780633380c0d814610f1457806338c887b214610eb45780633f4ba83a14610e185780634b45ca8f14610d785780635912239314610b985780635c975abb14610b72578063619c83ed14610acc57806367bdb2a114610a845780636c2a4ed214610a34578063715018a6146109db5780638456cb59146109795780638da5cb5b14610950578063a5c1674e146108aa578063ab5d24751461043c578063b0aa98c7146103dd578063c2b7b8681461033b578063e261f1e5146102a3578063f2fde38b146101da5763f6f845081461011957600080fd5b346101d55760203660031901126101d557600435610135611467565b61013d6114bf565b61014681611417565b80600052600260205260ff6001604060002001541660088110156101bf57600261017091146112dd565b806000526002602052600080516020611556833981519152604060ff6101b5826000206001810190815491600485198416179055600542910155835192839116611163565b60046020820152a2005b634e487b7160e01b600052602160045260246000fd5b600080fd5b346101d55760203660031901126101d5576101f36111b0565b6101fb611467565b6001600160a01b0390811690811561024f57600054826bffffffffffffffffffffffff60a01b821617600055167f8be0079c531659141344cd1fd0a4f28419497f9722a3daafe3b4186f6b6457e0600080a3005b60405162461bcd60e51b815260206004820152602660248201527f4f776e61626c653a206e6577206f776e657220697320746865207a65726f206160448201526564647265737360d01b6064820152608490fd5b346101d55760203660031901126101d55760043560005260026020526040600020805460ff600183015416916102db60028201611238565b61032c6102ea60038401611238565b61031e600560048601549501549361030d60405198899889526020890190611163565b60c0604088015260c0870190611170565b908582036060870152611170565b91608084015260a08301520390f35b346101d55760203660031901126101d557600435610357611467565b61035f6114bf565b61036881611417565b80600052600260205260ff6001604060002001541660088110156101bf576007036103985761039690611506565b005b60405162461bcd60e51b815260206004820152601b60248201527f4d75737420626520696e205452414e485f4348415020737461746500000000006044820152606490fd5b346101d55760203660031901126101d5576004356103fa81611417565b600052600260205260ff6001604060002001541660088110156101bf5780600760209214908115610431575b506040519015158152f35b600691501482610426565b346101d55760403660031901126101d5576104556111b0565b602490813567ffffffffffffffff81116101d557366023820112156101d557806004013567ffffffffffffffff811161089557604051916104a0601f8301601f1916602001846111c6565b818352368583830101116101d55781600092866020930183860137830101526104c7611467565b6104cf6114bf565b60018060a01b03928360015416926020604051809563c233557b60e01b825287841660048301526040858301528160008161050d604482018a611170565b03925af193841561088957600094610855575b506040519160c0830183811067ffffffffffffffff821117610840576040528483526020830190600082526040516020810181811067ffffffffffffffff8211176108165760405260008152604085019081528560608601524260808601524260a086015286600052600260205260406000209285518455600184019051600881101561082b5760ff801983541691161790555180519067ffffffffffffffff8211610816576105e0826105d760028701546111fe565b600287016113c1565b602090601f83116001146107a457610611929160009183610799575b50508160011b916000199060031b1c19161790565b60028301555b606084015180519167ffffffffffffffff8311610785575091816020989361065189969461064860038601546111fe565b600386016113c1565b8990601f83116001146106ea57966106a88360059460a0947faf3b58634809a189c48e8dc732039c10ddc6022ea3b353f0317bbb7adcb308ed9a9b6000926106df5750508160011b916000199060031b1c19161790565b60038501555b6080810151600485015501519101556106d4604051928392898452169588830190611170565b0390a3604051908152f35b015190508e806105fc565b60038498939298016000528a6000209060005b601f198416811061076b575082600594927faf3b58634809a189c48e8dc732039c10ddc6022ea3b353f0317bbb7adcb308ed999a60019360a096601f19811610610752575b505050811b0160038501556106ae565b015160001960f88460031b161c191690558d8080610742565b818a01518355988c01988b98506001909201918c016106fd565b634e487b7160e01b60009081526041600452fd5b015190508a806105fc565b9190600285016000526020600020906000935b601f19841685106107fb576001945083601f198116106107e2575b505050811b016002830155610617565b015160001960f88460031b161c191690558980806107d2565b818101518355602094850194600190930192909101906107b7565b82634e487b7160e01b60005260416004526000fd5b83634e487b7160e01b60005260216004526000fd5b50634e487b7160e01b60009081526041600452fd5b9093506020813d602011610881575b81610871602093836111c6565b810103126101d557519285610520565b3d9150610864565b6040513d6000823e3d90fd5b83634e487b7160e01b60005260416004526000fd5b346101d55760203660031901126101d5576004356108c6611467565b6108ce6114bf565b6108d781611417565b80600052600260205260ff6001604060002001541660088110156101bf57600261090191146112dd565b806000526002602052600080516020611556833981519152604060ff610946826000206001810190815491600785198416179055600542910155835192839116611163565b60076020820152a2005b346101d55760003660031901126101d5576000546040516001600160a01b039091168152602090f35b346101d55760003660031901126101d557610992611467565b61099a6114bf565b6000805460ff60a01b1916600160a01b1790556040513381527f62e78cea01bee320cd4e420270b5ea74000d11b0c9f74754ebdbfc544b05a25890602090a1005b346101d55760003660031901126101d5576109f4611467565b600080546001600160a01b0319811682556001600160a01b03167f8be0079c531659141344cd1fd0a4f28419497f9722a3daafe3b4186f6b6457e08280a3005b346101d55760203660031901126101d557600435610a5181611417565b6000526002602052610a80610a6c6003604060002001611238565b604051918291602083526020830190611170565b0390f35b346101d55760203660031901126101d557600435610aa181611417565b600052600260205260ff6001604060002001541660088110156101bf57602090600260405191148152f35b346101d55760203660031901126101d557600435610ae8611467565b610af06114bf565b610af981611417565b80600052600260205260ff6001604060002001541660088110156101bf576004610b239114611329565b806000526002602052600080516020611556833981519152604060ff610b68826000206001810190815491600585198416179055600542910155835192839116611163565b60056020820152a2005b346101d55760003660031901126101d557602060ff60005460a01c166040519015158152f35b346101d55760403660031901126101d55760043567ffffffffffffffff602480358281116101d557366023820112156101d55780600401359283116101d557368284830101116101d557610bea611467565b610bf26114bf565b610bfb84611417565b836000526020926002845260019260ff8460406000200154166008811015610d635784610c289114611375565b8560005260028552600260406000200192610c4d83610c4786546111fe565b866113c1565b600090601f8411600114610cde579460ff94610c9c856003966000805160206115568339815191529a96610ccb9660409b600093610cd1575b5050508160011b916000199060031b1c19161790565b90555b876000526002835285600020908101908154918587198416179055600542910155855194859116611163565b820152a2005b01013590508c8080610c86565b9091601f1984169285600052876000209360005b818110610d4c575096856000805160206115568339815191529995610ccb95839560ff9a9560039a60409d10610d31575b50505050811b019055610c9f565b60001960f8868d1b161c19920101351690558b808080610d23565b848301840135865594880194918901918901610cf2565b50634e487b7160e01b60009081526021600452fd5b346101d55760203660031901126101d557600435610d94611467565b610d9c6114bf565b610da581611417565b80600052600260205260ff6001604060002001541660088110156101bf57600603610dd35761039690611506565b60405162461bcd60e51b815260206004820152601960248201527f4d75737420626520696e205448455f43484150207374617465000000000000006044820152606490fd5b346101d55760003660031901126101d557610e31611467565b60005460ff8160a01c1615610e785760ff60a01b19166000556040513381527f5db9ee0a495bf2e6ff9c91a7834c1ba4fdd244a5e8aa4e537bd38aeae4b073aa90602090a1005b60405162461bcd60e51b815260206004820152601460248201527314185d5cd8589b194e881b9bdd081c185d5cd95960621b6044820152606490fd5b346101d55760203660031901126101d557600435610ed0611467565b610ed86114bf565b610ee181611417565b80600052600260205260ff600160406000200154169060088210156101bf57610f0f60016103969314611375565b611506565b346101d55760203660031901126101d557600435610f30611467565b610f386114bf565b610f4181611417565b80600052600260205260ff600160406000200154169060088210156101bf57610f0f60046103969314611329565b346101d55760203660031901126101d557600435610f8b611467565b610f936114bf565b610f9c81611417565b80600052600260205260ff6001604060002001541660088110156101bf5761100d57806000526002602052600080516020611556833981519152604060ff611003826000206001810190815491600185198416179055600542910155835192839116611163565b60016020820152a2005b60405162461bcd60e51b815260206004820152601960248201527f4d75737420626520696e204b484f495f54414f207374617465000000000000006044820152606490fd5b346101d55760003660031901126101d5576001546040516001600160a01b039091168152602090f35b346101d55760203660031901126101d557600435611097611467565b61109f6114bf565b6110a881611417565b80600052600260205260ff6001604060002001541660088110156101bf5760026110d291146112dd565b806000526002602052600080516020611556833981519152604060ff611117826000206001810190815491600685198416179055600542910155835192839116611163565b60066020820152a2005b346101d55760203660031901126101d55760043561113e81611417565b6000526002602052602060ff600160406000200154166111616040518092611163565bf35b9060088210156101bf5752565b919082519283825260005b84811061119c575050826000602080949584010152601f8019910116010190565b60208183018101518483018201520161117b565b600435906001600160a01b03821682036101d557565b90601f8019910116810190811067ffffffffffffffff8211176111e857604052565b634e487b7160e01b600052604160045260246000fd5b90600182811c9216801561122e575b602083101461121857565b634e487b7160e01b600052602260045260246000fd5b91607f169161120d565b9060405191826000825461124b816111fe565b908184526020946001916001811690816000146112bb575060011461127c575b50505061127a925003836111c6565b565b600090815285812095935091905b8183106112a357505061127a935082010138808061126b565b8554888401850152948501948794509183019161128a565b9250505061127a94925060ff191682840152151560051b82010138808061126b565b156112e457565b60405162461bcd60e51b815260206004820152601a60248201527f4d75737420626520696e2044415f4341505f534f2073746174650000000000006044820152606490fd5b1561133057565b60405162461bcd60e51b815260206004820152601f60248201527f4d75737420626520696e2044414e475f4749414f5f44494348207374617465006044820152606490fd5b1561137c57565b60405162461bcd60e51b815260206004820152601a60248201527f4d75737420626520696e2043484f5f44555945542073746174650000000000006044820152606490fd5b90601f81116113cf57505050565b6000916000526020600020906020601f850160051c8301941061140d575b601f0160051c01915b82811061140257505050565b8181556001016113f6565b90925082906113ed565b60005260026020526040600020541561142c57565b60405162461bcd60e51b815260206004820152601360248201527213185b99081b9bdd081c9959da5cdd195c9959606a1b6044820152606490fd5b6000546001600160a01b0316330361147b57565b606460405162461bcd60e51b815260206004820152602060248201527f4f776e61626c653a2063616c6c6572206973206e6f7420746865206f776e65726044820152fd5b60ff60005460a01c166114ce57565b60405162461bcd60e51b815260206004820152601060248201526f14185d5cd8589b194e881c185d5cd95960821b6044820152606490fd5b806000526002602052600080516020611556833981519152604060ff61154b826000206001810190815491600285198416179055600542910155835192839116611163565b60026020820152a256fe7bae5b3937f1c50ff50f2ff21b403739914664ee08b38898777aee11eba3ea1fa264697066735822122041791081ebefe2aeffee382ca9efd2380c7fff43bb0d36bd015ac5395ac399e764736f6c63430008180033","opcodes":"PUSH1 0x80 CALLVALUE PUSH2 0xB9 JUMPI PUSH1 0x1F PUSH2 0x1680 CODESIZE DUP2 SWAP1 SUB SWAP2 DUP3 ADD PUSH1 0x1F NOT AND DUP4 ADD SWAP2 PUSH1 0x1 PUSH1 0x1 PUSH1 0x40 SHL SUB DUP4 GT DUP5 DUP5 LT OR PUSH2 0xBE JUMPI DUP1 DUP5 SWAP3 PUSH1 0x20 SWAP5 PUSH1 0x40 MSTORE DUP4 CODECOPY DUP2 ADD SUB SLT PUSH2 0xB9 JUMPI MLOAD PUSH1 0x1 PUSH1 0x1 PUSH1 0xA0 SHL SUB SWAP1 DUP2 DUP2 AND SWAP1 DUP2 SWAP1 SUB PUSH2 0xB9 JUMPI PUSH1 0x0 SLOAD PUSH1 0x40 MLOAD SWAP3 CALLER SWAP1 DUP3 AND PUSH32 0x8BE0079C531659141344CD1FD0A4F28419497F9722A3DAAFE3B4186F6B6457E0 PUSH1 0x0 DUP1 LOG3 PUSH1 0x1 PUSH1 0x1 PUSH1 0xA8 SHL SUB NOT AND CALLER PUSH1 0xFF PUSH1 0xA0 SHL NOT AND OR PUSH1 0x0 SSTORE PUSH1 0x1 DUP1 SLOAD PUSH1 0x1 PUSH1 0x1 PUSH1 0xA0 SHL SUB NOT AND SWAP2 SWAP1 SWAP2 OR SWAP1 SSTORE PUSH2 0x15AB SWAP1 DUP2 PUSH2 0xD5 DUP3 CODECOPY RETURN JUMPDEST PUSH1 0x0 DUP1 REVERT JUMPDEST PUSH4 0x4E487B71 PUSH1 0xE0 SHL PUSH1 0x0 MSTORE PUSH1 0x41 PUSH1 0x4 MSTORE PUSH1 0x24 PUSH1 0x0 REVERT INVALID PUSH1 0x80 PUSH1 0x40 MSTORE PUSH1 0x4 CALLDATASIZE LT ISZERO PUSH2 0x12 JUMPI PUSH1 0x0 DUP1 REVERT JUMPDEST PUSH1 0x0 CALLDATALOAD PUSH1 0xE0 SHR DUP1 PUSH4 0x4835426 EQ PUSH2 0x1121 JUMPI DUP1 PUSH4 0x1BE3175E EQ PUSH2 0x107B JUMPI DUP1 PUSH4 0x2B359BC5 EQ PUSH2 0x1052 JUMPI DUP1 PUSH4 0x2CB0AA31 EQ PUSH2 0xF6F JUMPI DUP1 PUSH4 0x3380C0D8 EQ PUSH2 0xF14 JUMPI DUP1 PUSH4 0x38C887B2 EQ PUSH2 0xEB4 JUMPI DUP1 PUSH4 0x3F4BA83A EQ PUSH2 0xE18 JUMPI DUP1 PUSH4 0x4B45CA8F EQ PUSH2 0xD78 JUMPI DUP1 PUSH4 0x59122393 EQ PUSH2 0xB98 JUMPI DUP1 PUSH4 0x5C975ABB EQ PUSH2 0xB72 JUMPI DUP1 PUSH4 0x619C83ED EQ PUSH2 0xACC JUMPI DUP1 PUSH4 0x67BDB2A1 EQ PUSH2 0xA84 JUMPI DUP1 PUSH4 0x6C2A4ED2 EQ PUSH2 0xA34 JUMPI DUP1 PUSH4 0x715018A6 EQ PUSH2 0x9DB JUMPI DUP1 PUSH4 0x8456CB59 EQ PUSH2 0x979 JUMPI DUP1 PUSH4 0x8DA5CB5B EQ PUSH2 0x950 JUMPI DUP1 PUSH4 0xA5C1674E EQ PUSH2 0x8AA JUMPI DUP1 PUSH4 0xAB5D2475 EQ PUSH2 0x43C JUMPI DUP1 PUSH4 0xB0AA98C7 EQ PUSH2 0x3DD JUMPI DUP1 PUSH4 0xC2B7B868 EQ PUSH2 0x33B JUMPI DUP1 PUSH4 0xE261F1E5 EQ PUSH2 0x2A3 JUMPI DUP1 PUSH4 0xF2FDE38B EQ PUSH2 0x1DA JUMPI PUSH4 0xF6F84508 EQ PUSH2 0x119 JUMPI PUSH1 0x0 DUP1 REVERT JUMPDEST CALLVALUE PUSH2 0x1D5 JUMPI PUSH1 0x20 CALLDATASIZE PUSH1 0x3 NOT ADD SLT PUSH2 0x1D5 JUMPI PUSH1 0x4 CALLDATALOAD PUSH2 0x135 PUSH2 0x1467 JUMP JUMPDEST PUSH2 0x13D PUSH2 0x14BF JUMP JUMPDEST PUSH2 0x146 DUP2 PUSH2 0x1417 JUMP JUMPDEST DUP1 PUSH1 0x0 MSTORE PUSH1 0x2 PUSH1 0x20 MSTORE PUSH1 0xFF PUSH1 0x1 PUSH1 0x40 PUSH1 0x0 KECCAK256 ADD SLOAD AND PUSH1 0x8 DUP2 LT ISZERO PUSH2 0x1BF JUMPI PUSH1 0x2 PUSH2 0x170 SWAP2 EQ PUSH2 0x12DD JUMP JUMPDEST DUP1 PUSH1 0x0 MSTORE PUSH1 0x2 PUSH1 0x20 MSTORE PUSH1 0x0 DUP1 MLOAD PUSH1 0x20 PUSH2 0x1556 DUP4 CODECOPY DUP2 MLOAD SWAP2 MSTORE PUSH1 0x40 PUSH1 0xFF PUSH2 0x1B5 DUP3 PUSH1 0x0 KECCAK256 PUSH1 0x1 DUP2 ADD SWAP1 DUP2 SLOAD SWAP2 PUSH1 0x4 DUP6 NOT DUP5 AND OR SWAP1 SSTORE PUSH1 0x5 TIMESTAMP SWAP2 ADD SSTORE DUP4 MLOAD SWAP3 DUP4 SWAP2 AND PUSH2 0x1163 JUMP JUMPDEST PUSH1 0x4 PUSH1 0x20 DUP3 ADD MSTORE LOG2 STOP JUMPDEST PUSH4 0x4E487B71 PUSH1 0xE0 SHL PUSH1 0x0 MSTORE PUSH1 0x21 PUSH1 0x4 MSTORE PUSH1 0x24 PUSH1 0x0 REVERT JUMPDEST PUSH1 0x0 DUP1 REVERT JUMPDEST CALLVALUE PUSH2 0x1D5 JUMPI PUSH1 0x20 CALLDATASIZE PUSH1 0x3 NOT ADD SLT PUSH2 0x1D5 JUMPI PUSH2 0x1F3 PUSH2 0x11B0 JUMP JUMPDEST PUSH2 0x1FB PUSH2 0x1467 JUMP JUMPDEST PUSH1 0x1 PUSH1 0x1 PUSH1 0xA0 SHL SUB SWAP1 DUP2 AND SWAP1 DUP2 ISZERO PUSH2 0x24F JUMPI PUSH1 0x0 SLOAD DUP3 PUSH12 0xFFFFFFFFFFFFFFFFFFFFFFFF PUSH1 0xA0 SHL DUP3 AND OR PUSH1 0x0 SSTORE AND PUSH32 0x8BE0079C531659141344CD1FD0A4F28419497F9722A3DAAFE3B4186F6B6457E0 PUSH1 0x0 DUP1 LOG3 STOP JUMPDEST PUSH1 0x40 MLOAD PUSH3 0x461BCD PUSH1 0xE5 SHL DUP2 MSTORE PUSH1 0x20 PUSH1 0x4 DUP3 ADD MSTORE PUSH1 0x26 PUSH1 0x24 DUP3 ADD MSTORE PUSH32 0x4F776E61626C653A206E6577206F776E657220697320746865207A65726F2061 PUSH1 0x44 DUP3 ADD MSTORE PUSH6 0x646472657373 PUSH1 0xD0 SHL PUSH1 0x64 DUP3 ADD MSTORE PUSH1 0x84 SWAP1 REVERT JUMPDEST CALLVALUE PUSH2 0x1D5 JUMPI PUSH1 0x20 CALLDATASIZE PUSH1 0x3 NOT ADD SLT PUSH2 0x1D5 JUMPI PUSH1 0x4 CALLDATALOAD PUSH1 0x0 MSTORE PUSH1 0x2 PUSH1 0x20 MSTORE PUSH1 0x40 PUSH1 0x0 KECCAK256 DUP1 SLOAD PUSH1 0xFF PUSH1 0x1 DUP4 ADD SLOAD AND SWAP2 PUSH2 0x2DB PUSH1 0x2 DUP3 ADD PUSH2 0x1238 JUMP JUMPDEST PUSH2 0x32C PUSH2 0x2EA PUSH1 0x3 DUP5 ADD PUSH2 0x1238 JUMP JUMPDEST PUSH2 0x31E PUSH1 0x5 PUSH1 0x4 DUP7 ADD SLOAD SWAP6 ADD SLOAD SWAP4 PUSH2 0x30D PUSH1 0x40 MLOAD SWAP9 DUP10 SWAP9 DUP10 MSTORE PUSH1 0x20 DUP10 ADD SWAP1 PUSH2 0x1163 JUMP JUMPDEST PUSH1 0xC0 PUSH1 0x40 DUP9 ADD MSTORE PUSH1 0xC0 DUP8 ADD SWAP1 PUSH2 0x1170 JUMP JUMPDEST SWAP1 DUP6 DUP3 SUB PUSH1 0x60 DUP8 ADD MSTORE PUSH2 0x1170 JUMP JUMPDEST SWAP2 PUSH1 0x80 DUP5 ADD MSTORE PUSH1 0xA0 DUP4 ADD MSTORE SUB SWAP1 RETURN JUMPDEST CALLVALUE PUSH2 0x1D5 JUMPI PUSH1 0x20 CALLDATASIZE PUSH1 0x3 NOT ADD SLT PUSH2 0x1D5 JUMPI PUSH1 0x4 CALLDATALOAD PUSH2 0x357 PUSH2 0x1467 JUMP JUMPDEST PUSH2 0x35F PUSH2 0x14BF JUMP JUMPDEST PUSH2 0x368 DUP2 PUSH2 0x1417 JUMP JUMPDEST DUP1 PUSH1 0x0 MSTORE PUSH1 0x2 PUSH1 0x20 MSTORE PUSH1 0xFF PUSH1 0x1 PUSH1 0x40 PUSH1 0x0 KECCAK256 ADD SLOAD AND PUSH1 0x8 DUP2 LT ISZERO PUSH2 0x1BF JUMPI PUSH1 0x7 SUB PUSH2 0x398 JUMPI PUSH2 0x396 SWAP1 PUSH2 0x1506 JUMP JUMPDEST STOP JUMPDEST PUSH1 0x40 MLOAD PUSH3 0x461BCD PUSH1 0xE5 SHL DUP2 MSTORE PUSH1 0x20 PUSH1 0x4 DUP3 ADD MSTORE PUSH1 0x1B PUSH1 0x24 DUP3 ADD MSTORE PUSH32 0x4D75737420626520696E205452414E485F434841502073746174650000000000 PUSH1 0x44 DUP3 ADD MSTORE PUSH1 0x64 SWAP1 REVERT JUMPDEST CALLVALUE PUSH2 0x1D5 JUMPI PUSH1 0x20 CALLDATASIZE PUSH1 0x3 NOT ADD SLT PUSH2 0x1D5 JUMPI PUSH1 0x4 CALLDATALOAD PUSH2 0x3FA DUP2 PUSH2 0x1417 JUMP JUMPDEST PUSH1 0x0 MSTORE PUSH1 0x2 PUSH1 0x20 MSTORE PUSH1 0xFF PUSH1 0x1 PUSH1 0x40 PUSH1 0x0 KECCAK256 ADD SLOAD AND PUSH1 0x8 DUP2 LT ISZERO PUSH2 0x1BF JUMPI DUP1 PUSH1 0x7 PUSH1 0x20 SWAP3 EQ SWAP1 DUP2 ISZERO PUSH2 0x431 JUMPI JUMPDEST POP PUSH1 0x40 MLOAD SWAP1 ISZERO ISZERO DUP2 MSTORE RETURN JUMPDEST PUSH1 0x6 SWAP2 POP EQ DUP3 PUSH2 0x426 JUMP JUMPDEST CALLVALUE PUSH2 0x1D5 JUMPI PUSH1 0x40 CALLDATASIZE PUSH1 0x3 NOT ADD SLT PUSH2 0x1D5 JUMPI PUSH2 0x455 PUSH2 0x11B0 JUMP JUMPDEST PUSH1 0x24 SWAP1 DUP2 CALLDATALOAD PUSH8 0xFFFFFFFFFFFFFFFF DUP2 GT PUSH2 0x1D5 JUMPI CALLDATASIZE PUSH1 0x23 DUP3 ADD SLT ISZERO PUSH2 0x1D5 JUMPI DUP1 PUSH1 0x4 ADD CALLDATALOAD PUSH8 0xFFFFFFFFFFFFFFFF DUP2 GT PUSH2 0x895 JUMPI PUSH1 0x40 MLOAD SWAP2 PUSH2 0x4A0 PUSH1 0x1F DUP4 ADD PUSH1 0x1F NOT AND PUSH1 0x20 ADD DUP5 PUSH2 0x11C6 JUMP JUMPDEST DUP2 DUP4 MSTORE CALLDATASIZE DUP6 DUP4 DUP4 ADD ADD GT PUSH2 0x1D5 JUMPI DUP2 PUSH1 0x0 SWAP3 DUP7 PUSH1 0x20 SWAP4 ADD DUP4 DUP7 ADD CALLDATACOPY DUP4 ADD ADD MSTORE PUSH2 0x4C7 PUSH2 0x1467 JUMP JUMPDEST PUSH2 0x4CF PUSH2 0x14BF JUMP JUMPDEST PUSH1 0x1 DUP1 PUSH1 0xA0 SHL SUB SWAP3 DUP4 PUSH1 0x1 SLOAD AND SWAP3 PUSH1 0x20 PUSH1 0x40 MLOAD DUP1 SWAP6 PUSH4 0xC233557B PUSH1 0xE0 SHL DUP3 MSTORE DUP8 DUP5 AND PUSH1 0x4 DUP4 ADD MSTORE PUSH1 0x40 DUP6 DUP4 ADD MSTORE DUP2 PUSH1 0x0 DUP2 PUSH2 0x50D PUSH1 0x44 DUP3 ADD DUP11 PUSH2 0x1170 JUMP JUMPDEST SUB SWAP3 GAS CALL SWAP4 DUP5 ISZERO PUSH2 0x889 JUMPI PUSH1 0x0 SWAP5 PUSH2 0x855 JUMPI JUMPDEST POP PUSH1 0x40 MLOAD SWAP2 PUSH1 0xC0 DUP4 ADD DUP4 DUP2 LT PUSH8 0xFFFFFFFFFFFFFFFF DUP3 GT OR PUSH2 0x840 JUMPI PUSH1 0x40 MSTORE DUP5 DUP4 MSTORE PUSH1 0x20 DUP4 ADD SWAP1 PUSH1 0x0 DUP3 MSTORE PUSH1 0x40 MLOAD PUSH1 0x20 DUP2 ADD DUP2 DUP2 LT PUSH8 0xFFFFFFFFFFFFFFFF DUP3 GT OR PUSH2 0x816 JUMPI PUSH1 0x40 MSTORE PUSH1 0x0 DUP2 MSTORE PUSH1 0x40 DUP6 ADD SWAP1 DUP2 MSTORE DUP6 PUSH1 0x60 DUP7 ADD MSTORE TIMESTAMP PUSH1 0x80 DUP7 ADD MSTORE TIMESTAMP PUSH1 0xA0 DUP7 ADD MSTORE DUP7 PUSH1 0x0 MSTORE PUSH1 0x2 PUSH1 0x20 MSTORE PUSH1 0x40 PUSH1 0x0 KECCAK256 SWAP3 DUP6 MLOAD DUP5 SSTORE PUSH1 0x1 DUP5 ADD SWAP1 MLOAD PUSH1 0x8 DUP2 LT ISZERO PUSH2 0x82B JUMPI PUSH1 0xFF DUP1 NOT DUP4 SLOAD AND SWAP2 AND OR SWAP1 SSTORE MLOAD DUP1 MLOAD SWAP1 PUSH8 0xFFFFFFFFFFFFFFFF DUP3 GT PUSH2 0x816 JUMPI PUSH2 0x5E0 DUP3 PUSH2 0x5D7 PUSH1 0x2 DUP8 ADD SLOAD PUSH2 0x11FE JUMP JUMPDEST PUSH1 0x2 DUP8 ADD PUSH2 0x13C1 JUMP JUMPDEST PUSH1 0x20 SWAP1 PUSH1 0x1F DUP4 GT PUSH1 0x1 EQ PUSH2 0x7A4 JUMPI PUSH2 0x611 SWAP3 SWAP2 PUSH1 0x0 SWAP2 DUP4 PUSH2 0x799 JUMPI JUMPDEST POP POP DUP2 PUSH1 0x1 SHL SWAP2 PUSH1 0x0 NOT SWAP1 PUSH1 0x3 SHL SHR NOT AND OR SWAP1 JUMP JUMPDEST PUSH1 0x2 DUP4 ADD SSTORE JUMPDEST PUSH1 0x60 DUP5 ADD MLOAD DUP1 MLOAD SWAP2 PUSH8 0xFFFFFFFFFFFFFFFF DUP4 GT PUSH2 0x785 JUMPI POP SWAP2 DUP2 PUSH1 0x20 SWAP9 SWAP4 PUSH2 0x651 DUP10 SWAP7 SWAP5 PUSH2 0x648 PUSH1 0x3 DUP7 ADD SLOAD PUSH2 0x11FE JUMP JUMPDEST PUSH1 0x3 DUP7 ADD PUSH2 0x13C1 JUMP JUMPDEST DUP10 SWAP1 PUSH1 0x1F DUP4 GT PUSH1 0x1 EQ PUSH2 0x6EA JUMPI SWAP7 PUSH2 0x6A8 DUP4 PUSH1 0x5 SWAP5 PUSH1 0xA0 SWAP5 PUSH32 0xAF3B58634809A189C48E8DC732039C10DDC6022EA3B353F0317BBB7ADCB308ED SWAP11 SWAP12 PUSH1 0x0 SWAP3 PUSH2 0x6DF JUMPI POP POP DUP2 PUSH1 0x1 SHL SWAP2 PUSH1 0x0 NOT SWAP1 PUSH1 0x3 SHL SHR NOT AND OR SWAP1 JUMP JUMPDEST PUSH1 0x3 DUP6 ADD SSTORE JUMPDEST PUSH1 0x80 DUP2 ADD MLOAD PUSH1 0x4 DUP6 ADD SSTORE ADD MLOAD SWAP2 ADD SSTORE PUSH2 0x6D4 PUSH1 0x40 MLOAD SWAP3 DUP4 SWAP3 DUP10 DUP5 MSTORE AND SWAP6 DUP9 DUP4 ADD SWAP1 PUSH2 0x1170 JUMP JUMPDEST SUB SWAP1 LOG3 PUSH1 0x40 MLOAD SWAP1 DUP2 MSTORE RETURN JUMPDEST ADD MLOAD SWAP1 POP DUP15 DUP1 PUSH2 0x5FC JUMP JUMPDEST PUSH1 0x3 DUP5 SWAP9 SWAP4 SWAP3 SWAP9 ADD PUSH1 0x0 MSTORE DUP11 PUSH1 0x0 KECCAK256 SWAP1 PUSH1 0x0 JUMPDEST PUSH1 0x1F NOT DUP5 AND DUP2 LT PUSH2 0x76B JUMPI POP DUP3 PUSH1 0x5 SWAP5 SWAP3 PUSH32 0xAF3B58634809A189C48E8DC732039C10DDC6022EA3B353F0317BBB7ADCB308ED SWAP10 SWAP11 PUSH1 0x1 SWAP4 PUSH1 0xA0 SWAP7 PUSH1 0x1F NOT DUP2 AND LT PUSH2 0x752 JUMPI JUMPDEST POP POP POP DUP2 SHL ADD PUSH1 0x3 DUP6 ADD SSTORE PUSH2 0x6AE JUMP JUMPDEST ADD MLOAD PUSH1 0x0 NOT PUSH1 0xF8 DUP5 PUSH1 0x3 SHL AND SHR NOT AND SWAP1 SSTORE DUP14 DUP1 DUP1 PUSH2 0x742 JUMP JUMPDEST DUP2 DUP11 ADD MLOAD DUP4 SSTORE SWAP9 DUP13 ADD SWAP9 DUP12 SWAP9 POP PUSH1 0x1 SWAP1 SWAP3 ADD SWAP2 DUP13 ADD PUSH2 0x6FD JUMP JUMPDEST PUSH4 0x4E487B71 PUSH1 0xE0 SHL PUSH1 0x0 SWAP1 DUP2 MSTORE PUSH1 0x41 PUSH1 0x4 MSTORE REVERT JUMPDEST ADD MLOAD SWAP1 POP DUP11 DUP1 PUSH2 0x5FC JUMP JUMPDEST SWAP2 SWAP1 PUSH1 0x2 DUP6 ADD PUSH1 0x0 MSTORE PUSH1 0x20 PUSH1 0x0 KECCAK256 SWAP1 PUSH1 0x0 SWAP4 JUMPDEST PUSH1 0x1F NOT DUP5 AND DUP6 LT PUSH2 0x7FB JUMPI PUSH1 0x1 SWAP5 POP DUP4 PUSH1 0x1F NOT DUP2 AND LT PUSH2 0x7E2 JUMPI JUMPDEST POP POP POP DUP2 SHL ADD PUSH1 0x2 DUP4 ADD SSTORE PUSH2 0x617 JUMP JUMPDEST ADD MLOAD PUSH1 0x0 NOT PUSH1 0xF8 DUP5 PUSH1 0x3 SHL AND SHR NOT AND SWAP1 SSTORE DUP10 DUP1 DUP1 PUSH2 0x7D2 JUMP JUMPDEST DUP2 DUP2 ADD MLOAD DUP4 SSTORE PUSH1 0x20 SWAP5 DUP6 ADD SWAP5 PUSH1 0x1 SWAP1 SWAP4 ADD SWAP3 SWAP1 SWAP2 ADD SWAP1 PUSH2 0x7B7 JUMP JUMPDEST DUP3 PUSH4 0x4E487B71 PUSH1 0xE0 SHL PUSH1 0x0 MSTORE PUSH1 0x41 PUSH1 0x4 MSTORE PUSH1 0x0 REVERT JUMPDEST DUP4 PUSH4 0x4E487B71 PUSH1 0xE0 SHL PUSH1 0x0 MSTORE PUSH1 0x21 PUSH1 0x4 MSTORE PUSH1 0x0 REVERT JUMPDEST POP PUSH4 0x4E487B71 PUSH1 0xE0 SHL PUSH1 0x0 SWAP1 DUP2 MSTORE PUSH1 0x41 PUSH1 0x4 MSTORE REVERT JUMPDEST SWAP1 SWAP4 POP PUSH1 0x20 DUP2 RETURNDATASIZE PUSH1 0x20 GT PUSH2 0x881 JUMPI JUMPDEST DUP2 PUSH2 0x871 PUSH1 0x20 SWAP4 DUP4 PUSH2 0x11C6 JUMP JUMPDEST DUP2 ADD SUB SLT PUSH2 0x1D5 JUMPI MLOAD SWAP3 DUP6 PUSH2 0x520 JUMP JUMPDEST RETURNDATASIZE SWAP2 POP PUSH2 0x864 JUMP JUMPDEST PUSH1 0x40 MLOAD RETURNDATASIZE PUSH1 0x0 DUP3 RETURNDATACOPY RETURNDATASIZE SWAP1 REVERT JUMPDEST DUP4 PUSH4 0x4E487B71 PUSH1 0xE0 SHL PUSH1 0x0 MSTORE PUSH1 0x41 PUSH1 0x4 MSTORE PUSH1 0x0 REVERT JUMPDEST CALLVALUE PUSH2 0x1D5 JUMPI PUSH1 0x20 CALLDATASIZE PUSH1 0x3 NOT ADD SLT PUSH2 0x1D5 JUMPI PUSH1 0x4 CALLDATALOAD PUSH2 0x8C6 PUSH2 0x1467 JUMP JUMPDEST PUSH2 0x8CE PUSH2 0x14BF JUMP JUMPDEST PUSH2 0x8D7 DUP2 PUSH2 0x1417 JUMP JUMPDEST DUP1 PUSH1 0x0 MSTORE PUSH1 0x2 PUSH1 0x20 MSTORE PUSH1 0xFF PUSH1 0x1 PUSH1 0x40 PUSH1 0x0 KECCAK256 ADD SLOAD AND PUSH1 0x8 DUP2 LT ISZERO PUSH2 0x1BF JUMPI PUSH1 0x2 PUSH2 0x901 SWAP2 EQ PUSH2 0x12DD JUMP JUMPDEST DUP1 PUSH1 0x0 MSTORE PUSH1 0x2 PUSH1 0x20 MSTORE PUSH1 0x0 DUP1 MLOAD PUSH1 0x20 PUSH2 0x1556 DUP4 CODECOPY DUP2 MLOAD SWAP2 MSTORE PUSH1 0x40 PUSH1 0xFF PUSH2 0x946 DUP3 PUSH1 0x0 KECCAK256 PUSH1 0x1 DUP2 ADD SWAP1 DUP2 SLOAD SWAP2 PUSH1 0x7 DUP6 NOT DUP5 AND OR SWAP1 SSTORE PUSH1 0x5 TIMESTAMP SWAP2 ADD SSTORE DUP4 MLOAD SWAP3 DUP4 SWAP2 AND PUSH2 0x1163 JUMP JUMPDEST PUSH1 0x7 PUSH1 0x20 DUP3 ADD MSTORE LOG2 STOP JUMPDEST CALLVALUE PUSH2 0x1D5 JUMPI PUSH1 0x0 CALLDATASIZE PUSH1 0x3 NOT ADD SLT PUSH2 0x1D5 JUMPI PUSH1 0x0 SLOAD PUSH1 0x40 MLOAD PUSH1 0x1 PUSH1 0x1 PUSH1 0xA0 SHL SUB SWAP1 SWAP2 AND DUP2 MSTORE PUSH1 0x20 SWAP1 RETURN JUMPDEST CALLVALUE PUSH2 0x1D5 JUMPI PUSH1 0x0 CALLDATASIZE PUSH1 0x3 NOT ADD SLT PUSH2 0x1D5 JUMPI PUSH2 0x992 PUSH2 0x1467 JUMP JUMPDEST PUSH2 0x99A PUSH2 0x14BF JUMP JUMPDEST PUSH1 0x0 DUP1 SLOAD PUSH1 0xFF PUSH1 0xA0 SHL NOT AND PUSH1 0x1 PUSH1 0xA0 SHL OR SWAP1 SSTORE PUSH1 0x40 MLOAD CALLER DUP2 MSTORE PUSH32 0x62E78CEA01BEE320CD4E420270B5EA74000D11B0C9F74754EBDBFC544B05A258 SWAP1 PUSH1 0x20 SWAP1 LOG1 STOP JUMPDEST CALLVALUE PUSH2 0x1D5 JUMPI PUSH1 0x0 CALLDATASIZE PUSH1 0x3 NOT ADD SLT PUSH2 0x1D5 JUMPI PUSH2 0x9F4 PUSH2 0x1467 JUMP JUMPDEST PUSH1 0x0 DUP1 SLOAD PUSH1 0x1 PUSH1 0x1 PUSH1 0xA0 SHL SUB NOT DUP2 AND DUP3 SSTORE PUSH1 0x1 PUSH1 0x1 PUSH1 0xA0 SHL SUB AND PUSH32 0x8BE0079C531659141344CD1FD0A4F28419497F9722A3DAAFE3B4186F6B6457E0 DUP3 DUP1 LOG3 STOP JUMPDEST CALLVALUE PUSH2 0x1D5 JUMPI PUSH1 0x20 CALLDATASIZE PUSH1 0x3 NOT ADD SLT PUSH2 0x1D5 JUMPI PUSH1 0x4 CALLDATALOAD PUSH2 0xA51 DUP2 PUSH2 0x1417 JUMP JUMPDEST PUSH1 0x0 MSTORE PUSH1 0x2 PUSH1 0x20 MSTORE PUSH2 0xA80 PUSH2 0xA6C PUSH1 0x3 PUSH1 0x40 PUSH1 0x0 KECCAK256 ADD PUSH2 0x1238 JUMP JUMPDEST PUSH1 0x40 MLOAD SWAP2 DUP3 SWAP2 PUSH1 0x20 DUP4 MSTORE PUSH1 0x20 DUP4 ADD SWAP1 PUSH2 0x1170 JUMP JUMPDEST SUB SWAP1 RETURN JUMPDEST CALLVALUE PUSH2 0x1D5 JUMPI PUSH1 0x20 CALLDATASIZE PUSH1 0x3 NOT ADD SLT PUSH2 0x1D5 JUMPI PUSH1 0x4 CALLDATALOAD PUSH2 0xAA1 DUP2 PUSH2 0x1417 JUMP JUMPDEST PUSH1 0x0 MSTORE PUSH1 0x2 PUSH1 0x20 MSTORE PUSH1 0xFF PUSH1 0x1 PUSH1 0x40 PUSH1 0x0 KECCAK256 ADD SLOAD AND PUSH1 0x8 DUP2 LT ISZERO PUSH2 0x1BF JUMPI PUSH1 0x20 SWAP1 PUSH1 0x2 PUSH1 0x40 MLOAD SWAP2 EQ DUP2 MSTORE RETURN JUMPDEST CALLVALUE PUSH2 0x1D5 JUMPI PUSH1 0x20 CALLDATASIZE PUSH1 0x3 NOT ADD SLT PUSH2 0x1D5 JUMPI PUSH1 0x4 CALLDATALOAD PUSH2 0xAE8 PUSH2 0x1467 JUMP JUMPDEST PUSH2 0xAF0 PUSH2 0x14BF JUMP JUMPDEST PUSH2 0xAF9 DUP2 PUSH2 0x1417 JUMP JUMPDEST DUP1 PUSH1 0x0 MSTORE PUSH1 0x2 PUSH1 0x20 MSTORE PUSH1 0xFF PUSH1 0x1 PUSH1 0x40 PUSH1 0x0 KECCAK256 ADD SLOAD AND PUSH1 0x8 DUP2 LT ISZERO PUSH2 0x1BF JUMPI PUSH1 0x4 PUSH2 0xB23 SWAP2 EQ PUSH2 0x1329 JUMP JUMPDEST DUP1 PUSH1 0x0 MSTORE PUSH1 0x2 PUSH1 0x20 MSTORE PUSH1 0x0 DUP1 MLOAD PUSH1 0x20 PUSH2 0x1556 DUP4 CODECOPY DUP2 MLOAD SWAP2 MSTORE PUSH1 0x40 PUSH1 0xFF PUSH2 0xB68 DUP3 PUSH1 0x0 KECCAK256 PUSH1 0x1 DUP2 ADD SWAP1 DUP2 SLOAD SWAP2 PUSH1 0x5 DUP6 NOT DUP5 AND OR SWAP1 SSTORE PUSH1 0x5 TIMESTAMP SWAP2 ADD SSTORE DUP4 MLOAD SWAP3 DUP4 SWAP2 AND PUSH2 0x1163 JUMP JUMPDEST PUSH1 0x5 PUSH1 0x20 DUP3 ADD MSTORE LOG2 STOP JUMPDEST CALLVALUE PUSH2 0x1D5 JUMPI PUSH1 0x0 CALLDATASIZE PUSH1 0x3 NOT ADD SLT PUSH2 0x1D5 JUMPI PUSH1 0x20 PUSH1 0xFF PUSH1 0x0 SLOAD PUSH1 0xA0 SHR AND PUSH1 0x40 MLOAD SWAP1 ISZERO ISZERO DUP2 MSTORE RETURN JUMPDEST CALLVALUE PUSH2 0x1D5 JUMPI PUSH1 0x40 CALLDATASIZE PUSH1 0x3 NOT ADD SLT PUSH2 0x1D5 JUMPI PUSH1 0x4 CALLDATALOAD PUSH8 0xFFFFFFFFFFFFFFFF PUSH1 0x24 DUP1 CALLDATALOAD DUP3 DUP2 GT PUSH2 0x1D5 JUMPI CALLDATASIZE PUSH1 0x23 DUP3 ADD SLT ISZERO PUSH2 0x1D5 JUMPI DUP1 PUSH1 0x4 ADD CALLDATALOAD SWAP3 DUP4 GT PUSH2 0x1D5 JUMPI CALLDATASIZE DUP3 DUP5 DUP4 ADD ADD GT PUSH2 0x1D5 JUMPI PUSH2 0xBEA PUSH2 0x1467 JUMP JUMPDEST PUSH2 0xBF2 PUSH2 0x14BF JUMP JUMPDEST PUSH2 0xBFB DUP5 PUSH2 0x1417 JUMP JUMPDEST DUP4 PUSH1 0x0 MSTORE PUSH1 0x20 SWAP3 PUSH1 0x2 DUP5 MSTORE PUSH1 0x1 SWAP3 PUSH1 0xFF DUP5 PUSH1 0x40 PUSH1 0x0 KECCAK256 ADD SLOAD AND PUSH1 0x8 DUP2 LT ISZERO PUSH2 0xD63 JUMPI DUP5 PUSH2 0xC28 SWAP2 EQ PUSH2 0x1375 JUMP JUMPDEST DUP6 PUSH1 0x0 MSTORE PUSH1 0x2 DUP6 MSTORE PUSH1 0x2 PUSH1 0x40 PUSH1 0x0 KECCAK256 ADD SWAP3 PUSH2 0xC4D DUP4 PUSH2 0xC47 DUP7 SLOAD PUSH2 0x11FE JUMP JUMPDEST DUP7 PUSH2 0x13C1 JUMP JUMPDEST PUSH1 0x0 SWAP1 PUSH1 0x1F DUP5 GT PUSH1 0x1 EQ PUSH2 0xCDE JUMPI SWAP5 PUSH1 0xFF SWAP5 PUSH2 0xC9C DUP6 PUSH1 0x3 SWAP7 PUSH1 0x0 DUP1 MLOAD PUSH1 0x20 PUSH2 0x1556 DUP4 CODECOPY DUP2 MLOAD SWAP2 MSTORE SWAP11 SWAP7 PUSH2 0xCCB SWAP7 PUSH1 0x40 SWAP12 PUSH1 0x0 SWAP4 PUSH2 0xCD1 JUMPI JUMPDEST POP POP POP DUP2 PUSH1 0x1 SHL SWAP2 PUSH1 0x0 NOT SWAP1 PUSH1 0x3 SHL SHR NOT AND OR SWAP1 JUMP JUMPDEST SWAP1 SSTORE JUMPDEST DUP8 PUSH1 0x0 MSTORE PUSH1 0x2 DUP4 MSTORE DUP6 PUSH1 0x0 KECCAK256 SWAP1 DUP2 ADD SWAP1 DUP2 SLOAD SWAP2 DUP6 DUP8 NOT DUP5 AND OR SWAP1 SSTORE PUSH1 0x5 TIMESTAMP SWAP2 ADD SSTORE DUP6 MLOAD SWAP5 DUP6 SWAP2 AND PUSH2 0x1163 JUMP JUMPDEST DUP3 ADD MSTORE LOG2 STOP JUMPDEST ADD ADD CALLDATALOAD SWAP1 POP DUP13 DUP1 DUP1 PUSH2 0xC86 JUMP JUMPDEST SWAP1 SWAP2 PUSH1 0x1F NOT DUP5 AND SWAP3 DUP6 PUSH1 0x0 MSTORE DUP8 PUSH1 0x0 KECCAK256 SWAP4 PUSH1 0x0 JUMPDEST DUP2 DUP2 LT PUSH2 0xD4C JUMPI POP SWAP7 DUP6 PUSH1 0x0 DUP1 MLOAD PUSH1 0x20 PUSH2 0x1556 DUP4 CODECOPY DUP2 MLOAD SWAP2 MSTORE SWAP10 SWAP6 PUSH2 0xCCB SWAP6 DUP4 SWAP6 PUSH1 0xFF SWAP11 SWAP6 PUSH1 0x3 SWAP11 PUSH1 0x40 SWAP14 LT PUSH2 0xD31 JUMPI JUMPDEST POP POP POP POP DUP2 SHL ADD SWAP1 SSTORE PUSH2 0xC9F JUMP JUMPDEST PUSH1 0x0 NOT PUSH1 0xF8 DUP7 DUP14 SHL AND SHR NOT SWAP3 ADD ADD CALLDATALOAD AND SWAP1 SSTORE DUP12 DUP1 DUP1 DUP1 PUSH2 0xD23 JUMP JUMPDEST DUP5 DUP4 ADD DUP5 ADD CALLDATALOAD DUP7 SSTORE SWAP5 DUP9 ADD SWAP5 SWAP2 DUP10 ADD SWAP2 DUP10 ADD PUSH2 0xCF2 JUMP JUMPDEST POP PUSH4 0x4E487B71 PUSH1 0xE0 SHL PUSH1 0x0 SWAP1 DUP2 MSTORE PUSH1 0x21 PUSH1 0x4 MSTORE REVERT JUMPDEST CALLVALUE PUSH2 0x1D5 JUMPI PUSH1 0x20 CALLDATASIZE PUSH1 0x3 NOT ADD SLT PUSH2 0x1D5 JUMPI PUSH1 0x4 CALLDATALOAD PUSH2 0xD94 PUSH2 0x1467 JUMP JUMPDEST PUSH2 0xD9C PUSH2 0x14BF JUMP JUMPDEST PUSH2 0xDA5 DUP2 PUSH2 0x1417 JUMP JUMPDEST DUP1 PUSH1 0x0 MSTORE PUSH1 0x2 PUSH1 0x20 MSTORE PUSH1 0xFF PUSH1 0x1 PUSH1 0x40 PUSH1 0x0 KECCAK256 ADD SLOAD AND PUSH1 0x8 DUP2 LT ISZERO PUSH2 0x1BF JUMPI PUSH1 0x6 SUB PUSH2 0xDD3 JUMPI PUSH2 0x396 SWAP1 PUSH2 0x1506 JUMP JUMPDEST PUSH1 0x40 MLOAD PUSH3 0x461BCD PUSH1 0xE5 SHL DUP2 MSTORE PUSH1 0x20 PUSH1 0x4 DUP3 ADD MSTORE PUSH1 0x19 PUSH1 0x24 DUP3 ADD MSTORE PUSH32 0x4D75737420626520696E205448455F4348415020737461746500000000000000 PUSH1 0x44 DUP3 ADD MSTORE PUSH1 0x64 SWAP1 REVERT JUMPDEST CALLVALUE PUSH2 0x1D5 JUMPI PUSH1 0x0 CALLDATASIZE PUSH1 0x3 NOT ADD SLT PUSH2 0x1D5 JUMPI PUSH2 0xE31 PUSH2 0x1467 JUMP JUMPDEST PUSH1 0x0 SLOAD PUSH1 0xFF DUP2 PUSH1 0xA0 SHR AND ISZERO PUSH2 0xE78 JUMPI PUSH1 0xFF PUSH1 0xA0 SHL NOT AND PUSH1 0x0 SSTORE PUSH1 0x40 MLOAD CALLER DUP2 MSTORE PUSH32 0x5DB9EE0A495BF2E6FF9C91A7834C1BA4FDD244A5E8AA4E537BD38AEAE4B073AA SWAP1 PUSH1 0x20 SWAP1 LOG1 STOP JUMPDEST PUSH1 0x40 MLOAD PUSH3 0x461BCD PUSH1 0xE5 SHL DUP2 MSTORE PUSH1 0x20 PUSH1 0x4 DUP3 ADD MSTORE PUSH1 0x14 PUSH1 0x24 DUP3 ADD MSTORE PUSH20 0x14185D5CD8589B194E881B9BDD081C185D5CD959 PUSH1 0x62 SHL PUSH1 0x44 DUP3 ADD MSTORE PUSH1 0x64 SWAP1 REVERT JUMPDEST CALLVALUE PUSH2 0x1D5 JUMPI PUSH1 0x20 CALLDATASIZE PUSH1 0x3 NOT ADD SLT PUSH2 0x1D5 JUMPI PUSH1 0x4 CALLDATALOAD PUSH2 0xED0 PUSH2 0x1467 JUMP JUMPDEST PUSH2 0xED8 PUSH2 0x14BF JUMP JUMPDEST PUSH2 0xEE1 DUP2 PUSH2 0x1417 JUMP JUMPDEST DUP1 PUSH1 0x0 MSTORE PUSH1 0x2 PUSH1 0x20 MSTORE PUSH1 0xFF PUSH1 0x1 PUSH1 0x40 PUSH1 0x0 KECCAK256 ADD SLOAD AND SWAP1 PUSH1 0x8 DUP3 LT ISZERO PUSH2 0x1BF JUMPI PUSH2 0xF0F PUSH1 0x1 PUSH2 0x396 SWAP4 EQ PUSH2 0x1375 JUMP JUMPDEST PUSH2 0x1506 JUMP JUMPDEST CALLVALUE PUSH2 0x1D5 JUMPI PUSH1 0x20 CALLDATASIZE PUSH1 0x3 NOT ADD SLT PUSH2 0x1D5 JUMPI PUSH1 0x4 CALLDATALOAD PUSH2 0xF30 PUSH2 0x1467 JUMP JUMPDEST PUSH2 0xF38 PUSH2 0x14BF JUMP JUMPDEST PUSH2 0xF41 DUP2 PUSH2 0x1417 JUMP JUMPDEST DUP1 PUSH1 0x0 MSTORE PUSH1 0x2 PUSH1 0x20 MSTORE PUSH1 0xFF PUSH1 0x1 PUSH1 0x40 PUSH1 0x0 KECCAK256 ADD SLOAD AND SWAP1 PUSH1 0x8 DUP3 LT ISZERO PUSH2 0x1BF JUMPI PUSH2 0xF0F PUSH1 0x4 PUSH2 0x396 SWAP4 EQ PUSH2 0x1329 JUMP JUMPDEST CALLVALUE PUSH2 0x1D5 JUMPI PUSH1 0x20 CALLDATASIZE PUSH1 0x3 NOT ADD SLT PUSH2 0x1D5 JUMPI PUSH1 0x4 CALLDATALOAD PUSH2 0xF8B PUSH2 0x1467 JUMP JUMPDEST PUSH2 0xF93 PUSH2 0x14BF JUMP JUMPDEST PUSH2 0xF9C DUP2 PUSH2 0x1417 JUMP JUMPDEST DUP1 PUSH1 0x0 MSTORE PUSH1 0x2 PUSH1 0x20 MSTORE PUSH1 0xFF PUSH1 0x1 PUSH1 0x40 PUSH1 0x0 KECCAK256 ADD SLOAD AND PUSH1 0x8 DUP2 LT ISZERO PUSH2 0x1BF JUMPI PUSH2 0x100D JUMPI DUP1 PUSH1 0x0 MSTORE PUSH1 0x2 PUSH1 0x20 MSTORE PUSH1 0x0 DUP1 MLOAD PUSH1 0x20 PUSH2 0x1556 DUP4 CODECOPY DUP2 MLOAD SWAP2 MSTORE PUSH1 0x40 PUSH1 0xFF PUSH2 0x1003 DUP3 PUSH1 0x0 KECCAK256 PUSH1 0x1 DUP2 ADD SWAP1 DUP2 SLOAD SWAP2 PUSH1 0x1 DUP6 NOT DUP5 AND OR SWAP1 SSTORE PUSH1 0x5 TIMESTAMP SWAP2 ADD SSTORE DUP4 MLOAD SWAP3 DUP4 SWAP2 AND PUSH2 0x1163 JUMP JUMPDEST PUSH1 0x1 PUSH1 0x20 DUP3 ADD MSTORE LOG2 STOP JUMPDEST PUSH1 0x40 MLOAD PUSH3 0x461BCD PUSH1 0xE5 SHL DUP2 MSTORE PUSH1 0x20 PUSH1 0x4 DUP3 ADD MSTORE PUSH1 0x19 PUSH1 0x24 DUP3 ADD MSTORE PUSH32 0x4D75737420626520696E204B484F495F54414F20737461746500000000000000 PUSH1 0x44 DUP3 ADD MSTORE PUSH1 0x64 SWAP1 REVERT JUMPDEST CALLVALUE PUSH2 0x1D5 JUMPI PUSH1 0x0 CALLDATASIZE PUSH1 0x3 NOT ADD SLT PUSH2 0x1D5 JUMPI PUSH1 0x1 SLOAD PUSH1 0x40 MLOAD PUSH1 0x1 PUSH1 0x1 PUSH1 0xA0 SHL SUB SWAP1 SWAP2 AND DUP2 MSTORE PUSH1 0x20 SWAP1 RETURN JUMPDEST CALLVALUE PUSH2 0x1D5 JUMPI PUSH1 0x20 CALLDATASIZE PUSH1 0x3 NOT ADD SLT PUSH2 0x1D5 JUMPI PUSH1 0x4 CALLDATALOAD PUSH2 0x1097 PUSH2 0x1467 JUMP JUMPDEST PUSH2 0x109F PUSH2 0x14BF JUMP JUMPDEST PUSH2 0x10A8 DUP2 PUSH2 0x1417 JUMP JUMPDEST DUP1 PUSH1 0x0 MSTORE PUSH1 0x2 PUSH1 0x20 MSTORE PUSH1 0xFF PUSH1 0x1 PUSH1 0x40 PUSH1 0x0 KECCAK256 ADD SLOAD AND PUSH1 0x8 DUP2 LT ISZERO PUSH2 0x1BF JUMPI PUSH1 0x2 PUSH2 0x10D2 SWAP2 EQ PUSH2 0x12DD JUMP JUMPDEST DUP1 PUSH1 0x0 MSTORE PUSH1 0x2 PUSH1 0x20 MSTORE PUSH1 0x0 DUP1 MLOAD PUSH1 0x20 PUSH2 0x1556 DUP4 CODECOPY DUP2 MLOAD SWAP2 MSTORE PUSH1 0x40 PUSH1 0xFF PUSH2 0x1117 DUP3 PUSH1 0x0 KECCAK256 PUSH1 0x1 DUP2 ADD SWAP1 DUP2 SLOAD SWAP2 PUSH1 0x6 DUP6 NOT DUP5 AND OR SWAP1 SSTORE PUSH1 0x5 TIMESTAMP SWAP2 ADD SSTORE DUP4 MLOAD SWAP3 DUP4 SWAP2 AND PUSH2 0x1163 JUMP JUMPDEST PUSH1 0x6 PUSH1 0x20 DUP3 ADD MSTORE LOG2 STOP JUMPDEST CALLVALUE PUSH2 0x1D5 JUMPI PUSH1 0x20 CALLDATASIZE PUSH1 0x3 NOT ADD SLT PUSH2 0x1D5 JUMPI PUSH1 0x4 CALLDATALOAD PUSH2 0x113E DUP2 PUSH2 0x1417 JUMP JUMPDEST PUSH1 0x0 MSTORE PUSH1 0x2 PUSH1 0x20 MSTORE PUSH1 0x20 PUSH1 0xFF PUSH1 0x1 PUSH1 0x40 PUSH1 0x0 KECCAK256 ADD SLOAD AND PUSH2 0x1161 PUSH1 0x40 MLOAD DUP1 SWAP3 PUSH2 0x1163 JUMP JUMPDEST RETURN JUMPDEST SWAP1 PUSH1 0x8 DUP3 LT ISZERO PUSH2 0x1BF JUMPI MSTORE JUMP JUMPDEST SWAP2 SWAP1 DUP3 MLOAD SWAP3 DUP4 DUP3 MSTORE PUSH1 0x0 JUMPDEST DUP5 DUP2 LT PUSH2 0x119C JUMPI POP POP DUP3 PUSH1 0x0 PUSH1 0x20 DUP1 SWAP5 SWAP6 DUP5 ADD ADD MSTORE PUSH1 0x1F DUP1 NOT SWAP2 ADD AND ADD ADD SWAP1 JUMP JUMPDEST PUSH1 0x20 DUP2 DUP4 ADD DUP2 ADD MLOAD DUP5 DUP4 ADD DUP3 ADD MSTORE ADD PUSH2 0x117B JUMP JUMPDEST PUSH1 0x4 CALLDATALOAD SWAP1 PUSH1 0x1 PUSH1 0x1 PUSH1 0xA0 SHL SUB DUP3 AND DUP3 SUB PUSH2 0x1D5 JUMPI JUMP JUMPDEST SWAP1 PUSH1 0x1F DUP1 NOT SWAP2 ADD AND DUP2 ADD SWAP1 DUP2 LT PUSH8 0xFFFFFFFFFFFFFFFF DUP3 GT OR PUSH2 0x11E8 JUMPI PUSH1 0x40 MSTORE JUMP JUMPDEST PUSH4 0x4E487B71 PUSH1 0xE0 SHL PUSH1 0x0 MSTORE PUSH1 0x41 PUSH1 0x4 MSTORE PUSH1 0x24 PUSH1 0x0 REVERT JUMPDEST SWAP1 PUSH1 0x1 DUP3 DUP2 SHR SWAP3 AND DUP1 ISZERO PUSH2 0x122E JUMPI JUMPDEST PUSH1 0x20 DUP4 LT EQ PUSH2 0x1218 JUMPI JUMP JUMPDEST PUSH4 0x4E487B71 PUSH1 0xE0 SHL PUSH1 0x0 MSTORE PUSH1 0x22 PUSH1 0x4 MSTORE PUSH1 0x24 PUSH1 0x0 REVERT JUMPDEST SWAP2 PUSH1 0x7F AND SWAP2 PUSH2 0x120D JUMP JUMPDEST SWAP1 PUSH1 0x40 MLOAD SWAP2 DUP3 PUSH1 0x0 DUP3 SLOAD PUSH2 0x124B DUP2 PUSH2 0x11FE JUMP JUMPDEST SWAP1 DUP2 DUP5 MSTORE PUSH1 0x20 SWAP5 PUSH1 0x1 SWAP2 PUSH1 0x1 DUP2 AND SWAP1 DUP2 PUSH1 0x0 EQ PUSH2 0x12BB JUMPI POP PUSH1 0x1 EQ PUSH2 0x127C JUMPI JUMPDEST POP POP POP PUSH2 0x127A SWAP3 POP SUB DUP4 PUSH2 0x11C6 JUMP JUMPDEST JUMP JUMPDEST PUSH1 0x0 SWAP1 DUP2 MSTORE DUP6 DUP2 KECCAK256 SWAP6 SWAP4 POP SWAP2 SWAP1 JUMPDEST DUP2 DUP4 LT PUSH2 0x12A3 JUMPI POP POP PUSH2 0x127A SWAP4 POP DUP3 ADD ADD CODESIZE DUP1 DUP1 PUSH2 0x126B JUMP JUMPDEST DUP6 SLOAD DUP9 DUP5 ADD DUP6 ADD MSTORE SWAP5 DUP6 ADD SWAP5 DUP8 SWAP5 POP SWAP2 DUP4 ADD SWAP2 PUSH2 0x128A JUMP JUMPDEST SWAP3 POP POP POP PUSH2 0x127A SWAP5 SWAP3 POP PUSH1 0xFF NOT AND DUP3 DUP5 ADD MSTORE ISZERO ISZERO PUSH1 0x5 SHL DUP3 ADD ADD CODESIZE DUP1 DUP1 PUSH2 0x126B JUMP JUMPDEST ISZERO PUSH2 0x12E4 JUMPI JUMP JUMPDEST PUSH1 0x40 MLOAD PUSH3 0x461BCD PUSH1 0xE5 SHL DUP2 MSTORE PUSH1 0x20 PUSH1 0x4 DUP3 ADD MSTORE PUSH1 0x1A PUSH1 0x24 DUP3 ADD MSTORE PUSH32 0x4D75737420626520696E2044415F4341505F534F207374617465000000000000 PUSH1 0x44 DUP3 ADD MSTORE PUSH1 0x64 SWAP1 REVERT JUMPDEST ISZERO PUSH2 0x1330 JUMPI JUMP JUMPDEST PUSH1 0x40 MLOAD PUSH3 0x461BCD PUSH1 0xE5 SHL DUP2 MSTORE PUSH1 0x20 PUSH1 0x4 DUP3 ADD MSTORE PUSH1 0x1F PUSH1 0x24 DUP3 ADD MSTORE PUSH32 0x4D75737420626520696E2044414E475F4749414F5F4449434820737461746500 PUSH1 0x44 DUP3 ADD MSTORE PUSH1 0x64 SWAP1 REVERT JUMPDEST ISZERO PUSH2 0x137C JUMPI JUMP JUMPDEST PUSH1 0x40 MLOAD PUSH3 0x461BCD PUSH1 0xE5 SHL DUP2 MSTORE PUSH1 0x20 PUSH1 0x4 DUP3 ADD MSTORE PUSH1 0x1A PUSH1 0x24 DUP3 ADD MSTORE PUSH32 0x4D75737420626520696E2043484F5F4455594554207374617465000000000000 PUSH1 0x44 DUP3 ADD MSTORE PUSH1 0x64 SWAP1 REVERT JUMPDEST SWAP1 PUSH1 0x1F DUP2 GT PUSH2 0x13CF JUMPI POP POP POP JUMP JUMPDEST PUSH1 0x0 SWAP2 PUSH1 0x0 MSTORE PUSH1 0x20 PUSH1 0x0 KECCAK256 SWAP1 PUSH1 0x20 PUSH1 0x1F DUP6 ADD PUSH1 0x5 SHR DUP4 ADD SWAP5 LT PUSH2 0x140D JUMPI JUMPDEST PUSH1 0x1F ADD PUSH1 0x5 SHR ADD SWAP2 JUMPDEST DUP3 DUP2 LT PUSH2 0x1402 JUMPI POP POP POP JUMP JUMPDEST DUP2 DUP2 SSTORE PUSH1 0x1 ADD PUSH2 0x13F6 JUMP JUMPDEST SWAP1 SWAP3 POP DUP3 SWAP1 PUSH2 0x13ED JUMP JUMPDEST PUSH1 0x0 MSTORE PUSH1 0x2 PUSH1 0x20 MSTORE PUSH1 0x40 PUSH1 0x0 KECCAK256 SLOAD ISZERO PUSH2 0x142C JUMPI JUMP JUMPDEST PUSH1 0x40 MLOAD PUSH3 0x461BCD PUSH1 0xE5 SHL DUP2 MSTORE PUSH1 0x20 PUSH1 0x4 DUP3 ADD MSTORE PUSH1 0x13 PUSH1 0x24 DUP3 ADD MSTORE PUSH19 0x13185B99081B9BDD081C9959DA5CDD195C9959 PUSH1 0x6A SHL PUSH1 0x44 DUP3 ADD MSTORE PUSH1 0x64 SWAP1 REVERT JUMPDEST PUSH1 0x0 SLOAD PUSH1 0x1 PUSH1 0x1 PUSH1 0xA0 SHL SUB AND CALLER SUB PUSH2 0x147B JUMPI JUMP JUMPDEST PUSH1 0x64 PUSH1 0x40 MLOAD PUSH3 0x461BCD PUSH1 0xE5 SHL DUP2 MSTORE PUSH1 0x20 PUSH1 0x4 DUP3 ADD MSTORE PUSH1 0x20 PUSH1 0x24 DUP3 ADD MSTORE PUSH32 0x4F776E61626C653A2063616C6C6572206973206E6F7420746865206F776E6572 PUSH1 0x44 DUP3 ADD MSTORE REVERT JUMPDEST PUSH1 0xFF PUSH1 0x0 SLOAD PUSH1 0xA0 SHR AND PUSH2 0x14CE JUMPI JUMP JUMPDEST PUSH1 0x40 MLOAD PUSH3 0x461BCD PUSH1 0xE5 SHL DUP2 MSTORE PUSH1 0x20 PUSH1 0x4 DUP3 ADD MSTORE PUSH1 0x10 PUSH1 0x24 DUP3 ADD MSTORE PUSH16 0x14185D5CD8589B194E881C185D5CD959 PUSH1 0x82 SHL PUSH1 0x44 DUP3 ADD MSTORE PUSH1 0x64 SWAP1 REVERT JUMPDEST DUP1 PUSH1 0x0 MSTORE PUSH1 0x2 PUSH1 0x20 MSTORE PUSH1 0x0 DUP1 MLOAD PUSH1 0x20 PUSH2 0x1556 DUP4 CODECOPY DUP2 MLOAD SWAP2 MSTORE PUSH1 0x40 PUSH1 0xFF PUSH2 0x154B DUP3 PUSH1 0x0 KECCAK256 PUSH1 0x1 DUP2 ADD SWAP1 DUP2 SLOAD SWAP2 PUSH1 0x2 DUP6 NOT DUP5 AND OR SWAP1 SSTORE PUSH1 0x5 TIMESTAMP SWAP2 ADD SSTORE DUP4 MLOAD SWAP3 DUP4 SWAP2 AND PUSH2 0x1163 JUMP JUMPDEST PUSH1 0x2 PUSH1 0x20 DUP3 ADD MSTORE LOG2 JUMP INVALID PUSH28 0xAE5B3937F1C50FF50F2FF21B403739914664EE08B38898777AEE11EB LOG3 0xEA 0x1F LOG2 PUSH5 0x6970667358 0x22 SLT KECCAK256 COINBASE PUSH26 0x1081EBEFE2AEFFEE382CA9EFD2380C7FFF43BB0D36BD015AC539 GAS 0xC3 SWAP10 0xE7 PUSH5 0x736F6C6343 STOP ADDMOD XOR STOP CALLER "},"methodIdentifiers":{"approveLand(uint256)":"38c887b2","canTransact(uint256)":"67bdb2a1","cancelTransaction(uint256)":"3380c0d8","completeTransfer(uint256)":"619c83ed","createLandRecord(address,string)":"ab5d2475","getLandMetadata(uint256)":"6c2a4ed2","getLandStatus(uint256)":"04835426","isBlocked(uint256)":"b0aa98c7","landNFTContract()":"2b359bc5","lands(uint256)":"e261f1e5","mortgage(uint256)":"1be3175e","owner()":"8da5cb5b","pause()":"8456cb59","paused()":"5c975abb","raiseDispute(uint256)":"a5c1674e","rejectLand(uint256,string)":"59122393","releaseMortgage(uint256)":"4b45ca8f","renounceOwnership()":"715018a6","resolveDispute(uint256)":"c2b7b868","startTransaction(uint256)":"f6f84508","submitForApproval(uint256)":"2cb0aa31","transferOwnership(address)":"f2fde38b","unpause()":"3f4ba83a"}}}}}