{"contracts/LandRegistry.sol":{"LandRegistry":{"abi":[{"inputs":[{"internalType":"address","name":"_landNFTAddress","type":"address"}],"stateMutability":"nonpayable","type":"constructor"},{"anonymous":false,"inputs":[{"indexed":true,"internalType":"uint256","name":"tokenId","type":"uint256"},{"indexed":true,"internalType":"address","name":"owner","type":"address"},{"indexed":false,"internalType":"string","name":"tokenURI","type":"string"}],"name":"LandCreated","type":"event"},{"anonymous":false,"inputs":[{"indexed":true,"internalType":"uint256","name":"tokenId","type":"uint256"},{"indexed":false,"internalType":"enum LandRegistry.LandStatus","name":"oldStatus","type":"uint8"},{"indexed":false,"internalType":"enum LandRegistry.LandStatus","name":"newStatus","type":"uint8"}],"name":"LandStatusChanged","type":"event"},{"anonymous":false,"inputs":[{"indexed":true,"internalType":"address","name":"previousOwner","type":"address"},{"indexed":true,"internalType":"address","name":"newOwner","type":"address"}],"name":"OwnershipTransferred","type":"event"},{"anonymous":false,"inputs":[{"indexed":false,"internalType":"address","name":"account","type":"address"}],"name":"Paused","type":"event"},{"anonymous":false,"inputs":[{"indexed":false,"internalType":"address","name":"account","type":"address"}],"name":"Unpaused","type":"event"},{"inputs":[{"internalType":"uint256","name":"tokenId","type":"uint256"}],"name":"approveLand","outputs":[],"stateMutability":"nonpayable","type":"function"},{"inputs":[{"internalType":"uint256","name":"tokenId","type":"uint256"}],"name":"canTransact","outputs":[{"internalType":"bool","name":"","type":"bool"}],"stateMutability":"view","type":"function"},{"inputs":[{"internalType":"uint256","name":"tokenId","type":"uint256"}],"name":"cancelTransaction","outputs":[],"stateMutability":"nonpayable","type":"function"},{"inputs":[{"internalType":"uint256","name":"tokenId","type":"uint256"}],"name":"completeTransfer","outputs":[],"stateMutability":"nonpayable","type":"function"},{"inputs":[{"internalType":"address","name":"to","type":"address"},{"internalType":"string","name":"tokenURI","type":"string"}],"name":"createLandRecord","outputs":[{"internalType":"uint256","name":"","type":"uint256"}],"stateMutability":"nonpayable","type":"function"},{"inputs":[{"internalType":"uint256","name":"tokenId","type":"uint256"}],"name":"getLandStatus","outputs":[{"internalType":"enum LandRegistry.LandStatus","name":"","type":"uint8"}],"stateMutability":"view","type":"function"},{"inputs":[{"internalType":"uint256","name":"tokenId","type":"uint256"}],"name":"isBlocked","outputs":[{"internalType":"bool","name":"","type":"bool"}],"stateMutability":"view","type":"function"},{"inputs":[],"name":"landNFTContract","outputs":[{"internalType":"contract LandNFT","name":"","type":"address"}],"stateMutability":"view","type":"function"},{"inputs":[{"internalType":"uint256","name":"","type":"uint256"}],"name":"lands","outputs":[{"internalType":"uint256","name":"tokenId","type":"uint256"},{"internalType":"enum LandRegistry.LandStatus","name":"status","type":"uint8"},{"internalType":"string","name":"rejectReason","type":"string"},{"internalType":"uint256","name":"createdAt","type":"uint256"},{"internalType":"uint256","name":"updatedAt","type":"uint256"}],"stateMutability":"view","type":"function"},{"inputs":[{"internalType":"uint256","name":"tokenId","type":"uint256"}],"name":"mortgage","outputs":[],"stateMutability":"nonpayable","type":"function"},{"inputs":[],"name":"owner","outputs":[{"internalType":"address","name":"","type":"address"}],"stateMutability":"view","type":"function"},{"inputs":[],"name":"pause","outputs":[],"stateMutability":"nonpayable","type":"function"},{"inputs":[],"name":"paused","outputs":[{"internalType":"bool","name":"","type":"bool"}],"stateMutability":"view","type":"function"},{"inputs":[{"internalType":"uint256","name":"tokenId","type":"uint256"}],"name":"raiseDispute","outputs":[],"stateMutability":"nonpayable","type":"function"},{"inputs":[{"internalType":"uint256","name":"tokenId","type":"uint256"},{"internalType":"string","name":"reason","type":"string"}],"name":"rejectLand","outputs":[],"stateMutability":"nonpayable","type":"function"},{"inputs":[{"internalType":"uint256","name":"tokenId","type":"uint256"}],"name":"releaseMortgage","outputs":[],"stateMutability":"nonpayable","type":"function"},{"inputs":[],"name":"renounceOwnership","outputs":[],"stateMutability":"nonpayable","type":"function"},{"inputs":[{"internalType":"uint256","name":"tokenId","type":"uint256"}],"name":"resolveDispute","outputs":[],"stateMutability":"nonpayable","type":"function"},{"inputs":[{"internalType":"uint256","name":"tokenId","type":"uint256"}],"name":"startTransaction","outputs":[],"stateMutability":"nonpayable","type":"function"},{"inputs":[{"internalType":"uint256","name":"tokenId","type":"uint256"}],"name":"submitForApproval","outputs":[],"stateMutability":"nonpayable","type":"function"},{"inputs":[{"internalType":"address","name":"newOwner","type":"address"}],"name":"transferOwnership","outputs":[],"stateMutability":"nonpayable","type":"function"},{"inputs":[],"name":"unpause","outputs":[],"stateMutability":"nonpayable","type":"function"}],"evm":{"bytecode":{"linkReferences":{},"object":"6080346100b957601f61151c38819003918201601f19168301916001600160401b038311848410176100be578084926020946040528339810103126100b957516001600160a01b0390818116908190036100b95760005460405192339082167f8be0079c531659141344cd1fd0a4f28419497f9722a3daafe3b4186f6b6457e0600080a36001600160a81b0319163360ff60a01b191617600055600180546001600160a01b03191691909117905561144790816100d58239f35b600080fd5b634e487b7160e01b600052604160045260246000fdfe6040608081526004908136101561001557600080fd5b600090813560e01c8063048354261461104b5780631be3175e14610faa5780632b359bc514610f825780632cb0aa3114610e925780633380c0d814610e2857806338c887b214610db65780633f4ba83a14610d1c5780634b45ca8f14610c7e5780635912239314610aa85780635c975abb14610a84578063619c83ed146109e457806367bdb2a11461098a578063715018a6146109305780638456cb59146108d25780638da5cb5b146108ab578063a5c1674e1461080a578063ab5d2475146104bd578063b0aa98c71461044f578063c2b7b8681461039b578063e261f1e51461028f578063f2fde38b146101c85763f6f845081461011357600080fd5b346101c45760203660031901126101c45782359061012f611303565b61013761135b565b610140826112b3565b818352600260205260ff600182852001541660088110156101b1579060ff8561017a60026000805160206113f28339815191529514611179565b84865260026020526101a8838720600181019081549184861984161790558342910155845193849116611089565b6020820152a280f35b634e487b7160e01b845260218552602484fd5b5080fd5b50823461028b57602036600319011261028b576101e36110ac565b906101ec611303565b6001600160a01b0391821692831561023957505082546001600160a01b0319811683178455167f8be0079c531659141344cd1fd0a4f28419497f9722a3daafe3b4186f6b6457e08380a380f35b906020608492519162461bcd60e51b8352820152602660248201527f4f776e61626c653a206e6577206f776e657220697320746865207a65726f206160448201526564647265737360d01b6064820152fd5b8280fd5b50823461028b57602092836003193601126103985781358152600284528281209182549360019160ff600186015416938760028701845195838254926102d4846110ff565b808a529360018116908115610374575060011461033c575b50505050509161032060a0926103088661032d979603866110c7565b6003880154970154958251998a998a52890190611089565b86015260a0850190611139565b91606084015260808301520390f35b9080949550528383205b8284106103615750505084010187826103088661032d6102ec565b8054888501860152928401928101610346565b60ff1916868b015250505050151560051b850101905087826103088661032d6102ec565b80fd5b50823461028b57602036600319011261028b578035916103b9611303565b6103c161135b565b6103ca836112b3565b828452600260205260ff6001828620015416600881101561043c576007036103f957836103f6846113a2565b80f35b906020606492519162461bcd60e51b8352820152601b60248201527f4d75737420626520696e205452414e485f4348415020737461746500000000006044820152fd5b634e487b7160e01b855260218352602485fd5b50346101c45760203660031901126101c457823561046c816112b3565b8252600260205260ff60018284200154169160088310156104aa576020600784148385821561049f575b50519015158152f35b600614915083610496565b634e487b7160e01b815260218452602490fd5b5091346101c457826003193601126101c4576104d76110ac565b92602493843567ffffffffffffffff9384821161080657366023830112156108065781810135908582116107f457602096601f19928651946105208a86601f85011601876110c7565b818652368b838301011161028b578183928c8c93018389013786010152610545611303565b61054d61135b565b60018060a01b0396888860015416968851998a9163c233557b60e01b835216978886830152898d830152818581610587604482018c611139565b03925af19788156107ea5782986107bb575b5086519360a08501858110838211176107a9578852888552898501928084528851938b85018581108582111761079757918b9593918d95938c528185528b8901948552600260608a019642885260808b0198428a528452528b82209851895560018901905160088110156107855760ff80198354169116179055600288019351908151938411610773578d9e508c9d610640859d9e9c9d61063a88546110ff565b8861125d565b8093601f86116001146106ce57505092806106ba9997959361069c937faf3b58634809a189c48e8dc732039c10ddc6022ea3b353f0317bbb7adcb308ed9c9a9896926106c3575b50508160011b916000199060031b1c19161790565b90555b51600384015551910155855191829189835289830190611139565b0390a351908152f35b015190503880610687565b868352818320949392908616915b8282106107435750509260019285927faf3b58634809a189c48e8dc732039c10ddc6022ea3b353f0317bbb7adcb308ed9c9a98966106ba9c9a98961061072a575b505050811b01905561069f565b015160001960f88460031b161c1916905538808061071d565b84969798999a9b9c9d5060018193949596829397870151815501960194018f9c9b9a9998979695949392916106dc565b634e487b7160e01b8152604188528e90fd5b634e487b7160e01b8352602189528f83fd5b634e487b7160e01b8352604187528d83fd5b634e487b7160e01b8452604185528b84fd5b9097508881813d83116107e3575b6107d381836110c7565b810103126101c457519638610599565b503d6107c9565b87513d84823e3d90fd5b634e487b7160e01b8752604190528686fd5b8580fd5b50346101c45760203660031901126101c457823590610827611303565b61082f61135b565b610838826112b3565b818352600260205260ff600182852001541660088110156101b1579060ff6108a08661087560026000805160206113f28339815191529614611179565b8587526002602052838720600181019182549260078619851617905542910155835192839116611089565b60076020820152a280f35b50346101c457816003193601126101c457905490516001600160a01b039091168152602090f35b50346101c457816003193601126101c45760207f62e78cea01bee320cd4e420270b5ea74000d11b0c9f74754ebdbfc544b05a2589161090f611303565b61091761135b565b835460ff60a01b1916600160a01b17845551338152a180f35b8234610398578060031936011261039857610949611303565b80546001600160a01b03198116825581906001600160a01b03167f8be0079c531659141344cd1fd0a4f28419497f9722a3daafe3b4186f6b6457e08280a380f35b509190346103985760203660031901126103985781356109a9816112b3565b8152600260205260ff60018483200154169160088310156109d1576020836002865191148152f35b634e487b7160e01b825260219052602490fd5b50346101c45760203660031901126101c457823590610a01611303565b610a0961135b565b610a12826112b3565b818352600260205260ff600182852001541660088110156101b1579060ff610a7986610a4e816000805160206113f283398151915296146111c5565b8587526002602052838720600181019182549260058619851617905542910155835192839116611089565b60056020820152a280f35b50346101c457816003193601126101c45760ff6020925460a01c1690519015158152f35b5082903461028b578060031936011261028b5781359167ffffffffffffffff9060248035838111610c7a5736602382011215610c7a5780830135938411610c7a5736828583010111610c7a57610afc611303565b610b0461135b565b610b0d866112b3565b8587526020936002855260019260ff84888b200154166008811015610c685784610b379114611211565b878952600286526002878a200192610b5983610b5386546110ff565b8661125d565b89908a601f8511600114610be65784610bd29560ff9995600399956000805160206113f28339815191529d9c9995610ba79593610bd9575b5050508160011b916000199060031b1c19161790565b90555b888a5260028452868a2090810191825492868819851617905542910155855194859116611089565b820152a280f35b01013590508e8080610b91565b50848b52878b20929091601f1985168c5b818110610c5157509460ff989488946000805160206113f28339815191529c9b989460039a9484610bd29a10610c36575b50505050811b019055610baa565b60001960f8868e1b161c19920101351690558d808080610c28565b848301840135865594880194918a01918a01610bf7565b50634e487b7160e01b89526021855288fd5b8680fd5b50823461028b57602036600319011261028b57803591610c9c611303565b610ca461135b565b610cad836112b3565b828452600260205260ff6001828620015416600881101561043c57600603610cd957836103f6846113a2565b906020606492519162461bcd60e51b8352820152601960248201527f4d75737420626520696e205448455f43484150207374617465000000000000006044820152fd5b50823461028b578260031936011261028b57610d36611303565b82549060ff8260a01c1615610d7c575060ff60a01b19168255513381527f5db9ee0a495bf2e6ff9c91a7834c1ba4fdd244a5e8aa4e537bd38aeae4b073aa90602090a180f35b606490602084519162461bcd60e51b8352820152601460248201527314185d5cd8589b194e881b9bdd081c185d5cd95960621b6044820152fd5b50346101c45760203660031901126101c45760ff6001843592610dd7611303565b610ddf61135b565b610de8846112b3565b83855260026020528420015416926008841015610e155750610e1060016103f6939414611211565b6113a2565b634e487b7160e01b835260219052602482fd5b50346101c45760203660031901126101c45760ff6001843592610e49611303565b610e5161135b565b610e5a846112b3565b838552600260205284200154166008811015610e7f576103f69293610e1091146111c5565b634e487b7160e01b835260218452602483fd5b5082903461028b57602036600319011261028b57813591610eb1611303565b610eb961135b565b610ec2836112b3565b828452600260205260ff60018386200154166008811015610f6f57610f2d579060ff610f226000805160206113f2833981519152938587526002602052838720600181019182549260018619851617905542910155835192839116611089565b60016020820152a280f35b6020606492519162461bcd60e51b8352820152601960248201527f4d75737420626520696e204b484f495f54414f207374617465000000000000006044820152fd5b634e487b7160e01b855260218252602485fd5b50346101c457816003193601126101c45760015490516001600160a01b039091168152602090f35b50346101c45760203660031901126101c457823590610fc7611303565b610fcf61135b565b610fd8826112b3565b818352600260205260ff600182852001541660088110156101b1579060ff6110408661101560026000805160206113f28339815191529614611179565b8587526002602052838720600181019182549260068619851617905542910155835192839116611089565b60066020820152a280f35b50823461028b57602036600319011261028b5760ff6001836020956110879435611074816112b3565b8152600287522001541691518092611089565bf35b9060088210156110965752565b634e487b7160e01b600052602160045260246000fd5b600435906001600160a01b03821682036110c257565b600080fd5b90601f8019910116810190811067ffffffffffffffff8211176110e957604052565b634e487b7160e01b600052604160045260246000fd5b90600182811c9216801561112f575b602083101461111957565b634e487b7160e01b600052602260045260246000fd5b91607f169161110e565b919082519283825260005b848110611165575050826000602080949584010152601f8019910116010190565b602081830181015184830182015201611144565b1561118057565b60405162461bcd60e51b815260206004820152601a60248201527f4d75737420626520696e2044415f4341505f534f2073746174650000000000006044820152606490fd5b156111cc57565b60405162461bcd60e51b815260206004820152601f60248201527f4d75737420626520696e2044414e475f4749414f5f44494348207374617465006044820152606490fd5b1561121857565b60405162461bcd60e51b815260206004820152601a60248201527f4d75737420626520696e2043484f5f44555945542073746174650000000000006044820152606490fd5b90601f811161126b57505050565b6000916000526020600020906020601f850160051c830194106112a9575b601f0160051c01915b82811061129e57505050565b818155600101611292565b9092508290611289565b6000526002602052604060002054156112c857565b60405162461bcd60e51b815260206004820152601360248201527213185b99081b9bdd081c9959da5cdd195c9959606a1b6044820152606490fd5b6000546001600160a01b0316330361131757565b606460405162461bcd60e51b815260206004820152602060248201527f4f776e61626c653a2063616c6c6572206973206e6f7420746865206f776e65726044820152fd5b60ff60005460a01c1661136a57565b60405162461bcd60e51b815260206004820152601060248201526f14185d5cd8589b194e881c185d5cd95960821b6044820152606490fd5b8060005260026020526000805160206113f2833981519152604060ff6113e7826000206001810190815491600285198416179055600442910155835192839116611089565b60026020820152a256fe7bae5b3937f1c50ff50f2ff21b403739914664ee08b38898777aee11eba3ea1fa264697066735822122017d751e77f13e294e6a9ca708c95c1be3511488b52a36df130eabec1ef5c6eb764736f6c63430008180033","opcodes":"PUSH1 0x80 CALLVALUE PUSH2 0xB9 JUMPI PUSH1 0x1F PUSH2 0x151C CODESIZE DUP2 SWAP1 SUB SWAP2 DUP3 ADD PUSH1 0x1F NOT AND DUP4 ADD SWAP2 PUSH1 0x1 PUSH1 0x1 PUSH1 0x40 SHL SUB DUP4 GT DUP5 DUP5 LT OR PUSH2 0xBE JUMPI DUP1 DUP5 SWAP3 PUSH1 0x20 SWAP5 PUSH1 0x40 MSTORE DUP4 CODECOPY DUP2 ADD SUB SLT PUSH2 0xB9 JUMPI MLOAD PUSH1 0x1 PUSH1 0x1 PUSH1 0xA0 SHL SUB SWAP1 DUP2 DUP2 AND SWAP1 DUP2 SWAP1 SUB PUSH2 0xB9 JUMPI PUSH1 0x0 SLOAD PUSH1 0x40 MLOAD SWAP3 CALLER SWAP1 DUP3 AND PUSH32 0x8BE0079C531659141344CD1FD0A4F28419497F9722A3DAAFE3B4186F6B6457E0 PUSH1 0x0 DUP1 LOG3 PUSH1 0x1 PUSH1 0x1 PUSH1 0xA8 SHL SUB NOT AND CALLER PUSH1 0xFF PUSH1 0xA0 SHL NOT AND OR PUSH1 0x0 SSTORE PUSH1 0x1 DUP1 SLOAD PUSH1 0x1 PUSH1 0x1 PUSH1 0xA0 SHL SUB NOT AND SWAP2 SWAP1 SWAP2 OR SWAP1 SSTORE PUSH2 0x1447 SWAP1 DUP2 PUSH2 0xD5 DUP3 CODECOPY RETURN JUMPDEST PUSH1 0x0 DUP1 REVERT JUMPDEST PUSH4 0x4E487B71 PUSH1 0xE0 SHL PUSH1 0x0 MSTORE PUSH1 0x41 PUSH1 0x4 MSTORE PUSH1 0x24 PUSH1 0x0 REVERT INVALID PUSH1 0x40 PUSH1 0x80 DUP2 MSTORE PUSH1 0x4 SWAP1 DUP2 CALLDATASIZE LT ISZERO PUSH2 0x15 JUMPI PUSH1 0x0 DUP1 REVERT JUMPDEST PUSH1 0x0 SWAP1 DUP2 CALLDATALOAD PUSH1 0xE0 SHR DUP1 PUSH4 0x4835426 EQ PUSH2 0x104B JUMPI DUP1 PUSH4 0x1BE3175E EQ PUSH2 0xFAA JUMPI DUP1 PUSH4 0x2B359BC5 EQ PUSH2 0xF82 JUMPI DUP1 PUSH4 0x2CB0AA31 EQ PUSH2 0xE92 JUMPI DUP1 PUSH4 0x3380C0D8 EQ PUSH2 0xE28 JUMPI DUP1 PUSH4 0x38C887B2 EQ PUSH2 0xDB6 JUMPI DUP1 PUSH4 0x3F4BA83A EQ PUSH2 0xD1C JUMPI DUP1 PUSH4 0x4B45CA8F EQ PUSH2 0xC7E JUMPI DUP1 PUSH4 0x59122393 EQ PUSH2 0xAA8 JUMPI DUP1 PUSH4 0x5C975ABB EQ PUSH2 0xA84 JUMPI DUP1 PUSH4 0x619C83ED EQ PUSH2 0x9E4 JUMPI DUP1 PUSH4 0x67BDB2A1 EQ PUSH2 0x98A JUMPI DUP1 PUSH4 0x715018A6 EQ PUSH2 0x930 JUMPI DUP1 PUSH4 0x8456CB59 EQ PUSH2 0x8D2 JUMPI DUP1 PUSH4 0x8DA5CB5B EQ PUSH2 0x8AB JUMPI DUP1 PUSH4 0xA5C1674E EQ PUSH2 0x80A JUMPI DUP1 PUSH4 0xAB5D2475 EQ PUSH2 0x4BD JUMPI DUP1 PUSH4 0xB0AA98C7 EQ PUSH2 0x44F JUMPI DUP1 PUSH4 0xC2B7B868 EQ PUSH2 0x39B JUMPI DUP1 PUSH4 0xE261F1E5 EQ PUSH2 0x28F JUMPI DUP1 PUSH4 0xF2FDE38B EQ PUSH2 0x1C8 JUMPI PUSH4 0xF6F84508 EQ PUSH2 0x113 JUMPI PUSH1 0x0 DUP1 REVERT JUMPDEST CALLVALUE PUSH2 0x1C4 JUMPI PUSH1 0x20 CALLDATASIZE PUSH1 0x3 NOT ADD SLT PUSH2 0x1C4 JUMPI DUP3 CALLDATALOAD SWAP1 PUSH2 0x12F PUSH2 0x1303 JUMP JUMPDEST PUSH2 0x137 PUSH2 0x135B JUMP JUMPDEST PUSH2 0x140 DUP3 PUSH2 0x12B3 JUMP JUMPDEST DUP2 DUP4 MSTORE PUSH1 0x2 PUSH1 0x20 MSTORE PUSH1 0xFF PUSH1 0x1 DUP3 DUP6 KECCAK256 ADD SLOAD AND PUSH1 0x8 DUP2 LT ISZERO PUSH2 0x1B1 JUMPI SWAP1 PUSH1 0xFF DUP6 PUSH2 0x17A PUSH1 0x2 PUSH1 0x0 DUP1 MLOAD PUSH1 0x20 PUSH2 0x13F2 DUP4 CODECOPY DUP2 MLOAD SWAP2 MSTORE SWAP6 EQ PUSH2 0x1179 JUMP JUMPDEST DUP5 DUP7 MSTORE PUSH1 0x2 PUSH1 0x20 MSTORE PUSH2 0x1A8 DUP4 DUP8 KECCAK256 PUSH1 0x1 DUP2 ADD SWAP1 DUP2 SLOAD SWAP2 DUP5 DUP7 NOT DUP5 AND OR SWAP1 SSTORE DUP4 TIMESTAMP SWAP2 ADD SSTORE DUP5 MLOAD SWAP4 DUP5 SWAP2 AND PUSH2 0x1089 JUMP JUMPDEST PUSH1 0x20 DUP3 ADD MSTORE LOG2 DUP1 RETURN JUMPDEST PUSH4 0x4E487B71 PUSH1 0xE0 SHL DUP5 MSTORE PUSH1 0x21 DUP6 MSTORE PUSH1 0x24 DUP5 REVERT JUMPDEST POP DUP1 REVERT JUMPDEST POP DUP3 CALLVALUE PUSH2 0x28B JUMPI PUSH1 0x20 CALLDATASIZE PUSH1 0x3 NOT ADD SLT PUSH2 0x28B JUMPI PUSH2 0x1E3 PUSH2 0x10AC JUMP JUMPDEST SWAP1 PUSH2 0x1EC PUSH2 0x1303 JUMP JUMPDEST PUSH1 0x1 PUSH1 0x1 PUSH1 0xA0 SHL SUB SWAP2 DUP3 AND SWAP3 DUP4 ISZERO PUSH2 0x239 JUMPI POP POP DUP3 SLOAD PUSH1 0x1 PUSH1 0x1 PUSH1 0xA0 SHL SUB NOT DUP2 AND DUP4 OR DUP5 SSTORE AND PUSH32 0x8BE0079C531659141344CD1FD0A4F28419497F9722A3DAAFE3B4186F6B6457E0 DUP4 DUP1 LOG3 DUP1 RETURN JUMPDEST SWAP1 PUSH1 0x20 PUSH1 0x84 SWAP3 MLOAD SWAP2 PUSH3 0x461BCD PUSH1 0xE5 SHL DUP4 MSTORE DUP3 ADD MSTORE PUSH1 0x26 PUSH1 0x24 DUP3 ADD MSTORE PUSH32 0x4F776E61626C653A206E6577206F776E657220697320746865207A65726F2061 PUSH1 0x44 DUP3 ADD MSTORE PUSH6 0x646472657373 PUSH1 0xD0 SHL PUSH1 0x64 DUP3 ADD MSTORE REVERT JUMPDEST DUP3 DUP1 REVERT JUMPDEST POP DUP3 CALLVALUE PUSH2 0x28B JUMPI PUSH1 0x20 SWAP3 DUP4 PUSH1 0x3 NOT CALLDATASIZE ADD SLT PUSH2 0x398 JUMPI DUP2 CALLDATALOAD DUP2 MSTORE PUSH1 0x2 DUP5 MSTORE DUP3 DUP2 KECCAK256 SWAP2 DUP3 SLOAD SWAP4 PUSH1 0x1 SWAP2 PUSH1 0xFF PUSH1 0x1 DUP7 ADD SLOAD AND SWAP4 DUP8 PUSH1 0x2 DUP8 ADD DUP5 MLOAD SWAP6 DUP4 DUP3 SLOAD SWAP3 PUSH2 0x2D4 DUP5 PUSH2 0x10FF JUMP JUMPDEST DUP1 DUP11 MSTORE SWAP4 PUSH1 0x1 DUP2 AND SWAP1 DUP2 ISZERO PUSH2 0x374 JUMPI POP PUSH1 0x1 EQ PUSH2 0x33C JUMPI JUMPDEST POP POP POP POP POP SWAP2 PUSH2 0x320 PUSH1 0xA0 SWAP3 PUSH2 0x308 DUP7 PUSH2 0x32D SWAP8 SWAP7 SUB DUP7 PUSH2 0x10C7 JUMP JUMPDEST PUSH1 0x3 DUP9 ADD SLOAD SWAP8 ADD SLOAD SWAP6 DUP3 MLOAD SWAP10 DUP11 SWAP10 DUP11 MSTORE DUP10 ADD SWAP1 PUSH2 0x1089 JUMP JUMPDEST DUP7 ADD MSTORE PUSH1 0xA0 DUP6 ADD SWAP1 PUSH2 0x1139 JUMP JUMPDEST SWAP2 PUSH1 0x60 DUP5 ADD MSTORE PUSH1 0x80 DUP4 ADD MSTORE SUB SWAP1 RETURN JUMPDEST SWAP1 DUP1 SWAP5 SWAP6 POP MSTORE DUP4 DUP4 KECCAK256 JUMPDEST DUP3 DUP5 LT PUSH2 0x361 JUMPI POP POP POP DUP5 ADD ADD DUP8 DUP3 PUSH2 0x308 DUP7 PUSH2 0x32D PUSH2 0x2EC JUMP JUMPDEST DUP1 SLOAD DUP9 DUP6 ADD DUP7 ADD MSTORE SWAP3 DUP5 ADD SWAP3 DUP2 ADD PUSH2 0x346 JUMP JUMPDEST PUSH1 0xFF NOT AND DUP7 DUP12 ADD MSTORE POP POP POP POP ISZERO ISZERO PUSH1 0x5 SHL DUP6 ADD ADD SWAP1 POP DUP8 DUP3 PUSH2 0x308 DUP7 PUSH2 0x32D PUSH2 0x2EC JUMP JUMPDEST DUP1 REVERT JUMPDEST POP DUP3 CALLVALUE PUSH2 0x28B JUMPI PUSH1 0x20 CALLDATASIZE PUSH1 0x3 NOT ADD SLT PUSH2 0x28B JUMPI DUP1 CALLDATALOAD SWAP2 PUSH2 0x3B9 PUSH2 0x1303 JUMP JUMPDEST PUSH2 0x3C1 PUSH2 0x135B JUMP JUMPDEST PUSH2 0x3CA DUP4 PUSH2 0x12B3 JUMP JUMPDEST DUP3 DUP5 MSTORE PUSH1 0x2 PUSH1 0x20 MSTORE PUSH1 0xFF PUSH1 0x1 DUP3 DUP7 KECCAK256 ADD SLOAD AND PUSH1 0x8 DUP2 LT ISZERO PUSH2 0x43C JUMPI PUSH1 0x7 SUB PUSH2 0x3F9 JUMPI DUP4 PUSH2 0x3F6 DUP5 PUSH2 0x13A2 JUMP JUMPDEST DUP1 RETURN JUMPDEST SWAP1 PUSH1 0x20 PUSH1 0x64 SWAP3 MLOAD SWAP2 PUSH3 0x461BCD PUSH1 0xE5 SHL DUP4 MSTORE DUP3 ADD MSTORE PUSH1 0x1B PUSH1 0x24 DUP3 ADD MSTORE PUSH32 0x4D75737420626520696E205452414E485F434841502073746174650000000000 PUSH1 0x44 DUP3 ADD MSTORE REVERT JUMPDEST PUSH4 0x4E487B71 PUSH1 0xE0 SHL DUP6 MSTORE PUSH1 0x21 DUP4 MSTORE PUSH1 0x24 DUP6 REVERT JUMPDEST POP CALLVALUE PUSH2 0x1C4 JUMPI PUSH1 0x20 CALLDATASIZE PUSH1 0x3 NOT ADD SLT PUSH2 0x1C4 JUMPI DUP3 CALLDATALOAD PUSH2 0x46C DUP2 PUSH2 0x12B3 JUMP JUMPDEST DUP3 MSTORE PUSH1 0x2 PUSH1 0x20 MSTORE PUSH1 0xFF PUSH1 0x1 DUP3 DUP5 KECCAK256 ADD SLOAD AND SWAP2 PUSH1 0x8 DUP4 LT ISZERO PUSH2 0x4AA JUMPI PUSH1 0x20 PUSH1 0x7 DUP5 EQ DUP4 DUP6 DUP3 ISZERO PUSH2 0x49F JUMPI JUMPDEST POP MLOAD SWAP1 ISZERO ISZERO DUP2 MSTORE RETURN JUMPDEST PUSH1 0x6 EQ SWAP2 POP DUP4 PUSH2 0x496 JUMP JUMPDEST PUSH4 0x4E487B71 PUSH1 0xE0 SHL DUP2 MSTORE PUSH1 0x21 DUP5 MSTORE PUSH1 0x24 SWAP1 REVERT JUMPDEST POP SWAP2 CALLVALUE PUSH2 0x1C4 JUMPI DUP3 PUSH1 0x3 NOT CALLDATASIZE ADD SLT PUSH2 0x1C4 JUMPI PUSH2 0x4D7 PUSH2 0x10AC JUMP JUMPDEST SWAP3 PUSH1 0x24 SWAP4 DUP5 CALLDATALOAD PUSH8 0xFFFFFFFFFFFFFFFF SWAP4 DUP5 DUP3 GT PUSH2 0x806 JUMPI CALLDATASIZE PUSH1 0x23 DUP4 ADD SLT ISZERO PUSH2 0x806 JUMPI DUP2 DUP2 ADD CALLDATALOAD SWAP1 DUP6 DUP3 GT PUSH2 0x7F4 JUMPI PUSH1 0x20 SWAP7 PUSH1 0x1F NOT SWAP3 DUP7 MLOAD SWAP5 PUSH2 0x520 DUP11 DUP7 PUSH1 0x1F DUP6 ADD AND ADD DUP8 PUSH2 0x10C7 JUMP JUMPDEST DUP2 DUP7 MSTORE CALLDATASIZE DUP12 DUP4 DUP4 ADD ADD GT PUSH2 0x28B JUMPI DUP2 DUP4 SWAP3 DUP13 DUP13 SWAP4 ADD DUP4 DUP10 ADD CALLDATACOPY DUP7 ADD ADD MSTORE PUSH2 0x545 PUSH2 0x1303 JUMP JUMPDEST PUSH2 0x54D PUSH2 0x135B JUMP JUMPDEST PUSH1 0x1 DUP1 PUSH1 0xA0 SHL SUB SWAP7 DUP9 DUP9 PUSH1 0x1 SLOAD AND SWAP7 DUP9 MLOAD SWAP10 DUP11 SWAP2 PUSH4 0xC233557B PUSH1 0xE0 SHL DUP4 MSTORE AND SWAP8 DUP9 DUP7 DUP4 ADD MSTORE DUP10 DUP14 DUP4 ADD MSTORE DUP2 DUP6 DUP2 PUSH2 0x587 PUSH1 0x44 DUP3 ADD DUP13 PUSH2 0x1139 JUMP JUMPDEST SUB SWAP3 GAS CALL SWAP8 DUP9 ISZERO PUSH2 0x7EA JUMPI DUP3 SWAP9 PUSH2 0x7BB JUMPI JUMPDEST POP DUP7 MLOAD SWAP4 PUSH1 0xA0 DUP6 ADD DUP6 DUP2 LT DUP4 DUP3 GT OR PUSH2 0x7A9 JUMPI DUP9 MSTORE DUP9 DUP6 MSTORE DUP10 DUP6 ADD SWAP3 DUP1 DUP5 MSTORE DUP9 MLOAD SWAP4 DUP12 DUP6 ADD DUP6 DUP2 LT DUP6 DUP3 GT OR PUSH2 0x797 JUMPI SWAP2 DUP12 SWAP6 SWAP4 SWAP2 DUP14 SWAP6 SWAP4 DUP13 MSTORE DUP2 DUP6 MSTORE DUP12 DUP10 ADD SWAP5 DUP6 MSTORE PUSH1 0x2 PUSH1 0x60 DUP11 ADD SWAP7 TIMESTAMP DUP9 MSTORE PUSH1 0x80 DUP12 ADD SWAP9 TIMESTAMP DUP11 MSTORE DUP5 MSTORE MSTORE DUP12 DUP3 KECCAK256 SWAP9 MLOAD DUP10 SSTORE PUSH1 0x1 DUP10 ADD SWAP1 MLOAD PUSH1 0x8 DUP2 LT ISZERO PUSH2 0x785 JUMPI PUSH1 0xFF DUP1 NOT DUP4 SLOAD AND SWAP2 AND OR SWAP1 SSTORE PUSH1 0x2 DUP9 ADD SWAP4 MLOAD SWAP1 DUP2 MLOAD SWAP4 DUP5 GT PUSH2 0x773 JUMPI DUP14 SWAP15 POP DUP13 SWAP14 PUSH2 0x640 DUP6 SWAP14 SWAP15 SWAP13 SWAP14 PUSH2 0x63A DUP9 SLOAD PUSH2 0x10FF JUMP JUMPDEST DUP9 PUSH2 0x125D JUMP JUMPDEST DUP1 SWAP4 PUSH1 0x1F DUP7 GT PUSH1 0x1 EQ PUSH2 0x6CE JUMPI POP POP SWAP3 DUP1 PUSH2 0x6BA SWAP10 SWAP8 SWAP6 SWAP4 PUSH2 0x69C SWAP4 PUSH32 0xAF3B58634809A189C48E8DC732039C10DDC6022EA3B353F0317BBB7ADCB308ED SWAP13 SWAP11 SWAP9 SWAP7 SWAP3 PUSH2 0x6C3 JUMPI JUMPDEST POP POP DUP2 PUSH1 0x1 SHL SWAP2 PUSH1 0x0 NOT SWAP1 PUSH1 0x3 SHL SHR NOT AND OR SWAP1 JUMP JUMPDEST SWAP1 SSTORE JUMPDEST MLOAD PUSH1 0x3 DUP5 ADD SSTORE MLOAD SWAP2 ADD SSTORE DUP6 MLOAD SWAP2 DUP3 SWAP2 DUP10 DUP4 MSTORE DUP10 DUP4 ADD SWAP1 PUSH2 0x1139 JUMP JUMPDEST SUB SWAP1 LOG3 MLOAD SWAP1 DUP2 MSTORE RETURN JUMPDEST ADD MLOAD SWAP1 POP CODESIZE DUP1 PUSH2 0x687 JUMP JUMPDEST DUP7 DUP4 MSTORE DUP2 DUP4 KECCAK256 SWAP5 SWAP4 SWAP3 SWAP1 DUP7 AND SWAP2 JUMPDEST DUP3 DUP3 LT PUSH2 0x743 JUMPI POP POP SWAP3 PUSH1 0x1 SWAP3 DUP6 SWAP3 PUSH32 0xAF3B58634809A189C48E8DC732039C10DDC6022EA3B353F0317BBB7ADCB308ED SWAP13 SWAP11 SWAP9 SWAP7 PUSH2 0x6BA SWAP13 SWAP11 SWAP9 SWAP7 LT PUSH2 0x72A JUMPI JUMPDEST POP POP POP DUP2 SHL ADD SWAP1 SSTORE PUSH2 0x69F JUMP JUMPDEST ADD MLOAD PUSH1 0x0 NOT PUSH1 0xF8 DUP5 PUSH1 0x3 SHL AND SHR NOT AND SWAP1 SSTORE CODESIZE DUP1 DUP1 PUSH2 0x71D JUMP JUMPDEST DUP5 SWAP7 SWAP8 SWAP9 SWAP10 SWAP11 SWAP12 SWAP13 SWAP14 POP PUSH1 0x1 DUP2 SWAP4 SWAP5 SWAP6 SWAP7 DUP3 SWAP4 SWAP8 DUP8 ADD MLOAD DUP2 SSTORE ADD SWAP7 ADD SWAP5 ADD DUP16 SWAP13 SWAP12 SWAP11 SWAP10 SWAP9 SWAP8 SWAP7 SWAP6 SWAP5 SWAP4 SWAP3 SWAP2 PUSH2 0x6DC JUMP JUMPDEST PUSH4 0x4E487B71 PUSH1 0xE0 SHL DUP2 MSTORE PUSH1 0x41 DUP9 MSTORE DUP15 SWAP1 REVERT JUMPDEST PUSH4 0x4E487B71 PUSH1 0xE0 SHL DUP4 MSTORE PUSH1 0x21 DUP10 MSTORE DUP16 DUP4 REVERT JUMPDEST PUSH4 0x4E487B71 PUSH1 0xE0 SHL DUP4 MSTORE PUSH1 0x41 DUP8 MSTORE DUP14 DUP4 REVERT JUMPDEST PUSH4 0x4E487B71 PUSH1 0xE0 SHL DUP5 MSTORE PUSH1 0x41 DUP6 MSTORE DUP12 DUP5 REVERT JUMPDEST SWAP1 SWAP8 POP DUP9 DUP2 DUP2 RETURNDATASIZE DUP4 GT PUSH2 0x7E3 JUMPI JUMPDEST PUSH2 0x7D3 DUP2 DUP4 PUSH2 0x10C7 JUMP JUMPDEST DUP2 ADD SUB SLT PUSH2 0x1C4 JUMPI MLOAD SWAP7 CODESIZE PUSH2 0x599 JUMP JUMPDEST POP RETURNDATASIZE PUSH2 0x7C9 JUMP JUMPDEST DUP8 MLOAD RETURNDATASIZE DUP5 DUP3 RETURNDATACOPY RETURNDATASIZE SWAP1 REVERT JUMPDEST PUSH4 0x4E487B71 PUSH1 0xE0 SHL DUP8 MSTORE PUSH1 0x41 SWAP1 MSTORE DUP7 DUP7 REVERT JUMPDEST DUP6 DUP1 REVERT JUMPDEST POP CALLVALUE PUSH2 0x1C4 JUMPI PUSH1 0x20 CALLDATASIZE PUSH1 0x3 NOT ADD SLT PUSH2 0x1C4 JUMPI DUP3 CALLDATALOAD SWAP1 PUSH2 0x827 PUSH2 0x1303 JUMP JUMPDEST PUSH2 0x82F PUSH2 0x135B JUMP JUMPDEST PUSH2 0x838 DUP3 PUSH2 0x12B3 JUMP JUMPDEST DUP2 DUP4 MSTORE PUSH1 0x2 PUSH1 0x20 MSTORE PUSH1 0xFF PUSH1 0x1 DUP3 DUP6 KECCAK256 ADD SLOAD AND PUSH1 0x8 DUP2 LT ISZERO PUSH2 0x1B1 JUMPI SWAP1 PUSH1 0xFF PUSH2 0x8A0 DUP7 PUSH2 0x875 PUSH1 0x2 PUSH1 0x0 DUP1 MLOAD PUSH1 0x20 PUSH2 0x13F2 DUP4 CODECOPY DUP2 MLOAD SWAP2 MSTORE SWAP7 EQ PUSH2 0x1179 JUMP JUMPDEST DUP6 DUP8 MSTORE PUSH1 0x2 PUSH1 0x20 MSTORE DUP4 DUP8 KECCAK256 PUSH1 0x1 DUP2 ADD SWAP2 DUP3 SLOAD SWAP3 PUSH1 0x7 DUP7 NOT DUP6 AND OR SWAP1 SSTORE TIMESTAMP SWAP2 ADD SSTORE DUP4 MLOAD SWAP3 DUP4 SWAP2 AND PUSH2 0x1089 JUMP JUMPDEST PUSH1 0x7 PUSH1 0x20 DUP3 ADD MSTORE LOG2 DUP1 RETURN JUMPDEST POP CALLVALUE PUSH2 0x1C4 JUMPI DUP2 PUSH1 0x3 NOT CALLDATASIZE ADD SLT PUSH2 0x1C4 JUMPI SWAP1 SLOAD SWAP1 MLOAD PUSH1 0x1 PUSH1 0x1 PUSH1 0xA0 SHL SUB SWAP1 SWAP2 AND DUP2 MSTORE PUSH1 0x20 SWAP1 RETURN JUMPDEST POP CALLVALUE PUSH2 0x1C4 JUMPI DUP2 PUSH1 0x3 NOT CALLDATASIZE ADD SLT PUSH2 0x1C4 JUMPI PUSH1 0x20 PUSH32 0x62E78CEA01BEE320CD4E420270B5EA74000D11B0C9F74754EBDBFC544B05A258 SWAP2 PUSH2 0x90F PUSH2 0x1303 JUMP JUMPDEST PUSH2 0x917 PUSH2 0x135B JUMP JUMPDEST DUP4 SLOAD PUSH1 0xFF PUSH1 0xA0 SHL NOT AND PUSH1 0x1 PUSH1 0xA0 SHL OR DUP5 SSTORE MLOAD CALLER DUP2 MSTORE LOG1 DUP1 RETURN JUMPDEST DUP3 CALLVALUE PUSH2 0x398 JUMPI DUP1 PUSH1 0x3 NOT CALLDATASIZE ADD SLT PUSH2 0x398 JUMPI PUSH2 0x949 PUSH2 0x1303 JUMP JUMPDEST DUP1 SLOAD PUSH1 0x1 PUSH1 0x1 PUSH1 0xA0 SHL SUB NOT DUP2 AND DUP3 SSTORE DUP2 SWAP1 PUSH1 0x1 PUSH1 0x1 PUSH1 0xA0 SHL SUB AND PUSH32 0x8BE0079C531659141344CD1FD0A4F28419497F9722A3DAAFE3B4186F6B6457E0 DUP3 DUP1 LOG3 DUP1 RETURN JUMPDEST POP SWAP2 SWAP1 CALLVALUE PUSH2 0x398 JUMPI PUSH1 0x20 CALLDATASIZE PUSH1 0x3 NOT ADD SLT PUSH2 0x398 JUMPI DUP2 CALLDATALOAD PUSH2 0x9A9 DUP2 PUSH2 0x12B3 JUMP JUMPDEST DUP2 MSTORE PUSH1 0x2 PUSH1 0x20 MSTORE PUSH1 0xFF PUSH1 0x1 DUP5 DUP4 KECCAK256 ADD SLOAD AND SWAP2 PUSH1 0x8 DUP4 LT ISZERO PUSH2 0x9D1 JUMPI PUSH1 0x20 DUP4 PUSH1 0x2 DUP7 MLOAD SWAP2 EQ DUP2 MSTORE RETURN JUMPDEST PUSH4 0x4E487B71 PUSH1 0xE0 SHL DUP3 MSTORE PUSH1 0x21 SWAP1 MSTORE PUSH1 0x24 SWAP1 REVERT JUMPDEST POP CALLVALUE PUSH2 0x1C4 JUMPI PUSH1 0x20 CALLDATASIZE PUSH1 0x3 NOT ADD SLT PUSH2 0x1C4 JUMPI DUP3 CALLDATALOAD SWAP1 PUSH2 0xA01 PUSH2 0x1303 JUMP JUMPDEST PUSH2 0xA09 PUSH2 0x135B JUMP JUMPDEST PUSH2 0xA12 DUP3 PUSH2 0x12B3 JUMP JUMPDEST DUP2 DUP4 MSTORE PUSH1 0x2 PUSH1 0x20 MSTORE PUSH1 0xFF PUSH1 0x1 DUP3 DUP6 KECCAK256 ADD SLOAD AND PUSH1 0x8 DUP2 LT ISZERO PUSH2 0x1B1 JUMPI SWAP1 PUSH1 0xFF PUSH2 0xA79 DUP7 PUSH2 0xA4E DUP2 PUSH1 0x0 DUP1 MLOAD PUSH1 0x20 PUSH2 0x13F2 DUP4 CODECOPY DUP2 MLOAD SWAP2 MSTORE SWAP7 EQ PUSH2 0x11C5 JUMP JUMPDEST DUP6 DUP8 MSTORE PUSH1 0x2 PUSH1 0x20 MSTORE DUP4 DUP8 KECCAK256 PUSH1 0x1 DUP2 ADD SWAP2 DUP3 SLOAD SWAP3 PUSH1 0x5 DUP7 NOT DUP6 AND OR SWAP1 SSTORE TIMESTAMP SWAP2 ADD SSTORE DUP4 MLOAD SWAP3 DUP4 SWAP2 AND PUSH2 0x1089 JUMP JUMPDEST PUSH1 0x5 PUSH1 0x20 DUP3 ADD MSTORE LOG2 DUP1 RETURN JUMPDEST POP CALLVALUE PUSH2 0x1C4 JUMPI DUP2 PUSH1 0x3 NOT CALLDATASIZE ADD SLT PUSH2 0x1C4 JUMPI PUSH1 0xFF PUSH1 0x20 SWAP3 SLOAD PUSH1 0xA0 SHR AND SWAP1 MLOAD SWAP1 ISZERO ISZERO DUP2 MSTORE RETURN JUMPDEST POP DUP3 SWAP1 CALLVALUE PUSH2 0x28B JUMPI DUP1 PUSH1 0x3 NOT CALLDATASIZE ADD SLT PUSH2 0x28B JUMPI DUP2 CALLDATALOAD SWAP2 PUSH8 0xFFFFFFFFFFFFFFFF SWAP1 PUSH1 0x24 DUP1 CALLDATALOAD DUP4 DUP2 GT PUSH2 0xC7A JUMPI CALLDATASIZE PUSH1 0x23 DUP3 ADD SLT ISZERO PUSH2 0xC7A JUMPI DUP1 DUP4 ADD CALLDATALOAD SWAP4 DUP5 GT PUSH2 0xC7A JUMPI CALLDATASIZE DUP3 DUP6 DUP4 ADD ADD GT PUSH2 0xC7A JUMPI PUSH2 0xAFC PUSH2 0x1303 JUMP JUMPDEST PUSH2 0xB04 PUSH2 0x135B JUMP JUMPDEST PUSH2 0xB0D DUP7 PUSH2 0x12B3 JUMP JUMPDEST DUP6 DUP8 MSTORE PUSH1 0x20 SWAP4 PUSH1 0x2 DUP6 MSTORE PUSH1 0x1 SWAP3 PUSH1 0xFF DUP5 DUP9 DUP12 KECCAK256 ADD SLOAD AND PUSH1 0x8 DUP2 LT ISZERO PUSH2 0xC68 JUMPI DUP5 PUSH2 0xB37 SWAP2 EQ PUSH2 0x1211 JUMP JUMPDEST DUP8 DUP10 MSTORE PUSH1 0x2 DUP7 MSTORE PUSH1 0x2 DUP8 DUP11 KECCAK256 ADD SWAP3 PUSH2 0xB59 DUP4 PUSH2 0xB53 DUP7 SLOAD PUSH2 0x10FF JUMP JUMPDEST DUP7 PUSH2 0x125D JUMP JUMPDEST DUP10 SWAP1 DUP11 PUSH1 0x1F DUP6 GT PUSH1 0x1 EQ PUSH2 0xBE6 JUMPI DUP5 PUSH2 0xBD2 SWAP6 PUSH1 0xFF SWAP10 SWAP6 PUSH1 0x3 SWAP10 SWAP6 PUSH1 0x0 DUP1 MLOAD PUSH1 0x20 PUSH2 0x13F2 DUP4 CODECOPY DUP2 MLOAD SWAP2 MSTORE SWAP14 SWAP13 SWAP10 SWAP6 PUSH2 0xBA7 SWAP6 SWAP4 PUSH2 0xBD9 JUMPI JUMPDEST POP POP POP DUP2 PUSH1 0x1 SHL SWAP2 PUSH1 0x0 NOT SWAP1 PUSH1 0x3 SHL SHR NOT AND OR SWAP1 JUMP JUMPDEST SWAP1 SSTORE JUMPDEST DUP9 DUP11 MSTORE PUSH1 0x2 DUP5 MSTORE DUP7 DUP11 KECCAK256 SWAP1 DUP2 ADD SWAP2 DUP3 SLOAD SWAP3 DUP7 DUP9 NOT DUP6 AND OR SWAP1 SSTORE TIMESTAMP SWAP2 ADD SSTORE DUP6 MLOAD SWAP5 DUP6 SWAP2 AND PUSH2 0x1089 JUMP JUMPDEST DUP3 ADD MSTORE LOG2 DUP1 RETURN JUMPDEST ADD ADD CALLDATALOAD SWAP1 POP DUP15 DUP1 DUP1 PUSH2 0xB91 JUMP JUMPDEST POP DUP5 DUP12 MSTORE DUP8 DUP12 KECCAK256 SWAP3 SWAP1 SWAP2 PUSH1 0x1F NOT DUP6 AND DUP13 JUMPDEST DUP2 DUP2 LT PUSH2 0xC51 JUMPI POP SWAP5 PUSH1 0xFF SWAP9 SWAP5 DUP9 SWAP5 PUSH1 0x0 DUP1 MLOAD PUSH1 0x20 PUSH2 0x13F2 DUP4 CODECOPY DUP2 MLOAD SWAP2 MSTORE SWAP13 SWAP12 SWAP9 SWAP5 PUSH1 0x3 SWAP11 SWAP5 DUP5 PUSH2 0xBD2 SWAP11 LT PUSH2 0xC36 JUMPI JUMPDEST POP POP POP POP DUP2 SHL ADD SWAP1 SSTORE PUSH2 0xBAA JUMP JUMPDEST PUSH1 0x0 NOT PUSH1 0xF8 DUP7 DUP15 SHL AND SHR NOT SWAP3 ADD ADD CALLDATALOAD AND SWAP1 SSTORE DUP14 DUP1 DUP1 DUP1 PUSH2 0xC28 JUMP JUMPDEST DUP5 DUP4 ADD DUP5 ADD CALLDATALOAD DUP7 SSTORE SWAP5 DUP9 ADD SWAP5 SWAP2 DUP11 ADD SWAP2 DUP11 ADD PUSH2 0xBF7 JUMP JUMPDEST POP PUSH4 0x4E487B71 PUSH1 0xE0 SHL DUP10 MSTORE PUSH1 0x21 DUP6 MSTORE DUP9 REVERT JUMPDEST DUP7 DUP1 REVERT JUMPDEST POP DUP3 CALLVALUE PUSH2 0x28B JUMPI PUSH1 0x20 CALLDATASIZE PUSH1 0x3 NOT ADD SLT PUSH2 0x28B JUMPI DUP1 CALLDATALOAD SWAP2 PUSH2 0xC9C PUSH2 0x1303 JUMP JUMPDEST PUSH2 0xCA4 PUSH2 0x135B JUMP JUMPDEST PUSH2 0xCAD DUP4 PUSH2 0x12B3 JUMP JUMPDEST DUP3 DUP5 MSTORE PUSH1 0x2 PUSH1 0x20 MSTORE PUSH1 0xFF PUSH1 0x1 DUP3 DUP7 KECCAK256 ADD SLOAD AND PUSH1 0x8 DUP2 LT ISZERO PUSH2 0x43C JUMPI PUSH1 0x6 SUB PUSH2 0xCD9 JUMPI DUP4 PUSH2 0x3F6 DUP5 PUSH2 0x13A2 JUMP JUMPDEST SWAP1 PUSH1 0x20 PUSH1 0x64 SWAP3 MLOAD SWAP2 PUSH3 0x461BCD PUSH1 0xE5 SHL DUP4 MSTORE DUP3 ADD MSTORE PUSH1 0x19 PUSH1 0x24 DUP3 ADD MSTORE PUSH32 0x4D75737420626520696E205448455F4348415020737461746500000000000000 PUSH1 0x44 DUP3 ADD MSTORE REVERT JUMPDEST POP DUP3 CALLVALUE PUSH2 0x28B JUMPI DUP3 PUSH1 0x3 NOT CALLDATASIZE ADD SLT PUSH2 0x28B JUMPI PUSH2 0xD36 PUSH2 0x1303 JUMP JUMPDEST DUP3 SLOAD SWAP1 PUSH1 0xFF DUP3 PUSH1 0xA0 SHR AND ISZERO PUSH2 0xD7C JUMPI POP PUSH1 0xFF PUSH1 0xA0 SHL NOT AND DUP3 SSTORE MLOAD CALLER DUP2 MSTORE PUSH32 0x5DB9EE0A495BF2E6FF9C91A7834C1BA4FDD244A5E8AA4E537BD38AEAE4B073AA SWAP1 PUSH1 0x20 SWAP1 LOG1 DUP1 RETURN JUMPDEST PUSH1 0x64 SWAP1 PUSH1 0x20 DUP5 MLOAD SWAP2 PUSH3 0x461BCD PUSH1 0xE5 SHL DUP4 MSTORE DUP3 ADD MSTORE PUSH1 0x14 PUSH1 0x24 DUP3 ADD MSTORE PUSH20 0x14185D5CD8589B194E881B9BDD081C185D5CD959 PUSH1 0x62 SHL PUSH1 0x44 DUP3 ADD MSTORE REVERT JUMPDEST POP CALLVALUE PUSH2 0x1C4 JUMPI PUSH1 0x20 CALLDATASIZE PUSH1 0x3 NOT ADD SLT PUSH2 0x1C4 JUMPI PUSH1 0xFF PUSH1 0x1 DUP5 CALLDATALOAD SWAP3 PUSH2 0xDD7 PUSH2 0x1303 JUMP JUMPDEST PUSH2 0xDDF PUSH2 0x135B JUMP JUMPDEST PUSH2 0xDE8 DUP5 PUSH2 0x12B3 JUMP JUMPDEST DUP4 DUP6 MSTORE PUSH1 0x2 PUSH1 0x20 MSTORE DUP5 KECCAK256 ADD SLOAD AND SWAP3 PUSH1 0x8 DUP5 LT ISZERO PUSH2 0xE15 JUMPI POP PUSH2 0xE10 PUSH1 0x1 PUSH2 0x3F6 SWAP4 SWAP5 EQ PUSH2 0x1211 JUMP JUMPDEST PUSH2 0x13A2 JUMP JUMPDEST PUSH4 0x4E487B71 PUSH1 0xE0 SHL DUP4 MSTORE PUSH1 0x21 SWAP1 MSTORE PUSH1 0x24 DUP3 REVERT JUMPDEST POP CALLVALUE PUSH2 0x1C4 JUMPI PUSH1 0x20 CALLDATASIZE PUSH1 0x3 NOT ADD SLT PUSH2 0x1C4 JUMPI PUSH1 0xFF PUSH1 0x1 DUP5 CALLDATALOAD SWAP3 PUSH2 0xE49 PUSH2 0x1303 JUMP JUMPDEST PUSH2 0xE51 PUSH2 0x135B JUMP JUMPDEST PUSH2 0xE5A DUP5 PUSH2 0x12B3 JUMP JUMPDEST DUP4 DUP6 MSTORE PUSH1 0x2 PUSH1 0x20 MSTORE DUP5 KECCAK256 ADD SLOAD AND PUSH1 0x8 DUP2 LT ISZERO PUSH2 0xE7F JUMPI PUSH2 0x3F6 SWAP3 SWAP4 PUSH2 0xE10 SWAP2 EQ PUSH2 0x11C5 JUMP JUMPDEST PUSH4 0x4E487B71 PUSH1 0xE0 SHL DUP4 MSTORE PUSH1 0x21 DUP5 MSTORE PUSH1 0x24 DUP4 REVERT JUMPDEST POP DUP3 SWAP1 CALLVALUE PUSH2 0x28B JUMPI PUSH1 0x20 CALLDATASIZE PUSH1 0x3 NOT ADD SLT PUSH2 0x28B JUMPI DUP2 CALLDATALOAD SWAP2 PUSH2 0xEB1 PUSH2 0x1303 JUMP JUMPDEST PUSH2 0xEB9 PUSH2 0x135B JUMP JUMPDEST PUSH2 0xEC2 DUP4 PUSH2 0x12B3 JUMP JUMPDEST DUP3 DUP5 MSTORE PUSH1 0x2 PUSH1 0x20 MSTORE PUSH1 0xFF PUSH1 0x1 DUP4 DUP7 KECCAK256 ADD SLOAD AND PUSH1 0x8 DUP2 LT ISZERO PUSH2 0xF6F JUMPI PUSH2 0xF2D JUMPI SWAP1 PUSH1 0xFF PUSH2 0xF22 PUSH1 0x0 DUP1 MLOAD PUSH1 0x20 PUSH2 0x13F2 DUP4 CODECOPY DUP2 MLOAD SWAP2 MSTORE SWAP4 DUP6 DUP8 MSTORE PUSH1 0x2 PUSH1 0x20 MSTORE DUP4 DUP8 KECCAK256 PUSH1 0x1 DUP2 ADD SWAP2 DUP3 SLOAD SWAP3 PUSH1 0x1 DUP7 NOT DUP6 AND OR SWAP1 SSTORE TIMESTAMP SWAP2 ADD SSTORE DUP4 MLOAD SWAP3 DUP4 SWAP2 AND PUSH2 0x1089 JUMP JUMPDEST PUSH1 0x1 PUSH1 0x20 DUP3 ADD MSTORE LOG2 DUP1 RETURN JUMPDEST PUSH1 0x20 PUSH1 0x64 SWAP3 MLOAD SWAP2 PUSH3 0x461BCD PUSH1 0xE5 SHL DUP4 MSTORE DUP3 ADD MSTORE PUSH1 0x19 PUSH1 0x24 DUP3 ADD MSTORE PUSH32 0x4D75737420626520696E204B484F495F54414F20737461746500000000000000 PUSH1 0x44 DUP3 ADD MSTORE REVERT JUMPDEST PUSH4 0x4E487B71 PUSH1 0xE0 SHL DUP6 MSTORE PUSH1 0x21 DUP3 MSTORE PUSH1 0x24 DUP6 REVERT JUMPDEST POP CALLVALUE PUSH2 0x1C4 JUMPI DUP2 PUSH1 0x3 NOT CALLDATASIZE ADD SLT PUSH2 0x1C4 JUMPI PUSH1 0x1 SLOAD SWAP1 MLOAD PUSH1 0x1 PUSH1 0x1 PUSH1 0xA0 SHL SUB SWAP1 SWAP2 AND DUP2 MSTORE PUSH1 0x20 SWAP1 RETURN JUMPDEST POP CALLVALUE PUSH2 0x1C4 JUMPI PUSH1 0x20 CALLDATASIZE PUSH1 0x3 NOT ADD SLT PUSH2 0x1C4 JUMPI DUP3 CALLDATALOAD SWAP1 PUSH2 0xFC7 PUSH2 0x1303 JUMP JUMPDEST PUSH2 0xFCF PUSH2 0x135B JUMP JUMPDEST PUSH2 0xFD8 DUP3 PUSH2 0x12B3 JUMP JUMPDEST DUP2 DUP4 MSTORE PUSH1 0x2 PUSH1 0x20 MSTORE PUSH1 0xFF PUSH1 0x1 DUP3 DUP6 KECCAK256 ADD SLOAD AND PUSH1 0x8 DUP2 LT ISZERO PUSH2 0x1B1 JUMPI SWAP1 PUSH1 0xFF PUSH2 0x1040 DUP7 PUSH2 0x1015 PUSH1 0x2 PUSH1 0x0 DUP1 MLOAD PUSH1 0x20 PUSH2 0x13F2 DUP4 CODECOPY DUP2 MLOAD SWAP2 MSTORE SWAP7 EQ PUSH2 0x1179 JUMP JUMPDEST DUP6 DUP8 MSTORE PUSH1 0x2 PUSH1 0x20 MSTORE DUP4 DUP8 KECCAK256 PUSH1 0x1 DUP2 ADD SWAP2 DUP3 SLOAD SWAP3 PUSH1 0x6 DUP7 NOT DUP6 AND OR SWAP1 SSTORE TIMESTAMP SWAP2 ADD SSTORE DUP4 MLOAD SWAP3 DUP4 SWAP2 AND PUSH2 0x1089 JUMP JUMPDEST PUSH1 0x6 PUSH1 0x20 DUP3 ADD MSTORE LOG2 DUP1 RETURN JUMPDEST POP DUP3 CALLVALUE PUSH2 0x28B JUMPI PUSH1 0x20 CALLDATASIZE PUSH1 0x3 NOT ADD SLT PUSH2 0x28B JUMPI PUSH1 0xFF PUSH1 0x1 DUP4 PUSH1 0x20 SWAP6 PUSH2 0x1087 SWAP5 CALLDATALOAD PUSH2 0x1074 DUP2 PUSH2 0x12B3 JUMP JUMPDEST DUP2 MSTORE PUSH1 0x2 DUP8 MSTORE KECCAK256 ADD SLOAD AND SWAP2 MLOAD DUP1 SWAP3 PUSH2 0x1089 JUMP JUMPDEST RETURN JUMPDEST SWAP1 PUSH1 0x8 DUP3 LT ISZERO PUSH2 0x1096 JUMPI MSTORE JUMP JUMPDEST PUSH4 0x4E487B71 PUSH1 0xE0 SHL PUSH1 0x0 MSTORE PUSH1 0x21 PUSH1 0x4 MSTORE PUSH1 0x24 PUSH1 0x0 REVERT JUMPDEST PUSH1 0x4 CALLDATALOAD SWAP1 PUSH1 0x1 PUSH1 0x1 PUSH1 0xA0 SHL SUB DUP3 AND DUP3 SUB PUSH2 0x10C2 JUMPI JUMP JUMPDEST PUSH1 0x0 DUP1 REVERT JUMPDEST SWAP1 PUSH1 0x1F DUP1 NOT SWAP2 ADD AND DUP2 ADD SWAP1 DUP2 LT PUSH8 0xFFFFFFFFFFFFFFFF DUP3 GT OR PUSH2 0x10E9 JUMPI PUSH1 0x40 MSTORE JUMP JUMPDEST PUSH4 0x4E487B71 PUSH1 0xE0 SHL PUSH1 0x0 MSTORE PUSH1 0x41 PUSH1 0x4 MSTORE PUSH1 0x24 PUSH1 0x0 REVERT JUMPDEST SWAP1 PUSH1 0x1 DUP3 DUP2 SHR SWAP3 AND DUP1 ISZERO PUSH2 0x112F JUMPI JUMPDEST PUSH1 0x20 DUP4 LT EQ PUSH2 0x1119 JUMPI JUMP JUMPDEST PUSH4 0x4E487B71 PUSH1 0xE0 SHL PUSH1 0x0 MSTORE PUSH1 0x22 PUSH1 0x4 MSTORE PUSH1 0x24 PUSH1 0x0 REVERT JUMPDEST SWAP2 PUSH1 0x7F AND SWAP2 PUSH2 0x110E JUMP JUMPDEST SWAP2 SWAP1 DUP3 MLOAD SWAP3 DUP4 DUP3 MSTORE PUSH1 0x0 JUMPDEST DUP5 DUP2 LT PUSH2 0x1165 JUMPI POP POP DUP3 PUSH1 0x0 PUSH1 0x20 DUP1 SWAP5 SWAP6 DUP5 ADD ADD MSTORE PUSH1 0x1F DUP1 NOT SWAP2 ADD AND ADD ADD SWAP1 JUMP JUMPDEST PUSH1 0x20 DUP2 DUP4 ADD DUP2 ADD MLOAD DUP5 DUP4 ADD DUP3 ADD MSTORE ADD PUSH2 0x1144 JUMP JUMPDEST ISZERO PUSH2 0x1180 JUMPI JUMP JUMPDEST PUSH1 0x40 MLOAD PUSH3 0x461BCD PUSH1 0xE5 SHL DUP2 MSTORE PUSH1 0x20 PUSH1 0x4 DUP3 ADD MSTORE PUSH1 0x1A PUSH1 0x24 DUP3 ADD MSTORE PUSH32 0x4D75737420626520696E2044415F4341505F534F207374617465000000000000 PUSH1 0x44 DUP3 ADD MSTORE PUSH1 0x64 SWAP1 REVERT JUMPDEST ISZERO PUSH2 0x11CC JUMPI JUMP JUMPDEST PUSH1 0x40 MLOAD PUSH3 0x461BCD PUSH1 0xE5 SHL DUP2 MSTORE PUSH1 0x20 PUSH1 0x4 DUP3 ADD MSTORE PUSH1 0x1F PUSH1 0x24 DUP3 ADD MSTORE PUSH32 0x4D75737420626520696E2044414E475F4749414F5F4449434820737461746500 PUSH1 0x44 DUP3 ADD MSTORE PUSH1 0x64 SWAP1 REVERT JUMPDEST ISZERO PUSH2 0x1218 JUMPI JUMP JUMPDEST PUSH1 0x40 MLOAD PUSH3 0x461BCD PUSH1 0xE5 SHL DUP2 MSTORE PUSH1 0x20 PUSH1 0x4 DUP3 ADD MSTORE PUSH1 0x1A PUSH1 0x24 DUP3 ADD MSTORE PUSH32 0x4D75737420626520696E2043484F5F4455594554207374617465000000000000 PUSH1 0x44 DUP3 ADD MSTORE PUSH1 0x64 SWAP1 REVERT JUMPDEST SWAP1 PUSH1 0x1F DUP2 GT PUSH2 0x126B JUMPI POP POP POP JUMP JUMPDEST PUSH1 0x0 SWAP2 PUSH1 0x0 MSTORE PUSH1 0x20 PUSH1 0x0 KECCAK256 SWAP1 PUSH1 0x20 PUSH1 0x1F DUP6 ADD PUSH1 0x5 SHR DUP4 ADD SWAP5 LT PUSH2 0x12A9 JUMPI JUMPDEST PUSH1 0x1F ADD PUSH1 0x5 SHR ADD SWAP2 JUMPDEST DUP3 DUP2 LT PUSH2 0x129E JUMPI POP POP POP JUMP JUMPDEST DUP2 DUP2 SSTORE PUSH1 0x1 ADD PUSH2 0x1292 JUMP JUMPDEST SWAP1 SWAP3 POP DUP3 SWAP1 PUSH2 0x1289 JUMP JUMPDEST PUSH1 0x0 MSTORE PUSH1 0x2 PUSH1 0x20 MSTORE PUSH1 0x40 PUSH1 0x0 KECCAK256 SLOAD ISZERO PUSH2 0x12C8 JUMPI JUMP JUMPDEST PUSH1 0x40 MLOAD PUSH3 0x461BCD PUSH1 0xE5 SHL DUP2 MSTORE PUSH1 0x20 PUSH1 0x4 DUP3 ADD MSTORE PUSH1 0x13 PUSH1 0x24 DUP3 ADD MSTORE PUSH19 0x13185B99081B9BDD081C9959DA5CDD195C9959 PUSH1 0x6A SHL PUSH1 0x44 DUP3 ADD MSTORE PUSH1 0x64 SWAP1 REVERT JUMPDEST PUSH1 0x0 SLOAD PUSH1 0x1 PUSH1 0x1 PUSH1 0xA0 SHL SUB AND CALLER SUB PUSH2 0x1317 JUMPI JUMP JUMPDEST PUSH1 0x64 PUSH1 0x40 MLOAD PUSH3 0x461BCD PUSH1 0xE5 SHL DUP2 MSTORE PUSH1 0x20 PUSH1 0x4 DUP3 ADD MSTORE PUSH1 0x20 PUSH1 0x24 DUP3 ADD MSTORE PUSH32 0x4F776E61626C653A2063616C6C6572206973206E6F7420746865206F776E6572 PUSH1 0x44 DUP3 ADD MSTORE REVERT JUMPDEST PUSH1 0xFF PUSH1 0x0 SLOAD PUSH1 0xA0 SHR AND PUSH2 0x136A JUMPI JUMP JUMPDEST PUSH1 0x40 MLOAD PUSH3 0x461BCD PUSH1 0xE5 SHL DUP2 MSTORE PUSH1 0x20 PUSH1 0x4 DUP3 ADD MSTORE PUSH1 0x10 PUSH1 0x24 DUP3 ADD MSTORE PUSH16 0x14185D5CD8589B194E881C185D5CD959 PUSH1 0x82 SHL PUSH1 0x44 DUP3 ADD MSTORE PUSH1 0x64 SWAP1 REVERT JUMPDEST DUP1 PUSH1 0x0 MSTORE PUSH1 0x2 PUSH1 0x20 MSTORE PUSH1 0x0 DUP1 MLOAD PUSH1 0x20 PUSH2 0x13F2 DUP4 CODECOPY DUP2 MLOAD SWAP2 MSTORE PUSH1 0x40 PUSH1 0xFF PUSH2 0x13E7 DUP3 PUSH1 0x0 KECCAK256 PUSH1 0x1 DUP2 ADD SWAP1 DUP2 SLOAD SWAP2 PUSH1 0x2 DUP6 NOT DUP5 AND OR SWAP1 SSTORE PUSH1 0x4 TIMESTAMP SWAP2 ADD SSTORE DUP4 MLOAD SWAP3 DUP4 SWAP2 AND PUSH2 0x1089 JUMP JUMPDEST PUSH1 0x2 PUSH1 0x20 DUP3 ADD MSTORE LOG2 JUMP INVALID PUSH28 0xAE5B3937F1C50FF50F2FF21B403739914664EE08B38898777AEE11EB LOG3 0xEA 0x1F LOG2 PUSH5 0x6970667358 0x22 SLT KECCAK256 OR 0xD7 MLOAD 0xE7 PUSH32 0x13E294E6A9CA708C95C1BE3511488B52A36DF130EABEC1EF5C6EB764736F6C63 NUMBER STOP ADDMOD XOR STOP CALLER "},"methodIdentifiers":{"approveLand(uint256)":"38c887b2","canTransact(uint256)":"67bdb2a1","cancelTransaction(uint256)":"3380c0d8","completeTransfer(uint256)":"619c83ed","createLandRecord(address,string)":"ab5d2475","getLandStatus(uint256)":"04835426","isBlocked(uint256)":"b0aa98c7","landNFTContract()":"2b359bc5","lands(uint256)":"e261f1e5","mortgage(uint256)":"1be3175e","owner()":"8da5cb5b","pause()":"8456cb59","paused()":"5c975abb","raiseDispute(uint256)":"a5c1674e","rejectLand(uint256,string)":"59122393","releaseMortgage(uint256)":"4b45ca8f","renounceOwnership()":"715018a6","resolveDispute(uint256)":"c2b7b868","startTransaction(uint256)":"f6f84508","submitForApproval(uint256)":"2cb0aa31","transferOwnership(address)":"f2fde38b","unpause()":"3f4ba83a"}}}}}