{"contracts/LandRegistry.sol":{"LandRegistry":{"abi":[{"anonymous":false,"inputs":[{"indexed":true,"internalType":"uint256","name":"landId","type":"uint256"},{"indexed":true,"internalType":"address","name":"owner","type":"address"}],"name":"LandRegistered","type":"event"},{"inputs":[{"internalType":"uint256","name":"","type":"uint256"}],"name":"landOwners","outputs":[{"internalType":"address","name":"","type":"address"}],"stateMutability":"view","type":"function"},{"inputs":[{"internalType":"uint256","name":"landId","type":"uint256"}],"name":"registerLand","outputs":[],"stateMutability":"nonpayable","type":"function"}],"evm":{"bytecode":{"linkReferences":{},"object":"608060405234801561001057600080fd5b5061019c806100206000396000f3fe608060405234801561001057600080fd5b50600436106100365760003560e01c80631a0f76b11461003b578063baadce9014610080575b600080fd5b61006461004936600461014d565b6000602081905290815260409020546001600160a01b031681565b6040516001600160a01b03909116815260200160405180910390f35b61009361008e36600461014d565b610095565b005b6000818152602081905260409020546001600160a01b0316156100fe5760405162461bcd60e51b815260206004820152601760248201527f4c616e6420616c72656164792072656769737465726564000000000000000000604482015260640160405180910390fd5b60008181526020819052604080822080546001600160a01b031916339081179091559051909183917fcb4990052f95f6057496d19524f6c3163f50af9f33f2c15b092928e03414323e9190a350565b60006020828403121561015f57600080fd5b503591905056fea2646970667358221220113afb80f000c274cf01e80556107d11721d226270800b2d9a05fec0cb9d58cd64736f6c63430008180033","opcodes":"PUSH1 0x80 PUSH1 0x40 MSTORE CALLVALUE DUP1 ISZERO PUSH2 0x10 JUMPI PUSH1 0x0 DUP1 REVERT JUMPDEST POP PUSH2 0x19C DUP1 PUSH2 0x20 PUSH1 0x0 CODECOPY PUSH1 0x0 RETURN INVALID PUSH1 0x80 PUSH1 0x40 MSTORE CALLVALUE DUP1 ISZERO PUSH2 0x10 JUMPI PUSH1 0x0 DUP1 REVERT JUMPDEST POP PUSH1 0x4 CALLDATASIZE LT PUSH2 0x36 JUMPI PUSH1 0x0 CALLDATALOAD PUSH1 0xE0 SHR DUP1 PUSH4 0x1A0F76B1 EQ PUSH2 0x3B JUMPI DUP1 PUSH4 0xBAADCE90 EQ PUSH2 0x80 JUMPI JUMPDEST PUSH1 0x0 DUP1 REVERT JUMPDEST PUSH2 0x64 PUSH2 0x49 CALLDATASIZE PUSH1 0x4 PUSH2 0x14D JUMP JUMPDEST PUSH1 0x0 PUSH1 0x20 DUP2 SWAP1 MSTORE SWAP1 DUP2 MSTORE PUSH1 0x40 SWAP1 KECCAK256 SLOAD PUSH1 0x1 PUSH1 0x1 PUSH1 0xA0 SHL SUB AND DUP2 JUMP JUMPDEST PUSH1 0x40 MLOAD PUSH1 0x1 PUSH1 0x1 PUSH1 0xA0 SHL SUB SWAP1 SWAP2 AND DUP2 MSTORE PUSH1 0x20 ADD PUSH1 0x40 MLOAD DUP1 SWAP2 SUB SWAP1 RETURN JUMPDEST PUSH2 0x93 PUSH2 0x8E CALLDATASIZE PUSH1 0x4 PUSH2 0x14D JUMP JUMPDEST PUSH2 0x95 JUMP JUMPDEST STOP JUMPDEST PUSH1 0x0 DUP2 DUP2 MSTORE PUSH1 0x20 DUP2 SWAP1 MSTORE PUSH1 0x40 SWAP1 KECCAK256 SLOAD PUSH1 0x1 PUSH1 0x1 PUSH1 0xA0 SHL SUB AND ISZERO PUSH2 0xFE JUMPI PUSH1 0x40 MLOAD PUSH3 0x461BCD PUSH1 0xE5 SHL DUP2 MSTORE PUSH1 0x20 PUSH1 0x4 DUP3 ADD MSTORE PUSH1 0x17 PUSH1 0x24 DUP3 ADD MSTORE PUSH32 0x4C616E6420616C72656164792072656769737465726564000000000000000000 PUSH1 0x44 DUP3 ADD MSTORE PUSH1 0x64 ADD PUSH1 0x40 MLOAD DUP1 SWAP2 SUB SWAP1 REVERT JUMPDEST PUSH1 0x0 DUP2 DUP2 MSTORE PUSH1 0x20 DUP2 SWAP1 MSTORE PUSH1 0x40 DUP1 DUP3 KECCAK256 DUP1 SLOAD PUSH1 0x1 PUSH1 0x1 PUSH1 0xA0 SHL SUB NOT AND CALLER SWAP1 DUP2 OR SWAP1 SWAP2 SSTORE SWAP1 MLOAD SWAP1 SWAP2 DUP4 SWAP2 PUSH32 0xCB4990052F95F6057496D19524F6C3163F50AF9F33F2C15B092928E03414323E SWAP2 SWAP1 LOG3 POP JUMP JUMPDEST PUSH1 0x0 PUSH1 0x20 DUP3 DUP5 SUB SLT ISZERO PUSH2 0x15F JUMPI PUSH1 0x0 DUP1 REVERT JUMPDEST POP CALLDATALOAD SWAP2 SWAP1 POP JUMP INVALID LOG2 PUSH5 0x6970667358 0x22 SLT KECCAK256 GT GASPRICE 0xFB DUP1 CREATE STOP 0xC2 PUSH21 0xCF01E80556107D11721D226270800B2D9A05FEC0CB SWAP14 PC 0xCD PUSH5 0x736F6C6343 STOP ADDMOD XOR STOP CALLER "},"methodIdentifiers":{"landOwners(uint256)":"1a0f76b1","registerLand(uint256)":"baadce90"}}}}}