{
  "_format": "hh-sol-artifact-1",
  "contractName": "LandNFT",
  "sourceName": "contracts/LandNFT.sol",
  "abi": [
    {
      "inputs": [],
      "stateMutability": "nonpayable",
      "type": "constructor"
    },
    {
      "anonymous": false,
      "inputs": [
        {
          "indexed": true,
          "internalType": "address",
          "name": "owner",
          "type": "address"
        },
        {
          "indexed": true,
          "internalType": "address",
          "name": "approved",
          "type": "address"
        },
        {
          "indexed": true,
          "internalType": "uint256",
          "name": "tokenId",
          "type": "uint256"
        }
      ],
      "name": "Approval",
      "type": "event"
    },
    {
      "anonymous": false,
      "inputs": [
        {
          "indexed": true,
          "internalType": "address",
          "name": "owner",
          "type": "address"
        },
        {
          "indexed": true,
          "internalType": "address",
          "name": "operator",
          "type": "address"
        },
        {
          "indexed": false,
          "internalType": "bool",
          "name": "approved",
          "type": "bool"
        }
      ],
      "name": "ApprovalForAll",
      "type": "event"
    },
    {
      "anonymous": false,
      "inputs": [
        {
          "indexed": false,
          "internalType": "uint256",
          "name": "_fromTokenId",
          "type": "uint256"
        },
        {
          "indexed": false,
          "internalType": "uint256",
          "name": "_toTokenId",
          "type": "uint256"
        }
      ],
      "name": "BatchMetadataUpdate",
      "type": "event"
    },
    {
      "anonymous": false,
      "inputs": [
        {
          "indexed": true,
          "internalType": "uint256",
          "name": "tokenId",
          "type": "uint256"
        },
        {
          "indexed": true,
          "internalType": "address",
          "name": "to",
          "type": "address"
        },
        {
          "indexed": false,
          "internalType": "string",
          "name": "tokenURI",
          "type": "string"
        }
      ],
      "name": "LandNFTMinted",
      "type": "event"
    },
    {
      "anonymous": false,
      "inputs": [
        {
          "indexed": false,
          "internalType": "uint256",
          "name": "_tokenId",
          "type": "uint256"
        }
      ],
      "name": "MetadataUpdate",
      "type": "event"
    },
    {
      "anonymous": false,
      "inputs": [
        {
          "indexed": true,
          "internalType": "address",
          "name": "previousOwner",
          "type": "address"
        },
        {
          "indexed": true,
          "internalType": "address",
          "name": "newOwner",
          "type": "address"
        }
      ],
      "name": "OwnershipTransferred",
      "type": "event"
    },
    {
      "anonymous": false,
      "inputs": [
        {
          "indexed": false,
          "internalType": "address",
          "name": "account",
          "type": "address"
        }
      ],
      "name": "Paused",
      "type": "event"
    },
    {
      "anonymous": false,
      "inputs": [
        {
          "indexed": true,
          "internalType": "address",
          "name": "from",
          "type": "address"
        },
        {
          "indexed": true,
          "internalType": "address",
          "name": "to",
          "type": "address"
        },
        {
          "indexed": true,
          "internalType": "uint256",
          "name": "tokenId",
          "type": "uint256"
        }
      ],
      "name": "Transfer",
      "type": "event"
    },
    {
      "anonymous": false,
      "inputs": [
        {
          "indexed": false,
          "internalType": "address",
          "name": "account",
          "type": "address"
        }
      ],
      "name": "Unpaused",
      "type": "event"
    },
    {
      "inputs": [
        {
          "internalType": "address",
          "name": "from",
          "type": "address"
        },
        {
          "internalType": "address",
          "name": "to",
          "type": "address"
        },
        {
          "internalType": "uint256",
          "name": "tokenId",
          "type": "uint256"
        }
      ],
      "name": "adminTransfer",
      "outputs": [],
      "stateMutability": "nonpayable",
      "type": "function"
    },
    {
      "inputs": [
        {
          "internalType": "address",
          "name": "to",
          "type": "address"
        },
        {
          "internalType": "uint256",
          "name": "tokenId",
          "type": "uint256"
        }
      ],
      "name": "approve",
      "outputs": [],
      "stateMutability": "nonpayable",
      "type": "function"
    },
    {
      "inputs": [
        {
          "internalType": "address",
          "name": "owner",
          "type": "address"
        }
      ],
      "name": "balanceOf",
      "outputs": [
        {
          "internalType": "uint256",
          "name": "",
          "type": "uint256"
        }
      ],
      "stateMutability": "view",
      "type": "function"
    },
    {
      "inputs": [
        {
          "internalType": "uint256",
          "name": "tokenId",
          "type": "uint256"
        }
      ],
      "name": "getApproved",
      "outputs": [
        {
          "internalType": "address",
          "name": "",
          "type": "address"
        }
      ],
      "stateMutability": "view",
      "type": "function"
    },
    {
      "inputs": [],
      "name": "getTotalSupply",
      "outputs": [
        {
          "internalType": "uint256",
          "name": "",
          "type": "uint256"
        }
      ],
      "stateMutability": "view",
      "type": "function"
    },
    {
      "inputs": [
        {
          "internalType": "address",
          "name": "owner",
          "type": "address"
        },
        {
          "internalType": "address",
          "name": "operator",
          "type": "address"
        }
      ],
      "name": "isApprovedForAll",
      "outputs": [
        {
          "internalType": "bool",
          "name": "",
          "type": "bool"
        }
      ],
      "stateMutability": "view",
      "type": "function"
    },
    {
      "inputs": [
        {
          "internalType": "address",
          "name": "to",
          "type": "address"
        },
        {
          "internalType": "string",
          "name": "uri",
          "type": "string"
        }
      ],
      "name": "mintLandNFT",
      "outputs": [
        {
          "internalType": "uint256",
          "name": "",
          "type": "uint256"
        }
      ],
      "stateMutability": "nonpayable",
      "type": "function"
    },
    {
      "inputs": [],
      "name": "name",
      "outputs": [
        {
          "internalType": "string",
          "name": "",
          "type": "string"
        }
      ],
      "stateMutability": "view",
      "type": "function"
    },
    {
      "inputs": [],
      "name": "owner",
      "outputs": [
        {
          "internalType": "address",
          "name": "",
          "type": "address"
        }
      ],
      "stateMutability": "view",
      "type": "function"
    },
    {
      "inputs": [
        {
          "internalType": "uint256",
          "name": "tokenId",
          "type": "uint256"
        }
      ],
      "name": "ownerOf",
      "outputs": [
        {
          "internalType": "address",
          "name": "",
          "type": "address"
        }
      ],
      "stateMutability": "view",
      "type": "function"
    },
    {
      "inputs": [],
      "name": "pause",
      "outputs": [],
      "stateMutability": "nonpayable",
      "type": "function"
    },
    {
      "inputs": [],
      "name": "paused",
      "outputs": [
        {
          "internalType": "bool",
          "name": "",
          "type": "bool"
        }
      ],
      "stateMutability": "view",
      "type": "function"
    },
    {
      "inputs": [],
      "name": "renounceOwnership",
      "outputs": [],
      "stateMutability": "nonpayable",
      "type": "function"
    },
    {
      "inputs": [
        {
          "internalType": "address",
          "name": "from",
          "type": "address"
        },
        {
          "internalType": "address",
          "name": "to",
          "type": "address"
        },
        {
          "internalType": "uint256",
          "name": "tokenId",
          "type": "uint256"
        }
      ],
      "name": "safeTransferFrom",
      "outputs": [],
      "stateMutability": "nonpayable",
      "type": "function"
    },
    {
      "inputs": [
        {
          "internalType": "address",
          "name": "from",
          "type": "address"
        },
        {
          "internalType": "address",
          "name": "to",
          "type": "address"
        },
        {
          "internalType": "uint256",
          "name": "tokenId",
          "type": "uint256"
        },
        {
          "internalType": "bytes",
          "name": "data",
          "type": "bytes"
        }
      ],
      "name": "safeTransferFrom",
      "outputs": [],
      "stateMutability": "nonpayable",
      "type": "function"
    },
    {
      "inputs": [
        {
          "internalType": "address",
          "name": "operator",
          "type": "address"
        },
        {
          "internalType": "bool",
          "name": "approved",
          "type": "bool"
        }
      ],
      "name": "setApprovalForAll",
      "outputs": [],
      "stateMutability": "nonpayable",
      "type": "function"
    },
    {
      "inputs": [
        {
          "internalType": "bytes4",
          "name": "interfaceId",
          "type": "bytes4"
        }
      ],
      "name": "supportsInterface",
      "outputs": [
        {
          "internalType": "bool",
          "name": "",
          "type": "bool"
        }
      ],
      "stateMutability": "view",
      "type": "function"
    },
    {
      "inputs": [],
      "name": "symbol",
      "outputs": [
        {
          "internalType": "string",
          "name": "",
          "type": "string"
        }
      ],
      "stateMutability": "view",
      "type": "function"
    },
    {
      "inputs": [
        {
          "internalType": "uint256",
          "name": "tokenId",
          "type": "uint256"
        }
      ],
      "name": "tokenURI",
      "outputs": [
        {
          "internalType": "string",
          "name": "",
          "type": "string"
        }
      ],
      "stateMutability": "view",
      "type": "function"
    },
    {
      "inputs": [
        {
          "internalType": "address",
          "name": "from",
          "type": "address"
        },
        {
          "internalType": "address",
          "name": "to",
          "type": "address"
        },
        {
          "internalType": "uint256",
          "name": "tokenId",
          "type": "uint256"
        }
      ],
      "name": "transferFrom",
      "outputs": [],
      "stateMutability": "nonpayable",
      "type": "function"
    },
    {
      "inputs": [
        {
          "internalType": "address",
          "name": "newOwner",
          "type": "address"
        }
      ],
      "name": "transferOwnership",
      "outputs": [],
      "stateMutability": "nonpayable",
      "type": "function"
    },
    {
      "inputs": [],
      "name": "unpause",
      "outputs": [],
      "stateMutability": "nonpayable",
      "type": "function"
    }
  ],
  "bytecode": "0x60806040523480156200001157600080fd5b506040518060400160405280601381526020017f4c616e6420526567697374727920546f6b656e000000000000000000000000008152506040518060400160405280600381526020016213149560ea1b8152508160009081620000759190620001b1565b506001620000848282620001b1565b505050620000a16200009b620000b460201b60201c565b620000b8565b6007805460ff60a01b191690556200027d565b3390565b600780546001600160a01b038381166001600160a01b0319831681179093556040519116919082907f8be0079c531659141344cd1fd0a4f28419497f9722a3daafe3b4186f6b6457e090600090a35050565b634e487b7160e01b600052604160045260246000fd5b600181811c908216806200013557607f821691505b6020821081036200015657634e487b7160e01b600052602260045260246000fd5b50919050565b601f821115620001ac576000816000526020600020601f850160051c81016020861015620001875750805b601f850160051c820191505b81811015620001a85782815560010162000193565b5050505b505050565b81516001600160401b03811115620001cd57620001cd6200010a565b620001e581620001de845462000120565b846200015c565b602080601f8311600181146200021d5760008415620002045750858301515b600019600386901b1c1916600185901b178555620001a8565b600085815260208120601f198616915b828110156200024e578886015182559484019460019091019084016200022d565b50858210156200026d5787850151600019600388901b60f8161c191681555b5050505050600190811b01905550565b611b09806200028d6000396000f3fe608060405234801561001057600080fd5b50600436106101425760003560e01c80638456cb59116100b8578063c233557b1161007c578063c233557b14610287578063c4e41b221461029a578063c87b56dd146102a2578063da72c1e8146102b5578063e985e9c5146102c8578063f2fde38b1461030457600080fd5b80638456cb59146102405780638da5cb5b1461024857806395d89b4114610259578063a22cb46514610261578063b88d4fde1461027457600080fd5b80633f4ba83a1161010a5780633f4ba83a146101d757806342842e0e146101df5780635c975abb146101f25780636352211e1461020457806370a0823114610217578063715018a61461023857600080fd5b806301ffc9a71461014757806306fdde031461016f578063081812fc14610184578063095ea7b3146101af57806323b872dd146101c4575b600080fd5b61015a61015536600461150d565b610317565b60405190151581526020015b60405180910390f35b610177610342565b604051610166919061157a565b61019761019236600461158d565b6103d4565b6040516001600160a01b039091168152602001610166565b6101c26101bd3660046115c2565b6103fb565b005b6101c26101d23660046115ec565b610515565b6101c2610546565b6101c26101ed3660046115ec565b610558565b600754600160a01b900460ff1661015a565b61019761021236600461158d565b610573565b61022a610225366004611628565b6105d3565b604051908152602001610166565b6101c2610659565b6101c261066b565b6007546001600160a01b0316610197565b61017761067b565b6101c261026f366004611643565b61068a565b6101c261028236600461170b565b610699565b61022a610295366004611787565b6106d1565b61022a610753565b6101776102b036600461158d565b610763565b6101c26102c33660046115ec565b610873565b61015a6102d63660046117e9565b6001600160a01b03918216600090815260056020908152604080832093909416825291909152205460ff1690565b6101c2610312366004611628565b61093f565b60006001600160e01b03198216632483248360e11b148061033c575061033c826109b8565b92915050565b6060600080546103519061181c565b80601f016020809104026020016040519081016040528092919081815260200182805461037d9061181c565b80156103ca5780601f1061039f576101008083540402835291602001916103ca565b820191906000526020600020905b8154815290600101906020018083116103ad57829003601f168201915b5050505050905090565b60006103df82610a08565b506000908152600460205260409020546001600160a01b031690565b600061040682610573565b9050806001600160a01b0316836001600160a01b0316036104785760405162461bcd60e51b815260206004820152602160248201527f4552433732313a20617070726f76616c20746f2063757272656e74206f776e656044820152603960f91b60648201526084015b60405180910390fd5b336001600160a01b0382161480610494575061049481336102d6565b6105065760405162461bcd60e51b815260206004820152603d60248201527f4552433732313a20617070726f76652063616c6c6572206973206e6f7420746f60448201527f6b656e206f776e6572206f7220617070726f76656420666f7220616c6c000000606482015260840161046f565b6105108383610a67565b505050565b61051f3382610ad5565b61053b5760405162461bcd60e51b815260040161046f90611856565b610510838383610b53565b61054e610cc4565b610556610d1e565b565b61051083838360405180602001604052806000815250610699565b6000818152600260205260408120546001600160a01b03168061033c5760405162461bcd60e51b8152602060048201526018602482015277115490cdcc8c4e881a5b9d985b1a59081d1bdad95b88125160421b604482015260640161046f565b60006001600160a01b03821661063d5760405162461bcd60e51b815260206004820152602960248201527f4552433732313a2061646472657373207a65726f206973206e6f7420612076616044820152683634b21037bbb732b960b91b606482015260840161046f565b506001600160a01b031660009081526003602052604090205490565b610661610cc4565b6105566000610d73565b610673610cc4565b610556610dc5565b6060600180546103519061181c565b610695338383610e08565b5050565b6106a33383610ad5565b6106bf5760405162461bcd60e51b815260040161046f90611856565b6106cb84848484610ed6565b50505050565b60006106db610cc4565b6106e9600880546001019055565b60006106f460085490565b90506107008482610f09565b61070a81846110a2565b836001600160a01b0316817f4ad3aa0dd2b472e5877900dcfd0688f724898d486d41682e9c3f05f23d08a93485604051610744919061157a565b60405180910390a39392505050565b600061075e60085490565b905090565b606061076e82610a08565b600082815260066020526040812080546107879061181c565b80601f01602080910402602001604051908101604052809291908181526020018280546107b39061181c565b80156108005780601f106107d557610100808354040283529160200191610800565b820191906000526020600020905b8154815290600101906020018083116107e357829003601f168201915b50505050509050600061081e60408051602081019091526000815290565b90508051600003610830575092915050565b81511561086257808260405160200161084a9291906118a3565b60405160208183030381529060405292505050919050565b61086b8461116d565b949350505050565b61087b610cc4565b826001600160a01b031661088e82610573565b6001600160a01b0316146108f05760405162461bcd60e51b8152602060048201526024808201527f546f6b656e206e6f74206f776e656420627920737065636966696564206164646044820152637265737360e01b606482015260840161046f565b6001600160a01b03821661053b5760405162461bcd60e51b8152602060048201526016602482015275496e76616c696420746172676574206164647265737360501b604482015260640161046f565b610947610cc4565b6001600160a01b0381166109ac5760405162461bcd60e51b815260206004820152602660248201527f4f776e61626c653a206e6577206f776e657220697320746865207a65726f206160448201526564647265737360d01b606482015260840161046f565b6109b581610d73565b50565b60006001600160e01b031982166380ac58cd60e01b14806109e957506001600160e01b03198216635b5e139f60e01b145b8061033c57506301ffc9a760e01b6001600160e01b031983161461033c565b6000818152600260205260409020546001600160a01b03166109b55760405162461bcd60e51b8152602060048201526018602482015277115490cdcc8c4e881a5b9d985b1a59081d1bdad95b88125160421b604482015260640161046f565b600081815260046020526040902080546001600160a01b0319166001600160a01b0384169081179091558190610a9c82610573565b6001600160a01b03167f8c5be1e5ebec7d5bd14f71427d1e84f3dd0314c0f7b2291e5b200ac8c7c3b92560405160405180910390a45050565b600080610ae183610573565b9050806001600160a01b0316846001600160a01b03161480610b2857506001600160a01b0380821660009081526005602090815260408083209388168352929052205460ff165b8061086b5750836001600160a01b0316610b41846103d4565b6001600160a01b031614949350505050565b826001600160a01b0316610b6682610573565b6001600160a01b031614610b8c5760405162461bcd60e51b815260040161046f906118d2565b6001600160a01b038216610bee5760405162461bcd60e51b8152602060048201526024808201527f4552433732313a207472616e7366657220746f20746865207a65726f206164646044820152637265737360e01b606482015260840161046f565b610bfb83838360016111e1565b826001600160a01b0316610c0e82610573565b6001600160a01b031614610c345760405162461bcd60e51b815260040161046f906118d2565b600081815260046020908152604080832080546001600160a01b03199081169091556001600160a01b0387811680865260038552838620805460001901905590871680865283862080546001019055868652600290945282852080549092168417909155905184937fddf252ad1be2c89b69c2b068fc378daa952ba7f163c4a11628f55a4df523b3ef91a4505050565b6007546001600160a01b031633146105565760405162461bcd60e51b815260206004820181905260248201527f4f776e61626c653a2063616c6c6572206973206e6f7420746865206f776e6572604482015260640161046f565b610d266111ee565b6007805460ff60a01b191690557f5db9ee0a495bf2e6ff9c91a7834c1ba4fdd244a5e8aa4e537bd38aeae4b073aa335b6040516001600160a01b03909116815260200160405180910390a1565b600780546001600160a01b038381166001600160a01b0319831681179093556040519116919082907f8be0079c531659141344cd1fd0a4f28419497f9722a3daafe3b4186f6b6457e090600090a35050565b610dcd61123e565b6007805460ff60a01b1916600160a01b1790557f62e78cea01bee320cd4e420270b5ea74000d11b0c9f74754ebdbfc544b05a258610d563390565b816001600160a01b0316836001600160a01b031603610e695760405162461bcd60e51b815260206004820152601960248201527f4552433732313a20617070726f766520746f2063616c6c657200000000000000604482015260640161046f565b6001600160a01b03838116600081815260056020908152604080832094871680845294825291829020805460ff191686151590811790915591519182527f17307eab39ab6107e8899845ad3d59bd9653f200f220920489ca2b5937696c31910160405180910390a3505050565b610ee1848484610b53565b610eed8484848461128b565b6106cb5760405162461bcd60e51b815260040161046f90611917565b6001600160a01b038216610f5f5760405162461bcd60e51b815260206004820181905260248201527f4552433732313a206d696e7420746f20746865207a65726f2061646472657373604482015260640161046f565b6000818152600260205260409020546001600160a01b031615610fc45760405162461bcd60e51b815260206004820152601c60248201527f4552433732313a20746f6b656e20616c7265616479206d696e74656400000000604482015260640161046f565b610fd26000838360016111e1565b6000818152600260205260409020546001600160a01b0316156110375760405162461bcd60e51b815260206004820152601c60248201527f4552433732313a20746f6b656e20616c7265616479206d696e74656400000000604482015260640161046f565b6001600160a01b038216600081815260036020908152604080832080546001019055848352600290915280822080546001600160a01b0319168417905551839291907fddf252ad1be2c89b69c2b068fc378daa952ba7f163c4a11628f55a4df523b3ef908290a45050565b6000828152600260205260409020546001600160a01b031661111d5760405162461bcd60e51b815260206004820152602e60248201527f45524337323155524953746f726167653a2055524920736574206f66206e6f6e60448201526d32bc34b9ba32b73a103a37b5b2b760911b606482015260840161046f565b600082815260066020526040902061113582826119b9565b506040518281527ff8e1a15aba9398e019f0b49df1a4fde98ee17ae345cb5f6b5e2c27f5033e8ce79060200160405180910390a15050565b606061117882610a08565b600061118f60408051602081019091526000815290565b905060008151116111af57604051806020016040528060008152506111da565b806111b98461138c565b6040516020016111ca9291906118a3565b6040516020818303038152906040525b9392505050565b6111e961123e565b6106cb565b600754600160a01b900460ff166105565760405162461bcd60e51b815260206004820152601460248201527314185d5cd8589b194e881b9bdd081c185d5cd95960621b604482015260640161046f565b600754600160a01b900460ff16156105565760405162461bcd60e51b815260206004820152601060248201526f14185d5cd8589b194e881c185d5cd95960821b604482015260640161046f565b60006001600160a01b0384163b1561138157604051630a85bd0160e11b81526001600160a01b0385169063150b7a02906112cf903390899088908890600401611a79565b6020604051808303816000875af192505050801561130a575060408051601f3d908101601f1916820190925261130791810190611ab6565b60015b611367573d808015611338576040519150601f19603f3d011682016040523d82523d6000602084013e61133d565b606091505b50805160000361135f5760405162461bcd60e51b815260040161046f90611917565b805181602001fd5b6001600160e01b031916630a85bd0160e11b14905061086b565b506001949350505050565b606060006113998361141f565b600101905060008167ffffffffffffffff8111156113b9576113b961167f565b6040519080825280601f01601f1916602001820160405280156113e3576020820181803683370190505b5090508181016020015b600019016f181899199a1a9b1b9c1cb0b131b232b360811b600a86061a8153600a85049450846113ed57509392505050565b60008072184f03e93ff9f4daa797ed6e38ed64bf6a1f0160401b831061145e5772184f03e93ff9f4daa797ed6e38ed64bf6a1f0160401b830492506040015b6d04ee2d6d415b85acef8100000000831061148a576d04ee2d6d415b85acef8100000000830492506020015b662386f26fc1000083106114a857662386f26fc10000830492506010015b6305f5e10083106114c0576305f5e100830492506008015b61271083106114d457612710830492506004015b606483106114e6576064830492506002015b600a831061033c5760010192915050565b6001600160e01b0319811681146109b557600080fd5b60006020828403121561151f57600080fd5b81356111da816114f7565b60005b8381101561154557818101518382015260200161152d565b50506000910152565b6000815180845261156681602086016020860161152a565b601f01601f19169290920160200192915050565b6020815260006111da602083018461154e565b60006020828403121561159f57600080fd5b5035919050565b80356001600160a01b03811681146115bd57600080fd5b919050565b600080604083850312156115d557600080fd5b6115de836115a6565b946020939093013593505050565b60008060006060848603121561160157600080fd5b61160a846115a6565b9250611618602085016115a6565b9150604084013590509250925092565b60006020828403121561163a57600080fd5b6111da826115a6565b6000806040838503121561165657600080fd5b61165f836115a6565b91506020830135801515811461167457600080fd5b809150509250929050565b634e487b7160e01b600052604160045260246000fd5b600067ffffffffffffffff808411156116b0576116b061167f565b604051601f8501601f19908116603f011681019082821181831017156116d8576116d861167f565b816040528093508581528686860111156116f157600080fd5b858560208301376000602087830101525050509392505050565b6000806000806080858703121561172157600080fd5b61172a856115a6565b9350611738602086016115a6565b925060408501359150606085013567ffffffffffffffff81111561175b57600080fd5b8501601f8101871361176c57600080fd5b61177b87823560208401611695565b91505092959194509250565b6000806040838503121561179a57600080fd5b6117a3836115a6565b9150602083013567ffffffffffffffff8111156117bf57600080fd5b8301601f810185136117d057600080fd5b6117df85823560208401611695565b9150509250929050565b600080604083850312156117fc57600080fd5b611805836115a6565b9150611813602084016115a6565b90509250929050565b600181811c9082168061183057607f821691505b60208210810361185057634e487b7160e01b600052602260045260246000fd5b50919050565b6020808252602d908201527f4552433732313a2063616c6c6572206973206e6f7420746f6b656e206f776e6560408201526c1c881bdc88185c1c1c9bdd9959609a1b606082015260800190565b600083516118b581846020880161152a565b8351908301906118c981836020880161152a565b01949350505050565b60208082526025908201527f4552433732313a207472616e736665722066726f6d20696e636f72726563742060408201526437bbb732b960d91b606082015260800190565b60208082526032908201527f4552433732313a207472616e7366657220746f206e6f6e20455243373231526560408201527131b2b4bb32b91034b6b83632b6b2b73a32b960711b606082015260800190565b601f821115610510576000816000526020600020601f850160051c810160208610156119925750805b601f850160051c820191505b818110156119b15782815560010161199e565b505050505050565b815167ffffffffffffffff8111156119d3576119d361167f565b6119e7816119e1845461181c565b84611969565b602080601f831160018114611a1c5760008415611a045750858301515b600019600386901b1c1916600185901b1785556119b1565b600085815260208120601f198616915b82811015611a4b57888601518255948401946001909101908401611a2c565b5085821015611a695787850151600019600388901b60f8161c191681555b5050505050600190811b01905550565b6001600160a01b0385811682528416602082015260408101839052608060608201819052600090611aac9083018461154e565b9695505050505050565b600060208284031215611ac857600080fd5b81516111da816114f756fea2646970667358221220f0259a7c6220d90f6fb827907addc85391fd79060091e35f4f86d54cda8fd71a64736f6c63430008180033",
  "linkReferences": {},
  "deployedLinkReferences": {}
}