{
  "_format": "hh-sol-artifact-1",
  "contractName": "LandNFT",
  "sourceName": "contracts/LandNFT.sol",
  "abi": [
    {
      "inputs": [],
      "stateMutability": "nonpayable",
      "type": "constructor"
    },
    {
      "anonymous": false,
      "inputs": [
        {
          "indexed": true,
          "internalType": "address",
          "name": "owner",
          "type": "address"
        },
        {
          "indexed": true,
          "internalType": "address",
          "name": "approved",
          "type": "address"
        },
        {
          "indexed": true,
          "internalType": "uint256",
          "name": "tokenId",
          "type": "uint256"
        }
      ],
      "name": "Approval",
      "type": "event"
    },
    {
      "anonymous": false,
      "inputs": [
        {
          "indexed": true,
          "internalType": "address",
          "name": "owner",
          "type": "address"
        },
        {
          "indexed": true,
          "internalType": "address",
          "name": "operator",
          "type": "address"
        },
        {
          "indexed": false,
          "internalType": "bool",
          "name": "approved",
          "type": "bool"
        }
      ],
      "name": "ApprovalForAll",
      "type": "event"
    },
    {
      "anonymous": false,
      "inputs": [
        {
          "indexed": false,
          "internalType": "uint256",
          "name": "_fromTokenId",
          "type": "uint256"
        },
        {
          "indexed": false,
          "internalType": "uint256",
          "name": "_toTokenId",
          "type": "uint256"
        }
      ],
      "name": "BatchMetadataUpdate",
      "type": "event"
    },
    {
      "anonymous": false,
      "inputs": [
        {
          "indexed": true,
          "internalType": "uint256",
          "name": "tokenId",
          "type": "uint256"
        },
        {
          "indexed": true,
          "internalType": "address",
          "name": "to",
          "type": "address"
        },
        {
          "indexed": false,
          "internalType": "string",
          "name": "tokenURI",
          "type": "string"
        }
      ],
      "name": "LandNFTMinted",
      "type": "event"
    },
    {
      "anonymous": false,
      "inputs": [
        {
          "indexed": false,
          "internalType": "uint256",
          "name": "_tokenId",
          "type": "uint256"
        }
      ],
      "name": "MetadataUpdate",
      "type": "event"
    },
    {
      "anonymous": false,
      "inputs": [
        {
          "indexed": true,
          "internalType": "address",
          "name": "previousOwner",
          "type": "address"
        },
        {
          "indexed": true,
          "internalType": "address",
          "name": "newOwner",
          "type": "address"
        }
      ],
      "name": "OwnershipTransferred",
      "type": "event"
    },
    {
      "anonymous": false,
      "inputs": [
        {
          "indexed": true,
          "internalType": "address",
          "name": "from",
          "type": "address"
        },
        {
          "indexed": true,
          "internalType": "address",
          "name": "to",
          "type": "address"
        },
        {
          "indexed": true,
          "internalType": "uint256",
          "name": "tokenId",
          "type": "uint256"
        }
      ],
      "name": "Transfer",
      "type": "event"
    },
    {
      "inputs": [
        {
          "internalType": "address",
          "name": "from",
          "type": "address"
        },
        {
          "internalType": "address",
          "name": "to",
          "type": "address"
        },
        {
          "internalType": "uint256",
          "name": "tokenId",
          "type": "uint256"
        }
      ],
      "name": "adminTransfer",
      "outputs": [],
      "stateMutability": "nonpayable",
      "type": "function"
    },
    {
      "inputs": [
        {
          "internalType": "address",
          "name": "to",
          "type": "address"
        },
        {
          "internalType": "uint256",
          "name": "tokenId",
          "type": "uint256"
        }
      ],
      "name": "approve",
      "outputs": [],
      "stateMutability": "nonpayable",
      "type": "function"
    },
    {
      "inputs": [
        {
          "internalType": "address",
          "name": "owner",
          "type": "address"
        }
      ],
      "name": "balanceOf",
      "outputs": [
        {
          "internalType": "uint256",
          "name": "",
          "type": "uint256"
        }
      ],
      "stateMutability": "view",
      "type": "function"
    },
    {
      "inputs": [
        {
          "internalType": "uint256",
          "name": "tokenId",
          "type": "uint256"
        }
      ],
      "name": "getApproved",
      "outputs": [
        {
          "internalType": "address",
          "name": "",
          "type": "address"
        }
      ],
      "stateMutability": "view",
      "type": "function"
    },
    {
      "inputs": [],
      "name": "getTotalSupply",
      "outputs": [
        {
          "internalType": "uint256",
          "name": "",
          "type": "uint256"
        }
      ],
      "stateMutability": "view",
      "type": "function"
    },
    {
      "inputs": [
        {
          "internalType": "address",
          "name": "owner",
          "type": "address"
        },
        {
          "internalType": "address",
          "name": "operator",
          "type": "address"
        }
      ],
      "name": "isApprovedForAll",
      "outputs": [
        {
          "internalType": "bool",
          "name": "",
          "type": "bool"
        }
      ],
      "stateMutability": "view",
      "type": "function"
    },
    {
      "inputs": [
        {
          "internalType": "address",
          "name": "to",
          "type": "address"
        },
        {
          "internalType": "string",
          "name": "uri",
          "type": "string"
        }
      ],
      "name": "mintLandNFT",
      "outputs": [
        {
          "internalType": "uint256",
          "name": "",
          "type": "uint256"
        }
      ],
      "stateMutability": "nonpayable",
      "type": "function"
    },
    {
      "inputs": [],
      "name": "name",
      "outputs": [
        {
          "internalType": "string",
          "name": "",
          "type": "string"
        }
      ],
      "stateMutability": "view",
      "type": "function"
    },
    {
      "inputs": [],
      "name": "owner",
      "outputs": [
        {
          "internalType": "address",
          "name": "",
          "type": "address"
        }
      ],
      "stateMutability": "view",
      "type": "function"
    },
    {
      "inputs": [
        {
          "internalType": "uint256",
          "name": "tokenId",
          "type": "uint256"
        }
      ],
      "name": "ownerOf",
      "outputs": [
        {
          "internalType": "address",
          "name": "",
          "type": "address"
        }
      ],
      "stateMutability": "view",
      "type": "function"
    },
    {
      "inputs": [],
      "name": "renounceOwnership",
      "outputs": [],
      "stateMutability": "nonpayable",
      "type": "function"
    },
    {
      "inputs": [
        {
          "internalType": "address",
          "name": "from",
          "type": "address"
        },
        {
          "internalType": "address",
          "name": "to",
          "type": "address"
        },
        {
          "internalType": "uint256",
          "name": "tokenId",
          "type": "uint256"
        }
      ],
      "name": "safeTransferFrom",
      "outputs": [],
      "stateMutability": "nonpayable",
      "type": "function"
    },
    {
      "inputs": [
        {
          "internalType": "address",
          "name": "from",
          "type": "address"
        },
        {
          "internalType": "address",
          "name": "to",
          "type": "address"
        },
        {
          "internalType": "uint256",
          "name": "tokenId",
          "type": "uint256"
        },
        {
          "internalType": "bytes",
          "name": "data",
          "type": "bytes"
        }
      ],
      "name": "safeTransferFrom",
      "outputs": [],
      "stateMutability": "nonpayable",
      "type": "function"
    },
    {
      "inputs": [
        {
          "internalType": "address",
          "name": "operator",
          "type": "address"
        },
        {
          "internalType": "bool",
          "name": "approved",
          "type": "bool"
        }
      ],
      "name": "setApprovalForAll",
      "outputs": [],
      "stateMutability": "nonpayable",
      "type": "function"
    },
    {
      "inputs": [
        {
          "internalType": "bytes4",
          "name": "interfaceId",
          "type": "bytes4"
        }
      ],
      "name": "supportsInterface",
      "outputs": [
        {
          "internalType": "bool",
          "name": "",
          "type": "bool"
        }
      ],
      "stateMutability": "view",
      "type": "function"
    },
    {
      "inputs": [],
      "name": "symbol",
      "outputs": [
        {
          "internalType": "string",
          "name": "",
          "type": "string"
        }
      ],
      "stateMutability": "view",
      "type": "function"
    },
    {
      "inputs": [
        {
          "internalType": "uint256",
          "name": "tokenId",
          "type": "uint256"
        }
      ],
      "name": "tokenURI",
      "outputs": [
        {
          "internalType": "string",
          "name": "",
          "type": "string"
        }
      ],
      "stateMutability": "view",
      "type": "function"
    },
    {
      "inputs": [
        {
          "internalType": "address",
          "name": "from",
          "type": "address"
        },
        {
          "internalType": "address",
          "name": "to",
          "type": "address"
        },
        {
          "internalType": "uint256",
          "name": "tokenId",
          "type": "uint256"
        }
      ],
      "name": "transferFrom",
      "outputs": [],
      "stateMutability": "nonpayable",
      "type": "function"
    },
    {
      "inputs": [
        {
          "internalType": "address",
          "name": "newOwner",
          "type": "address"
        }
      ],
      "name": "transferOwnership",
      "outputs": [],
      "stateMutability": "nonpayable",
      "type": "function"
    }
  ],
  "bytecode": "0x60806040523480156200001157600080fd5b506040518060400160405280601381526020017f4c616e6420526567697374727920546f6b656e000000000000000000000000008152506040518060400160405280600381526020016213149560ea1b8152508160009081620000759190620001a4565b506001620000848282620001a4565b505050620000a16200009b620000a760201b60201c565b620000ab565b62000270565b3390565b600780546001600160a01b038381166001600160a01b0319831681179093556040519116919082907f8be0079c531659141344cd1fd0a4f28419497f9722a3daafe3b4186f6b6457e090600090a35050565b634e487b7160e01b600052604160045260246000fd5b600181811c908216806200012857607f821691505b6020821081036200014957634e487b7160e01b600052602260045260246000fd5b50919050565b601f8211156200019f576000816000526020600020601f850160051c810160208610156200017a5750805b601f850160051c820191505b818110156200019b5782815560010162000186565b5050505b505050565b81516001600160401b03811115620001c057620001c0620000fd565b620001d881620001d1845462000113565b846200014f565b602080601f831160018114620002105760008415620001f75750858301515b600019600386901b1c1916600185901b1785556200019b565b600085815260208120601f198616915b82811015620002415788860151825594840194600190910190840162000220565b5085821015620002605787850151600019600388901b60f8161c191681555b5050505050600190811b01905550565b61194980620002806000396000f3fe608060405234801561001057600080fd5b50600436106101215760003560e01c80638da5cb5b116100ad578063c4e41b2211610071578063c4e41b2214610257578063c87b56dd1461025f578063da72c1e814610272578063e985e9c514610285578063f2fde38b146102c157600080fd5b80638da5cb5b1461020557806395d89b4114610216578063a22cb4651461021e578063b88d4fde14610231578063c233557b1461024457600080fd5b806323b872dd116100f457806323b872dd146101a357806342842e0e146101b65780636352211e146101c957806370a08231146101dc578063715018a6146101fd57600080fd5b806301ffc9a71461012657806306fdde031461014e578063081812fc14610163578063095ea7b31461018e575b600080fd5b61013961013436600461134d565b6102d4565b60405190151581526020015b60405180910390f35b6101566102ff565b60405161014591906113ba565b6101766101713660046113cd565b610391565b6040516001600160a01b039091168152602001610145565b6101a161019c366004611402565b6103b8565b005b6101a16101b136600461142c565b6104d2565b6101a16101c436600461142c565b610503565b6101766101d73660046113cd565b61051e565b6101ef6101ea366004611468565b61057e565b604051908152602001610145565b6101a1610604565b6007546001600160a01b0316610176565b610156610618565b6101a161022c366004611483565b610627565b6101a161023f36600461154b565b610636565b6101ef6102523660046115c7565b61066e565b6101ef6106f0565b61015661026d3660046113cd565b610700565b6101a161028036600461142c565b610810565b610139610293366004611629565b6001600160a01b03918216600090815260056020908152604080832093909416825291909152205460ff1690565b6101a16102cf366004611468565b6108dc565b60006001600160e01b03198216632483248360e11b14806102f957506102f982610955565b92915050565b60606000805461030e9061165c565b80601f016020809104026020016040519081016040528092919081815260200182805461033a9061165c565b80156103875780601f1061035c57610100808354040283529160200191610387565b820191906000526020600020905b81548152906001019060200180831161036a57829003601f168201915b5050505050905090565b600061039c826109a5565b506000908152600460205260409020546001600160a01b031690565b60006103c38261051e565b9050806001600160a01b0316836001600160a01b0316036104355760405162461bcd60e51b815260206004820152602160248201527f4552433732313a20617070726f76616c20746f2063757272656e74206f776e656044820152603960f91b60648201526084015b60405180910390fd5b336001600160a01b038216148061045157506104518133610293565b6104c35760405162461bcd60e51b815260206004820152603d60248201527f4552433732313a20617070726f76652063616c6c6572206973206e6f7420746f60448201527f6b656e206f776e6572206f7220617070726f76656420666f7220616c6c000000606482015260840161042c565b6104cd8383610a04565b505050565b6104dc3382610a72565b6104f85760405162461bcd60e51b815260040161042c90611696565b6104cd838383610af0565b6104cd83838360405180602001604052806000815250610636565b6000818152600260205260408120546001600160a01b0316806102f95760405162461bcd60e51b8152602060048201526018602482015277115490cdcc8c4e881a5b9d985b1a59081d1bdad95b88125160421b604482015260640161042c565b60006001600160a01b0382166105e85760405162461bcd60e51b815260206004820152602960248201527f4552433732313a2061646472657373207a65726f206973206e6f7420612076616044820152683634b21037bbb732b960b91b606482015260840161042c565b506001600160a01b031660009081526003602052604090205490565b61060c610c54565b6106166000610cae565b565b60606001805461030e9061165c565b610632338383610d00565b5050565b6106403383610a72565b61065c5760405162461bcd60e51b815260040161042c90611696565b61066884848484610dce565b50505050565b6000610678610c54565b610686600880546001019055565b600061069160085490565b905061069d8482610e01565b6106a78184610f8c565b836001600160a01b0316817f4ad3aa0dd2b472e5877900dcfd0688f724898d486d41682e9c3f05f23d08a934856040516106e191906113ba565b60405180910390a39392505050565b60006106fb60085490565b905090565b606061070b826109a5565b600082815260066020526040812080546107249061165c565b80601f01602080910402602001604051908101604052809291908181526020018280546107509061165c565b801561079d5780601f106107725761010080835404028352916020019161079d565b820191906000526020600020905b81548152906001019060200180831161078057829003601f168201915b5050505050905060006107bb60408051602081019091526000815290565b905080516000036107cd575092915050565b8151156107ff5780826040516020016107e79291906116e3565b60405160208183030381529060405292505050919050565b61080884611057565b949350505050565b610818610c54565b826001600160a01b031661082b8261051e565b6001600160a01b03161461088d5760405162461bcd60e51b8152602060048201526024808201527f546f6b656e206e6f74206f776e656420627920737065636966696564206164646044820152637265737360e01b606482015260840161042c565b6001600160a01b0382166104f85760405162461bcd60e51b8152602060048201526016602482015275496e76616c696420746172676574206164647265737360501b604482015260640161042c565b6108e4610c54565b6001600160a01b0381166109495760405162461bcd60e51b815260206004820152602660248201527f4f776e61626c653a206e6577206f776e657220697320746865207a65726f206160448201526564647265737360d01b606482015260840161042c565b61095281610cae565b50565b60006001600160e01b031982166380ac58cd60e01b148061098657506001600160e01b03198216635b5e139f60e01b145b806102f957506301ffc9a760e01b6001600160e01b03198316146102f9565b6000818152600260205260409020546001600160a01b03166109525760405162461bcd60e51b8152602060048201526018602482015277115490cdcc8c4e881a5b9d985b1a59081d1bdad95b88125160421b604482015260640161042c565b600081815260046020526040902080546001600160a01b0319166001600160a01b0384169081179091558190610a398261051e565b6001600160a01b03167f8c5be1e5ebec7d5bd14f71427d1e84f3dd0314c0f7b2291e5b200ac8c7c3b92560405160405180910390a45050565b600080610a7e8361051e565b9050806001600160a01b0316846001600160a01b03161480610ac557506001600160a01b0380821660009081526005602090815260408083209388168352929052205460ff165b806108085750836001600160a01b0316610ade84610391565b6001600160a01b031614949350505050565b826001600160a01b0316610b038261051e565b6001600160a01b031614610b295760405162461bcd60e51b815260040161042c90611712565b6001600160a01b038216610b8b5760405162461bcd60e51b8152602060048201526024808201527f4552433732313a207472616e7366657220746f20746865207a65726f206164646044820152637265737360e01b606482015260840161042c565b826001600160a01b0316610b9e8261051e565b6001600160a01b031614610bc45760405162461bcd60e51b815260040161042c90611712565b600081815260046020908152604080832080546001600160a01b03199081169091556001600160a01b0387811680865260038552838620805460001901905590871680865283862080546001019055868652600290945282852080549092168417909155905184937fddf252ad1be2c89b69c2b068fc378daa952ba7f163c4a11628f55a4df523b3ef91a4505050565b6007546001600160a01b031633146106165760405162461bcd60e51b815260206004820181905260248201527f4f776e61626c653a2063616c6c6572206973206e6f7420746865206f776e6572604482015260640161042c565b600780546001600160a01b038381166001600160a01b0319831681179093556040519116919082907f8be0079c531659141344cd1fd0a4f28419497f9722a3daafe3b4186f6b6457e090600090a35050565b816001600160a01b0316836001600160a01b031603610d615760405162461bcd60e51b815260206004820152601960248201527f4552433732313a20617070726f766520746f2063616c6c657200000000000000604482015260640161042c565b6001600160a01b03838116600081815260056020908152604080832094871680845294825291829020805460ff191686151590811790915591519182527f17307eab39ab6107e8899845ad3d59bd9653f200f220920489ca2b5937696c31910160405180910390a3505050565b610dd9848484610af0565b610de5848484846110cb565b6106685760405162461bcd60e51b815260040161042c90611757565b6001600160a01b038216610e575760405162461bcd60e51b815260206004820181905260248201527f4552433732313a206d696e7420746f20746865207a65726f2061646472657373604482015260640161042c565b6000818152600260205260409020546001600160a01b031615610ebc5760405162461bcd60e51b815260206004820152601c60248201527f4552433732313a20746f6b656e20616c7265616479206d696e74656400000000604482015260640161042c565b6000818152600260205260409020546001600160a01b031615610f215760405162461bcd60e51b815260206004820152601c60248201527f4552433732313a20746f6b656e20616c7265616479206d696e74656400000000604482015260640161042c565b6001600160a01b038216600081815260036020908152604080832080546001019055848352600290915280822080546001600160a01b0319168417905551839291907fddf252ad1be2c89b69c2b068fc378daa952ba7f163c4a11628f55a4df523b3ef908290a45050565b6000828152600260205260409020546001600160a01b03166110075760405162461bcd60e51b815260206004820152602e60248201527f45524337323155524953746f726167653a2055524920736574206f66206e6f6e60448201526d32bc34b9ba32b73a103a37b5b2b760911b606482015260840161042c565b600082815260066020526040902061101f82826117f9565b506040518281527ff8e1a15aba9398e019f0b49df1a4fde98ee17ae345cb5f6b5e2c27f5033e8ce79060200160405180910390a15050565b6060611062826109a5565b600061107960408051602081019091526000815290565b9050600081511161109957604051806020016040528060008152506110c4565b806110a3846111cc565b6040516020016110b49291906116e3565b6040516020818303038152906040525b9392505050565b60006001600160a01b0384163b156111c157604051630a85bd0160e11b81526001600160a01b0385169063150b7a029061110f9033908990889088906004016118b9565b6020604051808303816000875af192505050801561114a575060408051601f3d908101601f19168201909252611147918101906118f6565b60015b6111a7573d808015611178576040519150601f19603f3d011682016040523d82523d6000602084013e61117d565b606091505b50805160000361119f5760405162461bcd60e51b815260040161042c90611757565b805181602001fd5b6001600160e01b031916630a85bd0160e11b149050610808565b506001949350505050565b606060006111d98361125f565b600101905060008167ffffffffffffffff8111156111f9576111f96114bf565b6040519080825280601f01601f191660200182016040528015611223576020820181803683370190505b5090508181016020015b600019016f181899199a1a9b1b9c1cb0b131b232b360811b600a86061a8153600a850494508461122d57509392505050565b60008072184f03e93ff9f4daa797ed6e38ed64bf6a1f0160401b831061129e5772184f03e93ff9f4daa797ed6e38ed64bf6a1f0160401b830492506040015b6d04ee2d6d415b85acef810000000083106112ca576d04ee2d6d415b85acef8100000000830492506020015b662386f26fc1000083106112e857662386f26fc10000830492506010015b6305f5e1008310611300576305f5e100830492506008015b612710831061131457612710830492506004015b60648310611326576064830492506002015b600a83106102f95760010192915050565b6001600160e01b03198116811461095257600080fd5b60006020828403121561135f57600080fd5b81356110c481611337565b60005b8381101561138557818101518382015260200161136d565b50506000910152565b600081518084526113a681602086016020860161136a565b601f01601f19169290920160200192915050565b6020815260006110c4602083018461138e565b6000602082840312156113df57600080fd5b5035919050565b80356001600160a01b03811681146113fd57600080fd5b919050565b6000806040838503121561141557600080fd5b61141e836113e6565b946020939093013593505050565b60008060006060848603121561144157600080fd5b61144a846113e6565b9250611458602085016113e6565b9150604084013590509250925092565b60006020828403121561147a57600080fd5b6110c4826113e6565b6000806040838503121561149657600080fd5b61149f836113e6565b9150602083013580151581146114b457600080fd5b809150509250929050565b634e487b7160e01b600052604160045260246000fd5b600067ffffffffffffffff808411156114f0576114f06114bf565b604051601f8501601f19908116603f01168101908282118183101715611518576115186114bf565b8160405280935085815286868601111561153157600080fd5b858560208301376000602087830101525050509392505050565b6000806000806080858703121561156157600080fd5b61156a856113e6565b9350611578602086016113e6565b925060408501359150606085013567ffffffffffffffff81111561159b57600080fd5b8501601f810187136115ac57600080fd5b6115bb878235602084016114d5565b91505092959194509250565b600080604083850312156115da57600080fd5b6115e3836113e6565b9150602083013567ffffffffffffffff8111156115ff57600080fd5b8301601f8101851361161057600080fd5b61161f858235602084016114d5565b9150509250929050565b6000806040838503121561163c57600080fd5b611645836113e6565b9150611653602084016113e6565b90509250929050565b600181811c9082168061167057607f821691505b60208210810361169057634e487b7160e01b600052602260045260246000fd5b50919050565b6020808252602d908201527f4552433732313a2063616c6c6572206973206e6f7420746f6b656e206f776e6560408201526c1c881bdc88185c1c1c9bdd9959609a1b606082015260800190565b600083516116f581846020880161136a565b83519083019061170981836020880161136a565b01949350505050565b60208082526025908201527f4552433732313a207472616e736665722066726f6d20696e636f72726563742060408201526437bbb732b960d91b606082015260800190565b60208082526032908201527f4552433732313a207472616e7366657220746f206e6f6e20455243373231526560408201527131b2b4bb32b91034b6b83632b6b2b73a32b960711b606082015260800190565b601f8211156104cd576000816000526020600020601f850160051c810160208610156117d25750805b601f850160051c820191505b818110156117f1578281556001016117de565b505050505050565b815167ffffffffffffffff811115611813576118136114bf565b61182781611821845461165c565b846117a9565b602080601f83116001811461185c57600084156118445750858301515b600019600386901b1c1916600185901b1785556117f1565b600085815260208120601f198616915b8281101561188b5788860151825594840194600190910190840161186c565b50858210156118a95787850151600019600388901b60f8161c191681555b5050505050600190811b01905550565b6001600160a01b03858116825284166020820152604081018390526080606082018190526000906118ec9083018461138e565b9695505050505050565b60006020828403121561190857600080fd5b81516110c48161133756fea2646970667358221220ae2a9f8885a412daeb6b96f871f40873ac0a8786dd97553c696e7fe30ef8034564736f6c63430008180033",
  "linkReferences": {},
  "deployedLinkReferences": {}
}