{
  "_format": "hh-sol-artifact-1",
  "contractName": "LandNFT",
  "sourceName": "contracts/LandNFT.sol",
  "abi": [
    {
      "anonymous": false,
      "inputs": [
        {
          "indexed": true,
          "internalType": "uint256",
          "name": "tokenId",
          "type": "uint256"
        },
        {
          "indexed": true,
          "internalType": "address",
          "name": "to",
          "type": "address"
        }
      ],
      "name": "NFTMinted",
      "type": "event"
    },
    {
      "inputs": [
        {
          "internalType": "address",
          "name": "to",
          "type": "address"
        }
      ],
      "name": "mint",
      "outputs": [],
      "stateMutability": "nonpayable",
      "type": "function"
    },
    {
      "inputs": [],
      "name": "totalSupply",
      "outputs": [
        {
          "internalType": "uint256",
          "name": "",
          "type": "uint256"
        }
      ],
      "stateMutability": "view",
      "type": "function"
    }
  ],
  "bytecode": "0x608060405234801561001057600080fd5b50610144806100206000396000f3fe608060405234801561001057600080fd5b50600436106100365760003560e01c806318160ddd1461003b5780636a62784214610056575b600080fd5b61004460005481565b60405190815260200160405180910390f35b6100696100643660046100b7565b61006b565b005b60008054908061007a836100e7565b9091555050600080546040516001600160a01b038416927f0176f203df400d7bd5f1b1c9ef36c16709bf3b5d9fd35f000a6bae32393f66c391a350565b6000602082840312156100c957600080fd5b81356001600160a01b03811681146100e057600080fd5b9392505050565b60006001820161010757634e487b7160e01b600052601160045260246000fd5b506001019056fea2646970667358221220897ec9cea623e0d2ee00d266b60f66d08714cf43687a67c06f08e2cc241070d364736f6c63430008180033",
  "linkReferences": {},
  "deployedLinkReferences": {}
}