{
  "_format": "hh-sol-artifact-1",
  "contractName": "LandNFT",
  "sourceName": "contracts/LandNFT.sol",
  "abi": [
    {
      "inputs": [],
      "stateMutability": "nonpayable",
      "type": "constructor"
    },
    {
      "anonymous": false,
      "inputs": [
        {
          "indexed": true,
          "internalType": "address",
          "name": "owner",
          "type": "address"
        },
        {
          "indexed": true,
          "internalType": "address",
          "name": "approved",
          "type": "address"
        },
        {
          "indexed": true,
          "internalType": "uint256",
          "name": "tokenId",
          "type": "uint256"
        }
      ],
      "name": "Approval",
      "type": "event"
    },
    {
      "anonymous": false,
      "inputs": [
        {
          "indexed": true,
          "internalType": "address",
          "name": "owner",
          "type": "address"
        },
        {
          "indexed": true,
          "internalType": "address",
          "name": "operator",
          "type": "address"
        },
        {
          "indexed": false,
          "internalType": "bool",
          "name": "approved",
          "type": "bool"
        }
      ],
      "name": "ApprovalForAll",
      "type": "event"
    },
    {
      "anonymous": false,
      "inputs": [
        {
          "indexed": false,
          "internalType": "uint256",
          "name": "_fromTokenId",
          "type": "uint256"
        },
        {
          "indexed": false,
          "internalType": "uint256",
          "name": "_toTokenId",
          "type": "uint256"
        }
      ],
      "name": "BatchMetadataUpdate",
      "type": "event"
    },
    {
      "anonymous": false,
      "inputs": [
        {
          "indexed": true,
          "internalType": "uint256",
          "name": "tokenId",
          "type": "uint256"
        },
        {
          "indexed": true,
          "internalType": "address",
          "name": "to",
          "type": "address"
        },
        {
          "indexed": false,
          "internalType": "string",
          "name": "tokenURI",
          "type": "string"
        }
      ],
      "name": "LandNFTMinted",
      "type": "event"
    },
    {
      "anonymous": false,
      "inputs": [
        {
          "indexed": false,
          "internalType": "uint256",
          "name": "_tokenId",
          "type": "uint256"
        }
      ],
      "name": "MetadataUpdate",
      "type": "event"
    },
    {
      "anonymous": false,
      "inputs": [
        {
          "indexed": true,
          "internalType": "address",
          "name": "previousOwner",
          "type": "address"
        },
        {
          "indexed": true,
          "internalType": "address",
          "name": "newOwner",
          "type": "address"
        }
      ],
      "name": "OwnershipTransferred",
      "type": "event"
    },
    {
      "anonymous": false,
      "inputs": [
        {
          "indexed": true,
          "internalType": "address",
          "name": "from",
          "type": "address"
        },
        {
          "indexed": true,
          "internalType": "address",
          "name": "to",
          "type": "address"
        },
        {
          "indexed": true,
          "internalType": "uint256",
          "name": "tokenId",
          "type": "uint256"
        }
      ],
      "name": "Transfer",
      "type": "event"
    },
    {
      "inputs": [
        {
          "internalType": "address",
          "name": "to",
          "type": "address"
        },
        {
          "internalType": "uint256",
          "name": "tokenId",
          "type": "uint256"
        }
      ],
      "name": "approve",
      "outputs": [],
      "stateMutability": "nonpayable",
      "type": "function"
    },
    {
      "inputs": [
        {
          "internalType": "address",
          "name": "owner",
          "type": "address"
        }
      ],
      "name": "balanceOf",
      "outputs": [
        {
          "internalType": "uint256",
          "name": "",
          "type": "uint256"
        }
      ],
      "stateMutability": "view",
      "type": "function"
    },
    {
      "inputs": [
        {
          "internalType": "uint256",
          "name": "tokenId",
          "type": "uint256"
        }
      ],
      "name": "getApproved",
      "outputs": [
        {
          "internalType": "address",
          "name": "",
          "type": "address"
        }
      ],
      "stateMutability": "view",
      "type": "function"
    },
    {
      "inputs": [],
      "name": "getTotalSupply",
      "outputs": [
        {
          "internalType": "uint256",
          "name": "",
          "type": "uint256"
        }
      ],
      "stateMutability": "view",
      "type": "function"
    },
    {
      "inputs": [
        {
          "internalType": "address",
          "name": "owner",
          "type": "address"
        },
        {
          "internalType": "address",
          "name": "operator",
          "type": "address"
        }
      ],
      "name": "isApprovedForAll",
      "outputs": [
        {
          "internalType": "bool",
          "name": "",
          "type": "bool"
        }
      ],
      "stateMutability": "view",
      "type": "function"
    },
    {
      "inputs": [
        {
          "internalType": "address",
          "name": "to",
          "type": "address"
        },
        {
          "internalType": "string",
          "name": "uri",
          "type": "string"
        }
      ],
      "name": "mintLandNFT",
      "outputs": [
        {
          "internalType": "uint256",
          "name": "",
          "type": "uint256"
        }
      ],
      "stateMutability": "nonpayable",
      "type": "function"
    },
    {
      "inputs": [],
      "name": "name",
      "outputs": [
        {
          "internalType": "string",
          "name": "",
          "type": "string"
        }
      ],
      "stateMutability": "view",
      "type": "function"
    },
    {
      "inputs": [],
      "name": "owner",
      "outputs": [
        {
          "internalType": "address",
          "name": "",
          "type": "address"
        }
      ],
      "stateMutability": "view",
      "type": "function"
    },
    {
      "inputs": [
        {
          "internalType": "uint256",
          "name": "tokenId",
          "type": "uint256"
        }
      ],
      "name": "ownerOf",
      "outputs": [
        {
          "internalType": "address",
          "name": "",
          "type": "address"
        }
      ],
      "stateMutability": "view",
      "type": "function"
    },
    {
      "inputs": [],
      "name": "renounceOwnership",
      "outputs": [],
      "stateMutability": "nonpayable",
      "type": "function"
    },
    {
      "inputs": [
        {
          "internalType": "address",
          "name": "from",
          "type": "address"
        },
        {
          "internalType": "address",
          "name": "to",
          "type": "address"
        },
        {
          "internalType": "uint256",
          "name": "tokenId",
          "type": "uint256"
        }
      ],
      "name": "safeTransferFrom",
      "outputs": [],
      "stateMutability": "nonpayable",
      "type": "function"
    },
    {
      "inputs": [
        {
          "internalType": "address",
          "name": "from",
          "type": "address"
        },
        {
          "internalType": "address",
          "name": "to",
          "type": "address"
        },
        {
          "internalType": "uint256",
          "name": "tokenId",
          "type": "uint256"
        },
        {
          "internalType": "bytes",
          "name": "data",
          "type": "bytes"
        }
      ],
      "name": "safeTransferFrom",
      "outputs": [],
      "stateMutability": "nonpayable",
      "type": "function"
    },
    {
      "inputs": [
        {
          "internalType": "address",
          "name": "operator",
          "type": "address"
        },
        {
          "internalType": "bool",
          "name": "approved",
          "type": "bool"
        }
      ],
      "name": "setApprovalForAll",
      "outputs": [],
      "stateMutability": "nonpayable",
      "type": "function"
    },
    {
      "inputs": [
        {
          "internalType": "bytes4",
          "name": "interfaceId",
          "type": "bytes4"
        }
      ],
      "name": "supportsInterface",
      "outputs": [
        {
          "internalType": "bool",
          "name": "",
          "type": "bool"
        }
      ],
      "stateMutability": "view",
      "type": "function"
    },
    {
      "inputs": [],
      "name": "symbol",
      "outputs": [
        {
          "internalType": "string",
          "name": "",
          "type": "string"
        }
      ],
      "stateMutability": "view",
      "type": "function"
    },
    {
      "inputs": [
        {
          "internalType": "uint256",
          "name": "tokenId",
          "type": "uint256"
        }
      ],
      "name": "tokenURI",
      "outputs": [
        {
          "internalType": "string",
          "name": "",
          "type": "string"
        }
      ],
      "stateMutability": "view",
      "type": "function"
    },
    {
      "inputs": [
        {
          "internalType": "address",
          "name": "from",
          "type": "address"
        },
        {
          "internalType": "address",
          "name": "to",
          "type": "address"
        },
        {
          "internalType": "uint256",
          "name": "tokenId",
          "type": "uint256"
        }
      ],
      "name": "transferFrom",
      "outputs": [],
      "stateMutability": "nonpayable",
      "type": "function"
    },
    {
      "inputs": [
        {
          "internalType": "address",
          "name": "newOwner",
          "type": "address"
        }
      ],
      "name": "transferOwnership",
      "outputs": [],
      "stateMutability": "nonpayable",
      "type": "function"
    }
  ],
  "bytecode": "0x60806040523480156200001157600080fd5b506040518060400160405280601381526020017f4c616e6420526567697374727920546f6b656e000000000000000000000000008152506040518060400160405280600381526020016213149560ea1b8152508160009081620000759190620001a4565b506001620000848282620001a4565b505050620000a16200009b620000a760201b60201c565b620000ab565b62000270565b3390565b600780546001600160a01b038381166001600160a01b0319831681179093556040519116919082907f8be0079c531659141344cd1fd0a4f28419497f9722a3daafe3b4186f6b6457e090600090a35050565b634e487b7160e01b600052604160045260246000fd5b600181811c908216806200012857607f821691505b6020821081036200014957634e487b7160e01b600052602260045260246000fd5b50919050565b601f8211156200019f576000816000526020600020601f850160051c810160208610156200017a5750805b601f850160051c820191505b818110156200019b5782815560010162000186565b5050505b505050565b81516001600160401b03811115620001c057620001c0620000fd565b620001d881620001d1845462000113565b846200014f565b602080601f831160018114620002105760008415620001f75750858301515b600019600386901b1c1916600185901b1785556200019b565b600085815260208120601f198616915b82811015620002415788860151825594840194600190910190840162000220565b5085821015620002605787850151600019600388901b60f8161c191681555b5050505050600190811b01905550565b61185f80620002806000396000f3fe608060405234801561001057600080fd5b50600436106101165760003560e01c80638da5cb5b116100a2578063c233557b11610071578063c233557b14610239578063c4e41b221461024c578063c87b56dd14610254578063e985e9c514610267578063f2fde38b146102a357600080fd5b80638da5cb5b146101fa57806395d89b411461020b578063a22cb46514610213578063b88d4fde1461022657600080fd5b806323b872dd116100e957806323b872dd1461019857806342842e0e146101ab5780636352211e146101be57806370a08231146101d1578063715018a6146101f257600080fd5b806301ffc9a71461011b57806306fdde0314610143578063081812fc14610158578063095ea7b314610183575b600080fd5b61012e610129366004611263565b6102b6565b60405190151581526020015b60405180910390f35b61014b6102e1565b60405161013a91906112d0565b61016b6101663660046112e3565b610373565b6040516001600160a01b03909116815260200161013a565b610196610191366004611318565b61039a565b005b6101966101a6366004611342565b6104b4565b6101966101b9366004611342565b6104e5565b61016b6101cc3660046112e3565b610500565b6101e46101df36600461137e565b610560565b60405190815260200161013a565b6101966105e6565b6007546001600160a01b031661016b565b61014b6105fa565b610196610221366004611399565b610609565b610196610234366004611461565b610618565b6101e46102473660046114dd565b610650565b6101e46106d2565b61014b6102623660046112e3565b6106e2565b61012e61027536600461153f565b6001600160a01b03918216600090815260056020908152604080832093909416825291909152205460ff1690565b6101966102b136600461137e565b6107f2565b60006001600160e01b03198216632483248360e11b14806102db57506102db8261086b565b92915050565b6060600080546102f090611572565b80601f016020809104026020016040519081016040528092919081815260200182805461031c90611572565b80156103695780601f1061033e57610100808354040283529160200191610369565b820191906000526020600020905b81548152906001019060200180831161034c57829003601f168201915b5050505050905090565b600061037e826108bb565b506000908152600460205260409020546001600160a01b031690565b60006103a582610500565b9050806001600160a01b0316836001600160a01b0316036104175760405162461bcd60e51b815260206004820152602160248201527f4552433732313a20617070726f76616c20746f2063757272656e74206f776e656044820152603960f91b60648201526084015b60405180910390fd5b336001600160a01b038216148061043357506104338133610275565b6104a55760405162461bcd60e51b815260206004820152603d60248201527f4552433732313a20617070726f76652063616c6c6572206973206e6f7420746f60448201527f6b656e206f776e6572206f7220617070726f76656420666f7220616c6c000000606482015260840161040e565b6104af838361091a565b505050565b6104be3382610988565b6104da5760405162461bcd60e51b815260040161040e906115ac565b6104af838383610a06565b6104af83838360405180602001604052806000815250610618565b6000818152600260205260408120546001600160a01b0316806102db5760405162461bcd60e51b8152602060048201526018602482015277115490cdcc8c4e881a5b9d985b1a59081d1bdad95b88125160421b604482015260640161040e565b60006001600160a01b0382166105ca5760405162461bcd60e51b815260206004820152602960248201527f4552433732313a2061646472657373207a65726f206973206e6f7420612076616044820152683634b21037bbb732b960b91b606482015260840161040e565b506001600160a01b031660009081526003602052604090205490565b6105ee610b6a565b6105f86000610bc4565b565b6060600180546102f090611572565b610614338383610c16565b5050565b6106223383610988565b61063e5760405162461bcd60e51b815260040161040e906115ac565b61064a84848484610ce4565b50505050565b600061065a610b6a565b610668600880546001019055565b600061067360085490565b905061067f8482610d17565b6106898184610ea2565b836001600160a01b0316817f4ad3aa0dd2b472e5877900dcfd0688f724898d486d41682e9c3f05f23d08a934856040516106c391906112d0565b60405180910390a39392505050565b60006106dd60085490565b905090565b60606106ed826108bb565b6000828152600660205260408120805461070690611572565b80601f016020809104026020016040519081016040528092919081815260200182805461073290611572565b801561077f5780601f106107545761010080835404028352916020019161077f565b820191906000526020600020905b81548152906001019060200180831161076257829003601f168201915b50505050509050600061079d60408051602081019091526000815290565b905080516000036107af575092915050565b8151156107e15780826040516020016107c99291906115f9565b60405160208183030381529060405292505050919050565b6107ea84610f6d565b949350505050565b6107fa610b6a565b6001600160a01b03811661085f5760405162461bcd60e51b815260206004820152602660248201527f4f776e61626c653a206e6577206f776e657220697320746865207a65726f206160448201526564647265737360d01b606482015260840161040e565b61086881610bc4565b50565b60006001600160e01b031982166380ac58cd60e01b148061089c57506001600160e01b03198216635b5e139f60e01b145b806102db57506301ffc9a760e01b6001600160e01b03198316146102db565b6000818152600260205260409020546001600160a01b03166108685760405162461bcd60e51b8152602060048201526018602482015277115490cdcc8c4e881a5b9d985b1a59081d1bdad95b88125160421b604482015260640161040e565b600081815260046020526040902080546001600160a01b0319166001600160a01b038416908117909155819061094f82610500565b6001600160a01b03167f8c5be1e5ebec7d5bd14f71427d1e84f3dd0314c0f7b2291e5b200ac8c7c3b92560405160405180910390a45050565b60008061099483610500565b9050806001600160a01b0316846001600160a01b031614806109db57506001600160a01b0380821660009081526005602090815260408083209388168352929052205460ff165b806107ea5750836001600160a01b03166109f484610373565b6001600160a01b031614949350505050565b826001600160a01b0316610a1982610500565b6001600160a01b031614610a3f5760405162461bcd60e51b815260040161040e90611628565b6001600160a01b038216610aa15760405162461bcd60e51b8152602060048201526024808201527f4552433732313a207472616e7366657220746f20746865207a65726f206164646044820152637265737360e01b606482015260840161040e565b826001600160a01b0316610ab482610500565b6001600160a01b031614610ada5760405162461bcd60e51b815260040161040e90611628565b600081815260046020908152604080832080546001600160a01b03199081169091556001600160a01b0387811680865260038552838620805460001901905590871680865283862080546001019055868652600290945282852080549092168417909155905184937fddf252ad1be2c89b69c2b068fc378daa952ba7f163c4a11628f55a4df523b3ef91a4505050565b6007546001600160a01b031633146105f85760405162461bcd60e51b815260206004820181905260248201527f4f776e61626c653a2063616c6c6572206973206e6f7420746865206f776e6572604482015260640161040e565b600780546001600160a01b038381166001600160a01b0319831681179093556040519116919082907f8be0079c531659141344cd1fd0a4f28419497f9722a3daafe3b4186f6b6457e090600090a35050565b816001600160a01b0316836001600160a01b031603610c775760405162461bcd60e51b815260206004820152601960248201527f4552433732313a20617070726f766520746f2063616c6c657200000000000000604482015260640161040e565b6001600160a01b03838116600081815260056020908152604080832094871680845294825291829020805460ff191686151590811790915591519182527f17307eab39ab6107e8899845ad3d59bd9653f200f220920489ca2b5937696c31910160405180910390a3505050565b610cef848484610a06565b610cfb84848484610fe1565b61064a5760405162461bcd60e51b815260040161040e9061166d565b6001600160a01b038216610d6d5760405162461bcd60e51b815260206004820181905260248201527f4552433732313a206d696e7420746f20746865207a65726f2061646472657373604482015260640161040e565b6000818152600260205260409020546001600160a01b031615610dd25760405162461bcd60e51b815260206004820152601c60248201527f4552433732313a20746f6b656e20616c7265616479206d696e74656400000000604482015260640161040e565b6000818152600260205260409020546001600160a01b031615610e375760405162461bcd60e51b815260206004820152601c60248201527f4552433732313a20746f6b656e20616c7265616479206d696e74656400000000604482015260640161040e565b6001600160a01b038216600081815260036020908152604080832080546001019055848352600290915280822080546001600160a01b0319168417905551839291907fddf252ad1be2c89b69c2b068fc378daa952ba7f163c4a11628f55a4df523b3ef908290a45050565b6000828152600260205260409020546001600160a01b0316610f1d5760405162461bcd60e51b815260206004820152602e60248201527f45524337323155524953746f726167653a2055524920736574206f66206e6f6e60448201526d32bc34b9ba32b73a103a37b5b2b760911b606482015260840161040e565b6000828152600660205260409020610f35828261170f565b506040518281527ff8e1a15aba9398e019f0b49df1a4fde98ee17ae345cb5f6b5e2c27f5033e8ce79060200160405180910390a15050565b6060610f78826108bb565b6000610f8f60408051602081019091526000815290565b90506000815111610faf5760405180602001604052806000815250610fda565b80610fb9846110e2565b604051602001610fca9291906115f9565b6040516020818303038152906040525b9392505050565b60006001600160a01b0384163b156110d757604051630a85bd0160e11b81526001600160a01b0385169063150b7a02906110259033908990889088906004016117cf565b6020604051808303816000875af1925050508015611060575060408051601f3d908101601f1916820190925261105d9181019061180c565b60015b6110bd573d80801561108e576040519150601f19603f3d011682016040523d82523d6000602084013e611093565b606091505b5080516000036110b55760405162461bcd60e51b815260040161040e9061166d565b805181602001fd5b6001600160e01b031916630a85bd0160e11b1490506107ea565b506001949350505050565b606060006110ef83611175565b600101905060008167ffffffffffffffff81111561110f5761110f6113d5565b6040519080825280601f01601f191660200182016040528015611139576020820181803683370190505b5090508181016020015b600019016f181899199a1a9b1b9c1cb0b131b232b360811b600a86061a8153600a850494508461114357509392505050565b60008072184f03e93ff9f4daa797ed6e38ed64bf6a1f0160401b83106111b45772184f03e93ff9f4daa797ed6e38ed64bf6a1f0160401b830492506040015b6d04ee2d6d415b85acef810000000083106111e0576d04ee2d6d415b85acef8100000000830492506020015b662386f26fc1000083106111fe57662386f26fc10000830492506010015b6305f5e1008310611216576305f5e100830492506008015b612710831061122a57612710830492506004015b6064831061123c576064830492506002015b600a83106102db5760010192915050565b6001600160e01b03198116811461086857600080fd5b60006020828403121561127557600080fd5b8135610fda8161124d565b60005b8381101561129b578181015183820152602001611283565b50506000910152565b600081518084526112bc816020860160208601611280565b601f01601f19169290920160200192915050565b602081526000610fda60208301846112a4565b6000602082840312156112f557600080fd5b5035919050565b80356001600160a01b038116811461131357600080fd5b919050565b6000806040838503121561132b57600080fd5b611334836112fc565b946020939093013593505050565b60008060006060848603121561135757600080fd5b611360846112fc565b925061136e602085016112fc565b9150604084013590509250925092565b60006020828403121561139057600080fd5b610fda826112fc565b600080604083850312156113ac57600080fd5b6113b5836112fc565b9150602083013580151581146113ca57600080fd5b809150509250929050565b634e487b7160e01b600052604160045260246000fd5b600067ffffffffffffffff80841115611406576114066113d5565b604051601f8501601f19908116603f0116810190828211818310171561142e5761142e6113d5565b8160405280935085815286868601111561144757600080fd5b858560208301376000602087830101525050509392505050565b6000806000806080858703121561147757600080fd5b611480856112fc565b935061148e602086016112fc565b925060408501359150606085013567ffffffffffffffff8111156114b157600080fd5b8501601f810187136114c257600080fd5b6114d1878235602084016113eb565b91505092959194509250565b600080604083850312156114f057600080fd5b6114f9836112fc565b9150602083013567ffffffffffffffff81111561151557600080fd5b8301601f8101851361152657600080fd5b611535858235602084016113eb565b9150509250929050565b6000806040838503121561155257600080fd5b61155b836112fc565b9150611569602084016112fc565b90509250929050565b600181811c9082168061158657607f821691505b6020821081036115a657634e487b7160e01b600052602260045260246000fd5b50919050565b6020808252602d908201527f4552433732313a2063616c6c6572206973206e6f7420746f6b656e206f776e6560408201526c1c881bdc88185c1c1c9bdd9959609a1b606082015260800190565b6000835161160b818460208801611280565b83519083019061161f818360208801611280565b01949350505050565b60208082526025908201527f4552433732313a207472616e736665722066726f6d20696e636f72726563742060408201526437bbb732b960d91b606082015260800190565b60208082526032908201527f4552433732313a207472616e7366657220746f206e6f6e20455243373231526560408201527131b2b4bb32b91034b6b83632b6b2b73a32b960711b606082015260800190565b601f8211156104af576000816000526020600020601f850160051c810160208610156116e85750805b601f850160051c820191505b81811015611707578281556001016116f4565b505050505050565b815167ffffffffffffffff811115611729576117296113d5565b61173d816117378454611572565b846116bf565b602080601f831160018114611772576000841561175a5750858301515b600019600386901b1c1916600185901b178555611707565b600085815260208120601f198616915b828110156117a157888601518255948401946001909101908401611782565b50858210156117bf5787850151600019600388901b60f8161c191681555b5050505050600190811b01905550565b6001600160a01b0385811682528416602082015260408101839052608060608201819052600090611802908301846112a4565b9695505050505050565b60006020828403121561181e57600080fd5b8151610fda8161124d56fea2646970667358221220587567f056bd42faab32119f05c0e8a249832caa538e19455f36f7f8709f439f64736f6c63430008180033",
  "linkReferences": {},
  "deployedLinkReferences": {}
}