{
  "_format": "hh-sol-artifact-1",
  "contractName": "MultiSigWorkflow",
  "sourceName": "contracts/MultiSigWorkflow.sol",
  "abi": [
    {
      "inputs": [],
      "stateMutability": "nonpayable",
      "type": "constructor"
    },
    {
      "anonymous": false,
      "inputs": [
        {
          "indexed": true,
          "internalType": "uint256",
          "name": "transactionId",
          "type": "uint256"
        },
        {
          "indexed": false,
          "internalType": "string",
          "name": "documentCID",
          "type": "string"
        },
        {
          "indexed": true,
          "internalType": "address",
          "name": "creator",
          "type": "address"
        }
      ],
      "name": "TransactionCreated",
      "type": "event"
    },
    {
      "anonymous": false,
      "inputs": [
        {
          "indexed": true,
          "internalType": "uint256",
          "name": "transactionId",
          "type": "uint256"
        },
        {
          "indexed": true,
          "internalType": "address",
          "name": "signer",
          "type": "address"
        },
        {
          "indexed": false,
          "internalType": "enum MultiSigWorkflow.SignerRole",
          "name": "role",
          "type": "uint8"
        },
        {
          "indexed": false,
          "internalType": "bool",
          "name": "isApproved",
          "type": "bool"
        }
      ],
      "name": "TransactionSigned",
      "type": "event"
    },
    {
      "anonymous": false,
      "inputs": [
        {
          "indexed": true,
          "internalType": "uint256",
          "name": "transactionId",
          "type": "uint256"
        },
        {
          "indexed": false,
          "internalType": "enum MultiSigWorkflow.TransactionStatus",
          "name": "newStatus",
          "type": "uint8"
        }
      ],
      "name": "TransactionStatusChanged",
      "type": "event"
    },
    {
      "inputs": [],
      "name": "REQUIRED_CB_SIGS",
      "outputs": [
        {
          "internalType": "uint8",
          "name": "",
          "type": "uint8"
        }
      ],
      "stateMutability": "view",
      "type": "function"
    },
    {
      "inputs": [],
      "name": "REQUIRED_LD_SIGS",
      "outputs": [
        {
          "internalType": "uint8",
          "name": "",
          "type": "uint8"
        }
      ],
      "stateMutability": "view",
      "type": "function"
    },
    {
      "inputs": [],
      "name": "admin",
      "outputs": [
        {
          "internalType": "address",
          "name": "",
          "type": "address"
        }
      ],
      "stateMutability": "view",
      "type": "function"
    },
    {
      "inputs": [
        {
          "internalType": "string",
          "name": "_documentCID",
          "type": "string"
        }
      ],
      "name": "createTransaction",
      "outputs": [
        {
          "internalType": "uint256",
          "name": "",
          "type": "uint256"
        }
      ],
      "stateMutability": "nonpayable",
      "type": "function"
    },
    {
      "inputs": [
        {
          "internalType": "uint256",
          "name": "_txId",
          "type": "uint256"
        }
      ],
      "name": "getTransactionSigners",
      "outputs": [
        {
          "internalType": "address[]",
          "name": "",
          "type": "address[]"
        }
      ],
      "stateMutability": "view",
      "type": "function"
    },
    {
      "inputs": [
        {
          "internalType": "address",
          "name": "_user",
          "type": "address"
        },
        {
          "internalType": "enum MultiSigWorkflow.SignerRole",
          "name": "_role",
          "type": "uint8"
        }
      ],
      "name": "setUserRole",
      "outputs": [],
      "stateMutability": "nonpayable",
      "type": "function"
    },
    {
      "inputs": [
        {
          "internalType": "uint256",
          "name": "_txId",
          "type": "uint256"
        },
        {
          "internalType": "bool",
          "name": "_isApproved",
          "type": "bool"
        },
        {
          "internalType": "string",
          "name": "_reason",
          "type": "string"
        }
      ],
      "name": "signTransaction",
      "outputs": [],
      "stateMutability": "nonpayable",
      "type": "function"
    },
    {
      "inputs": [],
      "name": "transactionCount",
      "outputs": [
        {
          "internalType": "uint256",
          "name": "",
          "type": "uint256"
        }
      ],
      "stateMutability": "view",
      "type": "function"
    },
    {
      "inputs": [
        {
          "internalType": "uint256",
          "name": "",
          "type": "uint256"
        },
        {
          "internalType": "address",
          "name": "",
          "type": "address"
        }
      ],
      "name": "transactionSignatures",
      "outputs": [
        {
          "internalType": "address",
          "name": "signer",
          "type": "address"
        },
        {
          "internalType": "enum MultiSigWorkflow.SignerRole",
          "name": "role",
          "type": "uint8"
        },
        {
          "internalType": "uint256",
          "name": "timestamp",
          "type": "uint256"
        },
        {
          "internalType": "bool",
          "name": "isApproved",
          "type": "bool"
        },
        {
          "internalType": "string",
          "name": "reason",
          "type": "string"
        }
      ],
      "stateMutability": "view",
      "type": "function"
    },
    {
      "inputs": [
        {
          "internalType": "uint256",
          "name": "",
          "type": "uint256"
        },
        {
          "internalType": "uint256",
          "name": "",
          "type": "uint256"
        }
      ],
      "name": "transactionSigners",
      "outputs": [
        {
          "internalType": "address",
          "name": "",
          "type": "address"
        }
      ],
      "stateMutability": "view",
      "type": "function"
    },
    {
      "inputs": [
        {
          "internalType": "uint256",
          "name": "",
          "type": "uint256"
        }
      ],
      "name": "transactions",
      "outputs": [
        {
          "internalType": "uint256",
          "name": "transactionId",
          "type": "uint256"
        },
        {
          "internalType": "string",
          "name": "documentCID",
          "type": "string"
        },
        {
          "internalType": "address",
          "name": "creator",
          "type": "address"
        },
        {
          "internalType": "uint8",
          "name": "cbSignaturesCount",
          "type": "uint8"
        },
        {
          "internalType": "uint8",
          "name": "ldSignaturesCount",
          "type": "uint8"
        },
        {
          "internalType": "enum MultiSigWorkflow.TransactionStatus",
          "name": "status",
          "type": "uint8"
        }
      ],
      "stateMutability": "view",
      "type": "function"
    },
    {
      "inputs": [
        {
          "internalType": "address",
          "name": "",
          "type": "address"
        }
      ],
      "name": "userRoles",
      "outputs": [
        {
          "internalType": "enum MultiSigWorkflow.SignerRole",
          "name": "",
          "type": "uint8"
        }
      ],
      "stateMutability": "view",
      "type": "function"
    }
  ],
  "bytecode": "0x608060405234801561001057600080fd5b50600580546001600160a01b03191633179055611053806100326000396000f3fe608060405234801561001057600080fd5b50600436106100b45760003560e01c806374d5e1001161007157806374d5e1001461016c5780639ace38c21461019c578063a9836205146101c1578063b5cea019146101e5578063b77bf600146101ed578063f851a440146101f657600080fd5b806303a69611146100b957806312255d09146100ce5780633ecc1721146100ed5780634985e4891461010d5780634a5f11c8146101205780634d9e78d41461014b575b600080fd5b6100cc6100c7366004610ad3565b610209565b005b6100d6600181565b60405160ff90911681526020015b60405180910390f35b6101006100fb366004610b0e565b610292565b6040516100e49190610b27565b6100cc61011b366004610c17565b6102fe565b61013361012e366004610c75565b610793565b6040516001600160a01b0390911681526020016100e4565b61015e610159366004610c97565b6107cb565b6040519081526020016100e4565b61018f61017a366004610cd4565b60046020526000908152604090205460ff1681565b6040516100e49190610d20565b6101af6101aa366004610b0e565b61090f565b6040516100e496959493929190610d8a565b6101d46101cf366004610ddd565b6109e3565b6040516100e4959493929190610e09565b6100d6600281565b61015e60005481565b600554610133906001600160a01b031681565b6005546001600160a01b031633146102545760405162461bcd60e51b81526020600482015260096024820152682737ba1030b236b4b760b91b60448201526064015b60405180910390fd5b6001600160a01b0382166000908152600460205260409020805482919060ff1916600183600281111561028957610289610cf6565b02179055505050565b6000818152600360209081526040918290208054835181840281018401909452808452606093928301828280156102f257602002820191906000526020600020905b81546001600160a01b031681526001909101906020018083116102d4575b50505050509050919050565b6000838152600160205260408120805490910361035d5760405162461bcd60e51b815260206004820152601a60248201527f5472616e73616374696f6e20646f6573206e6f74206578697374000000000000604482015260640161024b565b60006002820154600160b01b900460ff16600381111561037f5761037f610cf6565b146103cc5760405162461bcd60e51b815260206004820152601a60248201527f5472616e73616374696f6e206973206e6f742070656e64696e67000000000000604482015260640161024b565b6000848152600260209081526040808320338452909152902060010154156104275760405162461bcd60e51b815260206004820152600e60248201526d105b1c9958591e481cda59db995960921b604482015260640161024b565b3360009081526004602052604090205460ff16600181600281111561044e5761044e610cf6565b148061046b5750600281600281111561046957610469610cf6565b145b6104ab5760405162461bcd60e51b8152602060048201526011602482015270556e617574686f72697a656420726f6c6560781b604482015260640161024b565b6040518060a00160405280336001600160a01b031681526020018260028111156104d7576104d7610cf6565b8152426020808301919091528615156040808401919091526060909201869052600088815260028083528382203383528352929020835181546001600160a01b03919091166001600160a01b0319821681178355928501519193919284926001600160a81b03199092161790600160a01b90849081111561055a5761055a610cf6565b021790555060408201516001820155606082015160028201805460ff1916911515919091179055608082015160038201906105959082610ed1565b50505060008581526003602090815260408220805460018101825590835291200180546001600160a01b0319163317905583156106f65760018160028111156105e0576105e0610cf6565b0361061f57600282018054600160a01b900460ff1690601461060183610fa7565b91906101000a81548160ff021916908360ff1602179055505061066e565b600281600281111561063357610633610cf6565b0361066e57600282018054600160a81b900460ff1690601561065483610fa7565b91906101000a81548160ff021916908360ff160217905550505b600282810154600160a01b900460ff161080159061069c575060028201546001600160a81b90910460ff1610155b156106f15760028201805460ff60b01b1916600160b01b17905560405185907e3013893708bd175bc8eeedd6ea1e367024bbc9bc7b110e7ed37bc77aceac57906106e890600190610fc6565b60405180910390a25b610748565b6002828101805460ff60b01b1916600160b01b830217905550847e3013893708bd175bc8eeedd6ea1e367024bbc9bc7b110e7ed37bc77aceac57600260405161073f9190610fc6565b60405180910390a25b336001600160a01b0316857f9d9bea5c4781935c57fd5f2a2f437cb750e3fb646da05e8aa40a122acbcdbd318387604051610784929190610fd4565b60405180910390a35050505050565b600360205281600052604060002081815481106107af57600080fd5b6000918252602090912001546001600160a01b03169150829050565b6000805481806107da83610ff1565b9091555050600080546040805160c08101825282815260208082018781523383850152606083018690526080830186905260a083018690528486526001918290529290942081518155915192939092908201906108379082610ed1565b5060408201516002820180546060850151608086015160ff908116600160a81b0260ff60a81b1991909216600160a01b026001600160a81b03199093166001600160a01b0390951694909417919091179283168117825560a08501519260ff60b01b1990911661ffff60a81b1990911617600160b01b8360038111156108bf576108bf610cf6565b0217905550905050336001600160a01b0316817f6b788bd9be8b568189b1598944788128be6dc1ad3c711fdc84fa4fa1fa21ea1885604051610901919061100a565b60405180910390a392915050565b60016020819052600091825260409091208054918101805461093090610e46565b80601f016020809104026020016040519081016040528092919081815260200182805461095c90610e46565b80156109a95780601f1061097e576101008083540402835291602001916109a9565b820191906000526020600020905b81548152906001019060200180831161098c57829003601f168201915b505050600290930154919250506001600160a01b0381169060ff600160a01b8204811691600160a81b8104821691600160b01b9091041686565b6002602081815260009384526040808520909152918352912080546001820154928201546003830180546001600160a01b03841695600160a01b90940460ff908116959316929190610a3490610e46565b80601f0160208091040260200160405190810160405280929190818152602001828054610a6090610e46565b8015610aad5780601f10610a8257610100808354040283529160200191610aad565b820191906000526020600020905b815481529060010190602001808311610a9057829003601f168201915b5050505050905085565b80356001600160a01b0381168114610ace57600080fd5b919050565b60008060408385031215610ae657600080fd5b610aef83610ab7565b9150602083013560038110610b0357600080fd5b809150509250929050565b600060208284031215610b2057600080fd5b5035919050565b6020808252825182820181905260009190848201906040850190845b81811015610b685783516001600160a01b031683529284019291840191600101610b43565b50909695505050505050565b634e487b7160e01b600052604160045260246000fd5b600082601f830112610b9b57600080fd5b813567ffffffffffffffff80821115610bb657610bb6610b74565b604051601f8301601f19908116603f01168101908282118183101715610bde57610bde610b74565b81604052838152866020858801011115610bf757600080fd5b836020870160208301376000602085830101528094505050505092915050565b600080600060608486031215610c2c57600080fd5b8335925060208401358015158114610c4357600080fd5b9150604084013567ffffffffffffffff811115610c5f57600080fd5b610c6b86828701610b8a565b9150509250925092565b60008060408385031215610c8857600080fd5b50508035926020909101359150565b600060208284031215610ca957600080fd5b813567ffffffffffffffff811115610cc057600080fd5b610ccc84828501610b8a565b949350505050565b600060208284031215610ce657600080fd5b610cef82610ab7565b9392505050565b634e487b7160e01b600052602160045260246000fd5b60038110610d1c57610d1c610cf6565b9052565b60208101610d2e8284610d0c565b92915050565b6000815180845260005b81811015610d5a57602081850181015186830182015201610d3e565b506000602082860101526020601f19601f83011685010191505092915050565b60048110610d1c57610d1c610cf6565b86815260c060208201526000610da360c0830188610d34565b6001600160a01b038716604084015260ff8681166060850152851660808401529050610dd260a0830184610d7a565b979650505050505050565b60008060408385031215610df057600080fd5b82359150610e0060208401610ab7565b90509250929050565b6001600160a01b0386168152610e226020820186610d0c565b836040820152821515606082015260a060808201526000610dd260a0830184610d34565b600181811c90821680610e5a57607f821691505b602082108103610e7a57634e487b7160e01b600052602260045260246000fd5b50919050565b601f821115610ecc576000816000526020600020601f850160051c81016020861015610ea95750805b601f850160051c820191505b81811015610ec857828155600101610eb5565b5050505b505050565b815167ffffffffffffffff811115610eeb57610eeb610b74565b610eff81610ef98454610e46565b84610e80565b602080601f831160018114610f345760008415610f1c5750858301515b600019600386901b1c1916600185901b178555610ec8565b600085815260208120601f198616915b82811015610f6357888601518255948401946001909101908401610f44565b5085821015610f815787850151600019600388901b60f8161c191681555b5050505050600190811b01905550565b634e487b7160e01b600052601160045260246000fd5b600060ff821660ff8103610fbd57610fbd610f91565b60010192915050565b60208101610d2e8284610d7a565b60408101610fe28285610d0c565b82151560208301529392505050565b60006001820161100357611003610f91565b5060010190565b602081526000610cef6020830184610d3456fea26469706673582212208d39dec94cc62a86434d85c26a1eda2ad8ca137a066a4582632ebe1f3e604daf64736f6c63430008180033",
  "linkReferences": {},
  "deployedLinkReferences": {}
}