{
  "_format": "hh-sol-artifact-1",
  "contractName": "MultiSigWorkflow",
  "sourceName": "contracts/MultiSigWorkflow.sol",
  "abi": [
    {
      "inputs": [],
      "stateMutability": "nonpayable",
      "type": "constructor"
    },
    {
      "anonymous": false,
      "inputs": [
        {
          "indexed": true,
          "internalType": "uint256",
          "name": "transactionId",
          "type": "uint256"
        },
        {
          "indexed": false,
          "internalType": "string",
          "name": "reason",
          "type": "string"
        }
      ],
      "name": "BatchSignError",
      "type": "event"
    },
    {
      "anonymous": false,
      "inputs": [
        {
          "indexed": true,
          "internalType": "uint256",
          "name": "transactionId",
          "type": "uint256"
        },
        {
          "indexed": false,
          "internalType": "string",
          "name": "documentCID",
          "type": "string"
        },
        {
          "indexed": true,
          "internalType": "address",
          "name": "creator",
          "type": "address"
        }
      ],
      "name": "TransactionCreated",
      "type": "event"
    },
    {
      "anonymous": false,
      "inputs": [
        {
          "indexed": true,
          "internalType": "uint256",
          "name": "transactionId",
          "type": "uint256"
        },
        {
          "indexed": true,
          "internalType": "address",
          "name": "signer",
          "type": "address"
        },
        {
          "indexed": false,
          "internalType": "enum MultiSigWorkflow.SignerRole",
          "name": "role",
          "type": "uint8"
        },
        {
          "indexed": false,
          "internalType": "bool",
          "name": "isApproved",
          "type": "bool"
        }
      ],
      "name": "TransactionSigned",
      "type": "event"
    },
    {
      "anonymous": false,
      "inputs": [
        {
          "indexed": true,
          "internalType": "uint256",
          "name": "transactionId",
          "type": "uint256"
        },
        {
          "indexed": false,
          "internalType": "enum MultiSigWorkflow.TransactionStatus",
          "name": "newStatus",
          "type": "uint8"
        }
      ],
      "name": "TransactionStatusChanged",
      "type": "event"
    },
    {
      "inputs": [],
      "name": "REQUIRED_CB_SIGS",
      "outputs": [
        {
          "internalType": "uint8",
          "name": "",
          "type": "uint8"
        }
      ],
      "stateMutability": "view",
      "type": "function"
    },
    {
      "inputs": [],
      "name": "REQUIRED_LD_SIGS",
      "outputs": [
        {
          "internalType": "uint8",
          "name": "",
          "type": "uint8"
        }
      ],
      "stateMutability": "view",
      "type": "function"
    },
    {
      "inputs": [],
      "name": "admin",
      "outputs": [
        {
          "internalType": "address",
          "name": "",
          "type": "address"
        }
      ],
      "stateMutability": "view",
      "type": "function"
    },
    {
      "inputs": [
        {
          "internalType": "uint256[]",
          "name": "_txIds",
          "type": "uint256[]"
        },
        {
          "internalType": "bool[]",
          "name": "_isApproved",
          "type": "bool[]"
        },
        {
          "internalType": "string[]",
          "name": "_reasons",
          "type": "string[]"
        }
      ],
      "name": "batchSignTransactions",
      "outputs": [],
      "stateMutability": "nonpayable",
      "type": "function"
    },
    {
      "inputs": [
        {
          "internalType": "string",
          "name": "_documentCID",
          "type": "string"
        }
      ],
      "name": "createTransaction",
      "outputs": [
        {
          "internalType": "uint256",
          "name": "",
          "type": "uint256"
        }
      ],
      "stateMutability": "nonpayable",
      "type": "function"
    },
    {
      "inputs": [
        {
          "internalType": "uint256",
          "name": "_txId",
          "type": "uint256"
        }
      ],
      "name": "getTransactionSigners",
      "outputs": [
        {
          "internalType": "address[]",
          "name": "",
          "type": "address[]"
        }
      ],
      "stateMutability": "view",
      "type": "function"
    },
    {
      "inputs": [
        {
          "internalType": "address",
          "name": "_user",
          "type": "address"
        },
        {
          "internalType": "enum MultiSigWorkflow.SignerRole",
          "name": "_role",
          "type": "uint8"
        }
      ],
      "name": "setUserRole",
      "outputs": [],
      "stateMutability": "nonpayable",
      "type": "function"
    },
    {
      "inputs": [
        {
          "internalType": "uint256",
          "name": "_txId",
          "type": "uint256"
        },
        {
          "internalType": "bool",
          "name": "_isApproved",
          "type": "bool"
        },
        {
          "internalType": "string",
          "name": "_reason",
          "type": "string"
        }
      ],
      "name": "signTransaction",
      "outputs": [],
      "stateMutability": "nonpayable",
      "type": "function"
    },
    {
      "inputs": [],
      "name": "transactionCount",
      "outputs": [
        {
          "internalType": "uint256",
          "name": "",
          "type": "uint256"
        }
      ],
      "stateMutability": "view",
      "type": "function"
    },
    {
      "inputs": [
        {
          "internalType": "uint256",
          "name": "",
          "type": "uint256"
        },
        {
          "internalType": "address",
          "name": "",
          "type": "address"
        }
      ],
      "name": "transactionSignatures",
      "outputs": [
        {
          "internalType": "address",
          "name": "signer",
          "type": "address"
        },
        {
          "internalType": "enum MultiSigWorkflow.SignerRole",
          "name": "role",
          "type": "uint8"
        },
        {
          "internalType": "uint256",
          "name": "timestamp",
          "type": "uint256"
        },
        {
          "internalType": "bool",
          "name": "isApproved",
          "type": "bool"
        },
        {
          "internalType": "string",
          "name": "reason",
          "type": "string"
        }
      ],
      "stateMutability": "view",
      "type": "function"
    },
    {
      "inputs": [
        {
          "internalType": "uint256",
          "name": "",
          "type": "uint256"
        },
        {
          "internalType": "uint256",
          "name": "",
          "type": "uint256"
        }
      ],
      "name": "transactionSigners",
      "outputs": [
        {
          "internalType": "address",
          "name": "",
          "type": "address"
        }
      ],
      "stateMutability": "view",
      "type": "function"
    },
    {
      "inputs": [
        {
          "internalType": "uint256",
          "name": "",
          "type": "uint256"
        }
      ],
      "name": "transactions",
      "outputs": [
        {
          "internalType": "uint256",
          "name": "transactionId",
          "type": "uint256"
        },
        {
          "internalType": "string",
          "name": "documentCID",
          "type": "string"
        },
        {
          "internalType": "address",
          "name": "creator",
          "type": "address"
        },
        {
          "internalType": "uint8",
          "name": "cbSignaturesCount",
          "type": "uint8"
        },
        {
          "internalType": "uint8",
          "name": "ldSignaturesCount",
          "type": "uint8"
        },
        {
          "internalType": "enum MultiSigWorkflow.TransactionStatus",
          "name": "status",
          "type": "uint8"
        }
      ],
      "stateMutability": "view",
      "type": "function"
    },
    {
      "inputs": [
        {
          "internalType": "address",
          "name": "",
          "type": "address"
        }
      ],
      "name": "userRoles",
      "outputs": [
        {
          "internalType": "enum MultiSigWorkflow.SignerRole",
          "name": "",
          "type": "uint8"
        }
      ],
      "stateMutability": "view",
      "type": "function"
    }
  ],
  "bytecode": "0x6080806040523461002857600580546001600160a01b0319163317905561159a908161002e8239f35b600080fdfe608080604052600436101561001357600080fd5b60003560e01c90816303a69611146111b65750806312255d091461119a5780633ecc1721146110e25780634985e48914610c425780634a5f11c814610bf05780634d9e78d41461094a57806374d5e100146109065780639ace38c214610873578063a9836205146107d0578063b5cea019146107b4578063b77bf60014610796578063d319fd99146100dc5763f851a440146100ae57600080fd5b346100d75760003660031901126100d7576005546040516001600160a01b039091168152602090f35b600080fd5b346100d75760603660031901126100d75760043567ffffffffffffffff81116100d75761010d90369060040161143e565b9060243567ffffffffffffffff81116100d75761012e90369060040161143e565b60443567ffffffffffffffff81116100d75761014e90369060040161143e565b9490918082148061078d575b1561074f5733600052600460205260ff60406000205416936003851015806104d6576001861493848015610741575b6101959092919261146f565b6000915b8083106101a257005b6101ad83828b611527565b35928360005260016020526040600020938454156106da5760ff600286015460b01c1660048110156104d657610673578060005260026020526040600020336000526020526001604060002001546106135761021261020d838989611527565b611537565b8c8310156105fd578260051b8a0135601e198b3603018112156100d75767ffffffffffffffff818c0135116100d757808b013536036020828d0101136100d7576102918c916040519361026485611257565b3385526102756020860194856114af565b4260408601521515606085015236908d01803590602001611295565b608083015282600052600260205260406000203360005260205260406000209160018060a01b0381511691835490519260038410156104d65760809360ff60a01b9060a01b16916affffffffffffffffffffff60a81b161717835560408101516001840155600283016060820151151560ff80198354169116179055015180519067ffffffffffffffff82116105e75761032e600384015461131f565b601f81116105a0575b50602090601f8311600114610531576003929160009183610526575b50508160011b9160001990841b1c1916179101555b80600052600360205261037f3360406000206114bb565b8961038e61020d848a8a611527565b156104ec5750836104d6578990881561048a57856103dd6103bc60ff6002600198999a015460a01c166114fb565b60028301805460ff60a01b191660a09290921b60ff60a01b16919091179055565b6002810154600260ff8260a01c1610158061047a575b610447575b50505b7f9d9bea5c4781935c57fd5f2a2f437cb750e3fb646da05e8aa40a122acbcdbd3161043b61042d61020d868c8c611527565b60405191829133968361150c565b0390a35b019190610199565b6002908660b01b9060ff60b01b191617910155806000805160206115458339815191526020604051878152a28d806103f8565b508560ff8260a81c1610156103f3565b6001939450600095600283036103dd576104d16104b060ff600284015460a81c166114fb565b60028301805460ff60a81b191660a89290921b60ff60a81b16919091179055565b6103dd565b634e487b7160e01b600052602160045260246000fd5b90600193949560028560b11b60ff60b01b1982840154161791015580600080516020611545833981519152602060405160028152a26103fb565b015190503880610353565b906003840160005260206000209160005b601f19851681106105885750918391600193600395601f19811610610570575b505050811b01910155610368565b015160001983861b60f8161c19169055388080610562565b91926020600181928685015181550194019201610542565b600384016000526020600020601f840160051c8101602085106105e0575b601f830160051c820181106105d4575050610337565b600081556001016105be565b50806105be565b634e487b7160e01b600052604160045260246000fd5b634e487b7160e01b600052603260045260246000fd5b6001929394507f1488ac69826eac1379d94b07633874a0e8e2b3ecf326c12525873610ce027a8e6040518061066b8160609060208152600e60208201526d105b1c9958591e481cda59db995960921b60408201520190565b0390a261043f565b6001929394507f1488ac69826eac1379d94b07633874a0e8e2b3ecf326c12525873610ce027a8e6040518061066b8160609060208152601a60208201527f5472616e73616374696f6e206973206e6f742070656e64696e6700000000000060408201520190565b6001929394507f1488ac69826eac1379d94b07633874a0e8e2b3ecf326c12525873610ce027a8e6040518061066b8160609060208152601a60208201527f5472616e73616374696f6e20646f6573206e6f7420657869737400000000000060408201520190565b506000915060028714610189565b60405162461bcd60e51b8152602060048201526016602482015275082e4e4c2f240d8cadccee8d0e640dad2e6dac2e8c6d60531b6044820152606490fd5b5085821461015a565b346100d75760003660031901126100d7576020600054604051908152f35b346100d75760003660031901126100d757602060405160028152f35b346100d75760403660031901126100d7576001600160a01b03602435818116908190036100d757600435600052600260205260406000209060005260205260406000209061086f825492600181015490610834600360ff6002840154169201611359565b916108526040519687968116875260ff602088019160a01c16611312565b60408501521515606084015260a0608084015260a08301906113fe565b0390f35b346100d75760203660031901126100d7576004356000526001602052604060002080549060026108a560018301611359565b91015460ff6108cb818360b01c169360405195865260c0602087015260c08601906113fe565b6001600160a01b038316604086015260a083901c8216606086015260a89290921c16608084015260048210156104d657829160a08301520390f35b346100d75760203660031901126100d7576001600160a01b03610927611241565b166000526004602052602060ff604060002054166109486040518092611312565bf35b346100d75760203660031901126100d75767ffffffffffffffff6004358181116100d75761097c9036906004016112dc565b600054906000198214610bda57600182016000556040519260c08401848110828211176105e75760405260018301845260208401908282523360408601526000606086015260006080860152600060a0860152600184016000526001602052604060002091855183555180519182116105e7576109fc600184015461131f565b601f8111610b93575b50602090601f8311600114610b2057918060a09492600294600092610b15575b50508160011b916000199060031b1c19161760018201555b0193600180831b036040820151166bffffffffffffffffffffffff831b865416178555610a8760ff606083015116869081549060ff60a01b9060a01b169060ff60a01b1916179055565b6080810151855460ff60a81b191660a89190911b60ff60a81b1617855501519260048410156104d65760209381549060ff60b01b9060b01b169060ff60b01b1916179055604051908382527f6b788bd9be8b568189b1598944788128be6dc1ad3c711fdc84fa4fa1fa21ea18339280610b076001870194888301906113fe565b0390a3600160405191018152f35b015190508880610a25565b90601f198316916001850160005260206000209260005b818110610b7b575092600192859260029660a0989610610b62575b505050811b016001820155610a3d565b015160001960f88460031b161c19169055888080610b52565b92936020600181928786015181550195019301610b37565b600184016000526020600020601f840160051c810160208510610bd3575b601f830160051c82018110610bc7575050610a05565b60008155600101610bb1565b5080610bb1565b634e487b7160e01b600052601160045260246000fd5b346100d75760403660031901126100d7576024356004356000526003602052604060002080548210156100d757602091610c29916112fa565b905460405160039290921b1c6001600160a01b03168152f35b346100d75760603660031901126100d7576024351515602435036100d75760443567ffffffffffffffff81116100d757610c809036906004016112dc565b6004356000526001602052604060002080541561109d5760ff600282015460b01c1660048110156104d6576110585760043560005260026020526040600020336000526020526001604060002001546110225733600052600460205260ff60406000205416916003831015806104d6576001841491828015611014575b610d069061146f565b60405190610d1382611257565b3382526020820190610d2587836114af565b426040840152602435151560608401526080830152600435600052600260205260406000203360005260205260406000209160018060a01b0381511691835490519260038410156104d65760809360ff60a01b9060a01b16916affffffffffffffffffffff60a81b161717835560408101516001840155600283016060820151151560ff80198354169116179055015180519067ffffffffffffffff82116105e757610dd4600384015461131f565b601f8111610fcd575b50602090601f8311600114610f5e576003929160009183610f53575b50508160011b9160001990841b1c1916179101555b6004356000526003602052610e273360406000206114bb565b60243515610f18576104d65715610ef557610e4e6103bc60ff600284015460a01c166114fb565b6002810154600260ff8260a01c16101580610ee4575b610eaa575b50505b604051907f9d9bea5c4781935c57fd5f2a2f437cb750e3fb646da05e8aa40a122acbcdbd31339280610ea560043594602435908361150c565b0390a3005b60ff60b01b1916600160b01b1760029190910155604051600181526004359060008051602061154583398151915290602090a28180610e69565b50600160ff8260a81c161015610e64565b60028203610e4e57610f136104b060ff600284015460a81c166114fb565b610e4e565b50506002908101805460ff60b01b1916600160b11b1790556040519081526004359060008051602061154583398151915290602090a2610e6c565b015190508880610df9565b906003840160005260206000209160005b601f1985168110610fb55750918391600193600395601f19811610610f9d575b505050811b01910155610e0e565b015160001983861b60f8161c19169055888080610f8f565b91926020600181928685015181550194019201610f6f565b600384016000526020600020601f840160051c81016020851061100d575b601f830160051c82018110611001575050610ddd565b60008155600101610feb565b5080610feb565b506000915060028514610cfd565b60405162461bcd60e51b815260206004820152600e60248201526d105b1c9958591e481cda59db995960921b6044820152606490fd5b60405162461bcd60e51b815260206004820152601a60248201527f5472616e73616374696f6e206973206e6f742070656e64696e670000000000006044820152606490fd5b60405162461bcd60e51b815260206004820152601a60248201527f5472616e73616374696f6e20646f6573206e6f742065786973740000000000006044820152606490fd5b346100d7576020806003193601126100d75760043560005260038152604060002060405190818382549182815201908192600052846000209060005b8682821061117d57868661113482880383611273565b604051928392818401908285525180915260408401929160005b82811061115d57505050500390f35b83516001600160a01b03168552869550938101939281019260010161114e565b83546001600160a01b03168552909301926001928301920161111e565b346100d75760003660031901126100d757602060405160018152f35b346100d75760403660031901126100d7576111cf611241565b906024359160038310156100d7576005546001600160a01b03929083163303611213575016600052600460205260406000209060ff80198354169116179055600080f35b62461bcd60e51b81526020600482015260096024820152682737ba1030b236b4b760b91b6044820152606490fd5b600435906001600160a01b03821682036100d757565b60a0810190811067ffffffffffffffff8211176105e757604052565b90601f8019910116810190811067ffffffffffffffff8211176105e757604052565b92919267ffffffffffffffff82116105e757604051916112bf601f8201601f191660200184611273565b8294818452818301116100d7578281602093846000960137010152565b9080601f830112156100d7578160206112f793359101611295565b90565b80548210156105fd5760005260206000200190600090565b9060038210156104d65752565b90600182811c9216801561134f575b602083101461133957565b634e487b7160e01b600052602260045260246000fd5b91607f169161132e565b9060405191826000825461136c8161131f565b908184526020946001916001811690816000146113dc575060011461139d575b50505061139b92500383611273565b565b600090815285812095935091905b8183106113c457505061139b935082010138808061138c565b855488840185015294850194879450918301916113ab565b9250505061139b94925060ff191682840152151560051b82010138808061138c565b919082519283825260005b84811061142a575050826000602080949584010152601f8019910116010190565b602081830181015184830182015201611409565b9181601f840112156100d75782359167ffffffffffffffff83116100d7576020808501948460051b0101116100d757565b1561147657565b60405162461bcd60e51b8152602060048201526011602482015270556e617574686f72697a656420726f6c6560781b6044820152606490fd5b60038210156104d65752565b8054680100000000000000008110156105e7576114dd916001820181556112fa565b60018060a09493941b038084549260031b9316831b921b1916179055565b60ff1660ff8114610bda5760010190565b909291602090611520836040810196611312565b1515910152565b91908110156105fd5760051b0190565b3580151581036100d7579056fe003013893708bd175bc8eeedd6ea1e367024bbc9bc7b110e7ed37bc77aceac57a2646970667358221220a622dbefe8e6db4f7246872959a598ec1342f6512782193a5fe0f977748e710364736f6c63430008180033",
  "linkReferences": {},
  "deployedLinkReferences": {}
}