{
  "_format": "hh-sol-artifact-1",
  "contractName": "MultiSigWorkflow",
  "sourceName": "contracts/MultiSigWorkflow.sol",
  "abi": [
    {
      "inputs": [],
      "stateMutability": "nonpayable",
      "type": "constructor"
    },
    {
      "anonymous": false,
      "inputs": [
        {
          "indexed": true,
          "internalType": "uint256",
          "name": "transactionId",
          "type": "uint256"
        },
        {
          "indexed": false,
          "internalType": "string",
          "name": "reason",
          "type": "string"
        }
      ],
      "name": "BatchSignError",
      "type": "event"
    },
    {
      "anonymous": false,
      "inputs": [
        {
          "indexed": true,
          "internalType": "uint256",
          "name": "transactionId",
          "type": "uint256"
        },
        {
          "indexed": false,
          "internalType": "string",
          "name": "documentCID",
          "type": "string"
        },
        {
          "indexed": true,
          "internalType": "address",
          "name": "creator",
          "type": "address"
        }
      ],
      "name": "TransactionCreated",
      "type": "event"
    },
    {
      "anonymous": false,
      "inputs": [
        {
          "indexed": true,
          "internalType": "uint256",
          "name": "transactionId",
          "type": "uint256"
        },
        {
          "indexed": true,
          "internalType": "address",
          "name": "signer",
          "type": "address"
        },
        {
          "indexed": false,
          "internalType": "enum MultiSigWorkflow.SignerRole",
          "name": "role",
          "type": "uint8"
        },
        {
          "indexed": false,
          "internalType": "bool",
          "name": "isApproved",
          "type": "bool"
        }
      ],
      "name": "TransactionSigned",
      "type": "event"
    },
    {
      "anonymous": false,
      "inputs": [
        {
          "indexed": true,
          "internalType": "uint256",
          "name": "transactionId",
          "type": "uint256"
        },
        {
          "indexed": false,
          "internalType": "enum MultiSigWorkflow.TransactionStatus",
          "name": "newStatus",
          "type": "uint8"
        }
      ],
      "name": "TransactionStatusChanged",
      "type": "event"
    },
    {
      "inputs": [],
      "name": "REQUIRED_CB_SIGS",
      "outputs": [
        {
          "internalType": "uint8",
          "name": "",
          "type": "uint8"
        }
      ],
      "stateMutability": "view",
      "type": "function"
    },
    {
      "inputs": [],
      "name": "REQUIRED_LD_SIGS",
      "outputs": [
        {
          "internalType": "uint8",
          "name": "",
          "type": "uint8"
        }
      ],
      "stateMutability": "view",
      "type": "function"
    },
    {
      "inputs": [],
      "name": "admin",
      "outputs": [
        {
          "internalType": "address",
          "name": "",
          "type": "address"
        }
      ],
      "stateMutability": "view",
      "type": "function"
    },
    {
      "inputs": [
        {
          "internalType": "uint256[]",
          "name": "_txIds",
          "type": "uint256[]"
        },
        {
          "internalType": "bool[]",
          "name": "_isApproved",
          "type": "bool[]"
        },
        {
          "internalType": "string[]",
          "name": "_reasons",
          "type": "string[]"
        }
      ],
      "name": "batchSignTransactions",
      "outputs": [],
      "stateMutability": "nonpayable",
      "type": "function"
    },
    {
      "inputs": [
        {
          "internalType": "string",
          "name": "_documentCID",
          "type": "string"
        }
      ],
      "name": "createTransaction",
      "outputs": [
        {
          "internalType": "uint256",
          "name": "",
          "type": "uint256"
        }
      ],
      "stateMutability": "nonpayable",
      "type": "function"
    },
    {
      "inputs": [
        {
          "internalType": "uint256",
          "name": "_txId",
          "type": "uint256"
        }
      ],
      "name": "getTransactionSigners",
      "outputs": [
        {
          "internalType": "address[]",
          "name": "",
          "type": "address[]"
        }
      ],
      "stateMutability": "view",
      "type": "function"
    },
    {
      "inputs": [
        {
          "internalType": "address",
          "name": "_user",
          "type": "address"
        },
        {
          "internalType": "enum MultiSigWorkflow.SignerRole",
          "name": "_role",
          "type": "uint8"
        }
      ],
      "name": "setUserRole",
      "outputs": [],
      "stateMutability": "nonpayable",
      "type": "function"
    },
    {
      "inputs": [
        {
          "internalType": "uint256",
          "name": "_txId",
          "type": "uint256"
        },
        {
          "internalType": "bool",
          "name": "_isApproved",
          "type": "bool"
        },
        {
          "internalType": "string",
          "name": "_reason",
          "type": "string"
        }
      ],
      "name": "signTransaction",
      "outputs": [],
      "stateMutability": "nonpayable",
      "type": "function"
    },
    {
      "inputs": [],
      "name": "transactionCount",
      "outputs": [
        {
          "internalType": "uint256",
          "name": "",
          "type": "uint256"
        }
      ],
      "stateMutability": "view",
      "type": "function"
    },
    {
      "inputs": [
        {
          "internalType": "uint256",
          "name": "",
          "type": "uint256"
        },
        {
          "internalType": "address",
          "name": "",
          "type": "address"
        }
      ],
      "name": "transactionSignatures",
      "outputs": [
        {
          "internalType": "address",
          "name": "signer",
          "type": "address"
        },
        {
          "internalType": "enum MultiSigWorkflow.SignerRole",
          "name": "role",
          "type": "uint8"
        },
        {
          "internalType": "uint256",
          "name": "timestamp",
          "type": "uint256"
        },
        {
          "internalType": "bool",
          "name": "isApproved",
          "type": "bool"
        },
        {
          "internalType": "string",
          "name": "reason",
          "type": "string"
        }
      ],
      "stateMutability": "view",
      "type": "function"
    },
    {
      "inputs": [
        {
          "internalType": "uint256",
          "name": "",
          "type": "uint256"
        },
        {
          "internalType": "uint256",
          "name": "",
          "type": "uint256"
        }
      ],
      "name": "transactionSigners",
      "outputs": [
        {
          "internalType": "address",
          "name": "",
          "type": "address"
        }
      ],
      "stateMutability": "view",
      "type": "function"
    },
    {
      "inputs": [
        {
          "internalType": "uint256",
          "name": "",
          "type": "uint256"
        }
      ],
      "name": "transactions",
      "outputs": [
        {
          "internalType": "uint256",
          "name": "transactionId",
          "type": "uint256"
        },
        {
          "internalType": "string",
          "name": "documentCID",
          "type": "string"
        },
        {
          "internalType": "address",
          "name": "creator",
          "type": "address"
        },
        {
          "internalType": "uint8",
          "name": "cbSignaturesCount",
          "type": "uint8"
        },
        {
          "internalType": "uint8",
          "name": "ldSignaturesCount",
          "type": "uint8"
        },
        {
          "internalType": "enum MultiSigWorkflow.TransactionStatus",
          "name": "status",
          "type": "uint8"
        }
      ],
      "stateMutability": "view",
      "type": "function"
    },
    {
      "inputs": [
        {
          "internalType": "address",
          "name": "",
          "type": "address"
        }
      ],
      "name": "userRoles",
      "outputs": [
        {
          "internalType": "enum MultiSigWorkflow.SignerRole",
          "name": "",
          "type": "uint8"
        }
      ],
      "stateMutability": "view",
      "type": "function"
    }
  ],
  "bytecode": "0x608060405234801561001057600080fd5b50600580546001600160a01b031916331790556117f7806100326000396000f3fe608060405234801561001057600080fd5b50600436106100cf5760003560e01c806374d5e1001161008c578063b5cea01911610066578063b5cea01914610200578063b77bf60014610208578063d319fd9914610211578063f851a4401461022457600080fd5b806374d5e100146101875780639ace38c2146101b7578063a9836205146101dc57600080fd5b806303a69611146100d457806312255d09146100e95780633ecc1721146101085780634985e489146101285780634a5f11c81461013b5780634d9e78d414610166575b600080fd5b6100e76100e23660046110f0565b610237565b005b6100f1600181565b60405160ff90911681526020015b60405180910390f35b61011b61011636600461112b565b6102c0565b6040516100ff9190611144565b6100e7610136366004611244565b61032c565b61014e61014936600461129b565b61079f565b6040516001600160a01b0390911681526020016100ff565b6101796101743660046112bd565b6107d7565b6040519081526020016100ff565b6101aa6101953660046112fa565b60046020526000908152604090205460ff1681565b6040516100ff9190611346565b6101ca6101c536600461112b565b61091b565b6040516100ff969594939291906113b0565b6101ef6101ea366004611403565b6109ef565b6040516100ff95949392919061142f565b6100f1600281565b61017960005481565b6100e761021f3660046114b8565b610ac3565b60055461014e906001600160a01b031681565b6005546001600160a01b031633146102825760405162461bcd60e51b81526020600482015260096024820152682737ba1030b236b4b760b91b60448201526064015b60405180910390fd5b6001600160a01b0382166000908152600460205260409020805482919060ff191660018360028111156102b7576102b761131c565b02179055505050565b60008181526003602090815260409182902080548351818402810184019094528084526060939283018282801561032057602002820191906000526020600020905b81546001600160a01b03168152600190910190602001808311610302575b50505050509050919050565b6000838152600160205260408120805490910361038b5760405162461bcd60e51b815260206004820152601a60248201527f5472616e73616374696f6e20646f6573206e6f742065786973740000000000006044820152606401610279565b60006002820154600160b01b900460ff1660038111156103ad576103ad61131c565b146103fa5760405162461bcd60e51b815260206004820152601a60248201527f5472616e73616374696f6e206973206e6f742070656e64696e670000000000006044820152606401610279565b6000848152600260209081526040808320338452909152902060010154156104555760405162461bcd60e51b815260206004820152600e60248201526d105b1c9958591e481cda59db995960921b6044820152606401610279565b3360009081526004602052604090205460ff16600181600281111561047c5761047c61131c565b1480610499575060028160028111156104975761049761131c565b145b6104d95760405162461bcd60e51b8152602060048201526011602482015270556e617574686f72697a656420726f6c6560781b6044820152606401610279565b6040518060a00160405280336001600160a01b031681526020018260028111156105055761050561131c565b8152426020808301919091528615156040808401919091526060909201869052600088815260028083528382203383528352929020835181546001600160a01b03919091166001600160a01b0319821681178355928501519193919284926001600160a81b03199092161790600160a01b9084908111156105885761058861131c565b021790555060408201516001820155606082015160028201805460ff1916911515919091179055608082015160038201906105c390826115dd565b50505060008581526003602090815260408220805460018101825590835291200180546001600160a01b03191633179055831561071357600181600281111561060e5761060e61131c565b0361064d57600282018054600160a01b900460ff1690601461062f836116b3565b91906101000a81548160ff021916908360ff1602179055505061069c565b60028160028111156106615761066161131c565b0361069c57600282018054600160a81b900460ff16906015610682836116b3565b91906101000a81548160ff021916908360ff160217905550505b600282810154600160a01b900460ff16108015906106ca575060028201546001600160a81b90910460ff1610155b1561070e5760028201805460ff60b01b1916600160b01b17905560405185906000805160206117a283398151915290610705906001906116d2565b60405180910390a25b610754565b6002828101805460ff60b01b1916600160b01b830217905550846000805160206117a2833981519152600260405161074b91906116d2565b60405180910390a25b336001600160a01b0316857f9d9bea5c4781935c57fd5f2a2f437cb750e3fb646da05e8aa40a122acbcdbd3183876040516107909291906116e0565b60405180910390a35050505050565b600360205281600052604060002081815481106107bb57600080fd5b6000918252602090912001546001600160a01b03169150829050565b6000805481806107e6836116fd565b9091555050600080546040805160c08101825282815260208082018781523383850152606083018690526080830186905260a0830186905284865260019182905292909420815181559151929390929082019061084390826115dd565b5060408201516002820180546060850151608086015160ff908116600160a81b0260ff60a81b1991909216600160a01b026001600160a81b03199093166001600160a01b0390951694909417919091179283168117825560a08501519260ff60b01b1990911661ffff60a81b1990911617600160b01b8360038111156108cb576108cb61131c565b0217905550905050336001600160a01b0316817f6b788bd9be8b568189b1598944788128be6dc1ad3c711fdc84fa4fa1fa21ea188560405161090d9190611716565b60405180910390a392915050565b60016020819052600091825260409091208054918101805461093c90611552565b80601f016020809104026020016040519081016040528092919081815260200182805461096890611552565b80156109b55780601f1061098a576101008083540402835291602001916109b5565b820191906000526020600020905b81548152906001019060200180831161099857829003601f168201915b505050600290930154919250506001600160a01b0381169060ff600160a01b8204811691600160a81b8104821691600160b01b9091041686565b6002602081815260009384526040808520909152918352912080546001820154928201546003830180546001600160a01b03841695600160a01b90940460ff908116959316929190610a4090611552565b80601f0160208091040260200160405190810160405280929190818152602001828054610a6c90611552565b8015610ab95780601f10610a8e57610100808354040283529160200191610ab9565b820191906000526020600020905b815481529060010190602001808311610a9c57829003601f168201915b5050505050905085565b8483148015610ad157508481145b610b165760405162461bcd60e51b8152602060048201526016602482015275082e4e4c2f240d8cadccee8d0e640dad2e6dac2e8c6d60531b6044820152606401610279565b3360009081526004602052604090205460ff166001816002811115610b3d57610b3d61131c565b1480610b5a57506002816002811115610b5857610b5861131c565b145b610b9a5760405162461bcd60e51b8152602060048201526011602482015270556e617574686f72697a656420726f6c6560781b6044820152606401610279565b60005b868110156110ca576000888883818110610bb957610bb9611729565b602090810292909201356000818152600190935260408320805491945092039050610c4d57817f1488ac69826eac1379d94b07633874a0e8e2b3ecf326c12525873610ce027a8e604051610c3e906020808252601a908201527f5472616e73616374696f6e20646f6573206e6f74206578697374000000000000604082015260600190565b60405180910390a250506110c2565b60006002820154600160b01b900460ff166003811115610c6f57610c6f61131c565b14610cd457817f1488ac69826eac1379d94b07633874a0e8e2b3ecf326c12525873610ce027a8e604051610c3e906020808252601a908201527f5472616e73616374696f6e206973206e6f742070656e64696e67000000000000604082015260600190565b600082815260026020908152604080832033845290915290206001015415610d4757817f1488ac69826eac1379d94b07633874a0e8e2b3ecf326c12525873610ce027a8e604051610c3e906020808252600e908201526d105b1c9958591e481cda59db995960921b604082015260600190565b6040518060a00160405280336001600160a01b03168152602001856002811115610d7357610d7361131c565b8152602001428152602001898986818110610d9057610d90611729565b9050602002016020810190610da5919061173f565b15158152602001878786818110610dbe57610dbe611729565b9050602002810190610dd0919061175a565b8080601f01602080910402602001604051908101604052809392919081815260200183838082843760009201829052509390945250508481526002602081815260408084203385528252909220845181546001600160a01b03919091166001600160a01b031982168117835593860151919450909284926001600160a81b03199092161790600160a01b908490811115610e6c57610e6c61131c565b021790555060408201516001820155606082015160028201805460ff191691151591909117905560808201516003820190610ea790826115dd565b50505060008281526003602090815260408220805460018101825590835291200180546001600160a01b03191633179055878784818110610eea57610eea611729565b9050602002016020810190610eff919061173f565b1561101d576001846002811115610f1857610f1861131c565b03610f5757600281018054600160a01b900460ff16906014610f39836116b3565b91906101000a81548160ff021916908360ff16021790555050610fa6565b6002846002811115610f6b57610f6b61131c565b03610fa657600281018054600160a81b900460ff16906015610f8c836116b3565b91906101000a81548160ff021916908360ff160217905550505b600281810154600160a01b900460ff1610801590610fd4575060028101546001600160a81b90910460ff1610155b156110185760028101805460ff60b01b1916600160b01b17905560405182906000805160206117a28339815191529061100f906001906116d2565b60405180910390a25b61105e565b6002818101805460ff60b01b1916600160b01b830217905550816000805160206117a2833981519152600260405161105591906116d2565b60405180910390a25b33827f9d9bea5c4781935c57fd5f2a2f437cb750e3fb646da05e8aa40a122acbcdbd31868b8b8881811061109457611094611729565b90506020020160208101906110a9919061173f565b6040516110b79291906116e0565b60405180910390a350505b600101610b9d565b5050505050505050565b80356001600160a01b03811681146110eb57600080fd5b919050565b6000806040838503121561110357600080fd5b61110c836110d4565b915060208301356003811061112057600080fd5b809150509250929050565b60006020828403121561113d57600080fd5b5035919050565b6020808252825182820181905260009190848201906040850190845b818110156111855783516001600160a01b031683529284019291840191600101611160565b50909695505050505050565b803580151581146110eb57600080fd5b634e487b7160e01b600052604160045260246000fd5b600082601f8301126111c857600080fd5b813567ffffffffffffffff808211156111e3576111e36111a1565b604051601f8301601f19908116603f0116810190828211818310171561120b5761120b6111a1565b8160405283815286602085880101111561122457600080fd5b836020870160208301376000602085830101528094505050505092915050565b60008060006060848603121561125957600080fd5b8335925061126960208501611191565b9150604084013567ffffffffffffffff81111561128557600080fd5b611291868287016111b7565b9150509250925092565b600080604083850312156112ae57600080fd5b50508035926020909101359150565b6000602082840312156112cf57600080fd5b813567ffffffffffffffff8111156112e657600080fd5b6112f2848285016111b7565b949350505050565b60006020828403121561130c57600080fd5b611315826110d4565b9392505050565b634e487b7160e01b600052602160045260246000fd5b600381106113425761134261131c565b9052565b602081016113548284611332565b92915050565b6000815180845260005b8181101561138057602081850181015186830182015201611364565b506000602082860101526020601f19601f83011685010191505092915050565b600481106113425761134261131c565b86815260c0602082015260006113c960c083018861135a565b6001600160a01b038716604084015260ff86811660608501528516608084015290506113f860a08301846113a0565b979650505050505050565b6000806040838503121561141657600080fd5b82359150611426602084016110d4565b90509250929050565b6001600160a01b03861681526114486020820186611332565b836040820152821515606082015260a0608082015260006113f860a083018461135a565b60008083601f84011261147e57600080fd5b50813567ffffffffffffffff81111561149657600080fd5b6020830191508360208260051b85010111156114b157600080fd5b9250929050565b600080600080600080606087890312156114d157600080fd5b863567ffffffffffffffff808211156114e957600080fd5b6114f58a838b0161146c565b9098509650602089013591508082111561150e57600080fd5b61151a8a838b0161146c565b9096509450604089013591508082111561153357600080fd5b5061154089828a0161146c565b979a9699509497509295939492505050565b600181811c9082168061156657607f821691505b60208210810361158657634e487b7160e01b600052602260045260246000fd5b50919050565b601f8211156115d8576000816000526020600020601f850160051c810160208610156115b55750805b601f850160051c820191505b818110156115d4578281556001016115c1565b5050505b505050565b815167ffffffffffffffff8111156115f7576115f76111a1565b61160b816116058454611552565b8461158c565b602080601f83116001811461164057600084156116285750858301515b600019600386901b1c1916600185901b1785556115d4565b600085815260208120601f198616915b8281101561166f57888601518255948401946001909101908401611650565b508582101561168d5787850151600019600388901b60f8161c191681555b5050505050600190811b01905550565b634e487b7160e01b600052601160045260246000fd5b600060ff821660ff81036116c9576116c961169d565b60010192915050565b6020810161135482846113a0565b604081016116ee8285611332565b82151560208301529392505050565b60006001820161170f5761170f61169d565b5060010190565b602081526000611315602083018461135a565b634e487b7160e01b600052603260045260246000fd5b60006020828403121561175157600080fd5b61131582611191565b6000808335601e1984360301811261177157600080fd5b83018035915067ffffffffffffffff82111561178c57600080fd5b6020019150368190038213156114b157600080fdfe003013893708bd175bc8eeedd6ea1e367024bbc9bc7b110e7ed37bc77aceac57a26469706673582212206ad2f4d9c41847cea682fb01ed6ef05ca3e983baaceabe35322b05e148f82e5564736f6c63430008180033",
  "linkReferences": {},
  "deployedLinkReferences": {}
}