{
  "_format": "hh-sol-artifact-1",
  "contractName": "WalletOverride",
  "sourceName": "contracts/WalletOverride.sol",
  "abi": [
    {
      "inputs": [
        {
          "internalType": "address",
          "name": "_landNFTAddress",
          "type": "address"
        }
      ],
      "stateMutability": "nonpayable",
      "type": "constructor"
    },
    {
      "anonymous": false,
      "inputs": [
        {
          "indexed": true,
          "internalType": "address",
          "name": "previousOwner",
          "type": "address"
        },
        {
          "indexed": true,
          "internalType": "address",
          "name": "newOwner",
          "type": "address"
        }
      ],
      "name": "OwnershipTransferred",
      "type": "event"
    },
    {
      "anonymous": false,
      "inputs": [
        {
          "indexed": true,
          "internalType": "uint256",
          "name": "requestId",
          "type": "uint256"
        },
        {
          "indexed": false,
          "internalType": "address",
          "name": "oldWallet",
          "type": "address"
        },
        {
          "indexed": false,
          "internalType": "address",
          "name": "newWallet",
          "type": "address"
        },
        {
          "indexed": false,
          "internalType": "uint256[]",
          "name": "transferredTokenIds",
          "type": "uint256[]"
        }
      ],
      "name": "RecoveryApproved",
      "type": "event"
    },
    {
      "anonymous": false,
      "inputs": [
        {
          "indexed": true,
          "internalType": "uint256",
          "name": "requestId",
          "type": "uint256"
        },
        {
          "indexed": false,
          "internalType": "string",
          "name": "reason",
          "type": "string"
        }
      ],
      "name": "RecoveryRejected",
      "type": "event"
    },
    {
      "anonymous": false,
      "inputs": [
        {
          "indexed": true,
          "internalType": "uint256",
          "name": "requestId",
          "type": "uint256"
        },
        {
          "indexed": true,
          "internalType": "bytes32",
          "name": "citizenIdHash",
          "type": "bytes32"
        },
        {
          "indexed": false,
          "internalType": "address",
          "name": "oldWallet",
          "type": "address"
        },
        {
          "indexed": false,
          "internalType": "address",
          "name": "newWallet",
          "type": "address"
        }
      ],
      "name": "RecoveryRequested",
      "type": "event"
    },
    {
      "inputs": [
        {
          "internalType": "uint256",
          "name": "requestId",
          "type": "uint256"
        },
        {
          "internalType": "uint256[]",
          "name": "tokenIds",
          "type": "uint256[]"
        }
      ],
      "name": "approveWalletOverride",
      "outputs": [],
      "stateMutability": "nonpayable",
      "type": "function"
    },
    {
      "inputs": [
        {
          "internalType": "bytes32",
          "name": "",
          "type": "bytes32"
        }
      ],
      "name": "citizenWallet",
      "outputs": [
        {
          "internalType": "address",
          "name": "",
          "type": "address"
        }
      ],
      "stateMutability": "view",
      "type": "function"
    },
    {
      "inputs": [
        {
          "internalType": "bytes32",
          "name": "citizenIdHash",
          "type": "bytes32"
        }
      ],
      "name": "getWalletByCitizenId",
      "outputs": [
        {
          "internalType": "address",
          "name": "",
          "type": "address"
        }
      ],
      "stateMutability": "view",
      "type": "function"
    },
    {
      "inputs": [],
      "name": "landNFTContract",
      "outputs": [
        {
          "internalType": "contract LandNFT",
          "name": "",
          "type": "address"
        }
      ],
      "stateMutability": "view",
      "type": "function"
    },
    {
      "inputs": [],
      "name": "owner",
      "outputs": [
        {
          "internalType": "address",
          "name": "",
          "type": "address"
        }
      ],
      "stateMutability": "view",
      "type": "function"
    },
    {
      "inputs": [
        {
          "internalType": "uint256",
          "name": "",
          "type": "uint256"
        }
      ],
      "name": "recoveryRequests",
      "outputs": [
        {
          "internalType": "uint256",
          "name": "requestId",
          "type": "uint256"
        },
        {
          "internalType": "bytes32",
          "name": "citizenIdHash",
          "type": "bytes32"
        },
        {
          "internalType": "address",
          "name": "oldWallet",
          "type": "address"
        },
        {
          "internalType": "address",
          "name": "newWallet",
          "type": "address"
        },
        {
          "internalType": "enum WalletOverride.RecoveryStatus",
          "name": "status",
          "type": "uint8"
        },
        {
          "internalType": "uint256",
          "name": "createdAt",
          "type": "uint256"
        },
        {
          "internalType": "uint256",
          "name": "resolvedAt",
          "type": "uint256"
        }
      ],
      "stateMutability": "view",
      "type": "function"
    },
    {
      "inputs": [
        {
          "internalType": "bytes32",
          "name": "citizenIdHash",
          "type": "bytes32"
        },
        {
          "internalType": "address",
          "name": "wallet",
          "type": "address"
        }
      ],
      "name": "registerCitizenWallet",
      "outputs": [],
      "stateMutability": "nonpayable",
      "type": "function"
    },
    {
      "inputs": [
        {
          "internalType": "uint256",
          "name": "requestId",
          "type": "uint256"
        },
        {
          "internalType": "string",
          "name": "reason",
          "type": "string"
        }
      ],
      "name": "rejectWalletOverride",
      "outputs": [],
      "stateMutability": "nonpayable",
      "type": "function"
    },
    {
      "inputs": [],
      "name": "renounceOwnership",
      "outputs": [],
      "stateMutability": "nonpayable",
      "type": "function"
    },
    {
      "inputs": [],
      "name": "requestCount",
      "outputs": [
        {
          "internalType": "uint256",
          "name": "",
          "type": "uint256"
        }
      ],
      "stateMutability": "view",
      "type": "function"
    },
    {
      "inputs": [
        {
          "internalType": "bytes32",
          "name": "citizenIdHash",
          "type": "bytes32"
        },
        {
          "internalType": "address",
          "name": "newWallet",
          "type": "address"
        }
      ],
      "name": "requestWalletOverride",
      "outputs": [
        {
          "internalType": "uint256",
          "name": "",
          "type": "uint256"
        }
      ],
      "stateMutability": "nonpayable",
      "type": "function"
    },
    {
      "inputs": [
        {
          "internalType": "address",
          "name": "newOwner",
          "type": "address"
        }
      ],
      "name": "transferOwnership",
      "outputs": [],
      "stateMutability": "nonpayable",
      "type": "function"
    }
  ],
  "bytecode": "0x608060405234801561001057600080fd5b50604051610e9c380380610e9c83398101604081905261002f916100ad565b6100383361005d565b600180546001600160a01b0319166001600160a01b03929092169190911790556100dd565b600080546001600160a01b038381166001600160a01b0319831681178455604051919092169283917f8be0079c531659141344cd1fd0a4f28419497f9722a3daafe3b4186f6b6457e09190a35050565b6000602082840312156100bf57600080fd5b81516001600160a01b03811681146100d657600080fd5b9392505050565b610db0806100ec6000396000f3fe608060405234801561001057600080fd5b50600436106100b35760003560e01c80638da5cb5b116100715780638da5cb5b146101a3578063c5973674146101b4578063de8ac413146101c7578063e75cb56c146101da578063f2fde38b14610203578063f34093a61461021657600080fd5b80624417c8146100b857806304802c9a146100cd5780632b359bc5146101465780635badbe4c14610171578063715018a614610188578063744696de14610190575b600080fd5b6100cb6100c6366004610ad2565b61023f565b005b61012a6100db366004610b02565b6003602081905260009182526040909120805460018201546002830154938301546004840154600590940154929491936001600160a01b039283169392821692600160a01b90920460ff169187565b60405161013d9796959493929190610b31565b60405180910390f35b600154610159906001600160a01b031681565b6040516001600160a01b03909116815260200161013d565b61017a60025481565b60405190815260200161013d565b6100cb610341565b61017a61019e366004610ad2565b610355565b6000546001600160a01b0316610159565b6100cb6101c2366004610b92565b6105e2565b6100cb6101d5366004610c0e565b610707565b6101596101e8366004610b02565b6004602052600090815260409020546001600160a01b031681565b6100cb610211366004610c7a565b61099a565b610159610224366004610b02565b6000908152600460205260409020546001600160a01b031690565b610247610a13565b6000828152600460205260409020546001600160a01b0316156102c45760405162461bcd60e51b815260206004820152602a60248201527f57616c6c657420616c7265616479207265676973746572656420666f7220746860448201526934b99031b4ba34bd32b760b11b60648201526084015b60405180910390fd5b6001600160a01b0381166103135760405162461bcd60e51b8152602060048201526016602482015275496e76616c69642077616c6c6574206164647265737360501b60448201526064016102bb565b60009182526004602052604090912080546001600160a01b0319166001600160a01b03909216919091179055565b610349610a13565b6103536000610a6d565b565b600061035f610a13565b6000838152600460205260409020546001600160a01b0316806103d25760405162461bcd60e51b815260206004820152602560248201527f4e6f2077616c6c6574207265676973746572656420666f7220746869732063696044820152643a34bd32b760d91b60648201526084016102bb565b6001600160a01b0383166104285760405162461bcd60e51b815260206004820152601a60248201527f496e76616c6964206e65772077616c6c6574206164647265737300000000000060448201526064016102bb565b806001600160a01b0316836001600160a01b0316036104985760405162461bcd60e51b815260206004820152602660248201527f4e65772077616c6c6574206d757374206469666665722066726f6d206f6c64206044820152651dd85b1b195d60d21b60648201526084016102bb565b600280549060006104a883610c9e565b90915550506002546040805160e081018252828152602081018790526001600160a01b03808516928201929092529085166060820152608081016000815242602080830191909152600060409283018190528481526003808352908390208451815591840151600183015591830151600280830180546001600160a01b039384166001600160a01b031991821617909155606086015194840180549590931690851681178355608086015193946001600160a81b0319161790600160a01b90849081111561057857610578610b1b565b021790555060a0820151600482015560c090910151600590910155604080516001600160a01b03808516825286166020820152869183917f3df36af048cf28b5ebf59a66fbd041235a7237a8c2153ba91bf69bb6f20e1f04910160405180910390a3949350505050565b6105ea610a13565b600083815260036020526040812080549091036106425760405162461bcd60e51b815260206004820152601660248201527514995c5d595cdd08191bd95cc81b9bdd08195e1a5cdd60521b60448201526064016102bb565b60006003820154600160a01b900460ff16600281111561066457610664610b1b565b146106aa5760405162461bcd60e51b815260206004820152601660248201527552657175657374206973206e6f742070656e64696e6760501b60448201526064016102bb565b60038101805460ff60a01b1916600160a11b17905542600582015560405184907ff275e073ed2854ef6b9c54611440cd420de0cf58a9629f3e7d4ae791c8c3de69906106f99086908690610cc5565b60405180910390a250505050565b61070f610a13565b600083815260036020526040812080549091036107675760405162461bcd60e51b815260206004820152601660248201527514995c5d595cdd08191bd95cc81b9bdd08195e1a5cdd60521b60448201526064016102bb565b60006003820154600160a01b900460ff16600281111561078957610789610b1b565b146107cf5760405162461bcd60e51b815260206004820152601660248201527552657175657374206973206e6f742070656e64696e6760501b60448201526064016102bb565b60038101805460ff60a01b198116600160a01b179091554260058301556001820154600090815260046020526040812080546001600160a01b0319166001600160a01b03909316929092179091555b8281101561094b57600084848381811061083a5761083a610cf4565b60028601546001546040516331a9108f60e11b815260209390930294909401356004830181905294506001600160a01b0390811693169150636352211e90602401602060405180830381865afa158015610898573d6000803e3d6000fd5b505050506040513d601f19601f820116820180604052508101906108bc9190610d0a565b6001600160a01b0316036109425760015460028401546003850154604051631b4e583d60e31b81526001600160a01b03928316600482015290821660248201526044810184905291169063da72c1e890606401600060405180830381600087803b15801561092957600080fd5b505af115801561093d573d6000803e3d6000fd5b505050505b5060010161081e565b506002810154600382015460405186927feeddc0a974937b8384907b125065534d7b8bbc8465beb6cb4d7736cbe769d8fb926106f9926001600160a01b03928316929091169088908890610d27565b6109a2610a13565b6001600160a01b038116610a075760405162461bcd60e51b815260206004820152602660248201527f4f776e61626c653a206e6577206f776e657220697320746865207a65726f206160448201526564647265737360d01b60648201526084016102bb565b610a1081610a6d565b50565b6000546001600160a01b031633146103535760405162461bcd60e51b815260206004820181905260248201527f4f776e61626c653a2063616c6c6572206973206e6f7420746865206f776e657260448201526064016102bb565b600080546001600160a01b038381166001600160a01b0319831681178455604051919092169283917f8be0079c531659141344cd1fd0a4f28419497f9722a3daafe3b4186f6b6457e09190a35050565b6001600160a01b0381168114610a1057600080fd5b60008060408385031215610ae557600080fd5b823591506020830135610af781610abd565b809150509250929050565b600060208284031215610b1457600080fd5b5035919050565b634e487b7160e01b600052602160045260246000fd5b878152602081018790526001600160a01b0386811660408301528516606082015260e0810160038510610b7457634e487b7160e01b600052602160045260246000fd5b8460808301528360a08301528260c083015298975050505050505050565b600080600060408486031215610ba757600080fd5b83359250602084013567ffffffffffffffff80821115610bc657600080fd5b818601915086601f830112610bda57600080fd5b813581811115610be957600080fd5b876020828501011115610bfb57600080fd5b6020830194508093505050509250925092565b600080600060408486031215610c2357600080fd5b83359250602084013567ffffffffffffffff80821115610c4257600080fd5b818601915086601f830112610c5657600080fd5b813581811115610c6557600080fd5b8760208260051b8501011115610bfb57600080fd5b600060208284031215610c8c57600080fd5b8135610c9781610abd565b9392505050565b600060018201610cbe57634e487b7160e01b600052601160045260246000fd5b5060010190565b60208152816020820152818360408301376000818301604090810191909152601f909201601f19160101919050565b634e487b7160e01b600052603260045260246000fd5b600060208284031215610d1c57600080fd5b8151610c9781610abd565b6001600160a01b03858116825284166020820152606060408201819052810182905260006001600160fb1b03831115610d5f57600080fd5b8260051b80856080850137919091016080019594505050505056fea2646970667358221220e7a9292083b15134343d5c543830b8d726a9acac4e0382337d007b01d5503ee064736f6c63430008180033",
  "linkReferences": {},
  "deployedLinkReferences": {}
}